:020000022000DC
:1070000000F0032081730200697302006B730200B9
:107010006D7302006F7302007173020000000000C4
:107020000000000000000000000000007373020078
:10703000757302000000000077730200797302008C
:107040007B7302007B7302007B730200995F030075
:10705000A95F03007B7302005D5A03007B7302008B
:107060007B7302007B730200A54403007B73020064
:107070007B7302007B7302007B7302007B73020050
:107080007B7302001D9B0300A9BE02007B730200FC
:10709000ED9B03007B7302003D6203007B730200E3
:1070A0007B7302007B7302007B7302007B73020020
:1070B0007B7302007B7302000000000000000000F0
:1070C0007B7302007B7302007B730200B95F0300D5
:1070D0007B7302007B7302007B7302007B730200F0
:1070E0007B7302007B7302007B73020000000000D0
:1070F000000000007B730200000000007B730200B0
:10710000000000000000000000000000000000007F
:10711000000000000000000000000000000000006F
:10712000000000000000000000000000000000005F
:10713000000000000000000000000000000000004F
:10714000000000000000000000000000000000003F
:10715000000000000000000000000000000000002F
:10716000000000000000000000000000000000001F
:10717000000000000000000000000000000000000F
:1071800000000000000000000000000000000000FF
:1071900000000000000000000000000000000000EF
:1071A00000000000000000000000000000000000DF
:1071B00000000000000000000000000000000000CF
:1071C00000000000000000000000000000000000BF
:1071D00000000000000000000000000000000000AF
:1071E000000000000000000000000000000000009F
:1071F000000000000000000000000000000000008F
:1072000039493A480A1A02D0072291438D46384933
:1072100038480A1A06D00722914381F309880222CE
:1072200082F3148834483549354A00F03FF8354830
:107230003549364A00F03AF835483649364A00F0C2
:1072400035F836483649374A00F030F8364837497D
:10725000374A00F02BF837483749384A00F026F80B
:1072600037483849384A00F021F838483849002270
:1072700000F034F837483849002200F02FF837483A
:107280003749091A13F00CF825482649884205D0D9
:107290000268043003B4904703BCF7E70020864639
:1072A000EC46002000212F4A9047FEE7884214D088
:1072B000521A12D003460B4313430324234206D130
:1072C000036804300B600431043AF9D17047037845
:1072D00001300B700131013AF9D17047884202D078
:1072E00002700130FAE7704700F0032000E8032045
:1072F00000F0032000F0032098C00300002E0020BF
:107300005E2E0020B4730200B47302005CA403007C
:1073100098C00300002E0020002E0020F0A70300DC
:10732000F0A70300F0A70300F0A70300F0A70300F5
:10733000F0A70300F0A70300F0A7030098C0030024
:10734000F8C00300602E0020602E0020602E002078
:1073500068590020685900206859002068590020A9
:10736000685D002089770200FEE7FEE7FEE7FEE7A2
:10737000FEE7FEE7FEE7FEE7FEE7FEE700F002B805
:10738000FFF7FCBF08484FF00701884385460748D0
:1073900080470748016841F470010160BFF34F8FD7
:1073A000BFF36F8FFFF72CBF00F00320656203006F
:0473B00088ED00E084
:1073B40041DF704730B544686378172B8FB00546BA
:1073C40077D142781F2A13D04F4B1B685B0470D5CA
:1073D4004E4B1B68032B6CDD4D4BD3F804350192E7
:1073E4004C4A009255224C49042005F053FC60E0BD
:1073F4001C2200210DEB0200069112F0FDFF237800
:107404008DF8183063788DF81930A3788DF81A3018
:10741400E37803F00F038DF81B30E3781B098DF834
:107424001C30237903F00F038DF81D3023791B09D9
:107434008DF81E306379224603F007038DF81F3060
:1074440012F8053FDB088DF8203008A904F11C036D
:1074540012F8010F01F8010F9A42F9D100F06CFB08
:10746400202106A800F086FBC0F30724C2B27E2CBC
:1074740021D87E2A22D86968487FA04202D18B7F16
:1074840093421ED0204B1B685D0412D51F4B1B6812
:10749400032B0EDD1E4B897FD3F80435CDE9014261
:1074A4001E4A0092CDE903017B221B49042005F00A
:1074B400F1FB0FB030BD7F3CE4B2D8E77F3AD2B2E3
:1074C400D7E7174D06AB002113F8010B68540131BF
:1074D4002029F9D1124885F82040222185F821205D
:1074E40000F078FB084B1B685B04E2D5074B1B6874
:1074F400032BDEDD064BD3F80435AA780192094A42
:10750400009287226FE700BF182E0020142E00205F
:10751400001001404FA8030048A8030072A803000C
:10752400602F0020DDA8030070B50F4D0B462968BD
:10753400044691B101F1110203F11C0053F8046BEC
:1075440042F8046B8342F9D1188810809B789370B9
:1075540001230B7120460CF092FD1F2120460CF0F4
:1075640056FD286070BD00BF602E00200C4B1B68C8
:107574005B0407B50DD50B4B1B68032B09DD0A4BC8
:107584000A4AD3F804350A4900920420442205F03B
:1075940081FB0849084803B05DF804EBFFF7C4BF5A
:1075A400182E0020142E00200010014008A903000A
:1075B40048A80300412F0020A42E0020024A0348BB
:1075C400402300210CF00CBE642E0020A42E0020C9
:1075D4000E4B1B685B0407B50DD50D4B1B68032BC5
:1075E40009DD0C4B0C4AD3F804350C4900920420F5
:1075F400912205F04FFB0322C8210F2000F068FB05
:1076040003B05DF804EB08F0B1BC00BF182E0020F5
:10761400142E00200010014042A9030048A80300D2
:107624000378232B01D1FFF7D3BF704770B58CB01B
:107634000021242203A812F0DFFE1E4B039307232C
:107644008DF8143000211C4B079303A808F044FC68
:10765400C8B10B2828D1194D2B685A0413D5184EDC
:107664003368032B0FDD174C174AD4F80435174938
:1076740000920420AC2205F00DFB2B685B0402D5BC
:107684003368032B06DC124803F06AFBFFF796FF0E
:107694000CB070BD0F4AD4F804350C490092042094
:1076A400AD2205F0F7FAEEE70B4AB2210EF0CDFE5B
:1076B400E9E700BF0100000725760200182E00202C
:1076C400142E0020001001405BA9030048A8030009
:1076D400B9730200A9A90300F0A7030007B512F0CB
:1076E400CBFB18B1124AC2210EF0AFFE00F036FBFC
:1076F400104A04214FF4804005F0AEFA00F062FB1A
:10770400FFF794FF0C4B1B685B040DD50B4B1B68F8
:10771400032B09DD0A4B0B4AD3F804350A490092BE
:107724000420C92205F0B6FA03B05DF804FB00BFDB
:10773400F0A7030031CC0200182E0020142E0020E4
:1077440000100140E5A9030048A8030008B517206C
:107754000CF0CAFA08F0B0FB18B1084AD0210EF0B8
:1077640074FEFFF725FE06480CF034FCFFF720FEFC
:1077740000F064F9BDE80840FFF71ABEF0A7030063
:10778400A42E002008B5FFF7A9FFFFF7DFFF0020B4
:1077940008BD41DF704700002DE9F0438378172BC3
:1077A4008DB0044631D0644D2B6858040FD5634B1B
:1077B4001B68032B0BDD624B6249D3F8043522228C
:1077C4000192614A00920420162205F063FA5B4F8D
:1077D400DFF86C81DFF8889104F123062B685904E3
:1077E4000CD53B68032B09DD2278D8F804355549BC
:1077F400CDE900920420192205F04CFA0134A64286
:10780400ECD100200DB0BDE8F08304AA431C00F1C4
:107814002107164618685968154603C50833BB4244
:107824002A46F7D100F088F93046202100F0A2F969
:10783400414FDFF80C91C0F30726C5B24FF00008A2
:107844003B685A0410D53D4B1B68032B0CDD14F820
:107854000820D9F804353B49CDE901823B4A00921E
:1078640004202B2205F016FA08F10108B8F1230FC1
:10787400E6D1DFF8C8807E2E1BD8DFF8C0807E2DCD
:107884002CD894F82120B2423DD03B685904B8D595
:107894002A4B1B68032BB4DD294BD3F80435CDE9FF
:1078A40001622B4A00923C222649042005F0F2F999
:1078B400A7E73B685B040ED5D8F80030032B0ADD3C
:1078C4001F4B244AD3F804351E49009201963022F6
:1078D400042005F0DFF97F3EF6B2CCE73B6858049C
:1078E4000ED5D8F80030032B0ADD154B1A4AD3F80D
:1078F40004351449009201953622042005F0CAF992
:107904007F3DEDB2BBE794F82220AA4211D03B6838
:107914005B047FF576AF094B1B68032B7FF771AFD0
:10792400074BD3F80435CDE901520C4A00924322A7
:10793400BAE7012066E700BF182E0020142E0020AD
:10794400001001405CAA030063AA03008DAA03008F
:10795400BAAA0300A2AA0300AEAA0300F0AA030075
:107964007AAA03002DE9F04188B008AB03E90700C7
:107974009DF81430012B18D1274D284A284E137036
:107984002846FFF709FF98B9336859040DD5254BEC
:107994001B68032B09DD244B244AD3F804352449FE
:1079A40000920420572205F075F908B0BDE8F08173
:1079B40033682C795A04E4B216D5DFF86880D8F815
:1079C4000030032B10DD184F1A4AD7F80435184934
:1079D400009204205C2205F05DF933685B0403D552
:1079E400D8F80030032B09DC052CDED00A4800F05F
:1079F4007FF808B0BDE8F041FFF7B8BDD7F804350B
:107A0400EA780B49CDE901420B4A009204205D2239
:107A140005F040F9E8E700BF822F0020402F002046
:107A2400182E0020142E00200010014026AB030065
:107A34005CAA030032AB03003EAB030030B5264D15
:107A44000FCD89B002AC0FC495E8030084E80300AD
:107A5400FFF79FFE1F230593FFF79BFE1E23029350
:107A6400FFF797FE1D230393FFF793FE1A23049356
:107A7400FFF78FFE07238DF81E30FFF78AFEFFF70E
:107A840088FE164A164802A90EF0CAF808B10EF08C
:107A9400CFFCFFF77EFE4FF0A04340F20132C3F863
:107AA4007827FFF776FE0F4D0F4C10490C4823231F
:107AB400009322222B460EF0FBF908B10EF0B8FC1D
:107AC4000023237023781BB101200EF087F8ECE724
:107AD400FFF75FFEF6E700BF64AB030069790200BD
:107AE4005CAB0300822F0020402F0020602F002079
:107AF400104B42781A7082785A70C27881799A70E1
:107B0400427942EA0112D2B2017A1A71C27942EA86
:107B14000112D2B2817A5A71427A42EAC102D2B2D5
:107B24009A710A30062210F8011F995401321F2A53
:107B3400F9D17047412F00200D4810B5002148F2BB
:107B440005040B029BB2082213F4004F02F1FF322A
:107B54004FEA430318BF634012F0FF029BB2F3D114
:107B64000131B1F5807F20F8023BEAD110BD00BF9E
:107B7400A62F0020F0B5DFF858C0002423460127C3
:107B84008C420DDB0F2200200121DC0744BF01FAE7
:107B940002F42043013A4FEA5303F6D280B2F0BD17
:107BA400065D0725002216F0010F1CBF07FA05FE2B
:107BB40042EA0E02013D4FEA5606F4D282EA13224B
:107BC400D2B21B023CF812209BB253400134D7E7D7
:107BD400A62F0020014BC3E900017047A831002003
:107BE4001F288ABF064B4FF0A04300F01F00D3F8B4
:107BF400043523FA00F0C04300F00100704700BFD1
:107C04000003005009B10DF01ABF0DF00BBF0000C6
:107C14002DE9F8431D4D286808B90EF009FC1C4EE7
:107C2400DFF87890376800244FF0010808FA04F36D
:107C34003B420AD019F804201046FFF7D1FF80F028
:107C44000101C9B21046FFF7DDFF0134042CEDD168
:107C54002C68013C2C60B4B90E480F4FDFF83C800F
:107C640012F0CEF90125326805FA04F3134207D065
:107C7400396818F80400E14001F00101FFF7C2FF80
:107C84000134042CEFD1BDE8F88300BFB8310020E3
:107C9400B4310020BC310020B03100207CAB0300A3
:107CA4002DE9F041DFF8248005460E460024012723
:107CB40007FA04F32B4204D018F804003146FFF706
:107CC400A1FF0134042CF3D1BDE8F0817CAB0300A7
:107CD4002DE9F04105460C46A2B3132932D91A4EB8
:107CE4001A4BDFF8748030605200013A00211A60A8
:107CF40001270A4607FA02F32B4205D018F80200BE
:107D0400FFF76EFF904001430132042AF2D1104B79
:107D1400002519604FF400474FF4FA7029464FF4D8
:107D24007A720023E4FB070112F0A4F92A46014603
:107D3400084812F013F928B930680121BDE8F04170
:107D4400FFF7AEBFBDE8F081B4310020B8310020A8
:107D5400B0310020BC3100207CAB030037B50DF0FE
:107D6400E7FD20B90DF0AAFD08B10EF061FB002477
:107D740001230E4DADF804408DF806408DF8053012
:107D840015F8010B01A90DF0DDFD08B10EF050FB53
:107D94000134042CF4D1064A0648012112F0CCF82F
:107DA40008B10EF045FB03B030BD00BF7CAB03004F
:107DB400157C020080AB030060DF704769DF704709
:107DC40002F0C8BF10B588B00EF0E4F908B10EF0A7
:107DD4002FFB1E4B03930024039A049205A9012050
:107DE400CDE905440794FFF7E9FF08B10EF020FB45
:107DF400F823049A059305A9A120CDE90644FFF7C9
:107E0400DDFF08B10EF014FB04A8FFF7D5FF049AB8
:107E1400039B9A42044612D00D4B1B685B040ED59B
:107E24000C4B1B68012B0ADD0B4B0C49D3F80435B2
:107E340001920B4A00920220AB2204F02BFF14B1F2
:107E440020460EF0F5FA08B010BD00BF002E002049
:107E5400182E0020142E002000100140D9AB03007E
:107E6400F2AB03000620704730B5454B44F20105E0
:107E74001B68A84287B0044603F4804365D017D832
:107E840001282ED041F2010084424DD0002B38D07D
:107E94003C4B1B68002B34DD3B4B3C4AD3F8043588
:107EA400019100923A497B22012004F0F3FE28E07C
:107EB40044F202008442E9D11BB3324B1B68002B0D
:107EC4001FDD314B1068D3F8043503905268CDE9B7
:107ED4000112304A00922E496922012004F0DAFE90
:107EE4000FE073B1274B1B68002B0ADD264BD3F838
:107EF4000435CDE90112284A25490092602204F094
:107F0400C9FE4FF0A0434FF4F032C3F81825C3F86C
:107F14000C25EFF3108372B64DF6AD6C1F4A13783F
:107F2400002B2AD107B030BD002BEAD0154B1B68BB
:107F3400002BE6DD144BD3F80435CDE90112184AC1
:107F44000092134963220120D9E7002BD9D00D4BAD
:107F54001B68002BD5DD0C4B1068D3F80435049056
:107F64005068CDE90210926801920E4A00920849C5
:107F74007322012004F08EFEC3E730BFCFE700BFB9
:107F8400182E0020142E0020001001400DAD030017
:107F940080AC0300CDAC030091AC0300002E0020A4
:107FA400ABAC0300ECAC030007B50023014600931F
:107FB4006A46044B019344F20200FFF755FF03B0F5
:107FC4005DF804FBF2B00300044B00F1100250F81A
:107FD400041B43F8041B9042F9D17047DC310020A4
:107FE40010B54FF0805202F1600403CC094BA43267
:107FF4005960186003CA9A79986002F00F0242F03F
:1080040040029A711A7AD96002F03F0262F07F024C
:108014001A7210BDDC31002000487047DC310020AA
:108024000022064913460132202A4B804B6001F896
:10803400083BF8D1024A1360704700BFF0310020BA
:10804400EC3100200C4BF0B51B680C4D044620228B
:108054007BB1013B15F8330050B105EBC3067788BB
:10806400A74202D176688E4202D0013AF0D110467E
:10807400F0BD1F23EEE700BFEC310020F0310020FB
:1080840070B5084C084D236805EBC3061F2B03F19C
:108094000102716008BF0022012105F833107080CD
:1080A400226070BDEC310020F0310020C0F30C03DD
:1080B4008B42084438BFA0F50050C01A7047C27DF7
:1080C4000B7810B522B3C27823F07F0302F07F024D
:1080D4001343027803F07F0343EAC2130B70B2B177
:1080E4008278C488A2F108035A425A41C4F3861321
:1080F40043EAC2134B70027AC2F3C10343EA840316
:108104008B70437A03F01F0343EA4213CB7010BD14
:10811400C27823F0400343EA8213027903F0C003D8
:1081240002F03F02D4E700000D4B0E4AF0B51E6882
:1081340000218E4211D05568002309E0146804EB35
:10814400C30714F83340844201D17868F0BD013389
:108154009D42F3D101310832EBE70020F6E700BF7E
:10816400F0320020F432002000B58DB048B9991CDB
:1081740007D0012101A8CDE902328DF8041001F0E5
:108184004DF9034B18680DB05DF804EB03F0B4BD72
:10819400FC320020037810B5044613B97846FFF783
:1081A40003FF637A012001339840013810BD2DE9A3
:1081B400F0410E468EB015461C46074610B9784667
:1081C400FFF7F2FE16B97846FFF7EEFEA278636A6F
:1081D400E178A2F10800424203F102030DF1040820
:1081E400C1F1020142410593C9B2434604F10C00B6
:1081F40003F0C9FEA3788DF83430237BADF820500A
:10820400022B16FA85F5CDE906870B960C950FD14E
:10821400236913B97846FFF7C7FE2369099310232E
:1082240005A8ADF8283003F0AAFE0EB0BDE8F08131
:108234000023F5E72DE9F04F824689B00D4609B1D8
:1082440000220A600AF10C039AF8504001934FF09F
:1082540001094FF0000B9AF80900A04203D2002054
:1082640009B0BDE8F08FDAF84C1009FA04F20A42BA
:108274005FD19AF81720019B8AF80840002A0CBFA6
:108284000C26082684429AF80020029306FB04F880
:1082940008BFBAF84A608DF818B008BFA6EB080604
:1082A400002A0CBF01270427F2190492DAF82820C7
:1082B400039202A8DAF82C20059203F0FEFF0028AE
:1082C400CED1079A17449AF81720ACBB9AF85310EA
:1082D40041B9DAF81810C1F30C01AAF8061001210B
:1082E4008AF8531082B99AF852206AB9BAF84A1037
:1082F4009AF802208A1ADAF86C1053460846FFF7F7
:1083040056FF01228AF8522007995046FFF7D7FEFC
:10831400DAF86C1032464144384612F03BF802A8B1
:1083240003F0ECFF15B12A6801322A60621C8AF856
:1083340050200134E4B28EE7002AE5D19AF85220A5
:10834400002AE1D17846FFF72FFECFE710B50446A7
:10835400808A02F095FB01281CD1237BD3B194F9C8
:108364001620002A18DBE27D5AB1022B12D094F9B0
:108374000330002B10DBA378002B0CBF0020072058
:1083840010BDE2780AB9012B06D1237833B9A3785A
:10839400042BF2E71020F3E70720F1E70020EFE7D2
:1083A400B2F5C07F2DE9F84F83468A46914602D93B
:1083B4007846FFF7F9FD294B4FF000081E4693F865
:1083C40048705FB9484607F058FD702404FB086400
:1083D400E06658B900242046BDE8F88F08F101088A
:1083E400B8F1040F03F17003E9D1F3E7DC46BCE80C
:1083F4000F0025460FC5BCE80F000FC59CE80F0011
:10840400BAF1010F85E80F00E764A4F84A901BD184
:10841400134BA4F852701B7D84F8513084F85070CB
:10842400DBF8283063656FF00103A3620D4BA4F8F9
:108434005870702202FB08660120B363346402F0B2
:1084440077F886F848A0C6E76FF00103A362064BED
:10845400A36584F86870054B2466EAE7843300203A
:1084640044350020A9850200E58E0200A1850200A2
:1084740010B50446C06E07F002FD04F1300002F0AE
:108484009FFE94F84830022B03D104F1500002F00F
:1084940097FE20467022002111F0AEFFBDE8104087
:1084A400002002F045B810B590F84830012B8CB08C
:1084B400044602D07846FFF777FD01238DF8043097
:1084C400636D029302F0E2FE039001A800F0A6FFA0
:1084D4002046FFF7CDFF0CB010BD0000F0B50D46EF
:1084E40091B0044610B97846FFF75EFD94F8483021
:1084F400022B19D1E188A069FFF7D8FDE36920496F
:10850400A78A1A0A1B0618180B6803F101060E60E5
:108514001C4903F007034FEA031642F1000201EB82
:108524000313C3E902028F532C22002105A8666DB0
:1085340011F062FF102305A88DF8143006968DF80B
:108544001C5000F06BFF2046FFF792FF0E4B1B6898
:108554005B0712D50D4B1B68032B0EDD0C4B0D492D
:10856400D3F80435029594F8482001920A4A0092FF
:10857400042040F2F31204F08DFB11B0F0BD00BFF3
:108584008033002000330020182E0020142E0020F9
:108594000010014075AD030081AD030008460021C1
:1085A400FFF79CBF10B591F84830012B0C4602D060
:1085B4007846FFF7F9FC94F851305BB1013B84F83D
:1085C4005130002384F85030084BBDE8104018683F
:1085D40003F092BB217B0129204603D1BDE8104062
:1085E400FFF77CBFBDE81040FFF75DBFFC32002001
:1085F4001FB50346002208468DF80F20DBB1023375
:108604000B600DF10F0103F0BCFC9DF80F3093B12A
:108614000B4B1B685B070ED50A4B1B68032B0ADD4B
:10862400094B0A4AD3F8043509490092042040F260
:10863400154204F02FFB9DF80F0005B05DF804FB14
:10864400182E0020142E002000100140A4AD0300B9
:1086540075AD030070B50446D4E906122378808A08
:108664008CB0E3B1E38805F0C9FB0546A0B12C2228
:10867400002101A8A68AE46911F0BEFE0F238DF83B
:1086840004304FF0000364F3000301A8ADF8086060
:108694008DF80A3000F0C2FE28460CB070BD05F01B
:1086A400A9FBE2E72DE9F047994613789769F4B0FE
:1086B40006460D46144623B1D1883846FFF7F6FC2A
:1086C4009061A278E178A2F108000DF1140A424207
:1086D40004F10C08C1F1020153464241C9B24046BB
:1086E40003F051FCA278A761ADB2AB1A9BB2CDE9FD
:1086F4000AA6ADF830301E44E378109614AF4FF05C
:10870400000A0F978DF84420ADF838A0002B6CD0E8
:1087140003AE237BC4F824A0022B08BF1023C6E9B0
:1087240000AA02BFADF8383023690D93206A21797D
:1087340004AB32460BF072F83068002838D009A92F
:10874400FFF756FF78BB706878B309A9FFF750FFAD
:1087540058B3012356F8233063622046FFF77AFFAB
:10876400F0B9A2788DF824000D9098E80300A38A4C
:10877400ADF83230AD1A0EAB01220A97ADF82C5089
:108784008DF8302083E80300A37D8DF84830236AF8
:10879400109309A8636A1193CDF84C9000F03EFE43
:1087A40074B0BDE8F0870023D4E73368002BBDD153
:1087B400237B022B05D1E08941460BF01FF90028E9
:1087C400A7D1194B1B685B07EAD5184B1B68052B0F
:1087D400E6DD174B174AD3F80435174900920620F3
:1087E40040F2037204F056FADAE7227B012AE8D158
:1087F4002646E089B4F814A046F8243F31460BF02D
:1088040083F8606A09A9FFF7F3FE0028A5D1606226
:10881400314650460BF078F8606A09A9FFF7E8FE84
:108824000028CED099E700BF182E0020142E002077
:1088340000100140B7AD030075AD030010B590F80A
:108844004830012B044602D07846FFF7ADFB02F016
:108854001DFD237B012B074B09BFA27DD968D3E9FA
:10886400033101FB0231014404F13000BDE8104042
:1088740002F0BEBC44350020F0B5C37D16468278B4
:10888400002B32440CBF4FF4C0734FF480739342F7
:10889400C7B00F4666D3364B042593F84810012918
:1088A40007D19C8A818A8C4203D1DC89C1898C429C
:1088B4005AD0013D03F17003EFD10121FFF770FDA0
:1088C4000446002852D032463946C06E11F062FD8B
:1088D40004A920460495FFF7ADFC30F004030546D7
:1088E4003CD1049B13B12046FFF7A8FF214B1B6822
:1088F4005B0722D5204B1B68032B1EDDB4F84A000E
:108904001E4B802805AA1E6828BF80200023154618
:10891400834202F1020214D1002205F81320184BFD
:10892400184AD3F804350192174A00921749029560
:108934004FF4AC62042004F0ADF90025284647B09A
:10894400F0BDE16EC95C0F0901F00F01F75D02F89B
:10895400027C715C02F8011C0133D9E72046FFF761
:1089640087FDEBE70925E9E70825E7E70425E5E7BF
:1089740084330020182E0020142E00201C2E0020EA
:1089840000100140E0AD0300EEAD030075AD03003F
:108994002DE9F04192F801C01CF0010F8EB005469C
:1089A4000E4614461F4662D092F817C0BCF1000F61
:1089B40000F0B2801046FFF74DFE002857D194F81E
:1089C4000380B8F1000F40F08780062E4FD12F7836
:1089D4006B78544AD5F80260B90101F4FE5141EABA
:1089E4009301134692F84850012D28D1B2F814C0CF
:1089F400E589AC4523D1D5888D4220D1B2F858C041
:108A0400A58ABCF1000F01D0AC4518D117F0800F36
:108A14004FF070022ED002FB0032A2F858507022A0
:108A240002FB003435BAE36C1D43E564002E3CD1EF
:108A3400032120460EB0BDE8F041FFF74FBD0130E1
:108A4400042802F17002CDD1374B1B685A070ED5AA
:108A5400364B1B68012B0ADD354B364AD3F80435F7
:108A640035490092022040F2796204F013F90EB005
:108A7400BDE8F08102FB0032D289AA42CFD02A4B52
:108A84001B685B07F3D5294B1B68012BEFDD284BD3
:108A94002949D3F80435CDE90125284A009202205A
:108AA40040F27D6204F0F6F8E1E72046FFF772FB3E
:108AB400854205D120460EB0BDE8F041FFF7F3BC76
:108AC4000021204684F85010FFF7B4FB20460EB076
:108AD400BDE8F041FFF7B2BE4046FFF725FB024672
:108AE4000028C4D0D4E90301236A0B93A38AADF808
:108AF400223009AB83E80300A37D8DF8303023785E
:108B04008DF82030E36A8DF81480CDE906560D9374
:108B1400394605A89047AAE70EB0BDE8F041FFF733
:108B2400C1BD00BF84330020182E0020142E002065
:108B340000100140F6AD030075AD030024AE030040
:108B44002DE9F04186B004460F461646FFF7FEFBBA
:108B54000546002832D123783BB1324639462046B7
:108B640006B0BDE8F041FFF787BEE27DA378002A96
:108B740033440CBF0F220B2293422AD801330293B1
:108B840004F10C030093A36A01938DF81000E36AC7
:108B94000393684603F091FB054678B9059920468E
:108BA400FFF78DFAE37D01F101085BB132463946E6
:108BB400404611F0EFFB684603F0A0FB284606B0E0
:108BC400BDE8F0812346324641463846FFF7EFFAC6
:108BD400F1E70925F2E7000010B54FF4E072002137
:108BE400134811F009FC002405F0D6F8114B124883
:108BF4001C602146802211F0FFFB104B1049114AE2
:108C040011489C75C3E9001210494CF25032C3E973
:108C140002211A6140F604029A8203F04FF80C4BC9
:108C240018600C4B0C481C60BDE8104005F0BABA43
:108C3400843300208033002000330020443500209A
:108C440080969800F04902005193020020A1070089
:108C5400FC320020F03200206D81020005F0BCB827
:108C640030B504468DB000285DD00369002B5AD07E
:108C7400C369002B57D08569002D54D05A788DF8DC
:108C840004201A780993838A82F001020B2B8DF851
:108C94000320027B01D8C17A49B10121022A8DF84F
:108CA400001001D1214A927D2AB9042204E0012A4C
:108CB40010D18DF80020082213448DF802200B33C4
:108CC4000C22B3FBF2F3013B8DF8093000238DF83D
:108CD400083004E004238DF800108DF8023094E885
:108CE400030000238DF8173003AB83E803002389C6
:108CF400ADF81430A37A8DF81630236A0A9320460F
:108D0400DF2308950B930AF027FF28B12378012B62
:108D14000CBF2023FF230B93A28A21696846FFF727
:108D24000FFF0DB030BD0E20FBE700BF443500201F
:108D340070B50D4690B00446002850D04368002B0F
:108D44004DD08269002A4AD000230D9383680678A7
:108D54008DF813600B2B34D8017B002931D18DF8A9
:108D640010108DF81210D4E9040101238DF8273076
:108D740007AB83E80300E389ADF82430237F8DF843
:108D84002630236A0C92CDE90E53164B1B685B0701
:108D940010D5154B1B68062B0CDD144B1449D3F866
:108DA4000435CDE90162134A0092072040F605021A
:108DB40003F070FFD4E9011204A8FFF7C1FE10B05C
:108DC40070BD07330121DB088DF81010013B002131
:108DD4008DF812108DF819308DF81810C3E70E2095
:108DE400EDE700BF182E0020142E002000100140D3
:108DF40075AD030065AE030030B5037B012B91B064
:108E040004460D465DD1304B1B685B070ED52F4BD6
:108E14001B68032B0ADD2E4B2E4AD3F804352E494A
:108E24000092042040F2632203F034FFE3889900A7
:108E34008DF81110290E8DF81210290C8DF81310CD
:108E44006178002202290CBF01211146C3F3861365
:108E540043EAC1138DF810304FF0060309934FF025
:108E640001038DF82C30A38AADF82E3004AB08939F
:108E7400236A0D936DBAE36ACDF816208DF81A2093
:108E8400ADF814500C928DF81C208DF828200F9307
:108E940015D10DF10E0103A80AF04EFEBDF80C30F9
:108EA400ADF82A30A37D0BB10C4B5B7D8DF83830C7
:108EB4006FF0010107A8FFF73BFF11B030BDE38954
:108EC400EEE70020F9E700BF182E0020142E002042
:108ED4000010014090AE030075AD0300443500203E
:108EE40010B591F84830022B0C4602D07846FFF7B3
:108EF4005BF8022384F8683094F84830022B06D1DA
:108F0400E16C2046FFF778FF08B984F8680010BDCB
:108F14002DE9F04F0E469DB014461F460546002825
:108F240000F01082002A00F00D8229B94FF00908E0
:108F340040461DB0BDE8F08F13460DF14C0C02F114
:108F4400180E18685968624603C20833734594467C
:108F5400F7D1287895F900100023C20999428DF8B9
:108F640041308DF840207EDB9DF85720002A00F028
:108F7400AB808DF843008DF84230002319933B7881
:108F8400032B02D97846FFF70FF83A78B84B10A8AC
:108F940053F822301B93FFF7D9F980460028C7D134
:108FA400CDE9030003A960880AF028FD28B19DF8E3
:108FB400413043F001038DF84130D4E90312208994
:108FC40004F056FF002840F08E809DF84130002BBD
:108FD400AED0D80744BF049B14939DF84030002BB7
:108FE40000F0A981BDF846101698FFF75FF8179AAC
:108FF400BDF854C04FEA122A120612189D484AF1CD
:10900400000A4FF000090388634505D1D0E9021333
:109014009A4508BF8A428BD009F10109B9F1080FBA
:1090240000F11000EFD1944B00211C4693F8480046
:10903400022862D1988A60455FD1702303FB014402
:10904400E188A069FFF732F8E369190A1B061B18C7
:1090540041F10001934271EB0A0074D205212046CC
:10906400FFF73CFA4EE0032E7FF660AF9DF85720E1
:10907400DAB100F07F008DF843006A788DF8423051
:109084009201AB7802F4FE5242EA9302ADF8462014
:10909400DB00EA7803F0180343EA521302F01F02DC
:1090A4008DF848308DF8492067E7C0F380138DF8B8
:1090B400433095F9013000F03F00002B8DF8440057
:1090C400B4BF08230423D8E7C0F380138DF84330DA
:1090D400042300F03F009E428DF844008DF8423096
:1090E4003FF64BAF22E79DF8413003F0FE038DF8C5
:1090F4004130002B7FF469AF1AE70131042903F1F1
:10910400700393D1DDE91612BDF84630BDF8540062
:1091140004F0DAFE002800F08380DDE91612BDF8C1
:109124004630BDF8540004F0FDFE00283FF400AFC3
:1091340010A8FFF72FF8014610A8FFF75DFE10A84E
:10914400FFF788FAF4E69A427AEB0101FFF4F0AEF5
:109154004A4B1B685B0711D5494B1B68032B0DDD7C
:10916400484B9DF84820D3F804350192464A0092B2
:10917400464940F2A332042003F08CFD94F84830B1
:10918400022B02D07846FEF70FFFDFF808A1DAF8C9
:1091940000B002F07BF80BEB000104F1300002F0A8
:1091A40027F8237B012B1AD194F86830BBB994F8C3
:1091B4004830022B02D07846FEF7F6FEDAE90112B7
:1091C4009AF8153002FB031A02F060F800EB0A016A
:1091D40004F1500002F00CF8012384F868309DF883
:1091E4004830E26C012199400A427FF4A1AE0A435F
:1091F4009DF85710E264043E627A0FFA83FC00295A
:1092040065D10CEB4C0C9A424FEA8C0C63D04FF0B6
:109214000C094E4563D004212046FFF75FF987E629
:109224009DF849209DF857300132E3B90C235A4385
:109234004FF4C07393422FD2104B1B6859077FF52C
:1092440077AE0F4B1B68002B7FF772AE0D4B0F49A7
:10925400D3F8043501920E4A0092012040F27F3285
:1092640003F018FD64E6D2004FF48073E2E700BF18
:10927400C4AE03000033002084330020182E0020E5
:10928400142E002000100140B4AE030075AD03009D
:10929400A0AE030044350020022110A8FFF780F897
:1092A400044600287FF454AF014610A8FFF7A4FD3C
:1092B4002C22214605A811F09FF810238DF81430B4
:1092C40005A802238DF81C3000F0A8F830E69A4275
:1092D4004FEACC0C9DD10CEB0603A4F84A30A269EA
:1092E400169B9A420BD20DF14C09B9E80F0004F118
:1092F4000C0EAEE80F0099E803008EE80300E06E60
:10930400291D3246604411F045F82046E56CFEF70D
:1093140041FF85427FF40CAEE16C2046FFF76CFD03
:10932400E06EB4F84A103B462246FFF731FB204674
:10933400FFF79EF8FCE53B4610AA711E681CFFF778
:1093440027FBF5E54FF00E08F2E500BF73B5184CA6
:109354000026254695F84830012B0CD1002301A99D
:1093640028460193FEF766FF042801D0019B13B140
:109374002846FFF763FA0136042E05F17005E9D19A
:10938400002594F84830022B0AD194F86830022B57
:1093940006D1E16C2046FFF72FFD08B984F8680078
:1093A4000135042D04F17004EBD1012002B070BD2D
:1093B400843300202DE9F8430F46064618B3DFF83E
:1093C4005880D8F80040E4B9254600F10409BD42AC
:1093D40008D1104BC3E900650123C8F800302046CA
:1093E400BDE8F88359F835306BB116F9353016F805
:1093F4003500002B09DB50B1FEF796FE38B9013574
:10940400E5E70424EBE70E24E9E70B24E7E70F2460
:10941400E5E700BFF4320020F0320020F8B505463D
:1094240010B97846FEF7C0FD104F3C6884B1104E69
:109434000123337023791BB954F8043C2846984718
:109444002468002CF6D13378022B02D00023337029
:10945400F8BD3968054C0029F8D00B790D6813B1B3
:10946400204603F0BEFB2946F5E700BF6035002027
:109474005C35002010B5044610B97846FEF794FD1B
:1094840000232372211D0248BDE8104003F088BB6D
:109494006035002010B5044610B97846FEF784FD07
:1094A400074A1378013B012B04D8022313700123CC
:1094B400237210BD211D0348BDE8104003F091BB89
:1094C4005C350020603500200B888268D25A073250
:1094D40022F00302134402889BB2043A934288BFE9
:1094E40000230B80704713B58468091BADF8061080
:1094F4000DF10601FFF7E8FFBDF80600204402B0B5
:1095040010BD70B5064615460C4651B97846FEF7AF
:109514004BFD16B97846FEF747FD7846FEF744FD45
:109524000FE010B97846FEF73FFDB4F1005F24D98F
:109534004FF08053D3F80C3103F50023B4EB832FA1
:109544001ED26B1E2344B3F1005F23D94FF0805227
:10955400D2F80C2102F50022B3EB822F1DD2042D88
:1095640002D87846FEF720FD002335807380B3804F
:10957400B460043DA370258070BDB4F5000FCCD950
:109584004FF08053D3F80C3103F50053B4EB832F21
:10959400D7D3C2E7B3F5000F08D94FF08052D2F801
:1095A4000C2102F50052B3EB822FD8D37846FEF794
:1095B400FBFCD4E770B5044610B97846FEF7F4FC1A
:1095C4006288A36813449B78012B02D17846FEF786
:1095D400EBFCEFF3108672B6A568A18829448B785A
:1095E400032B09D12046FFF77EFF0023451B65802E
:1095F400837006B962B670BD0023AB706380A3802C
:10960400F7E7F8B50E461546044610B97846FEF756
:10961400CBFC16B97846FEF7C7FC6288A3681344EE
:109624009B78012B02D17846FEF7BEFC002D37D083
:109634002388043B9BB29D4232D8EFF3108772B665
:109644006288A388E81D20F003009A4280B204D205
:109654009B1A984210DD042016E018D92188891A33
:10966400814209D29842F6D8032981BFA3689B1886
:1096740004229A70002363806288A1688B188D523B
:1096840001229A700020336007B962B6F8BDA2685F
:1096940013449B78002BDED193706380A380EBE7A7
:1096A4000920F3E7F8B50D461646044610B9784686
:1096B400FEF77AFC15B97846FEF776FCAB78012BF9
:1096C40002D07846FEF770FC2B88B34203D278466A
:1096D400FEF76AFC01E0002EF9D0EFF3108772B6B2
:1096E4000223AB70E1182E802046FFF7EDFE62885E
:1096F400A38893421FBFA3689B1800229A7007B9DE
:1097040062B6F8BDF8B50D46044610B97846FEF7C2
:109714004BFC15B97846FEF747FCEFF3108672B69A
:10972400A768A3883B449A78042A05D1211D2046C2
:10973400FFF7CAFEA3883B449A78022A05D0032A7D
:1097440008D0052006B962B6F8BD03229A702B60D2
:109754000020F7E77846FEF727FCF9E738B504461A
:1097640010B97846FEF720FCEFF3108572B6A38893
:10977400A16819448B78042B03D12046FFF7B3FE6C
:1097840001468878831E5842584105B962B638BDEF
:1097940038B5044610B97846FEF706FCEFF3108599
:1097A40072B6A388A16819448878C31E012B05D911
:1097B400831E5842584105B962B638BD2046FFF7AA
:1097C40092FE0146F0E7F8B50D46044610B9784616
:1097D400FEF7EAFB15B97846FEF7E6FBEFF31086D1
:1097E40072B6AB78012B19D0032B22D1A288A368BF
:1097F40013449D4202D07846FEF7D6FB0027AF7093
:10980400211D2046FFF760FEA288A36813449B78BD
:10981400042B00D1A78006B962B6F8BD6288A3689C
:1098240013449D4202D07846FEF7BEFB0023AB7082
:10983400F1E77846FEF7B8FBEDE710B5EFF31084D7
:1098440072B68288816811448B78042B02D1FFF7A9
:109854004AFE01468878B0FA80F0400904B962B63D
:1098640010BD037942799B1A03F57F2303F6FF7336
:1098740000EB033070470000024B00221A769A6016
:10988400022070476C35002010B5054884681C22FE
:10989400002110F0B1FD2046BDE8104003F060BF88
:1098A4006C35002070B5194CE36813B97846FEF79F
:1098B4007BFB237E13B17846FEF776FB63680A2BA5
:1098C40002D97846FEF770FB114D0026636855F8FF
:1098D40023309847022811D003280DD0012810D135
:1098E400636801330A2B636002D97846FEF75CFB98
:1098F400237E002BEAD004E06660F9E7237E0BB1F7
:10990400207070BDBDE87040FFF7BEBF6C3500200D
:1099140070AF0300074A002352F8041B814202D1AE
:10992400054A5360704701330B2BF5D17846FEF797
:109934003BBB00BF70AF03006C350020038810B53B
:10994400044613B97846FEF72FFB2088074B04EB37
:10995400800030EA030203D06288B2F5FE4F04D1DE
:109964001C4004F580542078204410BD00F0FFFF13
:1099740070B504460D4647F6FE66FFF7DFFFA842C2
:1099840007D2844205D24388013B9BB2B342F4D848
:1099940070BD0020FCE700000978094B03291A7800
:1099A40004D0012A01D11B7E23B170470021012A72
:1099B400197601D1FFF776BF022AF6D1FFF764BF0B
:1099C4006C35002010B50C4CE3681878002203F5C0
:1099D4008051184404F0AAFB50B9E1680846FFF727
:1099E40040FF814206D001F58051E160032010BDA3
:1099F4000120FCE70220FAE76C3500201FB50A4B72
:109A04000222DB688DF800200193084A4FF480534A
:109A140069460120029300F075FFB0FA80F0400916
:109A240005B05DF804FB00BF6C3500206A350020EA
:109A34001FB50123CDE902210190054A8DF80030BC
:109A44006946184600F05EFF05B05DF804FB00BFF0
:109A54006A3500202DE9F047254FF86803794279EB
:109A6400013B9A423FD000F58053DFF888801C7890
:109A74001C44D8F8003013F8045F1D44FFF7F1FECE
:109A84006388013B9BB247F6FE62934200F5805621
:109A940004D920463146FFF76BFF0446DFF858A08F
:109AA4004FF0010934B9B4FA84F464097C760120D6
:109AB400BDE8F087D8F800106288284601F5805187
:109AC40004F034FB05460028EDD00422514620461C
:109AD40087F81890FFF7ACFF38B920463146FFF7F6
:109AE40047FF0446DEE70124E0E70020E0E700BF8B
:109AF4006C35002088350020B4B2030038B5104C12
:109B0400E36818784FF6FF7203F58051184404F0A7
:109B14000DFB80B1E36819780B4498420BD0657E45
:109B24000849094B0422002D18BF1946FFF780FF8E
:109B340018B901232376012038BD0020FCE700BFBB
:109B44006C350020B0B20300ACB2030070B50C4D0C
:109B54000C4EE96830680C7804302246FFF768FF41
:109B640058B9336804F0FC04043423446B61EB6893
:109B74001A7813442B61012070BD0020FCE700BF5C
:109B84006C3500208835002008B5054B0549186858
:109B94000422FFF74DFFB0FA80F0400908BD00BF72
:109BA4008835002078350020074B10B51968074C1C
:109BB40040F6FC72E0680431FFF73AFF10B9012067
:109BC400207610BD0020FCE7883500206C3500208D
:109BD40010B50C4CE1680846FFF743FE81420AD1F8
:109BE400094B0A4918680422FFF722FF40B90123F0
:109BF4002376022010BD01F58051E1600320F9E7CE
:109C04000020F7E76C3500208835002064350020FB
:109C14002DE9F84F2A4D2B6913B97846FEF7C4F99C
:109C24006B6913B97846FEF7BFF947F6FE6A6B69AC
:109C3400D5E9030623F47F6828F00F08A8EB03088E
:109C4400FFF70FFE7388013B9BB2534508F580581C
:109C540000F5805905D930464946FFF789FE064686
:109C640010B3344600274C450ED2228807EB820BF2
:109C7400D84509D986EA0403B3F5805F04D2638822
:109C8400013B9BB2534512D977B168693A463146D4
:109C9400FFF7CEFE88B96B6962883B44C5E904438B
:109CA40047F6FF739A42C2D10120BDE8F88F2046DF
:109CB400FFF744FE5F460446D5E70020F5E700BF02
:109CC4006C3500201FB50A4B02221B688DF800205A
:109CD4000193084A4FF4805369460120029300F02F
:109CE40011FEB0FA80F0400905B05DF804FB00BF36
:109CF400883500206A3500201FB500232A4AD3F88E
:109D0400F81F13704A1C0CD14FF010235A6901320A
:109D140001D05A6952B94FF080535A691B695A43AA
:109D240007E00029F7D0A1F5805202E05A69A2F5B4
:109D340080521E4B1E4C1B68A2F58052DB0222602F
:109D440016D51C4B1B68062B12DD481C08BF4FF0B0
:109D54001021194BD3F8043508BF4969CDE9011224
:109D6400164A0092164940F27622072002F092FF2A
:109D7400236819684B1E033314D8C1F30B028AB944
:109D8400104B1148D96001241A831C709A60FFF7A4
:109D9400C1FD20460D4900F0A5FDFFF783FD2046D7
:109DA40004B010BD0020FBE768350020182E002009
:109DB40088350020142E0020001001403AAF030023
:109DC40023AF03006C350020019A02009D99020024
:109DD40010B5044610B97846FEF7E6F8094B187832
:109DE40060B1E068D9684379A0EB0333994206D3A4
:109DF400FFF737FD81428CBF0020012010BD0020F9
:109E0400FCE700BF6C350020024B1878003818BFFF
:109E1400012070476C35002038B5114C2378054675
:109E240013B17846FEF7C0F82B78032B02D078469E
:109E3400FEF7BAF8EB68E3600A4B0B491B78A560A0
:109E4400002B0CBF00230A23636001200023207031
:109E5400238300F047FDBDE83840FFF723BD00BF72
:109E64006C350020683500209D990200014B18686C
:109E7400704700BF8835002010B5044610B97846F5
:109E8400FEF792F863681BB123680BB1A36813B99A
:109E94007846FEF789F8A3685A1E1A4202D078461B
:109EA400FEF782F80023C4E9033310BD38B5044635
:109EB4000846F4B1A368F3B1EFF3108572B6D4E9A0
:109EC40003329A4203D105B962B605200EE041B1CE
:109ED400A368013B1340D4E9001202FB031110F004
:109EE40059FA2369013323610DB1002038BD62B6EC
:109EF400FBE70E20FAE70920F8E70000024AD2F84F
:109F04000034002BFBD0704700E0014038B5044614
:109F1400C0F30B00E0B9E9B10F4D0223C5F80435D5
:109F240001F6FF7121F47F61FFF7E8FF21F00F01D3
:109F340021448C4205D10023C5F80435FFF7DEFF28
:109F440038BDC5F80845FFF7D9FF04F58054F0E79C
:109F54001020F5E70920F3E700E00140F8B540EAF6
:109F64000103064698071DD1F2B112F003001BD17C
:109F74000E4F0123C7F804359408FFF7BFFF0546C9
:109F8400A54205D10023C7F80435FFF7B7FFF8BD94
:109F940051F825305A1C03D046F82530FFF7AEFFA0
:109FA4000135EDE71020F2E70920F0E700E0014079
:109FB40041F2826398429DBF024B1878C0F3C000FF
:109FC40001207047F835002013B5000C01280C4619
:109FD40002D07846FDF7E8FF074A08492368136072
:109FE4000B7843F001030B7083F00203C3F34003C7
:109FF4000020137102B010BDDC350020F8350020BC
:10A0040013B5000C02280C4602D07846FDF7CCFFAD
:10A01400074B22681A6022791A71064A0020587187
:10A024009871D871137843F00203137002B010BD15
:10A03400E1350020F835002013B5000C03280C4648
:10A0440002D07846FDF7B0FF034B1A6822601B79F3
:10A05400237102B010BD00BFDC35002013B5000C25
:10A0640003280C4602D07846FDF79EFF064B226873
:10A074001A6022791A71054A1378002043F001030B
:10A08400137002B010BD00BFDC350020F83500208D
:10A0940013B5000C04280C4602D07846FDF784FF63
:10A0A400034A136823605368636002B010BD00BFA5
:10A0B400E135002013B5000C04280C4602D0784684
:10A0C400FDF772FF064A2368136063685360054A0C
:10A0D4001378002043F00203137002B010BD00BFD8
:10A0E400E1350020F835002007B5000C032802D024
:10A0F4007846FDF759FF034B00221A601A7103B02A
:10A104005DF804FBDC35002007B5000C042802D000
:10A114007846FDF749FF034B00221A605A6003B0EA
:10A124005DF804FBE135002000B50A4B1A7B9B68FF
:10A134008DB0012A08BF03F1FF3304930390022377
:10A1440001A88DF808208DF80430FFF767F90DB0E9
:10A154005DF804FB14360020074A1378590709D523
:10A164000178122906D10549086805496FF382036D
:10A1740048601370704700BFF8350020DC350020BC
:10A18400143600201FB5124C2378590602D47846A1
:10A19400FDF70AFF23785A0717D40E4A526802F5CE
:10A1A4000052B2F1807F02920FD80B4A43F00403AD
:10A1B40012788DF80C2002A94FF44030237004F07B
:10A1C400B3FF10B17846FDF7EFFE04B010BD00BF39
:10A1D400F835002014360020E93500201FB500238F
:10A1E400ADF80D300C4B9A6802920C4A1B7B8DF82B
:10A1F4000C3013780133DBB202A94FF480201370C2
:10A204008DF80F3004F090FF10B17846FDF7CCFEC6
:10A2140005B05DF804FB00BF14360020E9350020CA
:10A2240008B5002004F0F4FF14220748002110F0C0
:10A23400E3F8064A137823F0600343F040031370F5
:10A24400BDE80840FFF79EBF14360020F835002013
:10A2540010B50C4C14220021204610F0CDF801F06A
:10A2640015F8094B094A0A499A600022C3E9031206
:10A2740058605A61074B6260197862F3C301197020
:10A2840010BD00BF14360020FC35002011A40200CC
:10A2940000879303F835002037B5264D2B78DB066D
:10A2A4002FD42548254B036000F050FD2448254B4E
:10A2B400036000F04BFD2B7813F0200212D103F061
:10A2C4000303032B204C1ED02260A260227322823F
:10A2D400FFF784FF236863602B7843F040032B70FF
:10A2E400FFF750FF4FF4803004F06DFF4FF400305F
:10A2F40004F069FF154800F039FF2B7843F0100390
:10A304002B7003B030BD124B1A68A2601A79227305
:10A314009879597941EA00212182D9790D4B197034
:10A324000D4B1879884202D00AB92260D2E71B6823
:10A334002360CFE7F8350020EC350020ADA40200FF
:10A34400D03500205DA1020014360020FC35002029
:10A35400E1350020E9350020DC350020034B187876
:10A3640080F00400C0F38000704700BFF83500207F
:10A3740010B501F035FC0D4A137BA3B9947B94B955
:10A38400108AFFF715FE70B10123137393681482CA
:10A3940001339360FFF722FF2046FFF7C5FE01F06B
:10A3A4005DFC204610BD0824F9E700BF14360020E8
:10A3B40010B501F015FC144A547B9CB1917B09BB88
:10A3C400108AFFF7F5FD044660B1137B51732BB17E
:10A3D400012B0BD07846FDF7E7FD03E0FFF7C8FF3C
:10A3E4000028F7D101F03AFC204610BD0846C2E926
:10A3F400001111731182FFF797FEFFF7EFFEFFF7CD
:10A40400C1FEEFE70024EDE7143600201FB5244C0D
:10A41400227B2AB1012A0FD07846FDF7C5FD1CE046
:10A42400208AFFF7C5FDC0B1FFF7C2FF638A0BB1F5
:10A43400013B638204B010BD218A0846FFF7B8FDD2
:10A4440058B142F2B013994288BF6273FFF7B0FF6C
:10A454000028EBD1637B002BE8D1238A01339BB224
:10A464001E21B3FBF1F201FB123292B22382002AC5
:10A47400DCD1ADF80D300B4BA2681B78029202A917
:10A48400227B8DF80C204FF480208DF80F3004F0DF
:10A494004BFE0028CAD07846FDF786FDC6E700BF0C
:10A4A40014360020E935002038B50378042B0FD189
:10A4B40043681B7863B11C4B8568197B4269047E31
:10A4C40061BB598AF1B9012C996802D08A4203D838
:10A4D40038BD481C824217D92A318A42F8D8997B60
:10A4E4000029F5D19A60114A1A61C3E900119981D2
:10A4F400FFF774FEFFF746FE05F11000BDE8384093
:10A50400FFF712BE012CE3D1996801318A42DFD1F1
:10A5140001225A73BDE83840FFF74ABF0129D7D159
:10A52400012CD5D09968F1E7143600200000062DDF
:10A5340010B50C4C236828B101210B4A0B449173CC
:10A54400236010BD13B97846FDF72EFD2368013B47
:10A554002360002BF5D1044ABDE810409373FFF744
:10A5640027BF00BF8C3500201436002000B58DB005
:10A574000323ADF8080001A88DF8102003918DF88D
:10A584000430FEF74BFF0DB05DF804FB014B9868F7
:10A59400704700BF14360020034B98681B7B012BC7
:10A5A40008BF00F1FF30704714360020194B1B78A8
:10A5B4005B0670B505460E462AD5174CD4E9002330
:10A5C4009A4223D2207B154B1549012818BF0B460C
:10A5D4009A4207D263682268403B9A4208D3FFF745
:10A5E400D1FD05E001236373FFF7E2FE0028F1D0FB
:10A5F400EFF3108272B62368591C21603360FFF7B1
:10A60400CBFF286002B962B6002070BDFFF7BAFD27
:10A614000F20FAE7F83500201436002000E0FF0090
:10A62400FFFF7F00044B9B685840C20748BF03F1FB
:10A63400FF331846704700BF14360020014B187BC7
:10A64400704700BF143600202DE9F0411C4C002651
:10A654000221204602F0AEF95FFA86F8054600278B
:10A66400ADB967B12946204602F00BFA082806D195
:10A6740054F8043C1BB113492A4640469847013616
:10A68400032E04F1BC04E3D10120BDE8F08154F8A9
:10A69400043C23B134F80C2C29464046984734F83E
:10A6A4000C3C013324F80C3C0221204602F09EF9B4
:10A6B4000221204602F07EF901370546D0E700BFAB
:10A6C4003C360020ACAF030038B5012104460C3001
:10A6D40002F070F9054620B3154BC4F89C300023F2
:10A6E400C4F8A03003786168012B07D0022B1AD07C
:10A6F4007846FDF759FC4FF4FA7306E08268531A62
:10A704009B082922534303F5FA730A4A934294BFE0
:10A71400C4F8A830C4F8A8200123C4F8AC4084F8D5
:10A72400B830284638BD8368034A5B1A1B0BE9E737
:10A7340061A7020060850100084C010010B50446C1
:10A74400FFF7C2FF48B104F19C0009F01BFF20B1E0
:10A754007846BDE81040FDF727BC10BD4A4B1B7876
:10A764002DE9F74FD1F8A84007460D463BB109F053
:10A774003FFF002385F8B83003B0BDE8F08F01F146
:10A784000C094846012102F015F9064610B978462D
:10A79400FDF70AFCDFF8F8A0A4F5FA784FF0290BCE
:10A7A40000243378012BA8EB040406D0022B3BD001
:10A7B4007846FDF7F9FB00231FE06B68B268B4FB31
:10A7C400FBF4D21AA400944228BF144624B901937E
:10A7D4007846FDF7E9FB019BF168706823F00303F9
:10A7E400224619441844FFF7B9FB10B17846FDF727
:10A7F400DBFB6B6823446B60B3686A689A422AD1B6
:10A8040009F0F6FE4846012102F0F0F800236B60DF
:10A8140085F8B8301D4B186801F06EFA284603B06D
:10A82400BDE8F04FFFF78ABF6B68B268B4FBFAF477
:10A83400D21A2403944228BF144624B901937846BB
:10A84400FDF7B2FB019B706823F003032146184413
:10A85400FFF75CFBC9E701F0B5F83378C41B48BFC8
:10A864003C1A012B0BD0022B0BD07846FDF79CFB36
:10A8740000232344434594D909F0BAFECEE72923A3
:10A88400F7E75346F5E700BF643800202C36002074
:10A89400084C01002DE9F0410F48104C01F00EFA6C
:10A8A4000F4B002518604FF008081027032604F109
:10A8B4001C03636104F1180384F80E806773267324
:10A8C400236104F10C00013502F0B7F8032D04F103
:10A8D400BC04ECD1BDE8F0814DA602003036002066
:10A8E4002C360020022838B504460D4602D9784695
:10A8F400FDF75AFB024BBC2202FB04339D6038BDBA
:10A904003036002002282DE9F84F05460C469146C2
:10A9140002D97846FDF748FB14B97846FDF744FBA5
:10A924002378012B12D16368990702D07846FDF78A
:10A934003BFBE3689A0702D07846FDF735FBA36832
:10A944009B0711D07846FDF72FFB0DE0022B0DD1AC
:10A954006368C3F30B0313B17846FDF725FBA368C3
:10A96400C3F30B03002BEDD1A36813B97846FDF7AD
:10A974001BFBEFF3108872B6BC26DFF8A4A06E436D
:10A9840006F10C0BD3440021584602F013F8074695
:10A9940028B9B8F1000F00D162B6042021E00021EB
:10A9A400584602F023F804F1100354F8042B47F836
:10A9B400042B9C42F9D1B9F1000F05D0BC2303FB51
:10A9C40005A35B88A9F80030BC2303FB05A56B88AD
:10A9D40001336B8095F8B8302BB1B8F1000F1BD060
:10A9E4000020BDE8F88F0D4B1B78002BF5D10AEB46
:10A9F4000600FFF769FEB8F1000F00D162B6002827
:10AA0400EED006F19C00504409F0BCFD0028E7D0CC
:10AA14007846FDF7C9FAE3E762B6E1E76438002057
:10AA240030360020F8B5EFF3108772B6114D2B685D
:10AA340050B101332B602B680F4A003B18BF012330
:10AA4400137007B962B6F8BD13B97846FDF7ACFACE
:10AA54002C68013C2C60002CEDD1084E96F8B830DF
:10AA640013B93046FFF76AFE0134032C06F1BC0625
:10AA7400F4D1E0E728360020643800203036002086
:10AA840010B1024B800B185C704700BFBCAF0300D1
:10AA940012DF704707B501F097FC90B10A4B1B68B1
:10AAA4005B060ED5094B1B68012B0ADD084B094ACE
:10AAB400D3F804350849019000920220752202F06F
:10AAC400E9F803B05DF804FB182E0020142E0020D2
:10AAD400001001401AB003000FB0030070B58AB033
:10AAE4000AF046FA0446002834D000238DF81030CA
:10AAF40006460FCE05AD0FC533682B60627D052A6F
:10AB04000CD9207D00F00F03072B07D004AB063AC5
:10AB140004F11D0100F00F0009F076F8114B1A68DA
:10AB2400AAB104AB0393237DC3F303038DF804306C
:10AB3400637D062B89BF063B0023DBB204F11D01B4
:10AB440098BF19468DF80530029101A89047204618
:10AB54000AF0F8F90AF026FA80F00100C0B20AB04F
:10AB640070BD00BF7038002010B5114C2378022B43
:10AB74008CB005D07846FDF717FA01200CB010BD53
:10AB8400FFF7ECFB18B90B48FEF774FCF5E70AF085
:10AB9400BBF903232C22002101A823700FF02CFC05
:10ABA4001D2301A88DF80430FEF738FCE5E700BF4B
:10ABB40074380020042E002008B50378122B08D125
:10ABC4000448FEF767FC044B1868BDE8084001F030
:10ABD40093B808BD042E00206C380020F7B5314E20
:10ABE40033780546002B52D1002852D0077A07F05B
:10ABF400F703072B4FD105F03FF9E868002843D04D
:10AC0400FDF7E2F90DF10700FFF742FF0446C0BB70
:10AC14009DF80730012B40D1FDF702FA00F08EFABF
:10AC2400384600F08FFFE87800F008F900F0D4FD12
:10AC340009F062FC1C480AF04DFA09F0C5F908F065
:10AC4400B9FFFFF727FE04F019FA00F06BFC05F0DA
:10AC5400D3F804F0CFFE284601F01AFBFDF7BCFF41
:10AC640003F064FDFDF7FEF808B1062817D10F487C
:10AC740001F024F80E4B18600E4B00221A600123D9
:10AC84003370204603B0F0BDFDF7AAF9BAE70824F3
:10AC9400F7E70E24F5E70724F3E70224F1E7044677
:10ACA400EFE700BF74380020E1AA02006DAB020098
:10ACB4006C3800207038002037B51C4D2B78012BE0
:10ACC40004D0043B012B24D908241DE001F0EEFA42
:10ACD400FDF7C4FFFDF7C6F80446C0B1062816D038
:10ACE400134B1B685B040FD5124B1B68012B0BDD48
:10ACF400114B124AD3F804351149019000920220F5
:10AD04004FF4C27201F0C6FF204603B030BD00F01C
:10AD140045FF09F029FC04460028F5D102232B70D5
:10AD2400084B186800F0E8FFEEE700BF7438002015
:10AD3400182E0020142E00200010014043B0030000
:10AD44000FB003006C380020FDF78ABFFEF792BBFA
:10AD5400FEF7A0BB08B500F00FFD002008BD000001
:10AD6400014B1860704700BF703800207047000026
:10AD7400044B18680130B0F1704F08BF012018600F
:10AD8400704700BF6838002010B5044610B97846F3
:10AD9400FDF70AF90023C4E9003310BD38B50D46A8
:10ADA400044610B97846FDF7FFF815B97846FDF763
:10ADB400FBF800236B60EFF3108372B6226822B9AC
:10ADC4002560656003B962B638BD62685560F8E70E
:10ADD40010B5044610B97846FDF7E6F8EFF3108293
:10ADE40072B6206820B90023636002B962B610BD50
:10ADF40043682360002BF8D1F5E710B5044610B979
:10AE04007846FDF7D1F8206810BD35DF70470000A3
:10AE140008B54FF0FF30FFF7F8FFBFF34F8F054938
:10AE2400054BCA6802F4E0621343CB60BFF34F8F53
:10AE340000BFFDE700ED00E00400FA050138062834
:10AE44009ABF024B33F81000FA20704768B0030031
:10AE5400024B5868103840B2704700BF00ED00E064
:10AE640000280346B8BF00F11F03084A5B1152F8DB
:10AE74002330424202F01F0200F01F0058BF50422C
:10AE840023FA00F000F00100704700BF00E100E089
:10AE940046DF704730B501F110031032103013F85B
:10AEA400014D12F8015D8B4284EA050400F8014D5E
:10AEB400F5D130BD2DE9F04F91B002F10F0704AC8C
:10AEC4001D4688463F11034600F1100CA146186840
:10AED4005968264603C6083363453446F7D102F061
:10AEE4000F0410220FB1002C57D0002108A80FF036
:10AEF40083FA4846FFF7CCFF4FF0000A02220121F3
:10AF04000DF1300C9DF930000F2366469CF800E0EB
:10AF14001CF801BF4FEA4E0E013B4EEADB1E9BB20A
:10AF24000CF801EC002BF1D19DF83F305B00DBB253
:10AF34000028B8BF83F0870301298DF83F300CBF88
:10AF4400022303239A424FF00201D9D2013F08EBB6
:10AF54000711BAF1000F2BD00CAA6846FFF79AFF2D
:10AF6400102200210CA80FF047FA0024BC4233DB66
:10AF74003246694608A8FFF78DFF4846FFF788FF69
:10AF840010AA334603CB9342286069601E4605F13C
:10AF94000805F6D111B0BDE8F08F214608A80FF0DE
:10AFA4002BFA4FF0010A4846FFF772FF5246A6E714
:10AFB400224668460FF0EEF904F140036B44802208
:10AFC400601C03F8402C5146C4F10F0268440FF092
:10AFD40013FA0CAA6946C0E708EB0412314608A824
:10AFE400FFF758FF4846FFF753FF0134BEE7000060
:10AFF40038B5114B1A6804462AB11A684068526879
:10B00400821A002A0DDA1A6862611C609A88013279
:10B0140092B29A8012B97846FCF7C6FF01232370D6
:10B0240038BD1A68154652691AB15168091A0029BF
:10B03400F8DB62616C61E9E77C3800200F4B1A6829
:10B04400824210B504460DD142691A609A8892B2C0
:10B05400511E89B2998012B97846FCF7A5FF0023E6
:10B06400237010BD1A68002AF9D05169A14202D197
:10B0740061695161EAE70A46F5E700BF7C380020C0
:10B08400014B186800F038BE78380020044B1A6869
:10B0940022B11B680349586800F080B900F0D8B9A0
:10B0A4007C38002085B00200F8B500F0EFF8224E9D
:10B0B40005460027336823B133685B685B1B642B48
:10B0C40005D400F0E3F8FFF7E1FF0120F8BD346890
:10B0D4002378012B02D07846FCF766FF636933605E
:10B0E400B38867619BB25A1E92B2B28013B9784694
:10B0F400FCF75AFFA36813B97846FCF755FF0223FF
:10B10400284621692370A368984700F0BFF8237884
:10B11400022B0546CED1E2680AB92270CAE76FF065
:10B1240063016368091A1344D942FCD4636020465E
:10B13400FFF75EFFBEE700BF7C380020074A0848DF
:10B1440008B500231370074A1360536000F0B6FD7E
:10B15400054B1860BDE8084000F08AB87538002037
:10B16400ADB002007C38002078380020134B1B78E7
:10B1740010B5044613B17846FCF716FF00F094FEB0
:10B1840010B97846FCF710FF14B97846FCF70CFFA9
:10B19400A36813B97846FCF707FF2378012B02D183
:10B1A4007846FCF701FF002363612046FFF720FF88
:10B1B40000F06CF8BDE81040FFF768BF7538002058
:10B1C40010B5044600F070FE10B97846FCF7ECFEAA
:10B1D40014B97846FCF7E8FE2046FFF72FFF00235A
:10B1E400636100F053F8BDE81040FFF74FBF000063
:10B1F400194B1B7837B504460D4613B17846FCF756
:10B20400D3FE00F051FE10B97846FCF7CDFE14B918
:10B214007846FCF7C9FE2046FFF710FF0023636160
:10B2240020466560FFF7E4FE00F030F8FFF72EFFDC
:10B234000A4B1B685B040DD5094B1B68032B09DD06
:10B24400084B094AD3F80435084900920420E22245
:10B2540001F020FD03B030BD75380020182E002009
:10B26400142E002000100140D7B00300C5B0030025
:10B2740008B50EF0D5FE38B90EF0FEFD20B17846C3
:10B28400BDE80840FCF790BE08BD000010B5EFF320
:10B29400108072B60C490D4B1B68D1F80425D1F807
:10B2A4000441012C04BFD1F80425013300B962B66E
:10B2B400074942EA036200204FF48043E2FB013075
:10B2C400DB0B43EA404010BD0010014090380020E1
:10B2D40040420F000A4B10B54FF40032094CC3F83A
:10B2E4004823C3F80823236813B97846FCF75CFEA7
:10B2F4002468FFF7CBFF2346BDE81040184700BF82
:10B30400001001408438002070B5EFF3108072B64D
:10B314001D4B1E490022C3F804210A6801320A6049
:10B3240000B962B61A4A1168F9B11168013911609D
:10B334001268D2B91749D3F804050A68904215D2A5
:10B34400EFF3108072B6D3F804250C68951CA5425F
:10B3540034BF0A680332C3F8442500B962B64FF417
:10B364000032C3F84423C3F8042370BD0A4C236895
:10B3740013B97846FCF718FE2468FFF787FF2346C5
:10B38400BDE87040184700BF00100140903800200D
:10B394008C380020883800208438002037B50023FA
:10B3A400044601930D4611B97846FCF7FDFD224B86
:10B3B4001D60FFF76BFF2149214A031B002B4FF04F
:10B3C4000005B4BF241A2C464FF400408C4629468D
:10B3D400E4FB00C1002360460EF04CFEEFF3108343
:10B3E400019372B6174A184CD2F804350328C3F1F6
:10B3F400FF1101F57F4138BF0320814213490FD368
:10B404000344C2F844354FF40033C2F84433C2F85D
:10B41400043325600D60019B03B962B603B030BDEF
:10B4240003F17F43013303441A0E013223F07F43B7
:10B4340022600B60EFE700BF8438002020A10700E2
:10B4440040420F00001001408C3800208838002052
:10B45400074B4FF40032C3F84823C3F80823054AC6
:10B4640000231360044A1360044A1360704700BF4A
:10B47400001001408C3800208838002084380020D7
:10B4840030DF704731DF7047034610B5D0E9002044
:10B494009C68D968A2EB701280EAF43018600C44FE
:10B4A400104411445C609960D86010BD73B50D46BA
:10B4B400064610B97846FCF777FD0024A54201D86A
:10B4C40002B070BD0DF10700FFF7DAFF9DF8072009
:10B4D400002AF7D02B1B9A4288BF8DF80730301909
:10B4E4009DF80710FFF7CEFF9DF807301C44E5E7F1
:10B4F40037B50421044600230DEB01000193FFF747
:10B50400D5FF074B2360019BE360C4E90133142595
:10B514002046FFF7B9FF013DFAD103B030BD00BFAB
:10B52400ED5EEAF17047032003F072BE48DF704716
:10B5340049DF70474ADF7047074B032218681A74C3
:10B54400064A5A6140F6D86143F2B063884298BF14
:10B554000B469360704700BFDC380020F8380020A9
:10B56400064B1A68064B1B68A2F178002833534334
:10B57400044AB3FBF2F3C01A704700BFDC38002062
:10B58400D038002040420F000D4B012210B55A71F3
:10B594000C4A00241C7413680133136000F06EFA23
:10B5A40009F09CF8FFF7DCFF074A0146204600F04B
:10B5B400D7F920B17846BDE81040FCF7F5BC10BDC2
:10B5C400DC380020D43800203DB502001E4B30B4D6
:10B5D4005C6928B11A68D96822440131D9601A60BB
:10B5E4009A680121013224FA01F5012A19749A603A
:10B5F40019685D610DD0022A19D05B69134A194498
:10B60400914203D840F6D76293421BD830BCFFF76F
:10B61400BBBFB5F5FA7F03D130B900225A61ECE71C
:10B6240041F6B1529442E8D840F6D862F6E7DA68B7
:10B63400022A02D1054A521AF0E7012ADDD1002874
:10B64400EBD0DAE730BC7047DC38002080969800F5
:10B6540070B5414C414D012323712B781BB1404BF4
:10B664001E78002E59D000232374042851D8DFE813
:10B6740000F0034B484642003A4DA179AA68C4E958
:10B6840002332368226099B3012121743649002BC7
:10B6940008BF0B46991AB1F57A7F25D39A4223D86D
:10B6A400616143F2B06043F69822C5E902020123C6
:10B6B4006B71A371237C023B012B0CD863793BB1E2
:10B6C40009F028F8FFF74CFF00F00AFA0023637131
:10B6D400234B00221A70237C2448022B04BF01232D
:10B6E40023760023237170BD4FF47A736361D8E726
:10B6F400FFF74AFFD5E70120FFF768FFDAE70020EC
:10B70400FAE708F099FFD5E700F07CF908F0CCFFE0
:10B71400D0E77846FCF748FCCCE700F053F92B78E7
:10B724002060022B0FD0032B06D0012B10D1022353
:10B73400237400232B70BDE70A4B0D490D4A5E713B
:10B74400C3E90212A67103232374064B6361F0E775
:10B754007846FCF729FCECE7DC380020D9380020D7
:10B76400D8380020F838002080969800EC38002063
:10B77400A0860100FF1FA107043808B5042825D8B6
:10B78400DFE800F016220A030F00114B1B7E012B89
:10B794001CD1FFF7CDFEC8B17846BDE80840FCF7E0
:10B7A40003BC0B4B00221A76BDE8084008F0EEBF3C
:10B7B40008480123437143F6982240F6D863C0E950
:10B7C4000232FFF7B7FEE6E70248FAE708BD00BF1A
:10B7D400DC380020F83800200D4A4FF48071002333
:10B7E400918043F2B06C43F698211370C2E902C110
:10B7F400084A1060084A1370084A1370084A136014
:10B80400084A13761360938001239371704700BF35
:10B81400F8380020D0380020D8380020D93800204B
:10B82400D4380020DC38002010B50E4C237E012BC8
:10B834000BD0022B13D00BB1002010BD0A48FFF728
:10B8440075FE10B17846FCF7AFFB0848FFF772FEAF
:10B8540010B17846FCF7A8FB02232376ECE711200D
:10B86400EBE700BFDC38002055B60200F8380020B2
:10B87400074B1B7C023B012B07D9064B1878013878
:10B8840002288CBF0020012070470120704700BFB0
:10B89400DC380020D9380020014B1868704700BFFD
:10B8A400DC380020064B587910B540B1FFF758FE3C
:10B8B400044600F087F80346201A48BF181B10BD41
:10B8C400DC380020014B1879704700BFDC380020B9
:10B8D400EFF3108372B6054A527922B1044A4FF449
:10B8E4008071C2F8001103B962B67047DC380020D9
:10B8F40000E100E0044B1B7E022B04D1034B012228
:10B904001A70FFF7E5BF7047DC380020D9380020F3
:10B91400054B1B7E022B06D1044A012808BF0323D2
:10B924001370FFF7D5BF7047DC380020D9380020EA
:10B93400054B1A7832B128B9044A127812B118703A
:10B94400FFF7C6BF18707047D8380020D9380020D8
:10B95400024B1B6803B962B6704700BF0839002068
:10B96400022810B522D8EFF31084114B1C6072B674
:10B97400104B43F82020104B002243F820200F4B9B
:10B984001B787BB1830003F1804303F5004310303F
:10B99400C3F84021C0B2012282400948C0F8042300
:10B9A400C3F84015FFF7D4FF002010BD0720FCE7C3
:10B9B4000839002024390020183900200C390020CF
:10B9C4000080004008B5EFF310820A4B1A6072B68B
:10B9D400094B1B7853B1094B0022C3F84C210122B7
:10B9E400DA64D3F84C05FFF7B3FF08BD044B1868BD
:10B9F400F9E700BF083900200C390020008000401E
:10BA0400103900202DE9F84F174EDFF8608000252B
:10BA14004FF0010AAC0004F1804404F50044D4F86A
:10BA24004031D3B1D8F8043305F110070AFA07F707
:10BA34003B4212D0D6F800B0BBF1000F02D17846D9
:10BA4400FCF7B2FA4FF00009C6F80090C8F8087382
:10BA5400FFF7B8FFD847C4F840910135032D06F12C
:10BA64000406D7D1BDE8F88F2439002000800040B7
:10BA7400014B1B68184470471439002008B5134B58
:10BA84000022C3F84025C3F84021D3F84011C3F87D
:10BA94004425C3F84421D3F84411C3F84825C3F816
:10BAA4004821D3F848310A4B1B681BB9094B4FF4A2
:10BAB40080721A60084B01221A70FFF7E7FB0146F7
:10BAC400FFF780FF054B091A196008BD008000408C
:10BAD4000839002000E100E00C390020143900206E
:10BAE4000B4A0C4900231360536093600A4A0B60AD
:10BAF40010600A4A4B6013708B60094B4FF0FF32A1
:10BB0400C3F80823074B4FF48072C3F880217047B1
:10BB14001839002024390020103900200C39002065
:10BB24000080004000E100E0044B1B780F2B1EBF97
:10BB3400034B4FF48022C3F80021704731390020B1
:10BB440000E100E010B5104C104B20701048036069
:10BB54001023C0E90133FEF78FF90E48FFF714F9FB
:10BB640023780F2B0AD0072B09D8EC221A41D207CD
:10BB740005D5094A5B01DBB282F8123310BD784661
:10BB8400BDE81040FCF710BA31390020903900208C
:10BB9400903A00203439002000E100E00D4B1B787E
:10BBA4000F2B0DD00C4991F81223EC2352091341A9
:10BBB400DB0706D5094B9A6832B94FF480230B6032
:10BBC40070477846FCF7F0B91A6842F480221A608C
:10BBD400704700BF3139002000E100E0D057002059
:10BBE400F8B5EFF3108672B616490B685A1C0A6052
:10BBF400FBB9154B1B780F2B20D0EFF3108772B6CF
:10BC0400124A9468012384B99360114B114DD3F8FF
:10BC1400800028401060C3F88050D3F8840050603E
:10BC24004FF0FF32C3F8842023460B4A137007B940
:10BC340062B60B6813B97846FCF7B6F906B962B672
:10BC4400F8BD00BF8C39002031390020D0570020C6
:10BC540000E100E0FC06FFBD8839002038B5EFF3B1
:10BC6400108572B6104C236813B97846FCF79CF91A
:10BC74002368013B2360A3B90C4B1B780F2B10D016
:10BC84000B4B1A780B4B996859B152B9EFF31080EA
:10BC940072B609491C680C605C684C609A6000B913
:10BCA40062B605B962B638BD8C390020313900203E
:10BCB40088390020D057002000E100E038B5044660
:10BCC40010B97846FCF770F9094D2B68102B02D98E
:10BCD4007846FCF769F9EFF3108372B62868421CC2
:10BCE4002A60044A42F8204003B962B638BD00BF56
:10BCF4003C3900204039002038B50D4B1B68834285
:10BD0400044602D87846FCF74FF9EFF3108572B673
:10BD140008496009012251F8203004F01F04A240B0
:10BD2400134341F82030FFF7FFFE05B962B638BD72
:10BD34003C3900208439002070B50D46164604466F
:10BD440010B97846FCF730F915B97846FCF72CF9A8
:10BD5400EFF3108372B60022C4E902562274246001
:10BD640003B962B670BD000070B5044610B97846D8
:10BD7400FCF71AF9A36813B97846FCF715F9EFF341
:10BD8400108672B6237C03F0FF055BB901230648D5
:10BD940023742146FFF702F8FFF7C6FE284606B9CA
:10BDA40062B670BD1120FAE73439002010B504469C
:10BDB40010B97846FCF7F8F8207C10BD2DE9FF4750
:10BDC400324F3B7813B17846FCF7EEF80125DFF8E3
:10BDD400C880DFF8C8A0DFF8C8903D700024D8F808
:10BDE4000030A34212D82A48DFF8A480FEF7F0FFFF
:10BDF400002650BB274C69462046FEF757F890B3FF
:10BE0400002328463B7004B0BDE8F087610904F0C4
:10BE14001F02012393405AF82120134213D0EFF359
:10BE2400108072B65AF8212022EA03024AF821202F
:10BE340000B962B659F824309847064618B9204626
:10BE4400FFF75AFF35460134C9E70468237C13B968
:10BE54007846FCF7A9F8D4E902309847267440469E
:10BE6400FEF7B6FFC5E79DF8003043B1012BC2D100
:10BE7400019B002BBFD0DDE902019847BBE7019B82
:10BE8400002BB8D002989847B5E700BF303900209E
:10BE940034390020903A00203C39002084390020B5
:10BEA40040390020FFF78ABF07B5FEF7D1FF8DF8B0
:10BEB40003009DF803301749F02B0DD10B780F2B9D
:10BEC40025D01220FEF7CCFF80F00100C0B200F0B4
:10BED400010003B05DF804FB9DF803305BB2002B56
:10BEE400ABBF03F160430C4A03F5614303F00F0356
:10BEF400ACBF93F80033D35C5B090193019A0B78D0
:10BF0400934204D0019A9342DBD30020DFE701205F
:10BF1400DDE700BF3139002014ED00E046DF704753
:10BF2400F0B58DB015466A460B46044600F1100C78
:10BF3400174620686168164603C6083464453246CD
:10BF4400F7D104AC03F1100618685968224603C2FD
:10BF54000833B3421446F7D13846FFF7DFFF08AC85
:10BF64002A460CAD234603CBAB42106051601C46FD
:10BF740002F10802F6D10DB0F0BDFEF79BBF01F04F
:10BF8400E6BC01F01DBD022930B419D8F1B1197015
:10BF9400C168D2010C045A7004F47F04C1F307424F
:10BFA40022439A70C1F30721120CD9701A710289C5
:10BFB40052BAA3F80520428852BAA3F8072020E019
:10BFC400032924D0784630BCFBF7EEBF827AC47ACA
:10BFD400197002F07F0242EAC412C4685A70250440
:10BFE400C4F3074205F47F052A439A70C4F3072477
:10BFF400120CDC701A710289D97152BAA3F80520A7
:10C004001972026912BA30BCC3F8092070470024BF
:10C0140019705C70C1680D04C1F3074205F47F0513
:10C024002A439A70C1F30721120CD9701A7102893C
:10C03400DC7152BAA3F805201C72E2E77FB50E4604
:10C044001546044600B112B97846FBF7ADFF00234C
:10C05400CDE90033CDE9023332462B46214668460A
:10C06400FEF728FF04B070BD2DE9FF41DDF82C80F8
:10C074000F4615461C46064620B11AB113B1B8F155
:10C08400000F02D17846FBF78FFF6B463A463146E4
:10C094002846FEF70FFF9DF82820434621466846B0
:10C0A400FEF708FF04B0BDE8F0810000F0B50F46CC
:10C0B4008FB014461E46054608B101B113B978463F
:10C0C400FBF772FF1CB97846FBF76EFF01E0102CFA
:10C0D400F9D8274B009305AA04216846FFF7AEFF61
:10C0E40001AB2946102205A8FEF7E4FE2246394694
:10C0F40005A80EF04FF904F138036B44012203F84C
:10C10400242C05ABA218194692B201A8FEF7D2FE60
:10C114009DF82330354603F07F0305F8013B2246A2
:10C12400394609A80EF036F904F148030DEB03076C
:10C1340011340223A4B207F8243C22462B4605A955
:10C1440001A8FEF7B7FE11362B4605AD18685968ED
:10C154002A4603C20833B3421546F7D1032207F82F
:10C16400242C05A9224601A8FEF7A4FE0FB0F0BDB9
:10C17400736D6B3230B50C4689B0054600B111B908
:10C184007846FBF711FF04210DEB01000E4B0193E0
:10C1940004AAFFF753FF04AB294618461022FEF702
:10C1A40089FE0A4B18681B798DF80C3004AB029099
:10C1B40002A918460522FEF77DFE06AB03CB2060DC
:10C1C400616009B030BD00BF736D6B33EDB0030027
:10C1D40030B50C4687B0054600B111B97846FBF777
:10C1E400E3FE0E4B009302AA68460421FFF726FFE4
:10C1F40002AB294618461022FEF75CFE084B019359
:10C20400042202AB18460DEB0201FEF753FE9DF823
:10C21400173003F03F03237007B030BD736D6B34E8
:10C224006964360130B50268037CD17A87B000298D
:10C234008DF8043083680CBF0421082109330B44B2
:10C24400CDE90232436804930446C3680593694602
:10C2540001A801F0ADFF084318D0237C2068012B0E
:10C264000BD000F10C011030FEF7A0F9054620B107
:10C2740002F03AF8284607B030BD2168009800F073
:10C2840035FB009B093363610025F3E70425F1E7DF
:10C2940008B500B14068044B1860FDF7D9FFBDE84C
:10C2A400084002F03FBC00BFA43A002008B5FDF7E7
:10C2B400F3FFBDE8084002F073BC10B5044610B9A2
:10C2C4007846FBF771FE236813B97846FBF76CFEDA
:10C2D40023685B6913B97846FBF766FE237C012B60
:10C2E40002D97846FBF760FEE36813B97846FBF79A
:10C2F4005BFE2046BDE81040FFF794BFF0B504464E
:10C30400C7B010B97846FBF74FFE636913B9784696
:10C31400FBF74AFE236813B97846FBF745FE23680A
:10C324005B6913B97846FBF73FFE606900F02CFBAC
:10C334001F4B1B689B0705462ED51E4B1B68042B01
:10C344002ADD1D4B1E6805AB411E00F11C07184673
:10C3540011F8012F4FEA121C02F00F0216F80CC05C
:10C3640083F800C0B25C5A708F4203F10203EFD12C
:10C37400002380F83A3003F1804303F588330F4AF1
:10C38400D3F8043501920E4A029000920D4940F20E
:10C394002F12052000F07EFCA168206800232A46A5
:10C3A40000F065FA47B0BDE8F04001F067BF00BF98
:10C3B400182E0020142E00201C2E00204CB1030047
:10C3C400EEAD030042B103002DE9F0430E46D5B0B3
:10C3D40090460546002800F0FF8000F0D7FA7F4F12
:10C3E400421B29460BA80DF0D5FF3B68980727D5BB
:10C3F4007B4B1B68042B23DD7A4B802E3446D3F809
:10C4040000C028BF802413AB294604EB050E184650
:10C41400714503F1020376D1002300F8143003F1CF
:10C42400804303F58833704AD3F8043501926F4A88
:10C43400029000926E494FF4AA72052000F02AFC83
:10C44400002305AC00932A460BAB3146204600F08E
:10C45400C5F90546002852D12378002B4FD0E26855
:10C46400B2F1807F4BD2E27A0AB1022B47D094F921
:10C474000A30002B43DB3B68990725D5584B1B68D2
:10C48400042B21DD574B802E1868B4460BA928BF16
:10C494004FF0800C13AB654503F1020342D113AA9C
:10C4A400002302F8153003F1804303F58833504923
:10C4B400D3F8043502924F4A01924C4A0092052067
:10C4C40040F25D1200F0E6FB636913B97846FBF7AE
:10C4D4006BFD3146204600F04FFAC6B23146434662
:10C4E40022460DF13500FCF713FD13A905462089FA
:10C4F40007F084FA28B3E1682089FBF7C1FD2846D8
:10C5040055B0BDE8F08311F8012B4FEA121902F07F
:10C514000F021CF8099003F8029C1CF8022003F88F
:10C52400012C75E711F8012B4FEA121E02F00F02DD
:10C5340010F80EE003F802EC825C03F8012C0135DC
:10C54400A9E7012003F088FC0028D4D0A37A012BAA
:10C55400D1D92378012B05D1608813A907F04EFAAD
:10C564000028C8D1244BA27A1B68EBB9A37A139490
:10C57400013BA3724FF0FF331493DF23169313A8E8
:10C58400012315968DF85C30FFF74CFE90B93246C6
:10C594000DF1350118980DF0FDFE13A8FFF7AEFE5E
:10C5A400A37A0133A372A6E76188208998470028FB
:10C5B400DCD1A0E73B689B07A1D5094B1B68012B85
:10C5C4009DDD0E4B0E4AD3F8043509490092022032
:10C5D400AD2200F05FFB92E70E2590E7182E0020B5
:10C5E400142E00201C2E002053B10300EEAD0300D6
:10C5F40042B1030062B10300A43A002000100140DC
:10C6040071B1030008B520B1012804D07846FBF7C6
:10C61400CBFC002008BD0320FCE730B589B0002323
:10C6240004938DF81430036940691BBACDF81530B2
:10C63400D1F80730CDF81930B1F80B30ADF81D3012
:10C644000C464B7B8DF81F30154611306A4604A901
:10C65400FFF766FCA31D0DF10600EA1D13F801198E
:10C6640010F8015DA34281EA050102F8011DF5D12C
:10C6740009B030BD2DE9F041D4B01D4600238DF83A
:10C684001730ADF83C300E93D31D0C93EB1D109373
:10C694005A9B43610E4606AF11462A4604460B9741
:10C6A400FFF7BBFF6B78DA0903F07F03E272A37232
:10C6B400EB78AA781B0243EA02432A791343E36026
:10C6C400B5F8050040BA208180B2FEF7D9F90128F7
:10C6D40066D1E27A002AA6F109030CBF04220822DB
:10C6E40093425DD3E1682089FBF7ACFC80460028C7
:10C6F40056D1E37A9DF86C01002B0CBF0423082368
:10C70400073E8DF84830F61A0C9BB6B233441193A9
:10C71400ADF83460FFF776FF3B46014642462046BB
:10C72400FFF731FC63690DF1170101330AA80A937D
:10C73400FFF727FC9DF81730002B31D0B5F8070020
:10C7440040BA608080B2FEF79BF91E4B20701B68D4
:10C754009B0725D51C4B1B68032B21DDBDF834201A
:10C764001A4B10991D68802A28BF802213AB5618D3
:10C774001C468E4203F1020317D1002304F8123041
:10C7840003F1804303F58833114AD3F80435019249
:10C79400104A009210490294E422042000F07AFA2C
:10C7A4009DF8170054B0BDE8F08111F8010B07099A
:10C7B40000F00F00EF5D03F8027C285C03F8010C25
:10C7C400D7E700BF182E0020142E00201C2E0020B6
:10C7D400FAB10300EEAD0300EDB103002DE9F0431F
:10C7E40085B00F469DF8309014461E46054618B194
:10C7F40012B10BB19A4202D17846FBF7D5FBA7F1EF
:10C804000903142B31D82078C009FDF70BFF00234E
:10C8140028616B6194F80080CDE9023308F07F0849
:10C8240003AA02A9404606F0A9FF029BCBB1CDE9B9
:10C8340000392246334639462846FFF71BFF08B124
:10C8440000200FE0039B4BB1CDE90039224633466B
:10C8540039462846FFF70EFF0028F1D1029B002B32
:10C86400DED1052005B0BDE8F0830920FAE7F0B574
:10C874000C468FB016461F46054610B97846FBF79E
:10C8840093FB16B97846FBF78FFB012F02D9784644
:10C89400FBF78AFB3846FFF7B5FE01AF01463B467E
:10C8A40028460022FFF76FFBEB7A6A69002B0CBF66
:10C8B40004230823A11C89B28DF834300132F31DFE
:10C8C400CDE90527079300220B9305A80B44ADF887
:10C8D4002010ADF8282009920C93FFF750FB324644
:10C8E40031462846FFF799FE0FB0F0BD38B50C4627
:10C8F400054610B97846FBF757FB14B97846FBF7A1
:10C9040053FB2089FEF7BCF8012802D07846FBF7D8
:10C914004BFB94F90A30002B02DA7846FBF744FB10
:10C92400E368B3F1807F02D37846FBF73DFB63698C
:10C9340013B97846FBF738FB236903F001026369F6
:10C944001B7803F07F0343EAC2132B70A37AE27AC5
:10C9540003F07F0343EAC2136B70E3682B711A0C74
:10C96400AA701A0AEA702389AB711A0A6A71638879
:10C974002B721A0AEA7138BDC37A002B0CBF04204B
:10C9840008200939081A7047093870470130704780
:10C99400436849B90178827819441B7811F8010C6D
:10C9A400D31A1844C0B270475A185B5C12F8010CD1
:10C9B400C01AF7E738B50D46044610B97846FBF7B8
:10C9C400F3FA2378AB4202D87846FBF7EDFA29460E
:10C9D4002046FFF7DDFF40B16368A2785B5DA06885
:10C9E400013A1340627802FB030038BD38B50C46A7
:10C9F400054610B97846FBF7D7FA2B78A34202D83C
:10CA04007846FBF7D1FA21462846FFF7C1FF18B153
:10CA14006A68135D0133135538BD10B5044610B967
:10CA24007846FBF7C1FA0023194622789A4200D8C7
:10CA340010BD6268D1540133F7E710B5437804465A
:10CA440013B97846FBF7B0FA2378012B02D878465D
:10CA5400FBF7AAFAA36813B97846FBF7A5FA63684B
:10CA640013B97846FBF7A0FAA37813B15A1E1A42F9
:10CA740002D07846FBF798FA2046BDE81040FFF74D
:10CA8400CCBF38B50D46044610B97846FBF78CFA8E
:10CA94002378AB4202D87846FBF786FA294620462B
:10CAA400BDE83840FFF774BF08B520B119B1FFF7EE
:10CAB4008FFB002008BD0E20FCE713B50B4658B1D0
:10CAC40051B1002401220DF107018DF80740FFF751
