:020000022000DC
:1070000000FD0320A9180400D1180400D3180400BF
:10701000D5180400D7180400D91804000000000097
:10702000000000000000000000000000DB18040069
:10703000DD18040000000000DF180400E11804005F
:10704000E3180400E3180400E3180400E318040044
:10705000E3180400E3180400DD7F0200E3180400D5
:10706000E3180400E318040095FD0300E31804008E
:10707000E3180400E3180400E3180400E318040014
:10708000E3180400A5100400499A0300E318040063
:107090008D110400E318040041860200E318040087
:1070A000E3180400E3180400E3180400E3180400E4
:1070B000E3180400E31804000000000000000000D2
:1070C000E3180400E3180400E3180400E3180400C4
:1070D000E3180400E3180400E3180400E3180400B4
:1070E000E3180400E3180400E318040000000000A3
:1070F00000000000E318040000000000E318040092
:10710000000000000000000000000000000000007F
:10711000000000000000000000000000000000006F
:10712000000000000000000000000000000000005F
:10713000000000000000000000000000000000004F
:10714000000000000000000000000000000000003F
:10715000000000000000000000000000000000002F
:10716000000000000000000000000000000000001F
:10717000000000000000000000000000000000000F
:1071800000000000000000000000000000000000FF
:1071900000000000000000000000000000000000EF
:1071A00000000000000000000000000000000000DF
:1071B00000000000000000000000000000000000CF
:1071C00000000000000000000000000000000000BF
:1071D00000000000000000000000000000000000AF
:1071E000000000000000000000000000000000009F
:1071F000000000000000000000000000000000008F
:107200000348044B834202D0034B03B11847704735
:10721000B42E0020B42E0020000000000548064BCC
:107220001B1AD90F01EBA301491002D0034B03B184
:1072300018477047B42E0020B42E00200000000034
:1072400010B5064C237843B9FFF7DAFF044B13B1AE
:107250000448AFF300800123237010BDB82E002036
:1072600000000000AC3D040008B5054B1BB105490A
:107270000548AFF30080BDE80840FFF7CFBF00BF6F
:1072800000000000BC2E0020AC3D0400A3F5803AB5
:10729000704700BF174B002B08BF134B9D46FFF7ED
:1072A000F5FF00218B460F461348144A121A1BF0B3
:1072B00011FA0E4B002B00D098470D4B002B00D03D
:1072C00098470020002104000D000D48002802D03E
:1072D0000C48AFF300801BF02BFA2000290000F0CF
:1072E000DFF81BF017F900BF0000080000000000E5
:1072F0000000000000FD0320B82E0020C05C00202C
:10730000000000000000000041DF7047014B002238
:107310001A707047D52E0020014B00221A7070475A
:10732000D42E002030B5354D2B685A0483B0044666
:1073300003D5334B1B68032B1EDC63685A78172A6E
:1073400018D162781F2A15D12E4A1878114601F8F3
:107350001E0BC2F1010000E0636813441B5C02F8DD
:10736000013F8A42F8D12B685B0403D5244B1B688C
:10737000032B15DC03B030BD23482F211BF0B2F9DD
:1073800010B32F2120481BF0ADF9411C1F4B204AA0
:10739000D3F8043500920420482213F0ADFBCCE76B
:1073A00019482F211BF09EF9D8B12F2116481BF048
:1073B00099F9411C154B1748D3F804350090552214
:1073C000042013F099FBD5E70F485C211BF08AF9E4
:1073D00028B15C210C481BF085F9411CD6E70A490D
:1073E000D4E709485C211BF07DF928B15C210648EF
:1073F0001BF078F9411CDDE70349DBE7402E002054
:107400003C2E0020BC3100209028040000100140D8
:10741000EC280400082904000378232B00D07047CF
:1074200000B51A4B1B685B0483B003D5184B1B686F
:10743000032B09DC0322C8210F2000F01DFC03B040
:107440005DF804EB00F0ACBB12482F211BF04AF9A9
:1074500070B12F210F481BF045F9411C0E4B0F480E
:10746000D3F8043500908822042013F045FBE1E7AF
:1074700008485C211BF036F928B15C2105481BF057
:1074800031F9411CEAE70349E8E700BF402E00203C
:107490003C2E002090280400001001402829040000
:1074A0002DE980488FB019F0E5FF002840F04E81AB
:1074B00000F04CFCAD4AAE4801211AF049F8002812
:1074C00040F05181AB4AAC4801211AF041F8002844
:1074D00040F04681A94A04214FF4804013F0FCFAA1
:1074E00000F0F6FE2422002105A81BF0F3F8A448C2
:1074F000A44B05900F22002105A88DF81C200993AC
:1075000000F0E6FA30B10B2800F005819E4AA72171
:107510001AF0F8F99D4B02939D4B03939D4A9E48A8
:107520004FF40073002118F011F91B2017F0BEFF73
:1075300000F026FB002840F00E81974818F07CF9F7
:10754000029B1B685A0404D5039B1B68032B00F3A2
:107550003F8110F023FEDFF86CA2904D904EDFF8D3
:1075600054B2904C904FDFF86092DFF860820022B6
:1075700040F2D731384619F0FDFF002857D10123DA
:107580008AF80030FFF7C0FE9AF80020002AF9D1EF
:10759000A421384619F0EEFF002840F0AE80012308
:1075A00082482B7010F0F4FD33688149073381FB6A
:1075B00003211944DA17C2EB2112C2EB0212A3EB2A
:1075C000420333602B78002BD1D000F06FF979485B
:1075D0001D2100F0D3F9C0F307237E2B9BF81DC0BB
:1075E0009BF81E2007D9A3F17F01C9B27E2986BF6F
:1075F0000233DBB20B469C450CD1C0B27E2807D9C2
:10760000A0F17F03DBB27E2B86BF0230C0B21846EA
:1076100082420FD0FFF778FE2B78002BD5D10022C5
:1076200040F2D731384619F0A5FF0028A7D01AF04C
:1076300059F9A4E70023C4E90433CDE90933A36170
:1076400023770B938DF830300123A36007931D211E
:107650004FF4E02305A8E3600893C4E90098CDE95E
:10766000059800F08BF9C0F307237E2BC0B2637737
:10767000A07707D9A3F17F02D2B27E2A84BF02335A
:10768000DAB262777E2807D9A0F17F03DBB27E2BC6
:1076900084BF0230C3B2A37733683F48A3721F216F
:1076A00018F004F9444B186058B13E491F221130BC
:1076B0001BF06CF8404A3848116803230B7118F02E
:1076C00033F9029B1B685B04A4D5039B1B68032B47
:1076D000A0DD2D482F211BF005F888B12F212A4865
:1076E0001BF000F8411C354B354AD3F804350092A5
:1076F0000420FD2213F000FA8CE71AF0F3F84EE7AD
:1077000021485C211AF0EEFFF0B15C211E481AF00E
:10771000E9FF411CE7E71D4B02931B6813F4804F00
:107720001B4B03933FF4FAAE1B68032B7FF7F6AEB7
:1077300015482F211AF0D6FF002869D02F211248B2
:107740001AF0D0FF411C6EE00F49CCE70E4AB4217D
:107750001AF0D8F8ACE60C4ABE211AF0D3F8ECE6E1
:107760001AF0C0F8B6E61AF0BDF8ABE60D730200E9
:10777000FC38040019730200F8380400A9AA0300B9
:10778000010000071974020090280400402E002018
:107790003C2E0020DC2E0020DC300020D52E0020E6
:1077A000B8310020DC310020983100202573020020
:1077B00089888888BC310020D82E00200010014024
:1077C000F0290400D42E00201E170104013001010D
:1077D00031482F211AF086FF70B12F212E481AF060
:1077E00081FF411C2D4B2E4AD3F804350092042012
:1077F000C02213F081F9ACE627485C211AF072FF31
:10780000002837D05C2124481AF06CFF411CE9E7BE
:1078100021485C211AF066FF002838D05C211E4800
:107820001AF060FF411C1D4B1E4AD3F8043500922C
:107830000420A12213F060F9029B1B6859047FF514
:107840006DAE039B1B68032B7FF768AE12482F2198
:107850001AF048FF80B12F210F481AF043FF411C56
:107860000E4B114AD3F8043500920420A22213F0E3
:1078700043F953E60849B5E707485C211AF032FF9F
:1078800038B15C2104481AF02DFF411CE8E7024999
:10789000C9E70149E4E700BF902804000010014057
:1078A000D0290400442904009429040030B5324D45
:1078B000002205F5007E114648F205000B044BBF7F
:1078C00082EA000413B223B21446002B4FDB64009B
:1078D000A3B224B2002C45DB5B009CB21BB2002B90
:1078E0003BDB6400A3B224B2002C31DB5B009CB212
:1078F0001BB2002B27DB6400A3B224B2002C1DDBDB
:107900005B009CB21BB2002B0BDB640025F8024F1E
:1079100001F5807102F50072754589B292B2CDD140
:1079200030BD80EA430325F8023F01F5807102F57E
:107930000072AE4589B292B2C0D1F1E780EA440448
:1079400023B2A4B2DFE780EA43031CB29BB2D5E7BF
:1079500080EA440423B2A4B2CBE780EA43031CB21A
:107960009BB2C1E780EA440423B2A4B2B7E780EA3D
:1079700043031CB29BB2ADE7FA310020002910B4DA
:1079800040F384800138434C00EB010C002110F8D7
:10799000012F02F00103DB0112F0020F18BF43F0C8
:1079A000400312F0040F18BF43F0200312F0080F39
:1079B00018BF43F0100312F0100F18BF43F0080374
:1079C00012F0200F18BF43F0040312F0400F18BF4D
:1079D00043F0020343EAD21383EA1123DBB2090224
:1079E00034F8133089B2604581EA0301CFD141F305
:1079F000400301F0010041F3800203F4804343EAB5
:107A0000C03302F400528908134341F3400041F3AC
:107A1000800200F48050184302F4006341F3C00276
:107A2000184302F4806241F30013104303F400731F
:107A300041F34012184302F4807241F38013104363
:107A400003F0800341F3C012184302F0400241F3F7
:107A50000023104303F0200341F34022184302F0B7
:107A6000100241F38023104303F0080341F3C022C6
:107A7000184302F0040241F30033104303F0020301
:107A8000184340EA51305DF8044B704700210B4623
:107A9000BBE700BFFC31002010B5044614F0DAF952
:107AA00010B123780E2B00D010BDBDE8104000208F
:107AB00010F0D8BB0378142B00D07047C3880F2B6D
:107AC000FBD8024B01221A70704700BFFC33002024
:107AD00070B582B0002849D00E46054610F070FA05
:107AE000044610B1204602B070BD04F02DFA02F039
:107AF000E5F828690AF0F8FF04460028F2D12A7F49
:107B0000AB69CDE9003201466B691A484FF6FF7246
:107B10000BF0D2FB04460028E4D12B6A03B198474E
:107B2000154810F02BFB16F0C7FC134810F028FB8B
:107B300003F0DAFF054601F08DFC0B2D0AD00B286F
:107B400008D00E4B1B782BB907F0B6FC002EC9D01D
:107B50003070C7E711F06EF90B2402F075F804F0ED
:107B600091F90FF0B9FB15F0F9F8EDE70E24204676
:107B700002B070BD003400200C2E0020FC33002029
:107B800010F092BA08B511F055F902F05DF804F062
:107B900079F90FF0A1FBBDE8084015F0DFB800BF90
:107BA00008B514F057F920B1BDE80840002010F0E6
:107BB00059BBBDE80840014810F0E0BA002E002093
:107BC0002DE9F843DFF8A880D8F8000048B3244D29
:107BD000244FD5F800900024012606FA04F313EA96
:107BE000090F10D0385D204B1F2894BF4FF0A043E1
:107BF00000F01F02D3F8043598BF0246D340DA07DD
:107C00000CD500F0DDF90134042CE6D1D8F80040A1
:107C1000013CC8F800403CB1BDE8F88300F0C2F96F
:107C2000F1E719F05FFED2E710480E4FDFF844800D
:107C300019F0FAFC01262B6806FA04F21A4207D062
:107C4000D8F80030385DE340DB0706D500F0B8F91E
:107C50000134042CEFD1BDE8F88300F0A3F9F7E775
:107C60005C3400200039040000030050643400201C
:107C700060340020583400200AB1132900D870471E
:107C8000F8B552002C4B2D4D013A1A6010F001034B
:107C9000286007D04FF0A043D3F804356FEA533380
:107CA00003F00103860709D54FF0A042D2F804255E
:107CB0006FEA9232520002F002021343440709D5E0
:107CC0004FF0A042D2F804256FEAD232920002F0BF
:107CD00004021343020709D54FF0A042D2F804254D
:107CE0006FEA1242D20002F008021343144C2360E0
:107CF00000244FF4004223464FF4FA70E1FB0203E4
:107D000019464FF47A7200231AF08CFA2246014683
:107D10000C4819F02FFC044600B1F8BD0A4F2E683C
:107D2000012505FA04F3334202D0385D00F048F92A
:107D30000134042CF5D1F8BD603400205C340020FF
:107D400058340020643400200039040030B583B07A
:107D500000F07EF8E0B1144C00230122ADF80430AD
:107D60008DF806308DF80520251D14F8010B01A9AA
:107D700000F078F848B9AC42F7D10C4A0C48012120
:107D800019F0E6FB58B903B030BD19F0ABFDF2E7CE
:107D900000F010F80028DED019F0A4FDDBE719F0A0
:107DA000A1FD03B030BD00BF00390400C17B02005B
:107DB0000439040030B5224C94F85B3083B0002BBA
:107DC0003BD104F124015D09012D2DD1FF22CA54BC
:107DD0000133302BF7D14FF0FF3341F8243C06221A
:107DE0000021184884F85430C4E90133C4E903334E
:107DF000C4E90533C4E907331AF06CFC124BE022E6
:107E000083F8062340221A60104B0020C3F87C013F
:107E1000D3F87C210192019984F85B504FF0004225
:107E2000C3F8042303B030BD4FF0FF3222FA03F051
:107E3000C00748BFCA540133C5E7082003B030BDAE
:107E400088340020DD34002000E100E000600040C4
:107E5000034B93F85B00003818BF0120704700BF48
:107E6000883400204C4B1A1892F924C0BCF1FF3F13
:107E700001D00820704710B48C78ECB11A68013238
:107E80004FD05A6801327CD09A6801327BD0DA68D0
:107E9000013274D01A69013277D05A69013276D032
:107EA0009A69013275D0DA69013208BF072239D0E8
:107EB00004205DF8044B7047FE2382F824304A7892
:107EC000012A26D01F281AD9344900F01F030122A5
:107ED0009A40C1F80C25314903F5E073032241F8BB
:107EE000232020FA02F22E4900F007008C5C0123C7
:107EF000834023438B5400205DF8044B70470123DB
:107F00004FF0A0428340C2F80C3503464FF0A04129
:107F1000E2E71F282CD84FF0A0438240C3F8082581
:107F2000F3E700221C1884F82420002443F82240A0
:107F300093004C780A782405120404F4801403F1A9
:107F4000804302F4403203F5C0432243040204F4A8
:107F50007C542243D3F8104524F4991424F4F854A3
:107F6000C3F81045D3F810452243C3F81025A6E7FF
:107F70000A4900F01F039A40C1F80825ABE7032225
:107F8000D0E70122CEE70222CCE70422CAE705228D
:107F9000C8E70622C6E700BF88340020000300506F
:107FA000DD3400201F2886BF044A00F01F004FF078
:107FB000A04201238340C2F80835704700030050F7
:107FC0001F2886BF044A00F01F004FF0A042012383
:107FD0008340C2F80C357047000300502DE9F04F84
:107FE00085B002AF0023B44A02937B60D2F800113F
:107FF000012900F03B811E46AF4BD3F80421012A32
:1080000000F02581AC4BD3F80821012A00F0108143
:10801000A94BD3F80C21012A00F0FB80A64BD3F822
:108020001021012A00F0E880A34BD3F81421012A83
:1080300000F0D380A04BD3F81821012A00F0BE80B5
:108040009D4BD3F81C21012A09D09B4BD3F87C21EE
:10805000012A00F0188146BB05B0BDE8F08FD3F8C7
:1080600004231206F1D50022C3F81C21D3F81C11F9
:108070000091D3F87C110098012946F0800614D1B4
:10808000C3F87C21D3F87C3101934FF0A042019BCF
:10809000D2F82015894B0291C2F82015D3F820257B
:1080A0000392C3F8202546F00046DFF8148201252C
:1080B0000024A30003F180432E4203F5C0430BD0FC
:1080C000D3F8100558F82420D3F81015C0F3052074
:1080D000C1F3014102B190470134082C4FEA450534
:1080E000E7D1002EB8DA764D95F954E05FFA8EF8B4
:1080F0000EF0070B0021012628F0C00006FA0BF253
:10810000C8F3C20329B9BEF1FF3F02D0FB5C1342A2
:1081100011D14FF0A0426949D2F820350293C2F83C
:108120002035D1F8202503921343C1F82025E1D151
:1081300005B0BDE8F08F1F2887BFDFF880C10EF0C3
:108140001F0202464FF0A04C0CEB820306FA02F22B
:10815000D3F80047D3F8001721F44031C3F80017D3
:108160002918C4F3014491F92410022C55F82190E8
:10817000D3F8001714BF4FF4003A4FF4403A41EAE5
:108180000A01C3F80017CCF82025B9F1000F09D077
:108190004FEA9811032909D0022C05D0032C01D1F4
:1081A000022903D00121A7E70129FBD1C84795F98E
:1081B00054E05FFA8EF80EF0070BF3E7D3F80423D0
:1081C00051067FF53DAF0022C3F81821D3F81831CE
:1081D0000093009B46F0400632E7D3F80423900654
:1081E0007FF528AF0022C3F81421D3F8143100938F
:1081F000009B46F020061DE7D3F80423D4067FF544
:1082000013AF0022C3F810210092009B46F0100625
:108210000AE7D3F8042315077FF500AF0022C3F85F
:108220000C21D3F80C310093009B46F00806F5E6CC
:10823000D3F8042352077FF5EBAE0022C3F80821E0
:10824000D3F808310093009B46F00406E0E6D3F82B
:10825000042391077FF5D6AE0022C3F80421D3F89A
:1082600004310093009B46F00206CBE6D2F804638B
:1082700016F001063FF4C0AEC2F80031D2F800316A
:108280000093009BB8E60022C3F87C21D3F87C3130
:1082900001934FF0A042019BD2F82015074B0291A9
:1082A000C2F82015D3F820250392C3F82025002E0C
:1082B0003FF419AFF7E600BF006000400003005034
:1082C0008834002060DF704769DF70470FF05ABFC5
:1082D00010B588B000F0AAF9002854D1324B0393AE
:1082E000039B04930C22002105A81AF0F3F9002344
:1082F000049A8DF81430012005A9FFF7E5FF002846
:108300003ED10C22002105A81AF0E4F9F823049AC2
:108310000593A12005A9FFF7D7FF70BB04A8FFF7BD
:10832000D1FF039B049A9A42044603D01F4B1B685B
:108330005B0402D4E4B908B010BD1D4B1B68012BCF
:10834000F8DD1C482F211AF0CDF9F8B12F2119487A
:108350001AF0C8F9411C0498174A184BD3F8043591
:10836000CDE90020AB22022012F0C6FB002CE2D0A7
:10837000204619F0B7FA08B010BD19F0B3FACDE7EE
:1083800019F0B0FABDE719F0ADFAA7E709485C218A
:108390001AF0A8F928B15C2106481AF0A3F9411C8B
:1083A000D9E70449D7E700BF002E0020402E002067
:1083B0003C2E0020FC290400682A04000010014023
:1083C00070B4EFF3108472B60D4A9368ABB9012113
:1083D00091600C490C4ED1F8805035401560C1F8C1
:1083E0008060D1F8845055604FF0FF32C1F884208E
:1083F000037004B962B670BC70470123F8E700BF90
:10840000E434002000E100E0FC06FFBD094B9A685F
:108410007AB170B910B4EFF3108172B6064A1C68D5
:1084200014605C685460986001B962B65DF8044BF2
:1084300070477047E434002000E100E001600B6801
:1084400043604A68934208BF00234360704700BFFF
:10845000436843B1026891680B4443605268934299
:1084600004BF0023436070474BDF704710B5124CC8
:1084700084B001A8FFF7F8FFA8B9214602A8FFF7CA
:10848000DDFF039B002BF4D0D3E900210198904736
:1084900002A8FFF7DDFF039B002BF5D101A8FFF732
:1084A000E3FF0028E9D0052801D104B010BD04B0D5
:1084B000BDE8104019F016BA0839040061DF7047B2
:1084C000154B1B7833B330B5144D91B034240DF1F6
:1084D000020103A8ADF80240FFF7F0FF88B9294672
:1084E00001A8FFF7ABFF029B002BF0D0D3E90021DE
:1084F00003A8904701A8FFF7ABFF029B002BF5D123
:10850000E5E7052801D111B030BD11B0BDE830401C
:1085100019F0E8B9704700BFF034002014390400A6
:1085200010DF704730B5384D384985B0012302A8B7
:108530002B70FFF783FF039B2BB90EE002A8FFF718
:1085400087FF039B4BB1D3E900210020904700280F
:10855000F4D10024204605B030BD2D4902A8FFF714
:108560006DFF039B4BB1D3E900210020904702A887
:10857000FFF76EFF039B002BF5D1264A00231268FC
:10858000019202A88DF80830FFF71AFF224901A8CE
:10859000FFF7C6FF214AB0FA80F304465B099DF855
:1085A00008001370FFF732FF002CD3D11C4B1D497C
:1085B0001C702C7091F81623EC2352091341DB0731
:1085C0001DD5194B9A68AAB94FF480030B60104966
:1085D00002A8FFF733FF039B002BBAD0D3E9002199
:1085E0000120904702A8FFF733FF039B002BF5D132
:1085F0000024AFE71A6842F480021A60E7E742F20B
:10860000020019F06FF9E2E7F13400203839040074
:108610002C39040044390400E1F40200F334002052
:10862000F234002000E100E0E4340020034B1B782A
:108630000BB9FFF777BF0820704700BFF334002065
:1086400000B583B008496846FFF7F8FE019B43B1C7
:10865000D3E9002090476846FFF7FAFE019B002B04
:10866000F6D103B05DF804FB20390400837803F0F1
:108670000302032A34D8DFE802F029231E029B08F4
:1086800041F2707203FB02F230B4164B164D1968BA
:108690002B6811448160002423B919E0DA681C4674
:1086A000D2B113469A688A1A002AF7DA84B1E060D8
:1086B00030BCC36070479B08642203FB02F2E3E70F
:1086C00003F0FC0202EB93035A00DDE79A08DBE7B4
:1086D000286030BCC3607047D86030BCC26070474F
:1086E0007B4600BFF8340020F4340020F0B5694D1B
:1086F0002B7883B0002B37D1674C2368002B31D007
:10870000664E3278997801F00301914273DD644836
:108710009B680068634C1B1A6348022900FB03F343
:1087200054F82200B3FBF0F379D0032949D05F4A13
:1087300002FB03F35E4AB2EB730F80F09A8010F0F5
:1087400043FA3378032B014600F28D8054F823302E
:1087500019442B785748002B45D003B0BDE8F040B2
:1087600010F004B903B0F0BD524B4C4E5F6810F0EE
:108770002BFA3278032A04464BD84A4B53F822305E
:108780004749E01B18443AB94CF25033984203D998
:108790000B6801330B6007E0474B4009A3FB003037
:1087A0000B6803EBD0130B603B4C2368002BA9D163
:1087B0002B78002BD6D03F4803B0BDE8F04010F036
:1087C00089B8002A47D0012A5CD03C4A02FB03F357
:1087D0003B4AB2EBB30FB2D310F0F6F93949032399
:1087E00001443370B5E701232B70416003B0BDE84D
:1087F000F04010F001B810F0E7F923689B78C3F35C
:108800000102327003F00303264A52F82310014498
:108810009FE7784606F082FF32780023B0E782B106
:10882000012A8CD102F1CC3202FB03F3204AB2EBD5
:10883000730F84D310F0C8F9234902230144337025
:1088400087E7224A02FB03F302F18042013AB2EBCE
:10885000B30FEFD273E71E4A02FB03F31D4AB2EBDC
:10886000331FB9D26BE70190784606F057FF0199A4
:108870006FE710F0A9F9012300F5742101F51071DB
:10888000337066E7144A02FB03F3144AB2EBF30FAA
:10889000A2D254E7FD340020F4340020FC34002040
:1088A000F834002048390400A0860100CDCCCCCC9F
:1088B0009999991900350020C55A7C0AEFEEEEEE21
:1088C000444444040046C32380969800295C8FC228
:1088D0004728A3B733EC0A0063C92F96063A6D0008
:1088E0002DE9F041284B1B7882B0032B48D8DFE8F4
:1088F00003F03D383302254E336803F5BB53103384
:108900003360234F234B3C684FF0000883F800800E
:10891000002C30D01D4E08E0636801992846984726
:108920002046FFF7A3FE3C682CB33268A36893424D
:1089300001A903D032689B1A002B1CDA2588E36852
:108940003B602846CDF8048002F0AAF90028E3D065
:10895000784606F0E3FEDFE70C4E3368643333609D
:10896000CFE70A4E33680A333360CAE7074E3368ED
:1089700001333360C5E702B0BDE8F041FFF7B6BE92
:10898000784606F0CBFEBCE7FC340020F83400202B
:10899000F4340020FD34002038B5084C084D18226E
:1089A0000021204619F096FE06480749074AA560AF
:1089B000002303600B60137038BD00BF003500203A
:1089C000E1880200F8340020F4340020FD34002057
:1089D00038B50B4C237873B90A4D1822002128466C
:1089E00019F078FE0849094A0948A86000230B607D
:1089F0001360237038BD03480FF06CFFECE700BF35
:108A0000FD34002000350020F8340020F43400202C
:108A1000E1880200F8B50D461646044600283CD011
:108A2000254F10F049FE3B6805F0030106F03F02B8
:108A30004BB19C42D86802D123E09C420BD018462F
:108A4000DB68002BF9D141EA8201A1706EB9BDE863
:108A5000F84010F071BEA37861F3010362F387035D
:108A6000A370E368C360002EF1D02046FFF7FEFD3F
:108A70003B689C42EBD1FFF739FEBDE8F84010F0AF
:108A80005BBEA378386061F3010362F38703A370D0
:108A9000002EEAD1FFF72AFEEFE77846064F06F0F0
:108AA0003DFE10F009FE3B6805F0030106F03F02B1
:108AB000002BC4D1C7E700BFF434002070B5764C5A
:108AC000B4F860300546002B6AD094F8393005F5CB
:108AD0007A761BB1236B9B1B002B72DB94F85D3005
:108AE000002B61D0626D921B002A1CDB94F83910B8
:108AF000B4F8602000293FD1002B4AD14FF6FF7314
:108B0000A4F86230002A41D0784606F007FEB4F897
:108B1000623003EBC30304EB83031B6B5A1B36D594
:108B2000EA1AE26070BDB4F85030E26C5B49012093
:108B300001F040F8102800F29780594A0123834041
:108B4000134275D148F21112134200F08D8094F84F
:108B50005C30013BDBB284F85C30002B68D0D4E998
:108B600015321344636594F8391094F85D30B4F805
:108B700060200029C0D0EBB1236B616DC91A0029B8
:108B800007DB0021A4F86210002AC7D10022E260AE
:108B900070BD0123A4F86230002AF7D0636DBDE7F1
:108BA000784606F0BBFD90E794F83930B4F86020C1
:108BB000002BA3D00023A4F86230002AE6D0236B58
:108BC000ACE7A38DA26A3749002000F0F3FF10281C
:108BD00046D8334A0123834013420FD148F2111281
:108BE00013423DD094F83830013BDBB284F8383082
:108BF00023B1D4E90C23134423636FE794F839308D
:108C0000002B45D0B4F86030002B3BD0013B002254
:108C10009BB284F83920A4F860301BB94FF6FF737B
:108C2000A4F86230A06A16F08DFB0023A36255E71A
:108C300094F85D3013B3B4F86030CBB1013B00223F
:108C40009BB284F85D20A4F860301BB94FF6FF7327
:108C5000A4F86230E06C16F075FB0023E36482E751
:108C6000784606F05BFDBDE7784606F057FD6EE7F7
:108C7000784606F053FDB4F86030DFE7784606F03A
:108C80004DFDD8E7784606F049FDB4F86030BDE701
:108C9000784606F043FDB5E718350020543500202E
:108CA000A00201003035002010B5064C64220021DE
:108CB000204619F00FFD044AA2604FF6FF73A4F896
:108CC000623010BD18350020BD8A02002DE9F04F3A
:108CD00083B00128BDF8309005460F4616469846E9
:108CE0006ED8002F00F0C580002E00F0C8803B78C1
:108CF0005B076BD0B8F1000F00F0C580B9F1000F31
:108D000000F0B3806C4C05EBC50304EB83034FEA22
:108D1000C50A93F83930002B40F087800FF054FFDC
:108D2000B4F86030019003F1010B96E80F000AEBF4
:108D3000050C04EB8C0C0CF1180A8AE80F00CCF837
:108D40002880ACF82C903B78019AC3F302038CF88E
:108D500038303B78A4F860B04CF2503E4FF001013F
:108D6000DB0803FB0EE38CF839101A44CCF83430DE
:108D700094F83930CCF830208BB194F85D30B4F8E9
:108D80006220002B41D1002A00F09380216B4A48D9
:108D9000A4F8623003B0BDE8F04F0FF0E7BD94F8DF
:108DA0005D30D3B1B4F86230012B7BD00123616D0B
:108DB000A4F86230404803B0BDE8F04F0FF0D6BDD4
:108DC000784606F0ABFC002F8ED152E0784606F0D4
:108DD000A5FCB8F1000F91D155E0B4F862204FF630
:108DE000FF739A4253D0A4F86230784606F096FC9E
:108DF000B4F8623003EBC30304EB8304216B2E4809
:108E000003B0BDE8F04F0FF0B1BD216B636D5B1A8D
:108E1000002BC7DB002A49D027480023A4F8623082
:108E200003B0BDE8F04F0FF0A1BDB4F86030002BE7
:108E300032D00AEB0502013B04EB82029BB2002117
:108E4000A4F8603082F839101BB94FF6FF73A4F80C
:108E500062300AEB050B04EB8B0BDBF8280016F0F5
:108E600071FA0023CBF8283058E7784606F056FC14
:108E700048E7784606F052FC002E7FF438AF78467B
:108E800006F04CFC33E7784606F048FC36E795429E
:108E9000ABD003B0BDE8F08F784606F03FFCB4F8E5
:108EA0006030C6E7012DF4D1616D83E7002DF0D16C
:108EB00080E7002DEDD1A1E718350020C0F30F4069
:108EC000A0F5405080B2012882B014D80B4B1B781B
:108ED0005B0702D5002002B07047094A0B6812F800
:108EE000301002EBC00CDB4321F0060102F8301019
:108EF000CCF80430EEE7052002B07047CC350020F6
:108F0000DC350020000CB0F5804F82B005D1044B59
:108F10000A781A70002002B07047052002B070472E
:108F2000182E002010B5000C012882B00C4602D08B
:108F3000784606F0F3FB034B23600222A28002B0C6
:108F400010BD00BF0200010010B5000C012882B066
:108F50000C4602D0784606F0E1FB6388012B0DD168
:108F6000A388022B0AD12388022B07D1054A137844
:108F7000002043F00103137002B010BD0B2002B0BB
:108F800010BD00BFCC35002030B5C0F30F44A4F5B0
:108F90004054A4B2012C83B00D4602D9784606F0A5
:108FA000BDFB044B03EBC4035B68DB432B6003B0E6
:108FB00030BD00BFDC35002010B5000CB0F5804F8F
:108FC00082B00C4602D0784606F0A8FB024B1B7814
:108FD000237002B010BD00BF182E002030B5040C65
:108FE000B4F5805F83B00D4602D0784606F096FB5C
:108FF000A4F580540649A4B204EB4404022201EB18
:109000004401284603B0BDE8304019F0BFBB00BFA3
:10901000EC35002030B5C0F30F44A4F50054A4B2E1
:10902000012C83B00D4602D9784606F077FB06493D
:10903000C4EBC404142201EBC401284603B0BDE80C
:10904000304019F0A3BB00BFF4350020C0F30F433C
:10905000A3F500539BB2012B23D81B48007842078D
:1090600021D430B519488D89C3EBC30C00EBCC0477
:1090700083B0B4F80CE075454FEACC0C0ED130F853
:109080000C50B1F800C0AC4508D1B1F802C06588F9
:10909000AC4503D1CD89E289954206D00B2003B0BF
:1090A00030BD05207047002070475B4203F0380355
:1090B0001844142219F06AFB94F8343023F00603A4
:1090C00084F834300020EAE7CC350020F435002065
:1090D0002DE9F04FD7B00446DFF84482BDF880B1E7
:1090E00009A80F461E46154602F040FFC4EBC40314
:1090F00008EBC303BDF82610B3F80C90494540F2C5
:10910000D480BDF824100591E200002D00F0AA8063
:1091100005F10C0393E8030095F81CA00AAB83E863
:1091200003000693EB8B0493AD8CBAF1000F40F073
:10913000A980002E00F0BE80BBF1000F00F0B180CE
:109140000CAC24220021204619F0C4FA28460499C8
:1091500012AA05F07FF8054618B1284657B0BDE8B9
:10916000F08F059B8DF83AA09944069BADF8389096
:1091700093E80300BB7AE372FB7A237384E803006D
:10918000FB68109629462046ADF844B023620EF0E5
:10919000F3FF05460028E0D1594C23689A04DCD53A
:1091A000DFF88081D8F80030042BD6DD55482F2118
:1091B00019F098FA002800F092802F21514819F0F8
:1091C00091FA411C504B3A88D3F8043501924F4A2A
:1091D0000092052040F2A91211F08EFC23689B0436
:1091E000BBD5D8F80030042BB7DD5F46802F28BFF1
:1091F0008027BBF1000F7FD0454B15ACD3F800C0E2
:10920000701E2146034610F8012F4FEA121E02314C
:109210001CF80EE001F802EC023302F00F029B1B77
:109220001CF8022001F8012C9F42EBD8002335489E
:1092300004F817302F2119F055FA002844D02F21B7
:10924000304819F04FFA411C324A2F4BD3F80435FD
:10925000CDE90124304A009205204FF4D57211F077
:109260004BFC7AE707920AAAD8889B880692114697
:109270001546049303F0B6FB20BB6B88ABB1079A8D
:109280004FF6FF75121B08EBC20898F811A0BAF14F
:10929000FF0F04BF214B93F800A0002E7FF44CAFCA
:1092A00008E0784606F03AFA4AE71025284657B013
:1092B000BDE8F08F784606F031FABBF1000F7FF47D
:1092C0003FAFEEE7052548E70E485C2119F00AFAA2
:1092D00080B15C210B4819F005FA411CB4E709483C
:1092E0005C2119F0FFF948B15C21064819F0FAF940
:1092F000411C67E70349A7E715AC97E7014961E718
:10930000402E0020A42A040000100140FC2A040082
:10931000442E0020102B0400182B0400182E0020CF
:10932000F43500203C2E0020000CB0F5805F82B0A8
:109330000FD10B4B1B785B0708D40A4B09881A889E
:10934000914209D15A7922F006025A71002002B0E6
:109350007047052002B070470B2002B0704700BF75
:10936000CC350020EC350020012870B5354D044681
:109370000DD9C600784606F0D1F900221146361BF9
:1093800005EBC6001430BDE87040FFF743BBC0EBEF
:10939000C00305EBC303C60093F8341011F00101BC
:1093A000E8D09A69002AE5D09A7C9B8C02F00300F1
:1093B00002284FEA92022DD0032815D001283DD172
:1093C00002EB82004000B0FBF3F33F2B06D89AB3C8
:1093D000012B38BF0123DAB20021D0E71A4AA2FBE1
:1093E0000323C3F3C702CAE741F2707C0CFB02FC03
:1093F000BCFBF3F33F2BEAD940F276229342EDD93E
:1094000041F69C02934210D9104AA2FB0323014665
:10941000DA09B4E7642002FB00F0B0FBF3F33F2B62
:10942000D5D940F276229342D8D9094AA2FB032328
:10943000C3F347120221A2E71146A0E7B2FBF3F300
:10944000C5E700BFF4350020CDCCCCCCF1197605B2
:109450001F85EB512DE9F04FA14F3B7843F00403FA
:109460001A463B7013F0020385B065D1D007DFF8D0
:1094700084B22FD55D469946AA8998464FF6FF7368
:109480009A420AD13835B9F1000F22D1AA894FF694
:10949000FF739A424FF00109F4D0E888984203D054
:1094A00002F044FE002847D1EA89022A07D0D600FC
:1094B00004368C4A94591644002C40F0B180C9EB14
:1094C000C9020BEBC202383582F81280B9F1000FE5
:1094D000DCD03A78834C2378590760D49E0700F19A
:1094E000C18023F006032370237A590765D49807B7
:1094F00000F1878023F0060323727B4C63799E077B
:109500001ED49BF8341023F00203880763712AD419
:109510009BF86C3021F002019E078BF8341030D498
:1095200023F00203D4078BF86C3048BF002040F1D1
:10953000A98005B0BDE8F08F0B2005B0BDE8F08F25
:1095400055074CD569480290214614F0EFFD0028DC
:1095500040F0B78063799BF834103A7823F0020327
:1095600088076371D4D5530740D56148614902909B
:1095700014F0DCFD002840F0A8803A789BF8341005
:10958000C6E755073AD55C485C49029014F0CEFD19
:10959000002840F09E803A789BF86C30C0E7500776
:1095A0007DD55748029014F08FFE23783A7823F047
:1095B00006032370237A590799D5560706D55148D3
:1095C000029014F081FE237A3A7893E743F0040383
:1095D00023F006032372444C6379980791D59BF8D6
:1095E000341023F0020363718C0791D59BF86C3023
:1095F00021F002019F078BF8341091D543F002034C
:109600008EE7510756D5E3683E480290DB4301A937
:10961000019314F08BFD00284FD1237A3A7869E743
:1096200094FAA4F4B4FA84F4182C3FF448AF4FF041
:10963000010A204603F060F900287FF47DAF601C2A
:109640000AFA00F21728C2F100023FF638AF31687B
:109650000A403FF434AF92FAA2F4B4FA84F4182C1E
:10966000E7D12CE7550738D5636825480290DB43DE
:1096700001A9019314F05AFD002896D0784606F00F
:109680004DF892E72048022302A9CDE90100ADF888
:109690000C3014F04BFD002838D1052049E743F089
:1096A000040323F006032370237A59078ED49D0701
:1096B0007FF520AF43F002038AE7784606F02EF8E4
:1096C000ABE7784606F02AF844E7784606F026F835
:1096D00053E7784606F022F85DE743F00203E0E73F
:1096E000CC350020DC350020EC35002002000010D5
:1096F00002000020F4350020020001202C3600205A
:10970000020000300200013002000100784606F03D
:1097100005F8C2E72DE9F04F00F1140591B00446B9
:1097200000232846099305F035FE002800F08180CB
:109730004FF6FF73ADF83A30237D012B824600F0DF
:10974000A580E28A4FF6FB739A4200F2C1800DF1C8
:109750003A01284603F080F9002840F09380002366
:109760000A930023CDF82CA09A460A9B644DDFF89B
:10977000A891002B57D0B5F80480099BA8EB0308EB
:10978000B8FA88F84FEA5818E38B95F82C70A98C32
:10979000B4F800C0B4F802E05A09012655F82220B6
:1097A00003F01F039E4007F001071640002979D0FF
:1097B000286A002300F1020B02E001338B4271D0D2
:1097C00030F833206245F8D13BF833207245F4D1AC
:1097D000DDF82CB00D930122D9F800309B0403D59D
:1097E000484B1B68062B27DCA7B1B8F1000F11D03E
:1097F00086B1BBF1000F0DD0237D012B1FFA8AF635
:1098000068D00D9A2B6A03EBC20330465B68AA6AE4
:10981000214698473835BAF1000F0AD10A9B4FF01C
:10982000010A002BA7D1EB88012B3ED9DDF8288057
:10983000AAE711B0BDE8F08F33480C922F2118F041
:1098400051FF0C9A00284BD02F212F4818F04AFFC7
:109850000C9A411C2D4BD3F804350692CDE90378C0
:1098600035F8062C029235F8082C0192284A00920D
:10987000321E18BF0122059207204FF4866211F0B4
:109880003BF9B1E7784605F049FF68E70FA802F019
:109890006DFBE38ABDF83C20CDF828A09B1A9BB253
:1098A00009935EE70022934696E7BDF83A201949EE
:1098B0005009DB0003EB800302F01F02C9580123AB
:1098C00093400B4214BF4FF001084FF000085BE7D4
:1098D0000A9046E7AA6A2146304601F00FFC90E75D
:1098E00009480C925C2118F0FDFE0C9A30B15C2105
:1098F000054818F0F7FE0C9A411CABE70249A9E7AE
:10990000FC3500203C2E0020A42A04000010014059
:10991000202B0400E0350020402E00202DE9F047E8
:1099200003681E7806F0C002802AD0B0044600F01A
:109930008C8006D87F2EB14640F0F08050B0BDE854
:10994000F087C02A40F0C480DFF83C82B3F801A061
:10995000D8F800309904B14600F18380E06903F043
:1099600021FB0746A06903F07BFA4FF6FF72924590
:1099700005AD2668A5F800900346A5F802A000F002
:109980008C8003221146AB84A388EF835B1A217A73
:1099900029736189E981E1682961217C2975618ADE
:1099A000E98216446169D8F80020A96194F8201072
:1099B00029779BB2616A6E6092042B8129623ED541
:1099C0006A4A1268042A3ADD802B9C4628BF4FF071
:1099D000800C002B00F0C580654B0FAC1F68701E1B
:1099E0002146034610F8012F4FEA121E023117F8E4
:1099F0000EE001F802EC023302F00F029B1BBA5C8E
:109A000001F8012C9C45ECD800235A4804F81C307E
:109A10002F2118F067FE002873D02F21554818F029
:109A200061FE411C544A554BD3F80435CDE901245D
:109A3000534A009205204FF48A7211F05DF82846CF
:109A4000FFF768FE50B0BDE8F087DFF83C811E8864
:109A5000D8F8003076BA98041FFA86F923D54FF665
:109A6000FF7A424B1B68042B7FF778AF41482F21C8
:109A700018F038FE002869D02F213E4818F032FE39
:109A8000411C3E4B3F4AD3F804350092CDF8049078
:109A9000FD22052011F030F860E7B9F1FF0F14D86E
:109AA000012211466FE7E06903F07CFA0746A069DE
:109AB00003F0D6F94FF6FF72ADF81620022205AD7D
:109AC00003462E80114626685DE7022211465AE7BA
:109AD000DFF8B480D8F8003013F4005603D04FF00C
:109AE000000AD146BDE7E06903F05CFA0746A069C9
:109AF00003F0B6F9032205AD03462E601146266831
:109B000041E71C485C2118F0EDFD28B15C211948A3
:109B100018F0E8FD411C85E7164983E7DFF8688007
:109B2000D8F800309B049AD4E06903F03BFA07466A
:109B3000A06903F095F94FF6FF72ADF816200122E7
:109B400005AD03462E80114626681CE709485C21B6
:109B500018F0C8FD38B15C21064818F0C3FD411C5F
:109B60008FE70FAC50E703498BE700BF3C2E002086
:109B7000442E0020A42A04008C2B04000010014075
:109B8000182B0400782B0400402E002003785BB1D2
:109B9000142B08D1C388022B04D1054A137843F053
:109BA00002031370704770470430FFF7B7BE00BF61
:109BB000CC35002099B192B130B51C4683B05BB171
:109BC0000B89B3F5BE7F02D3092003B030BD012855
:109BD00007D9052003B030BD0E2003B030BD0E20E4
:109BE0007047184BC0EBC00503EBC50393F8345026
:109BF000ED07EED59D89002DEBD1B3F804C04FF6EB
:109C0000FF75AC4519D0DB88AB4216D0B1F802C065
:109C10000B88AC450DD1FF2B11D903F44043B3F5AC
:109C2000004F0AD1134600940022FFF751FA03B007
:109C300030BD23F03F03C02BF4D00720C5E77E2BB7
:109C4000FBD8EFE7F435002010B5164C01F0A2FA6E
:109C5000FEF7BEFE70220021204618F03BFD0622D2
:109C60000021114818F036FD102200210F4818F08D
:109C700031FD0F4A0F4BE360636413780E484FF0D9
:109C8000FF3123F003036160E163137004210123BA
:109C90000170A384A4F85C30BDE81040022014F0E9
:109CA00077BB00BFF4350020EC350020DC35002008
:109CB000CC350020FFFF0200182E002010B5174CF5
:109CC00070220021204618F005FD062200211448CC
:109CD00018F000FD10220021124818F0FBFC124879
:109CE000124B1349E3604FF0FF326364114B036082
:109CF00062600123E26304220A70A384A4F85C304A
:109D00000EF03CFA01F032FAFEF746FEFEF7CCFF09
:109D1000094A137823F00703137010BDF4350020AF
:109D2000EC350020DC350020D0350020FFFF02009C
:109D3000182E00208D9B0200CC350020002800F05A
:109D4000B4802DE9F0410D4682B0002900F0A580D5
:109D5000C36804461BB18368002B00F09E804FF659
:109D6000FF732B80E36813B9A368002B70D1A78819
:109D7000002F5DD105F0A0FB002840F09280A28862
:109D8000DFF830E2B4F800C0608802EB42030EEB6B
:109D900043039978DB78D9425ED1D4E9020CBCF157
:109DA000000F1AD0002300F102084FF6FF7638F8B2
:109DB000332030F83310B24221F03F0242D1FF2964
:109DC00001F4404238D9A2F50042B2FA82F25209B7
:109DD000002A33D001339C45E9D12B88734E4FF6CE
:109DE000FF72934263D0C3EBC30306EBC303226944
:109DF0001A632B88A268C3EBC30306EBC3030020DE
:109E00009A622B88E268C3EBC30306EBC3039A850F
:109E10002B886269C3EBC30306EBC3039A612A88EC
:109E2000C2EBC20306EBC3039A8202B0BDE8F08125
:109E3000052002B0BDE8F0817E29CBD9072002B011
:109E4000BDE8F081A2F1C002B2FA82F25209BFE786
:109E5000092002B0BDE8F081544EB389934200F06E
:109E60008680B6F84430934297D1738F834294D161
:109E7000338F634508BF01238FD12B80C3EBC3030E
:109E800006EBC30393F83430D9070AD4D4E9020CA3
:109E9000BCF1000F86D12B88A5E70E2002B0BDE8EB
:109EA000F0810F2002B0BDE8F0810E20704796F8D7
:109EB000343013F0010307D096F86C30DA0748BF4E
:109EC0000420B6D401273B46C3EBC30306EBC30310
:109ED0004FF6FF722F80DA802B88C3EBC30306EBAB
:109EE000C3039A802B88A188C3EBC30306EBC3038B
:109EF00099812B886188C3EBC30306EBC3035980A8
:109F00002B882188C3EBC30326F833102B88C3EBBF
:109F1000C30306EBC3035A742188A388914203EB61
:109F200043030EEB43031ED0DA780132DA702B883C
:109F3000C3EBC30306EBC30393F8342042F00102E2
:109F400083F834201A4B29881B785B0719D4C1EB9E
:109F5000C10106EBC10191F8343043F0020381F8EE
:109F600034302B883FE79A7801329A70DFE77388A4
:109F700083427FF476AF338863457FF472AF3B460C
:109F80007BE70223ADF8043001F50053ADF806304D
:109F9000C1EBC101019806EBC10114F0C7F800281C
:109FA0003FF479AF784605F0B9FB74E7F43500204B
:109FB000CC350020EC3500202DE9F04782B089B186
:109FC0000B89B3F5BE7F0C4607D2012805460ED992
:109FD0000527384602B0BDE8F0870927384602B0A9
:109FE000BDE8F0870E27384602B0BDE8F087DFF8FD
:109FF000F890C0EBC00209EBC2024FEAC00A92F827
:10A000003410C907E4D591890029E1D190884FF631
:10A01000FF71884249D0D2888A4246D0608822881F
:10A02000884254D1FF2A59D902F44042B2F5004F78
:10A030003BD10227B84698441FFA88F8404615F0ED
:10A040007FF90646002840D0638822884FF6FF71CA
:10A050008B42D0B232D073701B0A3070B370228939
:10A060006168F01918F092FBCDF8008033460022A9
:10A0700021462846FFF72CF80746C0B9AAEB05038E
:10A0800009EBC303DB7C5B0711D0694201F03801A7
:10A0900013312846CDF80080334622464944FEF766
:10A0A00015FE384602B0BDE8F087072791E7304635
:10A0B00015F048F9384602B0BDE8F087FF2A83BFA3
:10A0C000120A707032703070C9E7042781E722F0FD
:10A0D0003F02C02AE9D10327B846ACE77E2AE4D87C
:10A0E0000127B846A7E700BFF43500202DE9F0436B
:10A0F00083B091B1144682B11389B3F5BE7F07D204
:10A10000012880460ED90524204603B0BDE8F0831F
:10A110000924204603B0BDE8F0830E24204603B096
:10A12000BDE8F0832E4A0D46C0EBC00102EBC10230
:10A1300092F83410C907E6D59289002AE3D16088E5
:10A1400022884FF6FF7188422DD022F03F02C02AAC
:10A150003DD14FF003094E461E44B6B2304615F0CD
:10A16000EFF8074688B3638822884FF6FF70834272
:10A17000D1B223D07B701B0A3970BB702289616811
:10A1800007EB090018F002FB21463B462A460096E1
:10A190004046FEF79DFF0446384615F0D3F82046AA
:10A1A00003B0BDE8F083FF2A13D902F44042B2F5B0
:10A1B000004F0CD14FF002094E46CDE7FF2A83BF76
:10A1C000120A79703A703970D8E704249CE70724A2
:10A1D0009AE77E2AFBD84FF001094E46BCE700BF44
:10A1E000F4350020012801D90520704710B51C4C1A
:10A1F000C0EBC00304EBC30382B093F8342012F029
:10A20000010F02D1052002B010BD172924D8B3F8E0
:10A2100006C08C4502D1002002B010BDD980114982
:10A220000978490704D442F0020283F83420F2E7A7
:10A2300000F500530222404200F03801ADF804203E
:10A24000ADF806300198214413F070FF0028E2D0E9
:10A25000784605F063FADEE7072002B010BD00BFC4
:10A26000F4350020CC35002081B1012801D905202A
:10A270007047074BC0EBC00003EBC00393F83420DA
:10A28000D207F4D5DB880B80002070470E20704782
:10A29000F4350020012829D830B5214CC0EBC0038B
:10A2A00004EBC30383B093F834C01CF0010F4FEAF2
:10A2B000C00231D093F813E001F007030EF0070558
:10A2C0009D4204D1C1F3C403B3EBDE0F0BD0154B99
:10A2D000121A1B7804EBC2025B07D17408D44CF04D
:10A2E000020C82F834C0002003B030BD0520704756
:10A2F00000F500530222404200F03801ADF804207E
:10A30000ADF806300198214413F010FF0028EAD080
:10A31000784605F003FAE6E7052003B030BD00BF3C
:10A32000F4350020CC35002081B101280CD8084B31
:10A33000C0EBC00003EBC00393F83420D20703D571
:10A34000DB7C0B7000207047052070470E207047A3
:10A35000F4350020012811D808B50C4AC0EBC00321
:10A3600002EBC30393F83420D2070DD59A693AB1B2
:10A3700041B19984FEF7F8FF002008BD0520704721
:10A38000062008BD072008BD052008BDF4350020C3
:10A39000012834D870B50446284DC4EBC40305EB3E
:10A3A000C30382B093F83460F6074FEAC00041D58A
:10A3B0009E69002E39D03F2A39D8032937D89B7C93
:10A3C000B2EB930F03D103F003038B4214D0001BB5
:10A3D00005EBC00601F0030141EA82022046B27497
:10A3E000FEF7C2FF164B1B785B070AD496F8343091
:10A3F00043F0020386F83430002002B070BD05201F
:10A40000704704F5005302226442ADF80420ADF811
:10A41000063004F038040198291913F087FE00284B
:10A42000EAD0784605F07AF9E6E70620E5E7072066
:10A4300002B070BD052002B070BD00BFF435002031
:10A44000CC350020D9B1D2B1012801D905207047FF
:10A450000D4BC0EBC00003EBC00393F83400C00702
:10A46000F4D5986968B193F812C0CCF3010C81F867
:10A4700000C09B7CC3F385030020137070470E203F
:10A4800070470620704700BFF4350020F0B583B058
:10A49000044605F011F8002856D1012C02D90520F8
:10A4A00003B0F0BD364DC4EBC40305EBC303E600B7
:10A4B00093F83420D207F2D5DB89022B01D000209B
:10A4C000EEE7304A137813F0010140D0137ADF072A
:10A4D00048BF0420E4D4012143F2010C08460F4692
:10A4E00023F0040343F0010302F83730331B05EB7C
:10A4F000C303254FD8813B7858072DD502EBC10205
:10A50000ADF806C05368DB4300930223ADF8043076
:10A510000198694613F00AFE70BB3B785B0721D5B2
:10A52000022204F500536142ADF80420ADF8063074
:10A5300001F038010198294413F0F8FD0028BED03D
:10A54000784605F0EBF8BAE70F2003B0F0BD4FF402
:10A55000405C08460F46C3E712F8313043F002036F
:10A5600002F83130331B05EBC30393F8342042F07B
:10A57000020283F83420A2E7784605F0CFF8CCE752
:10A58000F4350020DC350020CC350020012801D92D
:10A59000052070471F4BC0EBC00003EBC00393F8CE
:10A5A0003420D207F4D5DA89022A2AD0172926D8EE
:10A5B00030B5D300184D04330120EC5800FA01F1F6
:10A5C0000C4283B002D0002003B030BD0C431349CD
:10A5D000EC500B785B0716D5022302F54052ADF81C
:10A5E0000430ADF80620E44301980094694613F066
:10A5F0009DFD0028E7D0784605F090F8E3E70720B6
:10A6000070470620704715F8323043F0020305F812
:10A610003230D8E7F4350020DC350020CC3500207E
:10A62000012801D905207047204BC0EBC00003EB87
:10A63000C00393F83420D207F4D5DA89022A2BD04C
:10A64000172927D830B5D300194D04330120EC5811
:10A6500000FA01F10C4283B002D1002003B030BDFA
:10A6600024EA01041349EC500B785B0716D502234A
:10A6700002F54052ADF80430ADF80620E4430198ED
:10A680000094694613F052FD0028E6D0784605F0A4
:10A6900045F8E2E7072070470620704715F832308A
:10A6A00043F0020305F83230D7E700BFF43500204D
:10A6B000DC350020CC35002089B382B3012801D9D4
:10A6C0000520704770B51A4BC0EBC00003EBC00EFD
:10A6D0009EF83430DB0724D5BEF80E30022B24D090
:10A6E0000023144D168813800124BEF80E000128A3
:10A6F00004FA03FC01D9002070BD55F830001CEAB3
:10A70000000F03D10133182BEFD1F4E710888642F4
:10A7100009D921F81030108801301080F2E70E209E
:10A720007047052070BD092070BD062070BD00BFB8
:10A73000F4350020E0350020012801D905207047BC
:10A7400030B51F4DC0EBC00E05EBCE0E83B09EF8AA
:10A750003430DA0702D4052003B030BD08292BD8E5
:10A76000424202F0380202F1080C012355F80C4075
:10A770008B401C4201D00020EEE71C43114B45F8F2
:10A780000C401B785B0706D49EF8343043F002037C
:10A790008EF83430EFE700F500500223ADF80430B6
:10A7A000ADF806000198A91813F0C0FC0028E2D00B
:10A7B000784604F0B3FFDEE7072003B030BD00BFEA
:10A7C000F4350020CC350020012801D90520704740
:10A7D00030B51F4DC0EBC00E05EBCE0E83B09EF81A
:10A7E0003430DA0702D4052003B030BD08292CD854
:10A7F000424202F0380202F1080C012355F80C40E5
:10A800008B401C4201D10020EEE724EA0304114BE7
:10A8100045F80C401B785B0706D49EF8343043F0B3
:10A8200002038EF83430EEE700F500500223ADF855
:10A830000430ADF806000198A91813F077FC002841
:10A84000E1D0784604F06AFFDDE7072003B030BDB1
:10A85000F4350020CC350020002900F09980002A32
:10A8600000F09680012801D90520704730B54B4C87
:10A87000C0EBC00304EBC30393F83430DB0740F1B3
:10A880008980434203F0380308334FF0000C1088EE
:10A89000A2F800C0E558ED0707D500287CD0A1F844
:10A8A00000C04FF0010CA2F800C0E558AD070CD570
:10A8B000B2F800C060456FD94FF0010E21F81CE0DE
:10A8C000B2F800C0F444A2F800C0E5586D070DD5F9
:10A8D000B2F800C060455FD94FF0020E21F81CE0CD
:10A8E000B2F800C00CF1010CA2F800C0E5582D0729
:10A8F0000DD5B2F800C060454ED94FF0030E21F8D7
:10A900001CE0B2F800C00CF1010CA2F800C0E55840
:10A91000ED060DD5B2F800C060453DD94FF0040EEC
:10A9200021F81CE0B2F800C00CF1010CA2F800C044
:10A93000E558AD060DD5B2F800C060452CD94FF0F2
:10A94000050E21F81CE0B2F800C00CF1010CA2F8D1
:10A9500000C0E5586D060DD5B2F800C060451BD9A2
:10A960004FF0060E21F81CE0B2F800C00CF1010C0B
:10A97000A2F800C0E3581B0608D5138898420BD9EB
:10A98000072021F81300138801331380002030BD05
:10A990000E207047052030BD092030BDF435002061
:10A9A000012801D90520704710B51C4CC0EBC0032D
:10A9B00004EBC30382B093F8342012F0010F02D1EC
:10A9C000052002B010BD082924D8B3F804C08C4576
:10A9D00002D1002002B010BD9980114909784907C1
:10A9E00004D442F0020283F83420F2E700F5005369
:10A9F0000222404200F03801ADF80420ADF80630E4
:10AA00000198214413F092FB0028E2D0784604F02C
:10AA100085FEDEE7072002B010BD00BFF435002040
:10AA2000CC35002081B1012801D905207047074BA2
:10AA3000C0EBC00003EBC00393F83420D207F4D579
:10AA40009B880B80002070470E207047F435002053
:10AA500000B585B003068DF8070009D4012807D09A
:10AA60000DF10701044813F061FB05B05DF804FB2C
:10AA7000072005B05DF804FB02000040014B187888
:10AA8000704700BF182E002081B1012801D9052090
:10AA90007047074BC0EBC00003EBC00393F83420B2
:10AAA000D207F4D51B7C0B70002070470E20704736
:10AAB000F4350020012801D90520704710B51C4C41
:10AAC000C0EBC00304EBC30382B093F834C01CF0A6
:10AAD000010F02D1052002B010BD81F080027E2A54
:10AAE00023D95A7C8A4202D1002002B010BD114AFB
:10AAF00059741278520704D44CF0020C83F834C015
:10AB0000F2E700F500530222404200F03801ADF8B0
:10AB10000420ADF806300198214413F007FB00280B
:10AB2000E2D0784604F0FAFDDEE7072002B010BD5F
:10AB3000F4350020CC35002081B1012801D9052051
:10AB40007047074BC0EBC00003EBC00393F8342001
:10AB5000D207F4D55B7C0B70002070470E20704745
:10AB6000F435002031B118B9034B1B880B807047B6
:10AB7000052070470E207047EC35002031B118B920
:10AB8000034B9B780B707047052070470E20704771
:10AB9000EC35002031B118B9034BDB780B707047EE
:10ABA000052070470E207047EC350020A1B1012828
:10ABB00001D905207047094BC0EBC00003EBC00270
:10ABC000C00092F834C01CF0010FF2D052884A80C5
:10ABD0001B5A0B80002070470E207047F435002070
:10ABE0005AB340BB10B416484FF6FF7414808489E2
:10ABF0008BB283B0090C1CB9B0F802C08C4511D0DF
:10AC0000B0F8444024B1052003B05DF8044B704710
:10AC1000448F8C42F7D1018F9942F4D101241480E2
:10AC20000020F1E7B0F800C09C45F8D0B0F84440EF
:10AC3000002CE8D1ECE7052070470E20704700BFDC
:10AC4000F435002021B31AB330BB30B4148810801F
:10AC500004B3124B93F834C01CF0010F06D09D8949
:10AC600025B9088001208442108013D093F86C40ED
:10AC7000E40702D4002030BC7047B3F84430002B06
:10AC8000F8D1012321F81030138801331380F1E744
:10AC90000E2070470920EEE705207047F4350020AC
:10ACA00081B1012801D905207047074BC0EBC000D6
:10ACB00003EBC00393F83420D207F4D51B6B0B6071
:10ACC000002070470E207047F4350020012801D97C
:10ACD00005207047F0B5224FC0EBC00507EBC50556
:10ACE00083B095F83430DA07044602D4052003B067
:10ACF000F0BD464206F03806002206F11400114667
:10AD00003844FDF787FE204600F098FAE88801F005
:10AD10007DFB144B391D1A784FF0FF30002388510A
:10AD20006B746B82AB75530708D495F8343043F0DD
:10AD3000020385F83430002003B0F0BD022304F58F
:10AD40000054ADF80430ADF806400198B91913F07D
:10AD5000EDF90028EFD0784604F0E0FCEBE700BF07
:10AD6000F4350020CC350020082812D838B50E4D17
:10AD700095F83430DA07044602D5AB8883420AD00E
:10AD800095F86C30DB0702D5AB8FA34207D00020CB
:10AD900038BD072070470020FFF798FFF0E701203B
:10ADA000FFF794FFF3E700BFF435002038B52E4CD1
:10ADB0002C2303FB0043054693F84030002B3CD086
:10ADC000B4F870309BB32C2202FB0542013B0021FA
:10ADD0009BB282F84010A4F870301BB3B4F8723004
:10ADE000AB4200D038BD906B204B94F8401094F8E3
:10ADF0006C20034429BB1AB1616ECB1A002B2EDBE9
:10AE00004FF6FF73A4F87230784604F087FCB4F86C
:10AE100072302C2202FB0343996B1348BDE8384083
:10AE20000DF0A4BDBDE838400F480DF053BD784685
:10AE300004F074FCB4F87030C5E7784604F06EFC9A
:10AE4000BEE7A06BC11A0029D5DA22B90023A4F805
:10AE500072300146E1E7616E0B1A002BF6DA01232E
:10AE6000A4F87230D9E700BF64360020008793034E
:10AE70002DE9F041984CB4F8703084B00546002BB1
:10AE80004ED04FF6FF73954FA4F8723094F84030CF
:10AE900001223A7005F57A765BB1236B9B1B002B80
:10AEA00042DBA36B9B1B002B4FF00003A4F8723016
:10AEB00066DB94F86C30ABB1E36D9B1B002B48DB79
:10AEC000636E9E1B002EC0F29A80B4F872204FF67B
:10AED000FF718A4220D02C2101FB0242926B9B1A07
:10AEE000002B19DBB4F8703053B1B4F87230012B79
:10AEF0000CD82C2202FB03439A6B531B48BFAB1A9E
:10AF00000022E3603A7004B0BDE8F081784604F0B6
:10AF100005FCB4F87230ECE70123A4F87230E1E7E5
:10AF2000784604F0FBFBACE7002384F84030B4F82B
:10AF30007030208B013B03A9A4F87030FFF7B0FEFE
:10AF4000002840F09B80636B0399208B0122984777
:10AF5000AFE7B4F87030B4F844000022013B03A915
:10AF600084F86C20A4F87030FFF79AFE002840F0B7
:10AF70008980236E0399B4F8440001229847B1E711
:10AF80005749208BFFF718F8804650B3554B1B6884
:10AF90009A0419D5544B1B68042B15DD53482F21F7
:10AFA00017F0A0FB002871D02F21504817F09AFB12
:10AFB000411C4F4B4F4AD3F804350092CDF8048022
:10AFC000832205200FF098FDB8F1080F09D0B8F1E1
:10AFD000040F7BD0B8F10F0F78D0784604F09EFBB9
:10AFE00005E0D4E90E231A445B00A263E363226BFD
:10AFF000A36BD31A002BBFF65CAFA26359E7012302
:10B000003D49B4F84400A4F87230FEF7D5FF064677
:10B0100030B3344B1B689B0418D5334B1B68042B8F
:10B0200014DD32482F2117F05DFB002839D02F2185
:10B030002E4817F057FB411C2D4B2E4AD3F80435F0
:10B0400000920196832205200FF056FD082E07D0AE
:10B05000042E31D00F2E2FD0784604F05FFB05E090
:10B06000D4E919231A445B00C4E91923E26D636E25
:10B07000D31A002BBFF636AF626633E7784604F08A
:10B080004DFB60E7784604F049FB72E717485C2106
:10B0900017F028FBF0B15C21144817F023FB411C8A
:10B0A00087E712485C2117F01DFB88B15C210F482F
:10B0B00017F018FB411CBFE701232C2202FB0343BE
:10B0C0009A6B02F56A4260329A630BE70023F4E759
:10B0D0000649B1E705496CE764360020D836002000
:10B0E00080360020402E00203C2E0020942B0400AF
:10B0F00000100140F42B0400AC3600200128F8B504
:10B1000004460E46154602D9784604F007FB164F52
:10B110000EF0D2FA97F8400010B13A8BA2420AD052
:10B1200097F86C201AB1B7F84420A24218D0BDE8B5
:10B13000F8400EF001BB002002462C2101FB0277F3
:10B140003288B98D9142F2D17288F98D9142EED157
:10B15000FFF72CFE7B6B0022294620469847E6E746
:10B1600001200246E9E700BF6436002010B5064C16
:10B1700074220021204617F0ADFA044B0449A16067
:10B1800000221A7010BD00BF64360020D83600209F
:10B1900071AE020070B5264C82B00EF08DFAB4F894
:10B1A0007030002B35D194F84030EBB994F86C3006
:10B1B00023B902B0BDE870400EF0BEBAB4F84450F6
:10B1C0001C48246E00212C2217F084FA01A928467D
:10B1D000FFF766FD40BB019902222846A04702B056
:10B1E000BDE870400EF0A8BA258B1348666B0021AD
:10B1F0002C2217F06FFA01A92846FFF751FD78B904
:10B20000019902222846B04794F86C30002BD0D028
:10B21000D4E700232046A4F870300DF05BFBC2E7B2
:10B22000784604F07BFAEBE7784604F077FAD2E749
:10B2300064360020A83600207C36002070B5012836
:10B2400082B003D90524204602B070BD184D0446D3
:10B250000EF032FA95F8403013B12B8BA3420FD089
:10B2600095F86C302BB905240EF066FA204602B032
:10B2700070BDB5F84430A342F5D10120064601E087
:10B2800000200646FFF792FD01A92046FFF708FDC2
:10B2900048B92C2303FB0655204601996B6B02220B
:10B2A00098470024E0E7784604F038FAF1E700BF59
:10B2B00064360020C0F30F40A0F5805080B20F2804
:10B2C00016D810B40B4C01232268834012EA030CF9
:10B2D00083B008D11A43084B098822609A1C23F8CE
:10B2E000201022F820C0002003B05DF8044B704706
:10B2F0000520704770370020A43B002010B5000CDB
:10B30000012882B00C4602D0784604F007FA044ABD
:10B31000044B226008212181636002B010BD00BF90
:10B32000040008000100100010B5000C012882B0D4
:10B330000C4602D0784604F0F1F92388042B13D18F
:10B34000A388012B10D16388082B0DD12389082BEA
:10B350000AD1E388102B07D1054A1378002043F067
:10B360000103137002B010BD0B2002B010BD00BF6E
:10B370005C37002030B5C0F30F44A4F58054A4B26C
:10B380000F2C83B00D460FD80B4B620904F01F0140
:10B3900053F8222001238B40134209D0074B33F886
:10B3A00024302B8003B030BD784604F0B7F9EBE7CA
:10B3B000784604F0B3F9F1E770370020A43B002091
:10B3C00010B5000C022882B00C4602D0784604F07A
:10B3D000A5F9084B1B68DB0707D50749042220465F
:10B3E00002B0BDE8104017F0D1B9784604F096F9E4
:10B3F000F3E700BF74370020A03B002030B5C0F356
:10B400000F44A4F50054A4B2072C83B00D4615D800
:10B410000E4B620904F01F0153F8222001238B40D8
:10B4200013420FD00A4904EB8404102201EB84017B
:10B43000284603B0BDE8304017F0A8B9784604F0BC
:10B440006DF9E5E7784604F069F9EBE76C37002021
:10B45000E83B002070B5040CB4F5A04F82B00D4657
:10B4600002D0784604F05AF9A4F5A044104BC4F376
:10B470004A1204F01F0153F8222001238B4013428B
:10B48000A4B210D0162303FB04F40A4EA11D3144CC
:10B490001022281D17F07AF9335B2B80264473881D
:10B4A0006B8002B070BD784604F038F9EAE700BF5F
:10B4B000603700208837002030B5000C022883B0A8
:10B4C0000C4602D0784604F029F90C4D2B68DB07B6
:10B4D00002D5002003B030BD20880CF09DFC01286F
:10B4E00009D107480422214617F050F92B6843F090
:10B4F00001032B60EDE70B2003B030BD7437002053
:10B50000A03B0020F0B5C0F30F44A4F54054A4B212
:10B51000032C83B00D4623D824220021284617F09F
:10B52000D9F86109174A012352F8212004F01F01BC
:10B530008B40134222D0AC23134E03FB04F4371983
:10B54000335B2B8097F86430AB70A11C3144102220
:10B55000E81C17F01BF997F864302BB903B0F0BD65
:10B56000784604F0DBF8D7E712341022311905F1E0
:10B57000130003B0BDE8F04017F008B9784604F0B6
:10B58000CDF8D8E768370020F038002070B5C0F358
:10B590000F44A4F58044A4B2072C82B00D4622D8F3
:10B5A00026220021284617F095F86109174A012341
:10B5B00052F8212004F01F018B40134221D02A238E
:10B5C00003FB04F4124EA11D10223144681D17F034
:10B5D000DDF8325B2A8033195A886A809B7D2B7193
:10B5E0002BB902B070BD784604F098F8D8E719344A
:10B5F0001022311905F1150002B0BDE8704017F0B6
:10B60000C5B8784604F08AF8D9E700BF643700204F
:10B61000A03700202DE9F041274EAC2402FB04F4B2
:10B62000154604F16803321933440F469367804688
:10B6300010B9224B01221A7004F12201314438461C
:10B640000FF066F940BB04F17C01314438460FF03D
:10B6500071F960BBA01C394610223044123417F037
:10B6600095F810220021301917F034F8AC2305FBAF
:10B6700003F3F2186809124926F80380002382F8C0
:10B68000643005F01F0551F820300122AA40134311
:10B6900041F82030BDE8F081784604F03FF804F12D
:10B6A0007C01314438460FF045F90028D2D0784665
:10B6B00004F034F8CEE700BFF038002084370020D3
:10B6C0006837002070B5C0F30F44A4F54054A4B20D
:10B6D000032C82B017D8174A01231268A3401342E3
:10B6E0000ED10D46224631F8030B134EFFF792FFA1
:10B6F000AC2303FB04F43219AB7882F864302BB925
:10B70000002002B070BD052002B070BD133504F1F9
:10B710001200294610223044433417F037F831190B
:10B7200028460FF0F5F80028EAD0784603F0F6FF37
:10B73000E6E700BF68370020F038002030B5C0F3DE
:10B740000F4404F54054A4B20D4683B031F8030B06
:10B750002246FFF75FFF0749074BA878AC2202FBA0
:10B7600004320B7882F8640043F0040300200B706D
:10B7700003B030BD5C370020F0380020000CB0F57D
:10B78000A04F1AD170B50E4C2368DB0782B002D5EA
:10B79000002002B070BD0B4D51F8046B10222846FA
:10B7A00016F0F4FF236845F8066C012213430020CD
:10B7B00025F8022C236002B070BD0520704700BF41
:10B7C000603700208E370020030CA3F5005292B2A0
:10B7D000072A2DD82DE9F041184D0124286804FAD4
:10B7E00002F2024282B003D0002002B0BDE8F08134
:10B7F000A3F5FF53103B9BB2A3F1100404EB8407A5
:10B80000DFF83C80BF00381D0E464044102216F081
:10B81000BDFF08EB070130460FF0B8F850B92B68B0
:10B820000122A240134300202B6002B0BDE8F0814A
:10B8300005207047784603F071FFF0E76C37002071
:10B84000E43B00202DE9F04F000C00F50054A4B2B9
:10B85000072C83B00F463DD900F5805084B2072CE9
:10B8600056D84FF0010A2C4A2C4E1378BB4643F0B1
:10B87000040313702A255BF8049B04FB05F5A81D3F
:10B8800005F11908102259463044B04416F07EFFE5
:10B89000053500211022404616F01CFF711958464C
:10B8A0000FF02AF860BB1E4801220368A2402A2537
:10B8B000134304FB05F50360731900221A7146F85F
:10B8C000059083F816A0BAF1000F06D1002003B04E
:10B8D000BDE8F08F4FF0000AC5E7143739464046FF
:10B8E000102216F053FF05F11801314438460FF0CD
:10B8F00003F848B92A2303FB04631A79DA75E5E7EC
:10B90000784603F00BFFCEE7784603F007FFF1E738
:10B91000052003B0BDE8F08F5C370020A037002081
:10B92000643700202DE9F04FC0F30F44A4F58044A4
:10B93000A4B2072C83B03ED8DFF8BC900E46012598
:10B94000D9F80010A54015EA010A30D133464FF06E
:10B950002A0853F805BB274F009308FB04F808F1A9
:10B96000060019461022384416F010FF514608F11F
:10B97000190ABA441022504616F0ACFE009B08F19A
:10B980000501184639440EF0B7FF58BB2A2304FBC3
:10B9900003F3FA1800219175117147F803B0D9F833
:10B9A00000302B43C9F80030337993753BB9002040
:10B9B00003B0BDE8F08F052003B0BDE8F08F153669
:10B9C00031465046102216F0E1FE08F118013944C4
:10B9D00030460EF091FF48B92A2303FB04731A790D
:10B9E000DA75E4E7784603F099FECFE7784603F08E
:10B9F00095FEF1E7A03700206437002070B50F28CE
:10BA000082B013D8274C0123226803FA00F51542AF
:10BA100002D1052002B070BD234901EB8002967867
:10BA200016B9D278002A2FD00020F3E7A0F1100336
:10BA30009BB2072BEDD81D4C0122216802FA03F5B9
:10BA40000D42E6D01A4903EB83034FEA830C01EB66
:10BA500083039E78002EE7D1DB78002BE4D100F53C
:10BA6000FF501030ADF80420ADF80600019821F821
:10BA70000C3012F029FC10B1784603F04FFE236819
:10BA800023EA05032360CFE721F8202000F580504A
:10BA9000ADF80430ADF80600019812F015FC00284E
:10BAA000EDD0E9E770370020A43B00206C37002080
:10BAB000E43B00200388012B00D070474388A3F5A6
:10BAC0004052032A05D8142904BFA3F5C04343807C
:10BAD0007047A3F58042072AEFD82429F3D1A3F5B4
:10BAE000A0434380704700BF30B5074A137813F076
:10BAF000020587B040F04481D90740F161815C07BD
:10BB000004D4002007B030BD5C3700209E4C216873
:10BB10000120ADF8080065F38203C807137015D53E
:10BB20004FF44053ADF80A30029812F0CDFB236871
:10BB3000ADF80450D90740F163819448039001A9FE
:10BB400012F0F4FA10B1784603F0E8FD23689A0782
:10BB500016D543F20103ADF80A30029812F0B4FB97
:10BB6000236800229B07ADF8042040F13D818848FE
:10BB7000039001A912F0DAFA10B1784603F0CEFD75
:10BB800023685D0716D543F20203ADF80A30029828
:10BB900012F09AFB236800225807ADF8042040F108
:10BBA00027817C48039001A912F0C0FA10B17846B1
:10BBB00003F0B4FD2368190716D543F20303ADF86B
:10BBC0000A30029812F080FB23680022ADF80420AE
:10BBD0001A0740F111817048039001A912F0A6FAEA
:10BBE00010B1784603F09AFD6C4C2368DB0715D53D
:10BBF0004FF48043ADF80A30029812F065FB2368D9
:10BC00000022DD07ADF8042040F11E816448039056
:10BC100001A912F08BFA002840F00E8123689807E2
:10BC200015D544F20103ADF80A30029812F04CFB2E
:10BC3000236800229907ADF8042040F11981594882
:10BC4000039001A912F072FA002840F0DD80236809
:10BC50005A0715D544F20203ADF80A30029812F0E3
:10BC600033FB236800225B07ADF8042040F1048118
:10BC70004D48039001A912F059FA002840F0C880FD
:10BC800023681D0715D544F20303ADF80A30029866
:10BC900012F01AFB236800221807ADF8042040F1C7
:10BCA000DF804248039001A912F040FA002840F0DA
:10BCB000B3802368D90615D544F20403ADF80A30E1
:10BCC000029812F001FB23680022ADF80420DA0686
:10BCD00040F1CA803648039001A912F027FA0028E3
:10BCE00040F09E8023689B0615D544F20503ADF80D
:10BCF0000A30029812F0E8FA236800229D06ADF897
:10BD0000042040F1A5802B48039001A912F00EFAFF
:10BD1000002840F089802368580614D544F20603B1
:10BD2000ADF80A30029812F0CFFA236800225906C3
:10BD3000ADF8042040F190801F48039001A912F053
:10BD4000F5F9002874D123681A067FF5DAAE44F2BB
:10BD50000703ADF80A30029812F0B6FA2368002201
:10BD60001B06ADF804206BD51448039001A912F00E
:10BD7000DDF900283FF4C5AE784603F0CFFCC0E6FD
:10BD80000B2007B030BD00BF683700200100003035
:10BD9000010001300100023001000330643700204F
:10BDA0000100004001000140010002400100034089
:10BDB0000100044001000540010006400100074069
:10BDC0002F4A07CA03AB03C34FF0011403A920464F
:10BDD0001A80029412F0AAF910B9052007B030BDFC
:10BDE000784603F09BFCF8E7784603F097FCBEE644
:10BDF000784603F093FCD4E6784603F08FFCEAE63D
:10BE0000784603F08BFC98E6784603F087FC1EE743
:10BE1000784603F083FC33E7784603F07FFC48E77D
:10BE2000784603F07BFC5DE7784603F077FC72E729
:10BE3000784603F073FC86E7784603F06FFCEDE686
:10BE4000784603F06BFC8FE7784603F067FCDDE68D
:10BE5000784603F063FC56E7784603F05FFC6BE737
:10BE6000784603F05BFC1CE7784603F057FC31E7AB
:10BE7000784603F053FCE2E6784603F04FFCF7E621
:10BE8000943904002548264B10B5002421464480EF
:10BE9000C4824485C487A0F85240A0F86640A0F848
:10BEA0007A40A0F88E4004221E485C80DC805C81D1
:10BEB000DC815C82DC825C83DC835C84DC845C858A
:10BEC000DC855C86DC865C87DC8716F003FC21461B
:10BED0000422154816F0FEFB21460422134816F0F2
:10BEE000F9FB21460422124816F0F4FB21460422F5
:10BEF000104816F0EFFB214604220F4816F0EAFB2B
:10BF00000E4A0F4813780F49046023F003030C70A6
:10BF10001370BDE81040012012F03ABAE43B002053
:10BF2000A43B002074370020703700206C370020BD
:10BF30006837002064370020603700205C3700201D
:10BF4000A03B002084370020054808B5054B03605E
:10BF50000CF014F9044A137823F00303137008BD9E
:10BF60007837002091D702005C37002010B50446D6
:10BF700030B120460449BDE81040042216F006BC4A
:10BF8000784603F0CBFBF4E7A03B0020002900F04B
:10BF9000BF80F0B583B004460D460BF03DFF02288C
:10BFA00003D000F0FD02012A02D0102003B0F0BD42
:10BFB0005B495C4E0F68002302FA03F038427BD1E4
:10BFC0000F2B9FB203F1010208BF0F277ED036F876
:10BFD0002200A0426DD00E2B03F1020276D036F87B
:10BFE0002200A04265D00D2B03F103026ED036F87B
:10BFF0002200A0425DD00C2B03F1040266D036F87B
:10C000002200A04255D00B2B03F105025ED036F87A
:10C010002200A0424DD00A2B03F1060256D036F87A
:10C020002200A04245D0092B03F107024ED036F87A
:10C030002200A0423DD0082B03F1080246D036F87A
:10C040002200A04235D0072B03F109023ED036F87A
:10C050002200A0422DD0062B03F10A0236D036F87A
:10C060002200A04225D0052B03F10B022ED036F87A
:10C070002200A0421DD0042B03F10C0226D036F87A
:10C080002200A04215D0032B03F10D021ED036F87A
:10C090002200A0420DD0022B03F10E0216D036F87A
:10C0A0002200A04205D0012B10D0B38FA3420DD1A6
:10C0B0000F2297B2144622E036F82300A0422DD07A
:10C0C0000133102B7FF478AF04206FE70A6816481D
:10C0D00026F827400123ADF80430BB401A4307F58A
:10C0E0008053ADF8063000230A6020F827306946F7
:10C0F0000198ADF800303C4612F018F850B906EB44
:10C1000084032F809A78002001329A7003B0F0BD2A
:10C110000E207047784603F001FBF0E71A46C8E7A7
:10C1200070370020A43B0020A63B00200F280FD82A
:10C13000114A012312688340134207D00F4B03EBCF
:10C14000800300209A7801329A707047052070476A
:10C15000103882B2072AF9D80949012309689340A7
:10C160000B42F3D0074B00EB800003EB8003002071
:10C170009A7801329A70704770370020A43B0020F3
:10C180006C370020E43B0020002800F01C812DE9E2
:10C19000F04F0F4683B0002900F01181914E3368B3
:10C1A00013F0010405465DD113F0020240F0D78080
:10C1B000580700F1F18033680024180700F19680D9
:10C1C0003368D9066FD43368990600F1A3803368C9
:10C1D00058067BD433681B0600F1B08004F11009C7
:10C1E0001FFA89F9A9F1100A0AEB8A0BDFF8188205
:10C1F0004FEA8B0B0BF1040029464044102216F045
:10C20000C5FA08EB0B0128460EF0C0FB002840F0F1
:10C21000BB803368012202FA0AFA4AEA0303A24009
:10C2200000211A423360ADF8001000F0A98001230C
:10C23000ADF8043004F50053ADF8063001986946B6
:10C2400011F074FF002840F0A38004EB840408EB95
:10C250008403A7F800909A78002001329A7003B006
:10C26000BDE8F08F014610225F4816F023FA00283F
:10C270006DD033689C0770D45A074FF001049CD5E9
:10C280005A481022294616F015FA002800F0A1801D
:10C2900033681A072AD44FF6FF72944290D1D80619
:10C2A0004FF003048FD552481022294616F002FAA7
:10C2B000002800F0928033689A062BD44FF6FF7264
:10C2C000944284D15A064FF0050483D54948102280
:10C2D000294616F0EFF900287DD0336818065DD4A2
:10C2E0004FF6FF739C4208BF072477E742481022AD
:10C2F000294616F0DFF9002869D03368DA06D2D46F
:10C300004FF6FF7294427FF45EAF9B064FF0040439
:10C310007FF55DAF39481022294616F0CBF9002889
:10C320005DD033685906D1D44FF6FF7294427FF442
:10C3300051AF19064FF006047FF550AF3048102278
:10C34000294616F0B7F900287FF448AF0720DFF838
:10C35000B88084B200F1100977E74FF6FF742948DE
:10C360001022294616F0A6F900282ED03368590766
:10C3700086D44FF6FF7294427FF41DAF02241CE76F
:10C38000784603F0CBF952E7784603F0C7F940E767
:10C39000784603F0C3F958E7144671E718481022AD
:10C3A000294616F087F90028D0D04FF6FF739C423B
:10C3B00008BF04207FF412AF03B0BDE8F08F0E2059
:10C3C00003B0BDE8F08F0E2070470120BFE70320C7
:10C3D000BDE70220BBE70620B9E70420B7E7052048
:10C3E000B5E700BF6C370020E83B0020103C002080
:10C3F000383C0020603C0020243C00204C3C0020C5
:10C40000743C0020FC3B0020E43B002070B50F286A
:10C4100082B0034615D8214C0121226801FA00F5AB
:10C42000154202D1052002B070BD1D4E06EB800002
:10C430008278013AD2B282700AB9C278CAB10020B9
:10C44000F1E7A0F1100399B20729EBD8154C0122AE
:10C4500024688A402242E5D0134A03EB830302EBAF
:10C4600083039A78013A9A7002B0BDE87040FFF7F2
:10C47000C5BA26F8232003F58053ADF80410ADF8B3
:10C480000630019811F020FF20B9236823EA050344
:10C490002360D4E7784603F041F9F6E770370020CF
:10C4A000A43B00206C370020E43B0020002900F072
:10C4B000D280F0B583B004460D460BF0ADFC0228E7
:10C4C00003D000F0FD03012B02D0102003B0F0BD1B
:10C4D0006549D1F800C0002203FA02F717EA0C0FF1
:10C4E000624E40F08A800F2A97B202F1010308BF22
:10C4F0000F2700F0B2805D4E36F823C0A4456ED001
:10C500000E2A02F1020300F0A88036F823C0A445E9
:10C5100065D00D2A02F103037CD036F823C0A44570
:10C520005DD00C2A02F1040374D036F823C0A44570
:10C5300055D00B2A02F105036CD036F823C0A44570
:10C540004DD00A2A02F1060364D036F823C0A44570
:10C5500045D0092A02F107035CD036F823C0A44570
:10C560003DD0082A02F1080354D036F823C0A44570
:10C5700035D0072A02F109034CD036F823C0A44570
:10C580002DD0062A02F10A0344D036F823C0A44570
:10C5900025D0052A02F10B033CD036F823C0A44570
:10C5A0001DD0042A02F10C0334D036F823C0A44570
:10C5B00015D0032A02F10D032CD036F823C0A44570
:10C5C0000DD0022A02F10E0324D036F823C0A44570
:10C5D00005D0012A1ED0B38FA3421BD10F230328FD
:10C5E0009FB27FF472AF1C4606EB84032F80DA788B
:10C5F00000200132DA7003B0F0BD36F82270A74295
:10C6000030D00132102A7FF467AF032814BF102006
:10C6100004205BE703287FF458AF0A68144826F823
:10C6200027400123ADF80430BB401A4307F580537F
:10C63000ADF8063000230A6020F8273069460198DB
:10C64000ADF800303C4611F071FD0028CCD07846A2
:10C6500003F064F8C8E70E20704703287FF435AF75
:10C66000024EDAE71346BAE770370020A43B0020F9
:10C67000A63B0020002800F01C812DE9F04F0F465A
:10C6800083B0002900F01181914E336813F001044A
:10C6900005465DD113F0020240F0D780580700F143
:10C6A000F18033680024180700F196803368D906BA
:10C6B0006FD43368990600F1A380336858067BD4A1
:10C6C00033681B0600F1B08004F110091FFA89F9E4
:10C6D000A9F1100A0AEB8A0BDFF818824FEA8B0BDC
:10C6E0000BF1040029464044102216F04FF808EBE5
:10C6F0000B0128460EF04AF9002840F0BB80336851
:10C70000012202FA0AFA4AEA0303A24000211A426D
:10C710003360ADF8001000F0A9800123ADF80430BB
:10C7200004F50053ADF806300198694611F0FEFC9F
:10C73000002840F0A38004EB840408EB8403A7F8EE
:10C740000090DA7800200132DA7003B0BDE8F08F93
:10C75000014610225F4815F0ADFF00286DD0336808
:10C760009C0770D45A074FF001049CD55A481022F8
:10C77000294615F09FFF002800F0A18033681A07B2
:10C780002AD44FF6FF72944290D1D8064FF003049A
:10C790008FD552481022294615F08CFF002800F052
:10C7A000928033689A062BD44FF6FF72944284D15C
:10C7B0005A064FF0050483D549481022294615F042
:10C7C00079FF00287DD0336818065DD44FF6FF73DB
:10C7D0009C4208BF072477E742481022294615F0FB
:10C7E00069FF002869D03368DA06D2D44FF6FF72A9
:10C7F00094427FF45EAF9B064FF004047FF55DAF7B
:10C8000039481022294615F055FF00285DD03368BD
:10C810005906D1D44FF6FF7294427FF451AF1906F6
:10C820004FF006047FF550AF30481022294615F02E
:10C8300041FF00287FF448AF0720DFF8B88084B2BA
:10C8400000F1100977E74FF6FF74294810222946B6
:10C8500015F030FF00282ED03368590786D44FF6E4
:10C86000FF7294427FF41DAF02241CE7784602F069
:10C8700055FF52E7784602F051FF40E7784602F054
:10C880004DFF58E7144671E718481022294615F065
:10C8900011FF0028D0D04FF6FF739C4208BF042040
:10C8A0007FF412AF03B0BDE8F08F0E2003B0BDE8F7
:10C8B000F08F0E2070470120BFE70320BDE7022064
:10C8C000BBE70620B9E70420B7E70520B5E700BFBE
:10C8D0006C370020E83B0020103C0020383C002052
:10C8E000603C0020243C00204C3C0020743C002094
:10C8F000FC3B0020E43B00200F280FD8114A012305
:10C9000012688340134207D00F4B03EB80030020D3
:10C91000DA780132DA70704705207047103882B239
:10C92000072AF9D809490123096893400B42F3D03B
:10C93000074B00EB800003EB80030020DA78013224
:10C94000DA70704770370020A43B00206C3700205D
:10C95000E43B00200F2838B5044612D81D4A0123B5
:10C960001268834013420AD01B4D35F820000BF0AB
:10C9700053FA03281FD105EB8405EB7813BB052080
:10C9800038BDA0F1100291B20729F8D8134801234D
:10C9900000688B400342F2D0114B02EB820203EBA2
:10C9A0008203DA78002AEAD0013ADA702046BDE83C
:10C9B0003840FFF723B8022808BFA4F11002EBD0DB
:10C9C0000F2038BD013BEB702046BDE83840FFF733
:10C9D00015B800BF70370020A43B00206C37002042
:10C9E000E43B002069B30F2810B50C4610D8164A56
:10C9F000012312688340134214D0144B33F82000F3
:10CA000048800BF009FA002320706360002010BDFD
:10CA1000103882B2072A05D80D49012309689340CE
:10CA20000B4201D1052010BD0A4A00EB800002EB49
:10CA3000800332F820106180043302226360227088
:10CA4000E4E70E20704700BF70370020A43B0020B1
:10CA50006C370020E43B0020002800F0728170B5A4
:10CA60000C46002930D0054640880BF0D5F9022845
:10CA700005D000F0FD00012828D0102070BD6E68A0
:10CA800016B3944D2B68D80700F146812B6899079F
:10CA900000F14D812B685A0700F155812B681B0767
:10CAA00000F15B812B68D80600F163812B68990641
:10CAB00000F169812B685A0600F16F812B681B0613
:10CAC00000F17581052070BD0E2070BD4FF6FF721C
:10CAD000814B698822801D6815F0010240F0888032
