:020000022000DC
:1070000000F003206D7302005573020057730200F5
:10701000597302005B7302005D7302000000000000
:107020000000000000000000000000005F7302008C
:1070300061730200000000006373020065730200C8
:107040006773020067730200677302008192030096
:107050009592030067730200758D03006773020049
:107060006773020067730200C57303006773020051
:1070700067730200677302006773020067730200A0
:107080006773020021DC0300F9CC02006773020081
:1070900085DC0300677302007195030067730200CB
:1070A0006773020067730200677302006773020070
:1070B0006773020067730200000000000000000018
:1070C000677302006773020067730200A9920300EE
:1070D0006773020067730200677302006773020040
:1070E000677302006773020067730200000000000C
:1070F00000000000677302000000000067730200D8
:10710000000000000000000000000000000000007F
:10711000000000000000000000000000000000006F
:10712000000000000000000000000000000000005F
:10713000000000000000000000000000000000004F
:10714000000000000000000000000000000000003F
:10715000000000000000000000000000000000002F
:10716000000000000000000000000000000000001F
:10717000000000000000000000000000000000000F
:1071800000000000000000000000000000000000FF
:1071900000000000000000000000000000000000EF
:1071A00000000000000000000000000000000000DF
:1071B00000000000000000000000000000000000CF
:1071C00000000000000000000000000000000000BF
:1071D00000000000000000000000000000000000AF
:1071E000000000000000000000000000000000009F
:1071F000000000000000000000000000000000008F
:10720000344935480A1A02D0072291438D46334942
:1072100033480A1A06D00722914381F309880222D3
:1072200082F314882F483049304A00F042F8304841
:107230003049314A00F03DF830483149314A00F0D8
:1072400038F831483149324A00F033F83148324990
:10725000324A00F02EF832483249334A00F029F819
:1072600032483349334A00F024F833483349002286
:1072700000F02AF832483349002200F025F832485D
:107280003249091A082902DB0022026041601F48C6
:107290001F49884205D00268043003B4904703BCFC
:1072A000F7E700208646EC4600200021284A904758
:1072B000FEE7884207D0521A05D0037801300B70E0
:1072C0000131013AF9D17047884202D00270013091
:1072D000FAE7704700F0032000E8032000F00320E5
:1072E00000F0032098FE0300002E00205E2E0020F8
:1072F000A0730200A073020090E1030098FE030057
:10730000002E0020002E002024E5030024E50300C9
:1073100024E5030024E5030024E5030024E503003D
:1073200024E5030024E5030098FE0300F8FE0300B3
:10733000602E0020602E0020602E0020A459002026
:10734000A4590020A4590020A4590020A45D0020C5
:10735000F1770200FEE7FEE7FEE7FEE7FEE7FEE765
:10736000FEE7FEE7FEE7FEE700F002B8FFF7FCBF2E
:1073700008484FF00701884385460748804707487B
:10738000016841F470010160BFF34F8FBFF36F8F4D
:10739000FFF736BF00F003205D96030088ED00E0A4
:1073A00041DF704743685B78172B40F0BD8010B514
:1073B0008EB0044642781F2A16D05C4B1B6813F42B
:1073C000804F03D05A4B1B68032B01DC0EB010BD5D
:1073D000584BD3F804350192574A00925522574929
:1073E000042006F081FCF1E700230693079308933D
:1073F00009930A930B930C930D9343681A788DF8B5
:1074000018205A788DF819209A788DF81A20DA7891
:1074100002F00F028DF81B20DA7812098DF81C207B
:107420001A7902F00F028DF81D201A7912098DF8D1
:107430001E205A7902F007028DF81F205B79DB08C5
:107440008DF82030062308E06168C95C03F13B0237
:107450006A4402F8201C0133DBB21C2BF4D900F083
:10746000E1FB202106A800F0FBFBC0F3072CC2B211
:1074700003E0ACF17F0C5FFA8CFCBCF17E0FF8D816
:1074800001E07F3AD2B27E2AFBD86168487F60452E
:1074900002D18B7F934245D0244B1B6813F4804F5D
:1074A00094D0234B1B68032B90DD224BD3F804357B
:1074B000897F049103900292CDF804C0204A009283
:1074C0007B221E49042006F00FFC7FE703F1380100
:1074D000694411F8200C1B49C8540133DBB21F2B3F
:1074E000F4D9184880F820C080F82120222100F02B
:1074F000D5FB0E4B1B6813F4804F3FF467AF0C4B6A
:107500001B68032B7FF762AF0A4BD3F804350D4A93
:10751000927801920C4A009287220849042006F0D2
:10752000E3FB53E70023DAE7704700BF182E002083
:10753000142E00200010014084E503007CE50300C8
:10754000A8E50300642F002014E6030010B50446EC
:107550000B46164A116811B3D3F800C058689A68F0
:10756000D3F80CE0C1F811C0C1F81500C1F819201A
:10757000C1F81DE0D3F810C058699A69C1F821C05C
:10758000C1F82500C1F829209A8B9B7FA1F82D20F6
:1075900081F82F3001230B7120460FF0BAFC1F2118
:1075A00020460FF078FC014B186010BD602E0020C3
:1075B00000B583B00D4B1B6813F4804F03D00C4B08
:1075C0001B68032B06DC0B490B48FFF7BFFF03B01A
:1075D0005DF804FB094BD3F80435094A00924422B4
:1075E0000849042006F080FBEDE700BF182E0020BC
:1075F000142E0020442F0020A42E00200010014053
:1076000040E603007CE5030008B54023024A002160
:1076100002480FF063FD08BD642E0020A42E002058
:1076200000B583B00E4B1B6813F4804F03D00D4B95
:107630001B68032B09DC0322C8210F2000F0CCFBC0
:107640000AF0B4F803B05DF804FB074BD3F8043537
:10765000064A009291220649042006F045FBEAE71B
:10766000182E0020142E0020001001407CE603009C
:107670007CE5030008B50378232B00D008BDFFF795
:10768000CFFFFBE700B58DB02422002103A816F040
:10769000D3FC01238DF80C3007238DF80F308DF8C3
:1076A00014301E4B0793002103A80AF031F868B389
:1076B0000B2827D11A4B1B6813F4804F03D0194BAA
:1076C0001B68032B13DC164B1B6813F4804F1DD073
:1076D000144B1B68032B19DD134BD3F80435134AE5
:1076E0000092AD221249042006F0FEFA0EE00E4B85
:1076F000D3F804350F4A0092AC220D49042006F05D
:10770000F3FAE0E70C4AB22112F0A4F80B4804F0B7
:1077100063F8FFF779FF0DB05DF804FB75760200A2
:10772000182E0020142E002000100140E8E603006F
:107730007CE5030098E6030024E50300A57302003E
:1077400000B583B016F0A2FAB8B900F079FB134A7D
:1077500004214FF4804006F0ABFA00F0ADFBFFF7D8
:1077600091FF0F4B1B6813F4804F03D00D4B1B6828
:10777000032B07DC03B05DF804FB0B4AC22112F0B7
:1077800069F8E2E7094BD3F80435094A0092C922A7
:107790000849042006F0A8FAECE700BF85DC0200E7
:1077A000182E0020142E002024E5030000100140B4
:1077B00024E703007CE5030008B517200FF080F9EB
:1077C00009F091FF58B9FFF7EBFD07480FF044FBB4
:1077D000FFF7E6FD00F076F9FFF7E2FD08BD034A8A
:1077E000D02112F037F8EEE7A42E002024E50300A4
:1077F00008B5FFF7A5FFFFF7DFFF002008BD41DF59
:1078000070470000F0B58DB005468378172B49D03E
:10781000694B1B6813F4804F03D0684B1B68032B24
:1078200001DC00240EE0664BD3F8043522220192DD
:10783000644A009216226449042006F055FAF0E7E3
:107840000134E4B2222C15D85B4B1B6813F4804F33
:10785000F6D05A4B1B68032BF2DD594BD3F8043595
:107860002A5D0192594A009219225749042006F0D4
:107870003BFAE5E700200DB0F0BDE95C03F12F0213
:107880006A4402F8201C0133DBB2202BF5D900F04A
:10789000C9F9202104A800F0E3F9C0F30727C6B214
:1078A000002403E00123F0E70134E4B2222C18D8CD
:1078B000414B1B6813F4804FF6D0404B1B68032BE1
:1078C000F2DD3F4BD3F804352A5D02920194404A21
:1078D00000922B223C49042006F006FAE4E77F3FA1
:1078E000FFB27E2F16D9344B1B6813F4804FF6D0AD
:1078F000324B1B68032BF2DD314BD3F80435019773
:10790000344A009230223049042006F0EDF9E6E7CF
:107910007F3EF6B27E2E14D9274B1B6813F4804F9E
:10792000F6D0264B1B68032BF2DD254BD3F804352C
:107930000196294A009236222349042006F0D4F900
:10794000E6E795F82120BA4217D01B4B1B6813F4C9
:10795000804F03D0194B1B68032B01DC00208AE702
:10796000174BD3F80435029201971C4A00923C222F
:107970001549042006F0B8F9F0E795F82220B24244
:1079800017D00D4B1B6813F4804F03D00B4B1B68B3
:10799000032B01DC00206EE7094BD3F8043502927B
:1079A00001960F4A009243220749042006F09CF9F1
:1079B000F0E701205FE700BF182E0020142E002002
:1079C00000100140A4E703009CE70300BCE70300AC
:1079D000D0E70300E8E70300F4E7030000E8030052
:1079E00038E8030010B588B008AB03E907009DF83C
:1079F0001430012B01D008B010BD294B01221A70A0
:107A00002848FFF7FFFEE0B1264B1C79E4B2264B75
:107A10001B6813F4804F03D0244B1B68032B24DC1A
:107A2000214B1B6813F4804F03D0204B1B68032BA2
:107A300026DC052CDFD01B4800F0A2F8FFF7B8FDCC
:107A4000D9E7194B1B6813F4804FD4D0174B1B6830
:107A5000032BD0DD164BD3F80435164A009257227B
:107A60001549042006F040F9C5E7114BD3F8043559
:107A7000124A00925C221049042006F035F9CFE743
:107A80000B4BD3F80435074AD278029201940C4A82
:107A900000925D220849042006F026F9C9E700BFDC
:107AA000402F0020882F0020182E0020142E0020A8
:107AB0000010014070E803009CE703007CE803002D
:107AC00088E8030010B588B00DF1080C264C0FCCE7
:107AD000ACE80F0094E803008CE80300FFF78FFE8A
:107AE0001F230593FFF78BFE1E230293FFF787FEEC
:107AF0001D230393FFF783FE1A230493FFF77FFEF2
:107B000007238DF81E30FFF77AFEFFF778FE174A3D
:107B100002A9174811F0C6F950B9FFF770FE4FF0EF
:107B2000A04340F20132C3F87827FFF768FE0BE06C
:107B300011F082FEF1E70F4B00221A700D4B1B78FB
:107B40007BB1012011F08AF9232300930A4B2222F2
:107B50000A49074811F010FB0028ECD011F06CFE28
:107B6000E9E7FFF74CFEE9E7B0E80300E57902003A
:107B7000A8E80300402F0020882F0020642F002059
:107B8000012307E05A1E10F803C0134901F802C090
:107B90000133DBB2032BF5D94379827943EA02132F
:107BA000DBB20D4A1371C379017A43EA0113DBB2E8
:107BB0005371437A817A43EAC103DBB293710B2399
:107BC00007E05A1F10F803C0034901F802C001334F
:107BD000DBB2232BF5D97047442F00200246002347
:107BE000184604E05DF804FB52080133DBB28B4217
:107BF00016D212F0010FF7D000B501F1FF3CACEB4B
:107C0000030E4FF0010C0CFA0EFC40EA0C00520877
:107C10000133DBB28B42E5D212F0010FF7D0ECE773
:107C200070470000002011E05B009BB2013AD2B225
:107C300042B113F4004FF7D048F2050181EA430343
:107C40009BB2F3E7054A22F810300130FF2804DC2C
:107C500083B21B029BB20822EAE77047AC2F0020D8
:107C6000F8B506460D46002427460DE00821305D94
:107C7000FFF7B4FFC3B283EA1723074A32F9133080
:107C800083EA07239FB20134AC42EFDB1021384670
:107C9000FFF7A4FF80B2F8BDAC2F0020014B1860A5
:107CA00059607047AC3100201F280BD900F01F002D
:107CB000064BD3F80435C34013F0010F0CBF01206D
:107CC000002070474FF0A043F3E700BF00030050CF
:107CD00070B505460024264600E00134032C0AD87E
:107CE0000123A3402B42F8D0044B185DFFF7DCFFC3
:107CF000A0400643F1E7304670BD00BFC8E803006E
:107D000008B511B111F026F808BD11F013F8FBE722
:107D100070B50546002400E00134032C0FD8012380
:107D2000A3402B42F8D0064B1E5D3046FFF7BCFF48
:107D300080F00101C9B23046FFF7E2FFECE770BD09
:107D4000C8E8030010B5144B1B684BB1134B1868FF
:107D5000FFF7DEFF104B1C68013C1C6024B110BD16
:107D6000002011F069FDF1E70D4816F001F800E080
:107D70000134032CF3D80123A340084A12681342AC
:107D8000F6D0084B1968E14001F00101064B185D7F
:107D9000FFF7B6FFECE700BFBC310020B831002090
:107DA000C0310020B4310020C8E8030070B505469A
:107DB0000E46002400E00134032C09D80123A3401F
:107DC0002B42F8D03146034B185DFFF799FFF2E7DD
:107DD00070BD00BFC8E8030042B310B50C4613469F
:107DE000132900D810BD124A10605B00013B114AF4
:107DF0001360FFF76DFF104B1860610CE40314F57E
:107E0000FA704FF47A724FF0000341F1000115F05F
:107E1000EFFF01460022094815F088FF0028E1D154
:107E20000121034B1868FFF7C1FFDBE7704700BF74
:107E3000B8310020BC310020B4310020C031002016
:107E400010B582B010F0F2FE40B10024ADF804404D
:107E50008DF8064001238DF8053007E010F096FEFE
:107E60000028F2D011F0E8FCEFE70134032C09D828
:107E700001A90A4B185D10F0E3FE0028F5D011F0BF
:107E8000DBFCF2E7064A0121064815F039FF08B984
:107E900002B010BD11F0D0FCFAE700BFC8E8030043
:107EA000457D0200CCE8030060DF704769DF704762
:107EB00008B503F08BFC08BD10B588B011F0FEFAD0
:107EC00000282CD1224B0793079A06920023039394
:107ED0000493059303A90120FFF7E8FF10BB0023DB
:107EE000039304930593F8230393069A03A9A1200F
:107EF000FFF7DCFFC8B906A8FFF7D6FF0446069ACD
:107F0000079B9A4208D0134B1B6813F4804F03D091
:107F1000114B1B68012B0BDCB4B908B010BD11F07C
:107F20008BFCCFE711F088FCD9E711F085FCE2E784
:107F30000A4BD3F804350192094A0092AB22094951
:107F4000022005F0D1FEE7E7204611F075FCE4E7DA
:107F5000002E0020182E0020142E002000100140BA
:107F600040E9030025E90300062070474FF0A043D5
:107F70004FF4F032C3F81825C3F80C25EFF3108343
:107F800072B64DF6AD6C00E030BF024B1B78002B93
:107F9000FAD17047002E002000B587B044F20103EB
:107FA000984254D01BD8012836D041F201039842A0
:107FB00068D13F4B1B6813F4804F36D03D4B1B6894
:107FC000002B32DD3C4BD3F80435029201913B4A41
:107FD000009263223A49012005F086FE25E044F232
:107FE000020398424ED1324B1B6813F4804F1CD0D1
:107FF000304B1B68002B18DD2F4BD3F8043510686D
:1080000003905268029201912E4A009269222C49F3
:10801000012005F069FE08E0254B1B6813F4804F32
:1080200003D0244B1B68002B04DCFFF79FFF07B035
:108030005DF804FB204BD3F8043502920191224AEB
:10804000009260221E49012005F04EFEEDE7184B1C
:108050001B6813F4804FE8D0164B1B68002BE4DD3F
:10806000154BD3F8043510680490506803900291C2
:1080700092680192154A009273221149012005F07D
:1080800033FED2E70A4B1B6813F4804FCDD0094B67
:108090001B68002BC9DD084BD3F8043501910C4A4D
:1080A00000927B220649012005F01EFEBDE700BFBD
:1080B000182E0020142E00200010014000EA0300BA
:1080C000D1E9030024EA0300E4E9030044EA0300E1
:1080D00068EA030000B583B0014600230093054B16
:1080E00001936A4644F20200FFF756FF03B05DF8C1
:1080F00004FB00BFE4E7030010B40346044C00682F
:1081000059689A68DB680FC45DF8044B704700BF7C
:10811000E03100200D4B4FF0805202F1600103C9A5
:1081200083E8030003F1080CA43292E803008CE812
:1081300003009A7902F00F0242F040029A711A7A13
:1081400002F03F0262F07F021A727047E0310020B5
:1081500000487047E0310020002308E0074901EBA8
:10816000C30000224280426001F8332001331F2BFC
:10817000F4D9034B00221A60704700BFF43100208D
:10818000F031002000B58646114B1B684FF0000C03
:108190000BE01F230F4A12F83300B0B102EBC30209
:1081A0005288724509D00CF1010CBCF11F0F0BD89D
:1081B0005A1E002BEDD01346ECE7064A02EBC30231
:1081C00052688A42EFD100E000205DF804FB00BF56
:1081D000F0310020F431002010B40B4A13680B4C2E
:1081E00004EBC30CACF80200CCF80410012104F835
:1081F00033100B441360202B02D05DF8044B704702
:10820000134600221A60F8E7F0310020F431002014
:10821000037803F080030370C1F3861213430370E5
:10822000437803F00303437043EA810343707047CC
:10823000437803F080034370C1F386121343437005
:10824000837803F00303837043EA810383707047EC
:10825000837803F0FC038370C1F3C102134383707E
:10826000C37803F01F03C37043EA4113C370704720
:108270000021072918D830B402E00131072910D8AD
:108280004FEA011C094C34F80CC08445F5D104EBCD
:108290000114A568E4689C4208BF9542EDD1012015
:1082A00000E0002030BC70470020704708330020F9
:1082B00030B4C3698469C288190A1B06C4F30C0C64
:1082C000944519D2A2EB0C022244A2F500529A184E
:1082D00041F100010A4C23685D1C256003F007038F
:1082E000B0F814C007481C0100EB031320F804C0C9
:1082F0009A60D96030BC7047A2EB0C022244E6E7DA
:10830000883300200833002038B505460C46C37D6D
:108310009BB1C2780B7803F080030B7002F07F02F0
:1083200013430B702A78237803F07F03237043EA0A
:10833000C21323702B789BB938BDC2780B7803F039
:10834000BF030B70920102F0400213430B700279DD
:1083500003F0C0030B7002F03F0213430B70E1E720
:10836000AA78082A14BF00220122637803F07F0351
:10837000637043EAC2136370E9882046FFF758FF31
:10838000297A2046FFF764FF6A7AE37803F0E00376
:10839000E37002F01F021343E370CDE7002300E017
:1083A0000133032B28D8C3EBC30C144A02EB0C1285
:1083B00092F84820012AF3D1104A02EB0C12B2F8CD
:1083C00014C0C2899445EBD1C3EBC30C0B4A02EB3A
:1083D0000C12D2888A42E3D1084A02EB0C12B2F89E
:1083E00058201AB1B0F814C06245D9D1C3EBC30309
:1083F000024800EB03107047002070478C330020C8
:10840000002300E00133032B15D8C3EBC3010B4A53
:1084100002EB011292F84820022AF3D1074A02EB3C
:108420000112918A828A9142ECD1C3EBC3030348C3
:1084300000EB031070470020704700BF8C33002012
:1084400008B9042070470820704700B503468C46E1
:108450000978C17000214162DCF808100B2904D8AA
:108460009CF80C1029B3012100E0012119700020B3
:10847000987031B1DCF808100731C9080139597218
:1084800018720121D97503F10C0E0CF1100103C90A
:108490008EE80300BCF80E109982DCF818101962FF
:1084A0009CF81C109975DCF82010D9629A625DF86E
:1084B00004FB0021DAE7000000210E4B1B688B4211
:1084C00016D9002300E001330B4A02EBC1025268C7
:1084D0009A420BD9084A52F8312002EBC30C12F829
:1084E00033208242EFD1DCF8040070470131E4E729
:1084F00000207047F4320020F832002070B58CB0B4
:1085000006460D4614462C22002101A815F094FDC4
:108510000F238DF80430ADF808609DF80A3065F33C
:1085200000038DF80A308DF80B4001A801F0F8F92E
:108530000CB070BD30B58DB005460C462C22002124
:1085400001A815F079FD10238DF8043002958DF8FF
:108550000C4001A801F0E4F90DB030BD00B58DB0BC
:1085600010B913F1020F06D1074B186804F0F6FAA0
:108570000DB05DF804FB01218DF804100293039205
:1085800001A801F0CDF9EFE70033002010B5044653
:1085900003782BB1637A013301209840013810BD74
:1085A0007846FFF797FDF5E770B5049C002962D087
:1085B0001D468E46D2F800C051689668D368C4F84C
:1085C0000CC021616661A361D2F810C05169C4F882
:1085D0001CC02162002363700278D20922705AB352
:1085E0000423734549D8E17D41B3037803F07F0349
:1085F000E3700023A3709AB143789B0103F4FE5308
:10860000827843EA9203E3808378DB0003F0180367
:10861000C27843EA52132372C37803F01F036372D4
:10862000002363622B78032B21D82A78144B53F84C
:108630002230E362002070BD0123D2E70178C1F34C
:108640008011E170017801F03F01217142B190F990
:108650000130002B02DB0423A370CCE70823FBE7E7
:108660000421A1700B447345C5D90920E3E778467E
:10867000FFF730FDD9E70920DDE70920DBE700BF80
:1086800030EC030070B50C461D4603789BB1042600
:108690003244A26000F10C032360836A6360C36A02
:1086A000E36000232374204604F0BAFD10B9636927
:1086B00033442B6070BD0126EAE72DE9F0418EB00E
:1086C0000E4615461C46804600282DD0002E2FD081
:1086D000002C31D0636A0233059304F10C00E37877
:1086E000002B2DD00121A27801AF3B46082A14BFF0
:1086F0000022012204F06DFB0697CDF81C80ADF836
:1087000020500B9616FA85F50C95A3788DF8343029
:10871000237B022B16D00023ADF8283005A804F0E7
:1087200050FB0EB0BDE8F0817846FFF7D3FCCDE7F3
:108730007846FFF7CFFCCBE77846FFF7CBFCC9E7DD
:108740000221D0E723692BB1236909931023ADF8E7
:108750002830E3E77846FFF7BDFCF5E72DE9F04167
:1087600088B004460D46C37D002B3CD0082605FB8F
:1087700006F8637AAB4238D0257201AB324602A9C3
:108780002046FFF77FFF074648BB4DB994F85330AA
:1087900033B9A369C3F30C03E380012384F8533096
:1087A000E37D7BB994F8523063B91DBBE06EB4F839
:1087B0004A10A27823468A1A0146FFF77EFF01235A
:1087C00084F8523007992046FFF79EFDE16E32464D
:1087D0004144019815F0FEFB02A804F047FD38461D
:1087E00008B0BDE8F0810C26C1E7B4F84A60A6EBFA
:1087F0000806C1E77846FFF76DFCD7E770B5054678
:108800000E4609B100230B6095F85040002104E0AA
:10881000631C85F850300134E4B26B7AA34210D364
:10882000EA6C0123A3401A42F5D121462846FFF7FE
:1088300095FF014628B9002EEAD033680133336032
:10884000E6E7084670BDF0B589B004460E46154609
:1088500083789A18C37D63B10B239A4221D801AB68
:1088600002A92046FFF70EFF074620B1384609B09F
:10887000F0BD0F23F1E707992046FFF745FDE37DA3
:1088800043B12A463146019815F0A4FB02A804F032
:10889000EDFCEBE723462A4601993046FFF70DFF32
:1088A000F4E70927E2E7000010B5044690F84830E5
:1088B000012B0CD103F0B8FA237B012B0BD0094B11
:1088C000D968014404F1300003F05AFA10BD78462B
:1088D000FFF700FCEEE7A27D024BD9681B6903FBA2
:1088E0000211EEE74C35002030B583B0002403E0E0
:1088F0002846FFF7D9FF0134032C17D8C4EBC40274
:108900000B4B03EB021393F84830012BF3D10023F8
:108910000193074D05EB021501A92846FFF76EFFED
:108920000428E5D0019B002BE5D0E1E703B030BD82
:108930008C33002038B5044690F84830022B09D11A
:10894000064B1D6803F070FA411904F1300003F082
:1089500017FA38BD7846FFF7BDFBF1E74C3500202C
:1089600038B5044690F84830022B10D10A4B5A7D96
:108970005D689B6803FB025503F056FA411904F148
:10898000500003F0FDF9012384F8683038BD7846C3
:10899000FFF7A0FBEAE700BF4C35002010B5044606
:1089A000808A02F089FD01281CD1237BE3B194F970
:1089B0001620002A1ADBE27D4AB1022B18D094F966
:1089C0000330002B16DBA378B3B900200BE0E2786C
:1089D0000AB9012B12D1237893B9A378042B11D1B2
:1089E000002000E0102010BD1020FCE70720FAE76F
:1089F0001020F8E70720F6E70720F4E70720F2E762
:108A00000020F0E70720EEE738B5044603784BB1C5
:108A1000C388C2698169808A06F0B0FB054645B902
:108A2000284638BDC2698169808A06F0A1FB0546E7
:108A3000F5E7E169002201F00101A08AFFF75EFD80
:108A4000EEE700002DE9F04707460E4615464B1E9F
:108A5000DBB2012B0FD8B5F5C07F10D80024032C52
:108A60004BD8C4EBC40C344B03EB0C1393F84830D5
:108A70004BB10134F3E77846FFF72CFBEBE7784680
:108A8000FFF728FBEAE7DFF8B09009EB0C1828465F
:108A900008F001FEC8F86C0078B33B46424607F187
:108AA000300ED3F800C05C689868D968C2F800C07E
:108AB00054609060D160103310327345F1D10023BF
:108AC000C8F84C30A8F84A50012E1BD06FF00103B3
:108AD000C8F82830002388F86830184BC8F8583098
:108AE000C8F86080164BC8F83830C8F840800120BC
:108AF00002F094F988F8486001E04FF00008404621
:108B0000BDE8F0870F4B1B7D88F85130002388F8B3
:108B1000523088F8533088F85030BA6AC8F8542078
:108B2000A8F858306FF00103C8F82830064BC8F891
:108B30003830C8F84080DAE78C3300204B950200CB
:108B40009D8E02004C350020E98E020000B585B0F4
:108B500000228DF80F20A0B10B46024602320A60B7
:108B60000DF10F01184604F030F99DF80F3043B1B4
:108B70000C4B1B6813F0040F03D00B4B1B68032B2B
:108B800004DC9DF80F0005B05DF804FB074BD3F83B
:108B90000435074A009240F215420649042005F0C8
:108BA000A3F8EEE7182E0020142E0020001001403C
:108BB000E0EA0300D3EA03002DE9F04391B0054653
:108BC0000E4614461F46D0F8188003784BB1C38870
:108BD000C8F30C029A4230D29B1A4344A3F50053C7
:108BE000AB6105F10C00EB7853B30121AA780DF1CC
:108BF00030094B46082A14BF0022012204F0E9F88C
:108C0000C5F81880CDF810900596AB78E21A92B2AC
:108C1000ADF8182016440A9609978DF82C300023D9
:108C2000ADF82030EB78002B41D02B7B022B09D004
:108C300000236B620193029316E09B1A4344CFE733
:108C40000221D3E71023ADF820302B690793EFE71B
:108C500010AB03EB840454F83C3C6B62002011B071
:108C6000BDE8F083019BB3B102AB01AA2979286A60
:108C70000DF05AFD0024012CF4D810AB03EB840353
:108C800053F83C0C0028EDD003A9FFF75FFF002844
:108C9000DED10134EFE72B7B022B2CD105F10C0147
:108CA000E8890DF0EDFD0028BFD10520D7E72B7B2B
:108CB000012B01D00520D2E7EB89ADF80430AB8A57
:108CC000ADF806300024012C13D82946002341F8C2
:108CD000243F10AB03EB440333F83C0C0DF049FD8B
:108CE00003A9686AFFF732FF08B90134EBE70020F7
:108CF000B5E70520B3E70520B1E7000070B5F0B097
:108D00000E4614461D4610AB0A4601462046FFF7A4
:108D100053FF50B1224B1B6813F0040F03D0214BBB
:108D20001B68052B2FDC70B070BD2046FFF76CFE72
:108D30000028F8D103AB01228DF80C20A28AADF8EF
:108D40000E20002204928DF8142010AA0692A27818
:108D5000B11AADF81C1008AA93E8030082E80300DA
:108D60000AAB04F10C0292E8030083E80300A37D40
:108D70008DF83830236A0C93636A0D930F9505A81C
:108D800000F0CEFDCFE7084BD3F80435074A009238
:108D900040F203720649062004F0A6FFC3E700BFB5
:108DA000182E0020142E002000100140F4EA0300C9
:108DB000D3EA030010B50446C06E08F070FC04F15D
:108DC000300002F0C5FF94F84830022B08D0702222
:108DD0000021204615F030F9002002F01FF810BDE8
:108DE00004F1500002F0B4FFF1E710B58CB0044676
:108DF00090F84830012B0FD101238DF80430636DBA
:108E0000029303F011F8039001A800F089FD2046B9
:108E1000FFF7D0FF0CB010BD7846FFF75BF9EBE72A
:108E200030B585B00D460446A8B194F84830022B01
:108E300015D02946606DFFF77DFB2046FFF7BAFF8E
:108E4000114B1B6813F0040F03D0104B1B68032B4E
:108E500009DC05B030BD7846FFF73CF9E5E7204670
:108E6000FFF726FAE5E70A4BD3F8043594F84820D3
:108E700002950192074A009240F2F312064904203B
:108E800004F032FFE5E700BF182E0020142E00206A
:108E90000010014020EB0300D3EA030008B50846A8
:108EA0000021FFF7BDFF08BD08B5037B012B02D0F1
:108EB000FFF79BFF08BD0121FFF7B2FFFAE70000B3
:108EC00008B590F8513053B1013B80F85130002380
:108ED00080F85030034B186803F040FE08BDFFF7E0
:108EE000E3FFFBE70033002010B50C4691F8483053
:108EF000012B03D12046FFF7E3FF10BD7846FFF7B3
:108F0000E9F8F7E706296ED1F0B585B01546067881
:108F1000B20102F4FE5241788478C3781B0443EA1C
:108F20000463047943EA0423407943EA000477B2F6
:108F300042EA91012846FFF731FA0646E0B1002FD8
:108F400031DBC289A98A8A422BD0274B1B6813F0D8
:108F5000040F33D0254B1B68012B2FDD244BD3F896
:108F6000043502910192234A009240F27D62224927
:108F7000022004F0B9FE21E01B4B1B6813F0040F24
:108F80001CD01A4B1B68012B18DD194BD3F8043584
:108F90001A4A009240F279621749022004F0A4FEB6
:108FA0000CE0002F02DAAB8AA6F85830F56C2543A6
:108FB000F5642CB903213046FFF732FF05B0F0BD50
:108FC0003046FFF7E3FA854209D0002186F85010B9
:108FD0003046FFF713FC3046FFF766FCEEE73046FD
:108FE000FFF703FFEAE77047182E0020142E002039
:108FF0000010014074EB0300D3EA030044EB0300CC
:109000002DE9F0438BB007460E4614461D46104628
:10901000FFF7FAFC50B994F80380B8F1000F08D1BB
:109020002B46224631463846FFF76CFF0BB0BDE8B1
:10903000F0834046FFF740FA81460028F6D08DF8CD
:109040000480236A0793A38AADF8123005AB04F1BC
:109050000C0292E8030083E80300A37D8DF8203022
:109060000297039623788DF81030E36A0993294616
:1090700001A8C847DAE792F801C01CF0010F08D038
:1090800010B5D47D14B1FFF7BBFF10BDFFF736FE5E
:10909000FBE7704708B501390130FFF7ECFF08BD69
:1090A00070B5C6B00E46154682782A44C37D2BB1F2
:1090B0004FF48073934278D3002303E04FF4C073DE
:1090C000F8E70133032B14D8C3EBC30C394C04EB82
:1090D0000C1C9CF848100129F3D1BCF81440818A7B
:1090E0008C42EED1BCF80E40C1898C42E9D10825F2
:1090F00054E00121FFF7A6FC0446002857D02A4679
:109100003146C06E14F066FF0023459345A9204602
:10911000FFF774FB054608B1042842D1459B8BB983
:10912000254B1B6813F0040F37D0244B1B68032B0F
:1091300033DDB4F84AC0BCF1800F28BF4FF0800C7B
:10914000002313E02046FFF7AFFBE9E7E26ED25CB5
:109150001B490D68100959002E5C04A800F8136023
:1091600002F00F020131AA5C425401336345EDD392
:1091700004AA002302F81C3003F1804303F588336E
:10918000D3F8043502920F4A01920F4A00924FF42D
:10919000AC620E49042004F0A7FD0025284646B025
:1091A00070BD2046FFF706FEF8E70925F6E704251F
:1091B000F4E700BF8C330020182E0020142E00206E
:1091C0001C2E0020B8EB0300C8EB0300D3EA030019
:1091D00070B504460D461646FFF7E0FB30B923781C
:1091E0002BB1324629462046FFF75AFF70BD324662
:1091F00029462046FFF727FBF8E7000038B504466C
:109200000D46CB695B780371CB691B7883F0010352
:10921000C370CB6943628B8A0B2B07D8CB7A002BA8
:1092200035D10B7B012B02D0002300E001232370FA
:10923000002B31D0287B02282BD0FFF701F9A0703A
:10924000AB8A03440B33174A82FB03235B10013BB9
:109250006372002323720023E37504F10C0395E885
:10926000030083E80300AB6923622B89A382AB7AF6
:10927000A3752B6AA362DF23E36228460DF02EFB61
:1092800020B12B78012B0AD0FF23E36238BD0123E4
:10929000CDE7054B987DD0E70423A370DBE72023BF
:1092A000F3E700BFABAAAA2A4C35002010B54FF453
:1092B000E0720021134814F0BFFE05F02BFF0024DC
:1092C000114B1C6080222146104814F0B5FE104B53
:1092D000104A1A60104A5A604CF250329A600F4994
:1092E000D9601A6104221A759C7508225A750C48B7
:1092F00003F014FC0B4B18600B4B1C600B4806F082
:109300002FF910BD8C330020883300200833002053
:109310004C35002080969800F049020020A10700FB
:109320003D95020000330020F43200205D850200EC
:1093300008B505F00FFF08BD98B110B58CB0044614
:10934000036983B1C36983B1836983B10146684608
:10935000FFF754FFA28A21696846FFF739FF0CB076
:1093600010BD0E2070470E20F9E70E20F7E70E2003
:10937000F5E7000058B310B590B00A4604464368BC
:109380003BB383693BB3014604A8FFF75EF8134B78
:109390001B6813F0040F03D0114B1B68062B06DC6F
:1093A000A268616804A8FFF713FF10B010BD0D4B51
:1093B000D3F804352278A169029101920A4A0092F9
:1093C00040F605020949072004F08EFCE8E70E206C
:1093D00070470E20E9E70E20E7E700BF182E0020B7
:1093E000142E002000100140D0EB0300D3EA03004C
:1093F000037B012B01D000207047F0B591B00446EB
:109400000D46354B1B6813F0040F03D0334B1B681C
:10941000032B46DC04AF002604960596CDF81760B2
:10942000E1883846FEF7F4FE2B0E8DF812302B0C37
:109430008DF813302B0A8DF814308DF815506378A1
:10944000022B0CBF012232469DF8103003F07F033F
:109450008DF8103043EAC2138DF810304FF0060338
:1094600009934FF001038DF82C30A38AADF82E300C
:109470000C968DF81C600897236A0D938DF8286070
:10948000E36A0F9319D0E389ADF82A30A37DF3B9CD
:109490008DF838306FF0010107A8FFF76BFF11B0AE
:1094A000F0BD0F4BD3F804350E4A009240F2632210
:1094B0000D49042004F018FCACE70DF10E0103A8DF
:1094C0000DF0FAF9BDF80C30ADF82A30DEE7074BA5
:1094D0005B7D8DF83830DDE7182E0020142E00203B
:1094E00000100140FCEB0300D3EA03004C350020E0
:1094F00090F84830022B00D0704710B5044690F821
:109500006830022B00D010BDC16CFFF771FF00283E
:10951000F9D1002384F86830F5E7000010B5002485
:1095200007E0C4EBC402130103481844FFF7E0FF4F
:109530000134032CF5D910BD8C33002008B5FFF79A
:10954000D3F9FFF7EBFF012008BD10B50C4691F8E9
:109550004830022B06D1022384F868302046FFF7FA
:10956000C7FF10BD7846FEF7B5FDF4E7F0B583B050
:109570000446C1698369C2880E0A0906C3F30C0058
:1095800082422FD9121A1A44A2F500528D1846F1C0
:1095900000062A463346A08AFEF76AFE002840F0FD
:1095A00082802046FEF72CFF074630B3C2698069EF
:1095B000F988130A1206C0F30C0C8C4515D2A1EBE6
:1095C0000C010144A1F50051521843F10003AA42D5
:1095D00073EB06010DD3954276EB030330D3384687
:1095E00003B0F0BD121A1A44D0E7A1EB0C010144FC
:1095F000EAE705213846FFF713FCE388E269A16931
:10960000A08A05F019FEE8B9627A0132E37D6BB3F6
:10961000082101FB02F25BB34FF4807393422AD31B
:1096200002212046FFF70EFA07460028D7D1002175
:109630002046FFF7DDFE02210020FEF77BFFCEE78C
:109640000027CCE7E388E269A169A08A05F024FE3F
:1096500008B90027C3E72046FEF798FF01462046D9
:10966000FFF7C6FE2046FFF7CFF9F2E70C21D0E75F
:109670004FF4C073D2E70D4B1B6813F0040F03D0F7
:109680000B4B1B68002B01DC0027A8E7094BD3F824
:1096900004350192084A009240F27F3207490120C6
:1096A00004F022FBF0E7002799E700BF182E002006
:1096B000142E0020001001400CEC0300D3EA03003C
:1096C0002DE9F04182B007460E46144698461046F2
:1096D000FFF74CFF002842D005463C4B1B6813F0B7
:1096E000040F03D03A4B1B68032B3BDC2846FFF7E3
:1096F00021F92B7B012B43D0EB6C217A01228A408C
:1097000013422CD11343EB64043E237AE27D002AFA
:109710003ED04FF0080C0CFB03FC697A8B423AD028
:10972000002A3DD00823B3423CD1AA69A3699A42DA
:1097300009D205F10C0E0C340FCCAEE80F0094E802
:1097400003008EE80300E86E3246391D604414F0D1
:1097500041FCEC6C2846FEF719FF844227D002B08A
:10976000BDE8F0811B4BD3F80435227A01921A4AE6
:10977000009240F2A3321949042004F0B5FAB5E78B
:1097800095F86830002BB7D12846FFF7E9F8B3E722
:109790004FF00C0CBFE70CEB0603A5F84A30C4E70A
:1097A0000C23C0E704212846FFF73AFBD7E7E96C12
:1097B0002846FFF71DFE43462A46B5F84A10E86ED4
:1097C000FFF759FC2846FFF7F5FAC8E7182E0020E6
:1097D000142E00200010014020EC0300D3EA030007
:1097E0002DE9F04190B000284CD00F4614461E469B
:1097F0008046002A48D004AB00933346FEF7D4FEDF
:10980000054618B1284610B0BDE8F08104A8FFF75E
:10981000C5F805460028F5D100230293039302A959
:1098200060880DF02DF828B19DF8113043F0010348
:109830008DF811302269E168208905F0DDFC38B12E
:109840009DF8113003F0FE038DF81130002BD9D0B4
:109850009DF81130002BD5D013F0010F01D0039BE0
:1098600008939DF8103033B1334604AA3946404678
:10987000FFF726FFC6E7334604AA39464046FFF7FE
:1098800009FCBFE70E25BDE70E25BBE7F8B508B319
:109890000E460546164B1F68F7B93C46B4420FD238
:1098A00005EBC4035B68D3B115F8340015F9343007
:1098B000002B16DBB8B1FEF7FFFDB0B90134EDE7C0
:1098C0000C4B43F8375003EBC7035E607B1C084A20
:1098D000136002E00E2700E004273846F8BD0E278B
:1098E000FBE70B27F9E70F27F7E70F27F5E700BF9F
:1098F000F4320020F8320020084B196861B110B52D
:1099000001E021463CB10C680B79002BF9D00348EB
:1099100004F092F9F5E710BD704700BF68350020EC
:1099200038B5054630B1104B1C68C4B10F4B01224D
:109930001A7004E07846FEF7CDFBF4E724683CB1EA
:109940002379002BFAD154F8043C28469847F5E7D0
:10995000064B1B78022B03D0044B00221A7038BD33
:10996000FFF7CAFFF8E700BF683500206435002024
:1099700010B5044630B100232372211D034804F0C2
:1099800038F910BD7846FEF7A5FBF4E768350020EE
:1099900010B5044658B10A4B1B78013BDBB2012BD2
:1099A00009D8074B02221A700123237210BD784692
:1099B000FEF790FBEFE7211D024804F03DF9F5E7C3
:1099C00064350020683500200A8883689B5A073375
:1099D0009BB223F0030313449BB20288043A9342E0
:1099E00000D900230B80704710B582B0044683680D
:1099F000C91AADF806100DF10601FFF7E5FFBDF835
:109A00000630A068184402B010BD0088043880B247
:109A1000704743888268D018D15201238370704701
:109A200082680023937043808380704708B50731B4
:109A300089B221F0030189B2428883889A4204D214
:109A40009B1A994220DC002008BD9A4212D9B0F836
:109A500000C0ACEB020C614518D98B4218D3BCF1A5
:109A6000030F03D98368134404229A7000234380B0
:109A70001846E9E782681A4493780BB10420E3E7BB
:109A8000FFF7CEFF0020DFE70420DDE70020DBE763
:109A90000420D9E738B504460D468368828813440C
:109AA0008B4202D07846FEF715FB0023AB70211DD8
:109AB0002046FFF789FFA288A36813449B78042BF4
:109AC00000D038BD0023A380FBE710B50C468368A7
:109AD000428813448B4202D07846FEF7FBFA0023FB
:109AE000A37010BD70B5054614460E46002944D03B
:109AF000002D46D0B6F1005F08D94FF08053D3F85F
:109B00000C3103F50023B6EB832F0ED3B6F5000F0F
:109B100008D94FF08053D3F80C3103F50053B6EB5E
:109B2000832F02D37846FEF7D5FA631E3344B3F190
:109B3000005F08D94FF08052D2F80C2102F50022C4
:109B4000B3EB822F0ED3B3F5000F08D94FF080523C
:109B5000D2F80C2102F50052B3EB822F02D37846E3
:109B6000FEF7B8FA042C10D92C8000236B80AB8050
:109B7000AE60043C3480B37070BD7846FEF7AAFA3C
:109B8000B6E77846FEF7A6FAB4E77846FEF7A2FAFB
:109B9000EAE738B50446A0B16288A36813449B780D
:109BA000012B12D0EFF3108572B6A388A168194477
:109BB0008B78032B0DD02046FFF732FF05B962B634
:109BC00038BD7846FEF786FAE6E77846FEF782FA71
:109BD000E8E72046FFF708FFA368C31A6380002365
:109BE0008370EBE72DE9F0410E4614460546D0B1EF
:109BF000EEB16A88AB6813449B78012B1BD024B369
:109C00002846FFF702FFA04221D3EFF3108872B677
:109C100021462846FFF70AFF074680B1B8F1000F3A
:109C200016D162B614E07846FEF754FAE0E77846BB
:109C3000FEF750FADDE77846FEF74CFADFE72146FB
:109C40002846FFF7E6FE3060E8E7092700E009272D
:109C50003846BDE8F081F8B50C4615460646E0B139
:109C6000FCB1A378012B20D12388AB4221D325B3AB
:109C7000EFF3108772B625800223A370F1183046E7
:109C8000FFF7A2FE7388B288934203D0B2681344F0
:109C900000229A7007B962B6F8BD7846FEF71AFA44
:109CA000DEE77846FEF716FADBE77846FEF712FAAB
:109CB000DAE77846FEF70EFAD9E77846FEF70AFAB1
:109CC000D6E770B50C46054690B1ACB1EFF31086FF
:109CD00072B6AA88AB6813449A78042A10D09A788E
:109CE000022A15D0032A18D0052006B962B670BD25
:109CF0007846FEF7EFF9E8E77846FEF7EBF9E5E797
:109D0000291D2846FFF760FEAA88AB681344E6E7E2
:109D100003229A7023600020E7E77846FEF7DAF91D
:109D20000020E2E738B5044680B1EFF3108572B643
:109D3000A388A16819448B78042B0BD0887802285B
:109D400014BF0020012005B962B638BD7846FEF781
:109D5000C1F9EAE72046FFF747FE0146EEE738B5CE
:109D6000054630B1EFF3108472B6AB88A968194488
:109D700007E07846FEF7AEF9F4E72846FFF734FE31
:109D800001468878C31EDBB2012BF6D9022814BF26
:109D90000020012004B962B638BD70B50C460646F5
:109DA00078B194B1EFF3108572B6A378012B10D07F
:109DB000032B13D121463046FFF76CFE05B962B67E
:109DC00070BD7846FEF786F9EBE77846FEF782F934
:109DD000E8E721463046FFF778FEEFE77846FEF7E2
:109DE00079F9EBE710B5EFF3108472B683888168D8
:109DF00019448B78042B06D08878B0FA80F040099B
:109E000004B962B610BDFFF7EFFD0146F4E70000AC
:109E1000024B00221A769A600220704774350020A7
:109E200008B5064B986800221A605A609A60DA609A
:109E30001A615A619A6104F0FDFD08BD7435002075
:109E400000B585B00A4BDB6802228DF80020019333
:109E50004FF480530293074A6946012001F044FA07
:109E600018B9012005B05DF804FB0020FAE700BF37
:109E7000743500207235002000B585B00A4B1B6890
:109E800002228DF8002001934FF480530293074A79
:109E90006946012001F028FA18B9012005B05DF8E3
:109EA00004FB0020FAE700BF903500207235002047
:109EB000164BDA68137951795B1A03F57F2303F6A1
:109EC000FF7302EB03339A4205D002F580520F4B29
:109ED000DA600320704700B585B00D4B1B68012088
:109EE0008DF8000001930B4B0393042302930A4A5D
:109EF000694601F0F9F918B1002005B05DF804FBDE
:109F0000024B01221A760220F7E700BF74350020C9
:109F1000903500206C3500207235002000B585B0EA
:109F20000C4BDA680C4B1B68043301208DF80000E1
:109F30000192039340F6FC730293084A694601F0CC
:109F4000D3F928B90120034B187605B05DF804FB5E
:109F50000020FAE77435002090350020723500208B
:109F600000B585B00A4B1B6801208DF800000193F5
:109F7000084B039304230293074A694601F0B4F99E
:109F800018B9012005B05DF804FB0020FAE700BF16
:109F900090350020803500207235002010B584B047
:109FA000104BDA681478104B1B68043301208DF8CD
:109FB00000000193039202940C4A694601F094F95F
:109FC00070B9094B1B6804F0FC0423440433054AB0
:109FD0005361D1680B780B441361012004B010BDAC
:109FE0000020FBE7743500209035002072350020FA
:109FF00008B500230A2B09D8064A52F823208242CA
:10A0000001D00133F6E7044A536002E07846FEF7D8
:10A0100061F808BDDCEC03007435002010B504467F
:10A0200003886BB1208804EB800020F47F6323F069
:10A030000F03984208D06388B3F5FE4F04D010BDDB
:10A040007846FEF747F8EDE724F47F6424F00F0428
:10A0500004F5805420782044F1E738B504460D46D5
:10A06000FFF7DCFFA84209D2844209D24388013BB2
:10A070009BB247F6FE629342F2D800E0002038BD62
:10A080000020FCE770B50446084615461E4600232E
:10A0900063604B88013B9BB247F6FE62934201D856
:10A0A000206009E02946FFF7D8FF0028F8D120609A
:10A0B00016E06360FFF7B2FFA84211D2636802881E
:10A0C00003EB8203B3420BD222684240B2F5805FB9
:10A0D00006D24188013989B247F6FE629142E8D939
:10A0E00070BD000030B587B0294B1B6923B1284BE8
:10A0F0005B692BB1002526E07846FDF7EBFFF6E71C
:10A100007846FDF7E7FFF5E7214A526901208DF80F
:10A1100008000392009A059204931E4A02A901F0D6
:10A12000E3F800282DD11A494B69019A22F0030265
:10A1300013444B610CB3164B1C6124B3628847F681
:10A14000FF739A421FD00DBB11494A6922F47F6305
:10A1500023F00F039B1AC86802794479121B03F598
:10A16000805300EB023209696846FFF78BFF044613
:10A17000019B002BC8D10125DFE77846FDF7AAFF38
:10A18000D9E7002000E0012007B030BD0120FBE747
:10A19000743500207235002010B5214BDB6853B1B7
:10A1A0001F4B1B7E5BB91E4B5B680A2B1CD9784684
:10A1B000FDF790FF18E07846FDF78CFFF0E7784652
:10A1C000FDF788FFEFE7164B00225A6007E0144BBB
:10A1D0001B7E03B3124B02221A70012C01D0032CF8
:10A1E0001CD10F4B1B7ECBB90D4B5A680D4B53F84E
:10A1F0002230984704460228E9D00328E3D00128FA
:10A20000EDD1074A5368013353600A2BE5D97846EC
:10A21000FDF760FFE1E7FFF703FEDEE710BD00BFDB
:10A2200074350020DCEC0300104B1B681B685A1EC1
:10A2300012F1030F18D8C3F30B020AB100207047C4
:10A2400010B50B4AD36000231376537601241470A3
:10A2500093600848FFF7CCFE0749204601F032F82A
:10A26000FFF79AFF204610BD002070479035002070
:10A2700074350020419E02007DA2020008B50B78D3
:10A28000032B06D00B4B1B78012B06D0022B0BD0D7
:10A2900008BD084B00221A76F4E7064B1B7E002B04
:10A2A000F6D1FFF779FFF3E70B78032BF0D1FFF737
:10A2B000B7FDEDE77435002000B585B0174BDB68BE
:10A2C00018784FF6FF7203F58051184405F01BF91A
:10A2D000E0B10246114BD9680B780B44984217D075
:10A2E0000E4B5B7E83B10E4B01208DF80000019276
:10A2F0000393042302930B4A694600F0F5FF48B923
:10A300000120064B187606E0074BEDE7012002E03E
:10A31000012000E0002005B05DF804FB743500204A
:10A320002CF003007235002030F0030070B584B0CB
:10A33000264BDE6872793379591E8A4232D006F58F
:10A3400080510C780C4422490968081D0D79054498
:10A350009B1A06EB03366388013B9BB247F6FE620D
:10A36000934223D844B31A4B1968628801F580518F
:10A37000284605F0C8F80546F0B10120134B1876C1
:10A380008DF800000194134B039304230293124AA7
:10A39000694600F0A9FFB8B931462046FFF75DFED7
:10A3A0000446DFE70120094B58760BE03146204692
:10A3B000FFF753FE0446D5E7B4FA84F46409034B6F
:10A3C0005C76012004B070BD0020FBE774350020EE
:10A3D0009035002034F003007235002008B5104B92
:10A3E000DB681878002203F58051184405F08BF8DB
:10A3F00008B1012008BD0A4BDA68137951795B1A5C
:10A4000003F57F2303F6FF7302EB03339A4205D073
:10A4100002F58052024BDA600320EBE70220E9E705
:10A420007435002000B585B00023294A1370D3F895
:10A43000F83FB3F1FF3F09D0B3F1FF3F0DD08BB12F
:10A44000B3F1FF3F39D0A3F5805211E04FF0102255
:10A450005269B2F1FF3FEFD104E04FF01022526990
:10A46000002AEDD14FF080535A691B6903FB02F2B9
:10A47000A2F58052174B1A60174B1B6813F4801F0C
:10A4800016D0164B1B68062B12DD154BD3F804357E
:10A490000021D1F8F81FB1F1FF3F14D002920191D1
:10A4A000104A009240F276220F49072003F01CFC6C
:10A4B000FFF7BAFE05B05DF804FB4FF010235A69B0
:10A4C000A2F58052D4E74FF010214969E6E700BFBA
:10A4D0007035002090350020182E0020142E00200A
:10A4E00000100140A8EC03008FEC030010B50446F7
:10A4F000B0B1104B1B78BBB10E4BD968E3685879EB
:10A50000A3EB0032914211D31A79121A02F57F227D
:10A5100002F6FF7203EB0233994209D8012004E0EE
:10A520007846FDF7D7FDE4E7002010BD0020FCE7EA
:10A530000020FAE774350020024B1878003818BF65
:10A54000012070477435002010B50446124B1B786B
:10A55000BBB92378032B18D10F4B9C60E268DA60FB
:10A560000E4B1B78ABB10A220B4B5A6000221A76B5
:10A57000012018705A760A4900F0A4FEFFF70CFE7D
:10A5800010BD7846FDF7A6FDE3E77846FDF7A2FD8E
:10A59000E2E70022E8E700BF7435002070350020B4
:10A5A0007DA20200014B1868704700BF9035002063
:10A5B00010B5044680B163681BB123680BB1A36872
:10A5C00013B97846FDF786FDA3685A1E134207D1DA
:10A5D0000023E360236110BD7846FDF77BFDEAE7C9
:10A5E0007846FDF777FDF3E770B508B30E460446ED
:10A5F0008368FBB1EFF3108572B60369C2689342BA
:10A6000012D001684268806800F1FF3C03EA0C0345
:10A6100003FB021116B1304613F0DCFC2369013351
:10A6200023614DB962B608E005B962B6052504E0BC
:10A630000E2502E0092500E00025284670BD000037
:10A640000246C0F30B0030BB39B301F6FF714FEA8D
:10A65000113C134B0221C3F80415114BD3F80034FD
:10A66000002BFAD001460AE00D4BC3F808250C4B2D
:10A67000D3F80034002BFAD002F580520131614545
:10A68000F2D3074B0022C3F80425054BD3F800345E
:10A69000002BFAD07047102070470920704700BF88
:10A6A00000E00140844610F0030F2DD111F0030F9C
:10A6B0002CD16AB312F0030F2CD19008164B012253
:10A6C000C3F80425144BD3F80034002BFAD003E070
:10A6D0000CF1040C04311046421E58B10B68B3F162
:10A6E000FF3FF5D0CCF800300B4BD3F80034002BF3
:10A6F000FAD0EDE7084B0022C3F80425064BD3F847
:10A700000034002BFAD0704710207047102070479B
:10A71000092070470920704700E00140094B1B7871
:10A7200013F0040F02D00378122B00D07047064BB1
:10A730001A68064B5A60034B1A786FF382021A703C
:10A74000F4E700BF10360020F03500202C36002042
:10A7500010B582B001900C46BDF80630012B11D126
:10A7600023680A490B600A4B1A7842F001021A70FA
:10A77000D3B25B0883F0010303F001030B710020E7
:10A7800002B010BD7846FDF7A5FCE9E7F0350020E2
:10A790001036002010B582B001900C46BDF806308E
:10A7A000022B0FD12268094B1A6022791A710020FE
:10A7B00058719871D871064A137843F002031370E8
:10A7C00002B010BD7846FDF785FCEBE7F8350020B8
:10A7D0001036002010B582B001900C46BDF806304E
:10A7E000032B06D1054B186820601B79237102B03A
:10A7F00010BD7846FDF76EFCF4E700BFF035002091
:10A8000010B582B001900C46BDF80630032B0CD178
:10A81000084B2068186022791A71074A137843F0B0
:10A8200001031370002002B010BD7846FDF752FC02
:10A83000EEE700BFF03500201036002010B582B0E2
:10A8400001900C46BDF80630042B05D1044B03CB18
:10A850002060616002B010BD7846FDF73BFCF5E773
:10A86000F835002010B582B001900C46BDF80630D6
:10A87000042B0BD1074B2068616803C3064A137889
:10A8800043F002031370002002B010BD7846FDF7BC
:10A8900021FCEFE7F83500201036002000B583B02A
:10A8A0000190BDF80630032B06D1054B00221A603B
:10A8B0001A7103B05DF804FB7846FDF70BFCF4E772
:10A8C000F035002000B583B00190BDF80630042BB0
:10A8D00006D1054B00221A605A6003B05DF804FBF4
:10A8E0007846FDF7F7FBF4E7F835002000B585B0B2
:10A8F0001A4B1B7813F0400F13D0184B1B7813F032
:10A90000040F0BD1002301938DF80830144B5B68C2
:10A9100003F500530193B3F1807F06D905B05DF8CC
:10A9200004FB7846FDF7D6FBE7E70E4B1B788DF866
:10A9300008300A4A137843F0040313700023ADF87B
:10A940000C300323ADF80E3001A9039805F064FF25
:10A950000028E3D07846FDF7BDFBDFE71036002086
:10A960002C3600200036002000B585B00022019270
:10A9700002920F4B996801911B7B8DF808300D49AD
:10A980000B780133DBB20B708DF80B30ADF80C2077
:10A990000423ADF80E300DEB0301039805F03CFFE6
:10A9A00010B905B05DF804FB7846FDF793FBF8E7B6
:10A9B0002C3600200036002000B585B0002301931E
:10A9C00002930F4A91680191117B8DF80810128A49
:10A9D000ADF809200B4A12788DF80B20ADF80C3039
:10A9E0000423ADF80E300DEB0301039805F014FFBE
:10A9F00010B905B05DF804FB7846FDF76BFBF8E78E
:10AA00002C3600200036002000B58DB00B4B1B7B90
:10AA1000012B0ED0094A926804928DF808300390F9
:10AA200002238DF8043001A8FEF77AFF0DB05DF81F
:10AA300004FB024A9268013A0492EEE72C360020A9
:10AA400008B51D481D4B036000F0B8FE1C4B1B7879
:10AA500013F0200F2AD103F00303032B14D1194B59
:10AA60001968194A916019791173B3F805001082B9
:10AA7000DB79164A1370164A1279934217D0B1B98E
:10AA8000114B00221A6007E00F4B00221A609A60F7
:10AA90001A731A82FFF768FF0B4B1A685A60084A4C
:10AAA000137843F040031370FFF720FF08BD084BF5
:10AAB0001A68054B1A60EFE7E43500201DA7020075
:10AAC00010360020F83500202C36002000360020FB
:10AAD000F035002010B582B00024ADF8004001230D
:10AAE000ADF80230009805F0C8FEADF8044002232E
:10AAF000ADF80630019805F0C0FE02B010BD0000B0
:10AB000008B5002005F0E0FE094A002313605360F9
:10AB10009360D3601361074A117863F34511117094
:10AB2000CBB243F040031370FFF7E0FE08BD00BF57
:10AB30002C3600201036002038B50C4D00242C6037
:10AB40006C60AC60EC602C6101F06EF9084B5860F1
:10AB5000084A9A60084ADA601C615C61074B1A78FF
:10AB600064F3C3021A706C6038BD00BF2C3600203D
:10AB700014360020B5AC0200008793031036002085
:10AB800008B50C4B1B7813F0100F00D008BD0A4815
:10AB90000A4B036000F012FEFFF752FFFFF79AFF27
:10ABA000074801F0A5F8034A137843F01003137027
:10ABB000ECE700BF1036002004360020F1AD0200A3
:10ABC00014360020034B1878800880F0010000F054
:10ABD000010070471036002010B501F051FF144BF2
:10ABE0001B7BDBB9124B9B7BEBB9114B1A8A41F2F1
:10ABF00082639A4204D80F4B1B7813F0080F14D0CD
:10AC00000B4B01221A7300241C829A6801329A604D
:10AC1000FFF7AAFE2046FFF7F7FE00E0082401F048
:10AC200055FF204610BD0824F9E70824F7E700BFC8
:10AC30002C3600201036002010B501F021FF1B4BF0
:10AC40005C7B64B39B7B4BBB184A118A41F28262E6
:10AC5000914204D8164A127812F0080F23D0134BF1
:10AC600000225A731B7B2BB1012B0AD07846FDF7CB
:10AC700031FA14E0FFF7B0FF88B17846FDF72AFA01
:10AC80000DE00A4B00201860586018731882FFF717
:10AC9000BBFEFFF769FEFFF729FE00E0002401F08C
:10ACA00015FF204610BD1C46F9E700BF2C360020DA
:10ACB0001036002008B5254B1B7BDBB1012B27D0BC
:10ACC0007846FDF707FA214A138A01339BB21382B3
:10ACD0001F4AA2FB03121209C2EB0212A3EB4203AA
:10ACE0009BB2002B2FD0194B5B8A13B1013B174A43
:10ACF000538208BD154B1A8A41F282639A4204D8E6
:10AD0000144B1B7813F0080FDDD0FFF795FFEAE72F
:10AD10000E4B1B8A41F28262934204D80D4A12788C
:10AD200012F0080FCFD042F2B012934202D9074B73
:10AD300001225A73FFF780FF0028D4D1034B5B7BBD
:10AD4000012BC0D1CFE7FFF737FECCE72C36002030
:10AD5000898888881036002010B5244B1B7B002B77
:10AD600034D10446214B5B8A23BBF2B91F4B9B684D
:10AD70008B422DD21D4B9B682A338B4228D31B4B11
:10AD80009B7B2BBB194B996000221A605A601A8278
:10AD900042F6065159825A731A73FFF7E5FDFFF721
:10ADA000A5FD2046FFF730FE12E0104B9B680133F3
:10ADB0008B42DFD362B10D4B9B6801338B4207D1CD
:10ADC0000A4B01225A73FFF737FF01E0012B00D035
:10ADD00010BD002AFCD1054B9B688B42F8D1034B78
:10ADE00001225A73FFF728FFF2E700BF2C3600203C
:10ADF0000378042B00D0704743681B78002BFAD0EF
:10AE000010B58468027E437E012A14BF002201220D
:10AE1000416904F11000FFF79FFF10BD08B538B17C
:10AE20000D4B01229A730D4A13680133136008BD5C
:10AE30000A4B1B685BB1094A1368013B1360002B86
:10AE4000F5D1054B00229A73FFF7F6FEEFE778463F
:10AE5000FDF740F9EFE700BF2C36002094350020C5
:10AE600000B58DB0ADF808008DF8102003910323D4
:10AE70008DF8043001A8FEF753FD0DB05DF804FB1A
:10AE8000014B9868704700BF2C360020054B1B7B98
:10AE9000012B02D0034B98687047024B9868013829
:10AEA000704700BF2C3600201D4B1B7813F0400F5D
:10AEB00034D070B504460D461A4B1A685B689A4246
:10AEC00028D2184B1B7B012B17D0174B9A4216D256
:10AED000144B1A685B68403B9A4218D2EFF3108615
:10AEE00072B6104A1368591C11602B60FFF7CEFF31
:10AEF000206006B962B6002070BD0C4BE6E7094B36
:10AF000001225A73FFF798FE0028E7D1E0E7FFF728
:10AF1000EDFCE3E7FFF7EAFC0F20EDE70F207047B9
:10AF2000103600202C360020FFFF7F0000E0FF00DD
:10AF3000044B9B68584010F0010F00D0013B1846AD
:10AF4000704700BF2C360020014B187B704700BFB4
:10AF50002C3600202DE9F041002625E0134605FBA4
:10AF600003F3244AD25A3046C0472249BC2305FB8A
:10AF700003F3CA5A0132CA520221204602F04BFDA5
:10AF800001370221204602F026FD014649B1194B46
:10AF9000BC2202FB0533D3F80880B8F1000FDDD1E5
:10AFA000E3E797B90136F6B2022E1FD83546BC2426
:10AFB00006FB04F408340F4B1C44043402212046E1
:10AFC00002F009FD01460027E0E7204602F07BFD84
:10AFD0000828E7D1074BBC2202FB05339B68002BF6
:10AFE000E0D00022044930469847DBE70120BDE865
:10AFF000F08100BF4836002018ED030008B5082393
:10B0000083731023437300F11C0343610323037311
:10B0100000F1180303610C3002F027FD08BD0000A9
:10B0200008B50378012B06D0022B06D07846FDF731
:10B0300051F8002002E0292000E0014808BD00BFCF
:10B04000084C010008B50378012B07D0022B15D05E
:10B050007846FDF73FF84FF4FA700AE083685B1A10
:10B0600023F0030000EB9300C00000EB930000F519
:10B07000FA70074B984228BF184608BD8068401AEE
:10B08000000B044B03FB00F000F5FA70F1E700BF82
:10B0900060850100084C010038B5044601210C30E0
:10B0A00002F099FC054678B1084BC4F89C300023A7
:10B0B000C4F8A0306168FFF7C5FFC4F8A800C4F861
:10B0C000AC40012384F8B830284638BDEDB1020009
:10B0D00010B50446FFF7E0FF20B104F19C000CF02E
:10B0E000E7F900B910BD7846FCF7F4FFFAE7000075
:10B0F000F8B505460C46164617680378012B19D19A
:10B10000124BA3FB043149098B00AC68E41BB4EB80
:10B11000810F00D31C468CB1686827F00307E968EB
:10B12000224639443844FFF7BDFA58B933682344FE
:10B130003360F8BD7846FCF7CDFFE1E77846FCF7D1
:10B14000C9FFE9E77846FCF7C5FFEFE77D0CCEC7FE
:10B15000F8B506460C46154617680378022B17D13A
:10B16000114BA3FB04231B0C1A03B468E41BB4EBC0
:10B17000033F00D314467CB1706827F003072146D3
:10B180003844FFF75DFA58B92B6823442B60F8BDAB
:10B190007846FCF79FFFE3E77846FCF79BFFEBE779
:10B1A0007846FCF797FFEFE7EB0661C538B5054633
:10B1B0000C4611462378012B06D0022B0FD078467F
:10B1C000FCF788FF002004E0021D2046FFF790FFF7
:10B1D000A0686B68834214BF0020012038BD021DA7
:10B1E0002046FFF7B5FFA068F3E700002DE9F8431C
:10B1F0000F46D1F8A850254B1B786BB90446A5F52E
:10B20000FA7501F10C080121404602F0E4FB064604
:10B2100048B14FF0000922E00CF086F9002387F8CE
:10B22000B830BDE8F8837846FCF754FFF1E70CF03E
:10B230007BF90121404602F0EEFB00237B6087F89A
:10B24000B830134B186801F089FC3846FFF740FF0F
:10B25000E7E73046FFF7E4FE4844A8420FD8A5EBE5
:10B26000090231463846FFF7A1FF0028DFD101F07F
:10B2700025FAB0EB0409ECD5A4EB0009E9E70CF0E2
:10B2800053F93846FFF724FFCBE700BF7C38002096
:10B290004436002010B5084801F040FC074B186008
:10B2A000002406E0BC20064B00FB0430FFF7A6FE9E
:10B2B0000134022CF6D910BD55AF020044360020EF
:10B2C0004836002038B504460D46022805D8054BFF
:10B2D000BC2202FB04339D6038BD7846FCF7FAFEC1
:10B2E000F5E700BF483600202DE9F84306460D4635
:10B2F0001746022816D8CDB12B78012B1AD0022B75
:10B300003ED16B68C3F30B03002B31D1AB68C3F3A1
:10B310000B03002B30D1AB68002B34D17846FCF7FF
:10B32000D9FE30E07846FCF7D5FEE4E77846FCF736
:10B33000D1FEE1E76B6813F0030F0DD1EB6813F05A
:10B34000030F0DD1AB6813F0030F0DD1AB68D3B968
:10B350007846FCF7BFFE16E07846FCF7BBFEEDE74B
:10B360007846FCF7B7FEEDE77846FCF7B3FEEDE76D
:10B370007846FCF7AFFEC9E77846FCF7ABFECAE7B4
:10B380007846FCF7A7FEEFF3108872B6BC2406FBE4
:10B3900004F408342A4B1C4404340021204602F0F3
:10B3A0001AFB814678B30021204602F034FB28685E
:10B3B0006968AA68EB68C9F80000C9F80410C9F800
:10B3C0000820C9F80C302FB11D4BBC2202FB0633FC
:10B3D0005B883B801A4BBC2202FB06335A88013241
:10B3E0005A8093F8B83083B9164B1B7813B10024F8
:10B3F000A1460CE0BC20124B00FB0630FFF74CFED0
:10B400008146002403E0042401E00024A146B8F1B1
:10B41000000F00D162B6B9F1000F09D0BC2303FBC5
:10B4200006F09830064B184404300CF041F810B97F
:10B430002046BDE8F8837846FCF74CFEF8E700BFED
:10B44000483600207C38002038B5EFF3108572B6FE
:10B4500068B1164A136801331360144B1B68003B34
:10B4600018BF0123124A137005B962B638BD0F4BDD
:10B470001B682BB10D4B1C68013C1C602CB1ECE728
:10B480007846FCF727FEF5E70134022CE5D8094B96
:10B49000BC2202FB043393F8B830002BF4D1054BE7
:10B4A00002FB0430FFF714FEEEE700BF4036002039
:10B4B0007C3800204836002018B1830B024AD05C4B
:10B4C00070470020704700BF28ED030012DF70476F
:10B4D00000B583B001F07AFF40B10C4B1B6813F04C
:10B4E000400F03D00A4B1B68012B02DC03B05DF850
:10B4F00004FB084BD3F804350190074A00927522EB
:10B500000649022002F0F0FBF0E700BF182E0020F1
:10B51000142E00200010014088ED03007BED030095
:10B5200000B58DB0114B1B78022B06D07846FCF786
:10B53000D1FD01200DB05DF804FBFFF743FB18B906
:10B540000B48FEF715FAF4E70CF03AFD074B03221F
:10B550001A702C22002101A812F06EFD1D238DF817
:10B56000043001A8FEF7DCF9E3E700BF8C380020C7
:10B57000042E002008B50378122B00D008BD044823
:10B58000FEF706FA034B186801F0E8FAF6E700BF89
:10B59000042E00208438002010B58AB00CF048FD3D
:10B5A00070B3044600238DF810300DF1140C86465C
:10B5B000BEE80F00ACE80F00DEF80030CCF8003039
:10B5C000627D052A04D9237D03F00F03072B1ED1CA
:10B5D000164B1A688AB104AB0393237DC3F30303AC
:10B5E0008DF80430637D062B1BD9063B8DF80530A2
:10B5F00004F11D03029301A8904720460CF002FDC0
:10B600000CF032FD80F00100C0B20AB010BD207D08
:10B6100004AB063A04F11D0100F00F000BF0D0F965
:10B62000D6E700238DF805300293E4E78838002040
:10B6300070B582B0314B1B78002B54D104460028E2
:10B6400055D0067A0F2E01D0072E52D106F022F8DF
:10B65000E06870B1FCF750FD0DF10700FFF736FF11
:10B660000546002840D19DF80730012B04D0022563
:10B670003AE0FCF74FFDEFE7FCF76EFD00F020FB32
:10B68000304601F0C7F9E07800F021F900F0EEFE55
:10B690000BF0C6FE1A480CF081FD0BF0D5FB0BF049
:10B6A00071F9FFF7F7FD05F07BF800F039FD05F0C3
:10B6B000B1FF05F04DFD204601F09CFDFDF7F6FDC4
:10B6C00004F0AAFAFCF750FC08B1062813D10D4883
:10B6D00001F024FA0C4B18600C4B00221A60074B47
:10B6E00001221A7000E00825284602B070BD0E2520
:10B6F000FAE70725F8E70546F6E700BF8C38002093
:10B7000099B5020021B50200843800208838002055
:10B7100010B582B0204B1B78012B0DD05AB2002AF5
:10B7200035D0043BDBB2012B33D80BF0B1FE04461D
:10B7300028B3204602B010BD01F06CFDFDF7F8FD06
:10B74000FCF712FC0446B8B1062815D0134B1B6851
:10B7500013F4804FEDD0124B1B68012BE9DD114B28
:10B76000D3F804350190104A00924FF4C2720F4989
:10B77000022002F0B9FADCE701F070F9D5E7064BD8
:10B7800002221A700A4B186801F0E8F9D1E7082480
:10B79000CFE70824CDE700BF8C380020182E00200A
:10B7A000142E002000100140B4ED03007BED0300D7
:10B7B0008438002008B5FDF7BFFD08BD08B5FEF7C9
:10B7C000D7F808BD08B5FEF7E3F808BD08B500F0E6
:10B7D00013FE002008BD0000014B1860704700BF39
:10B7E0008838002070470000074A1368013313604F
:10B7F000B3F1704F02D0044B186870471346002213
:10B800001A6001221A60F6E78038002010B504465D
:10B8100018B100232360636010BD7846FCF75AFC22
:10B82000F7E738B50C46054668B184B1002363607C
:10B83000EFF3108372B62A686AB16A6854606C606C
:10B8400003B962B638BD7846FCF744FCEDE77846AC
:10B85000FCF740FCEAE72C60F1E710B5044658B16C
:10B86000EFF3108372B6206808B142682260226844
:10B8700032B103B962B610BD7846FCF72BFCEFE796
:10B880006260F6E710B5044608B1206810BD78463E
:10B89000FCF720FCF9E70000BFF34F8F0549CA68A9
:10B8A00002F4E062044B1343CB60BFF34F8F00BF41
:10B8B000FDE700BF00ED00E00400FA0535DF70474A
:10B8C00008B54FF0FF30FFF7F9FFFFF7E5FF072856
:10B8D00014D8DFE800F0080C1504110F0A066420E4
:10B8E000704714207047FA2070471E2070474FF4AD
:10B8F000FA707047322070474B207047FA2070472B
:10B9000096207047024B5868103840B2704700BF0D
:10B9100000ED00E0034600280FDB5B11084A52F8F7
:10B920002330424200F01F0002F01F0258BF504275
:10B9300023FA00F000F00100704700F11F03ECE76C
:10B9400000E100E046DF7047002302F1FF3C634561
:10B950001DDA00B511F803C04FEA4C0C5FFA8CFCFD
:10B9600000F803C001EB030E9EF801E04CEADE1C78
:10B9700000F803C001339BB202F1FF3C6345E9DBF1
:10B9800011F80C305B0000F80C305DF804FB11F886
:10B990000C305B0000F80C307047F8B505460F46D8
:10B9A0004B1EDBB2012B09D800232B616B61AB610D
:10B9B000EB612846FFF7C6FF012405E07846FCF757
:10B9C00089FBF1E70134E4B2BC420FD8284610F9F4
:10B9D000206F10220146FFF7B7FF002EF2DA95F82C
:10B9E0002F3083F0870385F82F30EBE7F8BD38B5AB
:10B9F0000546144612F0EEFA80232B55621C02E035
:10BA00000023AB5401320F2AFADD38BD2DE9F04195
:10BA100090B084460C4696461F4602F10F084FEA46
:10BA2000281604AD0068DCF80410DCF80820DCF807
:10BA30000C300FC50EF00F055FEA181804D085B161
:10BA40004FF00008022102E04FF00008022104A894
:10BA5000FFF7A3FFB8F1000F1BD0701E00011023E9
:10BA60000FE04FF001084146F1E7013B9BB222187D
:10BA7000D25C03F14001694411F8101C4A400DF8F2
:10BA80000320002BF1D100250C950D950E950F95F7
:10BA900029E0711E2A4604EB01116846FFF7A7FF53
:10BAA00010230BE0013B9BB21DF8032003F1400182
:10BAB000694411F8101C4A400DF80320002BF1D105
:10BAC000E1E7013A92B202F140036B4413F8100C23
:10BAD00063189B5C584008AB9854002AF1D104A825
:10BAE000FFF730FF0135731EAB4202DD2901102242
:10BAF000F3E710230CE0013B9BB203F140020DEB96
:10BB0000020111F8402C11F8101C4A4008A9CA542F
:10BB1000002BF0D104A8FFF715FF0CAC0FCC386058
:10BB20007960BA60FB6010B0BDE8F08110B50446E2
:10BB3000134B1B6893B14168114B1B685B68CB1AB0
:10BB4000002B0BDB0E4B1B6818465B691BB15A6858
:10BB5000521A002AF8DB6361446103E0084B1A685B
:10BB600062611C60064A93889BB201339BB293804A
:10BB700013B10123237010BD7846FCF7ABFAF8E748
:10BB80009438002038B5054619E06369214A1360EE
:10BB90000023636193889BB2591E89B291800BB3D5
:10BBA000A3681BB302232370A36821692846984722
:10BBB00000F03AF905462378DBB2022B1AD0154B78
:10BBC0001B6833B3134B1B685B685B1B642B20D56E
:10BBD000104B1C682378DBB2012BD6D07846FCF7DB
:10BBE00079FAD2E77846FCF775FAD9E77846FCF798
:10BBF00071FAD7E7E26812B900232370DFE76368C0
:10BC0000134463605B1B642BF9D42046FFF78EFF5F
:10BC1000D5E738BD9438002010B50446144B1B6896
:10BC2000834207D0124B1B68D3B15A69A2420ED08F
:10BC30001346F9E743690E4A136093889BB2591E75
:10BC400089B2918063B97846FCF744FA08E06269EA
:10BC50005A6107498B889BB25A1E92B28A8013B1EF
:10BC60000023237010BD7846FCF734FAF8E700BFD4
:10BC70009438002008B5064B1B6833B1044B1B6891
:10BC80000449586800F07CF908BD00F0D7F9FBE7DB
:10BC900094380020B1BC020008B500F0C5F8FFF7E9
:10BCA00071FF00F0C1F8FFF7E5FF012008BD0000BB
:10BCB00008B5024B186800F051FF08BD903800200D
:10BCC00008B50023064A1370064A136053600648FD
:10BCD00000F024FF054B186000F098F808BD00BF85
:10BCE0008D3800209438002099BC02009038002044
:10BCF00010B50446154B1B789BB901F001F8A0B1B3
:10BD0000BCB1A368CBB12378DBB2012B19D00023DF
:10BD100063612046FFF70AFF00F086F8FFF7AAFFED
:10BD200010BD7846FCF7D6F9E7E77846FCF7D2F97C
:10BD3000E6E77846FCF7CEF9E3E77846FCF7CAF980
:10BD4000E1E77846FCF7C6F9E1E700BF8D3800204F
:10BD500010B5044600F0D4FF50B16CB12046FFF797
:10BD60005BFF0023636100F05FF8FFF783FF10BD06
:10BD70007846FCF7AFF9F0E77846FCF7ABF9EDE76A
:10BD800030B583B004460D461A4B1B78DBB900F082
:10BD9000B7FFE0B1FCB12046FFF73EFF002363612F
:10BDA00065602046FFF7C2FE00F03EF8FFF762FF35
:10BDB000114B1B6813F4804F03D0104B1B68032BEF
:10BDC0000DDC03B030BD7846FCF784F9DFE7784638
:10BDD000FCF780F9DEE77846FCF77CF9DBE7084BF7
:10BDE000D3F80435074A0092E2220749042001F003
:10BDF0007BFFE6E78D380020182E0020142E00204F
:10BE00000010014040EE03002BEE030008B511F0D6
:10BE1000C5FF00B108BD11F039FF0028FAD07846FF
:10BE2000FCF758F9F6E70000EFF3108072B6194BF3
:10BE30001968194BD3F80425D3F80431012B24D009
:10BE400000B962B642EA01624FEAD26C5001801A30
:10BE50006CF1000C4FEA4C2343EAD053410289189D
:10BE600043F1000C4FEA8C1040EA91608B015B1AA1
:10BE700060EB0C009B1840F1000013F5804340F18B
:10BE80000000DB0B43EA40407047034BD3F8042526
:10BE90000131D5E7A83800200010014010B50A4B49
:10BEA0004FF40032C3F84823C3F80823074B1B683C
:10BEB0002BB1064B1C68FFF7B7FFA04710BD7846B3
:10BEC000FCF708F9F5E700BF001001409C3800209E
:10BED000EFF3108172B6254B0022C3F80421244AE7
:10BEE00013680133136001B962B6224B1B68002B43
:10BEF0003AD0204B1A68013A1A601B68002B33D1E4
:10BF000003F1804303F58833D3F804251A4B1B68EB
:10BF10009A421BD2EFF3108272B6144BD3F8043559
:10BF2000981C1549096888420DD303330F49C1F89D
:10BF3000443502B962B60D4B4FF40032C3F84423C6
:10BF4000C3F8042370470C4B1B68EFE710B50B4B8D
:10BF50001B682BB1094B1C68FFF766FFA04710BD9B
:10BF60007846FCF7B7F8F5E7704700BF00100140CE
:10BF7000A8380020A4380020A03800209C380020D9
:10BF800030B583B00446002301930D46002936D016
:10BF9000244B1D60FFF748FF031B002B33DB002001
:10BFA000410CC003204BC018204A4FF0000341F160
:10BFB000000111F01DFFEFF31083019372B61C4BCB
:10BFC000D3F80435032838BF0320C3F1FF1202F56C
:10BFD0007F42824219D30344154AC2F844354FF4D4
:10BFE0000033C2F84433C2F804330023114A13600B
:10BFF000114A1360019B03B962B603B030BD7846A5
:10C00000FCF768F8C4E7201ACAE7034403F17F434A
:10C0100001331A0E013207490A6023F07F43064AB2
:10C020001360E7E79C38002020A1070040420F0082
:10C0300000100140A4380020A0380020074B4FF426
:10C040000032C3F84823C3F808230023044A1360CE
:10C05000044A1360044A1360704700BF0010014097
:10C06000A4380020A03800209C38002030DF704722
:10C0700031DF704710B4034602684068A2EB7012CB
:10C080009C6880EAF4301860D9680C445C60114404
:10C0900099601044D8605DF8044B704770B582B069
:10C0A0000D46064608B100240BE07846FCF712F86E
:10C0B000F9E79DF807103019FFF7DAFF9DF8073010
:10C0C0001C44A5420DD90DF10700FFF7CFFF9DF8E5
:10C0D0000730002BF7D02A1B9342EAD98DF80720AE
:10C0E000E7E702B070BD000030B583B0054600241C
:10C0F000019404210DEB0100FFF7D0FF074B2B60EB
:10C10000019B6B60AB60EB6003E02846FFF7B2FF7A
:10C110000134132CF9D903B030BD00BFED5EEAF154
:10C12000704708B5032004F0CFFB08BD48DF704717
:10C1300049DF70474ADF7047044B01225A7143F2CE
:10C14000B0629A6043F69822DA6070471039002096
:10C15000094B03221A74094A5A611A6840F6D863D7
:10C160009A4204D9054B43F2B0629A607047034B80
:10C1700040F6D8629A607047F438002010390020E9
:10C1800008B50F4B1B78022B12D0032B08D0012BC4
:10C1900003D07846FBF79EFF0EE0022303740BE00A
:10C1A000084B00225A71084999600849D960827188
:10C1B00003230374034B4361014B00221A7008BD33
:10C1C000F138002010390020A0860100FF1FA107D0
:10C1D00038B5044600250574012343710E4A1368DF
:10C1E0000133136000F0C4FA0BF018FA21680B4B0E
:10C1F0001B68283301FB03F3094AA2FB0323A1EBCD
:10C200009341084A7839284600F032FA00B938BD1F
:10C210007846FBF75FFFFAE7EC380020E8380020AB
:10C2200083DE1B4351C1020010B504460023836026
:10C23000C36003680D4A92680260817991B101215F
:10C24000017403B90A4B991A6161B1F57A7F01D380
:10C250009A4202D94FF47A736361FFF76DFF0123AD
:10C26000A37110BDFFF7B4FFF7E700BF103900203E
:10C270008096980010B50C4631B1C3680133C36095
:10C2800003684269134403608368013383600122B9
:10C290000274416921FA02F24261012B0DD0022B96
:10C2A0001BD042690368134417498B4224D840F6D7
:10C2B000D7639A4223D800231FE0B2F5FA7F07D054
:10C2C00041F6B1539942ECD840F6D8634361E8E7B0
:10C2D000002CF5D100234361E3E7C368022B06D0AD
:10C2E000012BDED1002CDCD100234361D9E70268A9
:10C2F000054B9B1A4361D4E7002313B110BD012302
:10C30000FBE7FFF765FFF9E78096980043791BB9D3
:10C310000D4B00221A70704710B504460BF09AF9C5
:10C3200020680A4B1B68283300FB03F3084AA2FB72
:10C330000323A0EB9340783800F04AFA002363719E
:10C34000014B00221A7010BDF0380020E8380020A0
:10C3500083DE1B4308B5254B01221A71244B1B7841
:10C3600013B1244B1B781BB3204B00221A740428F2
:10C370001AD8DFE800F00314110C07001B48FFF780
:10C3800053FF1CE001211948FFF774FF17E000215B
:10C390001648FFF76FFF12E00BF0ECF80FE000F02B
:10C3A000ADF90BF021F90AE07846FBF793FE06E0C1
:10C3B00000F084F90D4B18601846FFF7E1FE0B4BB7
:10C3C0001B7C023BDBB2012B08D9084B1B7C022BE8
:10C3D00008D0064800230371103008BD0348FFF75A
:10C3E00095FFF2E7014B01221A76F2E7F4380020BC
:10C3F000F1380020F038002008B50438042814D89B
:10C40000DFE800F0182614030E00164B1B7E012BEC
:10C410000BD1FFF78DFE40B17846FBF75BFE04E0E1
:10C42000104B00221A760BF03DF908BD7846FBF759
:10C4300051FEFAE7FFF780FE0B4840F6D8638360B1
:10C44000FFF778FE0028F0D07846FBF743FEECE7D4
:10C450000548FFF76FFE0028E7D07846FBF73AFE65
:10C46000E3E700BFF43800201039002010B40E4A72
:10C470000023137013710121517143F2B064946071
:10C4800043F69824D460094A1060094A1370094A97
:10C490001370094A1360094A1371537113601376BC
:10C4A00091715DF8044B704710390020E838002086
:10C4B000F0380020F1380020EC380020F43800205B
:10C4C00008B5104B1B7E012B08D0022B17D00BB1E7
:10C4D000002008BD0C48FFF729FE40B90B48FFF7C4
:10C4E00029FE40B9074B02221A760020F1E7784670
:10C4F000FBF7F0FDF2E77846FBF7ECFDF2E71120E1
:10C50000E7E700BFF438002055C3020010390020CF
:10C510000B4B1B7C023BDBB2012B0BD9094B1B786D
:10C52000012B09D0022B09D0032B01D0002070472A
:10C53000012070470120704701207047012070479B
:10C54000F4380020F1380020014B1868704700BF14
:10C55000F43800200D4B5B790BB90020704710B503
:10C560000A4B1C680A4B1B68283304FB03F3094A77
:10C57000A2FB0323A4EB9344783C00F09FF803460E
:10C58000201A00D410BD181BFCE700BFF4380020AF
:10C59000E838002083DE1B43014B1879704700BF49
:10C5A000F4380020EFF3108372B6054A527922B1B5
:10C5B000044A4FF48071C2F8001103B962B67047A3
:10C5C000F438002000E100E008B5054B1B7E022B8B
:10C5D00000D008BD034B01221A70FFF7E3FFF8E714
:10C5E000F4380020F138002008B5074B1B7E022BE1
:10C5F00000D008BD012804D0044A1370FFF7D2FF11
:10C60000F7E70323F8E700BFF4380020F1380020F3
:10C6100008B5094B1B782BB148B9084B1B7813B1EF
:10C62000012300E00023044A107013B908BD002361
:10C63000F9E7FFF7B7FFF9E7F0380020F1380020FD
:10C6400010B40A4B00F15002002443F8224000F1DC
:10C65000100C012202FA0CF2C3F8042300F5A870B2
:10C6600043F820105DF8044B704700BF0080004085
:10C67000022817D810B5EFF310840C4B1C6072B66B
:10C680000B4B43F820200B4B002243F820200A4B91
:10C690001B7823B9054B186830B962B605E0FFF77F
:10C6A000CFFFF7E707207047002010BD203900209A
:10C6B0003C3900203039002024390020EFF310826B
:10C6C0000A4B1A6072B60A4B1B7863B1094B002201
:10C6D000C3F84C210122DA64D3F84C05034B1B68E4
:10C6E00003B962B67047044B1868F7E72039002099
:10C6F0002439002000800040283900202DE9F04135
:10C7000000240EE00027154B43F82470144EC6F8A1
:10C710000853FFF7D3FFC04704F1500346F82370D6
:10C720000134022C18D804F150030D4A52F823307A
:10C73000002BF5D0D2F8043304F110020125954006
:10C740002B42EDD0054B53F82480B8F1000FD9D11E
:10C750007846FBF7BFFCD5E7BDE8F0813C39002007
:10C7600000800040014B1B68184470472C390020A2
:10C7700010B500230CE0114A03F5A871002042F81F
:10C78000210003F1500142F8210052F82120013329
:10C79000022BF0D90A4B1B681BB90A4B4FF480726D
:10C7A0001A60094B01221A70FFF73EFB0446FFF79F
:10C7B00085FF241A054B1C6010BD00BF008000409F
:10C7C0002039002000E100E0243900202C3900202D
:10C7D000002307E000220C4941F823200B4941F8CF
:10C7E00023200133022BF5D9094B1860094B002295
:10C7F0001A70094B4FF0FF32C3F80823074B4FF470
:10C800008072C3F8802170473C3900203039002005
:10C8100028390020243900200080004000E100E099
:10C82000002807DB00F01F02400901239340024A61
:10C8300042F82030704700BF00E100E0002808DB2C
:10C840004901C9B200F1604000F5614080F8001371
:10C85000704700F00F004901C9B2014B19547047ED
:10C8600014ED00E0002807DB00F1604000F56140B6
:10C8700090F800034009704700F00F00014B185C6E
:10C880004009704714ED00E01F2808DD3F280CDC4C
:10C8900020380123834014BF012000207047044B3F
:10C8A00023FA00F000F0010070470120704700BF3C
:10C8B000FC06FFBD38B50446FFF7E6FFE8B12046A9
:10C8C000FFF7D0FF07281CD8EC23034113F0010F1A
:10C8D0001AD00F4B9D6865B16009194653F8203096
:10C8E00004F01F040122A240134341F82030002528
:10C8F00005E02046FFF794FF01E042F201052846DB
:10C9000038BD42F20205FAE742F20205F7E700BF3E
:10C910000C58002038B505460C46FFF7B5FF60B14E
:10C92000072C0DD8EC23234113F0010F0BD0214627
:10C930002846FFF783FF002038BD42F20100FBE7E5
:10C9400042F20200F8E742F20200F5E7EFF310824C
:10C9500072B6114B9B68CBB930B40F4901238B6081
:10C960000E4BD3F880400E4D2C400C60C3F8805025
:10C97000D3F884404C604FF0FF31C3F8841000239B
:10C98000037002B962B6002030BC70470123037007
:10C9900002B962B6002070470C58002000E100E0A8
:10C9A000FC06FFBD094B9B686BB160B9EFF31081CA
:10C9B00072B6064B1868064A10605868506000222C
:10C9C0009A6001B962B60020704700BF0C58002081
:10C9D00000E100E008B503783BB1012B04D14368C6
:10C9E00013B1C1688068984708BD4368002BFBD02D
:10C9F00080689847F8E70000044B1B780F2B04D0A1
:10CA0000034B4FF48022C3F80021704749390020BE
:10CA100000E100E010B50D4C20700D480D4B036097
:10CA2000102343608360FDF7C3FD0B48FEF7EEFE65
:10CA300021780F2900D110BD1220FFF76BFF0028CD
:10CA4000F9D07846FBF746FBF5E700BF49390020EF
:10CA5000A83A0020A83900204C39002008B5074B1F
:10CA60001B780F2B00D108BD1220FFF723FF0028F1
:10CA7000F9D07846FBF72EFBF5E700BF49390020D7
:10CA800010B5EFF3108472B60D4A1368591C11608B
:10CA90001BB90C4B1B780F2B05D1094B1B685BB1E5
:10CAA00004B962B610BD0848FFF750FF0028F4D063
:10CAB0007846FBF70FFBF0E77846FBF70BFBEFE759
:10CAC000A439002049390020A039002010B5EFF327
:10CAD000108472B60E4B1B685BB10D4A1368013BA4
