:020000022000DC
:1070000000F0032081730200697302006B730200B9
:107010006D7302006F7302007173020000000000C4
:107020000000000000000000000000007373020078
:10703000757302000000000077730200797302008C
:107040007B7302007B7302007B7302008593030055
:10705000999303007B730200A18C03007B730200F1
:107060007B7302007B730200757203007B73020066
:107070007B7302007B7302007B7302007B73020050
:107080007B730200D9DD030031CB02007B73020069
:107090003DDE03007B730200219703007B73020037
:1070A0007B7302007B7302007B7302007B73020020
:1070B0007B7302007B7302000000000000000000F0
:1070C0007B7302007B7302007B730200AD930300AD
:1070D0007B7302007B7302007B7302007B730200F0
:1070E0007B7302007B7302007B73020000000000D0
:1070F000000000007B730200000000007B730200B0
:10710000000000000000000000000000000000007F
:10711000000000000000000000000000000000006F
:10712000000000000000000000000000000000005F
:10713000000000000000000000000000000000004F
:10714000000000000000000000000000000000003F
:10715000000000000000000000000000000000002F
:10716000000000000000000000000000000000001F
:10717000000000000000000000000000000000000F
:1071800000000000000000000000000000000000FF
:1071900000000000000000000000000000000000EF
:1071A00000000000000000000000000000000000DF
:1071B00000000000000000000000000000000000CF
:1071C00000000000000000000000000000000000BF
:1071D00000000000000000000000000000000000AF
:1071E000000000000000000000000000000000009F
:1071F000000000000000000000000000000000008F
:1072000039493A480A1A02D0072291438D46384933
:1072100038480A1A06D00722914381F309880222CE
:1072200082F3148834483549354A00F03FF8354830
:107230003549364A00F03AF835483649364A00F0C2
:1072400035F836483649374A00F030F8364837497D
:10725000374A00F02BF837483749384A00F026F80B
:1072600037483849384A00F021F838483849002270
:1072700000F034F837483849002200F02FF837483A
:107280003749091A16F0A3FF25482649884205D038
:107290000268043003B4904703BCF7E70020864639
:1072A000EC46002000212F4A9047FEE7884214D088
:1072B000521A12D003460B4313430324234206D130
:1072C000036804300B600431043AF9D17047037845
:1072D00001300B700131013AF9D17047884202D078
:1072E00002700130FAE7704700F0032000E8032045
:1072F00000F0032000F00320F4FE0300002E002025
:107300005E2E0020B4730200B47302004CE303004D
:10731000F4FE0300002E0020002E0020E0E6030013
:10732000E0E60300E0E60300E0E60300E0E6030039
:10733000E0E60300E0E60300E0E60300F4FE0300FD
:1073400054FF0300602E0020602E0020602E0020DD
:10735000345B0020345B0020345B0020345B002071
:10736000345F002015770200FEE7FEE7FEE7FEE748
:10737000FEE7FEE7FEE7FEE7FEE7FEE700F002B805
:10738000FFF7FCBF08484FF00701884385460748D0
:1073900080470748016841F470010160BFF34F8FD7
:1073A000BFF36F8FFFF72CBF00F00320319803006D
:0473B00088ED00E084
:1073B40010B582B00446244B1B6813F4804F03D0ED
:1073C400224B1B68032B10DC214B1B78642B17D832
:1073D4001F4A13780133137063685B78172B26D127
:1073E40063781F2B23D1002316E01A4BD3F80435FE
:1073F400194A009238221949042006F08FFBE3E76A
:1074040004F004F9164B00221A70E1E76268D15CBB
:10741400144AD1540133DBB21E2BF7D90A4B1B6833
:1074240013F4804F03D0094B1B68032B01DC02B01B
:1074340010BD084BD3F804350B4A00924C2207497F
:10744400042006F06BFBF2E7182E0020142E002017
:10745400602E0020001001403CE7030033E70300E6
:10746400622E00200831002044E7030000B583B0F9
:10747400104B01221A7000230F4A13700F4A137025
:107484000F4804F0BDF80F4B1B6813F4804F03D072
:107494000D4B1B68032B02DC03B05DF804FB0B4BA4
:1074A400D3F804350A4A009255220A49042006F00A
:1074B40035FBF1E7622E0020602E0020612E0020B3
:1074C400B5730200182E0020142E00200010014075
:1074D4004CE7030033E7030038B505460C461F218B
:1074E4000FF02FFC124B186008B301462068626845
:1074F400A368D4F80CC0C1F81100C1F81520C1F874
:107504001930C1F81DC020696269A369C1F821005E
:10751400C1F82520C1F82930A28BA37FA1F82D2022
:1075240081F82F3003230B7128460FF048FC38BD37
:10753400642E002008B54FF40073034A034904483D
:107544000FF022FD08BD00BF682E002071740200F8
:107554006830002000B583B00E4B1B6813F4804FD5
:1075640003D00D4B1B68032B09DC0322C8210F2019
:1075740000F046FB0AF034F803B05DF804FB074B57
:10758400D3F80435064A009260220649042006F026
:10759400C5FAEAE7182E0020142E0020001001403E
:1075A40054E7030033E7030008B50378232B00D026
:1075B40008BDFFF7CFFFFBE700B58DB02422002103
:1075C40003A816F091FE01238DF80C3007238DF8E3
:1075D4000F308DF814301D4B0793002103A809F0D8
:1075E400B1FF68B30B2827D1194B1B6813F4804FE4
:1075F40003D0184B1B68032B13DC154B1B6813F4C7
:10760400804F1DD0134B1B68032B19DD124BD3F88D
:107614000435124A00927B221149042006F07EFAB6
:107624000EE00D4BD3F804350E4A00927A220C4931
:10763400042006F073FAE0E70B4A802112F0E4F923
:10764400FFF778FF0DB05DF804FB00BFAD750200D5
:10765400182E0020142E002000100140C0E7030063
:1076640033E7030070E70300E0E6030000B583B0EE
:1076740016F0E6FB00BB00F0F7FA1A4A04214FF4B7
:10768400804006F02FFA00F02BFBFFF795FF1B203C
:107694000FF02EF909F041FF98B913480FF032FBAF
:1076A400124B1B6813F4804F03D0114B1B68032B40
:1076B4000CDC03B05DF804FB0E4A8E2112F0A4F931
:1076C400D9E70C4A942112F09FF9E6E70A4BD3F864
:1076D40004350A4A009296220949042006F01EFA4B
:1076E400E7E700BFBDDA020068300020182E002052
:1076F400142E0020E0E6030000100140FCE7030024
:1077040033E7030008B500F00DF8FFF7AFFF08BD3D
:1077140008B5FFF7F7FF00F02DF9002008BD41DFA1
:107724007047000010B586B0EC461B4C0FCCACE89B
:107734000F0094E803008CE80300FFF7F0FF1F2319
:107744000393FFF7ECFF1E230093FFF7E8FF1D23CD
:107754000193FFF7E4FF1A230293FFF7E0FF0723E7
:107764008DF81630FFF7DBFFFFF7D9FF0B4A6946A8
:107774000B4811F01FFB58B9FFF7D1FF4FF0A0439E
:1077840040F20132C3F87827FFF7C9FF06B010BDF5
:1077940012F02CF9F0E700BFB4E8030011780200FE
:1077A400ACE803004378172B29D110B588B0044600
:1077B400002307E0E15C03F120026A4402F8201C84
:1077C4000133DBB21C2BF5D900F046F91D216846C4
:1077D40000F060F9C0F30722C3B201E07F3AD2B2ED
:1077E4007E2AFBD801E07F3BDBB27E2BFBD8617F96
:1077F400914206D1A27F9A4206D1012002E00020E4
:107804007047002008B010BD0020FBE710B586B01B
:1078140006AB03E907009DF80C30012B01D006B03C
:1078240010BD464B01221A70454B1B6813F4804F60
:1078340003D0444B1B68032B1EDC434B1B781E2BCD
:1078440003D1414B5B78172B21D0002011F0A0FA13
:107854003B4B1B6813F4804FE1D03A4B1B68032B5E
:10786400DDDD3A4BD3F80435394A00925B223949BD
:10787400042006F053F9D2E7344BD3F80435364AE2
:10788400009253223349042006F048F9D5E72E48E4
:10789400FFF788FF00282FD0304B01221A702A4BA3
:1078A400DB78032BBBD0104611F072FA244B1B6813
:1078B40013F4804F03D0234B1B68032B32DC224C80
:1078C40021462748FFF708FE01232370254A137039
:1078D4001B4B1B6813F4804FA1D01A4B1B68032B5E
:1078E4009DDD1A4BD3F804351F4A009271221949C1
:1078F400042006F013F992E711F04AFA104B1B68C2
:1079040013F4804F8BD00F4B1B68032B87DD0F4B79
:10791400D3F80435154A009262220E49042006F079
:10792400FDF87CE7094BD3F80435114A00926D2227
:107934000849042006F0F2F8C1E700BF0431002032
:10794400182E0020142E00202831002000100140A1
:1079540080E803006FE8030078E8030005310020A5
:1079640068300020612E0020A4E803008CE80300A6
:1079740098E8030010B582B027E001331D4A934212
:10798400FBDD03F043FE1C4B00221A701A4B1B78DC
:107994000BB10023F2E71F220021184816F0A4FCC3
:1079A400174B1B7813B9174B00221A701F22009231
:1079B400124B1549154811F067FB58B9032011F013
:1079C400E7F900240F4B1B783BB10D4B1B78002BC0
:1079D400FBD1DBE712F00AF8F0E7022011F0D8F946
:1079E400FFF79DFE013442F210739C42EADD00244D
:1079F400E8E700BF9F860100622E002028310020A6
:107A0400612E00200431002008310020ACE803007E
:107A140002460023184604E05DF804FB52080133D3
:107A2400DBB28B4216D212F0010FF7D000B501F190
:107A3400FF3EAEEB030E4FF0010C0CFA0EFC40EAD5
:107A44000C0052080133DBB28B42E5D212F0010F75
:107A5400F7D0ECE770470000002011E05B009BB218
:107A6400013AD2B242B113F4004FF7D048F2050103
:107A740081EA43039BB2F3E7054A22F81030013050
:107A8400FF2804DC83B21B029BB20822EAE770479A
:107A940048310020F8B506460D46002427460DE07F
:107AA4000821305DFFF7B4FFC3B283EA1723074A06
:107AB40032F8133083EA07239FB20134AC42EFDB80
:107AC40010213846FFF7A4FF80B2F8BD48310020EA
:107AD4001F280BD900F01F00064BD3F80435C34010
:107AE40013F0010F0CBF0120002070474FF0A0439A
:107AF400F3E700BF0003005070B505460024264696
:107B040000E00134032C0AD80123A3402B42F8D00F
:107B1400044B185DFFF7DCFFA0400643F1E7304655
:107B240070BD00BFCCE8030008B511B111F0A6F890
:107B340008BD11F093F8FBE770B50546002400E09A
:107B44000134032C0FD80123A3402B42F8D0064B59
:107B54001E5D3046FFF7BCFF80F00101C9B230461C
:107B6400FFF7E2FFECE770BDCCE8030010B5144B5F
:107B74001B684BB1134B1868FFF7DEFF104B1C68F2
:107B8400013C1C6024B110BD002011F02FFFF1E76F
:107B94000D4816F0C7F900E00134032CF3D8012393
:107BA400A340084A12681342F6D0084B1968E14012
:107BB40001F00101064B185DFFF7B6FFECE700BFCB
:107BC400503300204C33002054330020483300202D
:107BD400CCE8030070B505460E46002400E00134ED
:107BE400032C09D80123A3402B42F8D03146034B80
:107BF400185DFFF799FFF2E770BD00BFCCE8030002
:107C040042B310B50C461346132900D810BD124ACE
:107C140010605B00013B114A1360FFF76DFF104BCE
:107C24001860610CE40314F5FA704FF47A724FF0A3
:107C3400000341F1000116F0B5F90146002209489C
:107C440016F04EF90028E1D10121034B1868FFF723
:107C5400C1FFDBE7704700BF4C33002050330020E6
:107C6400483300205433002010B582B010F08CFF4C
:107C740040B10024ADF804408DF8064001238DF88E
:107C8400053007E010F03EFF0028F2D011F0AEFE00
:107C9400EFE70134032C09D801A90A4B185D10F051
:107CA4007DFF0028F5D011F0A1FEF2E7064A01217C
:107CB400064816F0FFF808B902B010BD11F096FEA0
:107CC400FAE700BFCCE80300717B0200D0E80300B0
:107CD40060DF704769DF704708B503F08BFC08BDAF
:107CE40010B588B011F0C0FC00282CD1224B0793AA
:107CF400079A0692002303930493059303A9012092
:107D0400FFF7E8FF10BB0023039304930593F823C4
:107D14000393069A03A9A120FFF7DCFFC8B906A8BC
:107D2400FFF7D6FF0446069A079B9A4208D0134BE6
:107D34001B6813F4804F03D0114B1B68012B0BDC21
:107D4400B4B908B010BD11F051FECFE711F04EFEEA
:107D5400D9E711F04BFEE2E70A4BD3F80435019260
:107D6400094A0092AB220949022005F0D7FEE7E751
:107D7400204611F03BFEE4E7002E0020182E0020E0
:107D8400142E00200010014040E9030024E9030000
:107D9400062070474FF0A0434FF4F032C3F8182583
:107DA400C3F80C25EFF3108372B64DF6AD6C00E00A
:107DB40030BF024B1B78002BFAD17047002E0020F5
:107DC40000B587B044F20103984254D01BD801286F
:107DD40036D041F20103984268D13F4B1B6813F43B
:107DE400804F36D03D4B1B68002B32DD3C4BD3F823
:107DF4000435029201913B4A009263223A490120E0
:107E040005F08CFE25E044F2020398424ED1324B39
:107E14001B6813F4804F1CD0304B1B68002B18DDFB
:107E24002F4BD3F8043510680390526802920191E5
:107E34002E4A009269222C49012005F06FFE08E0C9
:107E4400254B1B6813F4804F03D0244B1B68002B75
:107E540004DCFFF79FFF07B05DF804FB204BD3F869
:107E6400043502920191224A009260221E490120A7
:107E740005F054FEEDE7184B1B6813F4804FE8D06F
:107E8400164B1B68002BE4DD154BD3F80435106842
:107E9400049050680390029192680192154A0092EE
:107EA40073221149012005F039FED2E70A4B1B6801
:107EB40013F4804FCDD0094B1B68002BC9DD084B50
:107EC400D3F8043501910C4A00927B220649012023
:107ED40005F024FEBDE700BF182E0020142E00205C
:107EE40000100140FCE90300CCE9030020EA030090
:107EF400E0E9030040EA030064EA030000B583B04C
:107F0400014600230093054B01936A4644F20200A4
:107F1400FFF756FF03B05DF804FB00BF60EA0300FF
:107F240010B40346044C006859689A68DB680FC4AF
:107F34005DF8044B704700BF743300200D4B4FF0C5
:107F4400805202F1600103C983E8030003F1080CC5
:107F5400A43292E803008CE803009A7902F00F023D
:107F640042F040029A711A7A02F03F0262F07F02F4
:107F74001A7270477433002000487047743300202D
:107F8400002308E0074901EBC3000022428042605D
:107F940001F8332001331F2BF4D9034B00221A605C
:107FA400704700BF883300208433002000B5864624
:107FB400114B1B684FF0000C0BE01F230F4A12F803
:107FC4003300B0B102EBC3025288724509D00CF100
:107FD400010CBCF11F0F0BD85A1E002BEDD0134619
:107FE400ECE7064A02EBC30252688A42EFD100E092
:107FF40000205DF804FB00BF843300208833002098
:1080040010B40B4A13680B4C04EBC30CACF802001D
:10801400CCF80410012104F833100B441360202B16
:1080240002D05DF8044B7047134600221A60F8E74B
:108034008433002088330020037803F08003037026
:10804400C1F3861213430370437803F003034370B0
:1080540043EA810343707047437803F0800343701D
:10806400C1F3861213434370837803F003038370D0
:1080740043EA810383707047837803F0FC038370C1
:10808400C1F3C10213438370C37803F01F03C370A9
:1080940043EA4113C37070470021072918D830B44C
:1080A40002E00131072910D84FEA011C094C34F8C9
:1080B4000CC08445F5D104EB0114A568E4689C4226
:1080C40008BF9542EDD1012000E0002030BC70478C
:1080D400002070479834002030B4C3698469C28892
:1080E400190A1B06C4F30C0C944519D2A2EB0C021A
:1080F4002244A2F500529A1841F100010A4C236867
:108104005D1C256003F00703B0F814C007481C0188
:1081140000EB031320F804C09A60D96030BC7047A8
:10812400A2EB0C022244E6E7183500209834002024
:1081340038B505460C46C37D9BB1C2780B7803F075
:1081440080030B7002F07F0213430B702A782378AC
:1081540003F07F03237043EAC21323702B789BB987
:1081640038BDC2780B7803F0BF030B70920102F0A4
:10817400400213430B70027903F0C0030B7002F04A
:108184003F0213430B70E1E7AA78082A14BF0022C8
:108194000122637803F07F03637043EAC2136370C0
:1081A400E9882046FFF758FF297A2046FFF764FF45
:1081B4006A7AE37803F0E003E37002F01F021343EA
:1081C400E370CDE7002300E00133032B28D8C3EB91
:1081D400C30C144A02EB0C1292F84820012AF3D182
:1081E400104A02EB0C12B2F814C0C2899445EBD1C8
:1081F400C3EBC30C0B4A02EB0C12D2888A42E3D1C4
:10820400084A02EB0C12B2F858201AB1B0F814C0A4
:108214006245D9D1C3EBC303024800EB0310704796
:10822400002070471C350020002300E00133032B9D
:1082340015D8C3EBC3010B4A02EB011292F8482094
:10824400022AF3D1074A02EB0112918A828A9142EF
:10825400ECD1C3EBC303034800EB031070470020C9
:10826400704700BF1C35002008B90420704708205F
:10827400704700B503468C460978C17000214162FD
:10828400DCF808100B2904D89CF80C1029B3012140
:1082940000E0012119700020987031B1DCF8081059
:1082A4000731C9080139597218720121D97503F1CE
:1082B4000C0E0CF1100103C98EE80300BCF80E107B
:1082C4009982DCF8181019629CF81C109975DCF876
:1082D4002010D9629A625DF804FB0021DAE70000FD
:1082E40000210E4B1B688B4216D9002300E001339A
:1082F4000B4A02EBC10252689A420BD9084A52F85F
:10830400312002EBC30C12F833208242EFD1DCF8A7
:10831400040070470131E4E70020704788340020EE
:108324008C34002070B58CB006460D4614462C22C1
:10833400002101A815F0D8FF0F238DF80430ADF803
:1083440008609DF80A3065F300038DF80A308DF853
:108354000B4001A801F0F8F90CB070BD30B58DB038
:1083640005460C462C22002101A815F0BDFF102360
:108374008DF8043002958DF80C4001A801F0E4F961
:108384000DB030BD00B58DB010B913F1020F06D198
:10839400074B186804F0FCFA0DB05DF804FB0121EA
:1083A4008DF804100293039201A801F0CDF9EFE7D0
:1083B4009434002010B5044603782BB1637A01335A
:1083C40001209840013810BD7846FFF797FDF5E786
:1083D40070B5049C002962D01D468E46D2F800C0B8
:1083E40051689668D368C4F80CC021616661A361C2
:1083F400D2F810C05169C4F81CC021620023637014
:108404000278D20922705AB30423734549D8E17D16
:1084140041B3037803F07F03E3700023A3709AB1A0
:1084240043789B0103F4FE53827843EA9203E3808A
:108434008378DB0003F01803C27843EA52132372F3
:10844400C37803F01F036372002363622B78032B4A
:1084540021D82A78144B53F82230E362002070BDEF
:108464000123D2E70178C1F38011E170017801F0B2
:108474003F01217142B190F90130002B02DB04234A
:10848400A370CCE70823FBE70421A1700B447345D8
:10849400C5D90920E3E77846FFF730FDD9E709207D
:1084A400DDE70920DBE700BF28EC030070B50C46CC
:1084B4001D4603789BB104263244A26000F10C03EC
:1084C4002360836A6360C36AE360002323742046E5
:1084D40004F0C0FD10B9636933442B6070BD0126FC
:1084E400EAE72DE9F0418EB00E4615461C4680465B
:1084F40000282DD0002E2FD0002C31D0636A0233F7
:10850400059304F10C00E378002B2DD00121A2780F
:1085140001AF3B46082A14BF0022012204F073FB7A
:108524000697CDF81C80ADF820500B9616FA85F509
:108534000C95A3788DF83430237B022B16D00023BE
:10854400ADF8283005A804F056FB0EB0BDE8F08164
:108554007846FFF7D3FCCDE77846FFF7CFFCCBE7AF
:108564007846FFF7CBFCC9E70221D0E723692BB19A
:10857400236909931023ADF82830E3E77846FFF721
:10858400BDFCF5E72DE9F04188B004460D46C37DF6
:10859400002B3CD0082605FB06F8637AAB4238D0A2
:1085A400257201AB324602A92046FFF77FFF07463A
:1085B40048BB4DB994F8533033B9A369C3F30C03E2
:1085C400E380012384F85330E37D7BB994F852307F
:1085D40063B91DBBE06EB4F84A10A27823468A1A28
:1085E4000146FFF77EFF012384F8523007992046A5
:1085F400FFF79EFDE16E32464144019815F042FEBC
:1086040002A804F04DFD384608B0BDE8F0810C2600
:10861400C1E7B4F84A60A6EB0806C1E77846FFF75D
:108624006DFCD7E770B505460E4609B100230B6013
:1086340095F85040002104E0631C85F85030013463
:10864400E4B26B7AA34210D3EA6C0123A3401A422A
:10865400F5D121462846FFF795FF014628B9002E9B
:10866400EAD0336801333360E6E7084670BDF0B5FD
:1086740089B004460E46154683789A18C37D63B1C3
:108684000B239A4221D801AB02A92046FFF70EFF23
:10869400074620B1384609B0F0BD0F23F1E707992A
:1086A4002046FFF745FDE37D43B12A463146019854
:1086B40015F0E8FD02A804F0F3FCEBE723462A4694
:1086C40001993046FFF70DFFF4E70927E2E70000C0
:1086D40010B5044690F84830012B0CD103F0BEFAD3
:1086E400237B012B0BD0094BD968014404F13000E2
:1086F40003F060FA10BD7846FFF700FCEEE7A27DB8
:10870400024BD9681B6903FB0211EEE7DC3600203B
:1087140030B583B0002403E02846FFF7D9FF0134C5
:10872400032C17D8C4EBC4020B4B03EB021393F8CE
:108734004830012BF3D100230193074D05EB0215BB
:1087440001A92846FFF76EFF0428E5D0019B002B02
:10875400E5D0E1E703B030BD1C35002038B5044650
:1087640090F84830022B09D1064B1D6803F076FAC5
:10877400411904F1300003F01DFA38BD7846FFF7C3
:10878400BDFBF1E7DC36002038B5044690F84830EC
:10879400022B10D10A4B5A7D5D689B6803FB02557E
:1087A40003F05CFA411904F1500003F003FA0123C9
:1087B40084F8683038BD7846FFF7A0FBEAE700BFCD
:1087C400DC36002010B50446808A02F089FD0128B9
:1087D4001CD1237BE3B194F91620002A1ADBE27D35
:1087E4004AB1022B18D094F90330002B16DBA3787E
:1087F400B3B900200BE0E2780AB9012B12D1237837
:1088040093B9A378042B11D1002000E0102010BDEF
:108814001020FCE70720FAE71020F8E70720F6E726
:108824000720F4E70720F2E70020F0E70720EEE74F
:1088340038B5044603784BB1C388C2698169808A1C
:1088440006F0B6FB054645B9284638BDC2698169BC
:10885400808A06F0A7FB0546F5E7E169002201F0EE
:108864000101A08AFFF75EFDEEE700002DE9F04765
:1088740007460E4615464B1EDBB2012B0FD8B5F545
:10888400C07F10D80024032C4BD8C4EBC40C344B49
:1088940003EB0C1393F848304BB10134F3E77846FB
:1088A400FFF72CFBEBE77846FFF728FBEAE7DFF856
:1088B400B09009EB0C18284608F007FEC8F86C00C5
:1088C40078B33B46424607F1300ED3F800C05C68EB
:1088D4009868D968C2F800C054609060D1601033C1
:1088E40010327345F1D10023C8F84C30A8F84A502F
:1088F400012E1BD06FF00103C8F82830002388F83C
:108904006830184BC8F85830C8F86080164BC8F85F
:108914003830C8F84080012002F094F988F84860A3
:1089240001E04FF000084046BDE8F0870F4B1B7D87
:1089340088F85130002388F8523088F8533088F88A
:108944005030BA6AC8F85420A8F858306FF00103C0
:10895400C8F82830064BC8F83830C8F84080DAE741
:108964001C35002077930200C98C0200DC360020FD
:10897400158D020000B585B000228DF80F20A0B13E
:108984000B46024602320A600DF10F01184604F04C
:1089940036F99DF80F3043B10C4B1B6813F0040FEC
:1089A40003D00B4B1B68032B04DC9DF80F0005B0B0
:1089B4005DF804FB074BD3F80435074A009240F2F4
:1089C40015420649042005F0A9F8EEE7182E002008
:1089D400142E002000100140D8EA0300CAEA030064
:1089E4002DE9F04391B005460E4614461F46D0F8D3
:1089F400188003784BB1C388C8F30C029A4230D272
:108A04009B1A4344A3F50053AB6105F10C00EB78CA
:108A140053B30121AA780DF130094B46082A14BF3B
:108A24000022012204F0EFF8C5F81880CDF8109068
:108A34000596AB78E21A92B2ADF8182016440A965D
:108A440009978DF82C300023ADF82030EB78002BFB
:108A540041D02B7B022B09D000236B62019302933C
:108A640016E09B1A4344CFE70221D3E71023ADF865
:108A740020302B690793EFE710AB03EB840454F821
:108A84003C3C6B62002011B0BDE8F083019BB3B1A4
:108A940002AB01AA2979286A0DF05EFD0024012C9D
:108AA400F4D810AB03EB840353F83C0C0028EDD04E
:108AB40003A9FFF75FFF0028DED10134EFE72B7B2A
:108AC400022B2CD105F10C01E8890DF0F1FD0028F1
:108AD400BFD10520D7E72B7B012B01D00520D2E79E
:108AE400EB89ADF80430AB8AADF806300024012CD4
:108AF40013D82946002341F8243F10AB03EB440369
:108B040033F83C0C0DF04DFD03A9686AFFF732FF02
:108B140008B90134EBE70020B5E70520B3E70520E9
:108B2400B1E7000070B5F0B00E4614461D4610AB18
:108B34000A4601462046FFF753FF50B1224B1B68FB
:108B440013F0040F03D0214B1B68052B2FDC70B0EE
:108B540070BD2046FFF76CFE0028F8D103AB01225C
:108B64008DF80C20A28AADF80E20002204928DF814
:108B7400142010AA0692A278B11AADF81C1008AA03
:108B840093E8030082E803000AAB04F10C0292E8C4
:108B9400030083E80300A37D8DF83830236A0C9327
:108BA400636A0D930F9505A800F0CEFDCFE7084B3F
:108BB400D3F80435074A009240F2037206490620AE
:108BC40004F0ACFFC3E700BF182E0020142E0020D1
:108BD40000100140ECEA0300CAEA030010B50446A1
:108BE400C06E08F076FC04F1300002F0CBFF94F87C
:108BF4004830022B08D070220021204615F074FB67
:108C0400002002F01FF810BD04F1500002F0BAFF7A
:108C1400F1E710B58CB0044690F84830012B0FD121
:108C240001238DF80430636D029303F017F8039069
:108C340001A800F089FD2046FFF7D0FF0CB010BD5D
:108C44007846FFF75BF9EBE730B585B00D4604468F
:108C5400A8B194F84830022B15D02946606DFFF76F
:108C64007DFB2046FFF7BAFF114B1B6813F0040F7E
:108C740003D0104B1B68032B09DC05B030BD7846CC
:108C8400FFF73CF9E5E72046FFF726FAE5E70A4B4C
:108C9400D3F8043594F8482002950192074A0092CB
:108CA40040F2F3120649042004F038FFE5E700BF60
:108CB400182E0020142E00200010014018EB030091
:108CC400CAEA030008B508460021FFF7BDFF08BD46
:108CD40008B5037B012B02D0FFF79BFF08BD0121E0
:108CE400FFF7B2FFFAE7000008B590F8513053B12E
:108CF400013B80F85130002380F85030034B186852
:108D040003F046FE08BDFFF7E3FFFBE794340020C1
:108D140010B50C4691F84830012B03D12046FFF7DB
:108D2400E3FF10BD7846FFF7E9F8F7E706296ED1AF
:108D3400F0B585B015460678B20102F4FE524178CA
:108D44008478C3781B0443EA0463047943EA042364
:108D5400407943EA000477B242EA91012846FFF7DA
:108D640031FA0646E0B1002F31DBC289A98A8A4272
:108D74002BD0274B1B6813F0040F33D0254B1B68F3
:108D8400012B2FDD244BD3F8043502910192234AA1
:108D9400009240F27D622249022004F0BFFE21E0ED
:108DA4001B4B1B6813F0040F1CD01A4B1B68012BC0
:108DB40018DD194BD3F804351A4A009240F279624F
:108DC4001749022004F0AAFE0CE0002F02DAAB8A55
:108DD400A6F85830F56C2543F5642CB903213046C8
:108DE400FFF732FF05B0F0BD3046FFF7E3FA8542E6
:108DF40009D0002186F850103046FFF713FC3046A6
:108E0400FFF766FCEEE73046FFF703FFEAE770473B
:108E1400182E0020142E0020001001406CEB0300DB
:108E2400CAEA03003CEB03002DE9F0438BB007468C
:108E34000E4614461D461046FFF7FAFC50B994F846
:108E44000380B8F1000F08D12B462246314638463C
:108E5400FFF76CFF0BB0BDE8F0834046FFF740FA24
:108E640081460028F6D08DF80480236A0793A38AEC
:108E7400ADF8123005AB04F10C0292E8030083E86C
:108E84000300A37D8DF820300297039623788DF894
:108E94001030E36A0993294601A8C847DAE792F833
:108EA40001C01CF0010F08D010B5D47D14B1FFF738
:108EB400BBFF10BDFFF736FEFBE7704708B501396D
:108EC4000130FFF7ECFF08BD70B5C6B00E4615467D
:108ED40082782A44C37D2BB14FF48073934278D3B4
:108EE400002303E04FF4C073F8E70133032B14D8D5
:108EF400C3EBC30C394C04EB0C1C9CF8481001293F
:108F0400F3D1BCF81440818A8C42EED1BCF80E40F7
:108F1400C1898C42E9D1082554E00121FFF7A6FC60
:108F24000446002857D02A463146C06E15F0AAF9E7
:108F34000023459345A92046FFF774FB054608B175
:108F4400042842D1459B8BB9254B1B6813F0040FB1
:108F540037D0244B1B68032B33DDB4F84AC0BCF173
:108F6400800F28BF4FF0800C002313E02046FFF74A
:108F7400AFFBE9E7E26ED25C1B490D6810095900AA
:108F84002E5C04A800F8136002F00F020131AA5C01
:108F9400425401336345EDD304AA002302F81C3084
:108FA40003F1804303F58833D3F8043502920F4A62
:108FB40001920F4A00924FF4AC620E49042004F06F
:108FC400ADFD0025284646B070BD2046FFF706FEDD
:108FD400F8E70925F6E70425F4E700BF1C3500206F
:108FE400182E0020142E00201C2E0020B0EB0300AD
:108FF400C0EB0300CAEA030070B504460D461646EA
:10900400FFF7E0FB30B923782BB1324629462046DE
:10901400FFF75AFF70BD324629462046FFF727FB6B
:10902400F8E7000038B504460D46CB695B78037158
:10903400CB691B7883F00103C370CB6943628B8ACD
:109044000B2B07D8CB7A002B35D10B7B012B02D00D
:10905400002300E001232370002B31D0287B022859
:109064002BD0FFF701F9A070AB8A03440B33174AE6
:1090740082FB03235B10013B6372002323720023F2
:10908400E37504F10C0395E8030083E80300AB697E
:1090940023622B89A382AB7AA3752B6AA362DF2395
:1090A400E36228460DF032FB20B12B78012B0AD065
:1090B400FF23E36238BD0123CDE7054B987DD0E75C
:1090C4000423A370DBE72023F3E700BFABAAAA2A9B
:1090D400DC36002010B54FF4E0720021134815F07F
:1090E40003F905F031FF0024114B1C608022214656
:1090F400104815F0F9F8104B104A1A60104A5A60DB
:109104004CF250329A600F49D9601A6104221A75E0
:109114009C7508225A750C4803F01AFC0B4B186016
:109124000B4B1C600B4806F035F910BD1C350020B4
:109134001835002098340020DC36002080969800F2
:10914400F049020020A10700699302009434002032
:10915400883400208983020008B505F015FF08BD96
:1091640098B110B58CB00446036983B1C36983B167
:10917400836983B101466846FFF754FFA28A2169D7
:109184006846FFF739FF0CB010BD0E2070470E2063
:10919400F9E70E20F7E70E20F5E7000058B310B505
:1091A40090B00A46044643683BB383693BB3014627
:1091B40004A8FFF75EF8134B1B6813F0040F03D0E9
:1091C400114B1B68062B06DCA268616804A8FFF734
:1091D40013FF10B010BD0D4BD3F804352278A169EC
:1091E400029101920A4A009240F6050209490720B9
:1091F40004F094FCE8E70E2070470E20E9E70E2007
:10920400E7E700BF182E0020142E002000100140B4
:10921400C8EB0300CAEA0300037B012B01D0002042
:109224007047F0B591B004460D46354B1B6813F0FA
:10923400040F03D0334B1B68032B46DC04AF00261A
:1092440004960596CDF81760E1883846FEF7F4FEDB
:109254002B0E8DF812302B0C8DF813302B0A8DF851
:1092640014308DF815506378022B0CBF012232465E
:109274009DF8103003F07F038DF8103043EAC213D9
:109284008DF810304FF0060309934FF001038DF869
:109294002C30A38AADF82E300C968DF81C600897FC
:1092A400236A0D938DF82860E36A0F9319D0E3893C
:1092B400ADF82A30A37DF3B98DF838306FF0010191
:1092C40007A8FFF76BFF11B0F0BD0F4BD3F80435BF
:1092D4000E4A009240F263220D49042004F01EFC61
:1092E400ACE70DF10E0103A80DF0FEF9BDF80C304A
:1092F400ADF82A30DEE7074B5B7D8DF83830DDE7CB
:10930400182E0020142E002000100140F4EB03005E
:10931400CAEA0300DC36002090F84830022B00D063
:10932400704710B5044690F86830022B00D010BD89
:10933400C16CFFF771FF0028F9D1002384F868306D
:10934400F5E7000010B5002407E0C4EBC4021301E4
:1093540003481844FFF7E0FF0134032CF5D910BD8E
:109364001C35002008B5FFF7D3F9FFF7EBFF012008
:1093740008BD10B50C4691F84830022B06D10223E3
:1093840084F868302046FFF7C7FF10BD7846FEF723
:10939400B5FDF4E7F0B583B00446C1698369C288BA
:1093A4000E0A0906C3F30C0082422FD9121A1A447A
:1093B400A2F500528D1846F100062A463346A08ACB
:1093C400FEF76AFE002840F082802046FEF72CFF5C
:1093D400074630B3C2698069F988130A1206C0F3DC
:1093E4000C0C8C4515D2A1EB0C010144A1F50051E4
:1093F400521843F10003AA4273EB06010DD39542C0
:1094040076EB030330D3384603B0F0BD121A1A4486
:10941400D0E7A1EB0C010144EAE705213846FFF748
:1094240013FCE388E269A169A08A05F01FFEE8B98C
:10943400627A0132E37D6BB3082101FB02F25BB374
:109444004FF4807393422AD302212046FFF70EFA89
:1094540007460028D7D100212046FFF7DDFE022170
:109464000020FEF77BFFCEE70027CCE7E388E26924
:10947400A169A08A05F02AFE08B90027C3E720469F
:10948400FEF798FF01462046FFF7C6FE2046FFF789
:10949400CFF9F2E70C21D0E74FF4C073D2E70D4BBC
:1094A4001B6813F0040F03D00B4B1B68002B01DC6B
:1094B4000027A8E7094BD3F804350192084A009223
:1094C40040F27F320749012004F028FBF0E700272F
:1094D40099E700BF182E0020142E00200010014030
:1094E40004EC0300CAEA03002DE9F04182B0074608
:1094F4000E46144698461046FFF74CFF002842D00B
:1095040005463C4B1B6813F0040F03D03A4B1B6811
:10951400032B3BDC2846FFF721F92B7B012B43D09F
:10952400EB6C217A01228A4013422CD11343EB6461
:10953400043E237AE27D002A3ED04FF0080C0CFB57
:1095440003FC697A8B423AD0002A3DD00823B34207
:109554003CD1AA69A3699A4209D205F10C0E0C34D4
:109564000FCCAEE80F0094E803008EE80300E86E29
:109574003246391D604414F085FEEC6C2846FEF733
:1095840019FF844227D002B0BDE8F0811B4BD3F809
:109594000435227A01921A4A009240F2A332194900
:1095A400042004F0BBFAB5E795F86830002BB7D176
:1095B4002846FFF7E9F8B3E74FF00C0CBFE70CEBD4
:1095C4000603A5F84A30C4E70C23C0E70421284663
:1095D400FFF73AFBD7E7E96C2846FFF71DFE434641
:1095E4002A46B5F84A10E86EFFF759FC2846FFF7FB
:1095F400F5FAC8E7182E0020142E002000100140B0
:1096040018EC0300CAEA03002DE9F04190B00028E9
:109614004CD00F4614461E468046002A48D004AB60
:1096240000933346FEF7D4FE054618B1284610B021
:10963400BDE8F08104A8FFF7C5F805460028F5D178
:1096440000230293039302A960880DF031F828B136
:109654009DF8113043F001038DF811302269E1685F
:10966400208905F0E3FC38B19DF8113003F0FE03C6
:109674008DF81130002BD9D09DF81130002BD5D0A6
:1096840013F0010F01D0039B08939DF8103033B100
:10969400334604AA39464046FFF726FFC6E7334659
:1096A40004AA39464046FFF709FCBFE70E25BDE78B
:1096B4000E25BBE7F8B508B30E460546164B1F68E2
:1096C400F7B93C46B4420FD205EBC4035B68D3B18F
:1096D40015F8340015F93430002B16DBB8B1FEF759
:1096E400FFFDB0B90134EDE70C4B43F8375003EB01
:1096F400C7035E607B1C084A136002E00E2700E08B
:1097040004273846F8BD0E27FBE70B27F9E70F2798
:10971400F7E70F27F5E700BF883400208C340020DA
:10972400084B196861B110B501E021463CB10C68E1
:109734000B79002BF9D0034804F098F9F5E710BD34
:10974400704700BFF836002038B5054630B1104BDD
:109754001C68C4B10F4B01221A7004E07846FEF76E
:10976400CDFBF4E724683CB12379002BFAD154F8FB
:10977400043C28469847F5E7064B1B78022B03D098
:10978400044B00221A7038BDFFF7CAFFF8E700BF88
:10979400F8360020F436002010B5044630B100231A
:1097A4002372211D034804F03EF910BD7846FEF7EC
:1097B400A5FBF4E7F836002010B5044658B10A4B6F
:1097C4001B78013BDBB2012B09D8074B02221A702C
:1097D4000123237210BD7846FEF790FBEFE7211DAD
:1097E400024804F043F9F5E7F4360020F836002087
:1097F4000A8883689B5A07339BB223F003031344FC
:109804009BB20288043A934200D900230B8070472C
:1098140010B582B004468368C91AADF806100DF17C
:109824000601FFF7E5FFBDF80630A068184402B052
:1098340010BD0088043880B2704743888268D0180D
:10984400D152012383707047826800239370438050
:109854008380704708B5073189B221F0030189B2CA
:10986400428883889A4204D29B1A994220DC0020C1
:1098740008BD9A4212D9B0F800C0ACEB020C6145A5
:1098840018D98B4218D3BCF1030F03D9836813444E
:1098940004229A70002343801846E9E782681A4438
:1098A40093780BB10420E3E7FFF7CEFF0020DFE756
:1098B4000420DDE70020DBE70420D9E738B50446BF
:1098C4000D468368828813448B4202D07846FEF7A3
:1098D40015FB0023AB70211D2046FFF789FFA288EA
:1098E400A36813449B78042B00D038BD0023A380C5
:1098F400FBE710B50C468368428813448B4202D0C0
:109904007846FEF7FBFA0023A37010BD70B5054638
:1099140014460E46002944D0002D46D0B6F1005F0F
:1099240008D94FF08053D3F80C3103F50023B6EB7C
:10993400832F0ED3B6F5000F08D94FF08053D3F818
:109944000C3103F50053B6EB832F02D37846FEF7B0
:10995400D5FA631E3344B3F1005F08D94FF0805247
:10996400D2F80C2102F50022B3EB822F0ED3B3F50B
:10997400000F08D94FF08052D2F80C2102F50052A2
:10998400B3EB822F02D37846FEF7B8FA042C10D931
:109994002C8000236B80AB80AE60043C3480B370B9
:1099A40070BD7846FEF7AAFAB6E77846FEF7A6FA3F
:1099B400B4E77846FEF7A2FAEAE738B50446A0B160
:1099C4006288A36813449B78012B12D0EFF31085AF
:1099D40072B6A388A16819448B78032B0DD0204656
:1099E400FFF732FF05B962B638BD7846FEF786FA4E
:1099F400E6E77846FEF782FAE8E72046FFF708FF35
:109A0400A368C31A638000238370EBE72DE9F04158
:109A14000E4614460546D0B1EEB16A88AB681344CD
:109A24009B78012B1BD024B32846FFF702FFA042EA
:109A340021D3EFF3108872B621462846FFF70AFFB8
:109A4400074680B1B8F1000F16D162B614E078462B
:109A5400FEF754FAE0E77846FEF750FADDE7784679
:109A6400FEF74CFADFE721462846FFF7E6FE3060B2
:109A7400E8E7092700E009273846BDE8F081F8B592
:109A84000C4615460646E0B1FCB1A378012B20D163
:109A94002388AB4221D325B3EFF3108772B6258018
:109AA4000223A370F1183046FFF7A2FE7388B28830
:109AB400934203D0B268134400229A7007B962B685
:109AC400F8BD7846FEF71AFADEE77846FEF716FA8E
:109AD400DBE77846FEF712FADAE77846FEF70EFA85
:109AE400D9E77846FEF70AFAD6E770B50C4605467C
:109AF40090B1ACB1EFF3108672B6AA88AB68134488
:109B04009A78042A10D09A78022A15D0032A18D0F9
:109B1400052006B962B670BD7846FEF7EFF9E8E7AE
:109B24007846FEF7EBF9E5E7291D2846FFF760FEC6
:109B3400AA88AB681344E6E703229A7023600020E6
:109B4400E7E77846FEF7DAF90020E2E738B504469D
:109B540080B1EFF3108572B6A388A16819448B789D
:109B6400042B0BD08878022814BF0020012005B9EB
:109B740062B638BD7846FEF7C1F9EAE72046FFF73A
:109B840047FE0146EEE738B5054630B1EFF31084E1
:109B940072B6AB88A968194407E07846FEF7AEF9B7
:109BA400F4E72846FFF734FE01468878C31EDBB28B
:109BB400012BF6D9022814BF0020012004B962B693
:109BC40038BD70B50C46064678B194B1EFF31085F4
:109BD40072B6A378012B10D0032B13D12146304643
:109BE400FFF76CFE05B962B670BD7846FEF786F9DC
:109BF400EBE77846FEF782F9E8E721463046FFF7BF
:109C040078FEEFE77846FEF779F9EBE710B5EFF366
:109C1400108472B68388816819448B78042B06D02B
:109C24008878B0FA80F0400904B962B610BDFFF735
:109C3400EFFD0146F4E70000024B00221A769A6019
:109C4400022070470437002008B5064B98680022AC
:109C54001A605A609A60DA601A615A619A6104F073
:109C640003FE08BD0437002000B585B00A4BDB684D
:109C740002228DF8002001934FF480530293074A87
:109C84006946012001F044FA18B9012005B05DF8D5
:109C940004FB0020FAE700BF04370020023700204D
:109CA40000B585B00A4B1B6802228DF80020019391
:109CB4004FF480530293074A6946012001F028FAC1
:109CC40018B9012005B05DF804FB0020FAE700BFD5
:109CD4002037002002370020164BDA6813795179B7
:109CE4005B1A03F57F2303F6FF7302EB03339A42F7
:109CF40005D002F580520F4BDA600320704700B59F
:109D040085B00D4B1B6801208DF8000001930B4BAF
:109D14000393042302930A4A694601F0F9F918B13E
:109D2400002005B05DF804FB024B01221A760220E4
:109D3400F7E700BF0437002020370020FC3600205E
:109D44000237002000B585B00C4BDA680C4B1B6859
:109D5400043301208DF800000192039340F6FC7354
:109D64000293084A694601F0D3F928B90120034B4C
:109D7400187605B05DF804FB0020FAE704370020EC
:109D8400203700200237002000B585B00A4B1B683D
:109D940001208DF800000193084B039304230293E0
:109DA400074A694601F0B4F918B9012005B05DF815
:109DB40004FB0020FAE700BF203700201037002002
:109DC4000237002010B584B0104BDA681478104BB9
:109DD4001B68043301208DF8000001930392029460
:109DE4000C4A694601F094F970B9094B1B6804F0F8
:109DF400FC0423440433054A5361D1680B780B44B3
:109E04001361012004B010BD0020FBE704370020DB
:109E1400203700200237002008B500230A2B09D878
:109E2400064A52F82320824201D00133F6E7044A5D
:109E3400536002E07846FEF761F808BDD0EC0300F9
:109E44000437002010B5044603886BB1208804EB66
:109E5400800020F47F6323F00F03984208D06388C6
:109E6400B3F5FE4F04D010BD7846FEF747F8EDE792
:109E740024F47F6424F00F0404F5805420782044F3
:109E8400F1E738B504460D46FFF7DCFFA84209D2D6
:109E9400844209D24388013B9BB247F6FE62934257
:109EA400F2D800E0002038BD0020FCE770B504467D
:109EB400084615461E46002363604B88013B9BB24F
:109EC40047F6FE62934201D8206009E02946FFF775
:109ED400D8FF0028F8D1206016E06360FFF7B2FFD6
:109EE400A84211D26368028803EB8203B3420BD207
:109EF40022684240B2F5805F06D24188013989B2B6
:109F040047F6FE629142E8D970BD000030B587B0D3
:109F1400294B1B6923B1284B5B692BB1002526E033
:109F24007846FDF7EBFFF6E77846FDF7E7FFF5E740
:109F3400214A526901208DF808000392009A059283
:109F440004931E4A02A901F0E3F800282DD11A490E
:109F54004B69019A22F0030213444B610CB3164B74
:109F64001C6124B3628847F6FF739A421FD00DBB6D
:109F740011494A6922F47F6323F00F039B1AC868CE
:109F840002794479121B03F5805300EB023209690C
:109F94006846FFF78BFF0446019B002BC8D10125BF
:109FA400DFE77846FDF7AAFFD9E7002000E00120AB
:109FB40007B030BD0120FBE7043700200237002042
:109FC40010B5214BDB6853B11F4B1B7E5BB91E4B95
:109FD4005B680A2B1CD97846FDF790FF18E0784699
:109FE400FDF78CFFF0E77846FDF788FFEFE7164BA7
:109FF40000225A6007E0144B1B7E03B3124B02226B
:10A004001A70012C01D0032C1CD10F4B1B7ECBB931
:10A014000D4B5A680D4B53F82230984704460228DA
:10A02400E9D00328E3D00128EDD1074A536801336E
:10A0340053600A2BE5D97846FDF760FFE1E7FFF7A7
:10A0440003FEDEE710BD00BF04370020D0EC0300A0
:10A05400104B1B681B685A1E12F1030F18D8C3F368
:10A064000B020AB10020704710B50B4AD3600023DD
:10A07400137653760124147093600848FFF7CCFEDE
:10A084000749204601F032F8FFF79AFF204610BD39
:10A094000020704720370020043700206D9C020008
:10A0A400A9A0020008B50B78032B06D00B4B1B7834
:10A0B400012B06D0022B0BD008BD084B00221A76C8
:10A0C400F4E7064B1B7E002BF6D1FFF779FFF3E78D
:10A0D4000B78032BF0D1FFF7B7FDEDE70437002031
:10A0E40000B585B0174BDB6818784FF6FF7203F59F
:10A0F4008051184405F021F9E0B10246114BD968AA
:10A104000B780B44984217D00E4B5B7E83B10E4BF9
:10A1140001208DF8000001920393042302930B4A5B
:10A12400694600F0F5FF48B90120064B187606E0B1
:10A13400074BEDE7012002E0012000E0002005B01C
:10A144005DF804FB0437002004F00300023700200C
:10A1540008F0030070B584B0264BDE687279337959
:10A16400591E8A4232D006F580510C780C4422499B
:10A174000968081D0D7905449B1A06EB03366388AC
:10A18400013B9BB247F6FE62934223D844B31A4B79
:10A194001968628801F58051284605F0CEF8054615
:10A1A400F0B10120134B18768DF800000194134B85
:10A1B400039304230293124A694600F0A9FFB8B935
:10A1C40031462046FFF75DFE0446DFE70120094BD8
:10A1D40058760BE031462046FFF753FE0446D5E798
:10A1E400B4FA84F46409034B5C76012004B070BDB6
:10A1F4000020FBE704370020203700200CF0030088
:10A204000237002008B5104BDB681878002203F5EC
:10A214008051184405F091F808B1012008BD0A4B9B
:10A22400DA68137951795B1A03F57F2303F6FF7318
:10A2340002EB03339A4205D002F58052024BDA60F6
:10A244000320EBE70220E9E70437002000B585B0DE
:10A254000023294A1370D3F8F83FB3F1FF3F09D024
:10A26400B3F1FF3F0DD08BB1B3F1FF3F39D0A3F56C
:10A27400805211E04FF010225269B2F1FF3FEFD14A
:10A2840004E04FF010225269002AEDD14FF08053C0
:10A294005A691B6903FB02F2A2F58052174B1A603C
:10A2A400174B1B6813F4801F16D0164B1B68062B24
:10A2B40012DD154BD3F804350021D1F8F81FB1F1A4
:10A2C400FF3F14D002920191104A009240F276228C
:10A2D4000F49072003F022FCFFF7BAFE05B05DF832
:10A2E40004FB4FF010235A69A2F58052D4E74FF0D3
:10A2F40010214969E6E700BF00370020203700201D
:10A30400182E0020142E0020001001409CEC0300A5
:10A3140082EC030010B50446B0B1104B1B78BBB1FE
:10A324000E4BD968E3685879A3EB0032914211D3FC
:10A334001A79121A02F57F2202F6FF7203EB023336
:10A34400994209D8012004E07846FDF7D7FDE4E7F7
:10A35400002010BD0020FCE70020FAE704370020AD
:10A36400024B1878003818BF0120704704370020CA
:10A3740010B50446124B1B78BBB92378032B18D1B4
:10A384000F4B9C60E268DA600E4B1B78ABB10A227B
:10A394000B4B5A6000221A76012018705A760A492B
:10A3A40000F0A4FEFFF70CFE10BD7846FDF7A6FDF5
:10A3B400E3E77846FDF7A2FDE2E70022E8E700BF05
:10A3C4000437002000370020A9A00200014B1868C0
:10A3D400704700BF2037002010B5044680B1636881
:10A3E4001BB123680BB1A36813B97846FDF786FD4A
:10A3F400A3685A1E134207D10023E360236110BDF2
:10A404007846FDF77BFDEAE77846FDF777FDF3E74D
:10A4140070B508B30E4604468368FBB1EFF31085AC
:10A4240072B60369C268934212D0016842688068B8
:10A4340000F1FF3C03EA0C0303FB021116B13046A2
:10A4440013F020FF2369013323614DB962B608E09C
:10A4540005B962B6052504E00E2502E0092500E0F1
:10A464000025284670BD00000246C0F30B0030BB37
:10A4740039B301F6FF714FEA113C134B0221C3F8C3
:10A484000415114BD3F80034002BFAD001460AE02E
:10A494000D4BC3F808250C4BD3F80034002BFAD02D
:10A4A40002F5805201316145F2D3074B0022C3F813
:10A4B4000425054BD3F80034002BFAD07047102044
:10A4C40070470920704700BF00E00140844610F047
:10A4D400030F2DD111F0030F2CD16AB312F0030F27
:10A4E4002CD19008164B0122C3F80425144BD3F841
:10A4F4000034002BFAD003E00CF1040C04311046B4
:10A50400421E58B10B68B3F1FF3FF5D0CCF80030D0
:10A514000B4BD3F80034002BFAD0EDE7084B0022A4
:10A52400C3F80425064BD3F80034002BFAD0704747
:10A534001020704710207047092070470920704789
:10A5440000E00140094B1B7813F0040F02D003789C
:10A55400122B00D07047064B1A68064B5A60034B07
:10A564001A786FF382021A70F4E700BFA037002054
:10A5740080370020BC37002010B582B001900C4613
:10A58400BDF80630012B11D123680A490B600A4B30
:10A594001A7842F001021A70D3B25B0883F0010307
:10A5A40003F001030B71002002B010BD7846FDF7E3
:10A5B400A5FCE9E780370020A037002010B582B061
:10A5C40001900C46BDF80630022B0FD12268094BCE
:10A5D4001A6022791A71002058719871D871064A4C
:10A5E400137843F00203137002B010BD7846FDF7F0
:10A5F40085FCEBE788370020A037002010B582B037
:10A6040001900C46BDF80630032B06D1054B1868A3
:10A6140020601B79237102B010BD7846FDF76EFCF3
:10A62400F4E700BF8037002010B582B001900C46DB
:10A63400BDF80630032B0CD1084B20681860227932
:10A644001A71074A137843F001031370002002B013
:10A6540010BD7846FDF752FCEEE700BF80370020BE
:10A66400A037002010B582B001900C46BDF806302A
:10A67400042B05D1044B03CB2060616002B010BDF4
:10A684007846FDF73BFCF5E78837002010B582B02B
:10A6940001900C46BDF80630042B0BD1074B206803
:10A6A400616803C3064A137843F002031370002061
:10A6B40002B010BD7846FDF721FCEFE78837002093
:10A6C400A037002000B583B00190BDF80630032BFD
:10A6D40006D1054B00221A601A7103B05DF804FB21
:10A6E4007846FDF70BFCF4E78037002000B583B013
:10A6F4000190BDF80630042B06D1054B00221A60E8
:10A704005A6003B05DF804FB7846FDF7F7FBF4E705
:10A714008837002000B585B01A4B1B7813F0400F22
:10A7240013D0184B1B7813F0040F0BD100230193A3
:10A734008DF80830144B5B6803F500530193B3F1B3
:10A74400807F06D905B05DF804FB7846FDF7D6FB9B
:10A75400E7E70E4B1B788DF808300A4A137843F06C
:10A76400040313700023ADF80C300323ADF80E304E
:10A7740001A9039805F06AFF0028E3D07846FDF7A5
:10A78400BDFBDFE7A0370020BC3700209037002056
:10A7940000B585B00022019202920F4B9968019195
:10A7A4001B7B8DF808300D490B780133DBB20B703D
:10A7B4008DF80B30ADF80C200423ADF80E300DEB02
:10A7C4000301039805F042FF10B905B05DF804FBDE
:10A7D4007846FDF793FBF8E7BC370020903700205C
:10A7E40000B585B00023019302930F4A916801914B
:10A7F400117B8DF80810128AADF809200B4A1278E3
:10A804008DF80B20ADF80C300423ADF80E300DEBB1
:10A814000301039805F01AFF10B905B05DF804FBB5
:10A824007846FDF76BFBF8E7BC3700209037002033
:10A8340000B58DB00B4B1B7B012B0ED0094A9268DF
:10A8440004928DF80830039002238DF8043001A897
:10A85400FEF77AFF0DB05DF804FB024A9268013AF4
:10A864000492EEE7BC37002008B51D481D4B036079
:10A8740000F0B8FE1C4B1B7813F0200F2AD103F014
:10A884000303032B14D1194B1968194A91601979E0
:10A894001173B3F805001082DB79164A1370164A57
:10A8A4001279934217D0B1B9114B00221A6007E014
:10A8B4000F4B00221A609A601A731A82FFF768FF1E
:10A8C4000B4B1A685A60084A137843F0400313701C
:10A8D400FFF720FF08BD084B1A68054B1A60EFE725
:10A8E4007437002049A50200A037002088370020D3
:10A8F400BC370020903700208037002010B582B08C
:10A904000024ADF800400123ADF80230009805F0B2
:10A91400CEFEADF804400223ADF80630019805F0F0
:10A92400C6FE02B010BD000008B5002005F0E6FE2A
:10A93400094A0023136053609360D3601361074A8C
:10A94400117863F345111170CBB243F040031370D7
:10A95400FFF7E0FE08BD00BFBC370020A037002091
:10A9640038B50C4D00242C606C60AC60EC602C613C
:10A9740001F074F9084B5860084A9A60084ADA6092
:10A984001C615C61074B1A7864F3C3021A706C6033
:10A9940038BD00BFBC370020A4370020E1AA020064
:10A9A40000879303A037002008B50C4B1B7813F0E5
:10A9B400100F00D008BD0A480A4B036000F012FED5
:10A9C400FFF752FFFFF79AFF074801F0ABF8034A7D
:10A9D400137843F010031370ECE700BFA037002096
:10A9E400943700201DAC0200A4370020034B1878D4
:10A9F400800880F0010000F001007047A0370020BB
:10AA040010B501F057FF144B1B7BDBB9124B9B7B3A
:10AA1400EBB9114B1A8A41F282639A4204D80F4B64
:10AA24001B7813F0080F14D00B4B01221A73002467
:10AA34001C829A6801329A60FFF7AAFE2046FFF74B
:10AA4400F7FE00E0082401F05BFF204610BD082457
:10AA5400F9E70824F7E700BFBC370020A03700203F
:10AA640010B501F027FF1B4B5C7B64B39B7B4BBB96
:10AA7400184A118A41F28262914204D8164A127825
:10AA840012F0080F23D0134B00225A731B7B2BB1F7
:10AA9400012B0AD07846FDF731FA14E0FFF7B0FF36
:10AAA40088B17846FDF72AFA0DE00A4B00201860B9
:10AAB400586018731882FFF7BBFEFFF769FEFFF7B3
:10AAC40029FE00E0002401F01BFF204610BD1C46B7
:10AAD400F9E700BFBC370020A037002008B5254B9C
:10AAE4001B7BDBB1012B27D07846FDF707FA214AFF
:10AAF400138A01339BB213821F4AA2FB0312120969
:10AB0400C2EB0212A3EB42039BB2002B2FD0194BD2
:10AB14005B8A13B1013B174A538208BD154B1A8A4D
:10AB240041F282639A4204D8144B1B7813F0080F45
:10AB3400DDD0FFF795FFEAE70E4B1B8A41F28262F4
:10AB4400934204D80D4A127812F0080FCFD042F283
:10AB5400B012934202D9074B01225A73FFF780FFC8
:10AB64000028D4D1034B5B7B012BC0D1CFE7FFF787
:10AB740037FECCE7BC37002089888888A0370020BE
:10AB840010B5244B1B7B002B34D10446214B5B8A2C
:10AB940023BBF2B91F4B9B688B422DD21D4B9B6884
:10ABA4002A338B4228D31B4B9B7B2BBB194B9960BD
:10ABB40000221A605A601A8242F6065159825A7368
:10ABC4001A73FFF7E5FDFFF7A5FD2046FFF730FEFA
:10ABD40012E0104B9B6801338B42DFD362B10D4B03
:10ABE4009B6801338B4207D10A4B01225A73FFF74A
:10ABF40037FF01E0012B00D010BD002AFCD1054B2A
:10AC04009B688B42F8D1034B01225A73FFF728FF4C
:10AC1400F2E700BFBC3700200378042B00D0704754
:10AC240043681B78002BFAD010B58468027E437EFB
:10AC3400012A14BF00220122416904F11000FFF728
:10AC44009FFF10BD08B538B10D4B01229A730D4A10
:10AC540013680133136008BD0A4B1B685BB1094AD2
:10AC64001368013B1360002BF5D1054B00229A7346
:10AC7400FFF7F6FEEFE77846FDF740F9EFE700BF90
:10AC8400BC3700202437002000B58DB0ADF8080093
:10AC94008DF81020039103238DF8043001A8FEF7EA
:10ACA40053FD0DB05DF804FB014B9868704700BF7D
:10ACB400BC370020054B1B7B012B02D0034B98684B
:10ACC4007047024B98680138704700BFBC370020BA
:10ACD4001D4B1B7813F0400F34D070B504460D465D
:10ACE4001A4B1A685B689A4228D2184B1B7B012BBB
:10ACF40017D0174B9A4216D2144B1A685B68403B24
:10AD04009A4218D2EFF3108672B6104A1368591C8F
:10AD140011602B60FFF7CEFF206006B962B60020F9
:10AD240070BD0C4BE6E7094B01225A73FFF798FEFE
:10AD34000028E7D1E0E7FFF7EDFCE3E7FFF7EAFCE3
:10AD44000F20EDE70F207047A0370020BC3700200C
:10AD5400FFFF7F0000E0FF00044B9B68584010F0A9
:10AD6400010F00D0013B1846704700BFBC370020DC
:10AD7400014B187B704700BFBC3700202DE9F04120
:10AD8400002625E0134605FB03F3244AD25A304635
:10AD9400C0472249BC2305FB03F3CA5A0132CA52F5
:10ADA4000221204602F051FD01370221204602F023
:10ADB4002CFD014649B1194BBC2202FB0533D3F8E3
:10ADC4000880B8F1000FDDD1E3E797B90136F6B298
:10ADD400022E1FD83546BC2406FB04F408340F4B5E
:10ADE4001C4404340221204602F00FFD01460027D2
:10ADF400E0E7204602F081FD0828E7D1074BBC229A
:10AE040002FB05339B68002BE0D000220449304646
:10AE14009847DBE70120BDE8F08100BFD837002068
:10AE24000CED030008B5082383731023437300F16A
:10AE34001C0343610323037300F1180303610C3003
:10AE440002F02DFD08BD000008B50378012B06D0E3
:10AE5400022B06D07846FDF751F8002002E02920A5
:10AE640000E0014808BD00BF084C010008B50378A4
:10AE7400012B07D0022B15D07846FDF73FF84FF48D
:10AE8400FA700AE083685B1A23F0030000EB930076
:10AE9400C00000EB930000F5FA70074B984228BFFE
:10AEA400184608BD8068401A000B044B03FB00F0F1
:10AEB40000F5FA70F1E700BF60850100084C01005D
:10AEC40038B5044601210C3002F09FFC054678B1E8
:10AED400084BC4F89C300023C4F8A0306168FFF725
:10AEE400C5FFC4F8A800C4F8AC40012384F8B83006
:10AEF400284638BD19B0020010B50446FFF7E0FF3C
:10AF040020B104F19C000CF029FA00B910BD784678
:10AF1400FCF7F4FFFAE70000F8B505460C461646C0
:10AF240017680378012B19D1124BA3FB043149098B
:10AF34008B00AC68E41BB4EB810F00D31C468CB1CE
:10AF4400686827F00307E968224639443844FFF764
:10AF5400BDFA58B9336823443360F8BD7846FCF72A
:10AF6400CDFFE1E77846FCF7C9FFE9E77846FCF74F
:10AF7400C5FFEFE77D0CCEC7F8B506460C4615466F
:10AF840017680378022B17D1114BA3FB04231B0C66
:10AF94001A03B468E41BB4EB033F00D314467CB13A
:10AFA400706827F0030721463844FFF75DFA58B963
:10AFB4002B6823442B60F8BD7846FCF79FFFE3E73A
:10AFC4007846FCF79BFFEBE77846FCF797FFEFE743
:10AFD400EB0661C538B505460C4611462378012BAE
:10AFE40006D0022B0FD07846FCF788FF002004E03F
:10AFF400021D2046FFF790FFA0686B68834214BFD0
:10B004000020012038BD021D2046FFF7B5FFA068CF
:10B01400F3E700002DE9F8430F46D1F8A850254B7B
:10B024001B786BB90446A5F5FA7501F10C080121EA
:10B03400404602F0EAFB064648B14FF0000922E020
:10B044000CF0C8F9002387F8B830BDE8F8837846D7
:10B05400FCF754FFF1E70CF0BDF90121404602F082
:10B06400F4FB00237B6087F8B830134B186801F0B9
:10B074008FFC3846FFF740FFE7E73046FFF7E4FE72
:10B084004844A8420FD8A5EB090231463846FFF7D9
:10B09400A1FF0028DFD101F02BFAB0EB0409ECD5B5
:10B0A400A4EB0009E9E70CF095F93846FFF724FF13
:10B0B400CBE700BF0C3A0020D437002010B5084875
:10B0C40001F046FC074B1860002406E0BC20064B48
:10B0D40000FB0430FFF7A6FE0134022CF6D910BDA4
:10B0E40081AD0200D4370020D837002038B504469B
:10B0F4000D46022805D8054BBC2202FB04339D6093
:10B1040038BD7846FCF7FAFEF5E700BFD8370020D3
:10B114002DE9F84306460D461746022816D8CDB148
:10B124002B78012B1AD0022B3ED16B68C3F30B038F
:10B13400002B31D1AB68C3F30B03002B30D1AB68C8
:10B14400002B34D17846FCF7D9FE30E07846FCF782
:10B15400D5FEE4E77846FCF7D1FEE1E76B6813F02F
:10B16400030F0DD1EB6813F0030F0DD1AB6813F08F
:10B17400030F0DD1AB68D3B97846FCF7BFFE16E0D8
:10B184007846FCF7BBFEEDE77846FCF7B7FEEDE743
:10B194007846FCF7B3FEEDE77846FCF7AFFEC9E767
:10B1A4007846FCF7ABFECAE77846FCF7A7FEEFF358
:10B1B400108872B6BC2406FB04F408342A4B1C44E1
:10B1C40004340021204602F020FB814678B300219C
:10B1D400204602F03AFB28686968AA68EB68C9F857
:10B1E4000000C9F80410C9F80820C9F80C302FB1C0
:10B1F4001D4BBC2202FB06335B883B801A4BBC22EE
:10B2040002FB06335A8801325A8093F8B83083B966
:10B21400164B1B7813B10024A1460CE0BC20124B42
:10B2240000FB0630FFF74CFE8146002403E00424B3
:10B2340001E00024A146B8F1000F00D162B6B9F1D3
:10B24400000F09D0BC2303FB06F09830064B1844CA
:10B2540004300CF083F810B92046BDE8F883784632
:10B26400FCF74CFEF8E700BFD83700200C3A00206A
:10B2740038B5EFF3108572B668B1164A1368013316
:10B284001360144B1B68003B18BF0123124A137050
:10B2940005B962B638BD0F4B1B682BB10D4B1C684A
:10B2A400013C1C602CB1ECE77846FCF727FEF5E77F
:10B2B4000134022CE5D8094BBC2202FB043393F879
:10B2C400B830002BF4D1054B02FB0430FFF714FE19
:10B2D400EEE700BFD03700200C3A0020D83700201A
:10B2E40018B1830B024AD05C70470020704700BF3E
:10B2F4001CED030012DF704700B583B001F080FF3E
:10B3040040B10C4B1B6813F0400F03D00A4B1B6871
:10B31400012B02DC03B05DF804FB084BD3F80435C1
:10B324000190074A009275220649022002F0F6FBBA
:10B33400F0E700BF182E0020142E0020001001405A
:10B3440078ED03006AED030000B58DB0114B1B7856
:10B35400022B06D07846FCF7D1FD01200DB05DF834
:10B3640004FBFFF743FB18B90B48FEF715FAF4E7A3
:10B374000CF07CFD074B03221A702C22002101A83B
:10B3840012F0B2FF1D238DF8043001A8FEF7DCF99A
:10B39400E3E700BF1C3A0020042E002008B5037820
:10B3A400122B00D008BD0448FEF706FA034B1868B8
:10B3B40001F0EEFAF6E700BF042E0020143A002054
:10B3C40010B58AB00CF08AFD70B3044600238DF8E2
:10B3D40010300DF1140C8646BEE80F00ACE80F00E7
:10B3E400DEF80030CCF80030627D052A04D9237DD4
:10B3F40003F00F03072B1ED1164B1A688AB104AB56
:10B404000393237DC3F303038DF80430637D062B7C
:10B414001BD9063B8DF8053004F11D03029301A8E6
:10B42400904720460CF044FD0CF074FD80F00100C0
:10B43400C0B20AB010BD207D04AB063A04F11D0170
:10B4440000F00F000BF0D4F9D6E700238DF8053097
:10B454000293E4E7183A002070B582B0314B1B78B0
:10B46400002B54D10446002855D0067A0F2E01D063
:10B47400072E52D106F028F8E06870B1FCF750FDB1
:10B484000DF10700FFF736FF0546002840D19DF86F
:10B494000730012B04D002253AE0FCF74FFDEFE71B
:10B4A400FCF76EFD00F026FB304601F0CDF9E078A4
:10B4B40000F027F900F0F4FE0BF008FF1A480CF036
:10B4C400C3FD0BF017FC0BF075F9FFF7F7FD05F062
:10B4D40081F800F03FFD05F0B7FF05F053FD20466D
:10B4E40001F0A2FDFDF7F6FD04F0B0FAFCF750FC04
:10B4F40008B1062813D10D4801F02AFA0C4B186044
:10B504000C4B00221A60074B01221A7000E0082538
:10B51400284602B070BD0E25FAE70725F8E7054670
:10B52400F6E700BF1C3A0020C5B302004DB3020089
:10B53400143A0020183A002010B582B0204B1B7832
:10B54400012B0DD05AB2002A35D0043BDBB2012BBB
:10B5540033D80BF0F3FE044628B3204602B010BDE6
:10B5640001F072FDFDF7F8FDFCF712FC0446B8B1DA
:10B57400062815D0134B1B6813F4804FEDD0124BE3
:10B584001B68012BE9DD114BD3F804350190104AF7
:10B5940000924FF4C2720F49022002F0BFFADCE7B6
:10B5A40001F076F9D5E7064B02221A700A4B1868A7
:10B5B40001F0EEF9D1E70824CFE70824CDE700BF76
:10B5C4001C3A0020182E0020142E002000100140E8
:10B5D400A4ED03006AED0300143A002008B5FDF75A
:10B5E400BFFD08BD08B5FEF7D7F808BD08B5FEF7DE
:10B5F400E3F808BD08B500F019FE002008BD0000FE
:10B60400014B1860704700BF183A0020014B00221C
:10B614001A607047183A002070470000074A136800
:10B6240001331360B3F1704F02D0044B18687047B4
:10B63400134600221A6001221A60F6E7103A00202D
:10B6440010B5044618B100232360636010BD78462A
:10B65400FCF754FCF7E738B50C46054668B184B1ED
:10B6640000236360EFF3108372B62A686AB16A68D4
:10B6740054606C6003B962B638BD7846FCF73EFC92
:10B68400EDE77846FCF73AFCEAE72C60F1E710B501
:10B69400044658B1EFF3108372B6206808B14268CB
:10B6A4002260226832B103B962B610BD7846FCF755
:10B6B40025FCEFE76260F6E710B5044608B12068A0
:10B6C40010BD7846FCF71AFCF9E70000BFF34F8F72
:10B6D4000549CA6802F4E062044B1343CB60BFF32C
:10B6E4004F8F00BFFDE700BF00ED00E00400FA0546
:10B6F40035DF704708B54FF0FF30FFF7F9FFFFF76C
:10B70400E5FF072814D8DFE800F0080C1504110F32
:10B714000A066420704714207047FA2070471E20E0
:10B7240070474FF4FA707047322070474B207047CF
:10B73400FA20704796207047024B5868103840B280
:10B74400704700BF00ED00E0034600280FDB5B11EB
:10B75400084A52F82330424200F01F0002F01F0250
:10B7640058BF504223FA00F000F00100704700F186
:10B774001F03ECE700E100E046DF7047002302F11D
:10B78400FF3C63451DDA00B511F803C04FEA4C0CC9
:10B794005FFA8CFC00F803C001EB030E9EF801E095
:10B7A4004CEADE1C00F803C001339BB202F1FF3CFB
:10B7B4006345E9DB11F80C305B0000F80C305DF8F0
:10B7C40004FB11F80C305B0000F80C307047F8B53E
:10B7D40005460F464B1EDBB2012B09D800232B6113
:10B7E4006B61AB61EB612846FFF7C6FF012405E0FE
:10B7F4007846FCF783FBF1E70134E4B2BC420FD88E
:10B80400284610F9206F10220146FFF7B7FF002EDB
:10B81400F2DA95F82F3083F0870385F82F30EBE7C1
:10B82400F8BD38B50546144612F02CFD80232B557F
:10B83400621C02E00023AB5401320F2AFADD38BD4A
:10B844002DE9F04190B084460C4696461F4602F11D
:10B854000F084FEA281604AD0068DCF80410DCF881
:10B864000820DCF80C300FC50EF00F055FEA18183D
:10B8740004D085B14FF00008022102E04FF0000827
:10B88400022104A8FFF7A3FFB8F1000F1BD0701E1C
:10B89400000110230FE04FF001084146F1E7013B9E
:10B8A4009BB22218D25C03F14001694411F8101CC8
:10B8B4004A400DF80320002BF1D100250C950D957D
:10B8C4000E950F9529E0711E2A4604EB0111684676
:10B8D400FFF7A7FF10230BE0013B9BB21DF80320E9
:10B8E40003F14001694411F8101C4A400DF803208B
:10B8F400002BF1D1E1E7013A92B202F140036B442B
:10B9040013F8100C63189B5C584008AB9854002A39
:10B91400F1D104A8FFF730FF0135731EAB4202DDFD
:10B9240029011022F3E710230CE0013B9BB203F141
:10B9340040020DEB020111F8402C11F8101C4A4092
:10B9440008A9CA54002BF0D104A8FFF715FF0CACCA
:10B954000FCC38607960BA60FB6010B0BDE8F0814C
:10B9640010B50446134B1B6893B14168114B1B6817
:10B974005B68CB1A002B0BDB0E4B1B6818465B690C
:10B984001BB15A68521A002AF8DB6361446103E070
:10B99400084B1A6862611C60064A93889BB20133A3
:10B9A4009BB2938013B10123237010BD7846FCF73A
:10B9B400A5FAF8E7243A002038B5054619E063698A
:10B9C400214A13600023636193889BB2591E89B294
:10B9D40091800BB3A3681BB302232370A36821696E
:10B9E4002846984700F03AF905462378DBB2022B43
:10B9F4001AD0154B1B6833B3134B1B685B685B1B76
:10BA0400642B20D5104B1C682378DBB2012BD6D0D5
:10BA14007846FCF773FAD2E77846FCF76FFAD9E771
:10BA24007846FCF76BFAD7E7E26812B90023237073
:10BA3400DFE76368134463605B1B642BF9D420461F
:10BA4400FFF78EFFD5E738BD243A002010B5044631
:10BA5400144B1B68834207D0124B1B68D3B15A693D
:10BA6400A2420ED01346F9E743690E4A1360938845
:10BA74009BB2591E89B2918063B97846FCF73EFAAD
:10BA840008E062695A6107498B889BB25A1E92B2D8
:10BA94008A8013B10023237010BD7846FCF72EFA78
:10BAA400F8E700BF243A002008B5064B1B6833B101
:10BAB400044B1B680449586800F07CF908BD00F089
:10BAC400D7F9FBE7243A0020E9BA020008B500F0F0
:10BAD400C5F8FFF771FF00F0C1F8FFF7E5FF01209B
:10BAE40008BD000008B5024B186800F051FF08BDFE
:10BAF400203A002008B50023064A1370064A136052
:10BB04005360064800F024FF054B186000F098F8D5
:10BB140008BD00BF1D3A0020243A0020D1BA02001B
:10BB2400203A002010B50446154B1B789BB901F050
:10BB340001F8A0B1BCB1A368CBB12378DBB2012B6F
:10BB440019D0002363612046FFF70AFF00F086F84E
:10BB5400FFF7AAFF10BD7846FCF7D0F9E7E778466F
:10BB6400FCF7CCF9E6E77846FCF7C8F9E3E7784652
:10BB7400FCF7C4F9E1E77846FCF7C0F9E1E700BF58
:10BB84001D3A002010B5044600F0D4FF50B16CB14A
:10BB94002046FFF75BFF0023636100F05FF8FFF7C7
:10BBA40083FF10BD7846FCF7A9F9F0E77846FCF767
:10BBB400A5F9EDE730B583B004460D461A4B1B7862
:10BBC400DBB900F0B7FFE0B1FCB12046FFF73EFF60
:10BBD4000023636165602046FFF7C2FE00F03EF873
:10BBE400FFF762FF114B1B6813F4804F03D0104B17
:10BBF4001B68032B0DDC03B030BD7846FCF77EF9DF
:10BC0400DFE77846FCF77AF9DEE77846FCF776F961
:10BC1400DBE7084BD3F80435074A0092E2220749D0
:10BC2400042001F07BFFE6E71D3A0020182E0020D7
:10BC3400142E00200010014028EE030016EE03002D
:10BC440008B512F085F900B108BD12F0F9F8002822
:10BC5400FAD07846FCF752F9F6E70000EFF31080CB
:10BC640072B6194B1968194BD3F80425D3F804316B
:10BC7400012B24D000B962B642EA01624FEAD26CC9
:10BC84005001801A6CF1000C4FEA4C2343EAD05364
:10BC94004102891843F1000C4FEA8C1040EA91608C
:10BCA4008B015B1A60EB0C009B1840F1000013F54C
:10BCB400804340F10000DB0B43EA40407047034BF4
:10BCC400D3F804250131D5E7383A002000100140AB
:10BCD40010B50A4B4FF40032C3F84823C3F80823C5
:10BCE400074B1B682BB1064B1C68FFF7B7FFA04737
:10BCF40010BD7846FCF702F9F5E700BF00100140DB
:10BD04002C3A0020EFF3108172B6254B0022C3F8C1
:10BD14000421244A13680133136001B962B6224B2B
:10BD24001B68002B3AD0204B1A68013A1A601B6832
:10BD3400002B33D103F1804303F58833D3F8042572
:10BD44001A4B1B689A421BD2EFF3108272B6144B43
:10BD5400D3F80435981C1549096888420DD3033378
:10BD64000F49C1F8443502B962B60D4B4FF40032A5
:10BD7400C3F84423C3F8042370470C4B1B68EFE754
:10BD840010B50B4B1B682BB1094B1C68FFF766FF02
:10BD9400A04710BD7846FCF7B1F8F5E7704700BF3F
:10BDA40000100140383A0020343A0020303A002094
:10BDB4002C3A002030B583B00446002301930D468D
:10BDC400002936D0244B1D60FFF748FF031B002BCE
:10BDD40033DB0020410CC003204BC018204A4FF035
:10BDE400000341F1000112F0DDF8EFF31083019339
:10BDF40072B61C4BD3F80435032838BF0320C3F1B3
:10BE0400FF1202F57F42824219D30344154AC2F855
:10BE140044354FF40033C2F84433C2F804330023EA
:10BE2400114A1360114A1360019B03B962B603B04F
:10BE340030BD7846FCF762F8C4E7201ACAE7034429
:10BE440003F17F4301331A0E013207490A6023F0DC
:10BE54007F43064A1360E7E72C3A002020A107003D
:10BE640040420F0000100140343A0020303A0020D4
:10BE7400074B4FF40032C3F84823C3F808230023C8
:10BE8400044A1360044A1360044A1360704700BFF5
:10BE940000100140343A0020303A00202C3A0020AF
:10BEA40030DF704731DF704710B4034602684068E2
:10BEB400A2EB70129C6880EAF4301860D9680C44D4
:10BEC4005C60114499601044D8605DF8044B70477D
:10BED40070B582B00D46064608B100240BE07846E2
:10BEE400FCF70CF8F9E79DF807103019FFF7DAFFB3
:10BEF4009DF807301C44A5420DD90DF10700FFF74A
:10BF0400CFFF9DF80730002BF7D02A1B9342EAD9C4
:10BF14008DF80720E7E702B070BD000030B583B0AC
:10BF240005460024019404210DEB0100FFF7D0FF26
:10BF3400074B2B60019B6B60AB60EB6003E0284612
:10BF4400FFF7B2FF0134132CF9D903B030BD00BFA1
:10BF5400ED5EEAF1704708B5032004F0CFFB08BD9D
:10BF640048DF704749DF70474ADF7047044B0122BE
:10BF74005A7143F2B0629A6043F69822DA607047CD
:10BF8400A03A0020094B03221A74094A5A611A681C
:10BF940040F6D8639A4204D9054B43F2B0629A60E2
:10BFA4007047034B40F6D8629A607047843A002089
:10BFB400A03A002008B50F4B1B78022B12D0032B9C
:10BFC40008D0012B03D07846FBF798FF0EE002233C
:10BFD40003740BE0084B00225A7108499960084920
:10BFE400D960827103230374034B4361014B002224
:10BFF4001A7008BD813A0020A03A0020A0860100F2
:10C00400FF1FA10738B504460025057401234371B9
:10C014000E4A13680133136000F0C4FA0BF054FAAB
:10C0240021680B4B1B68283301FB03F3094AA2FB6D
:10C034000323A1EB9341084A7839284600F032FAE9
:10C0440000B938BD7846FBF759FFFAE77C3A00207F
:10C05400783A002083DE1B4389BF020010B50446F2
:10C0640000238360C36003680D4A9268026081798B
:10C0740091B10121017403B90A4B991A6161B1F5B7
:10C084007A7F01D39A4202D94FF47A736361FFF73E
:10C094006DFF0123A37110BDFFF7B4FFF7E700BFE5
:10C0A400A03A00208096980010B50C4631B1C368C0
:10C0B4000133C36003684269134403608368013336
:10C0C400836001220274416921FA02F24261012B68
:10C0D4000DD0022B1BD042690368134417498B42CD
:10C0E40024D840F6D7639A4223D800231FE0B2F540
:10C0F400FA7F07D041F6B1539942ECD840F6D863A1
:10C104004361E8E7002CF5D100234361E3E7C3680A
:10C11400022B06D0012BDED1002CDCD1002343619D
:10C12400D9E70268054B9B1A4361D4E7002313B196
:10C1340010BD0123FBE7FFF765FFF9E78096980040
:10C1440043791BB90D4B00221A70704710B5044691
:10C154000BF0D6F920680A4B1B68283300FB03F365
:10C16400084AA2FB0323A0EB9340783800F04AFA74
:10C1740000236371014B00221A7010BD803A002025
:10C18400783A002083DE1B4308B5254B01221A713F
:10C19400244B1B7813B1244B1B781BB3204B002278
:10C1A4001A7404281AD8DFE800F00314110C0700ED
:10C1B4001B48FFF753FF1CE001211948FFF774FFE8
:10C1C40017E000211648FFF76FFF12E00BF028F983
:10C1D4000FE000F0ADF90BF05DF90AE07846FBF7EB
:10C1E4008DFE06E000F084F90D4B18601846FFF749
:10C1F400E1FE0B4B1B7C023BDBB2012B08D9084B45
:10C204001B7C022B08D0064800230371103008BDA4
:10C214000348FFF795FFF2E7014B01221A76F2E794
:10C22400843A0020813A0020803A002008B504387E
:10C23400042814D8DFE800F0182614030E00164B67
:10C244001B7E012B0BD1FFF78DFE40B17846FBF727
:10C2540055FE04E0104B00221A760BF079F908BD64
:10C264007846FBF74BFEFAE7FFF780FE0B4840F6F3
:10C27400D8638360FFF778FE0028F0D07846FBF798
:10C284003DFEECE70548FFF76FFE0028E7D078464F
:10C29400FBF734FEE3E700BF843A0020A03A002015
:10C2A40010B40E4A0023137013710121517143F22B
:10C2B400B064946043F69824D460094A1060094A33
:10C2C4001370094A1370094A1360094A13715371B0
:10C2D4001360137691715DF8044B7047A03A002007
:10C2E400783A0020803A0020813A00207C3A0020ED
:10C2F400843A002008B5104B1B7E012B08D0022B7A
:10C3040017D00BB1002008BD0C48FFF729FE40B937
:10C314000B48FFF729FE40B9074B02221A7600208A
:10C32400F1E77846FBF7EAFDF2E77846FBF7E6FD2E
:10C33400F2E71120E7E700BF843A00208DC1020034
:10C34400A03A00200B4B1B7C023BDBB2012B0BD928
:10C35400094B1B78012B09D0022B09D0032B01D0E8
:10C36400002070470120704701207047012070476A
:10C3740001207047843A0020813A0020014B18685C
:10C38400704700BF843A00200D4B5B790BB9002045
:10C39400704710B50A4B1C680A4B1B68283304FB12
:10C3A40003F3094AA2FB0323A4EB9344783C00F073
:10C3B4009FF80346201A00D410BD181BFCE700BFE9
:10C3C400843A0020783A002083DE1B43014B18791D
:10C3D400704700BF843A0020EFF3108372B6054A19
:10C3E400527922B1044A4FF48071C2F8001103B9A2
:10C3F40062B67047843A002000E100E008B5054BBE
:10C404001B7E022B00D008BD034B01221A70FFF7DC
:10C41400E3FFF8E7843A0020813A002008B5074B8F
:10C424001B7E022B00D008BD012804D0044A1370DF
:10C43400FFF7D2FFF7E70323F8E700BF843A0020B1
:10C44400813A002008B5094B1B782BB148B9084B39
:10C454001B7813B1012300E00023044A107013B9C0
:10C4640008BD0023F9E7FFF7B7FFF9E7803A00209A
:10C47400813A002010B40A4B00F15002002443F822
:10C48400224000F1100C012202FA0CF2C3F804233A
:10C4940000F5A87043F820105DF8044B704700BF06
:10C4A40000800040022817D810B5EFF310840C4B1D
:10C4B4001C6072B60B4B43F820200B4B002243F850
:10C4C40020200A4B1B7823B9054B186830B962B693
:10C4D40005E0FFF7CFFFF7E707207047002010BD06
:10C4E400B03A0020CC3A0020C03A0020B43A0020F0
:10C4F400EFF310820A4B1A6072B60A4B1B7863B1D1
:10C50400094B0022C3F84C210122DA64D3F84C050C
:10C51400034B1B6803B962B67047044B1868F7E70E
:10C52400B03A0020B43A002000800040B83A00201D
:10C534002DE9F04100240EE00027154B43F8247048
:10C54400144EC6F80853FFF7D3FFC04704F1500355
:10C5540046F823700134022C18D804F150030D4A14
:10C5640052F82330002BF5D0D2F8043304F1100232
:10C57400012595402B42EDD0054B53F82480B8F1AA
:10C58400000FD9D17846FBF7B9FCD5E7BDE8F081B7
:10C59400CC3A002000800040014B1B6818447047CF
:10C5A400BC3A002010B500230CE0114A03F5A87131
:10C5B400002042F8210003F1500142F8210052F812
:10C5C40021200133022BF0D90A4B1B681BB90A4BFB
:10C5D4004FF480721A60094B01221A70FFF73EFB78
:10C5E4000446FFF785FF241A054B1C6010BD00BFED
:10C5F40000800040B03A002000E100E0B43A00209E
:10C60400BC3A0020002307E000220C4941F8232013
:10C614000B4941F823200133022BF5D9094B18604B
:10C62400094B00221A70094B4FF0FF32C3F808235C
:10C63400074B4FF48072C3F880217047CC3A002036
:10C64400C03A0020B83A0020B43A002000800040EC
:10C6540000E100E0002807DB00F01F02400901238D
:10C664009340024A42F82030704700BF00E100E0E6
:10C67400002808DB4901C9B200F1604000F56140BF
:10C6840080F80013704700F00F004901C9B2014B54
:10C694001954704714ED00E0002807DB00F16040F6
:10C6A40000F5614090F800034009704700F00F0066
:10C6B400014B185C4009704714ED00E01F2808DDA9
:10C6C4003F280CDC20380123834014BF01200020C4
:10C6D4007047044B23FA00F000F00100704701207A
:10C6E400704700BFFC06FFBD38B50446FFF7E6FF00
:10C6F400E8B12046FFF7D0FF07281CD8EC230341FC
:10C7040013F0010F1AD00F4B9D6865B160091946EB
:10C7140053F8203004F01F040122A240134341F8CF
:10C724002030002505E02046FFF794FF01E042F2A7
:10C734000105284638BD42F20205FAE742F2020535
:10C74400F7E700BF9C59002038B505460C46FFF7B3
:10C75400B5FF60B1072C0DD8EC23234113F0010F72
:10C764000BD021462846FFF783FF002038BD42F254
:10C774000100FBE742F20200F8E742F20200F5E7AB
:10C78400EFF3108272B6114B9B68CBB930B40F49EA
:10C7940001238B600E4BD3F880400E4D2C400C606F
:10C7A400C3F88050D3F884404C604FF0FF31C3F895
:10C7B40084100023037002B962B6002030BC7047B5
:10C7C4000123037002B962B6002070479C5900200F
:10C7D40000E100E0FC06FFBD094B9B686BB160B94A
:10C7E400EFF3108172B6064B1868064A1060586859
:10C7F400506000229A6001B962B60020704700BF01
:10C804009C59002000E100E008B503783BB1012BFE
:10C8140004D1436813B1C1688068984708BD436870
:10C82400002BFBD080689847F8E70000044B1B7886
:10C834000F2B04D0034B4FF48022C3F80021704720
:10C84400D93A002000E100E010B50D4C20700D48ED
:10C854000D4B0360102343608360FDF7BDFD0B485F
:10C86400FEF7EEFE21780F2900D110BD1220FFF74C
:10C874006BFF0028F9D07846FBF740FBF5E700BFD3
:10C88400D93A0020383C0020383B0020DC3A002014
:10C8940008B5074B1B780F2B00D108BD1220FFF7FA
:10C8A40023FF0028F9D07846FBF728FBF5E700BF03
:10C8B400D93A002010B5EFF3108472B60D4A13680C
:10C8C400591C11601BB90C4B1B780F2B05D1094B5C
:10C8D4001B685BB104B962B610BD0848FFF750FF8E
:10C8E4000028F4D07846FBF709FBF0E77846FBF71D
:10C8F40005FBEFE7343B0020D93A0020303B002011
:10C9040010B5EFF3108472B60E4B1B685BB10D4A81
:10C914001368013B13601BB90B4B1B780F2B06D11B
:10C9240004B962B610BD7846FBF7E8FAEFE7074BA7
:10C934001878FFF751FF0028F2D07846FBF7DEFAAB
:10C94400EEE700BF343B0020D93A0020303B002002
:10C9540010B5044680B10C4B1B68102B10D8EFF3B4
:10C96400108272B6084B1868411C1960074B43F8D3
:10C97400204002B962B610BD7846FBF7BFFAEAE779
:10C984007846FBF7BBFAEAE7E43A0020E83A0020ED
:10C9940038B504460D4B1B68834212D9EFF310855A
:10C9A40072B660090A4951F8203004F01F040122CC
:10C9B400A240134341F82030FFF738FF05B962B6AF
:10C9C40038BD7846FBF79AFAE8E700BFE43A00205E
:10C9D4002C3B002070B50D461646044658B175B17F
:10C9E400EFF3108372B6A560E6600022227424601F
:10C9F40003B962B670BD7846FBF780FAEFE7784674
:10CA0400FBF77CFAECE7000038B5044650B1A368A4
:10CA140063B1EFF3108572B6237C5BB1112005B9C5
:10CA240062B638BD7846FBF769FAF0E77846FBF75B
:10CA340065FAEEE70123237421460348FEF70BFE53
:10CA4400FFF7F4FE0020EAE7DC3A002010B50446C4
:10CA540008B1207C10BD7846FBF750FAF9E70000D6
:10CA640070B584B02B4B1B7823B90125294B1D705D
:10CA740000240AE07846FBF741FAF6E7264B53F820
:10CA8400243098470646E0B10134244B1B68A34286
:10CA94001CD96109224A52F8210004F01F0C012319
:10CAA40003FA0CF31842EFD0EFF3108672B652F883
:10CAB400210020EA030042F82100002EDED162B6F4
:10CAC400DCE72046FFF764FF3546DDE71548FEF74F
