:020000022000DC
:1070000000F003206D7302005573020057730200F5
:10701000597302005B7302005D7302000000000000
:107020000000000000000000000000005F7302008C
:1070300061730200000000006373020065730200C8
:1070400067730200677302006773020021960300F2
:1070500035960300677302006191030067730200B5
:1070600067730200677302008D7703006773020085
:1070700067730200677302006773020067730200A0
:107080006773020019E1030081CA020067730200FE
:107090007DE103006773020011990300677302002A
:1070A0006773020067730200677302006773020070
:1070B0006773020067730200000000000000000018
:1070C000677302006773020067730200499603004A
:1070D0006773020067730200677302006773020040
:1070E000677302006773020067730200000000000C
:1070F00000000000677302000000000067730200D8
:10710000000000000000000000000000000000007F
:10711000000000000000000000000000000000006F
:10712000000000000000000000000000000000005F
:10713000000000000000000000000000000000004F
:10714000000000000000000000000000000000003F
:10715000000000000000000000000000000000002F
:10716000000000000000000000000000000000001F
:10717000000000000000000000000000000000000F
:1071800000000000000000000000000000000000FF
:1071900000000000000000000000000000000000EF
:1071A00000000000000000000000000000000000DF
:1071B00000000000000000000000000000000000CF
:1071C00000000000000000000000000000000000BF
:1071D00000000000000000000000000000000000AF
:1071E000000000000000000000000000000000009F
:1071F000000000000000000000000000000000008F
:10720000344935480A1A02D0072291438D46334942
:1072100033480A1A06D00722914381F309880222D3
:1072200082F314882F483049304A00F042F8304841
:107230003049314A00F03DF830483149314A00F0D8
:1072400038F831483149324A00F033F83148324990
:10725000324A00F02EF832483249334A00F029F819
:1072600032483349334A00F024F833483349002286
:1072700000F02AF832483349002200F025F832485D
:107280003249091A082902DB0022026041601F48C6
:107290001F49884205D00268043003B4904703BCFC
:1072A000F7E700208646EC4600200021284A904758
:1072B000FEE7884207D0521A05D0037801300B70E0
:1072C0000131013AF9D17047884202D00270013091
:1072D000FAE7704700F0032000E8032000F00320E5
:1072E00000F0032068010400002E0020642E00201E
:1072F000A0730200A073020022E6030068010400EC
:10730000002E0020002E0020B8E90300B8E9030099
:10731000B8E90300B8E90300B8E90300B8E90300DD
:10732000B8E90300B8E9030068010400CC010400D7
:10733000642E0020642E0020642E0020D8590020E6
:10734000D8590020D8590020D8590020D85D0020F5
:10735000E9760200FEE7FEE7FEE7FEE7FEE7FEE76E
:10736000FEE7FEE7FEE7FEE700F002B8FFF7FCBF2E
:1073700008484FF00701884385460748804707487B
:10738000016841F470010160BFF34F8FBFF36F8F4D
:10739000FFF736BF00F00320FD99030088ED00E001
:1073A00041DF704710B58AB044686378172B4DD120
:1073B00042781F2A4AD10022029203920492059237
:1073C000069207920892099222788DF808208DF88B
:1073D0000930A3788DF80A30E37803F00F028DF8B6
:1073E0000B201B098DF80C30237903F00F028DF868
:1073F0000D201B098DF80E30052308E09A1CE15C76
:107400000DF1280C624402F8201C0133DBB21C2B66
:10741000F4D9002307E00AAA1A4412F8201C134AE0
:10742000D1540133DBB21E2BF5D943685A7F0F4B81
:10743000DA774268927F83F820200D4B1B6813F4A3
:10744000804F03D00B4B1B68032B01DC0AB010BD2F
:10745000094BD3F80435054A92780192074A009205
:1074600054220749042006F01FFBEFE7C82F002035
:10747000142E0020102E00200010014018EA0300F6
:1074800010EA030010B504460B46164A116811B302
:10749000D3F800C058689A68D3F80CE0C1F811C05E
:1074A000C1F81500C1F81920C1F81DE0D3F810C0CB
:1074B00058699A69C1F821C0C1F82500C1F829208E
:1074C0009A8B9B7FA1F82D2081F82F3001230B711F
:1074D00020460FF0A7FE1F2120460FF064FE014B4F
:1074E000186010BD802F002008B502490248FFF740
:1074F000C9FF08BD842F0020E42E002008B580239A
:10750000024A002102480FF0D1FF08BD642E00207E
:10751000E42E002000B583B00E4B1B6813F4804F9F
:1075200003D00D4B1B68032B09DC0322C8210F205D
:1075300000F018FB0AF0ECF903B05DF804FB074B10
:10754000D3F80435064A00925E220649042006F06C
:10755000ABFAEAE7142E0020102E002000100140A4
:1075600044EA030010EA030008B50378232B00D097
:1075700008BDFFF7CFFFFBE700B58DB02422002147
:1075800003A817F019F801238DF80C3007238DF8A4
:107590000F308DF814301F4B0793002103A80AF019
:1075A00069F950B30B2827D11B4B1B6813F4804F8C
:1075B00003D01A4B1B68032B13DC174B1B6813F407
:1075C000804F1AD0154B1B68032B16DD144BD3F8D4
:1075D0000435144A009279221349042006F064FA13
:1075E0000BE00F4BD3F80435104A009278220E4975
:1075F000042006F059FAE0E738B90D4804F04CF8D9
:10760000FFF77CFF0DB05DF804FB0A4A7E2112F003
:10761000F1FAF2E769750200142E0020102E002006
:1076200000100140B0EA030010EA030060EA030022
:10763000A5730200B8E9030000B583B016F0A2FDFF
:10764000B8B900F0C3FA134A04214FF4804006F0A1
:107650000FFA00F0F7FAFFF78FFF0F4B1B6813F4D8
:10766000804F03D00D4B1B68032B07DC03B05DF884
:1076700004FB0B4A8C2112F0BDFAE2E7094BD3F868
:107680000435094A009293220849042006F00CFAB6
:10769000ECE700BF45DA0200142E0020102E002077
:1076A000B8E9030000100140ECEA030010EA03000F
:1076B00008B51B200FF0D0FB0AF0C7F858B9FFF748
:1076C0006FFE07480FF014FDFFF76AFE00F0B0F8F8
:1076D000FFF766FE08BD034A992112F08BFAEEE728
:1076E000E42E0020B8E9030008B5FFF7A5FFFFF777
:1076F000DFFF002008BD41DF70478378172B2BD1B7
:1077000010B588B00446012307E05A1EE15C08A8C2
:10771000024402F8201C0133DBB21F2BF5D900F024
:107720004DF91F21684600F067F9C0F30722C3B284
:1077300001E07F3AD2B27E2AFBD801E07F3BDBB288
:107740007E2BFBD894F82010914207D194F8212089
:107750009A4206D1012002E000207047002008B0C4
:1077600010BD0020FBE7000000B587B006AB03E9C1
:1077700007009DF80C30012B02D007B05DF804FB28
:10778000234B01221A70234B5B781E2BF5D1214B22
:107790009B78172BF1D11F48FFF7AFFF0028ECD0E3
:1077A0001D4B1B6813F4804F03D01C4B1B68032B2D
:1077B00012DC194B1B6813F4804F03D0174B1B6866
:1077C000032B17DC134B1B79052BD6D0114800F087
:1077D000A9F8FFF789FED0E7114BD3F804350D4A1D
:1077E000D27801920F4A009245220F49042006F0F8
:1077F0005BF9DEE70A4BD3F80435064A12790192A9
:107800000A4A009246220849042006F04DF9D9E7B9
:10781000E92F0020A42F0020142E0020102E00207D
:107820000010014018EA030064EB03006CEB030056
:1078300010B588B00DF1080C344C0FCCACE80F003B
:1078400094E803008CE80300FFF755FF1F2305931E
:10785000FFF751FF1E230293FFF74DFF1D230393F4
:10786000FFF749FF1A230493FFF745FF07238DF81D
:107870001E30FFF740FFFFF73EFF254A02A92548CB
:1078800011F0ECFC50B9FFF736FF4FF0A04340F287
:107890000132C3F87827FFF72EFF17E012F09CF9AA
:1078A000F1E71D4AD3540133DBB2202BF9D922234F
:1078B00000931A4B21221849164811F02DFE88B961
:1078C000174B00221A70164B1B78DBB1124B1B783A
:1078D0001E2B05D1104B5B78172B06D00023E4E755
:1078E0000023E2E712F078F9EAE7222300930B4B3A
:1078F00021220949074811F00FFE0028E0D012F0BC
:107900006BF9DDE7FFF7F7FEDDE700BF98EB03005B
:1079100069770200B0EB0300C82F0020A42F0020DD
:10792000E92F0020012307E05A1E10F803C0104978
:1079300001F802C00133DBB2032BF5D990F9043012
:10794000427943EA02130A4AD37090F90630C179AA
:1079500043EA01131371082307E0DA1E10F803C08D
:10796000034901F802C00133DBB2212BF5D970477E
:10797000842F002002460023184604E05DF804FB33
:1079800052080133DBB28B4216D212F0010FF7D04E
:1079900000B501F1FF3CACEB030E4FF0010C0CFA0B
:1079A0000EFC40EA0C0052080133DBB28B42E5D2F8
:1079B00012F0010FF7D0ECE770470000002011E053
:1079C0005B009BB2013AD2B242B113F4004FF7D040
:1079D00048F2050181EA43039BB2F3E7054A22F826
:1079E00010300130FF2804DC83B21B029BB2082256
:1079F000EAE77047EC2F0020F8B506460D46002454
:107A000027460DE00821305DFFF7B4FFC3B283EADB
:107A10001723074A32F9133083EA07239FB2013450
:107A2000AC42EFDB10213846FFF7A4FF80B2F8BD6F
:107A3000EC2F00201F280CD900F01F00064BD3F8B4
:107A4000043523FA00F010F0010F0CBF01200020D4
:107A500070474FF0A043F2E70003005070B50546B1
:107A60000024264600E00134032C0AD80123A34059
:107A70002B42F8D0044B185DFFF7DCFFA040064313
:107A8000F1E7304670BD00BFBCEB030008B511B193
:107A900011F056FB08BD11F043FBFBE770B505463E
:107AA000002400E00134032C0FD80123A3402B4213
:107AB000F8D0064B1E5D3046FFF7BCFF80F0010199
:107AC000C9B23046FFF7E2FFECE770BDBCEB030044
:107AD00010B5144B1B684BB1134B1868FFF7DEFF52
:107AE000104B1C68013C1C6024B110BD002012F03A
:107AF00073F8F1E70D4816F0B7FB00E00134032CF2
:107B0000F3D80123A340084A12681342F6D0084B69
:107B10001968E14001F00101064B185DFFF7B6FF5F
:107B2000ECE700BFEC310020F0310020F431002000
:107B300014320020BCEB030070B505460E4600244D
:107B400000E00134032C09D80123A3402B42F8D0D4
:107B50003146034B185DFFF799FFF2E770BD00BF98
:107B6000BCEB030042B310B50C461346132900D8F2
:107B700010BD124A10605B00013B114A1360FFF711
:107B80006DFF104B1860610CE40314F5FA704FF4AC
:107B90007A724FF0000341F1000116F0A5FB014697
:107BA0000022094816F03EFB0028E1D10121034BD9
:107BB0001868FFF7C1FFDBE7704700BFF031002016
:107BC000EC31002014320020F431002010B582B0D6
:107BD00011F022FA40B10024ADF804408DF80640BF
:107BE00001238DF8053007E011F0C6F90028F2D026
:107BF00011F0F2FFEFE70134032C09D801A90A4B79
:107C0000185D11F013FA0028F5D011F0E5FFF2E746
:107C1000064A0121064816F0EFFA08B902B010BD75
:107C200011F0DAFFFAE700BFBCEB0300D17A0200E3
:107C3000B8EB030060DF704769DF704708B503F0F9
:107C400025FD08BD10B588B011F008FE00282CD124
:107C5000224B0793079A06920023039304930593FC
:107C600003A90120FFF7E8FF10BB0023039304934F
:107C70000593F8230393069A03A9A120FFF7DCFFDD
:107C8000C8B906A8FFF7D6FF0446069A079B9A4292
:107C900008D0134B1B6813F4804F03D0114B1B68A3
:107CA000012B0BDCB4B908B010BD11F095FFCFE784
:107CB00011F092FFD9E711F08FFFE2E70A4BD3F8FA
:107CC00004350192094A0092AB220949022005F0CD
:107CD000EBFEE7E7204611F07FFFE4E7002E0020EF
:107CE000142E0020102E00200010014030EC030064
:107CF00015EC03000620704700B587B044F201037D
:107D000098425DD01BD8012836D041F20103984239
:107D100071D1474B1B6813F4804F36D0454B1B681D
:107D2000002B32DD444BD3F8043502920191434AD3
:107D3000009263224249012005F0B6FE25E044F29C
:107D40000203984257D13A4B1B6813F4804F1CD062
:107D5000384B1B68002B18DD374BD3F804351068FF
:107D60000390526802920191364A00926922344986
:107D7000012005F099FE08E02D4B1B6813F4804F9D
:107D800003D02C4B1B68002B0DDC4FF0A0434FF4AD
:107D9000F032C3F81825C3F80C25EFF3108372B640
:107DA0004DF6AD6C3DE0244BD3F8043502920191C1
:107DB000254A009260222249012005F075FEE4E781
:107DC0001B4B1B6813F4804FDFD01A4B1B68002B32
:107DD000DBDD194BD3F8043510680490506803902C
:107DE000029192680192194A00927322144901206B
:107DF00005F05AFEC9E70E4B1B6813F4804FC4D040
:107E00000C4B1B68002BC0DD0B4BD3F804350191E4
:107E10000F4A00927B220A49012005F045FEB4E793
:107E200030BF0C4B1B78002BFAD107B05DF804FB78
:107E3000142E0020102E002000100140F0EC030052
:107E4000C1EC030014ED0300D4EC030034ED030097
:107E500058ED0300002E002000B583B0014600233A
:107E60000093054B01936A4644F20200FFF744FF7A
:107E700003B05DF804FB00BF54ED030010B40346EB
:107E8000044C006859689A68DB680FC45DF8044BBD
:107E9000704700BF183200200E4B4FF0805202F1A5
:107EA000600103C983E8030003F1080CA43292E8DF
:107EB00003008CE8030093F9062002F00F0242F061
:107EC00040029A7193F9082002F03F0242F08002CA
:107ED0001A7270471832002000487047183200208C
:107EE000002308E0074901EBC30000224280426002
:107EF00001F8332001331F2BF4D9034B00221A6001
:107F0000704700BF283200202833002000B5864685
:107F1000114B1B684FF0000C0BE01F230F4A12F8A7
:107F20003300B0B102EBC3025288724509D00CF1A4
:107F3000010CBCF11F0F0BD85A1E002BEDD01346BD
:107F4000ECE7064A02EBC30252688A42EFD100E036
:107F500000205DF804FB00BF2833002028320020F9
:107F600010B40B4A13680B4C04EBC30CACF80200C2
:107F7000CCF80410012104F833100B441360202BBB
:107F800002D05DF8044B7047134600221A60F8E7F0
:107F900028330020283200200021072918D830B4C7
:107FA00002E00131072910D84FEA011C094C34F8CE
:107FB0000CC08445F5D104EB0114A568E4689C422B
:107FC00008BF9542EDD1012000E0002030BC704791
:107FD000002070473033002030B4C3698469C18801
:107FE0004FEA132C1B06C4F30C028A4218D28A1AD9
:107FF0002244A2F500529A184CF100010A4C236861
:108000005D1C256003F00703B0F814C007481C018D
:1080100000EB031320F804C09A60D96030BC7047AD
:108020008A1A2244E7E700BFB03300203033002033
:10803000C37D9BB1C3780A7802F080020A7003F016
:108040007F0313430B7002780B7803F07F030B70F0
:1080500043EAC2130B7003789BB97047C3780A7860
:1080600002F0BF020A709B0103F0400313430B7040
:10807000027903F0C0030B7002F03F0213430B7050
:10808000E1E700B58378082B14BF002201224B786A
:1080900003F07F034B7043EAC2134B70B0F806E065
:1080A000DAB202F080024A70CEF3861C4CEA020279
:1080B0004A708B7803F003038B7043EA8E038B7056
:1080C00090F808E0DAB202F0FC028A70CEF3C10C3C
:1080D0004CEA02028A70CB7803F01F03CB7043EAAC
:1080E0004E13CB70437ACA7802F0E002CA7003F0F4
:1080F0001F031343CB705DF804FB00000023032B28
:1081000031D810B402E00133032B28D8C3EBC302EB
:10811000164C04EB021292F84820012AF3D1C3EB6B
:10812000C30204EB0212948AC2899442EBD1C3EBDE
:10813000C3020E4C04EB0212D2888A42E3D1C3EB95
:10814000C30204EB0212B2F8582012B1848AA24290
:10815000D9D1C3EBC303054800EB031000E00020B6
:108160005DF8044B70470020704700BFDC330020EF
:10817000002300E00133032B16D8C3EBC3020B49E5
:1081800001EB021292F84820022AF3D1C3EBC3029A
:1081900001EB0212918A828A9142EBD1C3EBC303B5
:1081A000024800EB0310704700207047DC330020CA
:1081B00008B9042070470820704700B503468C4674
:1081C0000978C17000214162DCF808100B2904D83D
:1081D0009CF80C1029B3012100E001211970002046
:1081E000987031B1DCF808100731C90801395972AB
:1081F00018720121D97503F10C0E0CF1100103C99D
:108200008EE80300BCF80E109982DCF81810196291
:108210009CF81C109975DCF82010D9629A625DF800
:1082200004FB0021DAE7000000210E4B1B688B42A3
:1082300016D9002300E001330B4A02EBC102526859
:108240009A420BD9084A52F8312002EBC30C12F8BB
:1082500033208242EFD1DCF8040070470131E4E7BB
:1082600000207047B4330020B833002070B58CB0C4
:1082700006460D4614462C22002101A816F09CF952
:108280000F238DF80430ADF808609DF80A3065F3CF
:1082900000038DF80A308DF80B4001A801F014FAA4
:1082A0000CB070BD30B58DB005460C462C220021B7
:1082B00001A816F081F910238DF8043002958DF88D
:1082C0000C4001A801F000FA0DB030BD00B58DB032
:1082D00010B913F1020F06D1074B186804F000FB28
:1082E0000DB05DF804FB01218DF804100293039298
:1082F00001A801F0E9F9EFE7C033002070B5049C54
:10830000002962D01D468E46D2F800C0516896689A
:10831000D368C4F80CC021616661A361D2F810C0B3
:108320005169C4F81CC02162002363700278D2092D
:1083300022705AB30423734549D8E17D41B30378D1
:1083400003F07F03E3700023A3709AB143789B018D
:1083500003F4FE53827843EA9203E3808378DB00E0
:1083600003F01803C27843EA52132372C37803F070
:108370001F036372002363622B78032B21D82A78B2
:10838000144B53F82230E362002070BD0123D2E782
:108390000178C1F38011E170017801F03F01217192
:1083A00042B190F90130002B02DB0423A370CCE72B
:1083B0000823FBE70421A1700B447345C5D90920AC
:1083C000E3E77846FFF748FDD9E70920DDE7092014
:1083D000DBE700BF20EF030070B50C461D460378B5
:1083E0009BB104263244A26000F10C032360836A2F
:1083F0006360C36AE36000232374204604F0E4FD55
:1084000010B963691E442E6070BD0126EAE72DE9AC
:10841000F0418EB00D4616461C46804600282DD0F1
:10842000002D2FD0002C31D0636A0233059304F164
:108430000C00E378002B2DD00121A27801AF3B4640
:10844000082A14BF0022012204F097FB0697CDF8FA
:108450001C80B2B2ADF820200B9515440C95A37882
:108460008DF83430237B022B16D00023ADF8283052
:1084700005A804F07AFB0EB0BDE8F0817846FFF75E
:10848000EBFCCDE77846FFF7E7FCCBE77846FFF754
:10849000E3FCC9E70221D0E723692BB123690993E3
:1084A0001023ADF82830E3E77846FFF7D5FCF5E771
:1084B0002DE9F04188B004460D46C37D002B3CD029
:1084C000082605FB06F8637AAB4238D0257201AB6B
:1084D000324602A92046FFF77FFF074648BB4DB949
:1084E00094F8533033B9A369C3F30C03E380012339
:1084F00084F85330E37D7BB994F8523063B91DBBE7
:10850000E06EB4F84A10A27823468A1A0146FFF7B3
:108510007EFF012384F8523007992046FFF788FD3B
:10852000E16E32464144019816F01DF802A804F0AD
:1085300071FD384608B0BDE8F0810C26C1E7B4F8FB
:108540004A60A6EB0806C1E77846FFF785FCD7E747
:1085500070B505460E4609B100230B6095F85040F2
:10856000002104E0631C85F850300134E4B26B7ADA
:10857000A34210D3EA6C0123A3401A42F5D121464D
:108580002846FFF795FF014628B9002EEAD0336848
:1085900001333360E6E7084670BDF0B589B00446A4
:1085A0000E46154683789A18C37D63B10B239A4211
:1085B00021D801AB02A92046FFF70EFF074620B1E4
:1085C000384609B0F0BD0F23F1E707992046FFF7C1
:1085D0002FFDE37D43B12A463146019815F0C3FFD4
:1085E00002A804F017FDEBE723462A46019930461E
:1085F000FFF70DFFF4E70927E2E7000010B5044696
:1086000090F84830012B0CD103F04CFB237B012B5D
:108610000BD0094BD968014404F1300003F0EEFAA5
:1086200010BD7846FFF718FCEEE7A27D024BD96833
:108630001B6903FB0211EEE7C433002030B583B0A1
:10864000002403E02846FFF7D9FF0134032C18D893
:10865000C4EBC4030C4A02EB031393F84830012B1C
:10866000F3D100230193C4EBC40502EB051501A966
:108670002846FFF76DFF0428E4D0019B002BE4D0CF
:10868000E0E703B030BD00BFDC33002038B504465E
:1086900090F84830022B09D1064B1D6803F002FB0D
:1086A000411904F1300003F0A9FA38BD7846FFF70C
:1086B000D3FBF1E7C433002038B5044690F84830C6
:1086C000022B10D10A4B5A7D5D689B6803FB025553
:1086D00003F0E8FA411904F1500003F08FFA012386
:1086E00084F8683038BD7846FFF7B6FBEAE700BF8C
:1086F000C433002010B50446808A02F03DFE0128F4
:108700001CD1237BE3B194F91620002A1ADBE27D09
:108710004AB1022B18D094F90330002B16DBA37852
:10872000B3B900200BE0E2780AB9012B12D123780B
:1087300093B9A378042B11D1002000E0102010BDC4
:108740001020FCE70720FAE71020F8E70720F6E7FB
:108750000720F4E70720F2E70020F0E70720EEE724
:1087600038B5044603784BB1C388C2698169808AF1
:1087700006F0E8FC054645B9284638BDC26981695E
:10878000808A06F0D9FC0546F5E7E169002201F090
:108790000101A08AFFF76AFDEEE700002DE9F0472E
:1087A00080460E4617464B1EDBB2012B0FD8B7F59D
:1087B000C07F10D80024032C1AD8C4EBC403314A5C
:1087C00002EB031393F848304BB10134F3E77846DA
:1087D000FFF742FBEBE77846FFF73EFBEAE7C4EB27
:1087E000C40502EB0515384609F007F8E86600E015
:1087F00000255DB3EB6E002B42D043462C4608F1BA
:10880000300ED3F800C058689968DA68C4F800C020
:108810006060A160E260103310347345F1D1002331
:10882000EB64A5F84A70012E13D06FF00103AB6220
:10883000002385F86830144BAB652D66134BAB6392
:108840002D64012002F048FA85F848602846BDE80A
:10885000F0870F4B1B7D85F85130002385F852308F
:1088600085F8533085F85030D8F828206A65A5F887
:1088700058306FF00103AB62064BAB632D64E0E749
:108880001D46E3E7DC330020D7920200E98B0200AB
:10889000C4330020358C020000B585B000228DF86D
:1088A0000F20A0B10B46024602320A600DF10F0103
:1088B000184604F05EF99DF80F3043B10C4B1B686D
:1088C00013F0040F03D00B4B1B68032B04DC9DF843
:1088D0000F0005B05DF804FB074BD3F80435074AD9
:1088E000009240F215420649042005F0DDF8EEE75B
:1088F000142E0020102E002000100140D0ED0300A7
:10890000C3ED03002DE9F04391B005460E46144631
:108910001F46D0F8188003784BB1C388C8F30C0207
:108920009A4230D29B1A4344A3F50053AB6105F140
:108930000C00EB7853B30121AA780DF130094B46B6
:10894000082A14BF0022012204F017F9C5F8188084
:10895000CDF810900596AB78E21A92B2ADF81820D7
:1089600032440A9209978DF82C300023ADF820305C
:10897000EB78002B41D02B7B022B09D000236B62BC
:108980000193029316E09B1A4344CFE70221D3E7F9
:108990001023ADF820302B690793EFE710AB03EB02
:1089A000840454F83C3C6B62002011B0BDE8F083B5
:1089B000019BB3B102AB01AA2979286A0EF074F8C1
:1089C0000024012CF4D810AB03EB840353F83C0CC7
:1089D0000028EDD003A9FFF75FFF0028DED10134A6
:1089E000EFE72B7B022B2CD105F10C01E8890EF06F
:1089F00015F90028BFD10520D7E72B7B012B01D02B
:108A00000520D2E7EB89ADF80430AB8AADF806302B
:108A10000024012C13D82946002341F8243F10AB31
:108A200003EB440333F83C0C0EF063F803A9686AC7
:108A3000FFF732FF08B90134EBE70020B5E7052066
:108A4000B3E70520B1E7000070B5F0B00E4614465C
:108A50001D4610AB0A4601462046FFF753FF50B1B2
:108A6000224B1B6813F0040F03D0214B1B68052B0E
:108A70002FDC70B070BD2046FFF772FE0028F8D1E1
:108A800003AB01228DF80C20A28AADF80E20002243
:108A900004928DF8142010AA0692A178711AADF8EC
:108AA0001C1008AA93E8030082E803000AAB04F153
:108AB0000C0292E8030083E80300A37D8DF83830B0
:108AC000236A0C93636A0D930F9505A800F0FCFDD3
:108AD000CFE7084BD3F80435074A009240F20372FF
:108AE0000649062004F0E0FFC3E700BF142E002073
:108AF000102E002000100140E4ED0300C3ED030040
:108B000010B50446C06E08F07CFE04F1300003F09E
:108B10005DF894F84830022B08D0702200212046DE
:108B200015F04AFD002002F0D7F810BD04F1500006
:108B300003F04CF8F1E710B58CB0044690F84830DB
:108B4000012B0FD101238DF80430636D029303F0E4
:108B5000A9F8039001A800F0B7FD2046FFF7D0FF69
:108B60000CB010BD7846FFF777F9EBE730B585B06C
:108B70000D460446A8B194F84830022B15D029467A
:108B8000606DFFF78FFB2046FFF7BAFF114B1B68A4
:108B900013F0040F03D0104B1B68032B09DC05B046
:108BA00030BD7846FFF758F9E5E72046FFF714FA9D
:108BB000E5E70A4BD3F8043594F848200295019272
:108BC000074A009240F2F3120649042004F06CFFB9
:108BD000E5E700BF142E0020102E002000100140F9
:108BE00010EE0300C3ED030008B508460021FFF7AF
:108BF000BDFF08BD08B5037B012B02D0FFF79BFF2B
:108C000008BD0121FFF7B2FFFAE7000008B590F8B0
:108C1000513053B1013B80F85130002380F850307F
:108C2000034B186803F05CFE08BDFFF7E3FFFBE7AA
:108C3000C033002010B50C4691F84830012B03D109
:108C40002046FFF7E3FF10BD7846FFF705F9F7E789
:108C500070B5C6B00E46154682782A44C37D2BB146
:108C60004FF48073934278D3002303E04FF4C07332
:108C7000F8E70133032B14D8C3EBC30C394C04EBD6
:108C80000C1C9CF848100129F3D1BCF81440818ACF
:108C90008C42EED1BCF80E40C1898C42E9D1082546
:108CA00054E00121FFF77AFD0446002857D02A46F8
:108CB0003146C06E15F057FC0023459345A9204668
:108CC000FFF746FC054608B1042842D1459B8BB905
:108CD000254B1B6813F0040F37D0244B1B68032B64
:108CE00033DDB4F84AC0BCF1800F28BF4FF0800CD0
:108CF000002313E02046FFF781FCE9E7E26ED25C37
:108D00001B490D68100959002E5C04A800F8136077
:108D100002F00F020131AA5C425401336345EDD3E6
:108D200004AA002302F81C3003F1804303F58833C2
:108D3000D3F8043502920F4A01920F4A00924FF481
:108D4000AC620E49042004F0AFFE0025284646B070
:108D500070BD2046FFF7D4FEF8E70925F6E70425A5
:108D6000F4E700BFDC330020142E0020102E00207A
:108D7000182E002034EE030044EE0300C3ED030080
:108D800070B504460D461646FFF7B4FC30B923789B
:108D90002BB1324629462046FFF75AFF70BD3246B6
:108DA00029462046FFF7F9FBF8E7000038B50446EE
:108DB0000D46CB695B780371CB691B7883F00103A7
:108DC000C370CB6943628B8A0B2B07D8CB7A002BFD
:108DD00035D10B7B012B02D0002300E0012323704F
:108DE000002B31D0287B02282BD0FFF7E1F9A070AF
:108DF000AB8A03440B33174A82FB03235B10013B0E
:108E00006372002323720023E37504F10C0395E8D9
:108E1000030083E80300AB6923622B89A382AB7A4A
:108E2000A3752B6AA362DF23E36228460DF024FFBB
:108E300020B12B78012B0AD0FF23E36238BD012338
:108E4000CDE7054B987DD0E70423A370DBE7202313
:108E5000F3E700BFABAAAA2AC4330020062979D1C0
:108E6000F0B585B0154690F800C04FEA8C1202F4B8
:108E7000FE5241788478C3781B0443EA0463047982
:108E800043EA042344791C434FFA8CF642EA9101E9
:108E90002846FFF733F90746E0B1002E2FDBC289E1
:108EA000A98A8A422BD02C4B1B6813F0040F30D0B8
:108EB0002A4B1B68012B2CDD294BD3F8043502917A
:108EC0000192284A009240F27D622749022004F074
:108ED000EBFD1EE0204B1B6813F0040F19D01F4B55
:108EE0001B68012B15DD1E4BD3F804351F4A009279
:108EF00040F279621C49022004F0D6FD09E0002E00
:108F000009DBFD6C2543FD644CB903213846FFF7AE
:108F10002DFE05B0F0BDAB8AA7F85830F1E73B78DD
:108F200083B17B7A5A1C01239340013B9D420DD0B3
:108F3000002187F850103846FFF70AFB3846FFF744
:108F40005DFBE6E77846FEF787FFEAE73846FFF77E
:108F5000F2FDDEE7704700BF142E0020102E002027
:108F6000001001407CEE0300C3ED03004CEE030053
:108F70002DE9F0438BB007460E4614461D461046B9
:108F8000FFF7EEFB50B994F80380B8F1000F08D159
:108F90002B46224631463846FFF760FF0BB0BDE84E
:108FA000F0834046FFF740F981460028F6D08DF85F
:108FB0000480236A0793A38AADF8123005AB04F14D
:108FC0000C0292E8030083E80300A37D8DF82030B3
:108FD0000297039623788DF81030E36A09932946A7
:108FE00001A8C847DAE792F801C01CF0010F08D0C9
:108FF00010B5D47D14B1FFF7BBFF10BDFFF724FD02
:10900000FBE7704708B501390130FFF7ECFF08BDF9
:1090100010B54FF4E0720021134815F0CDFA06F0B8
:109020005DF80024114B1C6080222146104815F089
:10903000C3FA104B104A1A60104A5A604CF2503270
:109040009A600F49D9601A6104221A759C7508222A
:109050005A750C4803F024FC0B4B18600B4B1C603A
:109060000B4806F039FB10BDDC330020B033002084
:1090700030330020C433002080969800F04902006D
:1090800020A10700C9920200C0330020B4330020A1
:10909000CD82020008B506F041F808BD98B110B5C0
:1090A0008CB00446036983B1C36983B1836983B11A
:1090B00001466846FFF77AFEA28A21696846FFF7F3
:1090C0005FFE0CB010BD0E2070470E20F9E70E2099
:1090D000F7E70E20F5E7000058B310B590B00A4648
:1090E000044643683BB383693BB3014604A8FFF7DA
:1090F00064F8134B1B6813F0040F03D0114B1B686B
:10910000062B06DCA268616804A8FFF739FE10B0E0
:1091100010BD0D4BD3F804352278A169029101925C
:109120000A4A009240F605020949072004F0BCFCF7
:10913000E8E70E2070470E20E9E70E20E7E700BFC2
:10914000142E0020102E002000100140C0EE03005D
:10915000C3ED0300037B012B01D00020704730B525
:1091600091B004460D463F4B1B6813F0040F03D02B
:109170003D4B1B68032B5ADC04A800230493059382
:10918000CDF81730B4F806E09DF8101001F080011A
:109190008DF81010CEF3861C4CEA01018DF81010EA
:1091A0009DF8112002F003028DF8112042EA8E0290
:1091B0008DF811202A0E8DF812202A0C8DF813201C
:1091C0002A0A8DF814208DF815506278022A0CBFF7
:1091D000012119469DF8102002F07F028DF8102021
:1091E00042EAC1128DF810204FF0060209924FF0AA
:1091F00001028DF82C20A28AADF82E200C938DF858
:109200001C300890226A0D928DF82830E36A0F9383
:1092100019D0E389ADF82A30A37DF3B98DF8383041
:109220006FF0010107A8FFF757FF11B030BD0F4BDA
:10923000D3F804350E4A009240F263220D4904200F
:1092400004F032FC98E70DF10E0103A80DF002FDC9
:10925000BDF80C30ADF82A30DEE7074B5B7D8DF8AA
:109260003830DDE7142E0020102E002000100140C1
:10927000ECEE0300C3ED0300C433002090F8483047
:10928000022B00D0704710B5044690F86830022BCE
:1092900000D010BDC16CFFF75DFF0028F9D100239D
:1092A00084F86830F5E7000010B5002407E0C4EB4F
:1092B000C402130103481844FFF7E0FF0134032CF4
:1092C000F5D910BDDC33002008B5FFF7B7F9FFF77B
:1092D000EBFF012008BD10B50C4691F84830022B79
:1092E00006D1022384F868302046FFF7C7FF10BD7F
:1092F0007846FEF7B1FDF4E7F0B583B00446C069E7
:10930000A369E188060A0006C3F30C0291422FD933
:109310008A1A1A44A2F50052851846F100062A4618
:109320003346A08AFEF738FE002840F089802046A8
:10933000FEF71EFF074630B3C269D0F818C0C388D5
:10934000100A1206CCF30C01994214D2591A614446
:10935000A1F50051521840F10003AA4273EB060137
:109360000DD3954276EB030330D3384603B0F0BDFE
:10937000891ACA18D0E75B1A03EB0C01EAE705214A
:109380003846FFF7F3FBE388E269A169A08A05F09C
:10939000ABFFE8B9627A0132E37DA3B3082101FB98
:1093A00002F293B34FF48073934231D302212046EB
:1093B000FFF7F4F907460028D7D100212046FFF730
:1093C000C9FE02210020FEF76DFFCEE70027CCE7A3
:1093D000E388E269A169A08A05F0FEFF08B90027C9
:1093E000C3E723785BB1637A0133012199400139E6
:1093F0002046FFF7AFFE2046FFF7B2F9EFE77846C9
:10940000FEF72AFDEFE70C21C9E74FF4C073CBE765
:109410000C4B1B6813F0040F03D00B4B1B68002B85
:1094200001DC0027A1E7094BD3F804350192084A73
:10943000009240F27F320749012004F035FBF0E74B
:10944000002792E7142E0020102E0020001001406B
:10945000FCEE0300C3ED03002DE9F04182B00746A6
:109460000E46144698461046FFF746FF002846D0A1
:109470000546404B1B6813F0040F03D03E4B1B689E
:10948000032B3FDC2846FFF701F92B7B012B47D04C
:10949000EB6C217A01228A40134230D11343EB64F2
:1094A000043E237AE27D002A42D04FF0080C0CFBE8
:1094B00003FC697A8B423ED0002A41D00823B34294
:1094C00040D1AA69A3699A4209D205F10C0E0C3465
:1094D0000FCCAEE80F0094E803008EE80300E86EBE
:1094E0003246391D604415F03EF8EC6C2B7873B3AE
:1094F0006B7A5A1C01239340013B9C422BD002B053
:10950000BDE8F0811D4BD3F80435227A01921C4A44
:10951000009240F2A3321B49042004F0C5FAB1E7DF
:1095200095F86830002BB3D12846FFF7C5F8AFE7B0
:109530004FF00C0CBBE70CEB0603A5F84A30C0E774
:109540000C23BCE704212846FFF710FBD7E7784639
:10955000FEF782FCCCE7E96C2846FFF7FBFD4346AB
:109560002A46B5F84A10E86EFFF73DFD2846FFF79A
:10957000C7FAC4E7142E0020102E0020001001406E
:1095800010EF0300C3ED03002DE9F04190B0002877
:109590004CD00F4614461E468046002A48D004ABE5
:1095A00000933346FEF7AAFE054618B1284610B0D0
:1095B000BDE8F08104A8FFF79DF805460028F5D125
:1095C00000230293039302A960880DF027FB28B1C2
:1095D0009DF8113043F001038DF811302269E168E4
:1095E000208905F039FE38B19DF8113003F0FE03F3
:1095F0008DF81130002BD9D09DF81130002BD5D02B
:1096000013F0010F01D0039B08939DF8103033B184
:10961000334604AA39464046FFF71EFFC6E73346E5
:1096200004AA39464046FFF7EDFCBFE70E25BDE72B
:109630000E25BBE7F8B508B30E460546164B1F6866
:10964000F7B93C46B4420FD205EBC4035B68D3B113
:1096500015F8340015F93430002B16DBB8B1FEF7DD
:10966000E3FDB0B90134EDE70C4B43F8375003EBA1
:10967000C7035E607B1C084A136002E00E2700E00F
:1096800004273846F8BD0E27FBE70B27F9E70F271D
:10969000F7E70F27F5E700BFB4330020B833002009
:1096A000084B196861B110B501E021463CB10C6866
:1096B0000B79002BF9D0034804F09FF9F5E710BDB2
:1096C000704700BFA035002038B5054630B1104BBB
:1096D0001C68C4B10F4B01221A7004E07846FEF7F3
:1096E000BBFBF4E724683CB12379002BFAD154F892
:1096F000043C28469847F5E7064B1B78022B03D01D
:10970000044B00221A7038BDFFF7CAFFF8E700BF0C
:10971000A03500209C35002010B5044630B1002350
:109720002372211D034804F03DF910BD7846FEF771
:1097300093FBF4E7A035002010B5044658B10A4B5E
:109740001B78013BDBB2012B09D8074B02221A70B0
:109750000123237210BD7846FEF77EFBEFE7211D43
:10976000024804F04AF9F5E79C350020A0350020B6
:109770000A8883689B5A07339BB223F00303134480
:109780009BB20288043A934200D900230B807047B1
:1097900010B582B004468368C91AADF806100DF101
:1097A0000601FFF7E5FFBDF80630A068184402B0D7
:1097B00010BD0088043880B2704743888268D01892
:1097C000D1520123837070478268002393704380D5
:1097D0008380704708B5073189B221F0030189B24F
:1097E000428883889A4204D29B1A994220DC002046
:1097F00008BD9A4212D9B0F800C0ACEB020C61452A
:1098000018D98B4218D3BCF1030F03D983681344D2
:1098100004229A70002343801846E9E782681344C3
:109820009B780BB10420E3E7FFF7CEFF0020DFE7D2
:109830000420DDE70020DBE70420D9E738B5044643
:109840000D468368828813448B4202D07846FEF727
:1098500003FB0023AB70211D2046FFF789FFA28880
:10986000A36813449B78042B00D038BD0023A38049
:10987000FBE710B50C468368428813448B4202D044
:109880007846FEF7E9FA0023A37010BD70B50546CF
:1098900014460E46002944D0002D46D0B6F1005F94
:1098A00008D94FF08053D3F80C3103F50023B6EB01
:1098B000832F0ED3B6F5000F08D94FF08053D3F89D
:1098C0000C3103F50053B6EB832F02D37846FEF735
:1098D000C3FA631E3344B3F1005F08D94FF08052DE
:1098E000D2F80C2102F50022B3EB822F0ED3B3F590
:1098F000000F08D94FF08052D2F80C2102F5005227
:10990000B3EB822F02D37846FEF7A6FA042C10D9C7
:109910002C8000236B80AB80AE60043C3480B3703D
:1099200070BD7846FEF798FAB6E77846FEF794FAE7
:10993000B4E77846FEF790FAEAE738B50446A0B1F6
:109940006288A36813449B78012B12D0EFF3108533
:1099500072B6A388A16819448B78032B0DD02046DA
:10996000FFF732FF05B962B638BD7846FEF774FAE4
:10997000E6E77846FEF770FAE8E72046FFF708FFCB
:10998000A368C31A638000238370EBE72DE9F041DD
:109990000E4614460546D0B1EEB16A88AB68134452
:1099A0009B78012B1BD024B32846FFF702FFA0426F
:1099B00021D3EFF3108872B621462846FFF70AFF3D
:1099C000074680B1B8F1000F16D162B614E07846B0
:1099D000FEF742FAE0E77846FEF73EFADDE7784622
:1099E000FEF73AFADFE721462846FFF7E6FE306049
:1099F000E8E7092700E009273846BDE8F081F8B517
:109A00000C4615460646E0B1FCB1A378012B20D1E7
:109A10002388AB4221D325B3EFF3108772B625809C
:109A20000223A370F1183046FFF7A2FE7388B288B4
:109A3000934203D0B268134400229A7007B962B609
:109A4000F8BD7846FEF708FADEE77846FEF704FA36
:109A5000DBE77846FEF700FADAE77846FEF7FCF92E
:109A6000D9E77846FEF7F8F9D6E770B50C46054613
:109A700090B1ACB1EFF3108672B6AA88AB6813440C
:109A80009A78042A10D09A78022A15D0032A18D07E
:109A9000052006B962B670BD7846FEF7DDF9E8E745
:109AA0007846FEF7D9F9E5E7291D2846FFF760FE5D
:109AB000AA88AB681344E6E703229A70236000206B
:109AC000E7E77846FEF7C8F90020E2E738B5044634
:109AD00080B1EFF3108572B6A088A16801448B783D
:109AE000042B0BD08878022814BF0020012005B970
:109AF00062B638BD7846FEF7AFF9EAE72046FFF7D1
:109B000047FE0146EEE738B5054630B1EFF3108465
:109B100072B6A888A968014407E07846FEF79CF968
:109B2000F4E72846FFF734FE01468878C31EDBB20F
:109B3000012BF6D9022814BF0020012004B962B617
:109B400038BD70B50C46064678B194B1EFF3108578
:109B500072B6A378012B10D0032B13D121463046C7
:109B6000FFF76CFE05B962B670BD7846FEF774F972
:109B7000EBE77846FEF770F9E8E721463046FFF755
:109B800078FEEFE77846FEF767F9EBE710B5EFF3FD
:109B9000108472B68388816819448B78042B06D0B0
:109BA0008878B0FA80F0400904B962B610BDFFF7BA
:109BB000EFFD0146F4E70000024B00221A769A609E
:109BC00002207047A435002008B5064B9868002293
:109BD0001A605A609A60DA601A615A619A6104F0F8
:109BE0002BFF08BDA435002000B585B00A4BDB680B
:109BF00002228DF8002001934FF480530293074A0C
:109C00006946012001F0CEFA18B9012005B05DF8CF
:109C100004FB0020FAE700BFA4350020C235002075
:109C200000B585B00A4B1B6802228DF80020019315
:109C30004FF480530293074A6946012001F0B2FABB
:109C400018B9012005B05DF804FB0020FAE700BF59
:109C5000C4350020C2350020164BDA6813795179DB
:109C60005B1A03F57F2303F6FF7302EB03339A427B
:109C700005D002F580520F4BDA600320704700B523
:109C800085B00D4B1B6801208DF8000001930B4B34
:109C90000393042302930A4A694601F083FA18B138
:109CA000002005B05DF804FB024B01221A76022069
:109CB000F7E700BFA4350020C4350020C8350020D8
:109CC000C235002000B585B00C4BDA680C4B1B6820
:109CD000043301208DF800000192039340F6FC73D9
:109CE0000293084A694601F05DFA28B90120034B46
:109CF000187605B05DF804FB0020FAE7A4350020D3
:109D0000C4350020C235002000B585B00A4B1B6861
:109D100001208DF800000193084B03930423029364
:109D2000074A694601F03EFA18B9012005B05DF80E
:109D300004FB0020FAE700BFC4350020B035002046
:109D4000C235002010B584B0104BDA681478104B7F
:109D50001B68043301208DF80000019303920294E4
:109D60000C4A694601F01EFA70B9094B1B6804F0F1
:109D7000FC041C440434054B5C61D9680A780A442D
:109D80001A61012004B010BD0020FBE7A4350020BB
:109D9000C4350020C235002008B500230A2B09D89D
:109DA000064A52F82320824201D00133F6E7044AE2
:109DB000536002E07846FEF74FF808BDCCEF030091
:109DC000A435002010B5214BDB6853B11F4B1B7E1F
:109DD0005BB91E4B5B680A2B26D97846FEF73CF828
:109DE00022E07846FEF738F8F0E77846FEF734F8D8
:109DF000EFE7164A5368013353600A2B21D978469E
:109E0000FEF72AF81DE0114B00225A6019E00F4BB3
:109E10001B7E1BB10D4B02221A7012E0FFF7D4FE1D
:109E20000FE00A4B1B7E83B9084B5A68084B53F866
:109E30002230984704460228E9D00328E3D00128BD
:109E4000D7D0012CEDD0032CEBD010BDA4350020D1
:109E5000CCEF0300104B1B681B685A1E12F1030F56
:109E600018D8C3F30B020AB10020704710B50B4A93
:109E7000D36000231376537601241470936008484E
:109E8000FFF78AFF0749204601F07AF9FFF79AFFAA
:109E9000204610BD00207047C4350020A4350020A6
:109EA000E99B0200A99E020008B50B78032B06D09F
:109EB0000B4B1B78012B06D0022B0BD008BD084B97
:109EC00000221A76F4E7064B1B7E002BF6D1FFF733
:109ED00079FFF3E70B78032BF0D1FFF775FEEDE781
:109EE000A435002000B585B0174BDB6818784FF615
:109EF000FF7203F58051184405F0A4FBE0B102465F
:109F0000114BD9680B780B44984217D00E4B5B7EEF
:109F100083B10E4B01208DF80000019203930423BE
:109F200002930B4A694601F03DF948B90120064BFE
:109F3000187606E0074BEDE7012002E0012000E083
:109F4000002005B05DF804FBA435002024F30300D5
:109F5000C235002020F3030008B5104BDB681878E9
:109F6000002203F58051184405F06CFB08B1012074
:109F700008BD0A4BDA68137951795B1A03F57F2320
:109F800003F6FF7302EB03339A4205D002F58052C9
:109F9000024BDA600320EBE70220E9E7A43500205A
:109FA000F0B585B0514BDE6872793379591E8A421B
:109FB00014D006F580510D780D444D490968081DEF
:109FC0000F7907449B1A06EB03366B88013B9BB263
:109FD00047F6FE62934260D92C461AE00120434BBB
:109FE00058767EE07846FDF737FF15E024F47F646D
:109FF00024F00F0404F5805423781C44A6421CD995
:10A00000A5421CD26388013B9BB247F6FE62934295
:10A0100011D92388002BE5D0238804EB830323F494
:10A020007F6222F00F029342E0D06288B2F5FE4FC9
:10A03000DCD01C46E2E725462FE000252DE0002578
:10A040002BE07846FDF708FF15E024F47F6424F048
:10A050000F0404F5805423781C44A6421CD9A54261
:10A0600037D26388013B9BB247F6FE62934211D917
:10A070002388002BE5D0238804EB830323F47F623D
:10A0800022F00F029342E0D06288B2F5FE4FDCD09E
:10A090001C46E2E7254600E00025E5B1144B1968AF
:10A0A0006A8801F58051384605F0CCFA074690B130
:10A0B00001200E4B18768DF8000001950D4B03938F
:10A0C000042302930C4A694601F06CF858B92C46F7
:10A0D000CEE70025E1E7B5FA85F56D09034B5D761E
:10A0E000012005B0F0BD0020FBE700BFA435002033
:10A0F000C43500201CF30300C23500202DE9F041D7
:10A1000086B0654B1B6923B1634B5B692BB100279C
:10A1100048E07846FDF7A0FEF6E77846FDF79CFE9E
:10A12000F5E7A04618E07846FDF796FE18E028F41B
:10A130007F6828F00F0808F5805898F80030984498
:10A14000454520D944454AD2B8F80230013B9BB27C
:10A1500047F6FE62934214D9B8F80030002BE2D0E3
:10A16000B8F8003008EB830323F47F6222F00F027B
:10A170009342DCD0B8F80220B2F5FE4FD7D0984613
:10A18000DEE7444600E000243CBB00230093019B33
:10A19000002B5CD10127002C78D0628847F6FF7332
:10A1A0009A4273D0002F75D13B4B5A6922F47F66D7
:10A1B00026F00F06B61A06F580561C69DD682B7965
:10A1C0006A799B1A05EB0335002301936388013BF1
:10A1D0009BB247F6FE629342A3D800940EE000249F
:10A1E000D2E77846FDF738FE23E024F47F6424F0BC
:10A1F0000F0404F58054237823441C46A542C6D995
:10A200002388019A02EB83029642C0D9009B6340E7
:10A2100023F47F6323F00F03002BB8D16388013B45
:10A220009BB247F6FE618B42B1D801922388002B86
:10A23000D7D0238804EB830323F47F6222F00F023C
:10A240009342D2D06288B2F5FE4FD6D1CDE7124A02
:10A25000526901208DF808000392009A0592049338
:10A260000E4A02A900F09EFF70B90B49019B23F032
:10A2700003024B6913444B6114B1074B1C618AE71D
:10A280007846FDF7E9FDF8E7002000E0012006B080
:10A29000BDE8F0810120FAE7A4350020C235002096
:10A2A00000B585B00023294A1370D3F8F83FB3F105
:10A2B000FF3F09D0B3F1FF3F0DD08BB1B3F1FF3FAA
:10A2C00039D0A3F5805211E04FF010225269B2F15B
:10A2D000FF3FEFD104E04FF010225269002AEDD188
:10A2E0004FF080535A691B6903FB02F2A2F58052BA
:10A2F000174B1A60174B1B6813F4801F16D0164BB0
:10A300001B68062B12DD154BD3F804350021D1F85C
:10A31000F81FB1F1FF3F14D002920191104A009250
:10A3200040F276220F49072003F0BEFBFFF792FDB3
:10A3300005B05DF804FB4FF010235A69A2F5805276
:10A34000D4E74FF010214969E6E700BFC03500208F
:10A35000C4350020142E0020102E002000100140D3
:10A3600098EF03007FEF030010B50446B0B1104B27
:10A370001B78BBB10E4BD968E3685879A3EB003268
:10A38000914211D31A79121A02F57F2202F6FF7256
:10A3900003EB0233994209D8012004E07846FDF727
:10A3A0005BFDE4E7002010BD0020FCE70020FAE799
:10A3B000A4350020024B1878003818BF01207047E0
:10A3C000A435002010B50446124B1B78BBB9237886
:10A3D000032B18D10F4B9C60E268DA600E4B1B78A0
:10A3E000ABB10A220B4B5A6000221A76012018707A
:10A3F0005A760A4900F0C4FEFFF7E4FC10BD784627
:10A40000FDF72AFDE3E77846FDF726FDE2E70022A7
:10A41000E8E700BFA4350020C0350020A99E020057
:10A42000014B1868704700BFC435002010B50446C2
:10A4300080B163681BB123680BB1A36813B9784678
:10A44000FDF70AFDA3685A1E134207D10023E360FB
:10A45000236110BD7846FDF7FFFCEAE77846FDF77B
:10A46000FBFCF3E770B508B30E4604468368FBB106
:10A47000EFF3108572B60369C268934212D0016887
:10A480004268806800F1FF3C03EA0C0303FB021101
:10A4900016B1304614F067F82369013323614DB9D2
:10A4A00062B608E005B962B6052504E00E2502E0B3
:10A4B000092500E00025284670BD00000246C0F3D3
:10A4C0000B0030BB39B301F6FF714FEA113C134B5F
:10A4D0000221C3F80415114BD3F80034002BFAD035
:10A4E00001460AE00D4BC3F808250C4BD3F80034A5
:10A4F000002BFAD002F5805201316145F2D3074BAF
:10A500000022C3F80425054BD3F80034002BFAD001
:10A510007047102070470920704700BF00E00140DD
:10A52000844610F0030F2DD111F0030F2CD16AB324
:10A5300012F0030F2CD19008164B0122C3F804250A
:10A54000144BD3F80034002BFAD003E00CF1040CC8
:10A5500004311046421E58B10B68B3F1FF3FF5D0ED
:10A56000CCF800300B4BD3F80034002BFAD0EDE7D9
:10A57000084B0022C3F80425064BD3F80034002B07
:10A58000FAD070471020704710207047092070479C
:10A590000920704700E00140094B1B7813F0040FBD
:10A5A00002D00378122B00D07047064B1A68064B76
:10A5B0005A60034B1A786FF382021A70F4E700BFF7
:10A5C0007036002060360020FC35002010B582B0C7
:10A5D00001900C46BDF80630012B11D123680A49C1
:10A5E0000B600A4B1A7842F001021A70D3B25B0872
:10A5F00083F0010303F001030B71002002B010BDD2
:10A600007846FDF729FCE9E7603600207036002027
:10A6100010B582B001900C46BDF80630022B0FD168
:10A620002268094B1A6022791A71002058719871BA
:10A63000D871064A137843F00203137002B010BDBC
:10A640007846FDF709FCEBE758360020703600200D
:10A6500010B582B001900C46BDF80630032B06D130
:10A66000054B186820601B79237102B010BD784635
:10A67000FDF7F2FBF4E700BF6036002010B582B0B2
:10A6800001900C46BDF80630032B0CD1084B206816
:10A69000186022791A71074A137843F00103137086
:10A6A000002002B010BD7846FDF7D6FBEEE700BFF4
:10A6B000603600207036002010B582B001900C4644
:10A6C000BDF80630042B05D1044B03CB206061603C
:10A6D00002B010BD7846FDF7BFFBF5E75836002005
:10A6E00010B582B001900C46BDF80630042B0BD19A
:10A6F000074B2068616803C3064A137843F00203DE
:10A700001370002002B010BD7846FDF7A5FBEFE7FF
:10A71000583600207036002000B583B00190BDF897
:10A720000630032B06D1054B00221A601A7103B0C4
:10A730005DF804FB7846FDF78FFBF4E760360020F8
:10A7400000B583B00190BDF80630042B06D1054B4F
:10A7500000221A605A6003B05DF804FB7846FDF7EA
:10A760007BFBF4E75836002000B585B01A4B1B7808
:10A7700013F0400F13D0184B1B7813F0040F0BD1BC
:10A78000002301938DF80830144B5B6803F50053E8
:10A790000193B3F1807F06D905B05DF804FB7846DC
:10A7A000FDF75AFBE7E70E4B1B788DF808300A4A95
:10A7B000137843F0040313700023ADF80C30032327
:10A7C000ADF80E3001A9039806F0D4F80028E3D0C4
:10A7D0007846FDF741FBDFE770360020FC350020AE
:10A7E0007136002000B585B00022019202920F4B15
:10A7F000996801911B7B8DF808300D490B78013366
:10A80000DBB20B708DF80B30ADF80C200423ADF8E3
:10A810000E300DEB0301039806F0ACF810B905B04B
:10A820005DF804FB7846FDF717FBF8E7FC350020E0
:10A830007136002000B585B00023019302930F4AC2
:10A8400091680191117B8DF80810128AADF80920EA
:10A850000B4A12788DF80B20ADF80C300423ADF8BC
:10A860000E300DEB0301039806F084F810B905B023
:10A870005DF804FB7846FDF7EFFAF8E7FC350020B9
:10A880007136002000B58DB00B4B1B7B012B0ED019
:10A89000094A926804928DF80830039002238DF8DB
:10A8A000043001A8FEF710FF0DB05DF804FB024A6A
:10A8B0009268013A0492EEE7FC35002008B51D4885
:10A8C0001D4B036000F0DAFE1C4B1B7813F0200FC9
:10A8D0002AD103F00303032B14D1194B1968194A29
:10A8E000916019791173B3F805001082DB79164A6B
:10A8F0001370164A1279934217D0B1B9114B002246
:10A900001A6007E00F4B00221A609A601A731A82CD
:10A91000FFF768FF0B4B1A685A60084A137843F038
:10A9200040031370FFF720FF08BD084B1A68054B62
:10A930001A60EFE74C36002099A50200703600201F
:10A9400058360020FC35002071360020603600208B
:10A9500010B582B00024ADF800400123ADF80230FC
:10A96000009806F038F8ADF804400223ADF8063040
:10A97000019806F030F802B010BD000008B50020C4
:10A9800006F050F8094A0023136053609360D360C7
:10A990001361074A117863F345111170CBB243F08C
:10A9A00040031370FFF7E0FE08BD00BFFC35002038
:10A9B0007036002038B50C4D00242C606C60AC6003
:10A9C000EC602C6101F06EF9084B5860084A9A60FF
:10A9D000084ADA601C615C61074B1A7864F3C302B1
:10A9E0001A706C6038BD00BFFC350020D8350020DF
:10A9F00055AB0200008793037036002008B50C4B5E
:10AA00001B7813F0100F00D008BD0A480A4B0360F2
:10AA100000F034FEFFF752FFFFF79AFF074801F0FE
:10AA2000A5F8034A137843F010031370ECE700BF56
:10AA300070360020F0350020ADAC0200D835002083
:10AA4000034B1878800880F0010000F00100704787
:10AA50007036002010B501F0A5FE174B1B7B1BBB09
:10AA6000154B9B7B2BBB144B1A8A41F282639A4293
:10AA700006D8124B1B7813F0080F05D0012300E015
:10AA800001231BB9082410E00023FAE70A4B012236
:10AA90001A7300241C829A6801329A60FFF7A2FEA2
:10AAA0002046FFF7EFFE00E0082401F0C1FE20463B
:10AAB00010BD0824F9E700BFFC35002070360020E7
:10AAC00010B501F06FFE214B5B7BABB11F4B9B7B45
:10AAD00003BB1E4B1A8A41F282639A4206D81C4B72
:10AAE0001B7813F0080F05D0012300E001239BB170
:10AAF000012302E00023FAE700231C460BB3134BAB
:10AB000000225A731B7B4BB1012B0ED07846FDF708
:10AB1000A3F916E00023F0E70023EEE7FFF79AFF22
:10AB200078B17846FDF798F90BE0084B00201860E3
:10AB3000586018731882FFF7A5FEFFF753FEFFF762
:10AB400013FE01F075FE204610BD00BFFC3500204D
:10AB50007036002008B52C4B1B7BDBB1012B2ED0AF
:10AB60007846FDF779F9284A138A01339BB213829C
:10AB7000264AA2FB03121209C2EB0212A3EB420304
:10AB80009BB2002B3DD0204B5B8A13B1013B1E4A88
:10AB9000538208BD1C4B1A8A41F282639A4206D83E
:10ABA0001B4B1B7813F0080F07D0012300E0012393
:10ABB000002BD8D0FFF784FFE5E70023F8E7124B1E
:10ABC0001B8A41F28262934206D8114A127812F02F
:10ABD000080F14D0012200E00122002AC3D042F263
:10ABE000B012934202D9084B01225A73FFF768FF53
:10ABF0000028C8D1044B5B7B012BB4D1C3E70022F2
:10AC0000EBE7FFF717FEBEE7FC3500208988888850
:10AC10007036002010B5244B1B7B002B35D1044629
:10AC2000214B5B8A2BBB1AB91F4B9B688B4205D308
:10AC3000FAB11D4B9B6801338B421AD21A4B9B68A9
:10AC40002A338B4223D3184B9B7B03BB164B996053
:10AC500000221A605A601A8242F6065159825A73CB
:10AC60001A73FFF7BFFDFFF77FFD2046FFF70AFECF
:10AC70000DE062B10C4B9B6801338B4207D10A4B4C
:10AC800001225A73FFF71CFF01E0012B00D010BD19
:10AC9000002AFCD1044B9B688B42F8D1024B012265
:10ACA0005A73FFF70DFFF2E7FC3500200378042B01
:10ACB00000D0704743681B78002BFAD010B5846829
:10ACC000027E437E012A14BF00220122416904F161
:10ACD0001000FFF79FFF10BD08B538B10D4B0122E2
:10ACE0009A730D4A13680133136008BD0A4B1B6841
:10ACF0005BB1094A1368013B1360002BF5D1054B8A
:10AD000000229A73FFF7DCFEEFE77846FDF7A4F820
:10AD1000EFE700BFFC350020CC35002000B58DB03A
:10AD2000ADF808008DF81020039103238DF804304E
:10AD300001A8FEF7C9FC0DB05DF804FB014B986853
:10AD4000704700BFFC350020054B1B7B012B02D058
:10AD5000034B98687047024B98680138704700BFF2
:10AD6000FC3500201D4B1B7813F0400F34D070B51C
:10AD700004460D461A4B1A685B689A4228D2184B53
:10AD80001B7B012B17D0174B9A4216D2144B1A6813
:10AD90005B68403B9A4218D2EFF3108672B6104AB5
:10ADA0001368591C11602B60FFF7CEFF206006B9B5
:10ADB00062B6002070BD0C4BE6E7094B01225A73C6
:10ADC000FFF77EFE0028E7D1E0E7FFF7CDFCE3E7E1
:10ADD000FFF7CAFC0F20EDE70F2070477036002008
:10ADE000FC350020FFFF7F0000E0FF00044B9B6864
:10ADF000584010F0010F00D0013B1846704700BFCB
:10AE0000FC350020014B187B704700BFFC3500204B
:10AE10002DE9F041002625E0134604FB03F3244A04
:10AE2000D25A3046C0472249BC2304FB03F3CA5A16
:10AE30000132CA520221284602F0B4FC0137022135
:10AE4000284602F07FFC014649B1194BBC2202FBA7
:10AE50000433D3F80880B8F1000FDDD1E3E797B9E8
:10AE60000136F6B2022E1FD83446BC2306FB03F38C
:10AE700008330F4D1D4404350221284602F062FCC0
:10AE800001460027E0E7284602F0F4FC0828E7D155
:10AE9000074BBC2202FB0434A368002BE0D0002245
:10AEA000044930469847DBE70120BDE8F08100BF48
:10AEB0007C36002008F0030008B5082383731023B4
:10AEC000437300F11C0343610323037300F1180370
:10AED00003610C3002F0A0FC08BD000008B5037847
:10AEE000012B06D0022B06D07846FCF7B5FF0020D8
:10AEF00002E0292000E0014808BD00BF084C010025
:10AF000008B50378012B07D0022B15D07846FCF743
:10AF1000A3FF4FF4FA730AE08368591A21F0030380
:10AF200003EB9103DB0003EB910303F5FA7307488E
:10AF3000984228BF184608BD83685B1A1B0B04485B
:10AF400000FB03F303F5FA73F1E700BF608501002E
:10AF5000084C010038B5044601210C3002F0F2FB28
:10AF6000054678B1084BC4F89C300023C4F8A030E3
:10AF70006168FFF7C5FFC4F8A800C4F8AC4001231E
:10AF800084F8B830284638BDA9B0020010B5044690
:10AF9000FFF7E0FF20B104F19C000CF081FC00B948
:10AFA00010BD7846FCF758FFFAE70000F8B50546F3
:10AFB0000C46164617680378012B19D11249A1FBDC
:10AFC000043149098B00AC68E41BB4EB810F00D35A
:10AFD0001C468CB1686827F00307E96822463944AB
:10AFE0003844FFF79DFA58B9336823443360F8BDFD
:10AFF0007846FCF731FFE1E77846FCF72DFFE9E7FB
:10B000007846FCF729FFEFE77D0CCEC7F8B506467A
:10B010000C46154617680378022B17D1114BA3FB7A
:10B0200004231B0C1A03B468E41BB4EB033F00D3E6
:10B0300014467CB1706827F0030721463844FFF7B7
:10B040003DFA58B92B6823442B60F8BD7846FCF7CD
:10B0500003FFE3E77846FCF7FFFEEBE77846FCF7F3
:10B06000FBFEEFE7EB0661C538B505460C46114619
:10B070002378012B06D0022B0FD07846FCF7ECFE8C
:10B08000002004E0021D2046FFF790FFA0686B68D7
:10B09000834214BF0020012038BD021D2046FFF767
:10B0A000B5FFA068F3E700002DE9F8430F46D1F89B
:10B0B000A850254B1B786BB90446A5F5FA7501F12C
:10B0C0000C080121404602F03DFB064648B14FF016
:10B0D000000922E00CF020FC002387F8B830BDE81E
:10B0E000F8837846FCF7B8FEF1E70CF015FC012177
:10B0F000404602F057FB00237B6087F8B830134BC3
:10B10000186801F0EDFB3846FFF740FFE7E73046EF
:10B11000FFF7E4FE4844A8420FD8A5EB09023146E8
:10B120003846FFF7A1FF0028DFD101F003FAB0EBAA
:10B130000409ECD5A4EB0009E9E70CF0EDFB384677
:10B14000FFF724FFCBE700BF7836002074360020DD
:10B1500010B5084801F0A4FB074B1860002406E076
:10B16000064BBC2000FB0430FFF7A6FE0134022C86
:10B17000F6D910BD11AE0200743600207C360020D6
:10B1800038B504460D46022805D80548BC2303FB04
:10B190000404A56038BD7846FCF75EFEF5E700BF05
:10B1A0007C3600202DE9F84305460C461746022858
:10B1B00016D8CCB12378012B1AD0022B3ED163686C
:10B1C000C3F30B03002B31D1A368C3F30B03002B94
:10B1D00030D1A368002B34D17846FCF73DFE30E037
:10B1E0007846FCF739FEE4E77846FCF735FEE1E700
:10B1F000636813F0030F0DD1E36813F0030F0DD153
:10B20000A36813F0030F0DD1A368D3B97846FCF7F8
:10B2100023FE16E07846FCF71FFEEDE77846FCF7C4
:10B220001BFEEDE77846FCF717FEEDE77846FCF7E6
:10B2300013FEC9E77846FCF70FFECAE77846FCF72D
:10B240000BFEEFF3108872B6BC2605FB06F606F17E
:10B2500008032A4E1E4404360021304602F072FADA
:10B26000814678B30021304602F09CFA206861687C
:10B27000A268E368C9F80000C9F80410C9F80820FA
:10B28000C9F80C302FB11D4BBC2202FB05335B8883
:10B290003B801A4BBC2202FB05335A8801325A808C
:10B2A00093F8B83083B9164B1B7813B10024A1462C
:10B2B0000CE0124BBC2000FB0530FFF74BFE814633
:10B2C000002403E0042401E00024A146B8F1000FAB
:10B2D00000D162B6B9F1000F09D0BC2005FB00F027
:10B2E0009830064D284404300CF0DAFA10B92046A4
:10B2F000BDE8F8837846FCF7AFFDF8E77C36002020
:10B300007836002038B50446EFF3108572B610B9D0
:10B31000164B1B6873B18CB1144A13680133136068
:10B32000124B1B68003B18BF0123114A137005B96B
:10B3300062B638BD7846FCF78FFDECE70B4B1C6816
:10B34000013C1C600CB1EBE70134022CE8D8094B3E
:10B35000BC2202FB043393F8B830002BF4D1054B28
:10B3600002FB0430FFF712FEEEE700BFB03800200A
:10B37000783600207C36002018B1830B024AD05C5E
:10B3800070470020704700BF18F0030012DF7047BD
:10B3900000B583B001F0EEFE40B10C4B1B6813F01A
:10B3A000400F03D00A4B1B68012B02DC03B05DF891
:10B3B00004FB084BD3F804350190074A009275222C
:10B3C0000649022002F070FBF0E700BF142E0020B7
:10B3D000102E00200010014078F003006BF00300F5
:10B3E00000B58DB0114B1B78022B06D07846FCF7C8
:10B3F00033FD01200DB05DF804FBFFF721FB18B908
:10B400000B48FEF789F9F4E70CF0C2FF074B032263
:10B410001A702C22002101A813F0CEF81D238DF8FC
:10B42000043001A8FEF750F9E3E700BFB838002068
:10B43000042E002008B50378122B00D008BD044864
:10B44000FEF77AF9034B186801F04AFAF6E700BFF5
:10B45000042E0020B438002010B58AB00CF0DCFFB8
:10B4600070B3044600238DF810300DF1140C86469D
:10B47000BEE80F00ACE80F00DEF80030CCF800307A
:10B48000627D052A04D9237D03F00F03072B1ED10B
:10B49000164B1A688AB104AB0393237DC3F30303ED
:10B4A0008DF80430637D062B1BD9063B8DF80530E3
:10B4B00004F11D03029301A8904720460CF08AFF77
:10B4C0000CF0C6FF80F00100C0B20AB010BD207DB4
:10B4D00004AB063A04F11D0100F00F000BF03EFC36
:10B4E000D6E700238DF805300293E4E7BC3800204E
:10B4F00070B582B0314B1B78002B54D10446002824
:10B5000055D0067A0F2E01D0072E52D106F074F9CD
:10B51000E06870B1FCF7B2FC0DF10700FFF736FFF1
:10B520000546002840D19DF80730012B04D00225A4
:10B530003AE0FCF7B1FCEFE7FCF7D2FC00F0FEFAD2
:10B54000304601F0CDF8E07800F01EF900F0CAFEB8
:10B550000CF04AF91A480DF017F80BF0C1FD0BF08A
:10B56000DFFBFFF7F5FD05F0C9F900F017FD06F068
:10B5700003F905F09FFE204601F010FDFDF748FDA0
:10B5800004F004FCFCF7B6FB08B1062813D10D4803
:10B5900001F086F90C4B18600C4B00221A60074B27
:10B5A00001221A7000E00825284602B070BD0E2561
:10B5B000FAE70725F8E70546F6E700BFB8380020A8
:10B5C00059B40200E1B30200B4380020BC380020B6
:10B5D00010B582B0204B1B78012B0DD05AB2002A37
:10B5E00035D0043BDBB2012B33D80CF049F90446CB
:10B5F00028B3204602B010BD01F0E0FCFDF74AFD83
:10B60000FCF778FB0446B8B1062815D0134B1B682D
:10B6100013F4804FEDD0124B1B68012BE9DD114B69
:10B62000D3F804350190104A00924FF4C2720F49CA
:10B63000022002F039FADCE701F088F8D5E7064B82
:10B6400002221A700A4B186801F04AF9D1E708245F
:10B65000CFE70824CDE700BFB8380020142E002023
:10B66000102E002000100140A4F003006BF0030036
:10B67000B438002008B5FDF711FD08BD08B5FEF788
:10B680004BF808BD08B5FEF757F808BD08B500F03F
:10B69000EFFD002008BD0000014B1860704700BF9F
:10B6A000BC38002070470000074A1368013313605C
:10B6B000B3F1704F02D0044B186870471346002254
:10B6C0001A6001221A60F6E7C038002010B504465F
:10B6D00018B100232360636010BD7846FCF7BCFB03
:10B6E000F7E738B50C46054668B184B100236360BE
:10B6F000EFF3108372B62A686AB16A6854606C60AE
:10B7000003B962B638BD7846FCF7A6FBEDE778468C
:10B71000FCF7A2FBEAE72C60F1E710B5044658B14C
:10B72000EFF3108372B6206808B142682260226885
:10B7300032B103B962B610BD7846FCF78DFBEFE776
:10B740006260F6E710B5044608B1206810BD78467F
:10B75000FCF782FBF9E735DF7047000008B54FF0D2
:10B76000FF30FFF7F8FFBFF34F8F0549CA6802F4B7
:10B77000E062044B1343CB60BFF34F8F00BFFDE784
:10B7800000ED00E00400FA05072814D8DFE800F017
:10B79000080C1504110F0A06642070471420704726
:10B7A000FA2070471E2070474FF4FA70704732201D
:10B7B00070474B207047FA20704796207047000072
:10B7C000024B5868103840B2704700BF00ED00E0EF
:10B7D000034600280FDB5B11084A52F8233042422F
:10B7E00000F01F0002F01F0258BF504223FA00F081
:10B7F00000F00100704700F11F03ECE700E100E0FA
:10B8000046DF704738B504460D464B1EDBB2012BB0
:10B810000AD8002323616361A361E3612046FFF737
:10B82000EFFF4FF0010C1AE07846FCF715FBF0E74C
:10B83000CA5CC8185200D2B2CA54407842EAD01248
:10B84000CA5401339BB20E2BF2D9CB7B5B00CB7376
:10B85000BEF1000F0ADB0CF1010C5FFA8CFCAC4569
:10B860000BD8214611F920EF0023ECE794F82F3094
:10B8700083F0870384F82F30EDE738BD2DE9F041E0
:10B8800090B084460C4696461F4602F10F084FEAD8
:10B89000281604AD0068DCF80410DCF80820DCF899
:10B8A0000C300FC50EF00F055FEA181302D07DB102
:10B8B000002300E00023984663B1012104A8FFF7AC
:10B8C000A1FFB8F1000F1AD0701E000110230EE086
:10B8D0000123F0E70221F1E7013B9BB22218D25C81
:10B8E00010A9194411F8101C4A400DF80320002B30
:10B8F000F2D100250C950D950E950F9533E0711E34
:10B90000ADB22A4604EB0111684612F02CFE8023EA
:10B910000DF805306B1C03E000220DF80320013305
:10B920000F2BF9DD10230AE0013B9BB21DF8032029
:10B9300010A9194411F8101C4A400DF80320002BDF
:10B94000F2D1D6E7013A92B210AB134413F8100CBF
:10B9500063189B5C584008AB9854002AF2D104A8A5
:10B96000FFF74EFF0135731EAB4202DD29011022A5
:10B97000F3E710230AE0013B9BB210AAD11811F89B
:10B98000402C11F8101C4A4008A9CA54002BF2D1CF
:10B9900004A8FFF735FF0CAC0FCC38607960BA60B3
:10B9A000FB6010B0BDE8F08110B50446134B1B6876
:10B9B00093B14168114B1B685B68CB1A002B0BDB02
:10B9C0000E4B1B6818465B691BB15A68521A002A55
:10B9D000F8DB6361446103E0084B1A6862611C6034
:10B9E000064A93889BB201339BB2938013B1012323
:10B9F000237010BD7846FCF72FFAF8E7CC3800200A
:10BA000038B5054619E06369214A13600023636174
:10BA100093889BB2591E89B291800BB3A3681BB364
:10BA200002232370A36821692846984700F03AF959
:10BA300005462378DBB2022B1AD0154B1B6833B3B3
:10BA4000134B1B685B685B1B642B20D5104B1C6879
:10BA50002378DBB2012BD6D07846FCF7FDF9D2E78C
:10BA60007846FCF7F9F9D9E77846FCF7F5F9D7E716
:10BA7000E26812B900232370DFE763681344636050
:10BA80005B1B642BF9D42046FFF78EFFD5E738BD4A
:10BA9000CC38002010B50446144B1B68834207D0F5
:10BAA000124B1B68D3B15A69A2420ED01346F9E774
:10BAB00043690E4A136093889BB2591E89B29180E4
:10BAC00063B97846FCF7C8F908E062695A6107492A
:10BAD0008B889BB25A1E92B28A8013B100232370C6
:10BAE00010BD7846FCF7B8F9F8E700BFCC38002065
:10BAF00008B5064B1B6833B1044B1B6804495868F2
:10BB000000F07CF908BD00F0D7F9FBE7CC38002045
:10BB10002DBB020008B500F0C5F8FFF771FF00F07B
:10BB2000C1F8FFF7E5FF012008BD000008B5024B92
:10BB3000186800F0D5FE08BDC438002008B5002301
:10BB4000064A1370064A13605360064800F0A8FEC8
:10BB5000054B186000F098F808BD00BFC8380020F9
:10BB6000CC38002015BB0200C438002010B50446B4
:10BB7000154B1B789BB900F087FFA0B1BCB1A3683F
:10BB8000CBB12378DBB2012B19D0002363612046AF
:10BB9000FFF70AFF00F086F8FFF7AAFF10BD78460E
:10BBA000FCF75AF9E7E77846FCF756F9E6E77846F6
:10BBB000FCF752F9E3E77846FCF74EF9E1E77846FF
:10BBC000FCF74AF9E1E700BFC838002010B5044689
:10BBD00000F05AFF50B16CB12046FFF75BFF002325
:10BBE000636100F05FF8FFF783FF10BD7846FCF754
:10BBF00033F9F0E77846FCF72FF9EDE730B583B07D
:10BC000004460D461A4B1B78DBB900F03DFFE0B14E
:10BC1000FCB12046FFF73EFF0023636165602046CC
:10BC2000FFF7C2FE00F03EF8FFF762FF114B1B6802
:10BC300013F4804F03D0104B1B68032B0DDC03B0B3
:10BC400030BD7846FCF708F9DFE77846FCF704F9E1
:10BC5000DEE77846FCF700F9DBE7084BD3F804355C
:10BC6000074A0092E2220749042001F01DFFE6E79F
:10BC7000C8380020142E0020102E00200010014093
:10BC800030F103001BF1030008B512F003FB00B113
:10BC900008BD12F077FA0028FAD07846FCF7DCF8F5
:10BCA000F6E70000EFF3108172B6194B1B68194AD2
:10BCB000D2F80405D2F80421012A24D001B962B6D1
:10BCC00040EA03634FEAD36C5901C91A6CF1000CC6
:10BCD0004FEA4C2242EAD1524802C11842F1000C0C
:10BCE0004FEA8C1242EA91628801401A62EB0C0220
:10BCF000C01842F1000210F5804042F10002C00B72
:10BD000040EA42407047034AD2F804050133D5E7C0
:10BD1000D43800200010014010B50A4B4FF4003217
:10BD2000C3F84823C3F80823074B1B682BB1064B05
:10BD30001C68FFF7B7FFA04710BD7846FCF78CF8EA
:10BD4000F5E700BF00100140E0380020EFF310815C
:10BD500072B6254B0022C3F80421244A136801332C
:10BD6000136001B962B6224B1B68002B3AD0204BFE
:10BD70001A68013A1A601B68002B33D103F1804323
:10BD800003F58833D3F804251A4B1B689A421BD25B
:10BD9000EFF3108272B6144BD3F80435981C154992
:10BDA000096888420DD303330F49C1F8443502B9FD
:10BDB00062B60D4B4FF40032C3F84423C3F804239A
:10BDC00070470C4B1B68EFE710B50B4B1B682BB192
:10BDD000094B1C68FFF766FFA04710BD7846FCF7CB
:10BDE0003BF8F5E7704700BF00100140D438002051
:10BDF000D8380020DC380020E038002030B583B08F
:10BE00000446002301930D46002936D0244B1D60C3
:10BE1000FFF748FF031B002B33DB0020410CC0035E
:10BE2000204BC018204A4FF0000341F1000112F0EE
:10BE30005BFAEFF31083019372B61C4BD3F8043511
:10BE4000032838BF0320C3F1FF1202F57F4282426C
:10BE500019D30344154AC2F844354FF40033C2F8ED
:10BE60004433C2F804330023114A1360114A1360AB
:10BE7000019B03B962B603B030BD7846FBF7ECFF17
:10BE8000C4E7201ACAE7034403F17F4301331A0EC3
:10BE9000013207490A6023F07F43064A1360E7E74F
:10BEA000E038002020A1070040420F0000100140B0
:10BEB000D8380020DC380020074B4FF40032C3F89C
:10BEC0004823C3F808230023044A1360044A13607C
:10BED000044A1360704700BF00100140D8380020AA
:10BEE000DC380020E038002030DF704731DF704759
:10BEF00010B4034602684068A2EB70129C6880EAA6
:10BF0000F4301860D9680C445C60114499601044A6
:10BF1000D8605DF8044B704770B582B00D46064698
:10BF200008B100240BE07846FBF796FFF9E79DF88F
:10BF300007103019FFF7DAFF9DF807301C44A542BF
:10BF40000DD90DF10700FFF7CFFF9DF80730002B4B
:10BF5000F7D02A1B9342EAD98DF80720E7E702B011
:10BF600070BD000030B583B0054600240194042163
:10BF70000DEB0100FFF7D0FF074B2B60019B6B60BF
:10BF8000AB60EB6003E02846FFF7B2FF0134132CEF
:10BF9000F9D903B030BD00BFED5EEAF1704708B5D6
:10BFA000032004F03FFD08BD48DF704749DF7047BC
:10BFB0004ADF7047044B01225A7143F2B0629A6023
:10BFC00043F69822DA60704740390020094B03227B
:10BFD0001A74094A5A611A6840F6D8639A4204D919
:10BFE000054B43F2B0629A607047034B40F6D8624B
:10BFF0009A607047203900204039002008B50F4B67
:10C000001B78022B12D0032B08D0012B03D07846CB
:10C01000FBF722FF0EE0022303740BE0084B002223
:10C020005A71084999600849D960827103230374E1
:10C03000034B4361014B00221A7008BD51390020A7
:10C0400040390020A0860100FF1FA10738B5044633
:10C0500000250574012343710E4A136801331360F0
:10C0600000F0C6FA0BF0D2FC23680B4A11682831A5
:10C0700003FB01F1094AA2FB0121A3EB9141084A0C
:10C080007839284600F030FA00B938BD7846FBF719
:10C09000E3FEFAE7543900203C39002083DE1B43DD
:10C0A000CDBF020010B5044600238360C36003685F
:10C0B0000D4A92680260817991B10121017403B93E
:10C0C0000A4B991A6161B1F57A7F01D39A4202D97C
:10C0D0004FF47A736361FFF76DFF0123A37110BD05
:10C0E000FFF7B4FFF7E700BF4039002080969800C3
:10C0F00010B50C4631B1C3680133C36042690368AF
:10C10000134403608368013383600122027442692F
:10C1100052084261012B0DD0022B19D042690368ED
:10C12000134417498B4222D840F6D7639A4221D84C
:10C1300000231DE0B2F5FA7F05D040F6D8639A429D
:10C14000ECD84361EAE7002CF7D100234361E5E72F
:10C15000C368022B06D0012BE0D1002CDED10023D6
:10C160004361DBE70268064B9B1A4361D6E7002375
:10C1700013B110BD0123FBE7FFF768FFF9E700BF2C
:10C180008096980043791BB90D4B00221A707047B6
:10C1900010B504460BF056FC23680A4A1068283094
:10C1A00003FB00F0084AA2FB0020A3EB9040783884
:10C1B00000F04EFA00236371014B00221A7010BD8B
:10C1C000503900203C39002083DE1B4308B5254B45
:10C1D00001221A71244B1B7813B1244B1B781BB31B
:10C1E000204B00221A7404281AD8DFE800F0031448
:10C1F000110C07001B48FFF755FF1CE001211948EF
:10C20000FFF776FF17E000211648FFF771FF12E0F5
:10C210000BF0A8FB0FE000F0ADF90BF0DDFB0AE03E
:10C220007846FBF719FE06E000F084F90D4B186024
:10C230001846FFF7E3FE0B4B1B7C023BDBB2012BE6
:10C2400008D9084B1B7C022B08D006480023037139
:10C25000103008BD0348FFF795FFF2E7014B0122BC
:10C260001A76F2E720390020513900205039002099
:10C2700008B50438042814D8DFE800F018261403A1
:10C280000E00164B1B7E012B0BD1FFF78FFE40B12A
:10C290007846FBF7E1FD04E0104B00221A760BF024
:10C2A000F9FB08BD7846FBF7D7FDFAE7FFF782FEFA
:10C2B0000B4840F6D8638360FFF77AFE0028F0D081
:10C2C0007846FBF7C9FDECE70548FFF771FE00284B
:10C2D000E7D07846FBF7C0FDE3E700BF2039002038
:10C2E0004039002010B40E4A00231370137101214D
:10C2F000517143F2B064946043F69824D460094AC3
:10C300001060094A1370094A1370094A1360094AF8
:10C31000137153711360137691715DF8044B70477C
:10C32000403900203C39002050390020513900208C
:10C33000543900202039002008B5104B1B7E012BFA
:10C3400008D0022B17D00BB1002008BD0C48FFF716
:10C350002BFE40B90B48FFF72BFE40B9074B0222DA
:10C360001A760020F1E77846FBF776FDF2E778468B
:10C37000FBF772FDF2E71120E7E700BF203900204C
:10C38000CDC10200403900200B4B1B7C023BDBB2CD
:10C39000012B0BD9094B1B78012B09D0022B09D09B
:10C3A000032B01D000207047012070470120704707
:10C3B00001207047012070472039002051390020AA
:10C3C000014B1868704700BF203900200D4B5B7986
:10C3D0000BB90020704710B50A4B1C680A4B1B684C
:10C3E000283304FB03F3094AA2FB0323A4EB934481
:10C3F000783C00F09FF80346201A00D410BD181BAB
:10C40000FCE700BF203900203C39002083DE1B43BD
:10C41000014B1879704700BF20390020EFF31083DB
:10C4200072B6054A527922B1044A4FF48071C2F8BB
:10C43000001103B962B670472039002000E100E026
:10C4400008B5054B1B7E022B00D008BD034B012213
:10C450001A70FFF7E3FFF8E7203900205139002078
:10C4600008B5074B1B7E022B00D008BD012804D065
:10C47000044A1370FFF7D2FFF7E70323F8E700BF82
:10C48000203900205139002008B5094B1B782BB109
:10C4900048B9084B1B7813B1012300E00023044A7C
:10C4A000107013B908BD0023F9E7FFF7B7FFF9E7EC
:10C4B000503900205139002010B40A4B00F15002CD
:10C4C000002443F8224000F1100C012202FA0CF281
:10C4D000C3F8042300F5A87043F820105DF8044B5E
:10C4E000704700BF00800040022817D810B5EFF356
:10C4F00010840C4B1C6072B60B4B43F820200B4B86
:10C50000002243F820200A4B1B7823B9054B1868FA
:10C5100030B962B605E0FFF7CFFFF7E707207047B5
:10C52000002010BD683900205839002074390020DF
:10C5300064390020EFF310820A4B1A6072B60A4B7E
:10C540001B7863B1094B0022C3F84C210122DA6445
:10C55000D3F84C05034B1B6803B962B67047044B14
:10C560001868F7E76839002064390020008000402F
:10C570006C3900202DE9F041002411E00027174B11
:10C5800043F82470012303FA05F5154EC6F8085345
:10C59000FFF7D0FFC04704F1500346F82370013481
:10C5A000022C18D804F150030D4A52F82330002B06
:10C5B000F5D0D2F8043304F11005EB4013F0010F6D
:10C5C000EDD0064B53F82480B8F1000FD6D1784651
:10C5D000FBF742FCD2E7BDE8F08100BF58390020EC
:10C5E00000800040014B1B681844704770390020E0
:10C5F00010B500230CE0114A03F5A871002042F8A1
:10C60000210003F1500142F8210052F821200133AA
:10C61000022BF0D90A4B1B681BB90A4B4FF48072EE
:10C620001A60094B01221A70FFF73CFB0446FFF722
:10C6300081FF241A054B1C6010BD00BF0080004024
:10C640006839002000E100E06439002070390020E2
:10C65000002307E000220C4941F823200B4941F850
:10C6600023200133022BF5D9094B1860094B002216
:10C670001A70094B4FF0FF32C3F80823074B4FF4F1
:10C680008072C3F880217047583900207439002027
:10C690006C390020643900200080004000E100E097
:10C6A00008B503783BB1012B04D1436813B1C168CD
:10C6B0008068984708BD4368002BFBD08068984786
:10C6C000F8E70000044B1B780F2B04D0034B4FF40A
:10C6D0008022C3F800217047E43A002000E100E026
:10C6E00010B5154C20701548154B0360102343609E
:10C6F0008360FDF79BFE1348FEF7E8FF23780F2BBE
:10C7000000D110BD072B10D8EC221A4112F0010FF6
:10C710000ED05B01DBB20C4A82F812330023002BEF
:10C72000EFD07846FBF798FBEBE742F20203F6E71F
:10C7300042F20203F3E700BFE43A00208039002010
:10C7400094390020E83A002000E100E008B5124BDF
:10C750001B780F2B00D108BD104B93F812335A09E8
:10C76000EC23134113F0010F13D00D4B9B685BB109
:10C770000B4A136843F4802313600023002BEAD094
:10C780007846FBF769FBE6E7044A4FF48021116025
:10C79000F4E742F20203F1E7E43A002000E100E0AE
:10C7A0004458002038B5EFF3108472B61A4A136863
:10C7B000591C11601BB9194B1B780F2B05D1164B57
:10C7C0001B682BB304B962B638BDEFF3108272B6A2
:10C7D000134B9B68C3B9124901238B60114BD3F8EB
:10C7E0008000114D28400860C3F88050D3F88400C1
:10C7F00048604FF0FF31C3F884100C4B00211970D2
:10C80000002ADCD162B6DAE7084B01211970F7E79C
:10C810007846FBF721FBD5E7943A0020E43A002064
:10C820004458002000E100E0FC06FFBDE53A00208E
:10C8300010B5EFF3108472B6144B1B685BB1134A4A
:10C840001368013B13601BB9114B1B780F2B06D1EA
:10C8500004B962B610BD7846FBF7FEFAEFE70D4B60
:10C860001A780D4B9B68002BF2D0002AF0D1EFF321
:10C87000108172B6084B1868084A106058685060FA
:10C8800000229A600029E3D162B6E1E7943A0020E1
:10C89000E43A0020E53A00204458002000E100E09E
:10C8A00010B5044680B10C4B1B68102B10D8EFF369
:10C8B000108272B6084B1868411C1960074B43F888
:10C8C000204002B962B610BD7846FBF7C5FAEAE728
:10C8D0007846FBF7C1FAEAE7983A00209C3A002034
:10C8E00038B504460D4B1B68834213D9EFF310850E
:10C8F00072B661090A4A04F01F04012303FA04F422
:10C9000052F82130234342F82130FFF7DBFE05B90E
:10C9100062B638BD7846FBF79FFAE7E7983A002001
:10C92000E03A002070B50D461646044658B175B180
:10C93000EFF3108372B6A560E660002222742460D3
:10C9400003B962B670BD7846FBF786FAEFE7784622
:10C95000FBF782FAECE7000038B5044650B1A36853
:10C9600063B1EFF3108572B6237C5BB1112005B97A
:10C9700062B638BD7846FBF76FFAF0E77846FBF70A
:10C980006BFAEEE70123237421460348FEF7A9FE64
:10C99000FFF798FE0020EAE7E83A002010B50446C9
:10C9A00008B1207C10BD7846FBF756FAF9E7000085
:10C9B00070B584B02C4B1B7823B901252A4B1D7010
:10C9C00000240AE07846FBF747FAF6E7274B53F8CE
:10C9D000243098470646F0B10134254B1B68A3422A
:10C9E0001ED96109234A52F8213004F01F00C340C8
:10C9F00013F0010FF0D0EFF3108672B6012303FAA3
:10CA000000F052F8213023EA000342F82130002ED2
:10CA1000DCD162B6DAE72046FFF762FF3546DBE796
:10CA20001548FEF77AFE07E0A368E0689847002300
:10CA300023741148FEF771FE50B10468237C002B6B
:10CA4000F2D17846FBF708FAEEE76846FFF728FED2
:10CA500069460A48FDF706FD0028F6D0024B002281
:10CA60001A70284604B070BDF03A00209C3A0020AD
:10CA7000983A0020E03A0020E83A0020803900206F
:10CA800008B5FFF795FF08BD00B583B0FEF798FE27
:10CA90008DF807009DF807305BB213F1100F0FD12E
:10CAA0001B4B1B780F2B03D1012003B05DF804FB57
:10CAB0001220FEF78DFE08B10020F6E70120F4E712
:10CAC0009DF807305BB2002B11DB03F1604303F5E7
:10CAD000614393F800335B0900930D4B1B78009A78
