:020000022000DC
:1070000000F0032081730200697302006B730200B9
:107010006D7302006F7302007173020000000000C4
:107020000000000000000000000000007373020078
:10703000757302000000000077730200797302008C
:107040007B7302007B7302007B7302007B73020080
:107050007B7302007B730200C95503007B7302003F
:107060007B7302007B730200314003007B730200DC
:107070007B7302007B7302007B7302007B73020050
:107080007B73020045910300E9BA02007B730200A2
:10709000159203007B730200AD5903007B7302005D
:1070A0007B7302007B7302007B7302007B73020020
:1070B0007B7302007B7302000000000000000000F0
:1070C0007B7302007B7302007B7302007B73020000
:1070D0007B7302007B7302007B7302007B730200F0
:1070E0007B7302007B7302007B73020000000000D0
:1070F000000000007B730200000000007B730200B0
:10710000000000000000000000000000000000007F
:10711000000000000000000000000000000000006F
:10712000000000000000000000000000000000005F
:10713000000000000000000000000000000000004F
:10714000000000000000000000000000000000003F
:10715000000000000000000000000000000000002F
:10716000000000000000000000000000000000001F
:10717000000000000000000000000000000000000F
:1071800000000000000000000000000000000000FF
:1071900000000000000000000000000000000000EF
:1071A00000000000000000000000000000000000DF
:1071B00000000000000000000000000000000000CF
:1071C00000000000000000000000000000000000BF
:1071D00000000000000000000000000000000000AF
:1071E000000000000000000000000000000000009F
:1071F000000000000000000000000000000000008F
:1072000039493A480A1A02D0072291438D46384933
:1072100038480A1A06D00722914381F309880222CE
:1072200082F3148834483549354A00F03FF8354830
:107230003549364A00F03AF835483649364A00F0C2
:1072400035F836483649374A00F030F8364837497D
:10725000374A00F02BF837483749384A00F026F80B
:1072600037483849384A00F021F838483849002270
:1072700000F034F837483849002200F02FF837483A
:107280003749091A12F01DFB25482649884205D0C6
:107290000268043003B4904703BCF7E70020864639
:1072A000EC46002000212F4A9047FEE7884214D088
:1072B000521A12D003460B4313430324234206D130
:1072C000036804300B600431043AF9D17047037845
:1072D00001300B700131013AF9D17047884202D078
:1072E00002700130FAE7704700F0032000E8032045
:1072F00000F0032000F003203CB30300002E002028
:107300005E2E0020B4730200B4730200709A030072
:107310003CB30300002E0020002E0020049E03003A
:10732000049E0300049E0300049E0300049E0300C9
:10733000049E0300049E0300049E03003CB303006C
:107340009CB30300602E0020602E0020602E0020E1
:10735000945A0020945A0020945A0020945A0020F5
:10736000945E0020F1770200FEE7FEE7FEE7FEE70D
:10737000FEE7FEE7FEE7FEE7FEE7FEE700F002B805
:10738000FFF7FCBF08484FF00701884385460748D0
:1073900080470748016841F470010160BFF34F8FD7
:1073A000BFF36F8FFFF72CBF00F00320CD59030010
:0473B00088ED00E084
:1073B40073B51F4E33685A0404460DD51D4B1B6824
:1073C400032B09DD1C4B1D4AD3F804351C490092DC
:1073D4000420492205F07AFA1A4D2B78642B01D93E
:1073E40003F0E2FA2B7801332B7063685B78172B78
:1073F4001CD163781F2B19D1134A00236168C95C1F
:1074040002F8011B0133202BF8D133685B040DD53E
:10741400084B1B68032B09DD074B0C4AD3F80435D2
:107424000749009204205C2205F050FA02B070BDB6
:10743400182E0020142E002000100140609E03002E
:10744400599E0300602E002028310020679E03000F
:1074540007B50C4803F0A2FA0B4B1B685B040DD56F
:107464000A4B1B68032B09DD094B0A4AD3F8043580
:107474000949009204208F2205F028FA03B05DF830
:1074840004FB00BFB5730200182E0020142E002048
:10749400001001406E9E0300599E030038B50C464F
:1074A4001F2105460CF07FFB0D4B01461860A8B167
:1074B40000F11102234604F11C0053F8044B42F876
:1074C400044B8342F9D1188810809B78937003236E
:1074D4000B712846BDE838400CF09DBB38BD00BF99
:1074E400642E0020F0B5254C1E232370042217239C
:1074F4006370E27001233022002189B0A3702371EC
:107504006271A371E37123720E22072304F10F0049
:10751400A3736172A172E1722173617312F076FA3E
:107524006B4604F1180725461E46206861681A4612
:1075340003C20834BC421346F7D120681060227994
:107544001A711D21304600F057F9C0F30723C0B269
:107554006B77A87700227E2B08D802B16B770023C3
:107564007E2807D803B1A87709B0F0BD7F3BDBB212
:107574000122F0E77F38C0B20123F1E74731002050
:10758400034A044904484FF400730CF0F3BB00BFF2
:10759400682E002055740200683000200E4B1B68D2
:1075A4005B0407B50DD50D4B1B68032B09DD0C4B94
:1075B4000C4AD3F804350C4900920420992205F0B2
:1075C40085F90322C8210F2000F0BEF903B05DF84D
:1075D40004EB08F0E5BA00BF182E0020142E00209A
:1075E40000100140759E0300599E03000378232B6D
:1075F40001D1FFF7D3BF704770B58CB000212422AE
:1076040003A812F003FA1C4B039307238DF81430DC
:1076140000211A4B079303A808F078FAC8B10B2885
:1076240025D1174D2B685A0413D5164E3368032BF6
:107634000FDD154C154AD4F8043515490092042081
:10764400B22205F043F92B685B0402D53368032B9F
:1076540003DCFFF795FF0CB070BD0E4AD4F8043577
:107664000B4900920420B32205F030F9F1E70A4AED
:10767400B8210EF09CFAECE701000007F175020056
:10768400182E0020142E0020001001408E9E0300AE
:10769400599E0300DC9E0300049E030007B511F00D
:1076A40003FF18B1194AC4210EF081FA00F092F9CF
:1076B400174A04214FF4804005F0EAF800F0BEF9BF
:1076C400FFF79AFF1B200CF005F908F00FFA18B128
:1076D4000E4ACA210EF06BFA0E480CF047FA11F06C
:1076E400E3FE0D4B1B685B040DD50C4B1B68032B91
:1076F40009DD0B4B0B4AD3F804350B4900920420E7
:10770400CE2205F0E3F803B05DF804FB049E030009
:1077140069C8020068300020182E0020142E0020B2
:1077240000100140189F0300599E030010B51D214D
:10773400044600F061F8627FC0F307237E2B09D86A
:1077440093420DD1C3B27E2B07D8A07FC31A5842EF
:10775400584110BD7F3BDBB2F0E77F3BDBB2F2E781
:107764000020F6E7F8B503F01FF9184800220121BC
:1077740011F0FAFE08B10EF00DFA154800224FF48C
:10778400004111F003FF08B10EF004FA114C124D40
:107794002368124E124F07331E2293FBF2F102FBB1
:1077A40011332360284603F0F9F83046FFF7BEFF93
:1077B40038B1FFF797FE236809490A48BB72FFF7FF
:1077C4006DFE094B00221A70ECE700BF98AE03006F
:1077D4000431002024310020B57302002831002038
:1077E4004731002068300020602E002008B5FFF7E4
:1077F40055FFFFF7B7FF0000F0B5DFF858C00024CD
:10780400234601278C420DDB0F2200200121DC07D7
:1078140044BF01FA02F42043013A4FEA5303F6D27B
:1078240080B2F0BD065D0725002216F0010F1CBFD3
:1078340007FA05FE42EA0E02013D4FEA5606F4D26B
:1078440082EA1322D2B21B023CF812209BB25340AC
:107854000134D7E7663100201F288ABF064B4FF05A
:10786400A04300F01F00D3F8043523FA00F0C0430E
:1078740000F00100704700BF0003005009B10DF093
:1078840094BE0DF085BE00002DE9F8431D4D286817
:1078940008B90EF07FF91C4EDFF8789037680024A1
:1078A4004FF0010808FA04F33B420AD019F8042007
:1078B4001046FFF7D1FF80F00101C9B21046FFF76F
:1078C400DDFF0134042CEDD12C68013C2C60B4B9EB
:1078D4000E480F4FDFF83C8011F0A4FE01253268FA
:1078E40005FA04F3134207D0396818F80400E1409C
:1078F40001F00101FFF7C2FF0134042CEFD1BDE810
:10790400F88300BF703300206C33002074330020F0
:10791400683300209CAE03002DE9F041DFF8248099
:1079240005460E460024012707FA04F32B4204D02F
:1079340018F804003146FFF7A1FF0134042CF3D1F9
:10794400BDE8F0819CAE03002DE9F04105460C46EC
:10795400A2B3132932D91A4E1A4BDFF8748030605F
:107964005200013A00211A6001270A4607FA02F37D
:107974002B4205D018F80200FFF76EFF9040014338
:107984000132042AF2D1104B002519604FF400474C
:107994004FF4FA7029464FF47A720023E4FB07018E
:1079A40011F07AFE2A460146084811F0EFFD28B985
:1079B40030680121BDE8F041FFF7AEBFBDE8F081BA
:1079C4006C330020703300206833002074330020AF
:1079D4009CAE030037B50DF061FD20B90DF024FD18
:1079E40008B10EF0D7F8002401230E4DADF8044081
:1079F4008DF806408DF8053015F8010B01A90DF03E
:107A040057FD08B10EF0C6F80134042CF4D1064A2F
:107A14000648012111F0A8FD08B10EF0BBF803B02F
:107A240030BD00BF9CAE03008D780200A0AE030001
:107A340060DF704769DF704702F0AABF10B588B0F5
:107A44000DF060FF08B10EF0A5F81E4B039300245F
:107A5400039A049205A90120CDE905440794FFF790
:107A6400E9FF08B10EF096F8F823049A059305A9E6
:107A7400A120CDE90644FFF7DDFF08B10EF08AF836
:107A840004A8FFF7D5FF049A039B9A42044612D038
:107A94000D4B1B685B040ED50C4B1B68012B0ADDD8
:107AA4000B4B0C49D3F8043501920B4A0092022087
:107AB400AB2204F00BFF14B120460EF06BF808B0B3
:107AC40010BD00BF002E0020182E0020142E002010
:107AD40000100140879F0300A09F03000620704709
:107AE40030B5454B44F201051B68A84287B00446F3
:107AF40003F4804365D017D801282ED041F2010049
:107B040084424DD0002B38D03C4B1B68002B34DD15
:107B14003B4B3C4AD3F80435019100923A497B220D
:107B2400012004F0D3FE28E044F202008442E9D1AB
:107B34001BB3324B1B68002B1FDD314B1068D3F88D
:107B4400043503905268CDE90112304A00922E495F
:107B54006922012004F0BAFE0FE073B1274B1B68C1
:107B6400002B0ADD264BD3F80435CDE90112284A4F
:107B740025490092602204F0A9FE4FF0A0434FF47F
:107B8400F032C3F81825C3F80C25EFF3108372B64E
:107B94004DF6AD6C1F4A1378002B2AD107B030BDC7
:107BA400002BEAD0154B1B68002BE6DD144BD3F8F1
:107BB4000435CDE90112184A0092134963220120C9
:107BC400D9E7002BD9D00D4B1B68002BD5DD0C4B0E
:107BD4001068D3F8043504905068CDE90210926817
:107BE40001920E4A009208497322012004F06EFEAD
:107BF400C3E730BFCFE700BF182E0020142E0020AB
:107C040000100140B6A0030029A0030076A00300E1
:107C14003AA00300002E002054A0030095A0030006
:107C240007B50023014600936A46044B019344F2CE
:107C34000200FFF755FF03B05DF804FB16A4030030
:107C4400044B00F1100250F8041B43F8041B90424B
:107C5400F9D170479433002010B54FF0805202F1EF
:107C6400600403CC094BA4325960186003CA9A79A2
:107C7400986002F00F0242F040029A711A7AD960B9
:107C840002F03F0262F07F021A7210BD94330020AA
:107C940000487047943300200022064913460132FD
:107CA400202A4B804B6001F8083BF8D1024A13604C
:107CB400704700BFA8330020A43300200C4BF0B55C
:107CC4001B680C4D044620227BB1013B15F83300A0
:107CD40050B105EBC3067788A74202D176688E427D
:107CE40002D0013AF0D11046F0BD1F23EEE700BFE9
:107CF400A4330020A833002070B5084C084D236835
:107D040005EBC3061F2B03F10102716008BF0022BB
:107D1400012105F833107080226070BDA433002067
:107D2400A8330020C0F30C038B42084438BFA0F5ED
:107D34000050C01A7047C27D0B7810B522B3C278C8
:107D440023F07F0302F07F021343027803F07F03E2
:107D540043EAC2130B70B2B18278C488A2F108035B
:107D64005A425A41C4F3861343EAC2134B70027A4F
:107D7400C2F3C10343EA84038B70437A03F01F0305
:107D840043EA4213CB7010BDC27823F0400343EAA8
:107D94008213027903F0C00302F03F02D4E700002B
:107DA4000D4B0E4AF0B51E6800218E4211D0556865
:107DB400002309E0146804EBC30714F83340844239
:107DC40001D17868F0BD01339D42F3D1013108320D
:107DD400EBE70020F6E700BFA8340020AC34002015
:107DE40000B58DB048B9991C07D0012101A8CDE98F
:107DF40002328DF8041001F03BF9034B18680DB002
:107E04005DF804EB03F098BDB4340020037810B59A
:107E1400044613B97846FFF703FF637A0120013360
:107E24009840013810BD2DE9F0410E468EB015463C
:107E34001C46074610B97846FFF7F2FE16B9784695
:107E4400FFF7EEFEA278636AE178A2F108004242ED
:107E540003F102030DF10408C1F10201424105934B
:107E6400C9B2434604F10C0003F0ADFEA3788DF8CB
:107E74003430237BADF82050022B16FA85F5CDE97A
:107E840006870B960C950FD1236913B97846FFF733
:107E9400C7FE23690993102305A8ADF8283003F021
:107EA4008EFE0EB0BDE8F0810023F5E72DE9F04F1A
:107EB400824689B00D4609B100220A600AF10C031A
:107EC4009AF8504001934FF001094FF0000B9AF8D3
:107ED4000900A04203D2002009B0BDE8F08FDAF80F
:107EE4004C1009FA04F20A4263D19AF81720019B54
:107EF4008AF80840002A0CBF0C26082684429AF807
:107F04000020029306FB04F808BFBAF84A608DF813
:107F140018B008BFA6EB0806002A0CBF01270427E7
:107F2400F2190492DAF82820039202A8DAF82C2035
:107F3400059203F0E2FF0028CED1079A17445CB9FA
:107F44009AF8532042B9DAF81820C2F30C02AAF8BE
:107F5400062001228AF853209AF81720A2B99AF829
:107F640052208AB914B17846FFF75AFEBAF84A107B
:107F74009AF802208A1ADAF86C1053460846FFF77A
:107F840052FF01228AF8522007995046FFF7D3FE88
:107F9400DAF86C1032464144384611F005FD02A867
:107FA40003F0CCFF15B12A6801322A60621C8AF8FA
:107FB40050200134E4B28AE710B50446808A02F006
:107FC4007DFB01281CD1237BD3B194F91620002A10
:107FD40018DBE27D5AB1022B12D094F90330002B46
:107FE40010DBA378002B14BF0720002010BDE2781B
:107FF4000AB9012B06D1237833B9A378042BF2E70D
:108004001020F3E70720F1E70020EFE7B2F5C07F87
:108014002DE9F84F83468A46914602D97846FFF700
:10802400FFFD294B4FF000081E4693F848705FB9D6
:10803400484607F03CFD702404FB0864E06658B928
:1080440000242046BDE8F88F08F10108B8F1040FB8
:1080540003F17003E9D1F3E7DC46BCE80F002546E1
:108064000FC5BCE80F000FC59CE80F00BAF1010F63
:1080740085E80F00E764A4F84A901BD1134BA4F8D9
:1080840052701B7D84F8513084F85070DBF828302E
:1080940063656FF00103A3620D4BA4F8587070225E
:1080A40002FB08660120B363346402F067F886F8C3
:1080B40048A0C6E76FF00103A362064BA36584F8EA
:1080C4006870054B2466EAE73C350020FC36002046
:1080D40015820200498B02000D82020010B504468D
:1080E400C06E07F0E6FC04F1300002F089FE94F85B
:1080F4004830022B03D104F1500002F081FE2046E7
:108104007022002111F082FCBDE81040002002F032
:1081140035B810B590F84830012B8CB0044602D025
:108124007846FFF77DFD01238DF80430636D0293DB
:1081340002F0CCFE039001A800F09AFF2046FFF75E
:10814400CDFF0CB010BD0000F0B50D4691B0044653
:1081540010B97846FFF764FD94F84830022B19D122
:10816400E188A069FFF7DEFDE3692049A78A1A0ABE
:108174001B0618180B6803F101060E601C4903F076
:1081840007034FEA031642F1000201EB0313C3E9AC
:1081940002028F532C22002105A8666D11F036FCD3
:1081A400102305A88DF8143006968DF81C5000F0A5
:1081B4005FFF2046FFF792FF0E4B1B685B0712D54B
:1081C4000D4B1B68032B0EDD0C4B0D49D3F8043506
:1081D400029594F8482001920A4A0092042040F241
:1081E400F31204F073FB11B0F0BD00BF383500206A
:1081F400B8340020182E0020142E00200010014056
:1082040019A1030025A1030008460021FFF79CBF24
:1082140010B591F84830012B0C4602D07846FFF790
:10822400FFFC94F851305BB1013B84F851300023DA
:1082340084F85030084BBDE81040186803F07CBB4C
:10824400217B0129204603D1BDE81040FFF77CBF04
:10825400BDE81040FFF75DBFB43400201FB50346EE
:10826400002208468DF80F20DBB102330B600DF1BC
:108274000F0103F0A6FC9DF80F3093B10B4B1B6864
:108284005B070ED50A4B1B68032B0ADD094B0A4A10
:10829400D3F8043509490092042040F2154204F051
:1082A40015FB9DF80F0005B05DF804FB182E0020A7
:1082B400142E00200010014048A1030019A103005E
:1082C40070B50446D4E906122378808A8CB0E3B1F1
:1082D400E38805F0BBFB0546A0B12C22002101A8D0
:1082E400A68AE46911F092FB0F238DF804304FF055
:1082F400000364F3000301A8ADF808608DF80A30A8
:1083040000F0B6FE28460CB070BD05F09BFBE2E71A
:108314002DE9F047994613789769F4B006460D465F
:10832400144623B1D1883846FFF7FCFC9061A2784B
:10833400E178A2F108000DF1140A424204F10C089C
:10834400C1F1020153464241C9B2404603F03BFC2D
:10835400A278A761ADB2AB1A9BB2CDE90AA6ADF87B
:1083640030301E44E378109614AF4FF0000A0F9794
:108374008DF84420ADF838A0002B6CD003AE237BDD
:10838400C4F824A0022B08BF1023C6E900AA02BF28
:10839400ADF8383023690D93206A217904AB324655
:1083A4000BF036F83068002838D009A9FFF756FFDB
:1083B40078BB706878B309A9FFF750FF58B301235D
:1083C40056F8233063622046FFF77AFFF0B9A278AB
:1083D4008DF824000D9098E80300A38AADF832309C
:1083E400AD1A0EAB01220A97ADF82C508DF830204F
:1083F40083E80300A37D8DF84830236A109309A80D
:10840400636A1193CDF84C9000F032FE74B0BDE86D
:10841400F0870023D4E73368002BBDD1237B022BE4
:1084240005D1E08941460BF0E3F80028A7D1194BA8
:108434001B685B07EAD5184B1B68052BE6DD174B59
:10844400174AD3F8043517490092062040F2037204
:1084540004F03CFADAE7227B012AE8D12646E089D7
:10846400B4F814A046F8243F31460BF047F8606A8C
:1084740009A9FFF7F3FE0028A5D1606231465046F2
:108484000BF03CF8606A09A9FFF7E8FE0028CED09B
:1084940099E700BF182E0020142E00200010014080
:1084A4005BA1030019A1030010B590F84830012B1B
:1084B400044602D07846FFF7B3FB02F007FD237BA6
:1084C400012B074B09BFA27DD968D3E9033101FB16
:1084D4000231014404F13000BDE8104002F0A8BCB0
:1084E400FC360020F0B5837816469A18C37D002B1D
:1084F4000CBF4FF4C0734FF480739342C7B00F4660
:1085040068D3364B002493F84810012907D19D8A7B
:10851400818A8D4203D1DD89C1898D425CD00134C9
:10852400042C03F17003EED10121FFF76FFD054622
:1085340000283BD032463946C06E11F035FA00238C
:1085440004A928460493FFF7B1FC30F00403044661
:108554003CD1049B13B12846FFF7A6FF204B1B68B0
:108564005B0722D51F4B1B68032B1EDDB5F84A00A1
:108574001D4B802805AA1E6828BF802000231446AE
:10858400834202F1020214D1002204F81320174B93
:10859400174AD3F804350192164A009216490294F8
:1085A4004FF4AC62042004F091F90024204647B053
:1085B400F0BDE96EC95C0F0901F00F01F75D02F827
:1085C400027C715C02F8011C0133D9E72846FFF7ED
:1085D40085FDEBE70924E9E70824E7E73C350020BB
:1085E400182E0020142E00201C2E00200010014004
:1085F40084A1030092A1030019A103002DE9F04115
:1086040092F801C01CF0010F8EB005460E461446C8
:108614001F4662D092F817C0BCF1000F00F0B28080
:108624001046FFF74DFE002857D194F80380B8F1A7
:10863400000F40F08780062E4FD12F786B78544A74
:10864400D5F80260B90101F4FE5141EA93011346E1
:1086540092F84850012D28D1B2F814C0E589AC45F0
:1086640023D1D5888D4220D1B2F858C0A58ABCF157
:10867400000F01D0AC4518D117F0800F4FF07002F5
:108684002ED002FB0032A2F85850702202FB0034B4
:1086940035BAE36C1D43E564002E3CD1032120462A
:1086A4000EB0BDE8F041FFF74FBD0130042802F1E0
:1086B4007002CDD1374B1B685A070ED5364B1B6859
:1086C400012B0ADD354B364AD3F80435354900927F
:1086D400022040F2796204F0F9F80EB0BDE8F081AE
:1086E40002FB0032D289AA42CFD02A4B1B685B0717
:1086F400F3D5294B1B68012BEFDD284B2949D3F80F
:108704000435CDE90125284A0092022040F27D6219
:1087140004F0DCF8E1E72046FFF778FB854205D159
:1087240020460EB0BDE8F041FFF7F3BC002120461F
:1087340084F85010FFF7BAFB20460EB0BDE8F041B4
:10874400FFF7B2BE4046FFF72BFB02460028C4D019
:10875400D4E90301236A0B93A38AADF8223009AB51
:1087640083E80300A37D8DF8303023788DF8203022
:10877400E36A8DF81480CDE906560D93394605A8B1
:108784009047AAE70EB0BDE8F041FFF7C1BD00BFB6
:108794003C350020182E0020142E0020001001402B
:1087A4009AA1030019A10300C8A103002DE9F04117
:1087B40086B004460F461646FFF7FEFB0546002822
:1087C40032D123783BB132463946204606B0BDE863
:1087D400F041FFF787BEE27DA378002A33440CBF43
:1087E4000F220B2293422AD80133029304F10C0383
:1087F4000093A36A01938DF81000E36A039368461B
:1088040003F07BFB054678B905992046FFF793FAF8
:10881400E37D01F101085BB132463946404611F06F
:10882400C3F8684603F08AFB284606B0BDE8F08129
:108834002346324641463846FFF7F5FAF1E7092563
:10884400F2E7000010B54FF4E0720021134811F074
:10885400DDF8002405F0C8F8114B12481C602146CD
:10886400802211F0D3F8104B1049114A11489C751D
:10887400C3E9001210494CF25032C3E902211A61D3
:1088840040F604029A8203F039F80C4B18600C4B42
:108894000C481C60BDE8104005F0B0BA3C3500201F
:1088A40038350020B8340020FC360020809698002B
:1088B400F0490200A58F020020A10700B434002073
:1088C400A8340020E57D020005F0AEB830B50446BA
:1088D4008DB000285DD00369002B5AD0C369002BEA
:1088E40057D08569002D54D05A788DF804201A7811
:1088F4000993838A82F001020B2B8DF80320027BFB
:1089040001D8C17A49B10121022A8DF8001001D1A0
:10891400214A927D2AB9042204E0012A10D18DF85B
:108924000020082213448DF802200B330C22B3FBE1
:10893400F2F3013B8DF8093000238DF8083004E090
:1089440004238DF800108DF8023094E8030000230E
:108954008DF8173003AB83E803002389ADF8143096
:10896400A37A8DF81630236A0A932046DF230895EC
:108974000B930AF0E7FE28B12378012B0CBF2023C8
:10898400FF230B93A28A21696846FFF70FFF0DB0FE
:1089940030BD0E20FBE700BFFC36002070B50D464D
:1089A40090B0044600284CD04368002B49D082691B
:1089B400002A46D000230D93836806788DF813604F
:1089C4000B2B94BF017B012101F001008DF81000F5
:1089D40000208DF8120031B10733DB08013B8DF81C
:1089E40019308DF81800D4E9040101238DF82730DB
:1089F40007AB83E80300E389ADF82430237F8DF8C7
:108A04002630236A0C92CDE90E530F4B1B685B078B
:108A140010D50E4B1B68062B0CDD0D4B0D49D3F8FE
:108A24000435CDE901620C4A0092072040F60502A4
:108A340003F04CFFD4E9011204A8FFF7B7FE10B00D
:108A440070BD0E20FBE700BF182E0020142E00205E
:108A54000010014019A1030009A2030030B5037BF3
:108A6400012B91B004460D465DD1304B1B685B076A
:108A74000ED52F4B1B68032B0ADD2E4B2E4AD3F841
:108A840004352E490092042040F2632203F01EFFB5
:108A9400E38899008DF81110290E8DF81210290C15
:108AA4008DF813106178002202290CBF01211146B0
:108AB400C3F3861343EAC1138DF810304FF0060355
:108AC40009934FF001038DF82C30A38AADF82E30B2
:108AD40004AB0893236A0D936DBAE36ACDF81620AC
:108AE4008DF81A20ADF814500C928DF81C208DF8D6
:108AF40028200F9315D10DF10E0103A80AF012FEE0
:108B0400BDF80C30ADF82A30A37D0BB10C4B5B7D66
:108B14008DF838306FF0010107A8FFF73FFF11B05F
:108B240030BDE389EEE70020F9E700BF182E0020EE
:108B3400142E00200010014034A2030019A10300E8
:108B4400FC36002010B591F84830022B0C4602D0B8
:108B54007846FFF765F8022384F8683094F84830C3
:108B6400022B06D1E16C2046FFF778FF08B984F8A0
:108B7400680010BD2DE9F04F0E469DB0144699468D
:108B84000546002800F00982002A00F0068221B977
:108B9400092738461DB0BDE8F08F134613AF02F124
:108BA400180C186859683A4603C2083363451746D7
:108BB400F7D1002395F900108DF841302B78002966
:108BC4004FEAD3128DF8402024DA032EE0D9042290
:108BD4009DF8570000B303F07F038DF84330002362
:108BE40099428DF8423030DA6A78AB78920102F417
:108BF400FE5242EA9302ADF84620DB00EA7803F025
:108C0400180343EA521302F01F028DF848308DF81E
:108C140049201AE00122DBE7C3F38010002903F0A6
:108C24003F038DF843008DF8443008DA95F901309C
:108C3400002BACBF042308238DF84230D4E704236F
:108C44001A4496428DF84230A2D30023199399F81E
:108C54000030032B02D97846FEF7E2FF99F8002092
:108C6400BA4B10A853F822301B93FFF7A5F9074617
:108C740000288ED1CDE9030003A960880AF0B8FC6E
:108C840028B19DF8413043F001038DF84130D4E917
:108C94000312208904F014FF00284FD19DF84130BD
:108CA400002B3FF476AFD80744BF049B14939DF880
:108CB4004030002B00F06A81BDF846101698FFF78B
:108CC40031F8179ABDF854C04FEA122A1206121846
:108CD4009F484AF1000A4FF000080388634506D113
:108CE400D0E902139A4508BF8A423FF452AF08F113
:108CF4000108B8F1080F00F11000EED1954B0021E6
:108D04001C4693F84800022821D1988A60451ED158
:108D1400702303FB0144E188A069FFF703F8E369CA
:108D2400190A1B061B1841F10001934271EB0A005A
:108D340033D205212046FFF707FA0DE09DF84130B4
:108D440003F0FE038DF84130002BA7D121E7013158
:108D5400042903F17003D4D1DDE91612BDF84630BD
:108D6400BDF8540004F0D8FE002800F0AC80DDE922
:108D74001612BDF84630BDF8540004F0FBFE00287E
:108D84003FF407AF10A8FFF741F8014610A8FFF71A
:108D940065FE10A8FFF794FAFBE69A427AEB01010C
:108DA400FFF4F7AE6C4B1B685B0711D56B4B1B686C
:108DB400032B0DDD6A4B9DF84820D3F8043501924E
:108DC400684A0092684940F2A332042003F07EFD11
:108DD40094F84830022B02D07846FEF721FFDFF8E2
:108DE40090A1DAF800B002F071F80BEB000104F185
:108DF400300002F01DF8237B012B1AD194F868305F
:108E0400BBB994F84830022B02D07846FEF708FF2D
:108E1400DAE901129AF8153002FB031A02F056F847
:108E240000EB0A0104F1500002F002F8012384F877
:108E340068309DF84810E36C01228A4013427FF4A5
:108E4400A8AE1343E3649DF85730627A002B0CBF3D
:108E54004FF00C0A4FF0080A8A42A6F104060AFBF6
:108E640001FA40F087800AEB0603A4F84A30A269AD
:108E7400169B9A420BD20DF14C0EBEE80F0004F182
:108E84000C0CACE80F009EE803008CE80300E06ED5
:108E9400291D3246504410F087FD2046E56CFEF74C
:108EA400B5FF85427FF475AEE16C2046FFF7D6FD31
:108EB400E06EB4F84A104B462246FFF79FFB20466B
:108EC400FFF70CF965E69DF857209DF84930002A14
:108ED4000CBF0C22082203FB02220CBF4FF4C07308
:108EE4004FF480739A4216D91B4B1B6859077FF5C0
:108EF40050AE1A4B1B68002B7FF74BAE184B1A4928
:108F0400D3F804350192194A0092012040F27F32CD
:108F140003F0DCFC3DE6022110A8FFF777F80446D5
:108F240000287FF43FAF014610A8FFF797FD2C22DD
:108F3400214605A810F06AFD10238DF8143005A809
:108F440002238DF81C3000F093F822E6A4AE03004F
:108F5400B83400203C350020182E0020142E0020A8
:108F64000010014058A2030019A1030044A2030009
:108F7400FC360020002B08BF4FF00C0846453FF498
:108F840076AF04212046FFF7DFF802E64B4610AA2D
:108F9400711E681CFFF732FBFBE50E27F9E500BFE5
:108FA40073B5184C0026254695F84830012B0CD192
:108FB400002301A928460193FEF778FF042801D075
:108FC400019B13B12846FFF76FFA0136042E05F111
:108FD4007005E9D1002594F84830022B0AD194F8A1
:108FE4006830022B06D1E16C2046FFF737FD08B943
:108FF40084F868000135042D04F17004EBD10120DC
:1090040002B070BD3C3500202DE9F8430F460646FA
:1090140018B3DFF85880D8F80040E4B9254600F1C9
:109024000409BD4208D1104BC3E900650123C8F807
:1090340000302046BDE8F88359F835306BB116F995
:10904400353016F83500002B09DB50B1FEF7A8FEC9
:1090540038B90135E5E70424EBE70E24E9E70B24EE
:10906400E7E70F24E5E700BFAC340020A834002074
:10907400F8B5054610B97846FEF7D2FD104F3C68A6
:1090840084B1104E0123337023791BB954F8043C86
:10909400284698472468002CF6D13378022B02D056
:1090A40000233370F8BD3968054C0029F8D00B79DA
:1090B4000D6813B1204603F0B8FB2946F5E700BF5D
:1090C400183700201437002010B5044610B978462C
:1090D400FEF7A6FD00232372211D0248BDE81040BF
:1090E40003F082BB1837002010B5044610B9784647
:1090F400FEF796FD074A1378013B012B04D802239F
:1091040013700123237210BD211D0348BDE81040D4
:1091140003F08BBB14370020183700200B888268BB
:10912400D25A073222F00302134402889BB2043A53
:10913400934288BF00230B80704713B58468091BD2
:10914400ADF806100DF10601FFF7E8FFBDF80600C3
:10915400204402B010BD70B5064615460C4611B940
:109164007846FEF75DFD16B97846FEF759FDB4F171
:10917400005F24D94FF08053D3F80C3103F500235A
:10918400B4EB832F1ED26B1E2344B3F1005F26D9A8
:109194004FF08052D2F80C2102F50022B3EB822F5B
:1091A40020D2042D02D87846FEF73AFD00233580FC
:1091B4007380B380B460043DA370258070BDB4F5A2
:1091C400000F08D94FF08053D3F80C3103F5005346
:1091D400B4EB832FD7D37846FEF722FDD3E7B3F55C
:1091E400000F08D94FF08052D2F80C2102F500523A
:1091F400B3EB822FD5D37846FEF712FDD1E770B5D5
:10920400044610B97846FEF70BFD6288A368134440
:109214009B78012B02D17846FEF702FDEFF310860E
:1092240072B6A568A18829448B78032B09D12046FE
:10923400FFF783FF0023451B6580837006B962B680
:1092440070BD0023AB706380A380F7E7F8B50E46CA
:109254001546044610B97846FEF7E2FC16B978467E
:10926400FEF7DEFC6288A36813449B78012B02D1CD
:109274007846FEF7D5FC002D37D02388043B9BB2FB
:109284009D4232D8EFF3108772B66288A388E81D36
:1092940020F003009A4280B204D29B1A984210DD57
:1092A400042016E018D92188891A814209D29842EB
:1092B400F6D8032981BFA3689B1804229A7000235F
:1092C40063806288A1688B188D5201229A700020F5
:1092D400336007B962B6F8BDA26813449B78002BCB
:1092E400DED193706380A380EBE70920F3E7F8B540
:1092F4000D461646044610B97846FEF791FC15B99A
:109304007846FEF78DFCAB78012B02D07846FEF749
:1093140087FC2B88B34203D27846FEF781FC01E038
:10932400002EF9D0EFF3108772B60223AB70E11868
:109334002E802046FFF7F2FE6288A38893421FBF67
:10934400A3689B1800229A7007B962B6F8BDF8B5F5
:109354000D46044610B97846FEF762FC15B9784606
:10936400FEF75EFCEFF3108672B6A768A3883B4451
:109374009A78042A05D1211D2046FFF7CFFEA38841
:109384003B449A78022A05D0032A08D0052006B95E
:1093940062B6F8BD03229A702B600020F7E7784686
:1093A400FEF73EFCF9E738B5044610B97846FEF7F7
:1093B40037FCEFF3108572B6A388A16819448B7843
:1093C400042B03D12046FFF7B8FE01468878831E9C
:1093D4005842584105B962B638BD38B5044610B98B
:1093E4007846FEF71DFCEFF3108572B6A388A168DA
:1093F40019448878C31E012B05D9831E584258414D
:1094040005B962B638BD2046FFF797FE0146F0E77E
:10941400F8B50D46044610B97846FEF701FC15B9B7
:109424007846FEF7FDFBEFF3108672B6AB78012B9E
:1094340019D0032B22D1A288A36813449D4202D0E1
:109444007846FEF7EDFB0027AF70211D2046FFF79D
:1094540065FEA288A36813449B78042B00D1A780DF
:1094640006B962B6F8BD6288A36813449D4202D06F
:109474007846FEF7D5FB0023AB70F1E77846FEF79C
:10948400CFFBEDE710B5EFF3108472B682888168E4
:1094940011448B78042B02D1FFF74FFE01468878E4
:1094A400B0FA80F0400904B962B610BD037942797C
:1094B4009B1A03F57F2303F6FF7300EB0330704719
:1094C400024B00221A769A6002207047243700204B
:1094D40010B5054884681C22002110F097FA204634
:1094E400BDE8104003F064BF2437002070B5194C68
:1094F400E36813B97846FEF793FB237E13B17846ED
:10950400FEF78EFB63680A2B02D97846FEF788FBC8
:10951400114D0026636855F823309847022811D06E
:1095240003280DD0012810D1636801330A2B63602E
:1095340002D97846FEF774FB237E002BEAD004E0C0
:109544006660F9E7237E0BB1207070BDBDE8704002
:10955400FFF7BEBF24370020B4AE0300074A002340
:1095640052F8041B814202D1054A5360704701330B
:109574000B2BF5D17846FEF753BB00BFB4AE030006
:1095840024370020038810B5044613B97846FEF743
:1095940047FB2088074B04EB800030EA030203D02A
:1095A4006288B2F5FE4F04D11C4004F58054207843
:1095B400204410BD00F0FFFF70B504460D4647F689
:1095C400FE66FFF7DFFFA84207D2844205D2438834
:1095D400013B9BB2B342F4D870BD0020FCE700000D
:1095E4000A78094B032A04BF002119761978012946
:1095F40003D11B7E3BB9FFF779BF022903D1032AAC
:1096040001D1FFF765BF70472437002010B50C4C1B
:10961400E3681878002203F58051184404F0B2FB83
:1096240050B9E1680846FFF741FF814206D001F5D1
:109634008051E160032010BD0120FCE70220FAE71D
:10964400243700201FB50A4B0222DB688DF8002066
:109654000193084A4FF4805369460120029300F0B5
:1096640077FFB0FA80F0400905B05DF804FB00BF55
:1096740024370020223700201FB50123CDE9022121
:109684000190054A8DF800306946184600F060FFE5
:1096940005B05DF804FB00BF223700202DE9F04738
:1096A400244FF86803794279013B9A4230D000F59F
:1096B4008053DFF884801C781C44D8F8003013F8F9
:1096C400046F1E44FFF7F2FE6388013B9BB247F62A
:1096D400FE62934200F5805504D920462946FFF7DF
:1096E4006BFF0446DFF854A04FF001094CB1D8F8E1
:1096F40000106288304601F5805104F043FB0646B1
:1097040040B9B4FA84F464097C760120BDE8F0879A
:109714000124F9E704225146204687F81890FFF700
:10972400ABFF28B920462946FFF746FF0446DDE78C
:109734000020EBE724370020403700201CAF030053
:1097440038B5104CE36818784FF6FF7203F5805172
:10975400184404F017FB80B1E36819780B4498426D
:109764000BD0657E0849094B0422002D18BF194609
:10977400FFF782FF18B901232376012038BD0020AA
:10978400FCE700BF2437002018AF030014AF030028
:1097940070B50C4D0C4EE96830680C7804302246E4
:1097A400FFF76AFF58B9336804F0FC040434234417
:1097B4006B61EB681A7813442B61012070BD0020A3
:1097C400FCE700BF243700204037002008B5054BD4
:1097D400054918680422FFF74FFFB0FA80F04009EA
:1097E40008BD00BF4037002030370020074B10B5BC
:1097F4001968074C40F6FC72E0680431FFF73CFF3F
:1098040010B90120207610BD0020FCE7403700206D
:109814002437002010B50C4CE1680846FFF746FEDB
:1098240081420AD1094B0A4918680422FFF724FF30
:1098340040B901232376022010BD01F58051E16077
:109844000320F9E70020F7E7243700204037002001
:109854001C3700202DE9F84F2D4D2B6913B978469C
:10986400FEF7DEF96B6913B97846FEF7D9F947F6C6
:10987400FE676B69D5E9030623F47F6A2AF00F0AB1
:10988400AAEB030AFFF712FE7388013B9BB2BB42AB
:109894000AF5805A00F5805B05D930465946FFF732
:1098A4008BFE064678B334464FF000095C450ED271
:1098B400228809EB8208C24509D986EA0403B3F574
:1098C400805F04D26388013B9BB2BB4204D9B9F1E7
:1098D400000F07D101200FE02046FFF753FEC146D9
:1098E4000446E3E768694A463146FFF7C5FE60B9B6
:1098F4006B694B44C5E90443628847F6FF739A4297
:1099040001D00028B5D0012000E00020BDE8F88F88
:10991400243700201FB50A4B02221B688DF8002053
:109924000193084A4FF4805369460120029300F0E2
:109934000FFEB0FA80F0400905B05DF804FB00BFEB
:1099440040370020223700201FB500232A4AD3F8CD
:10995400F81F13704A1C0CD14FF010235A690132BE
:1099640001D05A6952B94FF080535A691B695A435E
:1099740007E00029F7D0A1F5805202E05A69A2F568
:1099840080521E4B1E4C1B68A2F58052DB022260E3
:1099940016D51C4B1B68062B12DD481C08BF4FF064
:1099A4001021194BD3F8043508BF4969CDE90112D8
:1099B400164A0092164940F27622072002F086FFEA
:1099C400236819684B1E033314D8C1F30B028AB9F8
:1099D400104B1148D96001241A831C709A60FFF758
:1099E400BDFD20460D4900F0A3FDFFF77FFD204695
:1099F40004B010BD0020FBE720370020182E002003
:109A040040370020142E002000100140C9A203009A
:109A1400B2A203002437002049960200E595020013
:109A240010B5044610B97846FEF7FAF8094B1878D1
:109A340060B1E068D9684379A0EB0333994206D357
:109A4400FFF734FD81428CBF0020012010BD0020AF
:109A5400FCE700BF24370020024B1878003818BFF9
:109A6400012070472437002038B5114C237805466F
:109A740013B17846FEF7D4F82B78032B02D078463E
:109A8400FEF7CEF8EB68E3600A4B0B491B78A56040
:109A9400002B0CBF00230A236360012000232070E5
:109AA400238300F045FDBDE83840FFF71FBD00BF2C
:109AB4002437002020370020E5950200014B186868
:109AC400704700BF4037002010B5044610B97846EF
:109AD400FEF7A6F863681BB123680BB1A36813B93A
:109AE4007846FEF79DF8A3685A1E1A4202D07846BB
:109AF400FEF796F80023C4E9033310BD38B50446D5
:109B04000846F4B1A368F3B1EFF3108572B6D4E953
:109B140003329A4203D105B962B605200EE041B181
:109B2400A368013B1340D4E9001202FB03110FF0B8
:109B34003BFF2369013323610DB1002038BD62B6B8
:109B4400FBE70E20FAE70920F8E70000024AD2F802
:109B54000034002BFBD0704700E0014038B50446C8
:109B6400C0F30B00D0B9D9B10E4D0223C5F80435AA
:109B740001F6FF71FFF7EAFF6FF30B0121448C42FA
:109B840005D10023C5F80435FFF7E0FF38BDC5F85B
:109B94000845FFF7DBFF04F58054F0E71020F5E7F4
:109BA4000920F3E700E00140F8B540EA0103064666
:109BB40098071DD1F2B112F003001BD10E4F0123FF
:109BC400C7F804359408FFF7C1FF0546A54205D13F
:109BD4000023C7F80435FFF7B9FFF8BD51F8253065
:109BE4005A1C03D046F82530FFF7B0FF0135EDE7E6
:109BF4001020F2E70920F0E700E0014041F282631F
:109C040098429DBF024B1878C0F3C00001207047F2
:109C1400B037002013B5000C01280C4602D078465A
:109C2400FDF7FEFF074A0849236813600B7843F0E9
:109C340001030B7083F00203C3F34003002013718C
:109C440002B010BD94370020B037002013B5000CCB
:109C540002280C4602D07846FDF7E2FF074B226843
:109C64001A6022791A71064A002058719871D871C5
:109C7400137843F00203137002B010BD993700202B
:109C8400B037002013B5000C03280C4602D07846E8
:109C9400FDF7C6FF034B1A6822601B79237102B0DB
:109CA40010BD00BF9437002013B5000C03280C46E8
:109CB40002D07846FDF7B4FF064B22681A60227979
:109CC4001A71054A1378002043F00103137002B09F
:109CD40010BD00BF94370020B037002013B5000C2E
:109CE40004280C4602D07846FDF79AFF034A13680D
:109CF40023605368636002B010BD00BF9937002031
:109D040013B5000C04280C4602D07846FDF788FFF2
:109D1400064A2368136063685360054A1378002079
:109D240043F00203137002B010BD00BF9937002046
:109D3400B037002007B5000C032802D07846FDF7A1
:109D44006FFF034B00221A601A7103B05DF804FB25
:109D54009437002007B5000C042802D07846FDF79C
:109D64005FFF034B00221A605A6003B05DF804FBE6
:109D74009937002000B50A4B1A7B9B688DB0012AE5
:109D840008BF03F1FF3304930390022301A88DF865
:109D940008208DF80430FFF76BF90DB05DF804FB73
:109DA400CC370020074A1378590709D501781229BE
:109DB40006D105490868054923F004034860137077
:109DC400704700BFB037002094370020CC37002004
:109DD4001FB5124C2378590602D47846FDF720FFAC
:109DE40023785A0717D40E4A526802F50052B2F18A
:109DF400807F02920FD80B4A43F0040312788DF847
:109E04000C2002A94FF44030237004F0B5FF10B1C8
:109E14007846FDF705FF04B010BD00BFB037002041
:109E2400CC370020A13700201FB50023ADF80D303A
:109E34000C4B9A6802920C4A1B7B8DF80C301378F9
:109E44000133DBB202A94FF4802013708DF80F3078
:109E540004F092FF10B17846FDF7E2FE05B05DF81C
:109E640004FB00BFCC370020A137002008B5002038
:109E740004F0F6FF1422074800210FF0C7FD064A3C
:109E8400137823F0600343F040031370BDE80840E7
:109E9400FFF79EBFCC370020B037002010B50C4C24
:109EA4001422002120460FF0B1FD01F00FF8094BF8
:109EB400094A0A499A600022C3E9031258605A61A8
:109EC400074B6260197862F3C301197010BD00BFBB
:109ED400CC370020B43700205DA002000087930334
:109EE400B037002037B5264D2B78DB062FD4254814
:109EF400254B036000F048FD2448254B036000F027
:109F040043FD2B7813F0200212D103F00303032B3B
:109F1400204C1ED02260A26022732282FFF784FFAD
:109F2400236863602B7843F040032B70FFF750FFE6
:109F34004FF4803004F06FFF4FF4003004F06BFFF7
:109F4400154800F033FF2B7843F010032B7003B057
:109F540030BD124B1A68A2601A7922739879597924
:109F640041EA00212182D9790D4B19700D4B1879E2
:109F7400884202D00AB92260D2E71B682360CFE787
:109F8400B0370020A4370020F9A002008837002051
:109F9400A99D0200CC370020B43700209937002057
:109FA400A137002094370020034B187880F0040078
:109FB400C0F38000704700BFB037002010B501F037
:109FC4002FFC0D4A137BA3B9947B94B9108AFFF735
:109FD40015FE70B1012313739368148201339360E7
:109FE400FFF722FF2046FFF7C5FE01F057FC20468D
:109FF40010BD0824F9E700BFCC37002010B501F0EC
:10A004000FFC144A547B9CB1917B09BB108AFFF767
:10A01400F5FD044660B1137B51732BB1012B0BD0BA
:10A024007846FDF7FDFD03E0FFF7C8FF0028F7D1F0
:10A0340001F034FC204610BD0846C2E9001111733A
:10A044001182FFF797FEFFF7EFFEFFF7C1FEEFE780
:10A054000024EDE7CC3700201FB5244C227B2AB125
:10A06400012A0FD07846FDF7DBFD1CE0208AFFF7BC
:10A07400C5FDC0B1FFF7C2FF638A0BB1013B638228
:10A0840004B010BD218A0846FFF7B8FD58B142F26A
:10A09400B013994288BF6273FFF7B0FF0028EBD179
:10A0A400637B002BE8D1238A01339BB21E21B3FBCF
:10A0B400F1F201FB123292B22382002ADCD1ADF814
:10A0C4000D300B4BA2681B78029202A9227B8DF8FB
:10A0D4000C204FF480208DF80F3004F04DFE002842
:10A0E400CAD07846FDF79CFDC6E700BFCC370020F8
:10A0F400A137002038B50378042B0FD143681B78AF
:10A1040063B11C4B8568197B4269047E61BB598A23
:10A11400F1B9012C996802D08A4203D838BD481C91
:10A12400824217D92A318A42F8D8997B0029F5D17D
:10A134009A60114A1A61C3E900119981FFF774FE0C
:10A14400FFF746FE05F11000BDE83840FFF712BEE8
:10A15400012CE3D1996801318A42DFD101225A737B
:10A16400BDE83840FFF74ABF0129D7D1012CD5D02B
:10A174009968F1E7CC3700200000062D10B50C4C8F
:10A18400236828B101210B4A0B449173236010BD4D
:10A1940013B97846FDF744FD2368013B2360002B87
:10A1A400F5D1044ABDE810409373FFF727BF00BF01
:10A1B40044370020CC37002000B58DB00323ADF820
:10A1C400080001A88DF8102003918DF80430FEF7E3
:10A1D4004FFF0DB05DF804FB014B9868704700BF5A
:10A1E400CC370020034B98681B7B012B08BF00F180
:10A1F400FF307047CC370020194B1B785B0670B5D5
:10A2040005460E462AD5174CD4E900239A4223D298
:10A21400207B154B1549012818BF0B469A4207D2DB
:10A2240063682268403B9A4208D3FFF7D1FD05E0FA
:10A2340001236373FFF7E2FE0028F1D0EFF31082ED
:10A2440072B62368591C21603360FFF7CBFF286086
:10A2540002B962B6002070BDFFF7BAFD0F20FAE71D
:10A26400B0370020CC37002000E0FF00FFFF7F0064
:10A27400044B9B685840C20748BF03F1FF3318469C
:10A28400704700BFCC370020014B187B704700BFDC
:10A29400CC3700202DE9F0411C4C00260221204639
:10A2A40002F0B0F95FFA86F805460027ADB967B148
:10A2B4002946204602F00DFA082806D154F8043C39
:10A2C4001BB113492A46404698470136032E04F130
:10A2D400BC04E3D10120BDE8F08154F8043C23B16F
:10A2E40034F80C2C29464046984734F80C3C01338A
:10A2F40024F80C3C0221204602F0A0F90221204659
:10A3040002F080F901370546D0E700BFF43700209A
:10A31400F0AE030038B5012104460C3002F072F9A6
:10A32400054620B3154BC4F89C300023C4F8A03074
:10A3340003786168012B07D0022B1AD07846FDF709
:10A344006FFC4FF4FA7306E08268531A9B082922C3
:10A35400534303F5FA730A4A934294BFC4F8A830EE
:10A36400C4F8A8200123C4F8AC4084F8B8302846C7
:10A3740038BD8368034A5B1A1B0BE9E7ADA30200EF
:10A3840060850100084C010010B50446FFF7C2FFC8
:10A3940048B104F19C0009F0BBFE20B17846BDE849
:10A3A4001040FDF73DBC10BD4A4B1B782DE9F74F1B
:10A3B400D1F8A84007460D463BB109F0DFFE002363
:10A3C40085F8B83003B0BDE8F08F01F10C094846B8
:10A3D400012102F017F9064610B97846FDF720FC72
:10A3E400DFF8F8A0A4F5FA784FF0290B00243378AD
:10A3F400012BA8EB040406D0022B3BD07846FDF7D2
:10A404000FFC00231FE06B68B268B4FBFBF4D21AA4
:10A41400A400944228BF144624B901937846FDF75A
:10A42400FFFB019BF168706823F003032246194483
:10A434001844FFF7B9FB10B17846FDF7F1FB6B68E0
:10A4440023446B60B3686A689A422AD109F096FE85
:10A454004846012102F0F2F800236B6085F8B83019
:10A464001D4B186801F068FA284603B0BDE8F04FA8
:10A47400FFF78ABF6B68B268B4FBFAF4D21A2403FC
:10A48400944228BF144624B901937846FDF7C8FBCB
:10A49400019B706823F0030321461844FFF75EFB19
:10A4A400C9E701F0AFF83378C41B48BF3C1A012B4D
:10A4B4000BD0022B0BD07846FDF7B2FB00232344CC
:10A4C400434594D909F05AFECEE72923F7E75346CA
:10A4D400F5E700BF1C3A0020E4370020084C0100D7
:10A4E4002DE9F0410F48104C01F008FA0F4B0025FC
:10A4F40018604FF008081027032604F11C03636159
:10A5040004F1180384F80E8067732673236104F141
:10A514000C00013502F0B9F8032D04F1BC04ECD1B0
:10A52400BDE8F08199A20200E8370020E43700205A
:10A53400022838B504460D4602D97846FDF770FB6B
:10A54400024BBC2202FB04339D6038BDE837002077
:10A5540002282DE9F84F05460C46924602D9784662
:10A56400FDF75EFB14B97846FDF75AFB2378012BFF
:10A5740012D16368990702D07846FDF751FBE3686E
:10A584009A0702D07846FDF74BFBA3689B0711D0CE
:10A594007846FDF745FB0DE0022B0DD16368C3F34C
:10A5A4000B0313B17846FDF73BFBA368C3F30B031E
:10A5B400002BEDD1A36813B97846FDF731FBEFF317
:10A5C400108772B6BC26DFF894906E4306F10C0B2C
:10A5D400CB440021584602F015F8804638B30021D8
:10A5E400584602F02BF804F1100354F8042B48F8F1
:10A5F400042B9C42F9D1BAF1000F05D0BC2303FB14
:10A6040005935B88AAF80030BC2303FB05956B888F
:10A6140095F8B84001336B80E4B90F4B1D783DB910
:10A6240009EB0600FFF776FE2FB12C4605E0042463
:10A634006FB92746002062B63C4640B106F19C0043
:10A64400484409F065FD10B17846FDF7E9FA204663
:10A65400BDE8F88F0024EBE71C3A0020E83700201F
:10A66400F8B5EFF3108772B6114D2B6850B1013372
:10A674002B602B680F4A003B18BF0123137007B9E6
:10A6840062B6F8BD13B97846FDF7CAFA2C68013CE6
:10A694002C60002CEDD1084E96F8B83013B9304632
:10A6A400FFF772FE0134032C06F1BC06F4D1E0E797
:10A6B400E03700201C3A0020E837002010B1024B9C
:10A6C400800B185C704700BF00AF030012DF7047B7
:10A6D40007B501F099FC90B10A4B1B685B060ED5D7
:10A6E400094B1B68012B0ADD084B094AD3F80435D2
:10A6F4000849019000920220752202F0E7F803B0A5
:10A704005DF804FB182E0020142E002000100140D8
:10A7140051A3030046A3030070B58AB00AF0F0F910
:10A724000446002834D000238DF8103006460FCE9E
:10A7340005AD0FC533682B60627D052A0CD9207DD9
:10A7440000F00F03072B07D004AB063A04F11D01F8
:10A7540000F00F0009F04EF8114B1A68AAB104ABCF
:10A764000393237DC3F303038DF80430637D062B29
:10A7740089BF063B0023DBB204F11D0198BF1946D3
:10A784008DF80530029101A8904720460AF0A2F9FD
:10A794000AF0D0F980F00100C0B20AB070BD00BF69
:10A7A400283A002010B5114C2378022B8CB005D028
:10A7B4007846FDF735FA01200CB010BDFFF7F4FB25
:10A7C40018B90B48FEF780FCF5E70AF065F9032396
:10A7D4002C22002101A823700FF018F91D2301A8D1
:10A7E4008DF80430FEF744FCE5E700BF2C3A002066
:10A7F400042E002008B50378122B08D10448FEF774
:10A8040073FC044B1868BDE8084001F095B808BD16
:10A81400042E0020243A0020F7B5314E3378054643
:10A82400002B52D1002852D0077A07F0F703072BE8
:10A834004FD105F03BF9E868002843D0FDF700FA52
:10A844000DF10700FFF742FF0446C0BB9DF8073037
:10A85400012B40D1FDF720FA00F090FA384600F0C1
:10A8640091FFE87800F00EF900F0D6FD09F00AFC3B
:10A874001C480AF0F7F909F073F908F091FFFFF7A3
:10A884002FFE04F023FA00F06DFC05F0CFF804F07D
:10A89400D5FE284601F01CFBFDF7D4FF03F072FD42
:10A8A400FDF71CF908B1062817D10F4801F026F866
:10A8B4000E4B18600E4B00221A60012333702046A1
:10A8C40003B0F0BDFDF7C8F9BAE70824F7E70E2492
:10A8D400F5E70724F3E70224F1E70446EFE700BFB6
:10A8E4002C3A00201DA70200A9A70200243A002048
:10A8F400283A002037B51C4D2B78012B04D0043B9B
:10A90400012B24D908241DE001F0F0FAFDF7DCFF47
:10A91400FDF7E4F80446C0B1062816D0134B1B68B3
:10A924005B040FD5124B1B68012B0BDD114B124A34
:10A93400D3F8043511490190009202204FF4C272F9
:10A9440001F0C4FF204603B030BD00F047FF09F01A
:10A95400D1FB04460028F5D102232B70084B18685C
:10A9640000F0EAFFEEE700BF2C3A0020182E00208A
:10A97400142E0020001001407AA3030046A3030014
:10A98400243A0020FDF7A2BFFEF79EBBFEF7ACBB46
:10A9940008B500F011FD002008BD0000014B18604F
:10A9A400704700BF283A0020014B00221A6070470C
:10A9B400283A002070470000044B18680130B0F1B9
:10A9C400704F08BF01201860704700BF203A002074
:10A9D40010B5044610B97846FDF722F90023C4E9FE
:10A9E400003310BD38B50D46044610B97846FDF75E
:10A9F40017F915B97846FDF713F900236B60EFF3E7
:10AA0400108372B6226822B92560656003B962B604
:10AA140038BD62685560F8E710B5044610B9784649
:10AA2400FDF7FEF8EFF3108272B6206820B9002318
:10AA3400636002B962B610BD43682360002BF8D18D
:10AA4400F5E710B5044610B97846FDF7E9F8206833
:10AA540010BD35DF7047000008B54FF0FF30FFF739
:10AA6400F8FFBFF34F8F0549054BCA6802F4E06253
:10AA74001343CB60BFF34F8F00BFFDE700ED00E051
:10AA84000400FA05013806289ABF024B33F8100077
:10AA9400FA20704704AF0300024B5868103840B2E4
:10AAA400704700BF00ED00E000280346B8BF00F186
:10AAB4001F03084A5B1152F82330424202F01F027E
:10AAC40000F01F0058BF504223FA00F000F00100CC
:10AAD400704700BF00E100E046DF704730B501F188
:10AAE40010031032103013F8014D12F8015D8B423F
:10AAF40084EA050400F8014DF5D130BD2DE9F04F8D
:10AB040091B002F10F0604AC1D4688463611034687
:10AB140000F1100CA14618685968274603C708338A
:10AB240063453C46F7D102F00F040EB1002C5CD013
:10AB34004FF0000A4FF0020B1022002108A80EF07B
:10AB440065FF4846FFF7C8FF01220CA89DF93010A5
:10AB54000F23074690F800C010F801EF4FEA4C0CA1
:10AB6400013B4CEADE1C9BB200F801CC002BF1D176
:10AB74009DF83F305B00DBB2002902F1FF32B8BF21
:10AB840083F087038DF83F3053425341002B4FF03D
:10AB9400020214BF134603239B45D6D2013E08EBA1
:10ABA4000611BAF1000F24D00CAA6846FFF796FFED
:10ABB400102200210CA80EF029FF0024B4422CDB43
:10ABC4003A46694608A8FFF789FF4846FFF784FF1D
:10ABD40010AA3B4603CB9342286069601F4605F1E7
:10ABE4000805F6D111B0BDE8F08F4FF0010AD34645
:10ABF400A2E7224668460EF0D7FE04F140036B44F8
:10AC04008022601C03F8402C5146C4F10F026844B2
:10AC14000EF0FCFE0CAA6946C7E708EB041239469D
:10AC240008A8FFF75BFF4846FFF756FF0134C5E766
:10AC340038B5114B1A6804462AB11A68406852683C
:10AC4400821A002A0DDA1A6862611C609A8801323D
:10AC540092B29A8012B97846FCF7E2FF012323707E
:10AC640038BD1A68154652691AB15168091A002983
:10AC7400F8DB62616C61E9E7343A00200F4B1A6833
:10AC8400824210B504460DD142691A609A8892B284
:10AC9400511E89B2998012B97846FCF7C1FF00238E
:10ACA400237010BD1A68002AF9D05169A14202D15B
:10ACB40061695161EAE70A46F5E700BF343A0020CA
:10ACC400014B186800F038BE303A0020044B1A6873
:10ACD40022B11B680349586800F080B900F0D8B964
:10ACE400343A0020C5AC0200F8B500F0EFF8224E6B
:10ACF40005460027336823B133685B685B1B642B0C
:10AD040005D400F0E3F8FFF7E1FF0120F8BD346853
:10AD14002378012B02D07846FCF782FF6369336005
:10AD2400B38867619BB25A1E92B2B28013B9784657
:10AD3400FCF776FFA36813B97846FCF771FF02238A
:10AD4400284621692370A368984700F0BFF8237848
:10AD5400022B0546CED1E2680AB92270CAE76FF029
:10AD640063016368091A1344D942FCD46360204622
:10AD7400FFF75EFFBEE700BF343A0020074A0848E9
:10AD840008B500231370074A1360536000F0B6FD42
:10AD9400054B1860BDE8084000F08AB82D3A002041
:10ADA400EDAC0200343A0020303A0020134B1B78FB
:10ADB40010B5044613B17846FCF732FF00F094FE58
:10ADC40010B97846FCF72CFF14B97846FCF728FF35
:10ADD400A36813B97846FCF723FF2378012B02D12B
:10ADE4007846FCF71DFF002363612046FFF720FF30
:10ADF40000F06CF8BDE81040FFF768BF2D3A002062
:10AE040010B5044600F070FE10B97846FCF708FF50
:10AE140014B97846FCF704FF2046FFF72FFF002300
:10AE2400636100F053F8BDE81040FFF74FBF000026
:10AE3400194B1B7837B504460D4613B17846FCF719
:10AE4400EFFE00F051FE10B97846FCF7E9FE14B9A4
:10AE54007846FCF7E5FE2046FFF710FF0023636108
:10AE640020466560FFF7E4FE00F030F8FFF72EFFA0
:10AE74000A4B1B685B040DD5094B1B68032B09DDCA
:10AE8400084B094AD3F80435084900920420E22209
:10AE940001F01CFD03B030BD2D3A0020182E002017
:10AEA400142E002000100140FBA30300E9A30300BB
:10AEB40008B50EF0C7FB38B90EF0F6FA20B17846A3
:10AEC400BDE80840FCF7ACBE08BD000010B5EFF3C8
:10AED400108072B60C490D4B1B68D1F80425D1F8CB
:10AEE4000441012C04BFD1F80425013300B962B632
:10AEF400074942EA036200204FF48043E2FB013039
:10AF0400DB0B43EA404010BD00100140483A0020EA
:10AF140040420F000A4B10B54FF40032094CC3F8FD
:10AF24004823C3F80823236813B97846FCF778FE4E
:10AF34002468FFF7CBFF2346BDE81040184700BF45
:10AF4400001001403C3A002070B5EFF3108072B657
:10AF54001D4B1E490022C3F804210A6801320A600D
:10AF640000B962B61A4A1168F9B111680139116061
:10AF74001268D2B91749D3F804050A68904215D269
:10AF8400EFF3108072B6D3F804250C68951CA54223
:10AF940034BF0A680332C3F8442500B962B64FF4DB
:10AFA4000032C3F84423C3F8042370BD0A4C236859
:10AFB40013B97846FCF734FE2468FFF787FF23466D
:10AFC400BDE87040184700BF00100140483A002017
:10AFD400443A0020403A00203C3A002037B5002390
:10AFE400044601930D4611B97846FCF719FE224B2D
:10AFF4001D60FFF76BFF2149214A031B002B4FF013
:10B004000005B4BF241A2C464FF400408C46294650
:10B01400E4FB00C1002360460EF03EFBEFF3108317
:10B02400019372B6174A184CD2F804350328C3F1B9
:10B03400FF1101F57F4138BF0320814213490FD32B
:10B044000344C2F844354FF40033C2F84433C2F821
:10B05400043325600D60019B03B962B603B030BDB3
:10B0640003F17F43013303441A0E013223F07F437B
:10B0740022600B60EFE700BF3C3A002020A10700EC
:10B0840040420F0000100140443A0020403A0020A2
:10B09400074B4FF40032C3F84823C3F80823054A8A
:10B0A40000231360044A1360044A1360704700BF0E
:10B0B40000100140443A0020403A00203C3A00206D
:10B0C40030DF704731DF7047034610B5D0E9002008
:10B0D4009C68D968A2EB701280EAF43018600C44C2
:10B0E400104411445C609960D86010BD73B50D467E
:10B0F400064610B97846FCF793FD0024A54201D812
:10B1040002B070BD0DF10700FFF7DAFF9DF80720CC
:10B11400002AF7D02B1B9A4288BF8DF807303019CC
:10B124009DF80710FFF7CEFF9DF807301C44E5E7B4
:10B1340037B50421044600230DEB01000193FFF70A
:10B14400D5FF074B2360019BE360C4E90133142559
:10B154002046FFF7B9FF013DFAD103B030BD00BF6F
:10B16400ED5EEAF17047032003F07ABE48DF7047D2
:10B1740049DF70474ADF7047074B032218681A7487
:10B18400064A5A6140F6D86143F2B063884298BFD8
:10B194000B469360704700BF943A0020B03A0020F9
:10B1A400064B1A68064B1B68A2F1780028335343F8
:10B1B400044AB3FBF2F3C01A704700BF943A00206C
:10B1C400883A002040420F000D4B012210B55A71FD
:10B1D4000C4A00241C7413680133136000F06EFAE7
:10B1E40009F042F8FFF7DCFF074A0146204600F069
:10B1F400D7F920B17846BDE81040FCF711BD10BD69
:10B20400943A00208C3A00207DB102001E4B30B4E9
:10B214005C6928B11A68D96822440131D9601A607E
:10B224009A680121013224FA01F5012A19749A60FD
:10B2340019685D610DD0022A19D05B69134A19445B
:10B24400914203D840F6D76293421BD830BCFFF733
:10B25400BBBFB5F5FA7F03D130B900225A61ECE7E0
:10B2640041F6B1529442E8D840F6D862F6E7DA687B
:10B27400022A02D1054A521AF0E7012ADDD1002838
:10B28400EBD0DAE730BC7047943A002080969800FF
:10B2940070B5414C414D012323712B781BB1404BB8
:10B2A4001E78002E59D000232374042851D8DFE8D7
:10B2B40000F0034B484642003A4DA179AA68C4E91C
:10B2C40002332368226099B3012121743649002B8B
:10B2D40008BF0B46991AB1F57A7F25D39A4223D831
:10B2E400616143F2B06043F69822C5E9020201238A
:10B2F4006B71A371237C023B012B11D863793BB1A1
:10B3040008F0CEFFFFF74CFF00F00AFA0023637148
:10B31400234B00221A70237C022B04BF01232376C3
:10B3240000232248237170BD4FF47A736361D8E718
:10B33400FFF74AFFD5E70120FFF768FFDAE70020AF
:10B34400FAE708F03FFFD5E700F07CF908F072FF58
:10B35400D0E77846FCF764FCCCE700F053F92B788F
:10B364002060022B0FD0032B06D0012B10D1022317
:10B37400237400232B70BDE70A4B0D490D4A5E71FF
:10B38400C3E90212A67103232374064B6361F0E739
:10B394007846FCF745FCECE7943A0020913A00200B
:10B3A400903A0020B03A002080969800A43A0020F9
:10B3B400A0860100FF1FA107043808B5042825D87A
:10B3C400DFE800F016220A030F00114B1B7E012B4D
:10B3D4001CD1FFF7CDFEC8B17846BDE80840FCF7A4
:10B3E4001FBC0B4B00221A76BDE8084008F094BF3E
:10B3F40008480123437143F6982240F6D863C0E914
:10B404000232FFF7B7FEE6E70248FAE708BD00BFDD
:10B41400943A0020B03A00200D4A4FF48071002382
:10B42400918043F2B06C43F698211370C2E902C1D3
:10B43400084A1060084A1370084A1370084A1360D7
:10B44400084A13761360938001239371704700BFF9
:10B45400B03A0020883A0020903A0020913A002027
:10B464008C3A0020943A002010B50E4C237E012B18
:10B474000BD0022B13D00BB1002010BD0A48FFF7EC
:10B4840075FE10B17846FCF7CBFB0848FFF772FE57
:10B4940010B17846FCF7C4FB02232376ECE71120B5
:10B4A400EBE700BF943A002095B20200B03A0020C6
:10B4B400074B1B7C023B012B07D9064B187801383C
:10B4C40002288CBF0020012070470120704700BF74
:10B4D400943A0020913A0020014B1868704700BF4D
:10B4E400943A0020064B587910B540B1FFF758FE46
:10B4F400044600F087F80346201A48BF181B10BD05
:10B50400943A0020014B1879704700BF943A002008
:10B51400EFF3108372B6054A527922B1044A4FF40C
:10B524008071C2F8001103B962B67047943A0020E2
:10B5340000E100E0044B1B7E022B04D1034B0122EB
:10B544001A70FFF7E5BF7047943A0020913A002043
:10B55400054B1B7E022B06D1044A012808BF032396
:10B564001370FFF7D5BF7047943A0020913A00203A
:10B57400054B1A7832B128B9044A127812B11870FE
:10B58400FFF7C6BF18707047903A0020913A002028
:10B59400024B1B6803B962B6704700BFC03A002073
:10B5A400022810B521D8EFF31084114B1C6072B639
:10B5B400104B43F82020104B002243F820200F4B5F
:10B5C4001B7873B1830003F1804303F5004310300B
:10B5D400C3F84021012282400948C0F80423C3F87B
:10B5E4004015FFF7D5FF002010BD0720FCE700BF82
:10B5F400C03A0020DC3A0020D03A0020C43A0020AF
:10B604000080004008B5EFF310820A4B1A6072B64E
:10B61400094B1B7853B1094B0022C3F84C2101227A
:10B62400DA64D3F84C05FFF7B3FF08BD044B186880
:10B63400F9E700BFC03A0020C43A0020008000406F
:10B64400C83A00202DE9F84F174EDFF86080002536
:10B654004FF0010AAC0004F1804404F50044D4F82E
:10B664004031D3B1D8F8043305F110070AFA07F7CB
:10B674003B4212D0D6F800B0BBF1000F02D178469D
:10B68400FCF7CEFA4FF00009C6F80090C8F808732A
:10B69400FFF7B8FFD847C4F840910135032D06F1F0
:10B6A4000406D7D1BDE8F88FDC3A002000800040C2
:10B6B400014B1B6818447047CC3A002008B5134B63
:10B6C4000022C3F84025C3F84021D3F84011C3F841
:10B6D4004425C3F84421D3F84411C3F84825C3F8DA
:10B6E4004821D3F848310A4B1B681BB9094B4FF466
:10B6F40080721A60084B01221A70FFF7E7FB0146BB
:10B70400FFF780FF054B091A196008BD008000404F
:10B71400C03A002000E100E0C43A0020CC3A002006
:10B724000B4A0C4900231360536093600A4A0B6070
:10B7340010600A4A4B6013708B60094B4FF0FF3264
:10B74400C3F80823074B4FF48072C3F88021704775
:10B75400D03A0020DC3A0020C83A0020C43A002045
:10B764000080004000E100E0044B1B780F2B1EBF5B
:10B77400034B4FF48022C3F800217047E93A0020BC
:10B7840000E100E010B5104C104B2070104803602D
:10B794001023C0E90133FEF797F90E48FFF718F9B3
:10B7A40023780F2B0AD0072B09D8EC221A41D20791
:10B7B40005D5094A5B01DBB282F8123310BD784625
:10B7C400BDE81040FCF72CBAE93A0020483B0020C1
:10B7D400483C0020EC3A002000E100E00D4B1B78CF
:10B7E4000F2B0DD00C4991F81223EC23520913416D
:10B7F400DB0706D5094B9A6832B94FF480230B60F6
:10B8040070477846FCF70CBA1A6842F480221A6032
:10B81400704700BFE93A002000E100E0FC58002036
:10B82400F8B5EFF3108672B616490B685A1C0A6015
:10B83400FBB9154B1B780F2B20D0EFF3108772B692
:10B84400124A9468012384B99360114B114DD3F8C3
:10B85400800028401060C3F88050D3F88400506002
:10B864004FF0FF32C3F8842023460B4A137007B904
:10B8740062B60B6813B97846FCF7D2F906B962B61A
:10B88400F8BD00BF443B0020E93A0020FC580020EA
:10B8940000E100E0FC06FFBD403B002038B5EFF3BB
:10B8A400108572B6104C236813B97846FCF7B8F9C2
:10B8B4002368013B2360A3B90C4B1B780F2B10D0DA
:10B8C4000B4B1A780B4B996859B152B9EFF31080AE
:10B8D40072B609491C680C605C684C609A6000B9D7
:10B8E40062B605B962B638BD443B0020E93A00208F
:10B8F400403B0020FC58002000E100E038B504463D
:10B9040010B97846FCF78CF9094D2B68102B02D935
:10B914007846FCF785F9EFF3108372B62868421C69
:10B924002A60044A42F8204003B962B638BD00BF19
:10B93400F43A0020F83A002038B50D4B1B688342D6
:10B94400044602D87846FCF76BF9EFF3108572B61B
:10B9540008496009012251F8203004F01F04A24074
:10B96400134341F82030FFF7FFFE05B962B638BD36
:10B97400F43A00203C3B002070B50D4616460446C0
:10B9840010B97846FCF74CF915B97846FCF748F934
:10B99400EFF3108372B60022C4E9025622742460C5
:10B9A40003B962B670BD000070B5044610B978469C
:10B9B400FCF736F9A36813B97846FCF731F9EFF3CD
:10B9C400108672B6237C03F0FF055BB90123064899
:10B9D40023742146FFF706F8FFF7C6FE284606B98A
:10B9E40062B670BD1120FAE7EC3A002010B50446A7
:10B9F40010B97846FCF714F9207C10BD2DE9FF47F7
:10BA0400324F3B7813B17846FCF70AF90125DFF889
:10BA1400C880DFF8C8A0DFF8C8903D700024D8F8CB
:10BA24000030A34212D82A48DFF8A480FEF7F4FFBE
:10BA3400002650BB274C69462046FEF75FF890B3BA
:10BA4400002328463B7004B0BDE8F087610904F088
:10BA54001F02012393405AF82120134213D0EFF31D
:10BA6400108072B65AF8212022EA03024AF82120F3
:10BA740000B962B659F824309847064618B92046EA
:10BA8400FFF75AFF35460134C9E70468237C13B92C
:10BA94007846FCF7C5F8D4E9023098472674404646
:10BAA400FEF7BAFFC5E79DF8003043B1012BC2D1C0
:10BAB400019B002BBFD0DDE902019847BBE7019B46
:10BAC400002BB8D002989847B5E700BFE83A0020A9
:10BAD400EC3A0020483C0020F43A00203C3B002093
:10BAE400F83A0020FFF78ABF07B5FEF7D5FF8DF8B7
:10BAF40003009DF803301749F02B0DD10B780F2B61
:10BB040025D01220FEF7D0FF80F00100C0B200F073
:10BB1400010003B05DF804FB9DF803305BB2002B19
:10BB2400ABBF03F160430C4A03F5614303F00F0319
:10BB3400ACBF93F80033D35C5B090193019A0B7893
:10BB4400934204D0019A9342DBD30020DFE7012023
:10BB5400DDE700BFE93A002014ED00E046DF70475E
:10BB6400F0B58DB015466A460B46044600F1100C3C
:10BB7400174620686168164603C608346445324691
:10BB8400F7D104AC03F1100618685968224603C2C1
:10BB94000833B3421446F7D13846FFF7DFFF08AC49
:10BBA4002A460CAD234603CBAB42106051601C46C1
:10BBB40002F10802F6D10DB0F0BDFEF79FBF01F00F
:10BBC400EEBC01F025BD022930B419D8F1B11970C9
:10BBD400C168D2010C045A7004F47F04C1F3074213
:10BBE40022439A70C1F30721120CD9701A71028989
:10BBF40052BAA3F80520428852BAA3F8072020E0DD
:10BC0400032924D0784630BCFCF70AB8827AC47A77
:10BC1400197002F07F0242EAC412C4685A70250403
:10BC2400C4F3074205F47F052A439A70C4F307243A
:10BC3400120CDC701A710289D97152BAA3F805206A
:10BC44001972026912BA30BCC3F809207047002483
:10BC540019705C70C1680D04C1F3074205F47F05D7
:10BC64002A439A70120C1A710289DC71C1F30721FC
:10BC740052BAD970A3F805201C72E2E77FB50E46CC
:10BC84001546044600B112B97846FBF7C9FF1022E5
:10BC9400002168460DF0BAFE2B463246214668461E
:10BCA400FEF72CFF04B070BD2DE9FF41DDF82C80B8
:10BCB4000F4615461C46064620B11AB113B1B8F119
:10BCC400000F02D17846FBF7ABFF6B463A4631468C
:10BCD4002846FEF713FF9DF8282043462146684670
:10BCE400FEF70CFF04B0BDE8F0810000F0B50F468C
:10BCF4008FB014461E46054608B101B113B9784603
:10BD0400FBF78EFF1CB97846FBF78AFF01E0102C85
:10BD1400F9D8274B009305AA04216846FFF7AEFF24
:10BD240001AB2946102205A8FEF7E8FE2246394653
:10BD340005A80DF039FE04F138036B44012203F821
:10BD4400242C05ABA218194692B201A8FEF7D6FE20
:10BD54009DF82330354603F07F0305F8013B224666
:10BD6400394609A80DF020FE04F148030DEB030742
:10BD740011340223A4B207F8243C22462B4605A919
:10BD840001A8FEF7BBFE11362B4605AD18685968AD
:10BD94002A4603C20833B3421546F7D1032207F8F3
:10BDA400242C05A9224601A8FEF7A8FE0FB0F0BD79
:10BDB400736D6B3230B50C4689B0054600B111B9CC
:10BDC4007846FBF72DFF04210DEB01000E4B019388
:10BDD40004AAFFF753FF04AB294618461022FEF7C6
:10BDE4008DFE0A4B18681B798DF80C3004AB029059
:10BDF40002A918460522FEF781FE06AB03CB20609C
:10BE0400616009B030BD00BF736D6B3311A40300D2
:10BE140030B50C4687B0054600B111B97846FBF73A
:10BE2400FFFE0E4B009302AA68460421FFF726FF8B
:10BE340002AB294618461022FEF760FE084B019318
:10BE4400042202AB18460DEB0201FEF757FE9DF8E3
:10BE5400173003F03F03237007B030BD736D6B34AC
:10BE64006964360130B50268037CD17A87B0002951
:10BE74008DF8043083680CBF0421082109330B4476
:10BE8400CDE90232436804930446C36805936946C6
:10BE940001A801F0B9FF084318D0237C2068012BC6
:10BEA4000BD000F10C011030FEF7A6F9054620B1C5
:10BEB40002F046F8284607B030BD2168009800F02B
:10BEC4003FFB009B093363610025F3E70425F1E799
:10BED40008B500B14068044B1860FDF7DFFFBDE80A
:10BEE400084002F04BBC00BF5C3C002008B5FDF7E5
:10BEF400F9FFBDE8084002F07FBC10B5044610B954
:10BF04007846FBF78DFE236813B97846FBF788FE65
:10BF140023685B6913B97846FBF782FE237C012B07
:10BF240002D97846FBF77CFEE36813B97846FBF741
:10BF340077FE2046BDE81040FFF794BFF0B50446F5
:10BF4400C7B010B97846FBF76BFE636913B978463E
:10BF5400FBF766FE236813B97846FBF761FE236896
:10BF64005B6913B97846FBF75BFE606900F034FB4C
:10BF74001F4B1B689B0705462ED51E4B1B68042BC5
:10BF84002ADD1D4B1E6805AB411E00F11C07184637
:10BF940011F8012F4FEA121C02F00F0216F80CC020
:10BFA40083F800C0B25C5A708F4203F10203EFD1F0
:10BFB400002380F83A3003F1804303F588330F4AB5
:10BFC400D3F8043501920E4A029000920D4940F2D2
:10BFD4002F12052000F07AFCA168206800232A466D
:10BFE40000F06FFA47B0BDE8F04001F073BF00BF46
:10BFF400182E0020142E00201C2E00206BA40300F9
:10C0040092A1030061A403002DE9F0430E46D5B0CC
:10C0140090460546002800F0088100F0DFFA844FBE
:10C02400421B29460BA80DF0BFFC3B68980727D597
:10C03400804B1B68042B23DD7F4B802E3446D3F8C2
:10C0440000C028BF802413AB294604EB050E184614
:10C05400714503F1020378D1002300F8143003F191
:10C06400804303F58833754AD3F804350192744A42
:10C074000290009273494FF4AA72052000F026FC46
:10C08400002305AC00932A460BAB3146204600F052
:10C09400CFF90546002840F0AC802378002B00F04F
:10C0A400A880E268B2F1807F80F0A380E27A12B1C6
:10C0B400022B00F09E8094F90A30002BC0F2998084
:10C0C4003B68990725D55B4B1B68042B21DD5A4B34
:10C0D400802E1868B4460BA928BF4FF0800C13AB10
:10C0E400654503F102033FD113AA002302F815307A
:10C0F40003F1804303F588335249D3F8043502929F
:10C10400514A01924E4A0092052040F25D1200F01D
:10C11400DDFB636913B97846FBF782FD314620469F
:10C1240000F052FAC6B23146434622460DF13500BC
:10C13400FCF720FD13A90546208907F059FA10B32E
:10C14400E1682089FBF7D8FD53E011F8012B4FEA91
:10C15400121902F00F021CF8099003F8029C1CF853
:10C16400022003F8012C73E711F8012B4FEA121E89
:10C1740002F00F0210F80EE003F802EC825C03F800
:10C18400012C0135ACE7012003F080FC0028D7D056
:10C19400A37A012BD4D92378012B05D1608813A964
:10C1A40007F026FA0028CBD1284BA27A1B6823BBC0
:10C1B400A37A1394013BA3724FF0FF331493DF234C
:10C1C400169313A8012315968DF85C30FFF74AFEE9
:10C1D4008046C0B9189832460DF135010DF0E4FBE4
:10C1E40013A8FFF7ABFEA37A0133A372B8F1000FD3
:10C1F400A6D0284655B0BDE8F083618820899847C9
:10C204000028D5D19CE73B689B07ECD5094B1B68FC
:10C21400012BE8DD0E4B0F4AD3F80435094900928F
:10C224000220AD2200F052FBDDE70E25E1E700BF5E
:10C23400182E0020142E00201C2E002072A40300AF
:10C2440092A1030061A4030081A403005C3C0020CC
:10C254000010014090A4030008B520B1012804D0C7
:10C264007846FBF7DDFC002008BD0320FCE730B571
:10C2740089B0002304938DF81430036940691BBA14
:10C28400CDF81530D1F80730CDF81930B1F80B30AE
:10C29400ADF81D300C464B7B8DF81F301546113020
:10C2A4006A4604A9FFF75CFCA31D0DF10600EA1D14
:10C2B40013F8011910F8015DA34281EA050102F89F
:10C2C400011DF5D109B030BD2DE9F041D4B01D46B2
:10C2D40000238DF81730ADF83C300E93D31D0C932A
:10C2E400EB1D10935A9B43610E4606AF11462A4636
:10C2F40004460B97FFF7BBFF6B78DA0903F07F0363
:10C30400E272A372EB78AA781B0243EA02432A7909
:10C314001343E360B5F8050040BA208180B2FEF70C
:10C32400CDF9012866D1E27A002AA6F109030CBFEF
:10C334000422082293425DD3E1682089FBF7BEFC06
:10C344008046002856D1E37A9DF86C01002B0CBF7F
:10C3540004230823073E8DF84830F61A0C9BB6B226
:10C3640033441193ADF83460FFF776FF3B46014642
:10C3740042462046FFF727FC63690DF1170101339C
:10C384000AA80A93FFF71DFC9DF81730002B31D043
:10C39400B5F8070040BA608080B2FEF78FF91E4BF3
:10C3A40020701B689B0725D51C4B1B68032B21DDC4
:10C3B400BDF834201A4B10991D68802A28BF8022AA
:10C3C40013AB56181C468E4203F1020317D1002307
:10C3D40004F8123003F1804303F58833114AD3F88B
:10C3E40004350192104A009210490294E422042078
:10C3F40000F06CFA9DF8170054B0BDE8F08111F814
:10C40400010B070900F00F00EF5D03F8027C285CC4
:10C4140003F8010CD7E700BF182E0020142E0020CB
:10C424001C2E002014A5030092A1030007A50300FD
:10C434002DE9F04385B00F469DF8309014461E4612
:10C44400054618B112B10BB19A4202D17846FBF7F6
:10C45400E7FBA7F10903142B31D82078C009FDF7B5
:10C4640007FF002328616B6194F80080CDE9023353
:10C4740008F07F0803AA02A9404606F079FF029B50
:10C48400CBB1CDE900392246334639462846FFF779
:10C494001BFF08B100200FE0039B4BB1CDE900392D
:10C4A4002246334639462846FFF70EFF0028F1D1CD
:10C4B400029B002BDED1052005B0BDE8F0830920E6
:10C4C400FAE7F0B50C468FB016461F46054610B97C
:10C4D4007846FBF7A5FB16B97846FBF7A1FB012FBD
:10C4E40002D97846FBF79CFB3846FFF7B5FE01AF4F
:10C4F40001463B4628460022FFF765FBEB7A6A6952
:10C50400002B0CBF04230823A11C89B28DF83430FE
:10C514000132F31DCDE90527079300220B9305A8EB
:10C524000B44ADF82010ADF8282009920C93FFF7C6
:10C5340046FB324631462846FFF799FE0FB0F0BD60
:10C5440038B50C46054610B97846FBF769FB14B9B3
:10C554007846FBF765FB2089FEF7B0F8012802D086
:10C564007846FBF75DFB94F90A30002B02DA784633
:10C57400FBF756FBE368B3F1807F02D37846FBF701
:10C584004FFB636913B97846FBF74AFBD4E90423EC
:10C594001B7803F07F0343EAC2132B70A37AE27A79
:10C5A40003F07F0343EAC2136B70E3682B711A0C28
:10C5B400AA701A0AEA702389AB711A0A6A7163882D
:10C5C4002B721A0AEA7138BDC37A002B0CBF0420FF
:10C5D40008200939081A7047093870470130704734
:10C5E400436849B90178827819441B7811F8010C21
:10C5F400D31A1844C0B270475A185B5C12F8010C85
:10C60400C01AF7E738B50D46044610B97846FBF76B
:10C6140007FB2378AB4202D87846FBF701FB294697
:10C624002046FFF7DDFF40B16368A2785B5DA06838
:10C63400013A1340627802FB030038BD38B50C465A
:10C64400054610B97846FBF7EBFA2B78A34202D8DB
:10C654007846FBF7E5FA21462846FFF7C1FF18B1F3
:10C664006A68135D0133135538BD10B5044610B91B
:10C674007846FBF7D5FA0023194622789A4200D867
:10C6840010BD6268D1540133F7E710B5437804460E
:10C6940013B97846FBF7C4FA2378012B02D87846FD
:10C6A400FBF7BEFAA36813B97846FBF7B9FA6368D7
:10C6B40013B97846FBF7B4FAA37813B15A1E1A4299
:10C6C40002D07846FBF7ACFA2046BDE81040FFF7ED
:10C6D400CCBF38B50D46044610B97846FBF7A0FA2E
:10C6E4002378AB4202D87846FBF79AFA29462046CB
:10C6F400BDE83840FFF774BF08B520B119B1FFF7A2
:10C7040087FB002008BD0E20FCE713B50B4658B18B
:10C7140051B1002401220DF107018DF80740FFF704
:10C72400E5FA204602B010BD0E20FBE730B50C46FA
:10C734008BB00546E0B1D9B11031FFF73BFB0D4B8F
:10C7440003930D4B186804909B88ADF8143006AA27
:10C75400042103A8FFF792FA0623009328460194C4
:10C7640004AB06AA1021FFF79FFA00200BB030BDDE
:10C774000E20FBE76E6B626B27A5030030B50C46F9
:10C7840087B00546F0B1E9B104210F4B01930DEBDD
:10C79400010002AAFFF772FA02AB184610222946DA
:10C7A400FFF70BFA9DF816209DF81730120202F4D9
:10C7B4007C5213436FEA43436FEA534323800020C0
:10C7C40007B030BD0E20FBE77674616438B50D46C2
:10C7D400044600B111B97846FBF722FAAC421EBFF9
:10C7E40023682B60256038BD38B50C46054600B17A
:10C7F40011B97846FBF714FA2B68A34202D17846A4
:10C80400FBF70EFA286840B92C60206038BDA542B9
:10C8140002D17846FBF704FA28460568002DF6D1C4
:10C824002146BDE83840FFF7D1BF38B505460C4670
:10C8340001B110B97846FBF7F3F92B6883B1A34231
:10C8440004D123682B600020206038BD1A461B6881
:10C8540023B1A342FAD123681360F4E7002CFAD081
:10C864000520F2E737B506AC104654F8045B009097
:10C874001A4600200B46054908F07CFD224629464D
:10C88400002008F045FC03B030BD00BF2EA5030016
:10C89400034B1860034B1960034B1A60704700BFC9
:10C8A400182E0020142E0020102E002070B4064CE8
:10C8B4002468DDE9035624B1CDE90356A44670BCCF
:10C8C400604770BC704700BF102E002030B585B0A3
:10C8D40008AC54F8045B0394CDE90054FFF7E6FF79
:10C8E40005B030BD037942799B1A00EB03307047E1
:10C8F400431E9BB247F6FE62934208D849B14B8867
:10C9040058400B8818420CBF0120002070470020BB
:10C914007047012070470000064B984210B504464A
:10C9240003D303F58273984202D97846FBF778F96A
:10C93400201F10BD7C3C00201FB50446CDE9022118
:10C9440001201A4669468DF800000194FDF700FEA7
:10C9540004B010BDF8B50C4E01460C48FCF758FD68
:10C9640075687DB100273046FEF756F8044610B9C5
:10C974007846FBF755F923682760D3E902209047EE
:10C98400A542F0D1F8BD00BF6C3C0020803D0020E2
:10C9940013B582B200240648019401A9FCF756FCA1
:10C9A40018B90198043002B010BD2046FBE700BF5F
:10C9B400803D002008B5FFF7AFFFBDE808400288BE
:10C9C40001460148FCF793BC803D0020014B1868E8
:10C9D400FEF7B2BF783C0020038810B5044613B9B3
:10C9E4007846FBF71DF92088074B04EB800030EAFA
:10C9F400030203D06288B2F5FE4F04D11C4004F553
:10CA040080542078204410BD00F0FFFF70B5C46846
:10CA1400237805461C4400214FF6FF76E868FFF7AB
:10CA240061FF844202D26388B34201D1084670BDDB
:10CA34002046FFF7D1FF21460446EFE710B5044630
:10CA4400FCF7EEFF10B17846FBF7EAF82046FFF753
:10CA5400DDFFA06050B9E3681A7813444FF6FF7203
:10CA64005988914208BFA360002010BD428847F650
:10CA7400FF739A42F8D00820FFF78AFF38B10322E7
:10CA840002710460FFF796FFFFF7A0FFECE70420B4
:10CA9400EBE700002DE9F04FDFF8A0929E4F85B040
:10CAA40099F8006097F80080022E14D1B8F1030FB2
:10CAB400FCD8DFE818F00400350010005901002309
:10CAC400694696480093FCF742FC014638B1944B02
