:1000000000000420750300005D0300005F03000092
:1000100061030000630300006503000000000000AE
:100020000000000000000000000000006703000066
:1000300069030000000000006B0300006D03000076
:100040006F0300006F030000C91D00006F03000074
:100050006F0300006F0300004D1C00006F030000E1
:100060006F0300006F0300006F0300006F030000C8
:100070006F0300006F0300006F0300006F030000B8
:100080006F0300007D1300006F0300006F0300008A
:100090006F0300006F0300006F0300006F03000098
:1000A0006F0300006F0300006F0300006F03000088
:1000B0006F0300006F03000000000000000000005C
:1000C0006F0300006F0300006F0300006F03000068
:1000D0006F0300006F0300006F0300006F03000058
:1000E0006F0300006F0300006F03000000000000BA
:1000F000000000006F030000000000006F0300001C
:1001000000000000000000000000000000000000EF
:1001100000000000000000000000000000000000DF
:1001200000000000000000000000000000000000CF
:1001300000000000000000000000000000000000BF
:1001400000000000000000000000000000000000AF
:10015000000000000000000000000000000000009F
:10016000000000000000000000000000000000008F
:10017000000000000000000000000000000000007F
:10018000000000000000000000000000000000006F
:10019000000000000000000000000000000000005F
:1001A000000000000000000000000000000000004F
:1001B000000000000000000000000000000000003F
:1001C000000000000000000000000000000000002F
:1001D000000000000000000000000000000000001F
:1001E000000000000000000000000000000000000F
:1001F00000000000000000000000000000000000FF
:10020000354936480A1A02D0072291438D463449AF
:1002100034480A1A06D00722914381F30988022242
:1002200082F3148830483149314A00F044F83148AB
:100230003149324A00F03FF831483249324A00F041
:100240003AF832483249334A00F035F832483349F7
:10025000334A00F030F833483349344A00F02BF881
:1002600033483449344A00F026F8344834490022EF
:1002700000F02CF833483449002200F027F83348C6
:100280003349091A082902DB002202604160314A21
:1002900090471F481F49884205D00268043003B4C4
:1002A000904703BCF7E700208646EC46002000217B
:1002B000294A9047FEE7884207D0521A05D00378B2
:1002C00001300B700131013AF9D17047884202D0F8
:1002D00002700130FAE770470000042000E00320BC
:1002E0000000042000000420883A000000000020E4
:1002F00044000020D0030000D003000018300000AC
:10030000883A000000000020000000208C3000002F
:100310008C3000008C3000008C3000008C300000ED
:100320008C3000008C3000008C300000853A0000DA
:10033000CC3A00004400002044000020440000208B
:100340002C1000202C1000202C1000202C1000203D
:100350002C3000209D030000492A0000FEE7FEE744
:10036000FEE7FEE7FEE7FEE7FEE7FEE7FEE7FEE765
:1003700000F002B8FFF7FCBF0F484FF007018843B9
:1003800085460E4880470E48016841F470010160BF
:10039000BFF34F8FBFF36F8FFFF732BF09480A4992
:1003A0000A4A884207D0521A05D0037801300B70F0
:1003B0000131013AF9D1704700000420B12C00004E
:1003C00088ED00E08C3000000000002000000020DC
:1003D0007047000007B5044B0093044A402300F027
:1003E00032F803B05DF804FBF10300004400002084
:1003F0002DE9F84388461446B2B10F4B0F4E032542
:10040000002743F00109224608EB0701002002F013
:100410000BFC0744241A48B933782BB14FF47A40C7
:10042000C847013D02D13570BDE8F8830123337020
:10043000002CE8D1F8E700BF9030000084000020D5
:10044000704702F01DBCF0B595B01D461646084633
:100450000C4601F0E0FA1A9B0D93CDE908650025E2
:100460002B46082205A920460A958DF82C500C959C
:1004700001F0EDFA079B0293069B03939DF814305D
:100480008DF8115003F00302012A1DD1BDF814208C
:10049000059DC3F3C203C2F383168DF81030B2007A
:1004A00008230EA9204601F0D2FAC5F3952508AB22
:1004B0000093324602AB0EA9284600F09DFB204671
:1004C00001F0ADFA15B0F0BD022AF8D1BDF8165012
:1004D000C3F3C203C5F389158DF810300827082D22
:1004E0002E4628BF08263B4632460EA9204601F07C
:1004F000AEFAAD1B08AB02AA31460EA8374400F095
:10050000DFFB002DEBD1DAE7014B01221A707047B7
:10051000860000207047000070B50E4D06460FCDD6
:1005200088B06C460FC495E80F00002E84E80F00D9
:10053000094A0A484FF0060308BF002269460093A3
:1005400001F016FB08B100F017FC054B1E7008B057
:1005500070BD00BFB03000000905000000000020A1
:100560008500002007B5044B0093044A4023FFF7A1
:100570006AFF03B05DF804FB8105000087000020DE
:1005800038B50D480D4C0E4D002323700378EB5CFD
:10059000D2B263B1043002F0EDF808B100F0ECFB28
:1005A000084B1B7813B12378002BFCD038BD0C30DE
:1005B00001F07EFEF1E700BF000000208600002071
:1005C000880C00208500002008B50848084A0378F8
:1005D000D35C3BB1043002F043F8BDE80840002092
:1005E000FFF79ABF0C3001F0FBFDF6E7000000209A
:1005F000880C00200120FFF78FBF000010B5FFF727
:1006000020FF0421074800F067FA074B01245C71C2
:10061000FFF7F0FF0548042100F05EFA044B5C711F
:1006200010BD00BF683000001C00002058300000E2
:1006300014000020037813F0040215D003F0030324
:10064000012B03D0022B09D0012070470B680288D0
:100650000233C2F3831213440B60F5E70B68428840
:10066000023303EB9213F7E7104670472DE9F04F82
:10067000414C884685B00546871C0020164600F090
:1006800059FD6268C8F80020A36803F580739B1ABF
:1006900004F21C4804F5836A04F21449BB4217D3E0
:1006A0000021002E63D005F00F05AD0145F00505D2
:1006B00065F30F016368DAB203323B4444F8221059
:1006C0000020636000F038FD012005B0BDE8F08F28
:1006D0000121404600F0CDFE504600F0E2FE4846C3
:1006E00000F0DFFEA0680090C0B2033004EB800091
:1006F0006946FFF79FFF20BB009BDAB204EB820242
:10070000D16801919A1C0133DBB204EB83030092A0
:10071000D3F80CB001F00303012B20D0022B13D02F
:100720008346484600F0C0FE08B1009BA3605946CE
:10073000404600F09EFEA368626803F580739B1A32
:10074000ACE79DF80000D0E7BDF80630C3F389138D
:1007500003334FEA1B4B02EB93030093E1E7BDF831
:100760000430C3F383134FEA1B4B1344F5E7AD0585
:1007700045F006019EE700BFC8000020064B074871
:1007800010B500221A7001F002F9044610B90448AD
:1007900001F067F9204610BDC80000207830000045
:1007A000B036000030B50A4C71B10A4A0A49121B32
:1007B000D20800239A4201D1002030BD31F82350E5
:1007C000854202D00133F5E7034654F83300F4E7DD
:1007D000183000005830000000000020094B01399B
:1007E00003EBC000032909D8DFE801F0020A040680
:1007F00002207047007970474079704700207047A9
:10080000042070471830000070470000034BD3E904
:100810000130C31A58425841704700BFC800002039
:100820002DE9F04385B0FFF7F1FF002878D1744C33
:10083000C4F81804BFF34F8FA0680090C0B2033013
:1008400004EB80006946FFF7F5FE009B18B1D4F871
:100850001824002A60D0DAB29F1C013304EB820214
:10086000DBB204EB8303D268DB68029302F003037C
:10087000022B019200975CD1BDF806306148C3F3AA
:100880008918B8F5487F464628BF4FF4487666F386
:100890008F1306F10801ADF8063001F090F8054617
:1008A000002800F0978001F0B6F801A9284600233F
:1008B000082201F0C2F8F843C0B20130F9B20331A6
:1008C000B6EB800F4FEA800904EB81012ED9A6EB2D
:1008D00009065FFA89F908234A46284601F0ADF86F
:1008E000F6B2494909F10803324608F103082846DF
:1008F00007EB980701F0A1F80097D4F81834D4F862
:100900001064002B55D0284601F089F8FFF77EFFD0
:1009100080F00100C0B204E062689A4204D8A2608C
:10092000002005B0BDE8F083D8B288E7082332463E
:10093000DBE7012B4ED1BDF804303248C3F38311FD
:10094000062928BF062161F38913023101F00F0146
:100950008900ADF8043001F032F80546002839D09E
:1009600001F059F80023082201A9284601F065F892
:100970000026BDF80420C2F38312B300B24203F193
:100980000803BAD900994A1CC9B20331009204EB9A
:1009900081010422284601F050F80136E9E7F368A6
:1009A0005B7923B1336829461B6830469847F36862
:1009B0001E68002EF3D1284601F031F8304600F0D1
:1009C000B9FBD4F818340BB9009BA360002000F0E9
:1009D000B3FB9BE7D4F8104454B90C4B0C480D49B9
:1009E000C01AC008000440F0020000F05DF88DE776
:1009F000236820469B689847E3681C68ECE700BFC3
:100A0000C800002078300000D4000020183000001A
:100A100038300000F13000002DE9F34704460E465F
:100A2000924601A9012218469946FFF71FFE1C4F66
:100A300010B3019D4FF00008AA1CC84508EB020145
:100A400025D11848002100F0F1FC80F310000004CB
:100A500040EA1440E4006B1C04F03804DBB2EDB251
:100A600044F0010407EB8303033544EA881444EAA5
:100A70008624D86047F825403B781BB1FFF7D0FEAD
:100A80000028FBD1FFF7C0FE02B0BDE8F087C9B275
:100A900007EB81015AF82830CB6008F10108CCE758
:100AA000C8000020E404002000231A46FFF7B4BF6A
:100AB00007B50123019201AAFFF7AEFF03B05DF86D
:100AC00004FB07B5CDE9002302236A46FFF7A4FF24
:100AD00003B05DF804FB000030B50F4CD4F81024CF
:100AE00003460020114631B9D96808717AB9C4F8B3
:100AF00010340A600AE0C9680D79854201D009689E
:100B0000F1E701300A28EDD14FF0FF3030BDD26857
:100B100014680C601360F9E7C800002038B5084B72
:100B20000125D3F810441D7004B938BDE3685D7128
:100B3000236820465B689847E3681C68F4E700BFB9
:100B4000C800002010B5037A052B0C460FD0437A5D
:100B500023B1084A0849204600F000FD0749204615
:100B600000F0FCFC2046BDE8104000F0ECBC002A80
:100B7000F8D0F3E7063100000B3100002B31000004
:100B8000C38873B504460D4633B1144A0092144924
:100B9000144A284600F0E2FC217A05291CD0637A29
:100BA0004BB1A088FFF71AFE0F4B104953F82020D5
:100BB000284600F0D3FC227A0D4BA08853F822601F
:100BC0000021FFF7EFFD0B4903463246284602B0ED
:100BD000BDE8704000F0C2BC02B070BD063100003C
:100BE000163100000E310000BC3600000B31000051
:100BF000E03600002E3100002DE9F04385B01F469D
:100C00000C9D002395F80C902B7306460C469046DD
:100C100029463846FFF7B4FFB8F1060F09D8DFE8D8
:100C200008F00412181F283340003146284600F00F
:100C300095FC002229463846FFF784FF85F80C9082
:100C400005B0BDE8F08322683146284600F086FCF6
:100C5000EFE7D4E900233146284600F07FFCE8E7BF
:100C6000A3680093D4E900233146284600F076FCBF
:100C7000DFE7E3680193A3680093D4E900233146DA
:100C8000284600F06BFCD4E723690293E3680193E4
:100C9000A3680093D4E900233146284600F05EFCA7
:100CA000C7E76369039323690293E3680193A36829
:100CB0000093D4E900233146284600F04FFCB8E702
:100CC00008292DE9F84F80460E4617461C463BD8AA
:100CD000002593F80C901D7319461046FFF750FF3E
:100CE000DFF888A0DFF888B0AE422FD918F80520C9
:100CF0005946204600F032FC0135082DF4D119493F
:100D0000DFF870B0204600F029FC4FF0000A56458D
:100D100023D918F80A507E2D1DD8284602F0E5F890
:100D2000002814BF2A462E225946204600F016FC01
:100D30000AF1010ABAF1080FE9D101222146384629
:100D4000FFF700FF84F80C90BDE8F88F514620466D
:100D500000F004FCD0E72E22E6E70349204600F02D
:100D6000FDFBE5E742310000403100003E3100006C
:100D700038310000443100001FB50021039001AA62
:100D800044F20100CDE9011100F004F805B05DF86E
:100D900004FB000038B572B6FFF7C0FEFFF740FD58
:100DA0000028FBD1104B114C114D1249E41AE408F4
:100DB000240444F00100FFF777FED5F8F030DB079C
:100DC00000D500BE0C4944F00200FFF76DFEBFF3F2
:100DD0004F8FEA68094B02F4E0621343EB60BFF304
:100DE0004F8F00BFFDE700BF183000003830000013
:100DF00000ED00E09D310000A93100000400FA057B
:100E000010B5D0E90242D1E90203A04293412CBFC0
:100E10000120002010BD000008B50A4800F0A9FA22
:100E2000094AD2E90031C018084BD3E9002341F147
:100E30000001904271EB030303D210F1807041F185
:100E4000000108BD24000020680C0020600C002078
:100E5000234B70B51E78044616B90026304670BD87
:100E60000028FAD0FFF7D8FFD4E902239042994135
:100E70002FD3002000F05EF923692BB94FF0FF3229
:100E80004FF0FF33C4E90223002000F055F9D4E904
:100E900005309847002000F04DF925696DB1D4E97F
:100EA0000212B2F1FF3F08BFB1F1FF3F0FD0691846
:100EB00042F10002C4E902123546002000F03CF97C
:100EC000002DCAD00748214600F0D4FDC6E7002512
:100ED000F3E7B3F1FF3F08BFB2F1FF3FBDD0F1E749
:100EE000700C0020F436000013B5114B114918683E
:100EF000019008231048582200F04AFA044698B995
:100F00000E4A0F4801A900F025F9044660B90C48C3
:100F1000012100F011FA01230A4A0948194600F09C
:100F200073F9094B01221A70204602B010BD00BFB0
:100F300000370000040C0020F40B0020590F0000C3
:100F400024000020FFFF7F00700C0020014800F00B
:100F500010BA00BF240000202DE9F743064600F038
:100F6000F3F940B1624AD2E9003113F1807341F1E3
:100F70000001C2E900310021304600F0F4F938B137
:100F80005C4C236823B12068FFF762FF00232360D5
:100F90000121304600F0E7F920B1FFF73DFF564B45
:100FA000C3E900015548534C01A900F004FA4FF081
:100FB000FF384FF0FF39A0B9DFF844814D4D40466E
:100FC00000F06EFD002800F08880D0E90223B3F124
:100FD000FF3F08BFB2F1FF3F35D1404600F05AFD58
:100FE000EDE70378012B20D0022B08D1444D284691
:100FF00000F050FD20BB434B01221A700CE05BB99E
:101000004168D1E90223B3F1FF3F08BFB2F1FF3FCE
:1010100002D03B4800F02EFD01A9384800F0F6F957
:1010200001A9364800F0C7F9C5E74168236899422D
:1010300002D100232360EFE7314800F034FDEBE7F5
:10104000C0E90289D3E7296891B12968D1E9020191
:1010500082428B412FD22B68D3E90223B3F1FF3FA9
:1010600008BFB2F1FF3F03D02968404600F002FDFF
:10107000404600F00FFDD0E902490746FFF7CCFEDD
:10108000201A69EB0109012879F1000918DBB0F594
:10109000350F13D3FFF75AFF1B4A02441B484FF486
:1010A0009603002100F0D0F890B92B6813B93046B0
:1010B00000F0A2F82F6003B0BDE8F0832246EDE710
:1010C0001248002100F045F93846FFF7C1FE01E063
:1010D0000D28F9D000232B6071E7064B1B68002B0D
:1010E000E9D1304603B0BDE8F04300F089B800BF55
:1010F000680C0020740C0020600C0020F40B002011
:10110000F4360000700C0020FFFFB4002400002023
:1011100072B6024A1368013313607047780C0020DE
:10112000034A1368013B136003B962B6704700BFFE
:10113000780C0020FFF7ECBFFFF7F2BF03464058E2
:1011400082B028B100225A505B580193019B0120C4
:1011500002B0704770B5204B4579204E43F82520EA
:101160001F4B204A06EBC5059B1ADB0804461804F2
:101170002B7933B140F002001B49FFF795FC0820A2
:1011800070BD23680A88C3F8082594F904308A786A
:10119000002B4FEA4212D2B219DB1449CD1885F860
:1011A000002301225D0903F01F0302FA03F341F853
:1011B0002530637906EBC3020121117140F0030071
:1011C0000B4946F83340FFF76FFC0020D8E7094988
:1011D00003F00F03CA54ECE7840C00207C0C0020C1
:1011E0004830000018300000C031000000E100E08D
:1011F000E231000014ED00E0036801221A6070473C
:10120000036801225A60704773B501F15005AD00C3
:101210000068ADB24FF480348C400026C0F808431B
:10122000C0F84843465101F5A8714559019522F08F
:101230007F42019D40F82120C0F844430BB1C0F823
:10124000044302B070BD00002DE9F74F0D4622F0B7
:101250007F4402684FF4803705F150068F40804686
:10126000B60002EB8500C2F84873B6B2C2F8087344
:10127000D2F8041599464FF0000BD0F84035C0F86D
:10128000401542F806B05B1A9259009223F07F4352
:10129000012B009A4FEA850A0CD1264B4FF480604F
:1012A00043F001039847D8F8003043F806B09B5943
:1012B0000193019BD8F80020D2F80465C2F844736A
:1012C000A31B23F07F43012B1CD11A4B05F5A875F6
:1012D000013443F0010342F825404FF48060984701
:1012E000D8F80030D3F804359E4209D1D8F8003040
:1012F0000020C3F84473C3F8047303B0BDE8F08F53
:101300000D20FAE79244C9F1FF13CAF84045D2F81C
:101310000405211A013921F07F4103F57F438B42F7
:10132000EED30029E2D10134CAF84045D2F80435A1
:101330009842DAE71037000003680222C3F844231A
:1013400009B1C3F80423704700684FF48271FFF7B6
:10135000F5BE4FF4803303FA01F10368C3F8481374
:10136000C3F80813704750318900006889B2FFF74D
:10137000E5BE0368D3F8040570470000024B034A3A
:101380001B681068184700BF840C00207C0C0020EC
:1013900010B561B1B2FBF3F403FB1424A4B244B959
:1013A000C0E9001484608281C381204610BD0E20F4
:1013B000FCE70920FAE737B550E8023F1FFAA3F52A
:1013C000C488A54202BFBFF32F8F00220DE0C4895D
:1013D00025448489A54228BF2D1BC3EA054540E862
:1013E0000254002CE8D14FF001028DF80320019344
:1013F000019A0A609DF8031001F0FF0321B1006813
:1014000000EB124003B030BD1846FBE70A884B885A
:101410009A4209D150E8022FC2EA224240E8022350
:10142000002BF7D1012070470020704710B503460C
:1014300053E8000F0A4643E8002494F0000FF7D168
:1014400010BD10B5034653E8002F42EA010043E8FF
:10145000000494F0000FF6D110BD10B5034653E818
:10146000000F00EA010243E8002494F0000FF6D1D7
:1014700010BD10B5034653E8002F02EB010043E80E
:10148000000494F0000FF6D110BD10B5034653E8E8
:10149000002FA2EB010043E8000494F0000FF6D106
:1014A00010BD0121FFF7CDBF0021FFF7D6BF10B55A
:1014B00090B1D0E9012301689B1ADBB20A60013BBD
:1014C000DBB2FF2B026802D10020107110BD116841
:1014D0004C1C14600B70F2E70E20F7E738B5044699
:1014E0000020FFF727FE2268616813688B4213D93A
:1014F000591E116013F8013C208AE56800FB035572
:10150000A3685B1A1179DBB2994200D213710020F3
:10151000FFF712FE284638BD0025F8E738B5054626
:1015200000200C46FFF706FE2A681368591C11605C
:10153000EA68A41A2A8AB4FBF2F41C70BDE83840A9
:101540000020FFF7F9BD826810B504462AB143694F
:101550000168006998470023A36010BD0EB403B56D
:10156000039921B104AB01AA019300F06FF802B016
:101570005DF804EB03B07047826830B40468551C12
:101580008560A154D0E901329A4202D330BCFFF702
:10159000DABF30BC704700002DE9F84F9946DDE90D
:1015A0000A431546824688460A460127AA420FD2B8
:1015B0004F4538BF4F4613F0010B01D164B90024E9
:1015C0000126B9F1010F1CD909F1FF396E43F8E783
:1015D0000137B2FBF5F2E9E79B0710D5B9F1000F2F
:1015E0000CBF30262026BC42EAD9013C3146504689
:1015F000FFF7C2FF002CE2D0BC42F6D1E0E7202684
:10160000F1E7B8FBF6F39D42E0D9DFF83C90B8FB78
:10161000F6F3504619F8031006FB1388FFF7ACFFEA
:101620003346AB42B6FBF5F6F1D2BBF1000F00D06A
:1016300034B9BDE8F88F20215046013CFFF79CFFEC
:10164000BC42F8D8F5E700BF163700002DE9F74F88
:10165000064690460F46002900F0528117F8011BFC
:1016600049B9337B002B00F04B81304603B0BDE815
:10167000F04FFFF768BF252940F0BC8000253A46AF
:1016800012F8013B2D2B25D0302B27D02B2B28D027
:1016900000242A2B07F1010226D1D8F80030191DA9
:1016A0001B68C8F800101C4417463B782E2B27D126
:1016B00001374FF0000A0A20394611F8012BA2F138
:1016C000300CBCF1090F1DD800FB0A22A2F1300A30
:1016D0000F46F1E745F001051746D0E745F0020552
:1016E000FAE745F00405F7E712F8013CA3F13001F1
:1016F0000929DAD80A2101FB0434303C1746C8E72F
:101700004FF0000A3A4612F8011B01F0FB0068286E
:101710001746F8D0782909D86F290BD8632963D0E8
:1017200020D8252966D0582900F094803B78002BDA
:1017300094D196E770390829F8D801A252F821F01F
:10174000D71800002D1700002D17000069180000A1
:101750002D1700003F1800002D1700002D17000066
:1017600055180000642901D06929DFD1D8F800207C
:10177000D2F800B0111D8BEAEB72C8F80010A2EB92
:10178000EB724FF001090A21092A37DCD14538BF35
:10179000D1462CB1BBF1000F01DB6A0700D5013C3B
:1017A000AB0702D5BAF1000F03D0E80701D454BB50
:1017B0000024BBF1000F32DACBF1000B2D213046B3
:1017C000FFF7DAFE05F00302022A04D1BAF1000F96
:1017D00001D144BB0024CDE9004553460A225946B5
:1017E0003046FFF7D9FEA1E7D8F800301A1D197866
:1017F000C8F800203046FFF7BFFE97E709F101095E
:10180000B2FBF1F2C0E7A145D3D2013C2021304622
:10181000FFF7B2FE002CCBD0A145F6D1C9E769078E
:10182000D0D52B21CBE7A145D5D2013C3021304684
:10183000FFF7A2FE002CCDD0A145F6D1CBE7D8F81A
:1018400000100A1DC8F80020CDE9004553460A22C1
:101850000968C5E7D8F800100A1DC8F800205346EB
:10186000CDE900451022F3E7D8F800301A1DC8F87A
:10187000002015F00105D3F8009024D1B9F1000F34
:1018800003D0484601F06CFB0546AC421DD809F177
:10189000FF3919F8011F00293FF448AF3046FFF720
:1018A0006BFEF6E730460135FFF766FE19F80510C6
:1018B0000029F7D1A542BFF439AF20213046013CC1
:1018C000FFF75AFEF6E70025F0E720213046013CFD
:1018D000FFF752FED9E7D8F800301A1DC8F80020EB
:1018E000302130461C68FFF747FE78213046FFF76D
:1018F00043FE00220823CDE90032214610226FE783
:1019000003B0BDE8F08F00BF2DE9F84FB0F806A096
:101910004579D2F800B09DF828900AFB05F5043D02
:1019200088460BEB0301A94203F1040488BFA5EB31
:10193000030BB4FBFAF607460AFB1644C2F800B0E4
:101940004EB9AAEB04055D4528BF5D46BBF1000F0B
:1019500004D1BDE8F88F3F68013EF1E7043408EB9D
:1019600006003C442A46B9F1000F0DD02146ABEBEE
:10197000050B01F023FBDA452E443F6855464FF036
:10198000000428BF5D46E1E701462046EFE7FFF788
:101990008EBDF8B546790146721E05460023934276
:1019A0002D6803D30024A64202D8F8BD0133F6E720
:1019B0000F682846FFF7B2FD01343946F3E72DE9F9
:1019C000F041078ACD1C0646FFF788FD043F3D44E1
:1019D0000446B5FBF7F5D0B14FF48073EDB2C78084
:1019E0008380013D066080460027AF4210D230461A
:1019F000FFF774FD40B16379013363710137C8F8B3
:101A0000000006608046F0E72046FFF7C2FF002492
:101A10002046BDE8F08101210430FFF72ABD10B552
:101A2000012104460430FFF730FDC0B220B9204642
:101A3000BDE81040FFF7ADBF10BD1FB503920022F7
:101A4000009203AAFFF760FF05B05DF804FB1FB525
:101A500003920122009203AAFFF756FF05B05DF83A
:101A600004FB836800225A60C3E904229A60DA60AA
:101A70001A60704770B5446806460D46206818B174
:101A8000B3682946984718B923682B60256070BD54
:101A90002468F3E74368186808B102681A60704761
:101AA0004368186870474368186800B970478842EF
:101AB00003D102681A600120704703460068F4E70A
:101AC00010B50B4AA2F58C739A4201D800200CE0A5
:101AD000D11A091103EBC10453F83110814205D822
:101AE00002D204F10803EFE7606810BD2246EBE77D
:101AF0004038000008B5FFF7E3FF024B002808BF9D
:101B0000184608BD403800001FB503788DF8003036
:101B10004368019383688DF80830C368054A0393CE
:101B2000054B684653F8213052F82110984705B00C
:101B30005DF804FB8C0C0020940C00201FB503788A
:101B40008DF800304368019383688DF80830C368CE
:101B5000054A0393054B684653F8213052F821108B
:101B6000984705B05DF804FB8C0C0020940C002015
:101B7000F0B5194B90F800C0DFF86CE043F82C206A
:101B8000164B16460A6943F82C200C464B7F0EF87C
:101B90000C3007460FCC89B06D460FC594E80F0096
:101BA00085E80F003B78CDF810C01EF803304BB12C
:101BB000002E0B4A694608BF3246381D00F078FCFB
:101BC00009B0F0BD002E074A694608BF324607F14A
:101BD0000C0000F037FAF3E7940C00208C0C002086
:101BE000091B00003D1B0000880C002000F1804014
:101BF00000F5C040002382B0036003680193019B9D
:101C000002B0704703681F2B83BF03F01F030360FC
:101C100001484FF0A04070470003005007B5019005
:101C200001A8FFF7EFFF019B00EB8300D0F800371E
:101C300023F44033C0F80037D0F8003743EA0141BD
:101C4000C0F8001703B05DF804FB00002DE9FF4762
:101C50000024CDE90244584D4FF48072012102F175
:101C6000804303F5C0431B68012B07D1D5F804332B
:101C70000B4203D090B2FFF7B9FF0C430432B2F528
:101C8000907F4FEA4101EAD14B4BD3F87C31012BD5
:101C900011D14FF4BE70FFF7A9FF4FF0A04344F0FD
:101CA0000044D3F820250292C3F82025D3F8202839
:101CB0000392C3F82028E3B2D3B1404F0025012698
:101CC000344210D0AB0003F1804303F5C043D3F896
:101CD0001005D3F8101557F8253023B1C1F3014191
:101CE000C0F3052098470135082D4FEA4606E7D195
:101CF000002C59DA314D324C324E4FF0000801279A
:101D000016F9013F5A1C3CD0C3F3C201103169449B
:101D10005FFA83F911F8081C03F03F0203F0070390
:101D200007FA03F319422CD001A80192FFF76AFFCA
:101D3000019B03F5E07350F82330C3F3014ABAF175
:101D4000020F14BF022103211046FFF767FF01A80D
:101D50000192FFF757FF019B07FA03F3C0F8203504
:101D6000AB1893F9303055F8233053B14FEA99113D
:101D7000032904D0BAF1020F19D1012901D110466B
:101D8000984708F10108B8F1040FB9D14FF0A0420B
:101D9000D2F820350293C2F82035D4F820250392DA
:101DA0001343C4F82025A7D104B0BDE8F087BAF1E9
:101DB000030FE6D10229E1E7006000409C0C0020FF
:101DC00000030050FB0C0020014B1B68184700BFAC
:101DD000080D0020F8B5184B184C194E98420D46C6
:101DE0001BD10020FFF7A6F9164B1F7917B9012266
:101DF0001D601A710020FFF79FF977B11120FFF7DE
:101E000079FEA41BE408240403460F4A0F4944F05A
:101E10000200FEF756FE1120F8BD0020FFF76AFE13
:101E2000A41BE40824040346074A084944F00300BD
:101E3000FEF747FE0020EFE70020004020300000C2
:101E400018300000080D00205338000095350000C0
:101E5000034B984201BF034B00221A601A7170476E
:101E600000200040080D00200023435082B043585A
:101E70000193019B02B070470A4610B54FF48E7172
:101E8000FFF7F2FF136A9168C95C136A01331362AA
:101E9000C0F81C1510BD8B690A4610B54FF484714B
:101EA00023B9FFF7E1FFD0F8183510BDFFF7DCFFCD
:101EB000536AD168D0F81805C854536A0133536285
:101EC000F3E700001FB501238DF80030044BCDE986
:101ED0000110D3E900126846904705B05DF804FB95
:101EE000100D002030B54D4DD5F804339A0585B05E
:101EF00051D5D5F82431002B4DD04FF4927128469E
:101F0000FFF7B2FF4FF40173C5F80833444B93F861
:101F100029200AB901226A60404902228DF8002076
:101F2000D1F88024C1F8802403929A690292DA6879
:101F300001920022C3E906226846D3E900129047C5
:101F40003648D0F81C315BB1354A5169136A994261
:101F50004DD992F82830002B49D11146FFF78CFF5C
:101F60002E48D0F84431002B56D04FF4A271FFF721
:101F70007BFF2B4B93F829200AB1012202609A695A
:101F8000002A49D0586AD96800229A6105B0BDE894
:101F90003040FFF797BFD5F804335B07D0D5D5F8AD
:101FA0000831002BCCD01E4C1C482146FFF773FF94
:101FB000636AA2699A42C3D1E369E1684BB1A36144
:101FC0002369E3600023606AE3616362FFF77AFFDD
:101FD000B6E794F829300BB901236B600F4B4FF42F
:101FE0000172C3F808230023606AA361EEE70B487F
:101FF0004FF48E71FFF738FF5369002BB0D0516951
:102000000291002391688DF8003001915361684678
:10201000D2E900139847A3E705B030BD0020004087
:10202000100D00201F2886BF00F01F00044B4FF04A
:10203000A04300F5E070022243F82020704700BF63
:10204000000300502DE9F8435F4D90F804802C23E5
:1020500003FB0853064693F82A300C469146002BA2
:1020600040F0AD8059490068FFF7B4FE07460028EC
:1020700040F0A78021684A1C10D01F2987BF544A0E
:1020800001F01F030B464FF0A0420120984003F5DA
:10209000E073C2F80805032042F823006068431C7F
:1020A0000DD01F288BBF00F01F030346484A4FF096
:1020B000A04203F5E0734FF0000C42F823C03368F0
:1020C000A269C3F8242594F814C0627DBCF1010F05
:1020D0004CEA0202C3F86C25C3F81405C3F80C15CA
:1020E0002BD1A168481C0DD01F298BBF01F01F0206
:1020F0000A4637484FF0A04002F5E0724FF0000C5E
:1021000040F822C0E068421C13D01F2887BF304A25
:1021100000F01F0C84464FF0A0424FF0010E0EFA63
:102120000CFE0CF5E07CC2F808E54FF0030E42F817
:102130002CE0C3F80805C3F810152C2303FB08F3A3
:10214000EA18C2F804902269EA50B9F1000F1ED0D3
:102150003068227F4FF48E71FFF786FE4FF4A27134
:10216000FFF782FE1B4BC0F8043340F307335201E4
:10217000002BD2B21EDB1849C81880F800230122B8
:10218000580903F01F0302FA03F341F820303368C3
:102190000422C3F800252C2303FB08530022C3E9C3
:1021A000062283F829205A61012283F82A20384622
:1021B000BDE8F883094903F00F03CA54E7E708278D
:1021C000F5E71127F3E700BF100D0020E51E000022
:1021D000000300508000020000E100E014ED00E088
:1021E0002DE9F04103680579284C0022C3F8002549
:1021F0002C2202FB05425268A2B1254AC3F80823EB
:1022000043F30733002B0DDB5A09012103F01F03B1
:10221000994002F120031F4A42F82310BFF34F8F69
:10222000BFF36F8F0168D1F80C05D1F81485D1F890
:102230000865D1F810754FF0FF339842C1F8143596
:10224000C1F80C35C1F80835C1F8103501D0FFF7D9
:10225000E9FEB8F1FF3F02D04046FFF7E3FE7A1CEB
:1022600002D03846FFF7DEFE731C02D03046FFF77F
:10227000D9FE0846FFF7ECFD2C2303FB05440023A1
:1022800084F82A306360BDE8F08100BF100D0020A3
:102290008402020000E100E00279044B2C2101FBE2
:1022A00002335869003818BF01207047100D002014
:1022B0002DE9F84F074690F8048089469346FFF7CA
:1022C000EBFF0446002839D11E4E2C2508FB056A79
:1022D0004FF48E71CAF814B0CAF820008AF82800AA
:1022E0003868CAF80890FFF7BFFD012383605146A4
:1022F000FFF7C2FDDAF8043055460BBBDAF814409C
:102300002B6A9C4210D8D0F81C31002BFBD0012343
:10231000C36000202C2303FB086600237361BDE823
:10232000F88F95F828303BB9D0F81C31002BF8D045
:102330005146FFF7A1FDE3E70F20EBE71120EEE7A1
:102340002046ECE7100D00200023435082B0435894
:102350000193019B02B070471FB501238DF8003037
:10236000044BCDE90110D3E900126846904705B04F
:102370005DF804FB3C0D00207FB5434AD2F8246190
:10238000002E60D010464FF49271FFF7DDFF02235C
:102390008DF80030D2F88034C2F880340393D2F83C
:1023A0003C350293394BDA6801920022C3E90622D8
:1023B0006846D3E9001290473348D0F8443173B1EE
:1023C0004FF4A271FFF7C0FF304B9A693AB1002277
:1023D000D0F83C05D968C3E90622FFF7BDFF2A48BB
:1023E000D0F82031ABB14FF49071FFF7ADFF01236E
:1023F000C360264B5A6962B1D0F84C150291002295
:1024000099688DF8002001915A616846D3E900125D
:1024100090471D48D0F858319BB14FF4AC71FFF78D
:1024200093FF1A4B5A6962B1D0F84C150291002201
:1024300099688DF8002001915A616846D3E900122D
:10244000904704B070BDD2F81031002BB4D04FF4D7
:1024500088711046FFF778FF0C4BD2F83C0599695C
:102460008842A9D1DC69D96864B1D2F8005225F05C
:102470002005C2F800521A699C61DA60DE61FFF73C
:102480006BFF99E79C61FAE7002000403C0D0020BB
:102490001F2886BF00F01F00044B4FF0A04300F53B
:1024A000E070022243F82020704700BF0003005074
:1024B0002DE9F843644D90F80480242303FB08536E
:1024C000064693F820300C469146002B40F0B7802A
:1024D0005E490068FFF77EFC0746002840F0B180A7
:1024E0002068421C10D01F2887BF594A00F01F03E4
:1024F00003464FF0A0420121994003F5E073C2F872
:102500000815032142F8231061684B1C0DD01F29C8
:102510008BBF01F01F030B464D4A4FF0A04203F55D
:10252000E0734FF0000C42F823C03368A269C3F88F
:10253000242594F814C0627DBCF1010F4CEA02021C
:10254000C3F86C25C3F80C05C3F814152BD1A1688A
:10255000481C0DD01F298BBF01F01F020A463C48C2
:102560004FF0A04002F5E0724FF0000C40F822C09E
:10257000E068421C13D01F2887BF354A00F01F0CAB
:1025800084464FF0A0424FF0010E0EFA0CFE0CF5FF
:10259000E07CC2F808E54FF0030E42F82CE0C3F8E7
:1025A0000805C3F81015242303FB08F3EA18C2F842
:1025B00004902269EA50B9F1000F2AD03068227FD6
:1025C0004FF48871FFF7C0FE4FF49071FFF7BCFE27
:1025D0004FF49271FFF7B8FE4FF4A271FFF7B4FE0B
:1025E0004FF4AC71FFF7B0FE1A4BC0F8043340F360
:1025F00007335201002BD2B21CDB1749C81880F8F0
:1026000000230122580903F01F0302FA03F341F8E3
:10261000203033680822C3F80025242303FB085523
:102620000023C5E906336B61012385F82030384665
:10263000BDE8F883094903F00F03CA54E9E7082706
:10264000F5E71127F3E700BF3C0D002079230000D8
:10265000000300501003420000E100E014ED00E030
:102660002DE9F0413A4D06790468242303FB065313
:1026700002465B68A3B1374BC4F8083344F3073311
:10268000002B0DDB5909012003F01F03984001F1D5
:102690002003314941F82300BFF34F8FBFF36F8F01
:1026A000D4F8003223F02003C4F80032242303FBC3
:1026B00006539F6937B14FF4A2712046FFF744FEDD
:1026C000012363604FF4AC712046FFF73DFE012308
:1026D000E360D4F85831002BFBD01FB1D4F844315B
:1026E000002BF6D00023C4F800351368D3F80C058E
:1026F000D3F81485D3F80815D3F810754FF0FF32CE
:102700009042C3F80C25C3F81425C3F80825C3F874
:10271000102501D0FFF7BCFEB8F1FF3F02D04046C4
:10272000FFF7B6FE7A1C02D03846FFF7B1FE4B1C0D
:1027300002D00846FFF7ACFE2046FFF789FB2423B2
:1027400003FB0655002385F820306B60BDE8F0815F
:102750003C0D00201003420000E100E00279044B30
:10276000242101FB02335869003818BF012070474B
:102770003C0D002001F06043B3F1005F2DE9F0470C
:1027800081460E46924636D190F80480FFF7E6FF68
:10279000044690BB1B4FD9F80020242505FB087583
:1027A0004FF490711046C5F814A0AE60FFF7CCFD51
:1027B0004FF4AC71FFF7C8FD6B69C2F84465C2F80D
:1027C0004835012393606B68CBB9D2F82031D2F839
:1027D00058010343F9D060B90123D360D2F85831CE
:1027E000002BFBD0242303FB087700237B61BDE88B
:1027F000F0870F20F6E71020F9E71120F7E72046D1
:10280000F5E700BF3C0D002010B5C1B20020034623
:1028100021FA03F2C3F1070402F001020133A240DE
:10282000082B40EA0200F3D110BD70B50546000E3A
:10283000FFF7EAFF0646280CFFF7E6FF0404280A24
:10284000FFF7E2FF44EA066406462846FFF7DCFF8E
:10285000204340EA062070BDF8B5304C072300261F
:10286000C4F80C65C320C4F80835C4F81065FFF738
:10287000CBFF0746C220FFF7C7FF0504C120FFF7C3
:10288000C3FF45EA07650746C020FFF7BDFF0543C4
:1028900045EA0725C4F82455C720FFF7B5FF0746CA
:1028A000C620FFF7B1FF0504C420FFF7ADFF45EADE
:1028B00007650543C4F828551948FFF7B6FFC4F863
:1028C0001C051848FFF7B1FF0123C4F82005C4F820
:1028D0002C65C4F83035144BC4F81465C4F81835A9
:1028E0000223C4F83435D4F8343503F00303022B43
:1028F00007D14FF6FF73C4F83C350C4BC4F838359C
:10290000F8BDD4F8343503F00303012BF8D1FF23CD
:10291000C4F83C3540F20713F0E700BF0010004058
:1029200067452301EFCDAB89202004012110010070
:10293000144B002210B5C3F8002101221A60D3F80D
:102940000021002AFBD00022C3F80C210D4C0122EB
:102950009A60D4F80C31002BFBD00B4B0B480C4980
:10296000C01AC008000440F00300FEF79DF80023E1
:10297000C4F81031034A01232361D2F81031002B2F
:10298000FBD010BD001000401830000038300000AF
:10299000C235000008B51A4B0022C3F800210122FD
:1029A0005A60D3F80021002AFBD001210022C3F88D
:1029B0000C2199601249D1F80C31FBB11148124B2E
:1029C0001249C01AC008000440F00300FEF770F876
:1029D000FDF726FF02460028FAD1094B0C48D3F830
:1029E0000014C3F8102101294FF0010218BF002084
:1029F0001A61D3F81021002AFBD008BD0132DAE7B2
:102A0000001000403830000018300000D6350000BB
:102A1000600D00204FF080430022C3F80021012206
:102A20001A60D3F80021002AFBD001220021C3F84C
:102A30001825C3F804119A604FF08042D2F804318F
:102A4000002BFBD0704700002DE9F843FFF7E2FFB1
:102A5000FEF74AFA08B1FEF78FF94FF480410020E3
:102A6000FDF78CFE054608B1FEF786F9FDF7C6FDB9
:102A7000234CFFF7F1FE234B2349E41AE408240416
:102A800044F003042046FEF70FF820492046FEF7E5
:102A90000BF815B12846FEF76FF9FDF7C1FE0028C7
:102AA000FBD11B4D66232A4602F8013B0133DBB202
:102AB000862BF9D1174FDFF86C80DFF86C90C7F8E0
:102AC0000455FFF735FF49462046C7F80485FDF752
:102AD000EBFFFFF75FFF104906462046FDF7E4FFD6
:102AE0006A780E492046FDF7E3FF72780C492046CC
:102AF000FDF7DEFFFDF794FE0028FBD120BFDEE7E7
:102B00003830000018300000F035000013360000A7
:102B1000800D002000100040363600004A360000CC
:102B200071360000600D0020243600000369C26881
:102B300093429CBF81685B18013B981A70472DE94E
:102B4000F041D0E902840546A8EB040640689642AD
:102B500020440F46144404D900F030FAEC60BDE87C
:102B6000F0813246A4EB080400F028FA6868224697
:102B7000B919F1E72DE9F843C568064689461746B5
:102B80004FF000083369B46870689D4228BF1B1974
:102B9000641BBC4203F1FF3328BF3C465B1B9C42D5
:102BA00028BF1C4649462844224600F007FAB3686D
:102BB0002544AB4208BF00253F1BA044A144F5605B
:102BC000E0D14046BDE8F88310B5114C114AA2612E
:102BD0000223C4E90433104BE361A2644FF4007391
:102BE0000E4A0F492362E26400231022E01DA36213
:102BF0006362E362A3656365E365226500F0C6F97D
:102C00000849204600F0C2F92023A37110BD00BF7F
:102C1000B00F00209C360000B00D0020A00D002059
:102C2000A5360000A9360000F8B5144B182700FBA4
:102C300007751D4407FB00330E46DB6A012B144663
:102C40000AD0022B14D023B92846FFF76FFF844225
:102C500008D900242046F8BD2846FFF767FF8442C4
:102C600028BF0446224631462846FFF768FFF1E7B1
:102C70002846BDE8F840FFF77DBF00BFB00F002039
:102C8000FFF7A2BF4FF08053D3F83021082A03BFCB
:102C9000D3F83401B0FA80F04009002070470000FA
:102CA000024AD2F80034002BFBD0704700E001400C
:102CB0004FF0805310B5D3F83021082A4ED14FF091
:102CC00080420021C2F80C11C2F81011C2F8381568
:102CD00002F54042D3F80414C2F82015D3F80814C2
:102CE000C2F82415D3F80C14C2F82815D3F8101420
:102CF000C2F82C15D3F81414C2F83015D3F81814F0
:102D0000C2F83415D3F81C14C2F84015D3F82014B7
:102D1000C2F84415D3F82414C2F84815D3F828147F
:102D2000C2F84C15D3F82C14C2F85015D3F830144F
:102D3000C2F85415D3F83414C2F86015D3F8381417
:102D4000C2F86415D3F83C14C2F86815D3F84014DF
:102D5000C2F86C15D3F84434C2F87035FFF792FF0F
:102D600018B1404B404AC3F88C26FFF78BFF18B1CF
:102D70003E4BFB22C3F81825FFF784FF58B14FF0F4
:102D800080424FF08051D2F8E43ED1F8581261F3FE
:102D90000303C2F8E43EFFF775FF20B1344B4FF454
:102DA0000072C3F840264FF08053D3F83031082B1F
:102DB00009D14FF08043D3F80024D20744BF6FF00D
:102DC0000102C3F800242B4AD2F8883043F4700380
:102DD000C2F88830BFF34F8FBFF36F8F4FF080532F
:102DE000D3F83021082A0BD1D3F83431032B81BF1B
:102DF0004FF01023D3F808224FF08043C3F8582532
:102E00004FF01023D3F80022002A03DBD3F804325A
:102E1000002B22DA184901234FF01020C1F80435A5
:102E20001224FFF73DFFC0F80042FFF739FFC0F85A
:102E30000442FFF735FF0023C1F80435FFF730FFE8
:102E4000BFF34F8F0B490D4BCA6802F4E062134386
:102E5000CB60BFF34F8F00BFFDE7094B094A1A60F3
:102E600010BD00BF005000404881030000F000404A
:102E70000090024000ED00E000E001400400FA058F
:102E80002C0000200090D00384460020002918BFA9
:102E9000002A00D17047097848B2002844BF6FF07B
:102EA00001007047BCF1000F18BFCCF800100021E2
:102EB000C3E90011002818BF012070477F298EBF89
:102EC0006FF0010001700120704741F22802C2F248
:102ED00000021368002B02BF40F23003C2F200036D
:102EE00013605A689268126810470921FFF7EDBF16
:102EF0007F2884BF0020704743F67822C0F200028A
:102F0000515C43F6F812C0F20002105C08407047B2
:102F1000A0F161011A2938BF20387047A0F14101A2
:102F20001A2938BF203070477F2884BF002070479F
:102F300043F67822C0F20002515C43F6F812C0F268
:102F40000002105C08407047A0F161011A2938BFE7
:102F500020387047A0F141011A2938BF203070474E
:102F60000178002904BF0020704700214FF0013292
:102F70004358C2FA53F30431002BF9D093FAA3F06B
:102F8000B0FA80F001EBD000043870470246F0B48C
:102F90004FF00137FB0151F8044BE51BA5431D40E1
:102FA00002D142F8044BF6E70439F0BC11F8013BBA
:102FB00002F8013B002BF9D1704700BF5AB3844699
:102FC00090EA01039B071FD1830707D011F8013B4B
:102FD00000F8013B013AF7D11CE08446203A09D3BE
:102FE0002DE9F007B1E8F807A0E8F807203AF9D290
:102FF000BDE8F0071C3205D451F8043B40F8043B0F
:10300000043AF9D2043205D011F8013B00F8013B33
:08301000013AF9D16046704756
:103018008E35000000000000B335000000000303F7
:10302800B735000000000000BC35000000000000BB
:10303800023100000000030392310000000000008C
:10304800B631000000000000F4310000000000006C
:10305800A430000000000000D03000001400002060
:103068009830000000000000E13000001C00002043
:1030780080050020E80B0020F00B002088050020C8
:04308800CC00000078
:10308C00000000000338FDD870470000D503000095
:10309C0041040000D103000065050000C9050000D3
:1030AC0015050000FFFFFFFFFFFFFFFFFFFFFFFF06
:1030BC00FFFFFFFF00000000000000000000D60131
:1030CC0006010000756172745F6C6F675F6261630B
:1030DC006B656E64007274745F6C6F675F626163C2
:1030EC006B656E64004261636B656E647320666C25
:1030FC00757368656400617070001B5B306D002532
:10310C0073001B5B313B33316D0025734C6F677360
:10311C002064726F70706564202825642925730DF6
:10312C000A003C25733E2025733A200020253032BE
:10313C007800202020007C002563001B5B313B3392
:10314C00306D001B5B313B33326D001B5B313B330D
:10315C00336D001B5B313B33346D001B5B313B33F8
:10316C00356D001B5B313B33366D001B5B313B33E4
:10317C00376D007761726E696E6700696E666F00FD
:10318C006465627567006170705F627574746F6EF0
:10319C0000466174616C206572726F7200537973B2
:1031AC0074656D207265736574006170705F74690D
:1031BC006D65720052544320696E7374616E636561
:1031CC0020616C726561647920696E697469616CE7
:1031DC00697A65642E005254433A20696E697469A9
:1031EC00616C697A65642E00736F72746C697374A8
:1031FC00004E52465F53554343455353004E52467F
:10320C005F4552524F525F5356435F48414E444CB8
:10321C0045525F4D495353494E47004E52465F4508
:10322C0052524F525F534F46544445564943455FA3
:10323C004E4F545F454E41424C4544004E52465F02
:10324C004552524F525F494E5445524E414C004EDE
:10325C0052465F4552524F525F4E4F5F4D454D00A7
:10326C004E52465F4552524F525F4E4F545F464F3F
:10327C00554E44004E52465F4552524F525F4E4F90
:10328C00545F535550504F52544544004E52465F74
:10329C004552524F525F494E56414C49445F504142
:1032AC0052414D004E52465F4552524F525F494E6D
:1032BC0056414C49445F5354415445004E52465F6D
:1032CC004552524F525F494E56414C49445F4C4512
:1032DC004E475448004E52465F4552524F525F493A
:1032EC004E56414C49445F464C414753004E524662
:1032FC005F4552524F525F494E56414C49445F44D0
:10330C00415441004E52465F4552524F525F444128
:10331C0054415F53495A45004E52465F4552524FF5
:10332C00525F54494D454F5554004E52465F4552DD
:10333C00524F525F4E554C4C004E52465F455252C6
:10334C004F525F464F5242494444454E004E5246FE
:10335C005F4552524F525F494E56414C49445F4172
:10336C00444452004E52465F4552524F525F4255B2
:10337C005359004E52465F4552524F525F4D4F4487
:10338C00554C455F4E4F545F494E495449414C4949
:10339C005A4544004E52465F4552524F525F4D556E
:1033AC005445585F494E49545F4641494C45440089
:1033BC004E52465F4552524F525F4D555445585FE1
:1033CC004C4F434B5F4641494C4544004E52465F7F
:1033DC004552524F525F4D555445585F554E4C4FC8
:1033EC00434B5F4641494C4544004E52465F455263
:1033FC00524F525F4D555445585F434F4E445F49B1
:10340C004E49545F4641494C4544004E52465F4537
:10341C0052524F525F4D4F44554C455F414C5245B3
:10342C004144595F494E495449414C495A4544001D
:10343C004E52465F4552524F525F53544F52414782
:10344C00455F46554C4C004E52465F4552524F52CA
:10345C005F4150495F4E4F545F494D504C454D456F
:10346C004E544544004E52465F4552524F525F46B1
:10347C004541545552455F4E4F545F454E41424C69
:10348C004544004E52465F4552524F525F494F5F82
:10349C0050454E44494E47004E52465F4552524F9E
:1034AC00525F4452565F5457495F4552525F4F56D4
:1034BC00455252554E004E52465F4552524F525F46
:1034CC004452565F5457495F4552525F414E4143F7
:1034DC004B004E52465F4552524F525F4452565F1C
:1034EC005457495F4552525F444E41434B004E5234
:1034FC00465F4552524F525F424C455F49505350C4
:10350C005F52585F504B545F5452554E4341544593
:10351C0044004E52465F4552524F525F424C455FFB
:10352C00495053505F4348414E4E454C5F414C52BD
:10353C00454144595F455849535453004E52465FD8
:10354C004552524F525F424C455F495053505F4C6D
:10355C00494E4B5F444953434F4E4E4543544544AB
:10356C00004E52465F4552524F525F424C455F49A6
:10357C005053505F504545525F52454A4543544560
:10358C0044004750494F54450046756E6374696F4B
:10359C006E3A2025732C206572726F7220636F64F3
:1035AC00653A2025732E0050525300554152540059
:1035BC00554152544500546865207061636B6574C5
:1035CC00207761732073656E740057616974696E3E
:1035DC006720666F7220726563656976696E673AFB
:1035EC0025640A00526164696F207472616E736D98
:1035FC006974746572206578616D706C6520737484
:10360C0061727465642E00507265737320416E791B
:10361C0020427574746F6E005061636B6574206921
:10362C00732073656E64696E67005061636B6574BB
:10363C0020776173207265636569766564005468F0
:10364C006520636F6E74656E7473206F662074688A
:10365C00652073656E74207061636B6167652069AA
:10366C00732025750054686520636F6E74656E74E5
:10367C0073206F6620746865207265636569766572
:10368C0064207061636B6167652069732025750028
:10369C005465726D696E616C005254540053454709
:1036AC0047455200000500207F000000E804002080
:1036BC0006310000473100000E3100004F31000090
:1036CC00573100005F310000673100006F3100009E
:1036DC007731000000000000A33100007F310000B2
:1036EC00873100008C31000000000000F00B00203E
:1036FC00010E0000010006000000000000000000A8
:10370C00000000000338FDD87047303132333435B7
:10371C00363738394142434445460000000000002A
:10372C00FD31000001000000093200000200000021
:10373C0027320000030000004832000004000000A3
:10374C005B320000050000006C3200000600000037
:10375C0080320000070000009832000008000000D2
:10376C00B032000009000000C83200000A0000005E
:10377C00E13200000B000000F93200000C000000E8
:10378C00103300000D000000243300000E00000078
:10379C00363300000F00000045330000100000001D
:1037AC00593300001100000070330000800000004D
:1037BC007F33000081000000A03300008200000075
:1037CC00BC33000083000000D833000084000000EC
:1037DC00F63300008500000017340000860000005E
:1037EC003C340000900000005334000091000000B5
:1037FC0071340000920000008F3400000082000041
:10380C00A434000001820000C234000002820000D7
:10381C00DE34000000840000FA3400000184000053
:10382C001E350000028400004835000003840000AF
:10383C006D350000556E6B6E6F776E206572726F12
:10384C007220636F6465006E7266785F7072735F6E
:10385C00616371756972650070380000A0390000F1
:10386C007438000043000000F12E0000112F0000FE
:10387C001D2F0000292F0000492F0000552F00009C
:10388C00BD2E0000892E000053756E004D6F6E002A
:10389C00547565005765640054687500467269007C
:1038AC0053617400004A616E00466562004D61729E
:1038BC0000417072004D6179004A756E004A756C5A
:1038CC000041756700536570004F6374004E6F764E
:1038DC000044656300002E000053756E646179002E
:1038EC004D6F6E646179005475657364617900572E
:1038FC0065646E6573646179005468757273646194
:10390C0079004672696461790053617475726461FF
:10391C007900004A616E7561727900466562727554
:10392C00617279004D6172636800417072696C005C
:10393C004D6179004A756E65004A756C7900417568
:10394C00677573740053657074656D626572004FB2
:10395C0063746F626572004E6F76656D626572009E
:10396C00446563656D6265720000414D00504D0009
:10397C0000256D2F25642F25790025483A254D3AD1
:10398C0025530025612025622025652025542025FE
:10399C0059000000E2380000E4380000E438000070
:1039AC00E4380000E4380000E4380000E43800009B
:1039BC00E4380000E4380000E4380000FFFFFFFFAB
:1039CC00FFFFFFFFFFFFFFFFFFFF0000E5380000D8
:1039DC00943800001F390000B1380000763900001F
:1039EC007D390000863900008F390000202020200E
:1039FC002020202020682828282820202020202053
:103A0C0020202020202020202020202048101010B2
:103A1C0010101010101010101010101084848484CA
:103A2C00848484848484101010101010108181817F
:103A3C0081818101010101010101010101010101EA
:103A4C00010101010101011010101010108282827D
:103A5C0082828202020202020202020202020202BA
:103A6C0002020202020202101010102000070320B2
:093A7C00041702010857104080F4
:103A8800000000000020004000000000002000406E
:103A98000000000000000000FF000000000000001F
:103AA800FF00000000100140110004000090D00346
:103AB800643800006438000064380000643800008E
:043AC800643800005E
:040000030000037581
:00000001FF
