:020000022000DC
:1070000000FD0320253604004D3604004F360400F1
:1070100051360400533604005536040000000000C9
:1070200000000000000000000000000057360400CF
:1070300059360400000000005B3604005D36040091
:107040005F3604005F3604005F360400FD8B0200EB
:10705000F18C02005F3604004D8202005F360400AE
:107060005F3604005F360400111B04005F36040025
:107070005F3604005F3604005F3604005F360400AC
:107080005F360400212E0400C1A903005F3604000E
:10709000092F04005F3604006D9202005F36040081
:1070A0005F3604005F3604005F3604005F3604007C
:1070B0005F3604005F36040000000000000000009E
:1070C0005F3604005F3604005F360400F18D020075
:1070D0005F3604005F3604005F3604005F3604004C
:1070E0005F3604005F3604005F36040000000000D5
:1070F000000000005F360400000000005F3604005E
:10710000000000000000000000000000000000007F
:10711000000000000000000000000000000000006F
:10712000000000000000000000000000000000005F
:10713000000000000000000000000000000000004F
:10714000000000000000000000000000000000003F
:10715000000000000000000000000000000000002F
:10716000000000000000000000000000000000001F
:10717000000000000000000000000000000000000F
:1071800000000000000000000000000000000000FF
:1071900000000000000000000000000000000000EF
:1071A00000000000000000000000000000000000DF
:1071B00000000000000000000000000000000000CF
:1071C00000000000000000000000000000000000BF
:1071D00000000000000000000000000000000000AF
:1071E000000000000000000000000000000000009F
:1071F000000000000000000000000000000000008F
:107200000348044B834202D0034B03B11847704735
:10721000B42E0020B42E0020000000000548064BCC
:107220001B1AD90F01EBA301491002D0034B03B184
:1072300018477047B42E0020B42E00200000000034
:1072400010B5064C237843B9FFF7DAFF044B13B1AE
:107250000448AFF300800123237010BDB82E002036
:1072600000000000EC61040008B5054B1BB10549A6
:107270000548AFF30080BDE80840FFF7CFBF00BF6F
:1072800000000000BC2E0020EC610400A3F5803A51
:10729000704700BF174B002B08BF134B9D46FFF7ED
:1072A000F5FF00218B460F461348144A121A1DF0B1
:1072B000CFF80E4B002B00D098470D4B002B00D081
:1072C00098470020002104000D000D48002802D03E
:1072D0000C48AFF300801DF0E9F82000290000F011
:1072E00035FA1CF0D5FF00BF0000080000000000C8
:1072F0000000000000FD0320B82E0020085D0020E3
:10730000000000000000000070B53C4D2B685A04DE
:1073100082B0044603D53A4B1B68032B2BDC394E55
:107320003278642A20D86368013232705A78172A7A
:1073300018D162781F2A15D1334A1878114601F8FE
:107340001E0BC2F1010000E0636813441B5C02F8ED
:10735000013F9142F8D12B685B0403D5284B1B6891
:10736000032B1CDC02B070BD11F02EFD274B002258
:107370001A703278D7E726482F211DF071F810B324
:107380002F2123481DF06CF8411C224B224AD3F8D0
:10739000043500920420382214F06AFBBFE71C4831
:1073A0002F211DF05DF8D8B12F2119481DF058F894
:1073B000411C184B1948D3F8043500904C22042086
:1073C00014F056FBCEE712485C211DF049F828B1B5
:1073D0005C210F481DF044F8411CD6E70C49D4E766
:1073E0000B485C211DF03CF828B15C2108481DF0D9
:1073F00037F8411CDDE70649DBE700BF402E0020DF
:107400003C2E0020D42E00207C310020D62E0020DF
:107410000C46040000100140644604006C46040061
:1074200000B51E481E491F4A4FF0010C002380F88A
:1074300000C083B01C480B70137011F0BFFC1B4BD5
:107440001B685B0403D51A4B1B68032B02DC03B0DB
:107450005DF804FB17482F211DF002F880B12F21A1
:1074600014481CF0FDFF411C134B1448D3F804359D
:1074700000905522042014F0FBFA03B05DF804FBE1
:107480000C485C211CF0ECFF28B15C2109481CF081
:10749000E7FF411CE8E70749E6E700BFD62E0020DA
:1074A000D42E0020D52E002009730200402E00208B
:1074B0003C2E00200C4604000010014074460400DD
:1074C0000378232B00D0704700B51A4B1B685B0470
:1074D00083B003D5184B1B68032B09DC0322C8219A
:1074E0000F2000F0FFFC03B05DF804EB00F08EBC51
:1074F00012482F211CF0B4FF70B12F210F481CF04F
:10750000AFFF411C0E4B0F48D3F8043500906022AA
:10751000042014F0ADFAE1E708485C211CF0A0FF5C
:1075200028B15C2105481CF09BFF411CEAE7034998
:10753000E8E700BF402E00203C2E00200C4604004F
:10754000001001407C46040070B50D461F21044622
:1075500019F044FC084E306060B129461F221130FA
:107560001CF0D2FF316803230B712046BDE8704048
:1075700019F0D6BC70BD00BFD82E002030B58DB03C
:107580002422002103A81CF063FF354C354B0394E3
:107590000722002103A88DF81420079300F0CEFBEA
:1075A00028B10B280CD0304A80211CF069F82F4AF2
:1075B0002F4930484FF400731AF0A4F80DB030BDD5
:1075C0002D4C23685A04F2D52C4D2B68032BEEDD8D
:1075D00025482F211CF044FF38B32F2122481CF0EE
:1075E0003FFF411C264B274AD3F804350092042064
:1075F0007A2214F03DFA23685B04D8D52B68032B5C
:10760000D5DD19482F211CF02BFFC8B12F211648BA
:107610001CF026FF411C1A4B1B48D3F80435009080
:107620007B22042014F024FAC1E70F485C211CF0EF
:1076300017FF80B15C210C481CF012FF411CD1E700
:1076400009485C211CF00CFF38B15C2106481CF095
:1076500007FF411CDFE70449C4E70349DBE700BF3C
:1076600001000007C17402000C460400DC2E00205B
:1076700021740200DC300020402E00203C2E00202F
:107680000010014098460400E846040000B583B0AD
:107690001BF0AEFD20BB00F08FFC254A04214FF407
:1076A000804014F0D5F901F029FCFFF767FF1B209B
:1076B00018F0B8FE00F09AFB68B91E4819F0B6FA47
:1076C0001D4B1B685B0403D51C4B1B68032B0CDC98
:1076D00003B05DF804FB1A4A94211BF0D1FFECE7DC
:1076E000174A8E211BF0CCFFD5E715482F211CF03F
:1076F000B7FE80B12F2112481CF0B2FE411C114B85
:107700001148D3F8043500909622042014F0B0F903
:1077100003B05DF804FB0A485C211CF0A1FE28B10F
:107720005C2107481CF09CFE411CE8E70449E6E7A1
:1077300021BA0300DC300020402E00203C2E002027
:107740000C460400001001402447040008B500F076
:1077500059F9FFF79BFF00F095F9002008BD00BF25
:1077600041DF704730B58FB003AB83E807009DF869
:107770000C30012B01D00FB030BD944D94492A68D4
:107780000B70540418D5934B1B68032B14DD9248DF
:107790002F211CF065FE002800F08D802F218E48DF
:1077A0001CF05EFE411C8D4B8D48D3F804350090D3
:1077B0005322042014F05CF98A4C23781E2B02D14A
:1077C0006378172B1FD0002000F0C2FF2B685804ED
:1077D000D1D5804B1B68032BCDDD7F482F211CF0BA
:1077E0003FFE002800F0A8802F217B481CF038FEC7
:1077F000411C7A4B7C48D3F8043500905B2204206E
:1078000014F036F9B7E763680793A3680893D4E9DF
:107810000401E36809932368A2690693237F0C920D
:10782000CDE90A018DF8343000F076F91D2106A863
:1078300000F0DAF9C0F30F237E2BC0F3072207D93B
:10784000A2F17F03DBB27E2B86BF0232D2B21A4690
:10785000C0B27E2807D9A0F17F03DBB27E2B86BFA2
:107860000230C0B21846637F934202D1A37F8342A5
:107870002DD0002000F06CFF2B6859047FF57BAF02
:10788000544B1B68032B7FF776AF53482F211CF016
:10789000E7FD002800F089802F214F481CF0E0FD13
:1078A000411C4E4B5148D3F804350090622204200D
:1078B00014F0DEF85FE748485C211CF0D1FD002899
:1078C00045D05C2144481CF0CBFD411C6BE7E378BC
:1078D000474A0120032B10703FF44DAF00F038FFF2
:1078E0002B685A0403D53B4B1B68032B33DC3D4903
:1078F0004048FFF729FE40492A68012323700B7096
:1079000053047FF538AF334B1B68032B7FF733AF3E
:1079100031482F211CF0A4FD88B32F212E481CF0E4
:107920009FFD411C2D4B3548D3F804350090712242
:10793000042014F09DF81EE727485C211CF090FD00
:1079400038B15C2124481CF08BFD411C51E72249D1
:1079500029E721494DE720482F211CF081FDC8B1BE
:107960002F211D481CF07CFD411C1C4B244AD3F8E0
:107970000435009204206D2214F07AF8B7E7164817
:107980005C211CF06DFDD8B15C2113481CF068FD32
:10799000411CC7E710485C211CF062FD90B15C21DE
:1079A0000D481CF05DFD411CDFE70B485C211CF01D
:1079B00057FD48B15C2108481CF052FD411C70E79E
:1079C0000549AFE70449D0E703496AE7402E0020A4
:1079D000783100203C2E0020444704000010014074
:1079E0009C4704009C310020A4470400B0470400D9
:1079F00079310020DC300020D52E0020C84704005B
:107A0000BC47040010B51C4C0FCC86B0EC46ACE86B
:107A10000F0094E803008CE80300FFF7A1FE1F238A
:107A20000393FFF79DFE1E230093FFF799FE1D238E
:107A30000193FFF795FE1A230293FFF791FE0723A8
:107A40008DF81630FFF78CFEFFF78AFE0B4A0C48C4
:107A5000694600F09FFE58B9FFF782FE4FF0A04341
:107A600040F20132C3F87827FFF77AFE06B010BD66
:107A70001BF0F6FDF0E700BF2C5D04006577020007
:107A8000245D04002DE9F0431D4E357883B005B127
:107A9000FEE71C4CDFF87C801B4F4FF01F0923785A
:107AA00013B111F091F925701F22002138461CF006
:107AB000CFFC33781BB923780BB988F80030134911
:107AC0001348CDF800903B461F2200F05FFF98B9A5
:107AD000032000F03DFE98F800301BB13378002BF6
:107AE000DDD0D5E7022000F033FEFFF739FE98F82D
:107AF0000030002BF2D1F5E71BF0B2FDE8E700BF44
:107B0000D52E0020D62E00209C3100207C31002074
:107B1000245D04007831002030B5324D002205F597
:107B2000007E114648F205000B044BBF82EA0004B8
:107B300013B223B21446002B4FDB6400A3B224B26D
:107B4000002C45DB5B009CB21BB2002B3BDB6400CE
:107B5000A3B224B2002C31DB5B009CB21BB2002B21
:107B600027DB6400A3B224B2002C1DDB5B009CB2B7
:107B70001BB2002B0BDB640025F8024F01F580716E
:107B800002F50072754589B292B2CDD130BD80EA5E
:107B9000430325F8023F01F5807102F50072AE45FE
:107BA00089B292B2C0D1F1E780EA440423B2A4B210
:107BB000DFE780EA43031CB29BB2D5E780EA4404C6
:107BC00023B2A4B2CBE780EA43031CB29BB2C1E765
:107BD00080EA440423B2A4B2B7E780EA43031CB2AC
:107BE0009BB2ADE7BA310020002910B440F3848085
:107BF0000138434C00EB010C002110F8012F02F07A
:107C00000103DB0112F0020F18BF43F0400312F032
:107C1000040F18BF43F0200312F0080F18BF43F001
:107C2000100312F0100F18BF43F0080312F0200FDA
:107C300018BF43F0040312F0400F18BF43F00203D3
:107C400043EAD21383EA1123DBB2090234F813307A
:107C500089B2604581EA0301CFD141F3400301F0CD
:107C6000010041F3800203F4804343EAC03302F48D
:107C700000528908134341F3400041F3800200F4AD
:107C80008050184302F4006341F3C002184302F429
:107C9000806241F30013104303F4007341F3401278
:107CA000184302F4807241F38013104303F0800301
:107CB00041F3C012184302F0400241F30023104385
:107CC00003F0200341F34022184302F0100241F375
:107CD0008023104303F0080341F3C022184302F04D
:107CE000040241F30033104303F00203184340EA57
:107CF00051305DF8044B704700210B46BBE700BFD5
:107D0000BC31002010B5044615F060F810B123789E
:107D10000E2B00D010BDBDE81040002011F0B8B807
:107D20000378142B00D07047C3880F2BFBD8024B6D
:107D300001221A70704700BFBC33002070B582B0BA
:107D4000002849D00E46054610F050FF044610B1F9
:107D5000204602B070BD04F00DFF02F0C5FD286999
:107D60000BF0D8FC04460028F2D12A7FAB69CDE99C
:107D7000003201466B691A484FF6FF720CF0B2F8F8
:107D800004460028E4D12B6A03B19847154811F046
:107D90000BF817F04DFB134811F008F804F0BAFC8B
:107DA000054602F06DF90B2D0AD00B2808D00E4BBA
:107DB0001B782BB908F096F9002EC9D03070C7E7B0
:107DC00011F0F4FF0B2402F055FD04F071FE10F0E9
:107DD00099F815F07FFFEDE70E24204602B070BD44
:107DE000C03300200C2E0020BC33002010F072BFE6
:107DF00008B511F0DBFF02F03DFD04F059FE10F074
:107E000081F8BDE8084015F065BF00BF08B514F063
:107E1000DDFF20B1BDE80840002011F039B8BDE811
:107E20000840014810F0C0BF002E00202DE9F843A3
:107E3000DFF8A880D8F8000048B3244D244FD5F8C7
:107E400000900024012606FA04F313EA090F10D06B
:107E5000385D204B1F2894BF4FF0A04300F01F0255
:107E6000D3F8043598BF0246D340DA070CD500F0AA
:107E7000DFF90134042CE6D1D8F80040013CC8F801
:107E800000403CB1BDE8F88300F0C4F9F1E71BF015
:107E9000E7FBD2E710480E4FDFF844801BF082FA70
:107EA00001262B6806FA04F21A4207D0D8F80030EF
:107EB000385DE340DB0706D500F0BAF90134042C45
:107EC000EFD1BDE8F88300F0A5F9F7E71C340020F6
:107ED000445D0400000300502434002020340020BE
:107EE000183400200AB1132900D87047F8B55200A1
:107EF0002C4B2D4D013A1A6010F00103286007D079
:107F00004FF0A043D3F804356FEA533303F0010375
:107F1000860709D54FF0A042D2F804256FEA9232C5
:107F2000520002F002021343440709D54FF0A04269
:107F3000D2F804256FEAD232920002F00402134311
:107F4000020709D54FF0A042D2F804256FEA124289
:107F5000D20002F008021343144C236000244FF4B3
:107F6000004223464FF4FA70E1FB020319464FF436
:107F70007A7200231CF014F8224601460C481BF0CC
:107F8000B7F9044600B1F8BD0A4F2E68012505FA7D
:107F900004F3334202D0385D00F04AF90134042C76
:107FA000F5D1F8BD203400201C3400201834002006
:107FB00024340020445D040030B583B000F080F824
:107FC000E0B1144C00230122ADF804308DF80630E6
:107FD0008DF80520251D14F8010B01A900F07AF891
:107FE00048B9AC42F7D10C4A0C4801211BF06EF99C
:107FF00058B903B030BD1BF033FBF2E700F010F8C6
:108000000028DED01BF02CFBDBE71BF029FB03B0C4
:1080100030BD00BF445D04002D7E0200485D0400B9
:1080200030B5234D95F86A3083B0002B3CD105F173
:1080300030015C09012C2ED1FF22CA540133302BB0
:10804000F7D14FF0FF3341F8303C062200211948A8
:10805000EB62C5E90133C5E90333C5E90533C5E979
:108060000733C5E909332B661CF0F2F9124BC02225
:1080700083F8062340221A60104B0020C3F87C01CD
:10808000D3F87C2101924FF00042019985F86A40B3
:10809000C3F8042309E04FF0FF3222FA03F0C007CF
:1080A00048BFCA540133C4E7082003B030BD00BF45
:1080B00044340020A834002000E100E000600040CB
:1080C000034B93F86A00003818BF0120704700BFC7
:1080D000443400204C4B1A1892F930C0BCF1FF3FD9
:1080E00001D00820704710B48C78ECB11A680132C6
:1080F0004FD05A6801327CD09A6801327BD0DA685E
:10810000013274D01A69013277D05A69013276D0BF
:108110009A69013275D0DA69013208BF072239D075
:1081200004205DF8044B7047FE2382F830304A7813
:10813000012A26D01F281AD9344900F01F03012232
:108140009A40C1F80C25314903F5E073032241F848
:10815000232020FA02F22E4900F007008C5C012354
:10816000834023438B5400205DF8044B7047012368
:108170004FF0A0428340C2F80C3503464FF0A041B7
:10818000E2E71F282CD84FF0A0438240C3F808250F
:10819000F3E700221C1884F83020002443F8224022
:1081A00093004C780A782405120404F4801403F137
:1081B000804302F4403203F5C0432243040204F436
:1081C0007C542243D3F8104524F4991424F4F85431
:1081D000C3F81045D3F810452243C3F81025A6E78D
:1081E0000A4900F01F039A40C1F80825ABE70322B3
:1081F000D0E70122CEE70222CCE70422CAE705221B
:10820000C8E70622C6E700BF443400200003005040
:10821000A83400201F2886BF044A00F01F004FF03A
:10822000A04201238340C2F8083570470003005084
:108230001F2886BF044A00F01F004FF0A042012310
:108240008340C2F80C357047000300502DE9F04719
:10825000002384B0CDE902331C4AD2F80011012971
:1082600000F03B821E46194BD3F80421012A00F08E
:108270002582164BD3F80821012A00F01082134BF7
:10828000D3F80C21012A00F0FB81104BD3F8102108
:10829000012A00F0E6810D4BD3F81421012A00F0E9
:1082A000D1810A4BD3F81821012A00F0B881074B7D
:1082B000D3F81C21012A0BD0044BD3F87C21012ACE
:1082C00000F02C8256BB04B0BDE8F087006000408F
:1082D000D3F804231106EFD50022C3F81C21D3F8EC
:1082E0001C110091D3F87C110098012946F08006FA
:1082F00014D1C3F87C21D3F87C3101934FF0A04214
:10830000019BD2F82015CD4B0291C2F82015D3F86D
:1083100020250392C3F8202546F00046C84F0125CA
:108320000024A30003F18043354203F5C0430BD082
:10833000D3F8100557F82420D3F81015C0F3052002
:10834000C1F3014102B190470134082C4FEA4505C1
:10835000E7D1002EB7DABA4CB84E01254FF0A0474E
:1083600094F960305A1C4BD0C3F3C20101F11002E2
:108370000DEB020103F0070211F808CC05FA02F236
:108380001CEA020FD9B203F03F0039D01F2800F2D7
:10839000368103464FF0A04909EB830205FA03F347
:1083A000D2F800C7D2F800E72EF4403EC2F800E74A
:1083B00004EB000ECCF3014C9EF930E0D2F800A79C
:1083C00054F82E80BCF1020F14BF4FF4003E4FF45E
:1083D000403E4EEA0A0EC2F800E7C9F82035B8F16F
:1083E000000F0DD08909032900F08C81BCF1020F28
:1083F00000F08581BCF1030F02D1022900F08281D7
:1084000094F96130581C4BD0C3F3C20101F1100242
:108410000DEB020103F0070211F808CC05FA02F295
:108420001CEA020FD9B203F03F0039D01F2800F236
:10843000EA8003464FF0A04909EB830205FA03F3F3
:10844000D2F800C7D2F800E72EF4403EC2F800E7A9
:1084500004EB000ECCF3014C9EF930E0D2F800A7FB
:1084600054F82E80BCF1020F14BF4FF4003E4FF4BD
:10847000403E4EEA0A0EC2F800E7C9F82035B8F1CE
:10848000000F0DD08909032900F04181BCF1020FD2
:1084900000F03A81BCF1030F02D1022900F03781CC
:1084A00094F96230591C4BD0C3F3C20101F11002A0
:1084B0000DEB020103F0070211F808CC05FA02F2F5
:1084C0001CEA020FD9B203F03F0039D01F2800F296
:1084D0009E8003464FF0A04909EB830205FA03F39F
:1084E000D2F800C7D2F800E72EF4403EC2F800E709
:1084F00004EB000ECCF3014C9EF930E0D2F800A75B
:1085000054F82E80BCF1020F14BF4FF4003E4FF41C
:10851000403E4EEA0A0EC2F800E7C9F82035B8F12D
:10852000000F0DD08909032900F0F680BCF1020F7D
:1085300000F0EF80BCF1030F02D1022900F0EC80C3
:1085400094F963305A1C4AD0C3F3C20101F11002FE
:108550000DEB020103F0070211F808CC05FA02F254
:108560001CEA020FD9B203F03F0038D01F2852D8BE
:1085700003464FF0A04909EB830205FA03F3D2F852
:1085800000C7D2F800E72EF4403EC2F800E704EB43
:10859000000ECCF3014C9EF930E0D2F800A754F85D
:1085A0002E80BCF1020F14BF4FF4003E4FF4403E4A
:1085B0004EEA0A0EC2F800E7C9F82035B8F1000FFC
:1085C0000DD08909032900F09880BCF1020F00F05A
:1085D0009180BCF1030F02D1022900F08E80D7F800
:1085E00020350293C7F82035D6F82025039213438F
:1085F000C6F820257FF4B4AE04B0BDE8F08703F0E0
:108600001F03B146C8E603F01F03B14614E703F0A9
:108610001F03B14660E703F01F03B146ABE7D3F891
:10862000042350067FF543AE0022C3F81821D3F887
:1086300018310093009B46F0400638E600030050D6
:1086400044340020D3F8042394067FF52AAE002298
:10865000C3F81421D3F814310093009B46F0200690
:108660001FE6D3F80423D5067FF515AE0022C3F824
:108670001021D3F810310093009B46F010060AE653
:10868000D3F8042317077FF500AE0022C3F80C21AE
:10869000D3F80C310093009B46F00806F5E5D3F8BB
:1086A000042352077FF5EBAD0022C3F80821D3F86D
:1086B00008310093009B46F00406E0E5D3F804235C
:1086C00091077FF5D6AD0022C3F80421D3F8043119
:1086D0000093009B46F00206CBE5D2F8046316F047
:1086E00001063FF4C0ADC2F80031D2F8003100936A
:1086F000009BB8E501297FF472AFC0476FE70129FD
:108700007FF47EAEC0477BE601297FF4C9AEC04747
:10871000C6E601297FF414AFC04711E70022C3F871
:108720007C21D3F87C3101934FF0A042019BD2F819
:108730002015064B0291C2F82015D3F8202503928C
:10874000C3F82025002E3FF406AEE5E500030050F7
:108750000A4B185C1F288ABF09494FF0A04100F05E
:108760001F00D1F804350122824022EA03001340A1
:10877000C1F80805C1F80C35704700BF4C5D040016
:10878000000300508C46024B07C853F82C301847A2
:10879000B034002010B4044C037944F823205DF871
:1087A000044B024A00F004B8B03400208587020070
:1087B0002DE9F04790F804C0704DCCEBCC0405EBEC
:1087C000840482B0247D002C40F0C7800C7C032CF4
:1087D00000F2CA800E680468FF2E4FEACC0E00F04B
:1087E000AC801F2ECF7C86BFDFF8948106F01F0679
:1087F0004FF0A04806F5E0763F0248F826704E6834
:10880000D1F80080FF2E00F09E801F2E86BF06F05C
:108810001F065B4F4FF0A04706F5E0764FF00009CA
:1088200047F82690D1F80490CE688F7C1F2E86BF23
:1088300006F01F06DFF848A14FF0A04A06F5E076E3
:10884000BF004AF826708F681F2F86BF07F01F07EA
:10885000DFF82CA14FF0A04A07F5E07700264AF890
:108860002760D1E9027AC4F80875C4F81095C4F8F5
:108870000C85C4F814A5C4F83465C4F83865C4F888
:108880004465C4F848654E7C0F7C003E18BF012645
:10889000022F70D0032F6BD0012F62D0C4F8546523
:1088A0000E7DC4F85C654E7DC4F8C0650027C4F831
:1088B0000471D4F804610196019EC4F82871D4F8BB
:1088C00028610096009EAEEB0C0605EB8606B361B0
:1088D000D4F80032B26043F00403C4F8003240F22E
:1088E00002437775C4F8043303688A7D43F3073382
:1088F000BB422BDB03F16043520103F56143D2B26B
:1089000083F80023036843F30733002B08DB1D497A
:108910005809012203F01F0302FA03F341F8203043
:10892000AEEB0C0E05EB8E050122022300202A750A
:10893000C4F8003502B0BDE8F0874E68FF2E4FF056
:10894000FF387FF462AF4FF0FF396DE70E4903F057
:108950000F035201D2B2CA54D4E7082002B0BDE8D6
:10896000F08746F0020699E7072002B0BDE8F087DD
:1089700046F0060692E746F004068FE7BC34002076
:108980000003005000E100E014ED00E02DE9F043A9
:1089900090F80480B8F1020F8BB067D81C46129B88
:1089A0001343B3F5803F154660D2DFF84C92D9F8F7
:1089B0000030074658040E4633D426B106F0604313
:1089C000B3F1005F48D124B104F06043B3F1005F1C
:1089D00042D1814BC8EBC80203EB82024FEAC801C7
:1089E000527D012AD0B246D002D90238012862D87D
:1089F000A1EB08018A0001209D5003EB8103C3E92C
:108A00000364129A5A603C6858755A7D022AD1B2A2
:108A100000F0AF80032950D0814200D16162002470
:108A20002AE06E4B1B68032BC7DD6D482F211BF01E
:108A300017FD002800F092802F2169481BF010FDDF
:108A4000411C684B684AD3F804350092042040F278
:108A5000911213F00DF8B0E7D9F80030590403D59E
:108A60005E4D2B68032B35DC102400E009242046E2
:108A70000BB0BDE8F0830824D9F800305B04F6D5CC
:108A8000564B1B68032BF2DD55482F211BF0E8FCE9
:108A9000002878D02F2152481BF0E2FC411C53489B
:108AA000504B4FF4DD72D3F80435CDE900040420B7
:108AB00012F0DEFFDBE70324DEE7D4F83C25D4F830
:108AC0004C458DF81800079299699A68089406A891
:108AD0009047A4E742482F211BF0C2FC00286AD02F
:108AE0002F213F481BF0BCFC411C3E4B404AD3F8B1
:108AF00004350092042040F2971212F0B9FFD9F821
:108B000000305A04B0D52B68032BADDD34482F213B
:108B10001BF0A6FC002843D02F2131481BF0A0FCFD
:108B2000411C04F060422F4BA2F10052D3F80435EF
:108B3000B2FA82F2CDE9036406F060465209A6F16A
:108B400000560292B6FA86F62A4A7609CDE9002640
:108B500004204FF4CE7212F08BFF85E720485C2191
:108B60001BF07EFCD0B15C211D481BF079FC411C40
:108B700067E70022CDE907229C6899698DF81820E3
:108B800006A8A0474BE716485C211BF069FCE8B13A
:108B90005C2113481BF064FC411C80E7104950E73E
:108BA0000F485C211BF05CFC90B15C210C481BF071
:108BB00057FC411CB5E70A485C211BF051FC48B149
:108BC0005C2107481BF04CFC411C8EE7044966E71A
:108BD0000349A6E7024988E7BC3400203C2E002068
:108BE000D0470400001001402C48040094480400C1
:108BF0004448040058480400402E002030B53A4B49
:108C0000D3F8282187B05AB10020C3F82801D3F83F
:108C10002811364A01910199517D0129CCB21CD00D
:108C2000314BD3F8042152B10020C3F80401D3F82A
:108C300004112E4A00910099517D022901D007B0FC
:108C400030BD03215175517D0229CCB242D0032C95
:108C500032D0012CF3D15C62F1E71168D568C3F81A
:108C60004455C3F8481551681569C3F83455C3F81D
:108C7000381502219C625175517D0229CDB212D066
:108C8000032D03D0012DCBD15D62C9E78DF80840DB
:108C9000D3F83C150391D3F84C059169936804907F
:108CA00002A89847BCE7936891698DF80800CDE960
:108CB000030002A89847B3E701218DF80810D3F804
:108CC0003C150391D3F84C0591699368049002A870
:108CD0009847B4E7936891698DF80800CDE90300DF
:108CE00002A89847ABE700BF00300040BC3400202A
:108CF00030B54FF0402387B0D3F8282162B100206F
:108D0000C3F82801D3F82811384A0191019992F843
:108D100031100129CCB220D04FF04023D3F80421E8
:108D20005AB10020C3F80401D3F804112F4A00916E
:108D3000009992F83110022901D007B030BD03210B
:108D400082F8311092F831100229CCB244D0032CB1
:108D500034D0012CF1D15C62EFE7D169956AC3F898
:108D60004455C3F84815116AD56AC3F83455C3F899
:108D7000381502219C6282F8311092F831100229D4
:108D8000CDB212D0032D03D0012DC5D15D62C3E752
:108D90008DF80840D3F83C150391D3F84C05516B7E
:108DA000536A049002A89847B6E7536A516B8DF84E
:108DB0000800CDE9030002A89847ADE701218DF82E
:108DC0000810D3F83C150391D3F84C05516B536A46
:108DD000049002A89847B0E7536A516B8DF80800D9
:108DE000CDE9030002A89847A7E700BFBC340020E4
:108DF00030B53D4BD3F8282187B062B10020C3F8CD
:108E00002801D3F82811394A0191019992F84D109F
:108E10000129CCB21FD0344BD3F804215AB1002021
:108E2000C3F80401D3F80411304A0091009992F874
:108E30004D10022901D007B030BD032182F84D103A
:108E400092F84D100229CCB244D0032C34D0012C1E
:108E5000F1D15C62EFE7916B556CC3F84455C3F8F0
:108E60004815D16B956CC3F83455C3F838150221F9
:108E70009C6282F84D1092F84D100229CDB212D0AA
:108E8000032D03D0012DC6D15D62C4E78DF80840E3
:108E9000D3F83C150391D3F84C05116D136C049075
:108EA00002A89847B7E7136C116D8DF80800CDE95B
:108EB000030002A89847AEE701218DF80810D3F807
:108EC0003C150391D3F84C05116D136C049002A866
:108ED0009847B0E7136C116D8DF80800CDE90300D9
:108EE00002A89847A7E700BF00300240BC3400202A
:108EF00060DF704769DF70470FF05ABF10B588B068
:108F000000F0AAF9002854D1324B0393039B049339
:108F10000C22002105A81BF09BFA0023049A8DF86F
:108F20001430012005A9FFF7E5FF00283ED10C22EF
:108F3000002105A81BF08CFAF823049A0593A120C0
:108F400005A9FFF7D7FF70BB04A8FFF7D1FF039B6C
:108F5000049A9A42044603D01F4B1B685B0402D458
:108F6000E4B908B010BD1D4B1B68012BF8DD1C488F
:108F70002F211BF075FAF8B12F2119481BF070FA58
:108F8000411C0498174A184BD3F80435CDE900204A
:108F9000AB22022012F06CFD002CE2D020461AF029
:108FA0005FFB08B010BD1AF05BFBCDE71AF058FB71
:108FB000BDE71AF055FBA7E709485C211BF050FA02
:108FC00028B15C2106481BF04BFA411CD9E7044943
:108FD000D7E700BF002E0020402E00203C2E0020AE
:108FE000A4480400104904000010014070B4EFF3DD
:108FF000108472B60D4A9368ABB9012191600C4997
:109000000C4ED1F8805035401560C1F88060D1F821
:10901000845055604FF0FF32C1F88420037004B9CA
:1090200062B670BC70470123F8E700BF2C35002002
:1090300000E100E0FC06FFBD094B9A687AB170B907
:1090400010B4EFF3108172B6064A1C6814605C68B5
:109050005460986001B962B65DF8044B7047704780
:109060002C35002000E100E001600B6843604A6895
:10907000934208BF00234360704700BF436843B179
:10908000026891680B4443605268934204BF002316
:10909000436070474BDF704710B5124C84B001A895
:1090A000FFF7F8FFA8B9214602A8FFF7DDFF039BF1
:1090B000002BF4D0D3E900210198904702A8FFF7D4
:1090C000DDFF039B002BF5D101A8FFF7E3FF00288C
:1090D000E9D0052801D104B010BD04B0BDE81040AE
:1090E0001AF0BEBA505D040061DF7047154B1B7863
:1090F00033B330B5144D91B034240DF1020103A8FF
:10910000ADF80240FFF7F0FF88B9294601A8FFF744
:10911000ABFF029B002BF0D0D3E9002103A89047BE
:1091200001A8FFF7ABFF029B002BF5D1E5E705286F
:1091300001D111B030BD11B0BDE830401AF090BA85
:10914000704700BF383500205C5D040010DF7047B9
:1091500030B5384D384985B0012302A82B70FFF790
:1091600083FF039B2BB90EE002A8FFF787FF039B49
:109170004BB1D3E90021002090470028F4D100240E
:10918000204605B030BD2D4902A8FFF76DFF039BB7
:109190004BB1D3E900210020904702A8FFF76EFFF2
:1091A000039B002BF5D1264A00231268019202A8E6
:1091B0008DF80830FFF71AFF224901A8FFF7C6FF14
:1091C000214AB0FA80F304465B099DF80800137049
:1091D000FFF732FF002CD3D11C4B1D491C702C70A3
:1091E00091F81623EC2352091341DB071DD5194BC7
:1091F0009A68AAB94FF480030B60104902A8FFF7E0
:1092000033FF039B002BBAD0D3E900210120904704
:1092100002A8FFF733FF039B002BF5D10024AFE733
:109220001A6842F480021A60E7E742F202001AF07C
:1092300017FAE2E739350020805D0400745D040010
:109240008C5D04000D0103003B3500203A35002001
:1092500000E100E02C350020034B1B780BB9FFF731
:1092600077BF0820704700BF3B35002000B583B0B2
:1092700008496846FFF7F8FE019B43B1D3E9002097
:1092800090476846FFF7FAFE019B002BF6D103B02A
:109290005DF804FB685D0400837803F00302032A91
:1092A00034D8DFE802F029231E029B0841F27072D5
:1092B00003FB02F230B4164B164D19682B681144AB
:1092C0008160002423B919E0DA681C46D2B1134644
:1092D0009A688A1A002AF7DA84B1E06030BCC36069
:1092E00070479B08642203FB02F2E3E703F0FC02F1
:1092F00002EB93035A00DDE79A08DBE7286030BCF5
:10930000C3607047D86030BCC26070477B4600BF06
:10931000403500203C350020F0B5694D2B7883B0F6
:10932000002B37D1674C2368002B31D0664E327842
:10933000997801F00301914273DD64489B680068ED
:10934000634C1B1A6348022900FB03F354F8220004
:10935000B3FBF0F379D0032949D05F4A02FB03F352
:109360005E4AB2EB730F80F09A8010F0E9FB33781D
:10937000032B014600F28D8054F8233019442B78DA
:109380005748002B45D003B0BDE8F04010F0C8BAF4
:1093900003B0F0BD524B4C4E5F6810F0D1FB3278F9
:1093A000032A04464BD84A4B53F822304749E01B66
:1093B00018443AB94CF25033984203D90B68013340
:1093C0000B6007E0474B4009A3FB00300B6803EB41
:1093D000D0130B603B4C2368002BA9D12B78002BBA
:1093E000D6D03F4803B0BDE8F04010F045BA002A9F
:1093F00047D0012A5CD03C4A02FB03F33B4AB2EB64
:10940000B30FB2D310F09CFB3949032301443370EE
:10941000B5E701232B70416003B0BDE8F04010F0C8
:10942000C1B910F08DFB23689B78C3F30102327041
:1094300003F00303264A52F8231001449FE77846BD
:1094400006F082FF32780023B0E782B1012A8CD186
:1094500002F1CC3202FB03F3204AB2EB730F84D348
:1094600010F06EFB234902230144337087E7224A40
:1094700002FB03F302F18042013AB2EBB30FEFD2E9
:1094800073E71E4A02FB03F31D4AB2EB331FB9D246
:109490006BE70190784606F057FF01996FE710F0EF
:1094A0004FFB012300F5742101F51071337066E75D
:1094B000144A02FB03F3144AB2EBF30FA2D254E7AF
:1094C000453500203C350020443500204035002043
:1094D000905D0400A0860100CDCCCCCC999999195F
:1094E00048350020C55A7C0AEFEEEEEE44444404B1
:1094F0000046C32380969800295C8FC24728A3B7F3
:1095000033EC0A0063C92F96063A6D002DE9F0414D
:10951000284B1B7882B0032B48D8DFE803F03D3896
:109520003302254E336803F5BB5310333360234FAA
:10953000234B3C684FF0000883F80080002C30D0AB
:109540001D4E08E063680199284698472046FFF7BA
:10955000A3FE3C682CB33268A368934201A903D0F0
:1095600032689B1A002B1CDA2588E3683B6028468A
:10957000CDF8048002F0AAF90028E3D0784606F07E
:10958000E3FEDFE70C4E336864333360CFE70A4E07
:1095900033680A333360CAE7074E336801333360F8
:1095A000C5E702B0BDE8F041FFF7B6BE784606F069
:1095B000CBFEBCE744350020403500203C35002080
:1095C0004535002038B5084C084D182200212046AA
:1095D0001AF03EFF06480749074AA56000230360CA
:1095E0000B60137038BD00BF483500200D95020098
:1095F000403500203C3500204535002038B50B4C67
:10960000237873B90A4D1822002128461AF020FF4A
:109610000849094A0948A86000230B6013602370B9
:1096200038BD034810F028F9ECE700BF45350020AD
:1096300048350020403500203C3500200D950200C3
:10964000F8B50D461646044600283CD0254F10F0CC
:10965000EFFF3B6805F0030106F03F024BB19C426F
:10966000D86802D123E09C420BD01846DB68002B5F
:10967000F9D141EA8201A1706EB9BDE8F84011F05C
:1096800017B8A37861F3010362F38703A370E3685B
:10969000C360002EF1D02046FFF7FEFD3B689C42E0
:1096A000EBD1FFF739FEBDE8F84011F001B8A3781F
:1096B000386061F3010362F38703A370002EEAD1DF
:1096C000FFF72AFEEFE77846064F06F03DFE10F062
:1096D000AFFF3B6805F0030106F03F02002BC4D149
:1096E000C7E700BF3C35002070B5764CB4F8603059
:1096F0000546002B6AD094F8393005F57A761BB10F
:10970000236B9B1B002B72DB94F85D30002B61D028
:10971000626D921B002A1CDB94F83910B4F86020AB
:1097200000293FD1002B4AD14FF6FF73A4F86230D5
:10973000002A41D0784606F007FEB4F8623003EB09
:10974000C30304EB83031B6B5A1B36D5EA1AE26092
:1097500070BDB4F85030E26C5B49012001F040F874
:10976000102800F29780594A01238340134275D193
:1097700048F21112134200F08D8094F85C30013BE6
:10978000DBB284F85C30002B68D0D4E91532134486
:10979000636594F8391094F85D30B4F860200029BE
:1097A000C0D0EBB1236B616DC91A002907DB002122
:1097B000A4F86210002AC7D10022E26070BD012324
:1097C000A4F86230002AF7D0636DBDE7784606F052
:1097D000BBFD90E794F83930B4F86020002BA3D09B
:1097E0000023A4F86230002AE6D0236BACE7A38DF7
:1097F000A26A3749002000F0F3FF102846D8334A08
:109800000123834013420FD148F2111213423DD07D
:1098100094F83830013BDBB284F8383023B1D4E916
:109820000C23134423636FE794F83930002B45D0A1
:10983000B4F86030002B3BD0013B00229BB284F88F
:109840003920A4F860301BB94FF6FF73A4F86230DA
:10985000A06A16F033FD0023A36255E794F85D304B
:1098600013B3B4F86030CBB1013B00229BB284F853
:109870005D20A4F860301BB94FF6FF73A4F8623086
:10988000E06C16F01BFD0023E36482E7784606F0E7
:109890005BFDBDE7784606F057FD6EE7784606F0BB
:1098A00053FDB4F86030DFE7784606F04DFDD8E7A9
:1098B000784606F049FDB4F86030BDE7784606F01A
:1098C00043FDB5E7603500209C350020A002010073
:1098D0007835002010B5064C6422002120461AF08D
:1098E000B7FD044AA2604FF6FF73A4F8623010BDC2
:1098F00060350020E99602002DE9F04F83B0012881
:10990000BDF8309005460F46164698466ED8002F93
:1099100000F0C580002E00F0C8803B785B076BD05C
:10992000B8F1000F00F0C580B9F1000F00F0B3806E
:109930006C4C05EBC50304EB83034FEAC50A93F8AF
:109940003930002B40F0878010F0FAF8B4F860301E
:10995000019003F1010B96E80F000AEB050C04EBF4
:109960008C0C0CF1180A8AE80F00CCF82880ACF8AF
:109970002C903B78019AC3F302038CF838303B7883
:10998000A4F860B04CF2503E4FF00101DB0803FB3D
:109990000EE38CF839101A44CCF8343094F839308E
:1099A000CCF830208BB194F85D30B4F86220002BF5
:1099B00041D1002A00F09380216B4A48A4F862301C
:1099C00003B0BDE8F04F0FF0ABBF94F85D30D3B1FA
:1099D000B4F86230012B7BD00123616DA4F86230B2
:1099E000404803B0BDE8F04F0FF09ABF784606F04C
:1099F000ABFC002F8ED152E0784606F0A5FCB8F102
:109A0000000F91D155E0B4F862204FF6FF739A42EF
:109A100053D0A4F86230784606F096FCB4F8623071
:109A200003EBC30304EB8304216B2E4803B0BDE8B2
:109A3000F04F0FF075BF216B636D5B1A002BC7DB16
:109A4000002A49D027480023A4F8623003B0BDE8BB
:109A5000F04F0FF065BFB4F86030002B32D00AEB46
:109A60000502013B04EB82029BB20021A4F86030A6
:109A700082F839101BB94FF6FF73A4F862300AEB75
:109A8000050B04EB8B0BDBF8280016F017FC00230A
:109A9000CBF8283058E7784606F056FC48E7784679
:109AA00006F052FC002E7FF438AF784606F04CFCEE
:109AB00033E7784606F048FC36E79542ABD003B072
:109AC000BDE8F08F784606F03FFCB4F86030C6E79A
:109AD000012DF4D1616D83E7002DF0D180E7002DD9
:109AE000EDD1A1E760350020C0F30F40A0F5405054
:109AF00080B2012882B014D80B4B1B785B0702D5CB
:109B0000002002B07047094A0B6812F8301002EBCF
:109B1000C00CDB4321F0060102F83010CCF8043011
:109B2000EEE7052002B070471436002024360020EE
:109B3000000CB0F5804F82B005D1044B0A781A7042
:109B4000002002B07047052002B07047182E002098
:109B500010B5000C012882B00C4602D0784606F001
:109B6000F3FB034B23600222A28002B010BD00BFB2
:109B70000200010010B5000C012882B00C4602D092
:109B8000784606F0E1FB6388012B0DD1A388022BF8
:109B90000AD12388022B07D1054A1378002043F00D
:109BA0000103137002B010BD0B2002B010BD00BF46
:109BB0001436002030B5C0F30F44A4F54054A4B2CD
:109BC000012C83B00D4602D9784606F0BDFB044B4C
:109BD00003EBC4035B68DB432B6003B030BD00BF05
:109BE0002436002010B5000CB0F5804F82B00C4632
:109BF00002D0784606F0A8FB024B1B78237002B017
:109C000010BD00BF182E002030B5040CB4F5805FE5
:109C100083B00D4602D0784606F096FBA4F580543A
:109C20000649A4B204EB4404022201EB4401284695
:109C300003B0BDE830401AF067BC00BF34360020E6
:109C400030B5C0F30F44A4F50054A4B2012C83B086
:109C50000D4602D9784606F077FB0649C4EBC404EA
:109C6000142201EBC401284603B0BDE830401AF0CD
:109C70004BBC00BF3C360020C0F30F43A3F500539C
:109C80009BB2012B23D81B480078420721D430B562
:109C900019488D89C3EBC30C00EBCC0483B0B4F836
:109CA0000CE075454FEACC0C0ED130F80C50B1F8F1
:109CB00000C0AC4508D1B1F802C06588AC4503D1FD
:109CC000CD89E289954206D00B2003B030BD052036
:109CD0007047002070475B4203F038031844142299
:109CE0001AF012FC94F8343023F0060384F8343070
:109CF0000020EAE7143600203C3600202DE9F04F22
:109D0000D7B00446DFF84482BDF880B109A80F46F9
:109D10001E46154602F040FFC4EBC40308EBC30324
:109D2000BDF82610B3F80C90494540F2D480BDF838
:109D300024100591E200002D00F0AA8005F10C032B
:109D400093E8030095F81CA00AAB83E80300069390
:109D5000EB8B0493AD8CBAF1000F40F0A980002E7C
:109D600000F0BE80BBF1000F00F0B1800CAC2422EB
:109D7000002120461AF06CFB2846049912AA05F02F
:109D80007FF8054618B1284657B0BDE8F08F059B0F
:109D90008DF83AA09944069BADF8389093E80300FB
:109DA000BB7AE372FB7A237384E80300FB681096A6
:109DB00029462046ADF844B023620EF0F3FF054675
:109DC0000028E0D1594C23689A04DCD5DFF8808163
:109DD000D8F80030042BD6DD55482F211AF040FB6F
:109DE000002800F092802F2151481AF039FB411CC5
:109DF000504B3A88D3F8043501924F4A009205201F
:109E000040F2A91211F034FE23689B04BBD5D8F8A8
:109E10000030042BB7DD5F46802F28BF8027BBF1C1
:109E2000000F7FD0454B15ACD3F800C0701E214603
:109E3000034610F8012F4FEA121E02311CF80EE003
:109E400001F802EC023302F00F029B1B1CF8022007
:109E500001F8012C9F42EBD80023354804F8173055
:109E60002F211AF0FDFA002844D02F2130481AF093
:109E7000F7FA411C324A2F4BD3F80435CDE90124BF
:109E8000304A009205204FF4D57211F0F1FD7AE7C7
:109E900007920AAAD8889B88069211461546049311
:109EA00003F0B6FB20BB6B88ABB1079A4FF6FF758A
:109EB000121B08EBC20898F811A0BAF1FF0F04BFFB
:109EC000214B93F800A0002E7FF44CAF08E07846B9
:109ED00006F03AFA4AE71025284657B0BDE8F08F59
:109EE000784606F031FABBF1000F7FF43FAFEEE7A2
:109EF000052548E70E485C211AF0B2FA80B15C21D2
:109F00000B481AF0ADFA411CB4E709485C211AF07D
:109F1000A7FA48B15C2106481AF0A2FA411C67E78B
:109F20000349A7E715AC97E7014961E7402E0020F8
:109F30004C49040000100140A4490400442E0020B4
:109F4000B8490400C0490400182E00203C36002007
:109F50003C2E0020000CB0F5805F82B00FD10B4B7F
:109F60001B785B0708D40A4B09881A88914209D1EB
:109F70005A7922F006025A71002002B0704705207B
:109F800002B070470B2002B0704700BF14360020AB
:109F900034360020012870B5354D04460DD9C60071
:109FA000784606F0D1F900221146361B05EBC600B3
:109FB0001430BDE87040FFF743BBC0EBC00305EBB6
:109FC000C303C60093F8341011F00101E8D09A6978
:109FD000002AE5D09A7C9B8C02F0030002284FEA0D
:109FE00092022DD0032815D001283DD102EB82002A
:109FF0004000B0FBF3F33F2B06D89AB3012B38BFD8
:10A000000123DAB20021D0E71A4AA2FB0323C3F3EB
:10A01000C702CAE741F2707C0CFB02FCBCFBF3F305
:10A020003F2BEAD940F276229342EDD941F69C02C9
:10A03000934210D9104AA2FB03230146DA09B4E780
:10A04000642002FB00F0B0FBF3F33F2BD5D940F2C4
:10A0500076229342D8D9094AA2FB0323C3F34712BD
:10A060000221A2E71146A0E7B2FBF3F3C5E700BF68
:10A070003C360020CDCCCCCCF11976051F85EB51B8
:10A080002DE9F04FA14F3B7843F004031A463B7093
:10A0900013F0020385B065D1D007DFF884B22FD565
:10A0A0005D469946AA8998464FF6FF739A420AD1AF
:10A0B0003835B9F1000F22D1AA894FF6FF739A42C1
:10A0C0004FF00109F4D0E888984203D002F044FE32
:10A0D000002847D1EA89022A07D0D60004368C4AE4
:10A0E00094591644002C40F0B180C9EBC9020BEB27
:10A0F000C202383582F81280B9F1000FDCD03A780C
:10A10000834C2378590760D49E0700F1C18023F067
:10A1100006032370237A590765D4980700F18780D6
:10A1200023F0060323727B4C63799E071ED49BF8B1
:10A13000341023F00203880763712AD49BF86C3033
:10A1400021F002019E078BF8341030D423F0020373
:10A15000D4078BF86C3048BF002040F1A98005B0CF
:10A16000BDE8F08F0B2005B0BDE8F08F55074CD54A
:10A1700069480290214614F095FF002840F0B7800E
:10A1800063799BF834103A7823F0020388076371EF
:10A19000D4D5530740D561486149029014F082FF3D
:10A1A000002840F0A8803A789BF83410C6E755079D
:10A1B0003AD55C485C49029014F074FF002840F0E6
:10A1C0009E803A789BF86C30C0E750077DD55748A1
:10A1D000029015F035F823783A7823F006032370BF
:10A1E000237A590799D5560706D55148029015F09C
:10A1F00027F8237A3A7893E743F0040323F0060321
:10A200002372444C6379980791D59BF8341023F05E
:10A21000020363718C0791D59BF86C3021F0020129
:10A220009F078BF8341091D543F002038EE7510756
:10A2300056D5E3683E480290DB4301A9019314F030
:10A2400031FF00284FD1237A3A7869E794FAA4F4D1
:10A25000B4FA84F4182C3FF448AF4FF0010A2046BA
:10A2600003F060F900287FF47DAF601C0AFA00F269
:10A270001728C2F100023FF638AF31680A403FF4B8
:10A2800034AF92FAA2F4B4FA84F4182CE7D12CE794
:10A29000550738D5636825480290DB4301A901932F
:10A2A00014F000FF002896D0784606F04DF892E7AB
:10A2B0002048022302A9CDE90100ADF80C3014F0CA
:10A2C000F1FE002838D1052049E743F0040323F0CC
:10A2D00006032370237A59078ED49D077FF520AF9C
:10A2E00043F002038AE7784606F02EF8ABE778469B
:10A2F00006F02AF844E7784606F026F853E7784651
:10A3000006F022F85DE743F00203E0E71436002090
:10A310002436002034360020020000100200002005
:10A320003C3600200200012074360020020000307C
:10A330000200013002000100784606F005F8C2E78D
:10A340002DE9F04F00F1140591B004460023284692
:10A35000099305F035FE002800F081804FF6FF7369
:10A36000ADF83A30237D012B824600F0A580E28AC9
:10A370004FF6FB739A4200F2C1800DF13A01284674
:10A3800003F080F9002840F0938000230A93002313
:10A39000CDF82CA09A460A9B644DDFF8A891002BBB
:10A3A00057D0B5F80480099BA8EB0308B8FA88F8E1
:10A3B0004FEA5818E38B95F82C70A98CB4F800C0BC
:10A3C000B4F802E05A09012655F8222003F01F03D1
:10A3D0009E4007F001071640002979D0286A002323
:10A3E00000F1020B02E001338B4271D030F83320D0
:10A3F0006245F8D13BF833207245F4D1DDF82CB03A
:10A400000D930122D9F800309B0403D5484B1B68FB
:10A41000062B27DCA7B1B8F1000F11D086B1BBF134
:10A42000000F0DD0237D012B1FFA8AF668D00D9AFC
:10A430002B6A03EBC20330465B68AA6A2146984741
:10A440003835BAF1000F0AD10A9B4FF0010A002BF0
:10A45000A7D1EB88012B3ED9DDF82880AAE711B0FF
:10A46000BDE8F08F33480C922F2119F0F9FF0C9AB8
:10A4700000284BD02F212F4819F0F2FF0C9A411CD5
:10A480002D4BD3F804350692CDE9037835F8062C28
:10A49000029235F8082C0192284A0092321E18BF09
:10A4A0000122059207204FF4866211F0E1FAB1E72C
:10A4B000784605F049FF68E70FA802F06DFBE38AD4
:10A4C000BDF83C20CDF828A09B1A9BB209935EE70B
:10A4D0000022934696E7BDF83A2019495009DB005F
:10A4E00003EB800302F01F02C958012393400B4283
:10A4F00014BF4FF001084FF000085BE70A9046E7F1
:10A50000AA6A2146304601F00FFC90E709480C92F8
:10A510005C2119F0A5FF0C9A30B15C21054819F0B7
:10A520009FFF0C9A411CABE70249A9E74436002083
:10A530003C2E00204C49040000100140C849040092
:10A5400028360020402E00202DE9F04703681E78B1
:10A5500006F0C002802AD0B0044600F08C8006D8F5
:10A560007F2EB14640F0F08050B0BDE8F087C02AA1
:10A5700040F0C480DFF83C82B3F801A0D8F8003086
:10A580009904B14600F18380E06903F021FB07469E
:10A59000A06903F07BFA4FF6FF72924505AD26687D
:10A5A000A5F800900346A5F802A000F08C800322D5
:10A5B0001146AB84A388EF835B1A217A29736189E2
:10A5C000E981E1682961217C2975618AE982164463
:10A5D0006169D8F80020A96194F8201029779BB20E
:10A5E000616A6E6092042B8129623ED56A4A1268C4
:10A5F000042A3ADD802B9C4628BF4FF0800C002BAC
:10A6000000F0C580654B0FAC1F68701E21460346E5
:10A6100010F8012F4FEA121E023117F80EE001F870
:10A6200002EC023302F00F029B1BBA5C01F8012C12
:10A630009C45ECD800235A4804F81C302F2119F00F
:10A640000FFF002873D02F21554819F009FF411C36
:10A65000544A554BD3F80435CDE90124534A0092AE
:10A6600005204FF48A7211F003FA2846FFF768FEBE
:10A6700050B0BDE8F087DFF83C811E88D8F8003084
:10A6800076BA98041FFA86F923D54FF6FF7A424B23
:10A690001B68042B7FF778AF41482F2119F0E0FEAB
:10A6A000002869D02F213E4819F0DAFE411C3E4BAC
:10A6B0003F4AD3F804350092CDF80490FD220520DE
:10A6C00011F0D6F960E7B9F1FF0F14D80122114655
:10A6D0006FE7E06903F07CFA0746A06903F0D6F95A
:10A6E0004FF6FF72ADF81620022205AD03462E800C
:10A6F000114626685DE7022211465AE7DFF8B4806A
:10A70000D8F8003013F4005603D04FF0000AD146B9
:10A71000BDE7E06903F05CFA0746A06903F0B6F90B
:10A72000032205AD03462E601146266841E71C480A
:10A730005C2119F095FE28B15C21194819F090FEB2
:10A74000411C85E7164983E7DFF86880D8F80030B8
:10A750009B049AD4E06903F03BFA0746A06903F032
:10A7600095F94FF6FF72ADF81620012205AD0346AC
:10A770002E80114626681CE709485C2119F070FEFE
:10A7800038B15C21064819F06BFE411C8FE70FAC15
:10A7900050E703498BE700BF3C2E0020442E0020E9
:10A7A0004C490400344A040000100140C049040030
:10A7B000204A0400402E002003785BB1142B08D1FE
:10A7C000C388022B04D1054A137843F002031370A7
:10A7D000704770470430FFF7B7BE00BF1436002043
:10A7E00099B192B130B51C4683B05BB10B89B3F51A
:10A7F000BE7F02D3092003B030BD012807D9052050
:10A8000003B030BD0E2003B030BD0E207047184B92
:10A81000C0EBC00503EBC50393F83450ED07EED54C
:10A820009D89002DEBD1B3F804C04FF6FF75AC4500
:10A8300019D0DB88AB4216D0B1F802C00B88AC450A
:10A840000DD1FF2B11D903F44043B3F5004F0AD1CA
:10A85000134600940022FFF751FA03B030BD23F0F5
:10A860003F03C02BF4D00720C5E77E2BFBD8EFE7D2
:10A870003C36002010B5164C01F0A2FAFEF7BEFEE1
:10A8800070220021204619F0E3FD06220021114824
:10A8900019F0DEFD102200210F4819F0D9FD0F4AF2
:10A8A0000F4BE360636413780E484FF0FF3123F0E1
:10A8B00003036160E1631370042101230170A38429
:10A8C000A4F85C30BDE81040022014F01DBD00BFAC
:10A8D0003C36002034360020243600201436002078
:10A8E000FFFF0200182E002010B5174C7022002127
:10A8F000204619F0ADFD06220021144819F0A8FDEC
:10A9000010220021124819F0A3FD1248124B1349DE
:10A91000E3604FF0FF326364114B03606260012318
:10A92000E26304220A70A384A4F85C300EF03CFABF
:10A9300001F032FAFEF746FEFEF7CCFF094A137823
:10A9400023F00703137010BD3C360020343600207E
:10A950002436002018360020FFFF0200182E0020A9
:10A96000B9A7020014360020002800F0B4802DE9B9
:10A97000F0410D4682B0002900F0A580C36804466E
:10A980001BB18368002B00F09E804FF6FF732B8075
:10A99000E36813B9A368002B70D1A788002F5DD19D
:10A9A00005F0A0FB002840F09280A288DFF830E29A
:10A9B000B4F800C0608802EB42030EEB43039978C1
:10A9C000DB78D9425ED1D4E9020CBCF1000F1AD079
:10A9D000002300F102084FF6FF7638F8332030F8F4
:10A9E0003310B24221F03F0242D1FF2901F440422C
:10A9F00038D9A2F50042B2FA82F25209002A33D0C5
:10AA000001339C45E9D12B88734E4FF6FF72934278
:10AA100063D0C3EBC30306EBC30322691A632B881D
:10AA2000A268C3EBC30306EBC30300209A622B8822
:10AA3000E268C3EBC30306EBC3039A852B88626904
:10AA4000C3EBC30306EBC3039A612A88C2EBC203BC
:10AA500006EBC3039A8202B0BDE8F081052002B084
:10AA6000BDE8F0817E29CBD9072002B0BDE8F08196
:10AA7000A2F1C002B2FA82F25209BFE7092002B085
:10AA8000BDE8F081544EB389934200F08680B6F859
:10AA90004430934297D1738F834294D1338F63456F
:10AAA00008BF01238FD12B80C3EBC30306EBC30385
:10AAB00093F83430D9070AD4D4E9020CBCF1000F62
:10AAC00086D12B88A5E70E2002B0BDE8F0810F20CB
:10AAD00002B0BDE8F0810E20704796F8343013F0D4
:10AAE000010307D096F86C30DA0748BF0420B6D4CB
:10AAF00001273B46C3EBC30306EBC3034FF6FF72CC
:10AB00002F80DA802B88C3EBC30306EBC3039A8044
:10AB10002B88A188C3EBC30306EBC30399812B8861
:10AB20006188C3EBC30306EBC30359802B882188DC
:10AB3000C3EBC30326F833102B88C3EBC30306EB28
:10AB4000C3035A742188A388914203EB43030EEB9D
:10AB500043031ED0DA780132DA702B88C3EBC303CB
:10AB600006EBC30393F8342042F0010283F834204B
:10AB70001A4B29881B785B0719D4C1EBC10106EB7E
:10AB8000C10191F8343043F0020381F834302B884E
:10AB90003FE79A7801329A70DFE7738883427FF447
:10ABA00076AF338863457FF472AF3B467BE7022381
:10ABB000ADF8043001F50053ADF80630C1EBC1012A
:10ABC000019806EBC10114F06DFA00283FF479AF4B
:10ABD000784605F0B9FB74E73C36002014360020B7
:10ABE000343600202DE9F04782B089B10B89B3F5E6
:10ABF000BE7F0C4607D2012805460ED905273846E8
:10AC000002B0BDE8F0870927384602B0BDE8F087FA
:10AC10000E27384602B0BDE8F087DFF8F890C0EBA9
:10AC2000C00209EBC2024FEAC00A92F83410C90709
:10AC3000E4D591890029E1D190884FF6FF718842CF
:10AC400049D0D2888A4246D060882288884254D12E
:10AC5000FF2A59D902F44042B2F5004F3BD10227F6
:10AC6000B84698441FFA88F8404615F025FB06467A
:10AC7000002840D0638822884FF6FF718B42D0B203
:10AC800032D073701B0A3070B37022896168F0197A
:10AC900019F03AFCCDF800803346002221462846C0
:10ACA000FFF72CF80746C0B9AAEB050309EBC3036D
:10ACB000DB7C5B0711D0694201F038011331284673
:10ACC000CDF80080334622464944FEF715FE38464B
:10ACD00002B0BDE8F087072791E7304615F0EEFA9D
:10ACE000384602B0BDE8F087FF2A83BF120A7070B1
:10ACF00032703070C9E7042781E722F03F02C02A92
:10AD0000E9D10327B846ACE77E2AE4D80127B84644
:10AD1000A7E700BF3C3600202DE9F04383B091B196
:10AD2000144682B11389B3F5BE7F07D2012880464D
:10AD30000ED90524204603B0BDE8F083092420463F
:10AD400003B0BDE8F0830E24204603B0BDE8F083D5
:10AD50002E4A0D46C0EBC00102EBC10292F834103E
:10AD6000C907E6D59289002AE3D1608822884FF688
:10AD7000FF7188422DD022F03F02C02A3DD14FF012
:10AD800003094E461E44B6B2304615F095FA074602
:10AD900088B3638822884FF6FF708342D1B223D0F4
:10ADA0007B701B0A3970BB702289616807EB090050
:10ADB00019F0AAFB21463B462A4600964046FEF77C
:10ADC0009DFF0446384615F079FA204603B0BDE8E9
:10ADD000F083FF2A13D902F44042B2F5004F0CD1A0
:10ADE0004FF002094E46CDE7FF2A83BF120A797061
:10ADF0003A703970D8E704249CE707249AE77E2A42
:10AE0000FBD84FF001094E46BCE700BF3C3600209E
:10AE1000012801D90520704710B51C4CC0EBC003B8
:10AE200004EBC30382B093F8342012F0010F02D177
:10AE3000052002B010BD172924D8B3F806C08C45F0
:10AE400002D1002002B010BDD9801149097849070C
:10AE500004D442F0020283F83420F2E700F50053F4
:10AE60000222404200F03801ADF80420ADF806306F
:10AE70000198214414F016F90028E2D0784605F034
:10AE800063FADEE7072002B010BD00BF3C360020A9
:10AE90001436002081B1012801D905207047074BE5
:10AEA000C0EBC00003EBC00393F83420D207F4D505
:10AEB000DB880B80002070470E2070473C36002056
:10AEC000012829D830B5214CC0EBC00304EBC303E3
:10AED00083B093F834C01CF0010F4FEAC00231D0A8
:10AEE00093F813E001F007030EF007059D4204D12B
:10AEF000C1F3C403B3EBDE0F0BD0154B121A1B7852
:10AF000004EBC2025B07D17408D44CF0020C82F847
:10AF100034C0002003B030BD0520704700F5005359
:10AF20000222404200F03801ADF80420ADF80630AE
:10AF30000198214414F0B6F80028EAD0784605F0CC
:10AF400003FAE6E7052003B030BD00BF3C36002021
:10AF50001436002081B101280CD8084BC0EBC0008A
:10AF600003EBC00393F83420D20703D5DB7C0B70CE
:10AF700000207047052070470E2070473C360020A7
:10AF8000012811D808B50C4AC0EBC00302EBC3037B
:10AF900093F83420D2070DD59A693AB141B199841A
:10AFA000FEF7F8FF002008BD05207047062008BD09
:10AFB000072008BD052008BD3C360020012834D8F4
:10AFC00070B50446284DC4EBC40305EBC30382B03F
:10AFD00093F83460F6074FEAC00041D59E69002E11
:10AFE00039D03F2A39D8032937D89B7CB2EB930F4D
:10AFF00003D103F003038B4214D0001B05EBC00602
:10B0000001F0030141EA82022046B274FEF7C2FF5A
:10B01000164B1B785B070AD496F8343043F00203D2
:10B0200086F83430002002B070BD0520704704F56A
:10B03000005302226442ADF80420ADF8063004F05B
:10B0400038040198291914F02DF80028EAD0784620
:10B0500005F07AF9E6E70620E5E7072002B070BDC3
:10B06000052002B070BD00BF3C3600201436002021
:10B07000D9B1D2B1012801D9052070470D4BC0EBE1
:10B08000C00003EBC00393F83400C007F4D59869FF
:10B0900068B193F812C0CCF3010C81F800C09B7C1E
:10B0A000C3F385030020137070470E2070470620FD
:10B0B000704700BF3C360020F0B583B0044605F071
:10B0C00011F8002856D1012C02D9052003B0F0BD9B
:10B0D000364DC4EBC40305EBC303E60093F83420FC
:10B0E000D207F2D5DB89022B01D00020EEE7304AEF
:10B0F000137813F0010140D0137ADF0748BF042012
:10B10000E4D4012143F2010C08460F4623F0040366
:10B1100043F0010302F83730331B05EBC303254F1F
:10B12000D8813B7858072DD502EBC102ADF806C097
:10B130005368DB4300930223ADF80430019869465D
:10B1400013F0B0FF70BB3B785B0721D5022204F5FA
:10B1500000536142ADF80420ADF8063001F038012B
:10B160000198294413F09EFF0028BED0784605F0D0
:10B17000EBF8BAE70F2003B0F0BD4FF4405C08468F
:10B180000F46C3E712F8313043F0020302F83130C2
:10B19000331B05EBC30393F8342042F0020283F81B
:10B1A0003420A2E7784605F0CFF8CCE73C36002003
:10B1B0002436002014360020012801D905207047CC
:10B1C0001F4BC0EBC00003EBC00393F83420D20741
:10B1D000F4D5DA89022A2AD0172926D830B5D30027
:10B1E000184D04330120EC5800FA01F10C4283B0F1
:10B1F00002D0002003B030BD0C431349EC500B7853
:10B200005B0716D5022302F54052ADF80430ADF8C5
:10B210000620E44301980094694613F043FF002898
:10B22000E7D0784605F090F8E3E70720704706205E
:10B23000704715F8323043F0020305F83230D8E792
:10B240003C3600202436002014360020012801D985
:10B2500005207047204BC0EBC00003EBC00393F800
:10B260003420D207F4D5DA89022A2BD0172927D81F
:10B2700030B5D300194D04330120EC5800FA01F128
:10B280000C4283B002D1002003B030BD24EA010497
:10B290001349EC500B785B0716D5022302F5405298
:10B2A000ADF80430ADF80620E443019800946946F7
:10B2B00013F0F8FE0028E6D0784605F045F8E2E7FE
:10B2C000072070470620704715F8323043F002031C
:10B2D00005F83230D7E700BF3C3600202436002086
:10B2E0001436002089B382B3012801D905207047A4
:10B2F00070B51A4BC0EBC00003EBC00E9EF83430A3
:10B30000DB0724D5BEF80E30022B24D00023144DC9
:10B31000168813800124BEF80E00012804FA03FCED
:10B3200001D9002070BD55F830001CEA000F03D190
:10B330000133182BEFD1F4E71088864209D921F8A0
:10B340001030108801301080F2E70E207047052081
:10B3500070BD092070BD062070BD00BF3C360020C6
:10B3600028360020012801D90520704730B51F4D2F
:10B37000C0EBC00E05EBCE0E83B09EF83430DA077A
:10B3800002D4052003B030BD08292BD8424202F078
:10B39000380202F1080C012355F80C408B401C4286
:10B3A00001D00020EEE71C43114B45F80C401B7800
:10B3B0005B0706D49EF8343043F002038EF8343035
:10B3C000EFE700F500500223ADF80430ADF80600B9
:10B3D0000198A91813F066FE0028E2D0784604F020
:10B3E000B3FFDEE7072003B030BD00BF3C360020CE
:10B3F00014360020012801D90520704730B51F4DB3
:10B40000C0EBC00E05EBCE0E83B09EF83430DA07E9
:10B4100002D4052003B030BD08292CD8424202F0E6
:10B42000380202F1080C012355F80C408B401C42F5
:10B4300001D10020EEE724EA0304114B45F80C404B
:10B440001B785B0706D49EF8343043F002038EF875
:10B450003430EEE700F500500223ADF80430ADF8CB
:10B4600006000198A91813F01DFE0028E1D07846C7
:10B4700004F06AFFDDE7072003B030BD3C36002052
:10B4800014360020002900F09980002A00F09680F0
:10B49000012801D90520704730B54B4CC0EBC003E3
:10B4A00004EBC30393F83430DB0740F18980434257
:10B4B00003F0380308334FF0000C1088A2F800C0E6
:10B4C000E558ED0707D500287CD0A1F800C04FF063
:10B4D000010CA2F800C0E558AD070CD5B2F800C0C9
:10B4E00060456FD94FF0010E21F81CE0B2F800C0A2
:10B4F000F444A2F800C0E5586D070DD5B2F800C0BD
:10B5000060455FD94FF0020E21F81CE0B2F800C090
:10B510000CF1010CA2F800C0E5582D070DD5B2F8CA
:10B5200000C060454ED94FF0030E21F81CE0B2F880
:10B5300000C00CF1010CA2F800C0E558ED060DD5D5
:10B54000B2F800C060453DD94FF0040E21F81CE070
:10B55000B2F800C00CF1010CA2F800C0E558AD062D
:10B560000DD5B2F800C060452CD94FF0050E21F87A
:10B570001CE0B2F800C00CF1010CA2F800C0E558C4
:10B580006D060DD5B2F800C060451BD94FF0060E10
:10B5900021F81CE0B2F800C00CF1010CA2F800C0C8
:10B5A000E3581B0608D5138898420BD9072021F8C9
:10B5B0001300138801331380002030BD0E20704724
:10B5C000052030BD092030BD3C360020012801D9BE
:10B5D0000520704710B51C4CC0EBC00304EBC3033F
:10B5E00082B093F8342012F0010F02D1052002B08E
:10B5F00010BD082924D8B3F804C08C4502D100201E
:10B6000002B010BD998011490978490704D442F06D
:10B61000020283F83420F2E700F500530222404290
:10B6200000F03801ADF80420ADF80630019821444F
:10B6300013F038FD0028E2D0784604F085FEDEE7FE
:10B64000072002B010BD00BF3C3600201436002099
:10B6500081B1012801D905207047074BC0EBC0001C
:10B6600003EBC00393F83420D207F4D59B880B80FA
:10B67000002070470E2070473C36002000B585B092
:10B6800003068DF8070009D4012807D00DF1070142
:10B69000044813F007FD05B05DF804FB072005B072
:10B6A0005DF804FB02000040014B1878704700BFB2
:10B6B000182E002081B1012801D905207047074BC1
:10B6C000C0EBC00003EBC00393F83420D207F4D5DD
:10B6D0001B7C0B70002070470E2070473C3600200A
:10B6E000012801D90520704710B51C4CC0EBC003E0
:10B6F00004EBC30382B093F834C01CF0010F02D1F5
:10B70000052002B010BD81F080027E2A23D95A7C28
:10B710008A4202D1002002B010BD114A5974127839
:10B72000520704D44CF0020C83F834C0F2E700F561
:10B7300000530222404200F03801ADF80420ADF879
:10B7400006300198214413F0ADFC0028E2D0784681
:10B7500004F0FAFDDEE7072002B010BD3C36002001
:10B760001436002081B1012801D905207047074B0C
:10B77000C0EBC00003EBC00393F83420D207F4D52C
:10B780005B7C0B70002070470E2070473C36002019
:10B7900031B118B9034B1B880B80704705207047E7
:10B7A0000E2070473436002031B118B9034B9B7816
:10B7B0000B707047052070470E207047343600200C
:10B7C00031B118B9034BDB780B7070470520704717
:10B7D0000E20704734360020A1B1012801D9052080
:10B7E0007047094BC0EBC00003EBC002C00092F8E9
:10B7F00034C01CF0010FF2D052884A801B5A0B80D3
:10B80000002070470E2070473C3600205AB340BBE2
:10B8100010B416484FF6FF74148084898BB283B03D
:10B82000090C1CB9B0F802C08C4511D0B0F84440E6
:10B8300024B1052003B05DF8044B7047448F8C425F
:10B84000F7D1018F9942F4D1012414800020F1E74F
:10B85000B0F800C09C45F8D0B0F84440002CE8D1C6
:10B86000ECE7052070470E20704700BF3C360020F3
:10B8700021B31AB330BB30B41488108004B3124B18
:10B8800093F834C01CF0010F06D09D8925B90880BB
:10B8900001208442108013D093F86C40E40702D456
:10B8A000002030BC7047B3F84430002BF8D101239E
:10B8B00021F81030138801331380F1E70E20704710
:10B8C0000920EEE7052070473C36002081B10128B1
:10B8D00001D905207047074BC0EBC00003EBC00344
:10B8E00093F83420D207F4D51B6B0B60002070470F
:10B8F0000E2070473C360020012801D905207047F2
:10B90000F0B5224FC0EBC00507EBC50583B095F835
:10B910003430DA07044602D4052003B0F0BD4642B5
:10B9200006F03806002206F1140011463844FDF7EF
:10B9300087FE204600F098FAE88801F07DFB144B62
:10B94000391D1A784FF0FF30002388516B746B82D9
:10B95000AB75530708D495F8343043F0020385F8EB
:10B960003430002003B0F0BD022304F50054ADF8DC
:10B970000430ADF806400198B91913F093FB002884
:10B98000EFD0784604F0E0FCEBE700BF3C36002047
:10B9900014360020082812D838B50E4D95F83430EA
:10B9A000DA07044602D5AB8883420AD095F86C309A
:10B9B000DB0702D5AB8FA34207D0002038BD07209C
:10B9C00070470020FFF798FFF0E70120FFF794FF92
:10B9D000F3E700BF3C36002038B52E4C2C2303FB88
:10B9E0000043054693F84030002B3CD0B4F870304B
:10B9F0009BB32C2202FB0542013B00219BB282F843
:10BA00004010A4F870301BB3B4F87230AB4200D0D1
:10BA100038BD906B204B94F8401094F86C20034490
:10BA200029BB1AB1616ECB1A002B2EDB4FF6FF73C8
:10BA3000A4F87230784604F087FCB4F872302C22F7
:10BA400002FB0343996B1348BDE838400DF068BF13
:10BA5000BDE838400F480DF00FBF784604F074FC85
:10BA6000B4F87030C5E7784604F06EFCBEE7A06B12
:10BA7000C11A0029D5DA22B90023A4F87230014690
:10BA8000E1E7616E0B1A002BF6DA0123A4F872309D
:10BA9000D9E700BFAC360020008793032DE9F041C1
:10BAA000984CB4F8703084B00546002B4ED04FF659
:10BAB000FF73954FA4F8723094F8403001223A7029
:10BAC00005F57A765BB1236B9B1B002B42DBA36BE6
:10BAD0009B1B002B4FF00003A4F8723066DB94F838
:10BAE0006C30ABB1E36D9B1B002B48DB636E9E1B80
:10BAF000002EC0F29A80B4F872204FF6FF718A428D
:10BB000020D02C2101FB0242926B9B1A002B19DBE7
:10BB1000B4F8703053B1B4F87230012B0CD82C2229
:10BB200002FB03439A6B531B48BFAB1A0022E3602E
:10BB30003A7004B0BDE8F081784604F005FCB4F832
:10BB40007230ECE70123A4F87230E1E7784604F0A4
:10BB5000FBFBACE7002384F84030B4F87030208B56
:10BB6000013B03A9A4F87030FFF7B0FE002840F0B5
:10BB70009B80636B0399208B01229847AFE7B4F851
:10BB80007030B4F844000022013B03A984F86C2013
:10BB9000A4F87030FFF79AFE002840F08980236EE9
:10BBA0000399B4F8440001229847B1E75749208B24
:10BBB000FFF718F8804650B3554B1B689A0419D507
:10BBC000544B1B68042B15DD53482F2118F048FCFB
:10BBD000002871D02F21504818F042FC411C4F4BD7
:10BBE0004F4AD3F804350092CDF804808322052013
:10BBF0000FF03EFFB8F1080F09D0B8F1040F7BD069
:10BC0000B8F10F0F78D0784604F09EFB05E0D4E938
:10BC10000E231A445B00A263E363226BA36BD31A67
:10BC2000002BBFF65CAFA26359E701233D49B4F88E
:10BC30004400A4F87230FEF7D5FF064630B3344B0B
:10BC40001B689B0418D5334B1B68042B14DD32484A
:10BC50002F2118F005FC002839D02F212E4818F08C
:10BC6000FFFB411C2D4B2E4AD3F804350092019660
:10BC7000832205200FF0FCFE082E07D0042E31D0C1
:10BC80000F2E2FD0784604F05FFB05E0D4E919238E
:10BC90001A445B00C4E91923E26D636ED31A002BCA
:10BCA000BFF636AF626633E7784604F04DFB60E7D7
:10BCB000784604F049FB72E717485C2118F0D0FB86
:10BCC000F0B15C21144818F0CBFB411C87E7124807
:10BCD0005C2118F0C5FB88B15C210F4818F0C0FB4F
:10BCE000411CBFE701232C2202FB03439A6B02F5A0
:10BCF0006A4260329A630BE70023F4E70649B1E732
:10BD000005496CE7AC36002020370020C8360020FB
:10BD1000402E00203C2E00203C4A04000010014030
:10BD20009C4A0400F43600200128F8B504460E466B
:10BD3000154602D9784604F007FB164F0EF078FC42
:10BD400097F8400010B13A8BA2420AD097F86C20C5
:10BD50001AB1B7F84420A24218D0BDE8F8400EF05E
:10BD6000A7BC002002462C2101FB02773288B98D46
:10BD70009142F2D17288F98D9142EED1FFF72CFEFB
:10BD80007B6B0022294620469847E6E701200246C1
:10BD9000E9E700BFAC36002010B5064C7422002144
:10BDA000204618F055FB044B0449A16000221A708C
:10BDB00010BD00BFAC360020203700209DBA020025
:10BDC00070B5264C82B00EF033FCB4F87030002B06
:10BDD00035D194F84030EBB994F86C3023B902B007
:10BDE000BDE870400EF064BCB4F844501C48246EAA
:10BDF00000212C2218F02CFB01A92846FFF766FD34
:10BE000040BB019902222846A04702B0BDE870401D
:10BE10000EF04EBC258B1348666B00212C2218F0C7
:10BE200017FB01A92846FFF751FD78B901990222B5
:10BE30002846B04794F86C30002BD0D0D4E70023CC
:10BE40002046A4F870300DF017FDC2E7784604F0E4
:10BE50007BFAEBE7784604F077FAD2E7AC360020BD
:10BE6000F0360020C436002070B5012882B003D916
:10BE70000524204602B070BD184D04460EF0D8FBD4
:10BE800095F8403013B12B8BA3420FD095F86C304E
:10BE90002BB905240EF00CFC204602B070BDB5F89D
:10BEA0004430A342F5D10120064601E000200646B9
:10BEB000FFF792FD01A92046FFF708FD48B92C23A2
:10BEC00003FB0655204601996B6B0222984700241C
:10BED000E0E7784604F038FAF1E700BFAC3600201E
:10BEE000C0F30F40A0F5805080B20F2816D810B4D0
:10BEF0000B4C01232268834012EA030C83B008D163
:10BF00001A43084B098822609A1C23F8201022F853
:10BF100020C0002003B05DF8044B70470520704737
:10BF2000B8370020EC3B002010B5000C012882B08F
:10BF30000C4602D0784604F007FA044A044B22600B
:10BF400008212181636002B010BD00BF0400080019
:10BF50000100100010B5000C012882B00C4602D080
:10BF6000784604F0F1F92388042B13D1A388012B20
:10BF700010D16388082B0DD12389082B0AD1E388BF
:10BF8000102B07D1054A1378002043F001031370EA
:10BF900002B010BD0B2002B010BD00BFA4370020BE
:10BFA00030B5C0F30F44A4F58054A4B20F2C83B075
:10BFB0000D460FD80B4B620904F01F0153F82220E5
:10BFC00001238B40134209D0074B33F824302B80D8
:10BFD00003B030BD784604F0B7F9EBE7784604F0DB
:10BFE000B3F9F1E7B8370020EC3B002010B5000CA6
:10BFF000022882B00C4602D0784604F0A5F9084B1E
:10C000001B68DB0707D507490422204602B0BDE8BC
:10C01000104018F079BA784604F096F9F3E700BFBB
:10C02000BC370020E83B002030B5C0F30F44A4F536
:10C030000054A4B2072C83B00D4615D80E4B6209EC
:10C0400004F01F0153F8222001238B4013420FD02C
:10C050000A4904EB8404102201EB8401284603B052
:10C06000BDE8304018F050BA784604F06DF9E5E7C5
:10C07000784604F069F9EBE7B4370020303C002043
:10C0800070B5040CB4F5A04F82B00D4602D07846CE
:10C0900004F05AF9A4F5A044104BC4F34A1204F07A
:10C0A0001F0153F8222001238B401342A4B210D069
:10C0B000162303FB04F40A4EA11D31441022281D4F
:10C0C00018F022FA335B2B80264473886B8002B011
:10C0D00070BD784604F038F9EAE700BFA8370020C1
:10C0E000D037002030B5000C022883B00C4602D0B7
:10C0F000784604F029F90C4D2B68DB0702D50020A7
:10C1000003B030BD20880CF09DFC012809D1074800
:10C110000422214618F0F8F92B6843F001032B6044
:10C12000EDE70B2003B030BDBC370020E83B00201A
:10C13000F0B5C0F30F44A4F54054A4B2032C83B06F
:10C140000D4623D824220021284618F081F96109E0
:10C15000174A012352F8212004F01F018B4013429B
:10C1600022D0AC23134E03FB04F43719335B2B802E
:10C1700097F86430AB70A11C31441022E81C18F011
:10C18000C3F997F864302BB903B0F0BD784604F0DA
:10C19000DBF8D7E712341022311905F1130003B090
:10C1A000BDE8F04018F0B0B9784604F0CDF8D8E713
:10C1B000B03700203839002070B5C0F30F44A4F523
:10C1C0008044A4B2072C82B00D4622D8262200213A
:10C1D000284618F03DF96109174A012352F8212039
:10C1E00004F01F018B40134221D02A2303FB04F4E7
:10C1F000124EA11D10223144681D18F085F9325BE2
:10C200002A8033195A886A809B7D2B712BB902B022
:10C2100070BD784604F098F8D8E719341022311927
:10C2200005F1150002B0BDE8704018F06DB9784610
:10C2300004F08AF8D9E700BFAC370020E8370020C7
:10C240002DE9F041274EAC2402FB04F4154604F11D
:10C250006803321933440F469367804610B9224B66
:10C2600001221A7004F12201314438460FF00CFB10
:10C2700040BB04F17C01314438460FF017FB60BB32
:10C28000A01C394610223044123418F03DF9102217
:10C290000021301918F0DCF8AC2305FB03F3F21889
:10C2A0006809124926F80380002382F8643005F0FB
:10C2B0001F0551F820300122AA40134341F82030D5
:10C2C000BDE8F081784604F03FF804F17C01314488
:10C2D00038460FF0EBFA0028D2D0784604F034F854
:10C2E000CEE700BF38390020CC370020B03700201F
:10C2F00070B5C0F30F44A4F54054A4B2032C82B02F
:10C3000017D8174A01231268A34013420ED10D46D5
:10C31000224631F8030B134EFFF792FFAC2303FBC9
:10C3200004F43219AB7882F864302BB9002002B0E3
:10C3300070BD052002B070BD133504F1120029460E
:10C3400010223044433418F0DFF8311928460FF03A
:10C350009BFA0028EAD0784603F0F6FFE6E700BF34
:10C36000B03700203839002030B5C0F30F4404F551
:10C370004054A4B20D4683B031F8030B2246FFF7B8
:10C380005FFF0749074BA878AC2202FB04320B7809
:10C3900082F8640043F0040300200B7003B030BD4A
:10C3A000A437002038390020000CB0F5A04F1AD176
:10C3B00070B50E4C2368DB0782B002D5002002B0B6
:10C3C00070BD0B4D51F8046B1022284618F09CF8F4
:10C3D000236845F8066C01221343002025F8022C3F
:10C3E000236002B070BD0520704700BFA837002051
:10C3F000D6370020030CA3F5005292B2072A2DD89D
:10C400002DE9F041184D0124286804FA02F2024295
:10C4100082B003D0002002B0BDE8F081A3F5FF5345
:10C42000103B9BB2A3F1100404EB8407DFF83C80BF
:10C43000BF00381D0E464044102218F065F808EB86
:10C44000070130460FF05EFA50B92B680122A24076
:10C45000134300202B6002B0BDE8F0810520704737
:10C46000784603F071FFF0E7B43700202C3C002041
:10C470002DE9F04F000C00F50054A4B2072C83B056
:10C480000F463DD900F5805084B2072C56D84FF0A6
:10C49000010A2C4A2C4E1378BB4643F00403137058
:10C4A0002A255BF8049B04FB05F5A81D05F1190876
:10C4B000102259463044B04418F026F805350021C2
:10C4C0001022404617F0C4FF711958460FF0D0F9FA
:10C4D00060BB1E4801220368A2402A25134304FBC7
:10C4E00005F50360731900221A7146F8059083F868
:10C4F00016A0BAF1000F06D1002003B0BDE8F08FFE
:10C500004FF0000AC5E7143739464046102217F0AD
:10C51000FBFF05F11801314438460FF0A9F948B97D
:10C520002A2303FB04631A79DA75E5E7784603F0FA
:10C530000BFFCEE7784603F007FFF1E7052003B0D5
:10C54000BDE8F08FA4370020E8370020AC3700208A
:10C550002DE9F04FC0F30F44A4F58044A4B2072C9A
:10C5600083B03ED8DFF8BC900E460125D9F8001004
:10C57000A54015EA010A30D133464FF02A0853F896
:10C5800005BB274F009308FB04F808F10600194685
:10C590001022384417F0B8FF514608F1190ABA447E
:10C5A0001022504617F054FF009B08F10501184671
:10C5B00039440FF05DF958BB2A2304FB03F3FA1842
:10C5C00000219175117147F803B0D9F800302B4361
:10C5D000C9F80030337993753BB9002003B0BDE84A
:10C5E000F08F052003B0BDE8F08F15363146504678
:10C5F000102217F089FF08F11801394430460FF076
:10C6000037F948B92A2303FB04731A79DA75E4E78A
:10C61000784603F099FECFE7784603F095FEF1E700
:10C62000E8370020AC37002070B50F2882B013D84F
:10C63000274C0123226803FA00F5154202D1052098
:10C6400002B070BD234901EB8002967816B9D2780A
:10C65000002A2FD00020F3E7A0F110039BB2072B94
:10C66000EDD81D4C0122216802FA03F50D42E6D0F7
:10C670001A4903EB83034FEA830C01EB83039E7893
:10C68000002EE7D1DB78002BE4D100F5FF5010300D
:10C69000ADF80420ADF80600019821F80C3012F036
:10C6A000CFFD10B1784603F04FFE236823EA05035F
:10C6B0002360CFE721F8202000F58050ADF804304A
:10C6C000ADF80600019812F0BBFD0028EDD0E9E7B7
:10C6D000B8370020EC3B0020B43700202C3C002071
:10C6E0000388012B00D070474388A3F54052032AEA
:10C6F00005D8142904BFA3F5C04343807047A3F5B0
:10C700008042072AEFD82429F3D1A3F5A043438020
:10C71000704700BF30B5074A137813F0020587B0A1
:10C7200040F04481D90740F161815C0704D40020C6
:10C7300007B030BDA43700209E4C21680120ADF821
:10C74000080065F38203C807137015D54FF44053F2
:10C75000ADF80A30029812F073FD2368ADF804506A
:10C76000D90740F163819448039001A912F09AFC23
:10C7700010B1784603F0E8FD23689A0716D543F216
:10C780000103ADF80A30029812F05AFD2368002226
:10C790009B07ADF8042040F13D818848039001A932
:10C7A00012F080FC10B1784603F0CEFD23685D07DF
:10C7B00016D543F20203ADF80A30029812F040FD9C
:10C7C000236800225807ADF8042040F127817C48F7
:10C7D000039001A912F066FC10B1784603F0B4FD95
:10C7E0002368190716D543F20303ADF80A300298FF
:10C7F00012F026FD23680022ADF804201A0740F14C
:10C8000011817048039001A912F04CFC10B17846D8
:10C8100003F09AFD6C4C2368DB0715D54FF4804379
:10C82000ADF80A30029812F00BFD23680022DD07F4
:10C83000ADF8042040F11E816448039001A912F074
:10C8400031FC002840F00E812368980715D544F28A
:10C850000103ADF80A30029812F0F2FC23680022BE
:10C860009907ADF8042040F119815948039001A9B6
:10C8700012F018FC002840F0DD8023685A0715D517
:10C8800044F20203ADF80A30029812F0D9FC236892
:10C8900000225B07ADF8042040F104814D4803906D
:10C8A00001A912F0FFFB002840F0C88023681D0793
:10C8B00015D544F20303ADF80A30029812F0C0FC1B
:10C8C000236800221807ADF8042040F1DF804248B9
:10C8D000039001A912F0E6FB002840F0B380236822
:10C8E000D90615D544F20403ADF80A30029812F0C7
:10C8F000A7FC23680022ADF80420DA0640F1CA80C4
:10C900003648039001A912F0CDFB002840F09E802C
:10C9100023689B0615D544F20503ADF80A3002984A
:10C9200012F08EFC236800229D06ADF8042040F131
:10C93000A5802B48039001A912F0B4FB002840F019
:10C9400089802368580614D544F20603ADF80A30EE
:10C95000029812F075FC236800225906ADF80420F5
:10C9600040F190801F48039001A912F09BFB002822
:10C9700074D123681A067FF5DAAE44F20703ADF8E6
:10C980000A30029812F05CFC236800221B06ADF806
:10C9900004206BD51448039001A912F083FB0028F2
:10C9A0003FF4C5AE784603F0CFFCC0E60B2007B0DD
:10C9B00030BD00BFB0370020010000300100013061
:10C9C0000100023001000330AC37002001000040BC
:10C9D0000100014001000240010003400100044049
:10C9E0000100054001000640010007402F4A07CA28
:10C9F00003AB03C34FF0011403A920461A8002942D
:10CA000012F050FB10B9052007B030BD784603F096
:10CA10009BFCF8E7784603F097FCBEE6784603F007
:10CA200093FCD4E6784603F08FFCEAE6784603F000
:10CA30008BFC98E6784603F087FC1EE7784603F007
:10CA400083FC33E7784603F07FFC48E7784603F041
:10CA50007BFC5DE7784603F077FC72E7784603F0ED
:10CA600073FC86E7784603F06FFCEDE6784603F04A
:10CA70006BFC8FE7784603F067FCDDE6784603F051
:10CA800063FC56E7784603F05FFC6BE7784603F0FB
:10CA90005BFC1CE7784603F057FC31E7784603F06F
:10CAA00053FCE2E6784603F04FFCF7E6DC5D040059
:10CAB0002548264B10B5002421464480C482448575
:10CAC000C487A0F85240A0F86640A0F87A40A0F8C9
:10CAD0008E4004221E485C80DC805C81DC815C82AC
