:100000000000042089030000710300007303000056
:100010007503000077030000790300000000000072
:100020000000000000000000000000007B03000052
:100030007D030000000000007F030000810300003A
:100040008303000083030000E93F000083030000F6
:100050008303000083030000E13E000083030000EF
:100060008303000083030000830300008303000078
:100070008303000083030000830300008303000068
:100080008303000095270000830300008303000022
:100090008303000083030000830300008303000048
:1000A0008303000083030000830300008303000038
:1000B0008303000083030000000000000000000034
:1000C0008303000083030000830300008303000018
:1000D0008303000083030000830300008303000008
:1000E000830300008303000083030000000000007E
:1000F00000000000830300000000000083030000F4
:1001000000000000000000000000000000000000EF
:1001100000000000000000000000000000000000DF
:1001200000000000000000000000000000000000CF
:1001300000000000000000000000000000000000BF
:1001400000000000000000000000000000000000AF
:10015000000000000000000000000000000000009F
:10016000000000000000000000000000000000008F
:10017000000000000000000000000000000000007F
:10018000000000000000000000000000000000006F
:10019000000000000000000000000000000000005F
:1001A000000000000000000000000000000000004F
:1001B000000000000000000000000000000000003F
:1001C000000000000000000000000000000000002F
:1001D000000000000000000000000000000000001F
:1001E000000000000000000000000000000000000F
:1001F00000000000000000000000000000000000FF
:100200003A493B480A1A02D0072291438D463949A0
:1002100039480A1A06D00722914381F3098802223D
:1002200082F3148835483649364A00F041F836489A
:100230003649374A00F03CF836483749374A00F02B
:1002400037F837483749384A00F032F837483849E4
:10025000384A00F02DF838483849394A00F028F873
:1002600038483949394A00F023F8394839490022D9
:1002700000F036F838483949002200F031F83848A3
:100280003849091A06F0DEFA374A904725482649C8
:10029000884205D00268043003B4904703BCF7E7F6
:1002A00000208646EC4600200021304A9047FEE7B9
:1002B000884214D0521A12D003460B43134303242E
:1002C000234206D1036804300B600431043AF9D1AB
:1002D0007047037801300B700131013AF9D1704752
:1002E000884202D002700130FAE770470000042013
:1002F00000E003200000042000000420547D0000E2
:100300000000002080000020E4030000E40300005F
:10031000E4680000547D0000000000200000002080
:1003200058690000586900005869000058690000C9
:1003300058690000586900005869000058690000B9
:10034000517D0000D47D000080000020800000204E
:10035000800000208C1000208C1000208C100020C9
:100360008C1000208C300020B10300007D5D000067
:10037000FEE7FEE7FEE7FEE7FEE7FEE7FEE7FEE755
:10038000FEE7FEE700F002B8FFF7FCBF0F484FF0B2
:100390000701884385460E4880470E48016841F4AE
:1003A00070010160BFF34F8FBFF36F8FFFF728BF5E
:1003B00009480A490A4A884207D0521A05D00378E8
:1003C00001300B700131013AF9D17047000004206F
:1003D0004565000088ED00E058690000000000203D
:0403E00000000020F9
:1003E40000B585B00190019B002B0AD0074B43F068
:1003F40001030393019B9B010293039B029898477B
:1004040000E000BF05B05DF804FB00BF70690000A8
:1004140000B583B00190019B002B0AD04FF47A7091
:10042400FFF7DEFF019B013B0193019B002BF5D1FC
:1004340000E000BF03B05DF804FB08B505F0A0FEC2
:1004440000BF08BD00B589B0039002910192019BE1
:10045400002B33D00023079303230693029A079BB0
:100464001344019A1946002005F03AFE0590079AB4
:10047400059B13440793019A059BD31A0193059B8B
:10048400002B13D10F4B1B7883F00103DBB2002B3D
:1004940013D10120FFF7BCFF069B013B0693069B8B
:1004A400002B03D1074B00221A7007E0054B0122F1
:1004B4001A70019B002BD1D100E000BF00BF09B02E
:1004C4005DF804FB8000002000B585B00390029124
:1004D400054B00934023054A0299039800F012F853
:1004E40000BF05B05DF804FB49040000840000204F
:1004F40082B0019000BF02B0704782B0019000BF8B
:1005040002B0704700B5A1B0059004910392029324
:10051400049802F0EDFF039B1593029B16930023AE
:10052400179300238DF8603000231993229B1A93AC
:1005340000231F930FA91F9B0822049803F0B2F80D
:1005440008231F93119B1293BDF84030ADF84C3033
:10055400BDF84230ADF84E3000238DF851309DF88F
:100564003C3003F00303DBB2012B26D10F9BC3F312
:1005740095231C939DF83C30C3F3C203DBB28DF882
:100584005030BDF83C30C3F38313DBB21B931B9B89
:100594009A0009A91F9B049803F084F81B9B9B00F5
:1005A4001F9A13441F9312AA09A915AB009313466B
:1005B4001B9A1C9800F0E6FF2FE09DF83C3003F0F6
:1005C4000303DBB2022B28D1BDF83E30C3F38913F9
:1005D4009BB21E939DF83C30C3F3C203DBB28DF88B
:1005E40050301E9B082B28BF08231D9307A91F9B6F
:1005F4001D9A049803F056F81F9A1D9B13441F93E9
:100604001E9A1D9BD31A1E9315AB12AA07A81D99F7
:1006140001F05AF81E9B002BE3D1049802F077FFF7
:1006240000BF21B05DF804FB00B583B00190019BCD
:100634001B781A460C4B9B5C002B05D0019B0433A2
:10064400184604F0D1FF0BE0019B1B781A46064BB9
:100654009B5C002B04D1019B0C33184604F04CF92D
:1006640000BF03B05DF804FBF40C002000B587B0B4
:100674000390029113468DF8073000230593039BE2
:100684001B781A46114B9B5C002B09D0039B043347
:100694009DF807200299184605F008F805900FE028
:1006A400039B1B781A46094B9B5C002B08D1039BC8
:1006B4000C339DF807200299184604F095F905902B
:1006C400059B184607B05DF804FB00BFF40C00203E
:1006D40082B001900091034B01221A7000BF02B056
:1006E400704700BF0401002030B58DB003468DF87B
:1006F40007301A4B02AC1D460FCD0FC495E80F000E
:1007040084E80F00062302934FF0FF3303934FF066
:10071400FF3304934FF0FF3305934FF0EB730893CB
:100724009DF80730002B01D00D4A00E0002202ABF7
:1007340019460C4803F032F90B900B9B0A930A9B61
:10074400002B04D0084A43210A9801F081F8074A93
:100754009DF80730137000BF0DB030BDF069000084
:10076400D506000000000020786900000501002083
:1007740000B583B001238DF807309DF80730184683
:10078400FFF7B2FF00BF03B05DF804FB00B589B00A
:10079400039002910192019B8DF81F30124B0022AD
:1007A4001A709DF81F301A4602991048FFF75EFF31
:1007B4000690069B0593059B002B04D00C4A5321FD
:1007C400059801F045F800BF0A4B1B78002B07D0B1
:1007D400054B1B78DBB283F00103DBB2002BF3D1B2
:1007E40000BF09B05DF804FB0401002000000020F4
:1007F400786900000501002000B585B003900291DE
:10080400054B00934023054A02990398FFF77AFEAB
:1008140000BF05B05DF804FB91070000C400002090
:1008240082B0019000BF02B07047000000B583B0F1
:1008340001900548FFF7F8FE0020FFF755FF00BFC1
:1008440003B05DF804FB00BF0000002082B00190FB
:10085400019BDB6801225A7100BF02B0704700009F
:1008640000B583B04FF0FF330193FFF7E6FD042199
:10087400114800F0A3FD0190019B002B03DA0F49FE
:10088400412001F093FF0C48FFF7E0FFFFF770FFF2
:1008940004210B4800F092FD0190019B002B03DA28
:1008A4000649482001F082FF0548FFF7CFFF00BF4B
:1008B40003B05DF804FB00BF24690000406A000037
:1008C4003469000000B583B001900091019B1B685E
:1008D4001B6800990198984700BF03B05DF804FBBA
:1008E40000B583B00190019B1B685B680198984731
:1008F40000BF03B05DF804FB00B583B00190019B19
:100904001B689B680198984700BF03B05DF804FB1F
:1009140082B001900B468DF80330019BDB689DF893
:1009240003201A7100BF02B0704782B00190019B8E
:10093400DB681B79184602B0704782B00190019BB6
:10094400DB6801225A7100BF02B0704782B0019087
:10095400019BDB685B79184602B0704700B585B02F
:10096400019000910C4B00221A700C4802F024FDF7
:100974000390039B002B01D0039B08E0084802F07E
:10098400B1FE084A084BD31ADB0802930023184629
:1009940005B05DF804FB00BF1008002044690000A6
:1009A400BC6A000024690000E4680000024A034BAA
:1009B400D31ADB081846704724690000E468000075
:1009C40000B587B001900B468DF803309DF80330D5
:1009D400002B1FD0FFF7EAFF04900023059313E0D8
:1009E400059B9B000E4A13440393039B1B881A46E2
:1009F400019B1B689A4204D1019B059A1A6000234B
:100A040009E0059B01330593059A049B9A42E7D3B9
:100A1400052300E00023184607B05DF804FB00BF7F
:100A24000000002000B585B001900B468DF803301E
:100A34009DF8032001AB11461846FFF7C1FF03469A
:100A4400002B07D1019BDB00054A13440393039B4E
:100A54001B6800E00023184605B05DF804FB00BFE6
:100A6400E468000084B001900B468DF80330019BCC
:100A7400DB00174A134402939DF80330013B032B18
:100A84001CD801A252F823F09D0A0000A50A000018
:100A9400AD0A0000B70A000002238DF80F3011E000
:100AA40004238DF80F300DE0029B1B798DF80F3075
:100AB40008E0029B5B798DF80F3003E000238DF88A
:100AC4000F3000BF9DF80F30184604B0704700BFC8
:100AD400E468000084B00190009100238DF80F3089
:100AE400019B1B7803F00403DBB2002B24D0019B91
:100AF4001B78C3F30103DBB2012B02D0022B0CD011
:100B040017E0009B1B68019A1288C2F38312D2B2C9
:100B140013449A1C009B1A600BE0009B1B68019A0B
:100B24005288C2F3891292B213449A1C009B1A6031
:100B340000BF01238DF80F309DF80F30184604B024
:100B44007047000000B58BB00023ADF826303E4856
:100B540001F054FF3D4801F051FF3D4B9B68049365
:100B64003C4B1B680693049A069B134002339B007C
:100B7400374A13440433089304AB19460898FFF723
:100B8400A9FF0346002B09D0049A069B13400233A5
:100B94009B002F4A134404330893EDE700BF00235E
:100BA400079311E0049B5A1C0492069A1340079A77
:100BB400920001A90A44264902339B000B445B6856
:100BC4001360079B01330793079B012BEAD99DF818
:100BD4000430C3F30103DBB2012B10D0022B1CD170
:100BE400BDF80A30ADF82630BDF80630C3F38913DA
:100BF4009BB203339A08049B1344049313E0BDF897
:100C04000A30ADF82630BDF80430C3F38313DBB2E9
:100C14001A46049B1344049305E00F494FF4C27031
:100C240001F0C4FD00BF094801F0F4FE0590059BE6
:100C3400002B02D0049B064A9360BDF82630184668
:100C44000BB05DF804FB00BF280C0020240C00202E
:100C54001008002024000020CC6A000000B585B0F4
:100C64000021074801F053FE0390039B0293029B6B
:100C740083F310030193019B184605B05DF804FB50
:100C84002C0C002000B589B00390029101920093CE
:100C9400039B1B0C0793FFF7E1FF0690FFF786FE0B
:100CA4000246079B934204D3214940F2A91001F064
:100CB4007DFD069B1904009B5A1C0A9B1340079A4E
:100CC4000A431C4902339B000B445A60009A0A9B56
:100CD400134002339B00174A134404330593039BC8
:100CE40003F00703D9B2059A137861F3C5031370AF
:100CF400019B03F00F03D9B2059A138861F389139A
:100D04001380029BC3F31501059A136861F39F23B3
:100D14001360059A1378012161F301031370059A96
:100D2400137823F00403137000BF09B05DF804FBCB
:100D3400CC6A00001008002000BF704700B58BB0DB
:100D44000390029113468DF80730039B02330893F6
:100D540001238DF81F30002001F02AF93E4B5A6818
:100D6400029B1A603D4B1A683B4B99683A4B5B688F
:100D7400CB1A13440133099314E00121384801F0DC
:100D84000DFEFFF7DFFE05900599354801F006FEDC
:100D9400324B1A68304B99682F4B5B68CB1A13445B
:100DA40001330993089A099B9A42E6D89DF81F30AB
:100DB400002B48D0002304939DF80730002B17D054
:100DC4009DF81030012262F301038DF810309DF874
:100DD400103043F004038DF81030039B03F00F032D
:100DE400DAB2BDF8103062F38913ADF8103016E0B2
:100DF4009DF81030022262F301038DF810309DF843
:100E0400103043F004038DF81030039BC3F309033F
:100E14009AB2BDF8123062F38F13ADF812300E4B54
:100E24005A680E4B1B68134002339B000A4A134452
:100E340004330693049A069B1A60074B5A68089B6E
:100E44001344054A5360002001F0C6F89DF81F3092
:100E540018460BB05DF804FB1008002024000020A5
:100E64002C0C002000B58BB00590049103920293E2
:100E74001F4B1B68079306AB012219460298FFF724
:100E84005DFF0346002B24D0069B02330993002305
:100E9400089311E0089B9B00039A1A44099B591C70
:100EA400099107990B401268124902339B000B44C5
:100EB4005A60089B01330893089A029B9A42E9D32B
:100EC400069A079B00931346029A04990598FFF724
:100ED400D9FE084B1B78002B04D000F069F80346B8
:100EE400002BFAD1FFF728FF00BF0BB05DF804FB1D
:100EF400240000201008002000B583B00190009168
:100F04000023002200990198FFF7ACFF00BF03B053
:100F14005DF804FB00B587B0039002910192019B38
:100F2400059305AA012302990398FFF79BFF00BFCD
:100F340007B05DF804FB00B587B0039002910192FD
:100F44000093019B0493009B059304AA0223029936
:100F54000398FFF787FF00BF07B05DF804FB00B5F7
:100F64008BB00390029101920093019B0593009B27
:100F740006930C9B07930D9B08930E9B099305AA5C
:100F8400052302990398FFF76DFF00BF0BB05DF8CE
:100F940004FB0000054B9A68044B5B689A420CBF43
:100FA40001230023DBB21846704700BF100800205D
:100FB40000B599B0FFF7EEFF0346002B01D00023E4
:100FC400BBE19C4B0022C3F81824BFF34F8F00BF32
:100FD400984B9B680493984B1B681093049A109B3E
:100FE400134002339B00934A1344043311930023A8
:100FF40017930023169300230F9304AB19461198FB
:10100400FFF768FD0346002B19D08A4BD3F8183438
:10101400002B14D1874B5A68049B9A4205D8854B00
:101024005B68844A9360002387E1049A109B134011
:1010340002339B007F4A134404331193DDE70023FA
:10104400159311E0049B5A1C0492109A1340159AAC
:10105400920001A90A44774902339B000B445B6860
:101064001360159B01331593159B012BEAD99DF849
:10107400043003F00303DBB2022B40F09E80BDF882
:101084000630C3F389139BB20D93BDF80630C3F346
:1010940089139BB2B3F5487F28BF4FF448739BB2C2
:1010A4000C930C9BC3F309039AB2BDF8063062F3A8
:1010B4008F13ADF806300C9B08330B939DF8043066
:1010C400C3F3C203DBB20F930B995C4802F07FF9C0
:1010D4001790179B002B00F0D380179802F008FAA2
:1010E40001A9169B0822179802F0BEFA169B083332
:1010F4001693049BDA43109B134001339B000A931D
:101104000C9A0A9B9A4242D90A9B002B08D0049A53
:10111400109B134002339B00464A1344043300E0FF
:10112400474B08930A9B002B02D00A9BDBB201E0D9
:101134000C9BDBB28DF81F300A9B002B01D0404B77
:1011440000E0002306930A9B002B06D00C9BDAB226
:101154000A9BDBB2D31ADBB200E000238DF8173010
:101164009DF81F20169B0899179802F07DFA9DF8A8
:101174001F30169A13441693069B002B16D09DF825
:101184001720169B0699179802F06EFA0EE0049A3F
:10119400109B134002339B00264A134404330993E3
:1011A400169B0C9A0999179802F05EFA0D9B03336B
:1011B4009A08049B1344049362E09DF8043003F0FE
:1011C4000303DBB2012B5BD1BDF80430C3F38313FB
:1011D400DBB2062B28BF0623DAB2BDF8043062F373
:1011E4008913ADF80430BDF80430C3F38313DBB2C4
:1011F40002330E939DF80430C3F3C203DBB20F93A2
:101204000E9B9B0019460D4802F0E1F81790179BBE
:10121400002B35D0179802F06BF901A9169B082210
:10122400179802F021FA169B08331693002315939E
:101234001DE000BF100800202400002044690000C5
:101244001C080020049B5A1C0492109A1340023379
:101254009B003C4A1344191D169B0422179802F064
:1012640003FA169B04331693159B01331593BDF8AB
:101274000430C3F38313DBB21A46159B9342E1D3C4
:10128400179B002B39D02F4BD3F8103414932D4BCC
:10129400D3F81834002B1BD0179802F038F946E025
:1012A40000238DF84F301498FFF750FB0346002BB2
:1012B40002D001238DF84F309DF84F30002B03D01E
:1012C40017991498FFF7FEFA149BDB681B681493B4
:1012D400149B002BE4D1179802F019F9002000F0B8
:1012E40067FE184BD3F81834002B02D1049B154A1F
:1012F4009360002000F070FE19E0124BD3F8103414
:10130400129306E01298FFF7F7FA129BDB681B684A
:101314001293129B002BF5D10B4A0C4BD31ADB080A
:101324001B0443F002030A491846FFF7E5FDFFF7E3
:1013340031FE034683F00103DBB2184619B05DF8B1
:1013440004FB00BF1008002004690000E4680000EA
:10135400406B000000B585B00023039323E0164BD7
:10136400D3F81034029301238DF807300FE002986C
:10137400FFF7DBFA03461A46039B934203D100238B
:101384008DF8073006E0029BDB681B680293029B22
:10139400002BECD19DF80730002B01D0039B07E014
:1013A400039B01330393039B092BD8DD4FF0FF33D9
:1013B400184605B05DF804FB1008002000B585B0A0
:1013C40001900B468DF80330FFF7C4FF0390039B95
:1013D400B3F1FF3F01D1039B22E0039BDBB219462B
:1013E4000198FFF795FA104BD3F81034002B08D16D
:1013F4000D4A019BC2F81034019BDB6800221A607D
:101404000DE0094BD3F81034DA68019BDB681268ED
:101414001A60054BD3F81034DB68019A1A60039BF9
:10142400184605B05DF804FB1008002000B583B031
:101434000C4BD3F8103401930A4B01221A7009E0C3
:101444000198FFF77AFA0198FFF74AFA019BDB68E3
:101454001B680193019B002BF2D100BF00BF03B0B6
:101464005DF804FB1008002082B00190009100BFD9
:1014740002B0704710B584B003900291039BDB88DF
:10148400002B0AD0039BDB881A461F4B009313469C
:101494001E4A1F49029801F0EBFB039B1B7A052BA4
:1014A4002ED0039B5B7A002B12D0039B9B881A4699
:1014B400039B1B7A19461046FFF7D4FA03461A46D3
:1014C400144B53F822301A461349029801F0D0FB0A
:1014D400039B1B6819460298FFF7C6FF039B1B7A00
:1014E4001A460E4B53F82240039B9B880021184652
:1014F400FFF798FA034622460949029801F0B8FB1F
:1015040000BF04B010BD00BF746B0000846B00000A
:10151400BC6B00003C000020D46B000028000020BD
:10152400D86B000000B585B00390029113468DF886
:101534000730039B1B7A052B0FD0039B5B7A002B90
:1015440006D00D4B1B681A460C49029801F090FB1B
:101554000B49029801F08CFB07E09DF80730002B43
:1015640003D00749029801F083FB029801F05EFB67
:1015740000BF05B05DF804FB3C000020D46B000004
:10158400E46B000030B58BB007900691059204938C
:101594000E9B1B7B8DF827300E9B00221A730E992D
:1015A4000498FFF767FF059B062B7FD801A252F82A
:1015B40023F000BFD5150000DF150000EF15000073
:1015C40003160000211600004916000079160000D9
:1015D40007990E9801F04CFB69E0069B1B681A46BC
:1015E40007990E9801F044FB61E0069B1A68069B7C
:1015F40004331B6807990E9801F03AFB57E0069BE9
:101604001A68069B04331968069B08331B68009309
:101614000B4607990E9801F02BFB48E0069B1968CE
:10162400069B04331868069B08331B68069A0C3221
:1016340012680192009303460A4607990E9801F036
:1016440017FB34E0069B1868069B04331C68069B52
:1016540008331B68069A0C3212680699103109681F
:101664000291019200932346024607990E9801F0D5
:10167400FFFA1CE0069B1C68069B04331D68069B4E
:1016840008331B68069A0C321268069910310968EF
:1016940006981430006803900291019200932B463F
:1016A400224607990E9801F0E3FA00E000BF0022F9
:1016B4000E990498FFF736FF0E9B9DF827201A73A6
:1016C40000BF0BB030BD00BF00B587B003900291DE
:1016D40001920093029B082B60D8009B1B7B8DF822
:1016E4001330009B00221A7300990198FFF7C2FE81
:1016F4000023059314E0059A029B9A4209D2039AA7
:10170400059B13441B781A462649009801F0B0FA49
:1017140003E02549009801F0ABFA059B01330593DA
:10172400059B072BE7D92149009801F0A1FA002372
:10173400059326E0059A029B9A421BD2039A059BC5
:1017440013441B788DF812309DF812307E2B0AD882
:101754009DF81230184605F038F80346002B02D0E5
:101764009DF8123000E02E231A461149009801F02A
:101774007FFA03E00F49009801F07AFA059B0133E0
:101784000593059B072BD5D9012200990198FFF7F2
:10179400C9FE009B9DF813201A7300E000BF07B038
:1017A4005DF804FBE86B0000F06B0000F46B0000D4
:1017B400F86B0000FC6B000086B00390029101926C
:1017C40001238DF817309DF81730204A039B1360CE
:1017D4001E4A029B53601D4A019B9360039B44F283
:1017E4000102934212D0039B44F20202934220D19D
:1017F400019B164AD360154BDB681B68134A93613F
:10180400124BDB685B68114AD36112E0019B0F4AFB
:1018140013610E4B1B699B680C4A53610B4B1B698C
:101824001B680A4A9361094B1B695B68074AD361C9
:1018340000BF72B600BF00BF9DF81730DBB2002BAB
:10184400FAD162B600BF00BF06B07047300C00206A
:1018540000B583B002900091019244F201007146F8
:101864006A4600F003F803B000BD00BF30B58BB08A
:1018740007900691059272B600BFFFF7D7FDFFF7F8
:1018840097FB0346002BFAD1079B44F201029342D3
:1018940016D0079B44F2020293423ED1059B099362
:1018A4002C4A2D4BD31ADB081B0443F00100099B7F
:1018B4005B681A46099B1B682849FFF73CFB39E023
:1018C400059B0893234A244BD31ADB081B0443F0DB
:1018D4000104089B9D68089B9B68184601F0C6FF9D
:1018E40003461846089B5B681946089B1B68069AC2
:1018F40002920193009103462A4619492046FFF7B4
:101904002EFB144A144BD31ADB081B0443F00103C7
:1019140014491846FFF7F0FA0CE00E4A0E4BD31A9E
:10192400DB081B0443F00103069A0F491846FFF72E
:10193400F1FA00BF0D4B1B6803F00103002B00D02C
:1019440000BE059A06990798FFF736FF00BF0BB053
:1019540030BD00BF04690000E4680000786C00003A
:10196400946C0000BC6C0000D06C0000F0ED00E052
:101974002DE9F04383B0144800F0FDFE0346002235
:101984001C461546114BD3E9002314EB020845EB22
:101994000309CDE900890E4BD3E90023DDE90001F9
:1019A400904271EB030307D2DDE9002312F1807644
:1019B40043F10007CDE90067DDE90023104619462D
:1019C40003B0BDE8F08300BF60000020580C002085
:1019D400600C002088B001900091019B0793009B4C
:1019E4000693079BD3E90223CDE90423069BD3E99D
:1019F4000223CDE90223DDE90423DDE9020190425B
:101A040071EB03032CBF01230023DBB2184608B09B
:101A140070470000F0B585B00190019B5B69002B15
:101A240003D13C49A52000F0C1FE00238DF80F30FE
:101A3400394B1B78002B68D0019B002B65D0FFF736
:101A440097FF019BD3E90223904271EB03034BD32D
:101A5400002000F0ADFA019B1B69002B06D101990F
:101A64004FF0FF324FF0FF33C1E90223002000F0B2
:101A7400B3FA019B5B69019A92691046984700206A
:101A840000F096FA019B1B69002B1AD0019BD3E945
:101A94000223B3F1FF3F08BFB2F1FF3F11D0019B16
:101AA400D3E902230199096900200C460546161959
:101AB40043EB0507019BC3E9026701238DF80E3050
:101AC40002E000238DF80E30002000F085FA9DF826
:101AD4000E30002B19D0019B1946104801F020FE4E
:101AE40001238DF80F3010E0019BD3E90223B3F1F9
:101AF400FF3F08BFB2F1FF3F07D0019B19460748DB
:101B040001F00EFE01238DF80F309DF80F301846BA
:101B140005B0F0BDF46C0000540C0020646D0000AE
:101B240030B58BB0019000910D230993009B0022E6
:101B34001A70019BD3E90223CDE90623FFF718FFAE
:101B4400DDE90623141A63EB0105CDE90445DDE95B
:101B54000423012A73F1000318DB049BB3F5350F4A
:101B640005D300F0FFF90246144B134400E0069B32
:101B740003934FF49603039A0021114800F0EEFCFE
:101B84000990099B002B05D1012314E000210C4886
:101B940000F0BCFD099B0D2B07D10198FFF73AFF1C
:101BA40003461A46009B1A7004E006494FF48670F7
:101BB40000F0FCFD002318460BB030BDFFFFB4005D
:101BC40060000020F46C000000B583B0044801F00C
:101BD400E1FD0190019B184603B05DF804FB00BFD2
:101BE400646D000000B583B0044801F0F5FD019078
:101BF400019B184603B05DF804FB00BF646D000050
:101C040000B583B0FFF7E0FF0190019B002B06D0E5
:101C140001994FF0FF324FF0FF33C1E90223019BDA
:101C2400002BEFD100BF00BF03B05DF804FB000040
:101C3400054BD3E9002312F1807043F10001024BFC
:101C4400C3E9000100BF7047580C002010B582B0F2
:101C54000190124B1B68002B1DD0019800F08BFDE6
:101C640004460021019800F077FD034619462046FA
:101C740000F06CF90346B3F5960F04D3084940F21B
:101C8400411000F093FD054B1B681846FFF7C2FE98
:101C9400024B00221A6000BF02B010BD500C00209D
:101CA400F46C000000B583B00190FFF761FE0246BA
:101CB4000B460349C1E9002300BF03B05DF804FBF0
:101CC400600C002000B587B00190FFF78BFF0490F3
:101CD40000238DF81730049B002B58D0049BD3E9C4
:101CE4000223B3F1FF3F08BFB2F1FF3F02D1FFF778
:101CF4006BFF54E02E4B1B68002B03D101238DF89E
:101D040017301DE0049BD3E90201294B1B68D3E97A
:101D14000223904271EB030312D201238DF8173092
:101D2400234B1B68D3E90223B3F1FF3F08BFB2F191
:101D3400FF3F05D01E4B1B6819461E4801F0F0FCFE
:101D44009DF81730002B2BD0FFF73EFF04900DF1C8
:101D54000F0319460498FFF7E3FE0346002B12D045
:101D6400134B1B68002B02D1019800F003FB104AAF
:101D7400049B13609DF80F3083F00103DBB2002B4A
:101D8400A3D000BF0FE00A4B00221A609DE7084B66
:101D94001B68002B06D1019800F002FB02E094E7D7
:101DA40000BF00E000BF00BF07B05DF804FB00BF48
:101DB400500C0020646D000000B587B001902B4AE0
:101DC40003AB1946104600F075FD049045E0049BF2
:101DD4001B78022B2BD0022B2FDC002B02D0012BE3
:101DE40011D02AE0049B5B68D3E90223B3F1FF3FDF
:101DF40008BFB2F1FF3F22D0049B5B6819461C4820
:101E040001F08EFC1BE0049B5A681A4B1B689A4233
:101E140003D1184B00221A6012E0049B5B68194638
:101E2400134801F0EDFC03468DF8173008E0FFF786
:101E3400E7FE114B01221A7002E000BF00E000BF70
:101E44000A4A03AB1946104600F04DFD074A03AB9E
:101E54001946104600F02EFD0490049B002BB6D1C9
:101E640000BF00BF07B05DF804FB00BFC00C00203A
:101E7400646D0000500C0020540C002000B583B0A9
:101E84000190019800F035FC0346002B01D0FFF7C8
:101E9400CFFE0021019800F04AFC0346002B02D03B
:101EA4000198FFF7D3FE0121019800F040FC03469E
:101EB400002B02D00198FFF7F5FE0198FFF77CFF95
:101EC4000198FFF7FFFE00BF03B05DF804FB0000BC
:101ED40000B583B0164B1B6800931648082358229C
:101EE400154900F0B4FC0190019B002B01D0019B2B
:101EF40019E06B46114A1946114800F0BDF90190EA
:101F0400019B002B01D0019B0DE001210C4800F046
:101F1400DFFB01230B4A0121094800F057FA0A4B61
:101F240001221A70019B184603B05DF804FB00BF40
:101F3400606D0000C00C0020680C0020811E0000B1
:101F440060000020FFFF7F00540C002082B001904D
:101F54000091019A009BD31A23F07F43184602B0E4
:101F64007047000008B5034800F005FC0346184616
:101F740008BD00BF6000002072B600BF034B1B68A1
:101F84000133024A136000BF704700BFD40C002025
:101F9400064B1B68013B054A1360044B1B68002B6E
:101FA40001D162B600BF00BF704700BFD40C00204F
:101FB40000B583B0019000F025F80346012B03D04F
:101FC4000449432000F0F2FBFFF7D6FF00BF03B043
:101FD4005DF804FB706D000000B583B003468DF816
:101FE400073000F00FF80346012B03D004495120B9
:101FF40000F0DCFBFFF7CCFF00BF03B05DF804FB8F
:10200400706D000084B0EFF305830193019BC3F36B
:1020140008030393039B002B0DD1EFF31483009368
:10202400009B0293029B03F00103002B0CBF0123CE
:102034000023DBB200E00123184604B0704700001F
:1020440082B003468DF807309DF90730002B0CDB76
:102054009DF8073003F01F0205499DF907305B091D
:10206400012000FA02F241F8232000BF02B07047B9
:1020740000E100E082B0034600918DF807309DF93D
:102084000730002B0ADB009BDAB20C499DF90730BC
:102094005201D2B20B4483F800230BE0009BDAB266
:1020A40007499DF8073003F00F03043B5201D2B2F5
:1020B4000B441A7600BF02B0704700BF00E100E095
:1020C40000ED00E000B583B003460A468DF8073002
:1020D40013468DF806309DF80630072B03D90849BE
:1020E4006B2000F063FB9DF806209DF90730114634
:1020F4001846FFF7BFFF00BF03B05DF804FB00BF45
:10210400E46D000000B583B003468DF807309DF9F7
:1021140007301846FFF794FF00BF03B05DF804FBD7
:1021240000B585B00190019B002B0AD0074B43F00A
:1021340001030393019B9B010293039B029898471D
:1021440000E000BF05B05DF804FB00BF006F0000B5
:1021540084B0039002910192039B029A02F5A87243
:10216400019943F8221000BF04B0704782B0019077
:102174000091019B009A02F5A87253F82230184688
:1021840002B0704782B001900091019B009AC3F89D
:10219400042300BF02B0704782B001900091019BFC
:1021A400009AC3F8082300BF02B0704782B00190C0
:1021B4000B46ADF80230BDF80230019A13441B6897
:1021C400184602B0704784B001900B46ADF8023057
:1021D400BDF80230019A134400221A60BDF802309F
:1021E400019A13441B680393039B00BF04B0704718
:1021F40082B00190019BD3F80435184602B07047B1
:1022040000B583B001900091009BB3F5805F04D3C7
:1022140006494FF4BE7000F0C9FA019B009AC3F856
:10222400082500BF03B05DF804FB00BF186E000072
:1022340082B001900B468DF803309DF80320019B7A
:1022440013441A460123136000BF02B0704782B0E2
:1022540001900091019B009AC3F8442300BF02B08F
:10226400704782B001900091019B009AC3F8482303
:1022740000BF02B07047000000B587B00390029120
:102284000192039B002B03D13349552000F08EFAB1
:10229400029B002B03D13049562000F087FA019BA2
:1022A400002B03D12C49572000F080FA039B5B7963
:1022B40019462A4A019B42F82130039B5B79284A3C
:1022C400DB0013441B79002B0ED008230593254A09
:1022D400254BD31ADB081B0443F002032349184699
:1022E400FEF70AFE059B32E0039B1A68029B1B88DB
:1022F40019461046FFF784FF039B93F90420029BC1
:102304009B7819461046FFF7DDFE039B93F90430D2
:102314001846FFF7F7FE039B5B79114ADB00134471
:1023240001221A71039B5B7919460D4A039B42F8FB
:102334003130002305930B4A0B4BD31ADB081B04E3
:1023440043F003030A491846FEF7D6FD059B1846D9
:1023540007B05DF804FB00BF486E0000D80C0020F5
:10236400DC0C002014690000E4680000B06E00007A
:10237400D46E000000B583B00190019B002B03D103
:102384000649872000F012FA019B1B6800211846B9
:10239400FFF74EFF00BF03B05DF804FB486E00007A
:1023A40000B583B00190019B002B03D106498D2019
:1023B40000F0FCF9019B1B6804211846FFF738FF65
:1023C40000BF03B05DF804FB486E000000B587B0A1
:1023D4000390029101928DF80330039B002B03D1EB
:1023E4002149962000F0E2F94FF48032029B02FA70
:1023F40003F30593029B50339BB29B00ADF812305C
:10240400019B23F07F430193039B1B6805991846A6
:10241400FFF7C2FE039B1B6805991846FFF721FFCF
:10242400039B1B68BDF8122011461846FFF7CBFE2C
:10243400039B1B68019A02991846FFF789FE039BC8
:102444001B6805991846FFF702FF9DF80330002B1F
:1024540005D0039B1B6805991846FFF793FE00BF40
:1024640007B05DF804FB00BF486E000000B585B0FE
:102474000390029113468DF80730039B002B03D180
:102484000B49A92000F092F9039B1B680299184696
:10249400FFF7DDFE9DF80730002B05D0039B1B687A
:1024A40002991846FFF76EFE00BF05B05DF804FB05
:1024B400486E000000B583B001900091019B002B91
:1024C40003D10A49B32000F071F9019B1B680099FC
:1024D4001846FFF7C6FE019B1B6800991846FFF7D4
:1024E4005BFE00BF03B05DF804FB00BF486E000054
:1024F40000B583B001900B46ADF80230019B002B70
:1025040003D10F49BA2000F051F9019B1B68BDF8B3
:10251400022011461846FFF749FE0346002B09D056
:10252400019B1B68BDF8022011461846FFF74BFEBD
:10253400012300E00023184603B05DF804FB00BF4C
:10254400486E000082B001900091019A009BD31A5A
:1025540023F07F43184602B07047000000B58BB0EB
:102564000390029101920093039B002B03D15749DE
:10257400CD2000F01BF94FF48032029B02FA03F3E2
:102584000993029B50339BB29B00ADF82230019B10
:1025940023F07F43019309990398FFF78BFF039B73
:1025A4001B681846FFF724FE0790039B1B680299DB
:1025B4001846FFF7DBFD0690039B1B68079A0299F8
:1025C4001846FFF7C5FD039B1B68BDF82220114682
:1025D4001846FFF7F8FD07990698FFF7B3FF03467F
:1025E400012B0AD11020FFF79BFD039B1B68BDF84C
:1025F400222011461846FFF7E6FD039B1B68184688
:10260400FFF7F6FD079007990198FFF79BFF0590E8
:10261400039B1B6809991846FFF719FE059B012BBC
:1026240015D1039B1868019B01331A460299FFF7E1
:102634008FFD1020FFF774FD039B1B681846FFF7FE
:10264400D7FD0246079B934235D00D2339E0039B07
:102654001B68019A02991846FFF77AFD039B1B68D1
:102664001846FFF7C5FD0790019B013B07991846E3
:10267400FFF768FF0590009BC3F1FF1303F57F4349
:10268400059A9A4201D90D231BE0059B002B12D118
:10269400039B1868019B01331A460299FFF758FD02
:1026A400039B1B681846FFF7A3FD0246079B934252
:1026B40001D00D2305E0012209990398FFF7D6FE06
:1026C400002318460BB05DF804FB00BF486E000001
:1026D40000B583B001900B468DF803309DF80330AC
:1026E4001A4602210198FFF7C1FE00BF03B05DF84E
:1026F40004FB00B583B001904FF482710198FFF799
:10270400F7FE0346184603B05DF804FB00B583B03A
:10271400019000914FF48032009B02FA03F31946B2
:102724000198FFF7C7FE00BF03B05DF804FB00B5D6
:1027340085B001900091009B50339BB29B00ADF893
:102744000E30BDF80E3019460198FFF7D1FE03464E
:10275400184605B05DF804FB00B583B00190009104
:10276400019B1B6800991846FFF700FD03461846B5
:1027740003B05DF804FB00B583B00190019B1B68B6
:102784001846FFF735FD0346184603B05DF804FB11
:1027940008B5044B1B68044A12681046984700BFEA
:1027A40008BD00BFD80C0020DC0C002000B585B0AB
:1027B40003460091ADF80630BDF806300293009B45
:1027C400039302AB1A46002144F20200FFF74EF8CD
:1027D40000BF05B05DF804FB86B001900091019B39
:1027E40053E8021F1FFAA1F2D888824202BFBFF346
:1027F4002F8F00230DE0D88902449889824228BF94
:10280400121AC1EA024243E802200028E8D14FF03C
:1028140001038DF80F30059002910492029A009BF7
:102824001A609DF80F30DBB2184606B0704784B0CA
:102834000190019951E8023FC3EA234341E802327F
:10284400002AF7D10392029300BF04B0704784B00A
:102854000390029111461A460B46ADF80630134612
:10286400ADF80430029B002B01D10E231FE0BDF80C
:102874000630BDF80420B3FBF2F101FB02F29B1A0F
:102884009BB2002B01D0092311E0039B029A1A602A
:10289400039B00225A60039B00229A60039BBDF8AD
:1028A40006209A81039BBDF80420DA810023184690
:1028B40004B0704700B585B001900091009B1946A3
:1028C4000198FFF789FF0346002B07D0019B1B6883
:1028D400009A528813440393039B00E00023184694
:1028E40005B05DF804FB00B583B001900091009B36
:1028F4001A88009B5B889A4204D10198FFF797FFDE
:10290400012300E00023184603B05DF804FB10B473
:1029140087B001900091019B009A53E8004F104644
:1029240043E8000191F0000FF7D10594049003915E
:10293400059B184607B05DF8044B704710B487B088
:1029440001900091019B009A53E8004F44EA020071
:1029540043E8000191F0000FF6D10594049003912F
:10296400049B184607B05DF8044B704710B487B059
:1029740001900091019B009A53E8004F04EA020081
:1029840043E8000191F0000FF6D1059404900391FF
:10299400059B184607B05DF8044B704710B487B028
:1029A40001900091019B009A53E8004F04EB020050
:1029B40043E8000191F0000FF6D1059404900391CF
:1029C400049B184607B05DF8044B704710B487B0F9
:1029D40001900091019B009A53E8004FA4EB020080
:1029E40043E8000191F0000FF6D10594049003919F
:1029F400049B184607B05DF8044B704700B583B0DC
:102A0400019001210198FFF799FF0346184603B08E
:102A14005DF804FB00B583B0019000210198FFF735
:102A2400A5FF0346184603B05DF804FB00B583B068
:102A340001900B468DF80330019B002B03D108490C
:102A4400E820FFF7B3FE019BDA689DF80330019993
:102A5400098A01FB03F31344184603B05DF804FB31
:102A6400086F000000B583B001900091019B002B1A
:102A740003D10849F520FFF799FE009B019AD2681B
:102A84009B1A019A128AB3FBF2F3DBB2184603B025
:102A94005DF804FB086F000000B585B00190019B50
:102AA400002B01D10E234CE0019B1B68002B03D1AA
:102AB4002649FF20FFF77AFE019B5B68002B04D1B7
:102AC40022494FF48070FFF771FE019B9B68002B35
:102AD40004D11E4940F20110FFF768FE019BDB6838
:102AE400002B04D119494FF48170FFF75FFE019B5D
:102AF4001B8A002B04D1154940F20310FFF756FE40
:102B0400019B9A68019B5B68D31A8DF80F30019B77
:102B14001B68019A52681A6007E0019B1A681368DF
:102B2400591C11609DF80F201A709DF80F305A1E21
:102B34008DF80F20002BF0D1019B1B6800221A7125
:102B44000023184605B05DF804FB00BF086F0000C1
:102B540000B585B00190019B002B04D11C494FF4B2
:102B64009270FFF723FE002303930020FFF720FA5F
:102B7400019B1B681A68019B5B689A421FD9019BE1
:102B84001B681A68013A1A601B681B781946019879
:102B9400FFF74CFF0390019B9A68019B1B681B681D
:102BA400D31A8DF80B30019B1B681B799DF80B2001
:102BB4009A4204D9019B1B689DF80B201A710020CE
:102BC400FFF70AFA039B184605B05DF804FB00BF43
:102BD400086F000010B584B001900091019B002B98
:102BE40004D1114940F24710FFF7E0FD009B002B90
:102BF40004D10D494FF4A470FFF7D8FD009B039353
:102C04000020FFF7D5F9019B1B681C68621C1A6041
:102C140003990198FFF726FF034623700020FFF76E
:102C2400DBF900BF04B010BD086F000000B583B02D
:102C34000190019B002B03D10C493120FFF7B6FD15
:102C4400019B9B68002B0CD0019B5B69019A106966
:102C5400019A1168019A92689847019B00229A6030
:102C640000E000BF03B05DF804FB00BF746F000018
:102C74000EB400B584B00190019B002B03D1184918
:102C84004220FFF793FD019B5B69002B03D114499C
:102C94004320FFF78BFD019B1B68002B03D11049D8
:102CA4004420FFF783FD019B5B68002B03D10C4993
:102CB4004520FFF77BFD059B002B0AD000230393DF
:102CC40006AB039303AB1A460599019800F0B0F9DB
:102CD40000E000BF04B05DF804EB03B0704700BF30
:102CE400746F000000B583B001900B468DF803307B
:102CF400019B1A68019B9B68581C019988601344C6
:102D04009DF803201A70019B9A68019B5B689A42A4
:102D140002D30198FFF78AFF00BF03B05DF804FBFC
:102D240000B587B0039002910192009300230593AC
:102D3400009B03F00103002B24D00BE0029B013322
:102D44000293059B013305939DF8133019460398AC
:102D5400FFF7C8FF029B1B788DF813309DF81330E2
:102D6400002BEBD106E0019B013B0193202103984A
:102D7400FFF7B8FF019A059B9A422ED9019B002BBD
:102D8400F1D12AE0029B002B0BD0029803F064FDE2
:102D9400059006E0019B013B019320210398FFF776
:102DA400A1FF019A059B9A420FD9019B002BF1D1F7
:102DB4000BE0029B01330293059B013305939DF8BD
:102DC400133019460398FFF78DFF029B1B788DF88B
:102DD40013309DF81330002BEBD100BF07B05DF822
:102DE40004FB000000B589B00390029101920093A6
:102DF400029B07930123069307E0079A019BB2FB0A
:102E0400F3F30793069B01330693079A019B9A42B7
:102E1400F3D2009A069B9A4201D9009B06930B9B1E
:102E240003F00103002B22D10A9B002B1FD00B9B24
:102E340003F00203002B06D0009B002B03D13023A8
:102E44008DF8173002E020238DF8173008E00A9B34
:102E5400013B0A939DF8173019460398FFF742FF88
:102E64000A9B002B03D0069A0A9B9A42EFD30123B4
:102E74000793009B012B03D9009B013B009309E0BE
:102E8400029A079BB2FBF3F30493049A019B9A42C0
:102E940000D205E0079B019A02FB03F30793E8E7DE
:102EA400029A079BB2FBF3F30493049B079A02FB79
:102EB40003F3029AD31A0293154A049B13441B7812
:102EC40019460398FFF70EFF079A019BB2FBF3F331
:102ED4000793079B002BE3D10B9B03F00103002B0B
:102EE40011D00A9B002B0ED006E00A9B013B0A93EB
:102EF40020210398FFF7F6FE0A9B002B03D0069AC5
:102F04000A9B9A42F1D300BF09B05DF804FB00BFED
:102F14004470000000B589B00590049103920293B7
:102F2400049B002BB8BF5B4206930123079307E081
:102F3400039B069A92FBF3F30693079B01330793D3
:102F4400039B069A9A42F3DA029A079B9A4201D9A2
:102F5400029B07930A9B002B0AD0049B002B04DBE3
:102F64000B9B03F00403002B02D00A9B013B0A9342
:102F74000B9B03F00203002B02D0029B002B16D004
:102F84000B9B03F00103002B11D10A9B002B0ED0E5
:102F940006E00A9B013B0A9320210598FFF7A2FE55
:102FA4000A9B002B03D0079A0A9B9A42F1D3049BF5
:102FB400002B07DA049B5B4204932D210598FFF74D
:102FC40091FE08E00B9B03F00403002B03D02B219C
:102FD4000598FFF787FE0B9B03F00203002B19D023
:102FE4000B9B03F00103002B14D1029B002B11D186
:102FF4000A9B002B0ED006E00A9B013B0A9330216A
:103004000598FFF76FFE0A9B002B03D0079A0A9BD3
:103014009A42F1D304990B9B01930A9B0093029B60
:10302400039A0598FFF7DEFE00BF09B05DF804FBC4
:1030340000B58FB0059004910392059B002B04D139
:10304400AD4940F25220FFF7B1FB059B5B69002BB1
:1030540004D1A9494FF41570FFF7A8FB059B1B6821
:10306400002B04D1A44940F25520FFF79FFB059B98
:103074005B68002B04D1A04940F25620FFF796FB71
:10308400049B002B00F09381049B1B788DF8373050
:10309400049B013304939DF83730002B00F07E81AC
:1030A4009DF83730252B40F06D8100230A930123CE
:1030B4000C93049B1B788DF837309DF83730302BF8
:1030C4000DD0302B1BDC2B2B11D02D2B17D10A9BB1
:1030D40043F001030A93049B0133049312E00A9B17
:1030E40043F002030A93049B013304930AE00A9B0E
:1030F40043F004030A93049B0133049302E0002386
:103104000C9300BF0C9B002BD3D1002309939DF893
:1031140037302A2B0CD1039B1B68191D039A1160AD
:103124001B68099A13440993049B013304931AE01E
:10313400049B1B788DF837309DF837302F2B12D92C
:103144009DF83730392B0ED8049B01330493099A28
:1031540013469B0013445B001A469DF83730134412
:10316400303B0993D3E700230B93049B1B788DF822
:1031740037309DF837302E2B1DD1049B0133049337
:10318400049B1B788DF837309DF837302F2B12D9DC
:103194009DF83730392B0ED8049B013304930B9AD6
:1031A40013469B0013445B001A469DF837301344C2
:1031B400303B0B93E4E7049B1B788DF837309DF884
:1031C40037306C2B03D09DF83730682B07D1049B24
:1031D40001330493049B1B788DF83730EFE79DF897
:1031E4003730252B00F0C480252BC0F2C680782B05
:1031F40000F3C380582BC0F2C080583B202B00F250
:10320400BC8001A252F823F0013300007F33000098
:103214007F3300007F3300007F3300007F330000E2
:103224007F3300007F3300007F3300007F330000D2
:103234007F33000091320000B33200007F3300007E
:103244007F3300007F3300007F330000B33200007F
:103254007F3300007F3300007F3300007F330000A2
:103264007F3300007F330000413300007F330000D0
:103274007F330000253300007F330000D732000085
:103284007F3300007F33000001330000039B1B6881
:10329400191D039A11601B680C930C9B8DF81F3049
:1032A4009DF81F3019460598FFF71CFD66E0039B47
:1032B4001B68191D039A11601B680C930A9B0193E8
:1032C400099B00930B9B0A220C990598FFF722FE99
:1032D40054E0039B1B68191D039A11601B680C932F
:1032E4000C990A9B0193099B00930B9B0A22059856
:1032F400FFF778FD42E000BFD86F0000039B1B6816
:10330400191D039A11601B680C930C990A9B019375
:10331400099B00930B9B10220598FFF763FD2DE09A
:10332400039B1B68191D039A11601B6808930A9B71
:10333400099A08990598FFF7F3FC1FE0039B1B68A3
:10334400191D039A11601B680C9330210598FFF72F
:10335400C9FC78210598FFF7C5FC0C99002301935B
:1033640008230093082310220598FFF73BFD05E08E
:1033740025210598FFF7B6FC00E000BF049B01334C
:10338400049305E09DF8373019460598FFF7AAFC29
:10339400049B1B78002B7FF477AE00E000BF059BF5
:1033A4001B7B002B04D00598FFF740FC00E000BF16
:1033B4000FB05DF804FB00BF00B583B00190019825
:1033C400FFF76AFB0346184603B05DF804FB00B53B
:1033D4008BB001900091019B1B8A043B0793009AD8
:1033E400079B1344DA1C079BB2FBF3F38DF81B30E5
:1033F4000198FFF7ADFB0590059B002B01D100233D
:1034040038E0059B00221A71059B01225A71079B23
:103414009AB2059BDA80059B09939DF81B30013B0A
:103424000493099B019A1A60002308931DE00198F4
:10343400FFF78EFB0390039B002B0ED0059B5B795B
:103444000133DAB2059B5A71099B039A1A60039BF4
:10345400019A1A60039B099304E0059800F00EF8A2
:10346400002307E0089B01330893089A049B9A42BF
:10347400DDD3059B18460BB05DF804FB00B58BB09B
:103484000190019B0793079B5B798DF81B30019B8F
:1034940008939DF81B30013B05930023099305E035
:1034A400089B1B680893099B01330993099A059BA0
:1034B4009A42F5D3089B1B680493019B089300234D
:1034C40009930BE0089B1B68039308990498FFF782
:1034D40081FB039B0893099B013309939DF81B30DF
:1034E400099A9A42EED300BF00BF0BB05DF804FB0B
:1034F40000B585B00190019B0393039B0433012124
:103504001846FFF74BFA00BF05B05DF804FB00B5A1
:1035140087B00190019B0593059B04330121184654
:10352400FFF754FA0346039303AB0493049B1B78FD
:10353400002B02D10198FFF7A1FF00BF07B05DF88F
:1035440004FB000000B591B0039002910192009336
:10355400039B002B03D14349B620FFF727F9039BB4
:103564000993039B0F93099BDB881A46099B5B799C
:1035740002FB03F3043B0893009A089B9A4203D38B
:103584003849C420FFF712F9099BDB880793009B95
:103594001A1D079BB2FBF3F30E93009B0433079AA7
:1035A400B3FBF2F2079901FB02F29B1A0D93019B04
:1035B4001A68009B1344089A9A4203D2089A009B03
:1035C400D31A01E0019B1B680C93019B0C9A1A60AF
:1035D40005E00F9B1B680F930E9B013B0E930E9B04
:1035E400002BF6D100230B93079A0D9BD31A0A9351
:1035F4000A9A0C9B934228BF13460A932AE0029A24
:103604000B9B134406930F9A0D9B134404330593A9
:103614009DF84830002B05D00A9A0599069803F0C6
:1036240031F904E00A9A0699059803F02BF900236E
:103634000D930F9B1B680F930C9A0A9BD31A0C9340
:103644000B9A0A9B13440B93079A0C9B934228BF33
:1036540013460A930C9B002BD1D100BF00BF11B0BD
:103664005DF804FB5470000000B589B00590049126
:1036740003920293039B079307AA00230093029BE0
:1036840004990598FFF75EFF079B039A9A4203D0BB
:103694000349F620FFF78AF800BF09B05DF804FB80
:1036A4005470000000B589B0059004910392029310
:1036B400039B079307AA01230093029B049905988F
:1036C400FFF740FF079B039A9A4204D004494FF442
:1036D4008070FFF76BF800BF09B05DF804FB00BF12
:1036E4005470000082B00190019B9B6800229A6094
:1036F400019B9B6800221A61019B9B6800225A610E
:10370400019B9B680022DA60019B9B6800225A603F
:10371400019B9B6800221A6000BF02B07047000042
:1037240000B585B001900091019B002B03D118498D
:103734003A20FFF73BF8009B002B03D114493B20B0
:10374400FFF734F8019B5B6803930FE0019B9B68D0
:10375400039A1268009910469847034683F00103C0
:10376400DBB2002B07D1039B1B680393039B1B68ED
:10377400002BEBD100E000BF039B1A68009B1A608A
:10378400039B009A1A6000BF05B05DF804FB00BFFC
:10379400CC70000000B585B00190019B002B03D1D3
:1037A4000C495120FFF702F8019B5B681B680393E7
:1037B400019B5B681B68002B06D0019B5B681A6841
:1037C400019B5B6812681A60039B184605B05DF89C
:1037D40004FB00BFCC70000000B583B00190019BD6
:1037E400002B03D105495D20FEF7E0FF019B5B68D8
:1037F4001B68184603B05DF804FB00BFCC700000E2
:1038040000B585B001900091019B002B03D11649AE
:103814006920FEF7CBFF009B002B03D112496A20DD
:10382400FEF7C4FF00238DF80B30019B5B68039304
:103834000FE0039B1B68009A9A4207D1009B1A6809
:10384400039B1A6001238DF80B3006E0039B1B6871
:103854000393039B1B68002BEBD19DF80B30184698
:1038640005B05DF804FB00BFCC70000000B585B066
:103874000190019800F00EF80390039B002B01D0F7
:10388400039B00E0024B184605B05DF804FB00BF43
:103894003C71000086B00190164B0593164B0493BF
:1038A4001FE0049A059BD31ADB10DA0F13445B1054
:1038B400DB00059A13440393039B1B680293029A4B
:1038C400019B9A4202D9039B04930AE0029A019B4A
:1038D4009A4203D2039B0833059302E0039B5B687F
:1038E40004E0059A049B9A42DBD30023184606B0F1
:1038F400704700BF107500002876000000B589B03D
:1039040001900091009B0793019B1B788DF80C306C
:10391400019B5B680493019B9B68DBB28DF81430B8
:10392400019BDB680693074A079B52F8233006493C
:10393400079A51F8221003AA1046984700BF09B00D
:103944005DF804FBE40C0020EC0C002000B589B009
:1039540001900091009B0793019B1B788DF80C301C
:10396400019B5B680493019B9B68DBB28DF8143068
:10397400019BDB680693074A079B52F823300649EC
:10398400079A51F8221003AA1046984700BF09B0BD
:103994005DF804FBE40C0020EC0C002030B58FB083
:1039A400039002910192039B1B780C932C490C9B6E
:1039B400019A41F82320029B1A692A490C9B41F879
:1039C40023200C9B012B07D1029B5B7F002B03D18F
:1039D40025497620FEF7EAFE029B5B7F1946234ABF
:1039E4000C9B13440A461A70029B04AC1D460FCD6F
:1039F4000FC495E80F0084E80F000C9B0893002384
:103A04000D93039B1B781A46184B9B5C002B0DD01F
:103A1400039B181D019B002B01D0154A00E00022D6
:103A240004AB194601F07AFD0D9014E0039B1B785A
:103A34001A460E4B9B5C002B0DD1039B03F10C002B
:103A4400019B002B01D00B4A00E0002204AB194675
:103A540000F0E8FE0D900D9B18460FB030BD00BF7E
:103A6400E40C0020EC0C002028760000F40C00206C
:103A7400013900005139000000B583B00346ADF8A8
:103A84000630BDF80630184600F026F803461B68D9
:103A9400012B0CBF01230023DBB2184603B05DF8F1
:103AA40004FB00B585B00346ADF80630BDF806301A
:103AB400184600F011F803461A4600231360BDF8B7
:103AC4000630184600F008F803461B680393039B6E
:103AD40000BF05B05DF804FB82B00346ADF80630C4
:103AE400BDF8063003F1804303F5C043184602B025
:103AF4007047000082B00190034BD3F80423019B6C
:103B04001340184602B070470060004082B0019034
:103B1400054A019B03F5A27352F823301B0A03F0F4
:103B24003F03184602B070470060004082B0019025
:103B3400064A019B03F5A27352F823301B0C03F0D1
:103B44000303DBB2184602B0704700BF00600040B8
:103B540000B583B00190019B1B68184600F0AAF8D9
:103B64000346002B04D10B494FF4F670FEF71EFEFA
:103B7400019B1B681F2B02D84FF0A04306E0019B5A
:103B84001B6803F01F02019B1A60034B184603B025
:103B94005DF804FBC87600000003005000B585B052
:103BA40001900B468DF8033001AB1846FFF7D0FFA8
:103BB4000390019A039B02F5E07253F82230019AB4
:103BC40023F44031039B02F5E07243F82210019A7A
:103BD400039B02F5E07253F822109DF803301B0496
:103BE400019A1943039B02F5E07243F8221000BFC7
:103BF40005B05DF804FB00B585B0019001AB184633
:103C0400FFF7A6FF0390019A039B02F5E07253F8B5
:103C140022301B0C03F00303DBB2184605B05DF839
:103C240004FB000088B0039002910192164A05AB90
:103C340092E8030083E80300039B079319E0079BC2
:103C44009B0020336B4453F80C3CD3F82025019B94
:103C54001A60079B9B0020336B4453F80C3C019A79
:103C64001268C3F82025019B04330193079B013399
:103C74000793039A029B1344079A9A42DFD300BF27
:103C840000BF08B0704700BFFC76000000B585B0E7
:103C9400019001AB1846FFF75BFF0390019B0122E3
:103CA40002FA03F31A46039BC3F8202500BF05B0AC
:103CB4005DF804FB84B00190019B5B09029300232F
:103CC4000393029B002B03D0029B012B04D007E03B
:103CD4004FF0FF33039303E04FF6FF73039300BFEA
:103CE400019B03F01F030193039A019B22FA03F340
:103CF40003F00103002B14BF01230023DBB2184699
:103D040004B0704784B001900091009B0393019B21
:103D1400DB080293019B03F0070301930122019B3B
:103D240002FA03F30399029A0A44127813401846DC
:103D340004B0704782B00190044A019B13443033AD
:103D440093F90030184602B0704700BFF80C002009
:103D540082B00190034A019B52F82330184602B006
:103D6400704700BFF80C002084B00190074A019B03
:103D74001344603393F900308DF80F309DF80F3001
:103D840023F0C003184604B0704700BFF80C0020AD
:103D940084B00190074A019B1344603393F90030C7
:103DA4008DF80F309DF80F309B09DBB2184604B034
:103DB400704700BFF80C002000B585B00190019A4F
:103DC40002210020FFF72EFF002303930BE0039B47
:103DD4009B00019A13441B68002B01D0012306E0C9
:103DE400039B01330393039B012BF0D90023184653
:103DF40005B05DF804FB000000B587B00190002316
:103E040005935BE0344A059B1344603393F9003017
:103E1400B3F1FF3F4ED00598FFF7A6FF0490019938
:103E24000498FFF76FFF0346002B44D00598FFF773
:103E3400AFFF03468DF80F300498FFF7DCFE03460E
:103E44008DF80E309DF80E30022B01D1032300E0D3
:103E540002238DF80D309DF80D3019460498FFF7B4
:103E64009DFE0498FFF712FF0498FFF763FF0346D3
:103E74001846FFF76DFF0290029B002B1BD09DF8A4
:103E84000F30032B0FD09DF80E30022B03D19DF879
:103E94000F30012B07D09DF80E30032B0BD19DF86A
:103EA4000F30022B07D19DF80F20029B1146049876
:103EB400984700E000BF059B01330593059B032B46
:103EC400A0D90198FFF778FF0346002B97D100BFD4
:103ED40000BF07B05DF804FBF80C002000B58BB000
:103EE4000023089301AB00221A605A604FF48073D8
:103EF400ADF81A30012309930023079321E0BDF89C
:103F04001A301846FFF7B8FD0346002B0ED0099867
:103F1400FFF7F0FD0346002B08D0BDF81A30184611
:103F2400FFF7BFFD089A099B13430893099B5B00A5
:103F34000993BDF81A300433ADF81A30079B0133E6
:103F44000793079B072BDAD94FF4BE70FFF794FD54
:103F54000346002B0DD04FF4BE70FFF7A2FD089B63
:103F640043F00043089301AB1A4602210020FFF7F7
:103F740059FE089BDBB2002B29D0012309930023AF
:103F8400079321E0099A089B1340002B16D0079849
:103F9400FFF7BCFD05900798FFF7C8FD03468DF8B1
:103FA40013300798FFF7D4FE0390039B002B05D032
:103FB4009DF81320039B114605989847099B5B00C5
:103FC4000993079B01330793079B072BDAD9089BB7
:103FD400002B03DA01AB1846FFF70EFF00BF0BB04E
:103FE4005DF804FB08B5064B1B68002B03D105499B
:103FF4005120FEF7DBFB024B1B68984708BD00BF4E
:10400400640D00207C77000082B00190019B044A7B
:10401400934201D1034B00E00023184602B07047DD
:1040240000200040640D002030B587B0019000915D
:10403400019B002B03D129497720FEF7B7FB019898
:10404400FFF7E2FF0490049B002B2FD000238DF890
:1040540017300020FDF7ACFF049B1B79002B03D025
:1040640001238DF8173005E0049B009A1A60049B25
:1040740001221A710020FDF7AFFF9DF81730002BC5
:1040840014D011230393164A164BD31ADB081B04CE
:1040940043F00204144D0398FFF7E8FB03462A4655
:1040A40012492046FCF747FF039B13E000230393C8
:1040B4000B4A0C4BD31ADB081B0443F003040A4DD0
:1040C4000398FFF7D3FB03462A4608492046FCF72A
:1040D40032FF039B184607B030BD00BF7C77000059
:1040E400EC680000E468000008780000E87700004D
:1040F40000B585B00190019B002B03D10A499B2098
:10410400FEF754FB0198FFF77FFF0390039B002BFE
:1041140005D0039B00221A60039B00221A7100BF82
:1041240005B05DF804FB00BF7C77000082B0034655
:104134008DF807309DF90730002B0CDB9DF8073014
:1041440003F01F0205499DF907305B09012000FABD
:1041540002F241F8232000BF02B0704700E100E002
:1041640082B003468DF807309DF90730002B13DB2E
:104174009DF8073003F01F0209499DF907305B09D8
:10418400012000FA02F2203341F82320BFF34F8FBD
:1041940000BFBFF36F8F00BF00BF02B0704700BF06
:1041A40000E100E082B0034600918DF807309DF9EC
:1041B4000730002B0ADB009BDAB20C499DF907306B
:1041C4005201D2B20B4483F800230BE0009BDAB215
:1041D40007499DF8073003F00F03043B5201D2B2A4
:1041E4000B441A7600BF02B0704700BF00E100E044
:1041F40000ED00E082B00190019B1B0B5BB21846FE
:1042040002B0704700B583B003460A468DF8073004
:1042140013468DF806309DF80630072B03D908495C
:104224006B20FEF7C3FA9DF806209DF9073011466E
:104234001846FFF7B7FF00BF03B05DF804FB00BFEB
:104244001C78000000B583B003468DF807309DF953
:1042540007301846FFF76AFF00BF03B05DF804FBA0
:1042640000B583B003468DF807309DF90730184632
:10427400FFF776FF00BF03B05DF804FB84B0019044
:104284000B46ADF80230BDF80230019A1344002207
:104294001A60BDF80230019A13441B680393039B10
:1042A40000BF04B0704782B001900B46ADF80230F5
:1042B400BDF80230019A13441B68002B14BF01237C
:1042C4000023DBB2184602B0704782B0019000911F
:1042D400019B009AC3F8042300BF02B0704782B068
:1042E40001900091019BD3F80423009B1340002B01
:1042F40014BF01230023DBB2184602B0704782B01A
:1043040001900091019B009AC3F8082300BF02B0FA
:10431400704784B00190019BD3F880340393019BD0
:10432400039AC3F88024039B184604B0704782B0F4
:104334000190019B0422C3F8002500BF02B070471E
:1043440082B00190019B0022C3F8002500BF02B097
:10435400704784B0039002910192039B019AC3F8C1
:104364001425039B029AC3F80C2500BF04B07047C0
:1043740000B583B001904FF0FF324FF0FF31019848
:10438400FFF7E7FF00BF03B05DF804FB82B00190C4
:10439400019BD3F80C35184602B0704782B00190E7
:1043A400019BD3F81435184602B0704782B00190CF
:1043B400019BD3F80835184602B0704782B00190CB
:1043C400019BD3F81035184602B0704784B00390AF
:1043D40002910192039B029AC3F80825039B019A58
:1043E400C3F8102500BF04B0704700B583B0019036
:1043F4004FF0FF324FF0FF310198FFF7E7FF00BFA6
:1044040003B05DF804FB82B00190019BD3F818352A
:10441400DBB2184602B0704782B001900B468DF8AB
:1044240003309DF80320019BC3F81C2500BF02B094
:10443400704782B001900B468DF803309DF803302D
:10444400019A134401221A6000BF02B0704782B07F
:1044540001900B468DF8033013468DF802309DF819
:1044640003209DF802301343DBB21A46019BC3F8C4
:104474006C2500BF02B0704782B001900091019B8F
:10448400009AC3F8242500BF02B0704700B583B07A
:104494000190019B1B68184600F0A4F80346002B0A
:1044A40004D10B494FF4F670FEF780F9019B1B68A9
:1044B4001F2B02D84FF0A04306E0019B1B6803F0BA
:1044C4001F02019B1A60034B184603B05DF804FBFE
:1044D400507800000003005000B585B001900846F4
:1044E40011461A4603468DF803300B468DF8023008
:1044F40013468DF8013001AB1846FFF7C7FF039050
:104504009DF803209DF802305B001A439DF80130AA
:104514009B001A439DF818301B0242EA03019DF8E0
:104524001C301B04019A1943039B02F5E07243F803
:10453400221000BF05B05DF804FB00B585B0039000
:1045440000230193002300930023012201210398F7
:10455400FFF7C2FF00BF05B05DF804FB00B585B0EE
:1045640003900B468DF80B309DF80B30002201921E
:1045740000220092002200210398FFF7ADFF00BF44
:1045840005B05DF804FB00B585B0039000230193EA
:10459400002300930023012200210398FFF79CFFCE
:1045A40000BF05B05DF804FB00B585B0019001AB18
:1045B4001846FFF76BFF0390019B012202FA03F3F5
:1045C4001946039800F004F800BF05B05DF804FB39
:1045D40082B001900091019B009AC3F8082500BFA6
:1045E40002B0704784B00190019B5B0902930023E1
:1045F4000393029B002B03D0029B012B04D007E002
:104604004FF0FF33039303E04FF6FF73039300BFB0
:10461400019B03F01F030193039A019B22FA03F306
:1046240003F00103002B14BF01230023DBB218465F
:1046340004B0704700B583B001900091009B1B68E3
:10464400B3F1FF3F09D0009B1B681846FFF7ACFF8E
:10465400009B1B681846FFF770FF009B5B68B3F173
:10466400FF3F05D0009B5B6800211846FFF776FFEB
:10467400019B1A68009B9B6919461046FFF7FCFED4
:10468400019B1868009B597D009B1B7D1A46FFF710
:10469400DEFE019B1868009B1968009B5B681A4644
:1046A400FFF757FE009B1B7D012B22D1009B9B68CB
:1046B400B3F1FF3F05D0009B9B6800211846FFF72C
:1046C4004DFF009BDB68B3F1FF3F09D0009BDB6823
:1046D4001846FFF769FF009BDB681846FFF72DFFBC
:1046E400019B1868009BD968009B9B681A46FFF7DA
:1046F4006DFE00BF03B05DF804FB000000B583B09D
:1047040001900B468DF80330019B1B684FF48E71AA
:104714001846FFF7B3FD019B1B684FF4A2711846BE
:10472400FFF7ACFD019B1B680E491846FFF7CDFD52
:10473400019B1B681846FFF75DFD03461A469DF86A
:10474400033019461046FFF75DFD019B1B681846B0
:10475400FFF750FD03461846FFF774FD00BF03B092
:104764005DF804FB8000020000B583B00190019B5A
:104774001B6808491846FFF7C2FD019B1B681846D1
:10478400FFF738FD03461846FFF76AFD00BF03B084
:104794005DF804FB8402020000B587B00190019B20
:1047A4001B681846FFF7F2FD0590019B1B6818462D
:1047B400FFF7F4FD0490019B1B681846FFF7F6FD14
:1047C4000390019B1B681846FFF7F8FD0290019BBC
:1047D4001B681846FFF7CCFD019B1B681846FFF7C2
:1047E40004FE059BB3F1FF3F02D00598FFF7CBFE13
:1047F400049BB3F1FF3F02D00498FFF7C4FE029B71
:10480400B3F1FF3F02D00298FFF7BDFE039BB3F163
:10481400FF3F02D00398FFF7B6FE00BF07B05DF874
:1048240004FB000000B587B0039002910192029B43
:10483400002B03D12D49AA20FDF7B8FF039B1B7958
:104844001A462C2302FB03F3294A1344049300233E
:104854000593049B93F82A30002B03D00823059377
:10486400059B3EE0039B1A68039B1B791946214B69
:1048740053F8213019461046FFF7D6FB0346002BA8
:1048840003D011230593059B2BE002990398FFF7AE
:10489400D1FE049B019A5A60029B1A69049B1A6018
:1048A400049B5B68002B05D0029B1B7F1946039871
:1048B400FFF724FF039B1B681846FFF738FD049B92
:1048C40000229A61049B0022DA61049B002283F88F
:1048D4002920049B00225A61049B012283F82A2088
:1048E400059B184607B05DF804FB00BF8C780000F8
:1048F4006C0D0020F478000000B585B00190019B98
:104904001B791A462C2302FB03F3114A1344039325
:10491400019B1B681846FFF713FD039B5B68002B84
:1049240002D00198FFF720FF0198FFF735FF019BA4
:104934001B681846FFF7DCFB039B002283F82A2040
:10494400039B00225A6000BF05B05DF804FB00BF62
:104954006C0D002000B585B0019000914FF48E716C
:104964000198FFF78BFC009B9A68009B1B6A134419
:104974001B788DF80F30009B1B6A5A1C009B1A622F
:104984009DF80F3019460198FFF746FD00BF05B0AA
:104994005DF804FB00B585B001900091009B5B6954
:1049A400039316E0009B93F82830DBB2002B01D070
:1049B400002314E04FF48E710198FFF774FC034652
:1049C40083F00103DBB2002BECD100990198FFF7CF
:1049D400C1FF009B1B6A039A9A42EBD80123184635
:1049E40005B05DF804FB000000B587B003900291A8
:1049F4000192039B1B791A462C2302FB03F33C4AC6
:104A040013440493049B93F82A30012B04D03949AE
:104A14004FF48C70FDF7CAFE029B002B04D135497C
:104A240040F21910FDF7C2FE019B002B04D131495D
:104A34004FF48D70FDF7BAFE039800F05DF803465D
:104A4400002B03D011230593059B4CE0049B019A92
:104A54005A61049B029A9A60049B00221A62049B86
:104A6400002283F8282000230593039B1B684FF43E
:104A74008E711846FFF702FC039B1B680821184639
:104A8400FFF7D7FC039B1B6804991846FFF762FFE6
:104A9400049B5B68002B25D1039B1B680499184673
:104AA400FFF778FF034683F00103DBB2002B02D04B
:104AB4000F23059313E000BF039B1B684FF48E7113
:104AC4001846FFF7F0FB034683F00103DBB2002B2B
:104AD400F2D1039B1B680C211846FFF7AAFC049B28
:104AE40000225A61059B184607B05DF804FB00BF1D
:104AF4006C0D00208C78000082B00190019B1B7922
:104B04001946074A2C2301FB03F3134414331B688F
:104B1400002B14BF01230023DBB2184602B07047F8
:104B24006C0D002010B582B001900091009B9B6930
:104B3400002B08D14FF484710198FFF79FFB019873
:104B4400FFF761FC13E04FF484710198FFF796FBC3
:104B5400009BDA68009B5B6AD4180198FFF753FC4A
:104B640003462370009B5B6A5A1C009B5A6202B086
:104B740010BD00B589B003900291019201238DF814
:104B84001030029B0693019B0593039B5B68039A79
:104B9400116804AA1046984700BF09B05DF804FBE9
:104BA40000B587B00190009100238DF80830009B78
:104BB4000493019B9B680393019B00225A61019B10
:104BC4005B68019A116802AA1046984700BF07B0B3
:104BD4005DF804FB00B58BB0019000914FF40071B7
:104BE4000198FFF77CFB0346002B39D04FF49271F8
:104BF4000198FFF758FB0346002B31D04FF4927114
:104C04000198FFF73BFB4FF401710198FFF777FB25
:104C1400009B93F8293083F00103DBB2002B03D00F
:104C240004210198FFF705FC02238DF80C3001984C
:104C3400FFF76FFB03460693009B9B690593009B5C
:104C4400DB680493009B00229A61009B0022DA61D6
:104C5400009B5B68009A116803AA1046984752E0CB
:104C640004210198FFF73BFB0346002B4BD04FF484
:104C740084710198FFF717FB0346002B43D000997A
:104C84000198FFF74FFF009B9A69009B5B6A9A4269
:104C940039D1009BDB69002B19D0009BDB68099399
:104CA400009B5B6A0893009BDA69009B9A61009BF6
:104CB4001A69009BDA60009B0022DA61009B0022E3
:104CC4005A62099A08990098FFF753FF1BE0009B6A
:104CD40093F8293083F00103DBB2002B03D00421C5
:104CE4000198FFF7A6FB4FF401710198FFF707FB4A
:104CF400009B00229A61009B596A009BDB681A465C
:104D04000098FFF736FF4FF48E710198FFF7CBFA46
:104D14000346002B24D0009B5B690793009B1B6A0E
:104D2400079A9A420DD9009B93F82830DBB283F09E
:104D34000103DBB2002B04D000990198FFF70AFEAF
:104D44000EE04FF48E710198FFF798FA009B5B69AF
:104D5400002B05D0009B5B6919460098FFF720FFE4
:104D64004FF4A2710198FFF79EFA0346002B1CD062
:104D74004FF4A2710198FFF781FA009B93F8293050
:104D8400002B03D000210198FFF753FB009B9B6984
:104D9400002B0AD0009B00229A61009B596A009B59
:104DA400DB681A460098FFF7E4FE00BF0BB05DF81D
:104DB40004FB000008B503490348FFF70BFF00BFDD
:104DC40008BD00BF6C0D00200020004082B00346E7
:104DD4008DF807309DF90730002B0CDB9DF8073068
:104DE40003F01F0205499DF907305B09012000FA11
:104DF40002F241F8232000BF02B0704700E100E056
:104E040082B003468DF807309DF90730002B13DB81
:104E14009DF8073003F01F0209499DF907305B092B
:104E2400012000FA02F2203341F82320BFF34F8F10
:104E340000BFBFF36F8F00BF00BF02B0704700BF59
:104E440000E100E082B0034600918DF807309DF93F
:104E54000730002B0ADB009BDAB20C499DF90730BE
:104E64005201D2B20B4483F800230BE0009BDAB268
:104E740007499DF8073003F00F03043B5201D2B2F7
:104E84000B441A7600BF02B0704700BF00E100E097
:104E940000ED00E082B00190019B03F06043B3F1A8
:104EA400005F0CBF01230023DBB2184602B0704739
:104EB40082B00190019B1B0B5BB2184602B0704795
:104EC40000B583B003460A468DF8073013468DF8C3
:104ED40006309DF80630072B03D908496B20FDF7EF
:104EE40065FC9DF806209DF9073011461846FFF72A
:104EF400A9FF00BF03B05DF804FB00BFF878000011
:104F040000B583B003468DF807309DF90730184685
:104F1400FFF75CFF00BF03B05DF804FB00B583B08E
:104F240003468DF807309DF907301846FFF768FFF0
:104F340000BF03B05DF804FB84B001900B46ADF8EC
:104F44000230BDF80230019A134400221A60BDF801
:104F54000230019A13441B680393039B00BF04B0FF
:104F6400704782B001900B46ADF80230BDF80230B4
:104F7400019A13441B68002B14BF01230023DBB2E6
:104F8400184602B0704782B001900091019BD3F89B
:104F94000022009BDB431A40019BC3F8002200BFA0
:104FA40002B0704782B001900091019B009AC3F84F
:104FB400042300BF02B0704782B001900091019BAE
:104FC400009AC3F8082300BF02B0704784B0019070
:104FD400019BD3F880340393019B039AC3F8802484
:104FE400039B184604B0704782B00190019B0822CD
:104FF400C3F8002500BF02B0704782B00190019B46
:105004000022C3F8002500BF02B0704784B00390AB
:1050140002910192039B029AC3F80C25039B019A07
:10502400C3F8142500BF04B0704700B583B00190E5
:105034004FF0FF324FF0FF310198FFF7E7FF00BF59
:1050440003B05DF804FB82B00190019BD3F80C35EA
:10505400184602B0704782B00190019BD3F8143512
:10506400184602B0704782B00190019BD3F808350E
:10507400184602B0704782B00190019BD3F81035F6
:10508400184602B0704784B0039002910192039BCA
:10509400029AC3F80825039B019AC3F8102500BFA0
:1050A40004B0704700B583B001904FF0FF324FF069
:1050B400FF310198FFF7E7FF00BF03B05DF804FB81
:1050C40082B001900B468DF803309DF80330019AAD
:1050D400134401221A6000BF02B0704782B00190ED
:1050E4000B468DF8033013468DF802309DF80320EB
:1050F4009DF802301343DBB21A46019BC3F86C25BA
:1051040000BF02B0704782B001900091019B009AE9
:10511400C3F8242500BF02B0704784B00390029105
:105124000192029A039BC3F84425039B019AC3F896
:10513400482500BF04B0704782B00190019BD3F8AA
:105144004C35184602B0704782B00190019BD3F8E9
:105154003C35184602B0704700B583B00190019BFE
:105164001B68184600F0A4F80346002B04D10B4931
:105174004FF4F670FDF71AFB019B1B681F2B02D836
:105184004FF0A04306E0019B1B6803F01F02019B44
:105194001A60034B184603B05DF804FB2C79000039
:1051A4000003005000B585B00190084611461A4628
:1051B40003468DF803300B468DF8023013468DF804
:1051C400013001AB1846FFF7C7FF03909DF8032099
:1051D4009DF802305B001A439DF801309B001A438E
:1051E4009DF818301B0242EA03019DF81C301B0491
:1051F400019A1943039B02F5E07243F8221000BFA1
:1052040005B05DF804FB00B585B00390002301935D
:10521400002300930023012201210398FFF7C2FF1A
:1052240000BF05B05DF804FB00B585B003900B46E4
:105234008DF80B309DF80B30002201920022009271
:10524400002200210398FFF7ADFF00BF05B05DF811
:1052540004FB00B585B00390002301930023009361
:105264000023012200210398FFF79CFF00BF05B033
:105274005DF804FB00B585B0019001AB1846FFF75B
:105284006BFF0390019B012202FA03F31946039872
:1052940000F004F800BF05B05DF804FB82B0019093
:1052A4000091019B009AC3F8082500BF02B0704723
:1052B40084B00190019B5B09029300230393029B3A
:1052C400002B03D0029B012B04D007E04FF0FF33E7
:1052D400039303E04FF6FF73039300BF019B03F0B6
:1052E4001F030193039A019B22FA03F303F00103C2
:1052F400002B14BF01230023DBB2184604B070470F
:1053040000B583B001900091009B1B68B3F1FF3F8F
:1053140009D0009B1B681846FFF7ACFF009B1B6875
:105324001846FFF770FF009B5B68B3F1FF3F05D0A1
:10533400009B5B6800211846FFF776FF019B1A6803
:10534400009B9B6919461046FFF7DDFE019B186818
:10535400009B597D009B1B7D1A46FFF7BFFE019BF6
:105364001868009B1968009B5B681A46FFF74EFE9D
:10537400009B1B7D012B22D1009B9B68B3F1FF3F57
:1053840005D0009B9B6800211846FFF74DFF009B4A
:10539400DB68B3F1FF3F09D0009BDB681846FFF7D9
:1053A40069FF009BDB681846FFF72DFF019B186817
:1053B400009BD968009B9B681A46FFF764FE00BFF8
:1053C40003B05DF804FB000000B583B001900B4608
:1053D4008DF80330019B1B684FF488711846FFF762
:1053E400ABFD019B1B684FF490711846FFF7A4FDB9
:1053F400019B1B684FF492711846FFF79DFD019BBA
:105404001B684FF4A2711846FFF796FD019B1B68B9
:105414004FF4AC711846FFF78FFD019B1B680F49D1
:105424001846FFF7BFFD019B1B681846FFF740FDB8
:1054340003461A469DF8033019461046FFF740FD0F
:10544400019B1B681846FFF733FD03461846FFF718
:1054540057FD00BF03B05DF804FB00BF100342001A
:1054640000B583B00190019B1B6808491846FFF7FB
:10547400A3FD019B1B681846FFF71AFD0346184657
:10548400FFF74CFD00BF03B05DF804FB10034200BE
:1054940000B587B00190019B1B681846FFF7D3FD48
:1054A4000590019B1B681846FFF7D5FD0490019BEE
:1054B4001B681846FFF7D7FD0390019B1B6818462D
:1054C400FFF7D9FD0290019B1B681846FFF7ADFD5D
:1054D400019B1B681846FFF7E5FD059BB3F1FF3FF1
:1054E40002D00598FFF7B5FE049BB3F1FF3F02D04D
:1054F4000498FFF7AEFE029BB3F1FF3F02D002987F
:10550400FFF7A7FE039BB3F1FF3F02D00398FFF719
:10551400A0FE00BF07B05DF804FB000000B587B033
:10552400039002910192029B002B03D12B49CF20BF
:10553400FDF73CF9039B1B791A461346DB00134421
:105544009B00274A1344049300230593049B93F878
:105554002030002B03D008230593059B3AE0039BDE
:105564001A68039B1B7919461E4B53F821301946C0
:105574001046FEF759FD0346002B03D01123059373
:10558400059B27E002990398FFF7BAFE049B019A52
:105594005A60029B1A69049B1A60049B5B68002B87
:1055A40005D0029B1B7F19460398FFF70DFF039B51
:1055B4001B681846FFF718FD049B00229A61049BA0
:1055C4000022DA61049B00225A61049B012283F8C1
:1055D4002020059B184607B05DF804FB687900009D
:1055E400980D0020D479000000B585B00190019B8E
:1055F4001B791A461346DB0013449B002A4A1344C2
:105604000393019B1B680293039B5B68002B02D0EE
:105614000198FFF725FF20210298FFF7B4FC039BB4
:105624009B69002B08D04FF4A2710298FFF784FC09
:1056340004210298FFF744FD4FF4AC710298FFF780
:105644007BFC0C210298FFF73BFD00BF4FF4AC71CB
:105654000298FFF786FC034683F00103DBB2002BBC
:10566400F4D1039B9B69002B0AD04FF4A2710298DA
:10567400FFF777FC034683F00103DBB2002BE5D18F
:105684000298FFF7BAFC0198FFF702FF0298FEF7B1
:105694002FFD039B002283F82020039B00225A60E5
:1056A40000BF05B05DF804FB980D002000B589B07B
:1056B400039002910192039B1B791A461346DB0067
:1056C40013449B00574A13440593059B93F82030D9
:1056D400012B04D0544940F25310FDF767F8029BA4
:1056E400002B04D150494FF4AA70FDF75FF8019BD9
:1056F400002B04D14C4940F25510FDF757F8039B99
:105704001B79002B03D1019BB3F5803F04D3464999
:105714004FF4AB70FDF74AF80298FFF7BBFB034662
:1057240083F00103DBB2002B03D010230793079B04
:1057340073E0039800F07AF80346002B03D011239A
:105744000793079B69E0059B019A5A61059B029A9E
:105754009A6000230793039B1B684FF490711846CB
:10576400FFF7EAFB039B1B684FF4AC711846FFF785
:10577400E3FB039B1868059B9968059B5B691A46C4
:10578400FFF7CBFC039B1B6808211846FFF798FC26
:10579400059B5B68002B3FD1039B1B684FF4907102
:1057A4001846FFF7DEFB03468DF81B30039B1B688E
:1057B4004FF4AC711846FFF7D4FB03468DF81A304A
:1057C4009DF81B3083F00103DBB2002B06D09DF85B
:1057D4001A3083F00103DBB2002BDDD19DF81A30BF
:1057E400002B02D00F23079313E0039B1B680C21AB
:1057F4001846FFF765FC00BF039B1B684FF4AC71B0
:105804001846FFF7AEFB034683F00103DBB2002B1F
:10581400F2D1059B00225A61079B184609B05DF836
:1058240004FB00BF980D00206879000082B001904D
:10583400019B1B791946084A0B46DB000B449B006D
:10584400134414331B68002B14BF01230023DBB261
:10585400184602B0704700BF980D002000B589B00B
:1058640003900291019201238DF81030029B06935C
:10587400019B0593039B5B68039A116804AA104675
:10588400984700BF09B05DF804FB00B587B00190EC
:10589400009100238DF80830009B0493019B9B68C2
:1058A4000393019B00225A61019B5B68019A116872
:1058B40002AA1046984700BF07B05DF804FB00B584
:1058C40089B0019000914FF492710198FFF749FB60
:1058D4000346002B22D04FF492710198FFF72CFB62
:1058E40002238DF808300198FFF770FB03460593F7
:1058F4000198FFF729FC03460493009BDB6803939C
:10590400009B00229A61009B0022DA61009B5B6885
:10591400009A116802AA104698473BE04FF4887138
:105924000198FFF71EFB0346002B33D04FF4887118
:105934000198FFF701FB0198FFF706FC0790009B15
:105944009B69079A9A4225D1009BDB69002B17D0EB
:10595400009BDB68069320210198FFF714FB009B52
:10596400DA69009B9A61009B1A69009BDA60009BCC
:105974000022DA61069A07990098FFF76FFF09E0A1
:10598400009B00229A61009BDB681A4607990098E5
:10599400FFF764FF4FF4A2710198FFF7E2FA0346A0
:1059A400002B18D04FF4A2710198FFF7C5FA009BA1
:1059B4009B69002B0FD0009B00229A61009B002260
:1059C400DA610198FFF7C0FB0146009BDB681A46C9
:1059D4000098FFF743FF4FF490710198FFF7C1FA65
:1059E4000346002B14D04FF490710198FFF7A4FAEA
:1059F4000C210198FFF764FB009B5B69002B07D027
:105A04000198FFF799FB034619460098FFF73DFFFD
:105A14004FF4AC710198FFF7A4FA0346002B10D0A1
:105A24004FF4AC710198FFF787FA009B5B69002B78
:105A340007D00198FFF780FB034619460098FFF74B
:105A440024FF00BF09B05DF804FB000008B503495A
:105A54000348FFF734FF00BF08BD00BF980D0020C6
:105A64000020004084B0019000230293019BDBB22C
:105A740001930023039310E0019A039B22FA03F39A
:105A840003F00102039BC3F1070302FA03F3029A32
:105A940013430293039B01330393039B072BEBD91B
:105AA400029B184604B0704710B582B00190019B68
:105AB4001B0E1846FFF7D6FF03461C06019B1B0C62
:105AC4001846FFF7CFFF03461B041C43019B1B0A28
:105AD4001846FFF7C7FF03461B021C430198FFF754
