:020000022000DC
:1070000000FD0320A1240400C9240400CB240400B3
:10701000CD240400CF240400D1240400000000008B
:10702000000000000000000000000000D324040065
:10703000D524040000000000D7240400D924040053
:10704000DB240400DB240400DB240400C98B0200E1
:10705000BD8C0200DB240400ED830200DB2404006D
:10706000DB240400DB2404008D090400DB2404007D
:10707000DB240400DB240400DB240400DB24040004
:10708000DB2404009D1C040041A60300DB24040053
:10709000851D0400DB24040039920200DB24040077
:1070A000DB240400DB240400DB240400DB240400D4
:1070B000DB240400DB2404000000000000000000CA
:1070C000DB240400DB240400DB240400BD8D02006B
:1070D000DB240400DB240400DB240400DB240400A4
:1070E000DB240400DB240400DB2404000000000097
:1070F00000000000DB24040000000000DB2404008A
:10710000000000000000000000000000000000007F
:10711000000000000000000000000000000000006F
:10712000000000000000000000000000000000005F
:10713000000000000000000000000000000000004F
:10714000000000000000000000000000000000003F
:10715000000000000000000000000000000000002F
:10716000000000000000000000000000000000001F
:10717000000000000000000000000000000000000F
:1071800000000000000000000000000000000000FF
:1071900000000000000000000000000000000000EF
:1071A00000000000000000000000000000000000DF
:1071B00000000000000000000000000000000000CF
:1071C00000000000000000000000000000000000BF
:1071D00000000000000000000000000000000000AF
:1071E000000000000000000000000000000000009F
:1071F000000000000000000000000000000000008F
:107200000348044B834202D0034B03B11847704735
:10721000B42E0020B42E0020000000000548064BCC
:107220001B1AD90F01EBA301491002D0034B03B184
:1072300018477047B42E0020B42E00200000000034
:1072400010B5064C237843B9FFF7DAFF044B13B1AE
:107250000448AFF300800123237010BDB82E002036
:1072600000000000CC4B040008B5054B1BB10549DC
:107270000548AFF30080BDE80840FFF7CFBF00BF6F
:1072800000000000BC2E0020CC4B0400A3F5803A87
:10729000704700BF174B002B08BF134B9D46FFF7ED
:1072A000F5FF00218B460F461348144A121A1CF0B2
:1072B0000DF80E4B002B00D098470D4B002B00D043
:1072C00098470020002104000D000D48002802D03E
:1072D0000C48AFF300801CF027F82000290000F0D4
:1072E000F5F91BF013FF00BF0000080000000000CC
:1072F0000000000000FD0320B82E0020285D0020C3
:10730000000000000000000041DF704730B5374D3D
:107310002B685A0483B0044603D5354B1B68032BF6
:1073200021DC63685A78172A1BD162781F2A18D18A
:10733000304A1878114601F81E0BC2F1010000E036
:10734000636813441B5C02F8013F8A42F8D12B6842
:10735000294A01215B04117003D5254B1B68032BBF
:1073600015DC03B030BD25482F211BF0B7FF10B34B
:107370002F2122481BF0B2FF411C214B214AD3F898
:10738000043500920420442214F0B2F9C9E71B48E6
:107390002F211BF0A3FFD8B12F2118481BF09EFF0F
:1073A000411C174B1848D3F8043500905222042092
:1073B00014F09EF9D5E711485C211BF08FFF28B12E
:1073C0005C210E481BF08AFF411CD6E70B49D4E72D
:1073D0000A485C211BF082FF28B15C2107481BF0A2
:1073E0007DFF411CDDE70549DBE700BF402E0020A3
:1073F0003C2E00209C310020D42E00208834040034
:1074000000100140E43404000035040008B511F018
:10741000C3FC024B00221A7008BD00BFD62E00200C
:107420000378232B00D0704700B51A4B1B685B0410
:1074300083B003D5184B1B68032B09DC0322C8213A
:107440000F2000F01FFE03B05DF804EB00F0AEBDAE
:1074500012482F211BF042FF70B12F210F481BF063
:107460003DFF411C0E4B0F48D3F8043500906522B8
:10747000042014F03DF9E1E708485C211BF02EFFE1
:1074800028B15C2105481BF029FF411CEAE70349AC
:10749000E8E700BF402E00203C2E00208834040086
:1074A000001001402035040000B51D4B1D491E4849
:1074B0004FF0010C002283B01A7081F800C011F067
:1074C00065FC1A4B1B685B0403D5194B1B68032B27
:1074D00002DC03B05DF804FB16482F211BF0FEFE12
:1074E00080B12F2113481BF0F9FE411C124B1348A9
:1074F000D3F8043500905A22042014F0F9F803B0B0
:107500005DF804FB0B485C211BF0E8FE28B15C2110
:1075100008481BF0E3FE411CE8E70649E6E700BF28
:10752000D52E0020D62E00200D730200402E002004
:107530003C2E002088340400001001403C3504003B
:1075400030B587B006AB03E907009DF80C30012B7E
:1075500001D007B030BD534D2B6859041AD4524C9A
:1075600023781E2B58D000F0A7FB4F481D2100F0B8
:107570000BFC637FC0F307229A4217D1A37FC0B2EE
:10758000834213D1494B01221A70494B01221A70D0
:1075900007B030BD474B1A68032A25DC424C2278DD
:1075A0001E2AE0D16278172A3DD1DCE72B685B0404
:1075B000EBD5404B1B68032BE7DD3F482F211BF029
:1075C0008DFE00285CD02F213B481BF087FE411C1C
:1075D000607A3A4A3A4BD3F80435CDE90020B82214
:1075E000042014F085F8D0E733482F211BF076FEF5
:1075F00000282FD02F2130481BF070FE411C304B4B
:107600003048294CD3F804350090B022042014F0FF
:107610006FF823781E2B02D16378172BA3D02B6829
:107620005A04A0D5234B1B68032B9CDD22482F2135
:107630001BF054FEC8B12F211F481BF04FFE411C08
:107640001F4B214AD3F8043500920420B32214F0D2
:107650004FF888E718485C211BF040FED8B15C2148
:1076600015481BF03BFE411CC9E713485C211BF089
:1076700035FE90B15C2110481BF030FE411CDFE765
:107680000D485C211BF02AFE48B15C210A481BF022
:1076900025FE411C9CE70849B1E70749D0E70649A8
:1076A00096E700BF402E0020BC310020983100201A
:1076B000993100203C2E002088340400BC350400A1
:1076C0000010014070350400943504002DE9804815
:1076D000A94D0FCD8DB002AC0FC495E803001E225A
:1076E0001D2384E803001F25CDE902231A24A34AA1
:1076F000A34802A9CDE9044501F002F9002840F0B1
:107700003F824FF0A04340F20132C3F878271AF0CD
:10771000ADFC002840F0548200F01EFD994A9A4CBE
:1077200004214FF4804013F0D3FF01F0CDFB24225D
:10773000002102A81BF0CAFD944B02940F220021E5
:1077400002A88DF81020069300F0C8FB30B10B287A
:1077500000F021828E4A84211AF0D0FE8D4C8E4F8B
:107760008E4A8F498F484FF4007318F0EBFD1B20B1
:1077700018F098FC00F00AFC002840F007828948C5
:1077800018F056FE884A894801211AF0DDFC0028CD
:1077900040F0F9812368590403D53B68032B00F3BB
:1077A000148211F0F9FADFF83092DFF830A2DFF836
:1077B0003082DFF830B2764D3E4627463B685A04A9
:1077C00003D53368032B00F3C180794A002313707B
:1077D0001F22784B78496A48009201F08DF999F898
:1077E00000302BB9FFF790FD99F80030002BF9D04D
:1077F0006F4B1C78002CEBD03B685B0403D53368DF
:10780000032B00F3238167481F2118F04BFECAF8B1
:10781000000058B1674911301F221BF0B3FDDAF8A0
:107820000010604801230B7118F07AFE012388F8DC
:10783000003034B111F09EFA80BB98F80040002C63
:10784000F8D13B68590403D53368032B00F3CC808F
:107850005A480022A4211AF089FC38B1574C002262
:10786000A42120461AF082FC0028F8D154499BF844
:10787000003000220A702BB1FFF746FD9BF8003064
:10788000002BF9D13B685B0402D53368032B0ADC7B
:10789000002389F80030FFF737FD8FE7FFF704FE7C
:1078A000FFF732FDC9E72F2128461BF017FD0028FE
:1078B00000F008812F2128461BF010FD411C414B90
:1078C000414AD3F8043500920420EF2213F010FF50
:1078D0003B4A3B68127803F48043E2B1002BD7D0D7
:1078E0003368032BD4DD2F2128461BF0F7FC00283A
:1078F00000F033812F2128461BF0F0FC411C314B56
:10790000324AD3F8043500920420F22213F0F0FE3C
:107910003B6803F48043002BBAD03368032BB7DDF8
:107920002F2128461BF0DAFC002800F0BF802F2111
:1079300028461BF0D3FC411C224B254AD3F80435C2
:1079400000920420F42213F0D3FEA1E72F21284651
:107950001BF0C4FC002800F0D7802F2128461BF024
:10796000BDFC411C174B1B4AD3F804350092042080
:10797000CA2213F0BDFE28E70C470400417502003F
:1079800004470400A1B603000100000721740200AF
:1079900088340400402E00203C2E0020DC2E0020E5
:1079A000A9740200DC3000200D74020000470400BE
:1079B00098310020BC3100209C310020783100201B
:1079C000D42E00200010014094370400D437040066
:1079D000F03704009436040099310020D82E00209E
:1079E000D52E0020D62E00202F2128461BF076FC15
:1079F000002800F09F802F2128461BF06FFC411CBF
:107A0000A24BA34AD3F8043500920420E22213F0DB
:107A10006FFE3B685A047FF51BAF3368032B7FF77B
:107A200017AF2F2128461BF059FC002877D02F21B3
:107A300028461BF053FC411C944B964AD3F804355E
:107A400000920420E42213F053FE01E72F21284680
:107A50001BF044FC00284CD02F2128461BF03EFC94
:107A6000411C8A4B8C4AD3F8043500920420D4225E
:107A700013F03EFE3B6858047FF5C5AE3368032B18
:107A80007FF7C1AE2F2128461BF028FC30B32F21F1
:107A900028461BF023FC411C7C4B804AD3F804355C
:107AA00000920420D62213F023FEACE65C21284687
:107AB0001BF014FC002848D05C2128461BF00EFC6B
:107AC000411C39E75C2128461BF008FC002840D007
:107AD0005C2128461BF002FC411CF0E65C21284694
:107AE0001BF0FCFBB8B35C2128461BF0F7FB411CE4
:107AF000D2E75C2128461BF0F1FBC8B35C21284685
:107B00001BF0ECFB411CACE75C2128461BF0E6FBBC
:107B100080B35C2128461BF0E1FB411C22E75C217D
:107B200028461BF0DBFB38B35C2128461BF0D6FB54
:107B3000411C81E75C2128461BF0D0FB38B15C2159
:107B400028461BF0CBFB411C5AE72946F4E62946A0
:107B500056E72946B3E629469EE75C2128461BF0F6
:107B6000BDFB58B15C2128461BF0B8FB411CC6E6A2
:107B7000294676E72946F5E629465DE72946BEE629
:107B80001AF0ACFCBDE51AF0A9FC03E6444A9121C9
:107B90001AF0B4FCF3E5434C434F23685D047FF5D2
:107BA000DFAD3B68032B7FF7DBAD3D482F211BF09A
:107BB00095FB50B32F213A481BF090FB411C2FE05E
:107BC000374A8B211AF09AFCA6E535482F211BF085
:107BD00085FB70B12F2132481BF080FB411C2B4BE1
:107BE000324AD3F8043500920420952213F080FD28
:107BF000D7E52B485C211BF071FB002835D05C21B8
:107C000027481BF06BFB411CE9E725485C211BF072
:107C100065FB002836D05C2121481BF05FFB411C2E
:107C20001A4B234AD3F80435009204207E2213F025
:107C30005FFD236858047FF593AD3B68032B7FF706
:107C40008FAD17482F211BF049FB80B12F2114481D
:107C50001BF044FB411C0D4B164AD3F8043500922F
:107C600004207F2213F044FD7AE50D49B7E70C4864
:107C70005C211BF033FB38B15C2109481BF02EFB63
:107C8000411CE8E70649CBE70549E4E7001001405D
:107C90002837040054370400C8360400EC360400CA
:107CA00088340400402E00203C2E0020743604004E
:107CB000E83504003836040030B5324D002205F5B1
:107CC000007E114648F205000B044BBF82EA000417
:107CD00013B223B21446002B4FDB6400A3B224B2CC
:107CE000002C45DB5B009CB21BB2002B3BDB64002D
:107CF000A3B224B2002C31DB5B009CB21BB2002B80
:107D000027DB6400A3B224B2002C1DDB5B009CB215
:107D10001BB2002B0BDB640025F8024F01F58071CC
:107D200002F50072754589B292B2CDD130BD80EABC
:107D3000430325F8023F01F5807102F50072AE455C
:107D400089B292B2C0D1F1E780EA440423B2A4B26E
:107D5000DFE780EA43031CB29BB2D5E780EA440424
:107D600023B2A4B2CBE780EA43031CB29BB2C1E7C3
:107D700080EA440423B2A4B2B7E780EA43031CB20A
:107D80009BB2ADE7DA310020002910B440F38480C3
:107D90000138434C00EB010C002110F8012F02F0D8
:107DA0000103DB0112F0020F18BF43F0400312F091
:107DB000040F18BF43F0200312F0080F18BF43F060
:107DC000100312F0100F18BF43F0080312F0200F39
:107DD00018BF43F0040312F0400F18BF43F0020332
:107DE00043EAD21383EA1123DBB2090234F81330D9
:107DF00089B2604581EA0301CFD141F3400301F02C
:107E0000010041F3800203F4804343EAC03302F4EB
:107E100000528908134341F3400041F3800200F40B
:107E20008050184302F4006341F3C002184302F487
:107E3000806241F30013104303F4007341F34012D6
:107E4000184302F4807241F38013104303F080035F
:107E500041F3C012184302F0400241F300231043E3
:107E600003F0200341F34022184302F0100241F3D3
:107E70008023104303F0080341F3C022184302F0AB
:107E8000040241F30033104303F00203184340EAB5
:107E900051305DF8044B704700210B46BBE700BF33
:107EA000DC31002010B5044614F0D0FD10B1237869
:107EB0000E2B00D010BDBDE81040002010F0D0BF48
:107EC0000378142B00D07047C3880F2BFBD8024BCC
:107ED00001221A70704700BFDC33002070B582B0F9
:107EE000002849D00E46054610F066FE044610B143
:107EF000204602B070BD04F023FE02F0DBFC2869CE
:107F00000BF0EEFB04460028F2D12A7FAB69CDE9E5
:107F1000003201466B691A484FF6FF720BF0C8FF3A
:107F200004460028E4D12B6A03B19847154810F0A5
:107F300023FF17F0BDF8134810F020FF04F0D0FB2A
:107F4000054602F083F80B2D0AD00B2808D00E4B03
:107F50001B782BB908F0ACF8002EC9D03070C7E7F9
:107F600011F066FD0B2402F06BFC04F087FD0FF0AE
:107F7000AFFF15F0EFFCEDE70E24204602B070BD18
:107F8000E03300200C2E0020DC33002010F088BEEF
:107F900008B511F04DFD02F053FC04F06FFD0FF039
:107FA00097FFBDE8084015F0D5BC00BF08B514F038
:107FB0004DFD20B1BDE80840002010F051BFBDE8E4
:107FC0000840014810F0D8BE002E00202DE9F843EB
:107FD000DFF8A880D8F8000048B3244D244FD5F826
:107FE00000900024012606FA04F313EA090F10D0CA
:107FF000385D204B1F2894BF4FF0A04300F01F02B4
:10800000D3F8043598BF0246D340DA070CD500F008
:10801000DFF90134042CE6D1D8F80040013CC8F85F
:1080200000403CB1BDE8F88300F0C4F9F1E71AF074
:1080300055FAD2E710480E4FDFF844801AF0F0F8F6
:1080400001262B6806FA04F21A4207D0D8F800304D
:10805000385DE340DB0706D500F0BAF90134042CA3
:10806000EFD1BDE8F88300F0A5F9F7E73C34002034
:108070002447040000030050443400204034002012
:10808000383400200AB1132900D87047F8B55200DF
:108090002C4B2D4D013A1A6010F00103286007D0D7
:1080A0004FF0A043D3F804356FEA533303F00103D4
:1080B000860709D54FF0A042D2F804256FEA923224
:1080C000520002F002021343440709D54FF0A042C8
:1080D000D2F804256FEAD232920002F00402134370
:1080E000020709D54FF0A042D2F804256FEA1242E8
:1080F000D20002F008021343144C236000244FF412
:10810000004223464FF4FA70E1FB020319464FF494
:108110007A7200231AF082FE224601460C481AF0B9
:1081200025F8044600B1F8BD0A4F2E68012505FA6E
:1081300004F3334202D0385D00F04AF90134042CD4
:10814000F5D1F8BD403400203C3400203834002004
:10815000443400202447040030B583B000F080F898
:10816000E0B1144C00230122ADF804308DF8063044
:108170008DF80520251D14F8010B01A900F07AF8EF
:1081800048B9AC42F7D10C4A0C48012119F0DCFF88
:1081900058B903B030BD1AF0A1F9F2E700F010F8B9
:1081A0000028DED01AF09AF9DBE71AF097F903B04D
:1081B00030BD00BF24470400CD7F020028470400E3
:1081C00030B5234D95F86A3083B0002B3CD105F1D2
:1081D00030015C09012C2ED1FF22CA540133302B0F
:1081E000F7D14FF0FF3341F8303C06220021194807
:1081F000EB62C5E90133C5E90333C5E90533C5E9D8
:108200000733C5E909332B661BF060F8124BC02217
:1082100083F8062340221A60104B0020C3F87C012B
:10822000D3F87C2101924FF00042019985F86A4011
:10823000C3F8042309E04FF0FF3222FA03F0C0072D
:1082400048BFCA540133C4E7082003B030BD00BFA3
:1082500064340020C834002000E100E000600040E9
:10826000034B93F86A00003818BF0120704700BF25
:10827000643400204C4B1A1892F930C0BCF1FF3F17
:1082800001D00820704710B48C78ECB11A68013224
:108290004FD05A6801327CD09A6801327BD0DA68BC
:1082A000013274D01A69013277D05A69013276D01E
:1082B0009A69013275D0DA69013208BF072239D0D4
:1082C00004205DF8044B7047FE2382F830304A7872
:1082D000012A26D01F281AD9344900F01F03012291
:1082E0009A40C1F80C25314903F5E073032241F8A7
:1082F000232020FA02F22E4900F007008C5C0123B3
:10830000834023438B5400205DF8044B70470123C6
:108310004FF0A0428340C2F80C3503464FF0A04115
:10832000E2E71F282CD84FF0A0438240C3F808256D
:10833000F3E700221C1884F83020002443F8224080
:1083400093004C780A782405120404F4801403F195
:10835000804302F4403203F5C0432243040204F494
:108360007C542243D3F8104524F4991424F4F8548F
:10837000C3F81045D3F810452243C3F81025A6E7EB
:108380000A4900F01F039A40C1F80825ABE7032211
:10839000D0E70122CEE70222CCE70422CAE7052279
:1083A000C8E70622C6E700BF64340020000300507F
:1083B000C83400201F2886BF044A00F01F004FF079
:1083C000A04201238340C2F80835704700030050E3
:1083D0001F2886BF044A00F01F004FF0A04201236F
:1083E0008340C2F80C357047000300502DE9F04778
:1083F000002384B0CDE902331C4AD2F800110129D0
:1084000000F03B821E46194BD3F80421012A00F0EC
:108410002582164BD3F80821012A00F01082134B55
:10842000D3F80C21012A00F0FB81104BD3F8102166
:10843000012A00F0E6810D4BD3F81421012A00F047
:10844000D1810A4BD3F81821012A00F0B881074BDB
:10845000D3F81C21012A0BD0044BD3F87C21012A2C
:1084600000F02C8256BB04B0BDE8F08700600040ED
:10847000D3F804231106EFD50022C3F81C21D3F84A
:108480001C110091D3F87C110098012946F0800658
:1084900014D1C3F87C21D3F87C3101934FF0A04272
:1084A000019BD2F82015CD4B0291C2F82015D3F8CC
:1084B00020250392C3F8202546F00046C84F012529
:1084C0000024A30003F18043354203F5C0430BD0E1
:1084D000D3F8100557F82420D3F81015C0F3052061
:1084E000C1F3014102B190470134082C4FEA450520
:1084F000E7D1002EB7DABA4CB84E01254FF0A047AD
:1085000094F960305A1C4BD0C3F3C20101F1100240
:108510000DEB020103F0070211F808CC05FA02F294
:108520001CEA020FD9B203F03F0039D01F2800F235
:10853000368103464FF0A04909EB830205FA03F3A5
:10854000D2F800C7D2F800E72EF4403EC2F800E7A8
:1085500004EB000ECCF3014C9EF930E0D2F800A7FA
:1085600054F82E80BCF1020F14BF4FF4003E4FF4BC
:10857000403E4EEA0A0EC2F800E7C9F82035B8F1CD
:10858000000F0DD08909032900F08C81BCF1020F86
:1085900000F08581BCF1030F02D1022900F0828135
:1085A00094F96130581C4BD0C3F3C20101F11002A1
:1085B0000DEB020103F0070211F808CC05FA02F2F4
:1085C0001CEA020FD9B203F03F0039D01F2800F295
:1085D000EA8003464FF0A04909EB830205FA03F352
:1085E000D2F800C7D2F800E72EF4403EC2F800E708
:1085F00004EB000ECCF3014C9EF930E0D2F800A75A
:1086000054F82E80BCF1020F14BF4FF4003E4FF41B
:10861000403E4EEA0A0EC2F800E7C9F82035B8F12C
:10862000000F0DD08909032900F04181BCF1020F30
:1086300000F03A81BCF1030F02D1022900F037812A
:1086400094F96230591C4BD0C3F3C20101F11002FE
:108650000DEB020103F0070211F808CC05FA02F253
:108660001CEA020FD9B203F03F0039D01F2800F2F4
:108670009E8003464FF0A04909EB830205FA03F3FD
:10868000D2F800C7D2F800E72EF4403EC2F800E767
:1086900004EB000ECCF3014C9EF930E0D2F800A7B9
:1086A00054F82E80BCF1020F14BF4FF4003E4FF47B
:1086B000403E4EEA0A0EC2F800E7C9F82035B8F18C
:1086C000000F0DD08909032900F0F680BCF1020FDC
:1086D00000F0EF80BCF1030F02D1022900F0EC8022
:1086E00094F963305A1C4AD0C3F3C20101F110025D
:1086F0000DEB020103F0070211F808CC05FA02F2B3
:108700001CEA020FD9B203F03F0038D01F2852D81C
:1087100003464FF0A04909EB830205FA03F3D2F8B0
:1087200000C7D2F800E72EF4403EC2F800E704EBA1
:10873000000ECCF3014C9EF930E0D2F800A754F8BB
:108740002E80BCF1020F14BF4FF4003E4FF4403EA8
:108750004EEA0A0EC2F800E7C9F82035B8F1000F5A
:108760000DD08909032900F09880BCF1020F00F0B8
:108770009180BCF1030F02D1022900F08E80D7F85E
:1087800020350293C7F82035D6F8202503921343ED
:10879000C6F820257FF4B4AE04B0BDE8F08703F03E
:1087A0001F03B146C8E603F01F03B14614E703F008
:1087B0001F03B14660E703F01F03B146ABE7D3F8F0
:1087C000042350067FF543AE0022C3F81821D3F8E6
:1087D00018310093009B46F0400638E60003005035
:1087E00064340020D3F8042394067FF52AAE0022D7
:1087F000C3F81421D3F814310093009B46F02006EF
:108800001FE6D3F80423D5067FF515AE0022C3F882
:108810001021D3F810310093009B46F010060AE6B1
:10882000D3F8042317077FF500AE0022C3F80C210C
:10883000D3F80C310093009B46F00806F5E5D3F819
:10884000042352077FF5EBAD0022C3F80821D3F8CB
:1088500008310093009B46F00406E0E5D3F80423BA
:1088600091077FF5D6AD0022C3F80421D3F8043177
:108870000093009B46F00206CBE5D2F8046316F0A5
:1088800001063FF4C0ADC2F80031D2F800310093C8
:10889000009BB8E501297FF472AFC0476FE701295B
:1088A0007FF47EAEC0477BE601297FF4C9AEC047A6
:1088B000C6E601297FF414AFC04711E70022C3F8D0
:1088C0007C21D3F87C3101934FF0A042019BD2F878
:1088D0002015064B0291C2F82015D3F820250392EB
:1088E000C3F82025002E3FF406AEE5E50003005056
:1088F0008C46024B07C853F82C301847D034002060
:1089000010B4044C037944F823205DF8044B024A68
:1089100000F004B8D0340020F18802002DE9F047BF
:1089200090F804C0704DCCEBCC0405EB840482B00D
:10893000247D002C40F0C7800C7C032C00F2CA8000
:108940000E680468FF2E4FEACC0E00F0AC801F2E9C
:10895000CF7C86BFDFF8948106F01F064FF0A04859
:1089600006F5E0763F0248F826704E68D1F80080A0
:10897000FF2E00F09E801F2E86BF06F01F065B4F65
:108980004FF0A04706F5E0764FF0000947F8269033
:10899000D1F80490CE688F7C1F2E86BF06F01F068C
:1089A000DFF848A14FF0A04A06F5E076BF004AF88C
:1089B00026708F681F2F86BF07F01F07DFF82CA1D6
:1089C0004FF0A04A07F5E07700264AF82760D1E982
:1089D000027AC4F80875C4F81095C4F80C85C4F878
:1089E00014A5C4F83465C4F83865C4F84465C4F8FF
:1089F00048654E7C0F7C003E18BF0126022F70D0C8
:108A0000032F6BD0012F62D0C4F854650E7DC4F8DB
:108A10005C654E7DC4F8C0650027C4F80471D4F8C5
:108A200004610196019EC4F82871D4F8286100966B
:108A3000009EAEEB0C0605EB8606B361D4F800325F
:108A4000B26043F00403C4F8003240F20243777589
:108A5000C4F8043303688A7D43F30733BB422BDB3E
:108A600003F16043520103F56143D2B283F800235E
:108A7000036843F30733002B08DB1D495809012223
:108A800003F01F0302FA03F341F82030AEEB0C0EA3
:108A900005EB8E050122022300202A75C4F800355B
:108AA00002B0BDE8F0874E68FF2E4FF0FF387FF42C
:108AB00062AF4FF0FF396DE70E4903F00F0352012B
:108AC000D2B2CA54D4E7082002B0BDE8F08746F01D
:108AD000020699E7072002B0BDE8F08746F00606D7
:108AE00092E746F004068FE7DC34002000030050D4
:108AF00000E100E014ED00E090F804C0BCF1020FCA
:108B000040D870B584B0089C44EA020EBEF5803FA0
:108B10003CD221B101F06044B4F1005F2FD123B108
:108B200003F06044B4F1005F29D1264CCCEBCC0EAD
:108B300004EB8E0E4FEACC059EF815E0BEF1010F56
:108B40005FFA8EF620D002D9023E012E21D8A5EB85
:108B50000C05AE00A25104EB8504C4E90313089A86
:108B60006260012501686575637D022BDAB21FD052
:108B7000032A10D0AA4200D14A62002000E010204F
:108B800004B070BD092070470820F9E7092004B03F
:108B900070BD0320F4E7D1F83C05D1F84C25A3685B
:108BA000A1698DF80050CDE9010268469847E4E7D5
:108BB0000023CDE90133A268A1698DF80030684631
:108BC0009047DAE7DC34002030B53A4BD3F828215F
:108BD00087B05AB10020C3F82801D3F82811364ACB
:108BE00001910199517D0129CCB21CD0314BD3F8B0
:108BF000042152B10020C3F80401D3F804112E4A15
:108C000000910099517D022901D007B030BD0321A8
:108C10005175517D0229CCB242D0032C32D0012CA7
:108C2000F3D15C62F1E71168D568C3F84455C3F825
:108C3000481551681569C3F83455C3F83815022131
:108C40009C625175517D0229CDB212D0032D03D003
:108C5000012DCBD15D62C9E78DF80840D3F83C15F2
:108C60000391D3F84C0591699368049002A8984742
:108C7000BCE7936891698DF80800CDE9030002A86C
:108C80009847B3E701218DF80810D3F83C150391FC
:108C9000D3F84C0591699368049002A89847B4E70B
:108CA000936891698DF80800CDE9030002A8984700
:108CB000ABE700BF00300040DC34002030B54FF09F
:108CC000402387B0D3F8282162B10020C3F82801DF
:108CD000D3F82811384A0191019992F831100129ED
:108CE000CCB220D04FF04023D3F804215AB1002059
:108CF000C3F80401D3F804112F4A0091009992F8A7
:108D00003110022901D007B030BD032182F83110A3
:108D100092F831100229CCB244D0032C34D0012C6B
:108D2000F1D15C62EFE7D169956AC3F84455C3F8A5
:108D30004815116AD56AC3F83455C3F838150221AD
:108D40009C6282F8311092F831100229CDB212D013
:108D5000032D03D0012DC5D15D62C3E78DF8084016
:108D6000D3F83C150391D3F84C05516B536A04902A
:108D700002A89847B6E7536A516B8DF80800CDE911
:108D8000030002A89847ADE701218DF80810D3F839
:108D90003C150391D3F84C05516B536A049002A81B
:108DA0009847B0E7536A516B8DF80800CDE903008E
:108DB00002A89847A7E700BFDC34002030B53D4B40
:108DC000D3F8282187B062B10020C3F82801D3F876
:108DD0002811394A0191019992F84D100129CCB21C
:108DE0001FD0344BD3F804215AB10020C3F804013A
:108DF000D3F80411304A0091009992F84D100229DD
:108E000001D007B030BD032182F84D1092F84D100B
:108E10000229CCB244D0032C34D0012CF1D15C62B5
:108E2000EFE7916B556CC3F84455C3F84815D16B07
:108E3000956CC3F83455C3F8381502219C6282F84A
:108E40004D1092F84D100229CDB212D0032D03D04F
:108E5000012DC6D15D62C4E78DF80840D3F83C15FA
:108E60000391D3F84C05116D136C049002A8984738
:108E7000B7E7136C116D8DF80800CDE9030002A867
:108E80009847AEE701218DF80810D3F83C150391FF
:108E9000D3F84C05116D136C049002A89847B0E705
:108EA000136C116D8DF80800CDE9030002A89847F6
:108EB000A7E700BF00300240DC34002060DF7047CD
:108EC00069DF70470FF05CBF10B588B000F0AAF9F9
:108ED000002854D1324B0393039B04930C220021AE
:108EE00005A81AF0F3F90023049A8DF81430012034
:108EF00005A9FFF7E5FF00283ED10C22002105A8B7
:108F00001AF0E4F9F823049A0593A12005A9FFF7C4
:108F1000D7FF70BB04A8FFF7D1FF039B049A9A42C6
:108F2000044603D01F4B1B685B0402D4E4B908B0AD
:108F300010BD1D4B1B68012BF8DD1C482F211AF0BA
:108F4000CDF9F8B12F2119481AF0C8F9411C04983D
:108F5000174A184BD3F80435CDE90020AB22022084
:108F600012F0C6FB002CE2D0204619F0B7FA08B088
:108F700010BD19F0B3FACDE719F0B0FABDE719F05A
:108F8000ADFAA7E709485C211AF0A8F928B15C21DD
:108F900006481AF0A3F9411CD9E70449D7E700BFF6
:108FA000002E0020402E00203C2E0020043804001B
:108FB000703804000010014070B4EFF3108472B6F2
:108FC0000D4A9368ABB9012191600C490C4ED1F860
:108FD000805035401560C1F88060D1F884505560EC
:108FE0004FF0FF32C1F88420037004B962B670BC40
:108FF00070470123F8E700BF4C35002000E100E096
:10900000FC06FFBD094B9A687AB170B910B4EFF352
:10901000108172B6064A1C6814605C6854609860DF
:1090200001B962B65DF8044B704770474C350020BB
:1090300000E100E001600B6843604A68934208BFAA
:1090400000234360704700BF436843B102689168E2
:109050000B4443605268934204BF0023436070474F
:109060004BDF704710B5124C84B001A8FFF7F8FF32
:10907000A8B9214602A8FFF7DDFF039B002BF4D01F
:10908000D3E900210198904702A8FFF7DDFF039B79
:10909000002BF5D101A8FFF7E3FF0028E9D0052850
:1090A00001D104B010BD04B0BDE8104019F016BAEB
:1090B0002C47040061DF7047154B1B7833B330B584
:1090C000144D91B034240DF1020103A8ADF8024013
:1090D000FFF7F0FF88B9294601A8FFF7ABFF029B15
:1090E000002BF0D0D3E9002103A8904701A8FFF797
:1090F000ABFF029B002BF5D1E5E7052801D111B0AC
:1091000030BD11B0BDE8304019F0E8B9704700BF7C
:10911000583500203847040010DF704730B5384D0F
:10912000384985B0012302A82B70FFF783FF039B0A
:109130002BB90EE002A8FFF787FF039B4BB1D3E9E1
:109140000021002090470028F4D10024204605B0DB
:1091500030BD2D4902A8FFF76DFF039B4BB1D3E94A
:1091600000210020904702A8FFF76EFF039B002B11
:10917000F5D1264A00231268019202A88DF8083022
:10918000FFF71AFF224901A8FFF7C6FF214AB0FAEC
:1091900080F304465B099DF808001370FFF732FF67
:1091A000002CD3D11C4B1D491C702C7091F8162338
:1091B000EC2352091341DB071DD5194B9A68AAB954
:1091C0004FF480030B60104902A8FFF733FF039BA5
:1091D000002BBAD0D3E900210120904702A8FFF765
:1091E00033FF039B002BF5D10024AFE71A6842F44C
:1091F00080021A60E7E742F2020019F06FF9E2E735
:10920000593500205C4704005047040068470400BB
:10921000D90003005B3500205A35002000E100E052
:109220004C350020034B1B780BB9FFF777BF0820A4
:10923000704700BF5B35002000B583B00849684621
:10924000FFF7F8FE019B43B1D3E900209047684641
:10925000FFF7FAFE019B002BF6D103B05DF804FB8B
:1092600044470400837803F00302032A34D8DFE87C
:1092700002F029231E029B0841F2707203FB02F2E6
:1092800030B4164B164D19682B68114481600024C8
:1092900023B919E0DA681C46D2B113469A688A1AD3
:1092A000002AF7DA84B1E06030BCC36070479B08E5
:1092B000642203FB02F2E3E703F0FC0202EB9303F8
:1092C0005A00DDE79A08DBE7286030BCC3607047CE
:1092D000D86030BCC26070477B4600BF603500205C
:1092E0005C350020F0B5694D2B7883B0002B37D169
:1092F000674C2368002B31D0664E3278997801F0A4
:109300000301914273DD64489B680068634C1B1A3B
:109310006348022900FB03F354F82200B3FBF0F387
:1093200079D0032949D05F4A02FB03F35E4AB2EBCE
:10933000730F80F09A8010F045FA3378032B0146C2
:1093400000F28D8054F8233019442B785748002BB5
:1093500045D003B0BDE8F04010F006B903B0F0BD51
:10936000524B4C4E5F6810F02DFA3278032A0446B7
:109370004BD84A4B53F822304749E01B18443AB9BE
:109380004CF25033984203D90B6801330B6007E06D
:10939000474B4009A3FB00300B6803EBD0130B6075
:1093A0003B4C2368002BA9D12B78002BD6D03F480B
:1093B00003B0BDE8F04010F08BB8002A47D0012A76
:1093C0005CD03C4A02FB03F33B4AB2EBB30FB2D38F
:1093D00010F0F8F93949032301443370B5E701234C
:1093E0002B70416003B0BDE8F04010F003B810F0FE
:1093F000E9F923689B78C3F30102327003F0030399
:10940000264A52F8231001449FE7784606F082FF6F
:1094100032780023B0E782B1012A8CD102F1CC323C
:1094200002FB03F3204AB2EB730F84D310F0CAF9A6
:10943000234902230144337087E7224A02FB03F3E6
:1094400002F18042013AB2EBB30FEFD273E71E4A4A
:1094500002FB03F31D4AB2EB331FB9D26BE7019055
:10946000784606F057FF01996FE710F0ABF901233A
:1094700000F5742101F51071337066E7144A02FBA0
:1094800003F3144AB2EBF30FA2D254E76535002080
:109490005C35002064350020603500206C470400F6
:1094A000A0860100CDCCCCCC9999991968350020C3
:1094B000C55A7C0AEFEEEEEE444444040046C32352
:1094C00080969800295C8FC24728A3B733EC0A0026
:1094D00063C92F96063A6D002DE9F041284B1B78A1
:1094E00082B0032B48D8DFE803F03D383302254E25
:1094F000336803F5BB5310333360234F234B3C6871
:109500004FF0000883F80080002C30D01D4E08E09A
:1095100063680199284698472046FFF7A3FE3C68F8
:109520002CB33268A368934201A903D032689B1A16
:10953000002B1CDA2588E3683B602846CDF80480C0
:1095400002F0AAF90028E3D0784606F0E3FEDFE750
:109550000C4E336864333360CFE70A4E33680A3306
:109560003360CAE7074E336801333360C5E702B0A2
:10957000BDE8F041FFF7B6BE784606F0CBFEBCE78B
:1095800064350020603500205C3500206535002002
:1095900038B5084C084D18220021204619F096FED7
:1095A00006480749074AA560002303600B60137053
:1095B00038BD00BF68350020D99402006035002016
:1095C0005C3500206535002038B50B4C237873B925
:1095D0000A4D18220021284619F078FE0849094A48
:1095E0000948A86000230B601360237038BD03484E
:1095F0000FF06EFFECE700BF6535002068350020F6
:10960000603500205C350020D9940200F8B50D4685
:109610001646044600283CD0254F10F049FE3B6812
:1096200005F0030106F03F024BB19C42D86802D11D
:1096300023E09C420BD01846DB68002BF9D141EAAD
:109640008201A1706EB9BDE8F84010F071BEA37838
:1096500061F3010362F38703A370E368C360002E24
:10966000F1D02046FFF7FEFD3B689C42EBD1FFF7AF
:1096700039FEBDE8F84010F05BBEA378386061F3B6
:10968000010362F38703A370002EEAD1FFF72AFEDD
:10969000EFE77846064F06F03DFE10F009FE3B6806
:1096A00005F0030106F03F02002BC4D1C7E700BF5D
:1096B0005C35002070B5764CB4F860300546002B60
:1096C0006AD094F8393005F57A761BB1236B9B1B71
:1096D000002B72DB94F85D30002B61D0626D921B21
:1096E000002A1CDB94F83910B4F8602000293FD11F
:1096F000002B4AD14FF6FF73A4F86230002A41D004
:10970000784606F007FEB4F8623003EBC30304EBBF
:1097100083031B6B5A1B36D5EA1AE26070BDB4F89E
:109720005030E26C5B49012001F040F8102800F253
:109730009780594A01238340134275D148F2111290
:10974000134200F08D8094F85C30013BDBB284F86A
:109750005C30002B68D0D4E915321344636594F86B
:10976000391094F85D30B4F860200029C0D0EBB116
:10977000236B616DC91A002907DB0021A4F8621070
:10978000002AC7D10022E26070BD0123A4F8623034
:10979000002AF7D0636DBDE7784606F0BBFD90E781
:1097A00094F83930B4F86020002BA3D00023A4F83B
:1097B0006230002AE6D0236BACE7A38DA26A37495A
:1097C000002000F0F3FF102846D8334A01238340DD
:1097D00013420FD148F2111213423DD094F83830A1
:1097E000013BDBB284F8383023B1D4E90C231344B5
:1097F00023636FE794F83930002B45D0B4F860301C
:10980000002B3BD0013B00229BB284F83920A4F806
:1098100060301BB94FF6FF73A4F86230A06A16F0EF
:109820008DFB0023A36255E794F85D3013B3B4F8C1
:109830006030CBB1013B00229BB284F85D20A4F8DC
:1098400060301BB94FF6FF73A4F86230E06C16F07D
:1098500075FB0023E36482E7784606F05BFDBDE715
:10986000784606F057FD6EE7784606F053FDB4F8EB
:109870006030DFE7784606F04DFDD8E7784606F021
:1098800049FDB4F86030BDE7784606F043FDB5E722
:1098900080350020BC350020A00201009835002052
:1098A00010B5064C64220021204619F00FFD044A31
:1098B000A2604FF6FF73A4F8623010BD803500201F
:1098C000B59602002DE9F04F83B00128BDF8309025
:1098D00005460F46164698466ED8002F00F0C58004
:1098E000002E00F0C8803B785B076BD0B8F1000F0A
:1098F00000F0C580B9F1000F00F0B3806C4C05EBAF
:10990000C50304EB83034FEAC50A93F83930002BF3
:1099100040F087800FF056FFB4F86030019003F1FB
:10992000010B96E80F000AEB050C04EB8C0C0CF114
:10993000180A8AE80F00CCF82880ACF82C903B7805
:10994000019AC3F302038CF838303B78A4F860B076
:109950004CF2503E4FF00101DB0803FB0EE38CF8A4
:1099600039101A44CCF8343094F83930CCF830201F
:109970008BB194F85D30B4F86220002B41D1002AFD
:1099800000F09380216B4A48A4F8623003B0BDE830
:10999000F04F0FF0E9BD94F85D30D3B1B4F8623008
:1099A000012B7BD00123616DA4F86230404803B0E5
:1099B000BDE8F04F0FF0D8BD784606F0ABFC002FA5
:1099C0008ED152E0784606F0A5FCB8F1000F91D197
:1099D00055E0B4F862204FF6FF739A4253D0A4F8D2
:1099E0006230784606F096FCB4F8623003EBC303AD
:1099F00004EB8304216B2E4803B0BDE8F04F0FF059
:109A0000B3BD216B636D5B1A002BC7DB002A49D005
:109A100027480023A4F8623003B0BDE8F04F0FF0F0
:109A2000A3BDB4F86030002B32D00AEB0502013B35
:109A300004EB82029BB20021A4F8603082F8391056
:109A40001BB94FF6FF73A4F862300AEB050B04EB69
:109A50008B0BDBF8280016F071FA0023CBF82830C6
:109A600058E7784606F056FC48E7784606F052FC80
:109A7000002E7FF438AF784606F04CFC33E778468A
:109A800006F048FC36E79542ABD003B0BDE8F08F56
:109A9000784606F03FFCB4F86030C6E7012DF4D1FB
:109AA000616D83E7002DF0D180E7002DEDD1A1E7B6
:109AB00080350020C0F30F40A0F5405080B201284F
:109AC00082B014D80B4B1B785B0702D5002002B084
:109AD0007047094A0B6812F8301002EBC00CDB43E8
:109AE00021F0060102F83010CCF80430EEE7052032
:109AF00002B070473436002044360020000CB0F528
:109B0000804F82B005D1044B0A781A70002002B051
:109B10007047052002B07047182E002010B5000CC9
:109B2000012882B00C4602D0784606F0F3FB034BC6
:109B300023600222A28002B010BD00BF020001001B
:109B400010B5000C012882B00C4602D0784606F011
:109B5000E1FB6388012B0DD1A388022B0AD1238856
:109B6000022B07D1054A1378002043F0010313703C
:109B700002B010BD0B2002B010BD00BF3436002073
:109B800030B5C0F30F44A4F54054A4B2012C83B007
:109B90000D4602D9784606F0BDFB044B03EBC40327
:109BA0005B68DB432B6003B030BD00BF4436002050
:109BB00010B5000CB0F5804F82B00C4602D078464C
:109BC00006F0A8FB024B1B78237002B010BD00BF4B
:109BD000182E002030B5040CB4F5805F83B00D461C
:109BE00002D0784606F096FBA4F580540649A4B24C
:109BF00004EB4404022201EB4401284603B0BDE813
:109C0000304019F0BFBB00BF5436002030B5C0F360
:109C10000F44A4F50054A4B2012C83B00D4602D920
:109C2000784606F077FB0649C4EBC404142201EB26
:109C3000C401284603B0BDE8304019F0A3BB00BF03
:109C40005C360020C0F30F43A3F500539BB2012BF9
:109C500023D81B480078420721D430B519488D8994
:109C6000C3EBC30C00EBCC0483B0B4F80CE0754537
:109C70004FEACC0C0ED130F80C50B1F800C0AC4516
:109C800008D1B1F802C06588AC4503D1CD89E2891D
:109C9000954206D00B2003B030BD05207047002050
:109CA00070475B4203F038031844142219F06AFB32
:109CB00094F8343023F0060384F834300020EAE7C7
:109CC000343600205C3600202DE9F04FD7B0044632
:109CD000DFF84482BDF880B109A80F461E4615463C
:109CE00002F040FFC4EBC40308EBC303BDF8261029
:109CF000B3F80C90494540F2D480BDF8241005918A
:109D0000E200002D00F0AA8005F10C0393E80300A7
:109D100095F81CA00AAB83E803000693EB8B049331
:109D2000AD8CBAF1000F40F0A980002E00F0BE808B
:109D3000BBF1000F00F0B1800CAC242200212046C2
:109D400019F0C4FA2846049912AA05F07FF80546CE
:109D500018B1284657B0BDE8F08F059B8DF83AA0A2
:109D60009944069BADF8389093E80300BB7AE37200
:109D7000FB7A237384E80300FB681096294620468B
:109D8000ADF844B023620EF0F3FF05460028E0D1A1
:109D9000594C23689A04DCD5DFF88081D8F800306C
:109DA000042BD6DD55482F2119F098FA002800F031
:109DB00092802F21514819F091FA411C504B3A885A
:109DC000D3F8043501924F4A0092052040F2A912BF
:109DD00011F08EFC23689B04BBD5D8F80030042B0F
:109DE000B7DD5F46802F28BF8027BBF1000F7FD0F3
:109DF000454B15ACD3F800C0701E2146034610F841
:109E0000012F4FEA121E02311CF80EE001F802EC9D
:109E1000023302F00F029B1B1CF8022001F8012CF8
:109E20009F42EBD80023354804F817302F2119F052
:109E300055FA002844D02F21304819F04FFA411C20
:109E4000324A2F4BD3F80435CDE90124304A009231
:109E500005204FF4D57211F04BFC7AE707920AAA5D
:109E6000D8889B88069211461546049303F0B6FBEA
:109E700020BB6B88ABB1079A4FF6FF75121B08EB3E
:109E8000C20898F811A0BAF1FF0F04BF214B93F854
:109E900000A0002E7FF44CAF08E0784606F03AFAB6
:109EA0004AE71025284657B0BDE8F08F784606F0FF
:109EB00031FABBF1000F7FF43FAFEEE7052548E72D
:109EC0000E485C2119F00AFA80B15C210B4819F0A8
:109ED00005FA411CB4E709485C2119F0FFF948B1C3
:109EE0005C21064819F0FAF9411C67E70349A7E726
:109EF00015AC97E7014961E7402E0020AC3804001B
:109F00000010014004390400442E002018390400D8
:109F100020390400182E00205C3600203C2E002042
:109F2000000CB0F5805F82B00FD10B4B1B785B0744
:109F300008D40A4B09881A88914209D15A7922F02B
:109F400006025A71002002B07047052002B0704727
:109F50000B2002B0704700BF34360020543600207A
:109F6000012870B5354D04460DD9C600784606F077
:109F7000D1F900221146361B05EBC6001430BDE8AE
:109F80007040FFF743BBC0EBC00305EBC303C60043
:109F900093F8341011F00101E8D09A69002AE5D055
:109FA0009A7C9B8C02F0030002284FEA92022DD08B
:109FB000032815D001283DD102EB82004000B0FB00
:109FC000F3F33F2B06D89AB3012B38BF0123DAB243
:109FD0000021D0E71A4AA2FB0323C3F3C702CAE752
:109FE00041F2707C0CFB02FCBCFBF3F33F2BEAD983
:109FF00040F276229342EDD941F69C02934210D969
:10A00000104AA2FB03230146DA09B4E7642002FBED
:10A0100000F0B0FBF3F33F2BD5D940F27622934208
:10A02000D8D9094AA2FB0323C3F347120221A2E7AE
:10A030001146A0E7B2FBF3F3C5E700BF5C36002092
:10A04000CDCCCCCCF11976051F85EB512DE9F04F25
:10A05000A14F3B7843F004031A463B7013F0020310
:10A0600085B065D1D007DFF884B22FD55D4699461B
:10A07000AA8998464FF6FF739A420AD13835B9F14A
:10A08000000F22D1AA894FF6FF739A424FF00109BF
:10A09000F4D0E888984203D002F044FE002847D16B
:10A0A000EA89022A07D0D60004368C4A945916440D
:10A0B000002C40F0B180C9EBC9020BEBC20238356D
:10A0C00082F81280B9F1000FDCD03A78834C237803
:10A0D000590760D49E0700F1C18023F00603237066
:10A0E000237A590765D4980700F1878023F0060387
:10A0F00023727B4C63799E071ED49BF8341023F0A7
:10A100000203880763712AD49BF86C3021F00201A6
:10A110009E078BF8341030D423F00203D4078BF859
:10A120006C3048BF002040F1A98005B0BDE8F08F39
:10A130000B2005B0BDE8F08F55074CD5694802905B
:10A14000214614F0EFFD002840F0B78063799BF8BA
:10A1500034103A7823F0020388076371D4D553078B
:10A1600040D561486149029014F0DCFD002840F0C0
:10A17000A8803A789BF83410C6E755073AD55C4872
:10A180005C49029014F0CEFD002840F09E803A78A1
:10A190009BF86C30C0E750077DD55748029014F00B
:10A1A0008FFE23783A7823F006032370237A590729
:10A1B00099D5560706D55148029014F081FE237AAE
:10A1C0003A7893E743F0040323F006032372444CE8
:10A1D0006379980791D59BF8341023F002036371DB
:10A1E0008C0791D59BF86C3021F002019F078BF80A
:10A1F000341091D543F002038EE7510756D5E3683A
:10A200003E480290DB4301A9019314F08BFD002826
:10A210004FD1237A3A7869E794FAA4F4B4FA84F433
:10A22000182C3FF448AF4FF0010A204603F060F9C4
:10A2300000287FF47DAF601C0AFA00F21728C2F1F3
:10A2400000023FF638AF31680A403FF434AF92FA6B
:10A25000A2F4B4FA84F4182CE7D12CE7550738D5CA
:10A26000636825480290DB4301A9019314F05AFD6D
:10A27000002896D0784606F04DF892E72048022351
:10A2800002A9CDE90100ADF80C3014F04BFD002817
:10A2900038D1052049E743F0040323F00603237077
:10A2A000237A59078ED49D077FF520AF43F0020330
:10A2B0008AE7784606F02EF8ABE7784606F02AF8EB
:10A2C00044E7784606F026F853E7784606F022F889
:10A2D0005DE743F00203E0E7343600204436002017
:10A2E0005436002002000010020000205C360020DE
:10A2F00002000120943600200200003002000130EC
:10A3000002000100784606F005F8C2E72DE9F04F9B
:10A3100000F1140591B0044600232846099305F086
:10A3200035FE002800F081804FF6FF73ADF83A301B
:10A33000237D012B824600F0A580E28A4FF6FB7355
:10A340009A4200F2C1800DF13A01284603F080F9EB
:10A35000002840F0938000230A930023CDF82CA01E
:10A360009A460A9B644DDFF8A891002B57D0B5F8A8
:10A370000480099BA8EB0308B8FA88F84FEA58183C
:10A38000E38B95F82C70A98CB4F800C0B4F802E007
:10A390005A09012655F8222003F01F039E4007F0BA
:10A3A00001071640002979D0286A002300F1020B2A
:10A3B00002E001338B4271D030F833206245F8D18E
:10A3C0003BF833207245F4D1DDF82CB00D93012217
:10A3D000D9F800309B0403D5484B1B68062B27DCBB
:10A3E000A7B1B8F1000F11D086B1BBF1000F0DD0AD
:10A3F000237D012B1FFA8AF668D00D9A2B6A03EB96
:10A40000C20330465B68AA6A214698473835BAF1DC
:10A41000000F0AD10A9B4FF0010A002BA7D1EB884D
:10A42000012B3ED9DDF82880AAE711B0BDE8F08FF6
:10A4300033480C922F2118F051FF0C9A00284BD072
:10A440002F212F4818F04AFF0C9A411C2D4BD3F8AE
:10A4500004350692CDE9037835F8062C029235F8DA
:10A46000082C0192284A0092321E18BF0122059240
:10A4700007204FF4866211F03BF9B1E7784605F00A
:10A4800049FF68E70FA802F06DFBE38ABDF83C20A6
:10A49000CDF828A09B1A9BB209935EE70022934651
:10A4A00096E7BDF83A2019495009DB0003EB800319
:10A4B00002F01F02C958012393400B4214BF4FF012
:10A4C00001084FF000085BE70A9046E7AA6A2146B8
:10A4D000304601F00FFC90E709480C925C2118F01F
:10A4E000FDFE0C9A30B15C21054818F0F7FE0C9A7D
:10A4F000411CABE70249A9E7643600203C2E00204E
:10A50000AC3804000010014028390400483600200F
:10A51000402E00202DE9F04703681E7806F0C002A7
:10A52000802AD0B0044600F08C8006D87F2EB14639
:10A5300040F0F08050B0BDE8F087C02A40F0C48001
:10A54000DFF83C82B3F801A0D8F800309904B14696
:10A5500000F18380E06903F021FB0746A06903F066
:10A560007BFA4FF6FF72924505AD2668A5F800907C
:10A570000346A5F802A000F08C8003221146AB84AC
:10A58000A388EF835B1A217A29736189E981E168E5
:10A590002961217C2975618AE98216446169D8F8AC
:10A5A0000020A96194F8201029779BB2616A6E603F
:10A5B00092042B8129623ED56A4A1268042A3ADD48
:10A5C000802B9C4628BF4FF0800C002B00F0C580EC
:10A5D000654B0FAC1F68701E2146034610F8012F13
:10A5E0004FEA121E023117F80EE001F802EC0233B6
:10A5F00002F00F029B1BBA5C01F8012C9C45ECD8C1
:10A6000000235A4804F81C302F2118F067FE002858
:10A6100073D02F21554818F061FE411C544A554B08
:10A62000D3F80435CDE90124534A009205204FF4B4
:10A630008A7211F05DF82846FFF768FE50B0BDE859
:10A64000F087DFF83C811E88D8F8003076BA98048D
:10A650001FFA86F923D54FF6FF7A424B1B68042B6D
:10A660007FF778AF41482F2118F038FE002869D0D5
:10A670002F213E4818F032FE411C3E4B3F4AD3F892
:10A6800004350092CDF80490FD22052011F030F839
:10A6900060E7B9F1FF0F14D8012211466FE7E069B6
:10A6A00003F07CFA0746A06903F0D6F94FF6FF7273
:10A6B000ADF81620022205AD03462E80114626680D
:10A6C0005DE7022211465AE7DFF8B480D8F800307F
:10A6D00013F4005603D04FF0000AD146BDE7E069FD
:10A6E00003F05CFA0746A06903F0B6F9032205AD52
:10A6F00003462E601146266841E71C485C2118F08D
:10A70000EDFD28B15C21194818F0E8FD411C85E7F2
:10A71000164983E7DFF86880D8F800309B049AD4A4
:10A72000E06903F03BFA0746A06903F095F94FF69C
:10A73000FF72ADF81620012205AD03462E801146AA
:10A7400026681CE709485C2118F0C8FD38B15C2177
:10A75000064818F0C3FD411C8FE70FAC50E70349D2
:10A760008BE700BF3C2E0020442E0020AC380400B4
:10A77000943904000010014020390400803904009D
:10A78000402E002003785BB1142B08D1C388022B24
:10A7900004D1054A137843F00203137070477047E1
:10A7A0000430FFF7B7BE00BF3436002099B192B134
:10A7B00030B51C4683B05BB10B89B3F5BE7F02D3C5
:10A7C000092003B030BD012807D9052003B030BDF2
:10A7D0000E2003B030BD0E207047184BC0EBC005F3
:10A7E00003EBC50393F83450ED07EED59D89002D9A
:10A7F000EBD1B3F804C04FF6FF75AC4519D0DB8838
:10A80000AB4216D0B1F802C00B88AC450DD1FF2B7E
:10A8100011D903F44043B3F5004F0AD11346009415
:10A820000022FFF751FA03B030BD23F03F03C02BE5
:10A83000F4D00720C5E77E2BFBD8EFE75C3600207D
:10A8400010B5164C01F0A2FAFEF7BEFE70220021F0
:10A85000204618F03BFD06220021114818F036FD75
:10A86000102200210F4818F031FD0F4A0F4BE36012
:10A87000636413780E484FF0FF3123F003036160E7
:10A88000E1631370042101230170A384A4F85C30F8
:10A89000BDE81040022014F077BB00BF5C360020FA
:10A8A000543600204436002034360020FFFF0200DA
:10A8B000182E002010B5174C70220021204618F0E9
:10A8C00005FD06220021144818F000FD1022002189
:10A8D000124818F0FBFC1248124B1349E3604FF08A
:10A8E000FF326364114B036062600123E263042260
:10A8F0000A70A384A4F85C300EF03EFA01F032FA3C
:10A90000FEF746FEFEF7CCFF094A137823F0070353
:10A91000137010BD5C3600205436002044360020F1
:10A9200038360020FFFF0200182E002085A7020005
:10A9300034360020002800F0B4802DE9F0410D46A7
:10A9400082B0002900F0A580C36804461BB183686B
:10A95000002B00F09E804FF6FF732B80E36813B945
:10A96000A368002B70D1A788002F5DD105F0A0FB54
:10A97000002840F09280A288DFF830E2B4F800C0EE
:10A98000608802EB42030EEB43039978DB78D942EF
:10A990005ED1D4E9020CBCF1000F1AD0002300F103
:10A9A00002084FF6FF7638F8332030F83310B24201
:10A9B00021F03F0242D1FF2901F4404238D9A2F5EB
:10A9C0000042B2FA82F25209002A33D001339C4588
:10A9D000E9D12B88734E4FF6FF72934263D0C3EBDD
:10A9E000C30306EBC30322691A632B88A268C3EB77
:10A9F000C30306EBC30300209A622B88E268C3EB13
:10AA0000C30306EBC3039A852B886269C3EBC303B8
:10AA100006EBC3039A612A88C2EBC20306EBC303A9
:10AA20009A8202B0BDE8F081052002B0BDE8F08155
:10AA30007E29CBD9072002B0BDE8F081A2F1C00287
:10AA4000B2FA82F25209BFE7092002B0BDE8F081F4
:10AA5000544EB389934200F08680B6F84430934256
:10AA600097D1738F834294D1338F634508BF0123FD
:10AA70008FD12B80C3EBC30306EBC30393F83430B1
:10AA8000D9070AD4D4E9020CBCF1000F86D12B8877
:10AA9000A5E70E2002B0BDE8F0810F2002B0BDE8AE
:10AAA000F0810E20704796F8343013F0010307D080
:10AAB00096F86C30DA0748BF0420B6D401273B462D
:10AAC000C3EBC30306EBC3034FF6FF722F80DA809C
:10AAD0002B88C3EBC30306EBC3039A802B88A188A2
:10AAE000C3EBC30306EBC30399812B886188C3EBD7
:10AAF000C30306EBC30359802B882188C3EBC30330
:10AB000026F833102B88C3EBC30306EBC3035A7438
:10AB10002188A388914203EB43030EEB43031ED02D
:10AB2000DA780132DA702B88C3EBC30306EBC30378
:10AB300093F8342042F0010283F834201A4B29881C
:10AB40001B785B0719D4C1EBC10106EBC10191F879
:10AB5000343043F0020381F834302B883FE79A7891
:10AB600001329A70DFE7738883427FF476AF3388CF
:10AB700063457FF472AF3B467BE70223ADF80430B8
:10AB800001F50053ADF80630C1EBC101019806EBA9
:10AB9000C10114F0C7F800283FF479AF784605F0FA
:10ABA000B9FB74E75C3600203436002054360020B0
:10ABB0002DE9F04782B089B10B89B3F5BE7F0C4611
:10ABC00007D2012805460ED90527384602B0BDE850
:10ABD000F0870927384602B0BDE8F0870E273846CF
:10ABE00002B0BDE8F087DFF8F890C0EBC00209EBD7
:10ABF000C2024FEAC00A92F83410C907E4D591891D
:10AC00000029E1D190884FF6FF71884249D0D2885F
:10AC10008A4246D060882288884254D1FF2A59D976
:10AC200002F44042B2F5004F3BD10227B8469844A7
:10AC30001FFA88F8404615F07FF90646002840D0F4
:10AC4000638822884FF6FF718B42D0B232D0737086
:10AC50001B0A3070B37022896168F01918F092FBFA
:10AC6000CDF800803346002221462846FFF72CF815
:10AC70000746C0B9AAEB050309EBC303DB7C5B07FE
:10AC800011D0694201F0380113312846CDF8008017
:10AC9000334622464944FEF715FE384602B0BDE869
:10ACA000F087072791E7304615F048F9384602B09B
:10ACB000BDE8F087FF2A83BF120A707032703070CF
:10ACC000C9E7042781E722F03F02C02AE9D1032720
:10ACD000B846ACE77E2AE4D80127B846A7E700BF0C
:10ACE0005C3600202DE9F04383B091B1144682B167
:10ACF0001389B3F5BE7F07D2012880460ED90524FB
:10AD0000204603B0BDE8F0830924204603B0BDE827
:10AD1000F0830E24204603B0BDE8F0832E4A0D4692
:10AD2000C0EBC00102EBC10292F83410C907E6D5AE
:10AD30009289002AE3D1608822884FF6FF71884209
:10AD40002DD022F03F02C02A3DD14FF003094E46DC
:10AD50001E44B6B2304615F0EFF8074688B3638854
:10AD600022884FF6FF708342D1B223D07B701B0A3A
:10AD70003970BB702289616807EB090018F002FB8B
:10AD800021463B462A4600964046FEF79DFF044674
:10AD9000384615F0D3F8204603B0BDE8F083FF2A0B
:10ADA00013D902F44042B2F5004F0CD14FF0020922
:10ADB0004E46CDE7FF2A83BF120A79703A70397088
:10ADC000D8E704249CE707249AE77E2AFBD84FF0B3
:10ADD00001094E46BCE700BF5C360020012801D9BE
:10ADE0000520704710B51C4CC0EBC00304EBC30337
:10ADF00082B093F8342012F0010F02D1052002B086
:10AE000010BD172924D8B3F806C08C4502D1002004
:10AE100002B010BDD98011490978490704D442F025
:10AE2000020283F83420F2E700F500530222404288
:10AE300000F03801ADF80420ADF806300198214447
:10AE400013F070FF0028E2D0784605F063FADEE7E1
:10AE5000072002B010BD00BF5C3600203436002051
:10AE600081B1012801D905207047074BC0EBC00014
:10AE700003EBC00393F83420D207F4D5DB880B80B2
:10AE8000002070470E2070475C360020012829D82A
:10AE900030B5214CC0EBC00304EBC30383B093F87F
:10AEA00034C01CF0010F4FEAC00231D093F813E018
:10AEB00001F007030EF007059D4204D1C1F3C4035E
:10AEC000B3EBDE0F0BD0154B121A1B7804EBC2024A
:10AED0005B07D17408D44CF0020C82F834C0002017
:10AEE00003B030BD0520704700F5005302224042F8
:10AEF00000F03801ADF80420ADF806300198214487
:10AF000013F010FF0028EAD0784605F003FAE6E7D0
:10AF1000052003B030BD00BF5C3600203436002071
:10AF200081B101280CD8084BC0EBC00003EBC00373
:10AF300093F83420D20703D5DB7C0B7000207047D8
:10AF4000052070470E2070475C360020012811D87C
:10AF500008B50C4AC0EBC00302EBC30393F83420DE
:10AF6000D2070DD59A693AB141B19984FEF7F8FF3D
:10AF7000002008BD05207047062008BD072008BD39
:10AF8000052008BD5C360020012834D870B5044681
:10AF9000284DC4EBC40305EBC30382B093F83460BF
:10AFA000F6074FEAC00041D59E69002E39D03F2AEE
:10AFB00039D8032937D89B7CB2EB930F03D103F028
:10AFC00003038B4214D0001B05EBC00601F0030104
:10AFD00041EA82022046B274FEF7C2FF164B1B788C
:10AFE0005B070AD496F8343043F0020386F8343015
:10AFF000002002B070BD0520704704F50053022206
:10B000006442ADF80420ADF8063004F0380401982D
:10B01000291913F087FE0028EAD0784605F07AF95E
:10B02000E6E70620E5E7072002B070BD052002B084
:10B0300070BD00BF5C36002034360020D9B1D2B1DB
:10B04000012801D9052070470D4BC0EBC00003EB70
:10B05000C00393F83400C007F4D5986968B193F839
:10B0600012C0CCF3010C81F800C09B7CC3F38503B4
:10B070000020137070470E2070470620704700BFF5
:10B080005C360020F0B583B0044605F011F80028C6
:10B0900056D1012C02D9052003B0F0BD364DC4EBCA
:10B0A000C40305EBC303E60093F83420D207F2D5BE
:10B0B000DB89022B01D00020EEE7304A137813F031
:10B0C000010140D0137ADF0748BF0420E4D40121F6
:10B0D00043F2010C08460F4623F0040343F001033A
:10B0E00002F83730331B05EBC303254FD8813B787B
:10B0F00058072DD502EBC102ADF806C05368DB43FB
:10B1000000930223ADF804300198694613F00AFE5B
:10B1100070BB3B785B0721D5022204F500536142E6
:10B12000ADF80420ADF8063001F03801019829444B
:10B1300013F0F8FD0028BED0784605F0EBF8BAE72A
:10B140000F2003B0F0BD4FF4405C08460F46C3E744
:10B1500012F8313043F0020302F83130331B05EBB3
:10B16000C30393F8342042F0020283F83420A2E7AC
:10B17000784605F0CFF8CCE75C3600204436002056
:10B1800034360020012801D9052070471F4BC0EB41
:10B19000C00003EBC00393F83420D207F4D5DA895A
:10B1A000022A2AD0172926D830B5D300184D0433E7
:10B1B0000120EC5800FA01F10C4283B002D00020CB
:10B1C00003B030BD0C431349EC500B785B0716D528
:10B1D000022302F54052ADF80430ADF80620E443F6
:10B1E00001980094694613F09DFD0028E7D0784649
:10B1F00005F090F8E3E7072070470620704715F840
:10B20000323043F0020305F83230D8E75C360020D4
:10B210004436002034360020012801D9052070472B
:10B22000204BC0EBC00003EBC00393F83420D207DF
:10B23000F4D5DA89022A2BD0172927D830B5D300C4
:10B24000194D04330120EC5800FA01F10C4283B08F
:10B2500002D1002003B030BD24EA01041349EC50B0
:10B260000B785B0716D5022302F54052ADF8043087
:10B27000ADF80620E44301980094694613F052FDAE
:10B280000028E6D0784605F045F8E2E70720704749
:10B290000620704715F8323043F0020305F83230CB
:10B2A000D7E700BF5C36002044360020343600204B
:10B2B00089B382B3012801D90520704770B51A4BB4
:10B2C000C0EBC00003EBC00E9EF83430DB0724D582
:10B2D000BEF80E30022B24D00023144D16881380A4
:10B2E0000124BEF80E00012804FA03FC01D9002055
:10B2F00070BD55F830001CEA000F03D10133182B44
:10B30000EFD1F4E71088864209D921F8103010886F
:10B3100001301080F2E70E207047052070BD092033
:10B3200070BD062070BD00BF5C360020483600208E
:10B33000012801D90520704730B51F4DC0EBC00E64
:10B3400005EBCE0E83B09EF83430DA0702D4052028
:10B3500003B030BD08292BD8424202F0380202F176
:10B36000080C012355F80C408B401C4201D00020F2
:10B37000EEE71C43114B45F80C401B785B0706D4E5
:10B380009EF8343043F002038EF83430EFE700F5D6
:10B3900000500223ADF80430ADF806000198A9185A
:10B3A00013F0C0FC0028E2D0784604F0B3FFDEE7DB
:10B3B000072003B030BD00BF5C36002034360020CB
:10B3C000012801D90520704730B51F4DC0EBC00ED4
:10B3D00005EBCE0E83B09EF83430DA0702D4052098
:10B3E00003B030BD08292CD8424202F0380202F1E5
:10B3F000080C012355F80C408B401C4201D1002061
:10B40000EEE724EA0304114B45F80C401B785B0778
:10B4100006D49EF8343043F002038EF83430EEE761
:10B4200000F500500223ADF80430ADF80600019895
:10B43000A91813F077FC0028E1D0784604F06AFFE1
:10B44000DDE7072003B030BD5C3600203436002035
:10B45000002900F09980002A00F09680012801D987
:10B460000520704730B54B4CC0EBC00304EBC30361
:10B4700093F83430DB0740F18980434203F038030E
:10B4800008334FF0000C1088A2F800C0E558ED0713
:10B4900007D500287CD0A1F800C04FF0010CA2F81D
:10B4A00000C0E558AD070CD5B2F800C060456FD9B3
:10B4B0004FF0010E21F81CE0B2F800C0F444A2F8ED
:10B4C00000C0E5586D070DD5B2F800C060455FD9E2
:10B4D0004FF0020E21F81CE0B2F800C00CF1010C94
:10B4E000A2F800C0E5582D070DD5B2F800C06045A0
:10B4F0004ED94FF0030E21F81CE0B2F800C00CF159
:10B50000010CA2F800C0E558ED060DD5B2F800C058
:10B5100060453DD94FF0040E21F81CE0B2F800C0A0
:10B520000CF1010CA2F800C0E558AD060DD5B2F83B
:10B5300000C060452CD94FF0050E21F81CE0B2F890
:10B5400000C00CF1010CA2F800C0E5586D060DD545
:10B55000B2F800C060451BD94FF0060E21F81CE080
:10B56000B2F800C00CF1010CA2F800C0E3581B06B1
:10B5700008D5138898420BD9072021F813001388A7
:10B5800001331380002030BD0E207047052030BDF0
:10B59000092030BD5C360020012801D90520704704
:10B5A00010B51C4CC0EBC00304EBC30382B093F88E
:10B5B000342012F0010F02D1052002B010BD08297D
:10B5C00024D8B3F804C08C4502D1002002B010BDCD
:10B5D000998011490978490704D442F0020283F89E
:10B5E0003420F2E700F500530222404200F0380117
:10B5F000ADF80420ADF806300198214413F092FB19
:10B600000028E2D0784604F085FEDEE7072002B08D
:10B6100010BD00BF5C3600203436002081B1012807
:10B6200001D905207047074BC0EBC00003EBC003F6
:10B6300093F83420D207F4D59B880B800020704704
:10B640000E2070475C36002000B585B003068DF8EB
:10B65000070009D4012807D00DF10701044813F0B1
:10B6600061FB05B05DF804FB072005B05DF804FB45
:10B6700002000040014B1878704700BF182E0020D0
:10B6800081B1012801D905207047074BC0EBC000EC
:10B6900003EBC00393F83420D207F4D51B7C0B7066
:10B6A000002070470E2070475C360020012801D929
:10B6B0000520704710B51C4CC0EBC00304EBC3035E
:10B6C00082B093F834C01CF0010F02D1052002B003
:10B6D00010BD81F080027E2A23D95A7C8A4202D191
:10B6E000002002B010BD114A59741278520704D4D8
:10B6F0004CF0020C83F834C0F2E700F5005302224C
:10B70000404200F03801ADF80420ADF80630019851
:10B71000214413F007FB0028E2D0784604F0FAFD3C
:10B72000DEE7072002B010BD5C3600203436002072
:10B7300081B1012801D905207047074BC0EBC0003B
:10B7400003EBC00393F83420D207F4D55B7C0B7075
:10B75000002070470E2070475C36002031B118B9C8
:10B76000034B1B880B807047052070470E207047E5
:10B770005436002031B118B9034B9B780B707047D9
:10B78000052070470E2070475436002031B118B99B
:10B79000034BDB780B707047052070470E20704715
:10B7A00054360020A1B1012801D905207047094B6A
:10B7B000C0EBC00003EBC002C00092F834C01CF024
:10B7C000010FF2D052884A801B5A0B80002070472C
:10B7D0000E2070475C3600205AB340BB10B41648A8
:10B7E0004FF6FF74148084898BB283B0090C1CB9A6
:10B7F000B0F802C08C4511D0B0F8444024B1052007
:10B8000003B05DF8044B7047448F8C42F7D1018F31
:10B810009942F4D1012414800020F1E7B0F800C06F
:10B820009C45F8D0B0F84440002CE8D1ECE7052066
:10B8300070470E20704700BF5C36002021B31AB35A
:10B8400030BB30B41488108004B3124B93F834C06A
:10B850001CF0010F06D09D8925B908800120844283
:10B86000108013D093F86C40E40702D4002030BC61
:10B870007047B3F84430002BF8D1012321F8103081
:10B88000138801331380F1E70E2070470920EEE79B
:10B89000052070475C36002081B1012801D90520C0
:10B8A0007047074BC0EBC00003EBC00393F8342094
:10B8B000D207F4D51B6B0B60002070470E20704739
:10B8C0005C360020012801D905207047F0B5224FD1
:10B8D000C0EBC00507EBC50583B095F83430DA0737
:10B8E000044602D4052003B0F0BD464206F03806F7
:10B8F000002206F1140011463844FDF787FE204669
:10B9000000F098FAE88801F07DFB144B391D1A7895
:10B910004FF0FF30002388516B746B82AB75530777
:10B9200008D495F8343043F0020385F83430002011
:10B9300003B0F0BD022304F50054ADF80430ADF8B7
:10B9400006400198B91913F0EDF90028EFD07846B8
:10B9500004F0E0FCEBE700BF5C360020343600204A
:10B96000082812D838B50E4D95F83430DA07044659
:10B9700002D5AB8883420AD095F86C30DB0702D53C
:10B98000AB8FA34207D0002038BD072070470020AE
:10B99000FFF798FFF0E70120FFF794FFF3E700BF00
:10B9A0005C36002038B52E4C2C2303FB00430546A3
:10B9B00093F84030002B3CD0B4F870309BB32C226D
:10B9C00002FB0542013B00219BB282F84010A4F823
:10B9D00070301BB3B4F87230AB4200D038BD906BFE
:10B9E000204B94F8401094F86C20034429BB1AB102
:10B9F000616ECB1A002B2EDB4FF6FF73A4F872306A
:10BA0000784604F087FCB4F872302C2202FB034322
:10BA1000996B1348BDE838400DF0A6BDBDE838402D
:10BA20000F480DF055BD784604F074FCB4F8703042
:10BA3000C5E7784604F06EFCBEE7A06BC11A00298A
:10BA4000D5DA22B90023A4F872300146E1E7616E2D
:10BA50000B1A002BF6DA0123A4F87230D9E700BFE5
:10BA6000CC360020008793032DE9F041984CB4F8C0
:10BA7000703084B00546002B4ED04FF6FF73954FC3
:10BA8000A4F8723094F8403001223A7005F57A76C5
:10BA90005BB1236B9B1B002B42DBA36B9B1B002B1F
:10BAA0004FF00003A4F8723066DB94F86C30ABB151
:10BAB000E36D9B1B002B48DB636E9E1B002EC0F2C8
:10BAC0009A80B4F872204FF6FF718A4220D02C2160
:10BAD00001FB0242926B9B1A002B19DBB4F8703009
:10BAE00053B1B4F87230012B0CD82C2202FB034363
:10BAF0009A6B531B48BFAB1A0022E3603A7004B044
:10BB0000BDE8F081784604F005FCB4F87230ECE74B
:10BB10000123A4F87230E1E7784604F0FBFBACE7C0
:10BB2000002384F84030B4F87030208B013B03A927
:10BB3000A4F87030FFF7B0FE002840F09B80636BE4
:10BB40000399208B01229847AFE7B4F87030B4F81E
:10BB500044000022013B03A984F86C20A4F8703053
:10BB6000FFF79AFE002840F08980236E0399B4F80D
:10BB7000440001229847B1E75749208BFFF718F896
:10BB8000804650B3554B1B689A0419D5544B1B681B
:10BB9000042B15DD53482F2117F0A0FB002871D08E
:10BBA0002F21504817F09AFB411C4F4B4F4AD3F8B6
:10BBB00004350092CDF80480832205200FF098FD13
:10BBC000B8F1080F09D0B8F1040F7BD0B8F10F0F0E
:10BBD00078D0784604F09EFB05E0D4E90E231A44A1
:10BBE0005B00A263E363226BA36BD31A002BBFF647
:10BBF0005CAFA26359E701233D49B4F84400A4F8BF
:10BC00007230FEF7D5FF064630B3344B1B689B04F9
:10BC100018D5334B1B68042B14DD32482F2117F045
:10BC20005DFB002839D02F212E4817F057FB411C0F
:10BC30002D4B2E4AD3F8043500920196832205201D
:10BC40000FF056FD082E07D0042E31D00F2E2FD026
:10BC5000784604F05FFB05E0D4E919231A445B0041
:10BC6000C4E91923E26D636ED31A002BBFF636AF19
:10BC7000626633E7784604F04DFB60E7784604F0EF
:10BC800049FB72E717485C2117F028FBF0B15C21F3
:10BC9000144817F023FB411C87E712485C2117F07A
:10BCA0001DFB88B15C210F4817F018FB411CBFE752
:10BCB00001232C2202FB03439A6B02F56A42603295
:10BCC0009A630BE70023F4E70649B1E705496CE7FF
:10BCD000CC36002040370020E8360020402E0020DF
:10BCE0003C2E00209C39040000100140FC39040067
:10BCF000143700200128F8B504460E46154602D92F
:10BD0000784604F007FB164F0EF0D2FA97F8400081
:10BD100010B13A8BA2420AD097F86C201AB1B7F84A
:10BD20004420A24218D0BDE8F8400EF001BB00202C
:10BD300002462C2101FB02773288B98D9142F2D163
:10BD40007288F98D9142EED1FFF72CFE7B6B0022B9
:10BD5000294620469847E6E701200246E9E700BF6A
:10BD6000CC36002010B5064C74220021204617F076
:10BD7000ADFA044B0449A16000221A7010BD00BF47
:10BD8000CC3600204037002069BA020070B5264C3E
:10BD900082B00EF08DFAB4F87030002B35D194F8E3
:10BDA0004030EBB994F86C3023B902B0BDE8704074
:10BDB0000EF0BEBAB4F844501C48246E00212C2268
:10BDC00017F084FA01A92846FFF766FD40BB0199E8
:10BDD00002222846A04702B0BDE870400EF0A8BA83
:10BDE000258B1348666B00212C2217F06FFA01A9EE
:10BDF0002846FFF751FD78B9019902222846B0473D
:10BE000094F86C30002BD0D0D4E700232046A4F85F
:10BE100070300DF05DFBC2E7784604F07BFAEBE78B
:10BE2000784604F077FAD2E7CC36002010370020AD
:10BE3000E436002070B5012882B003D905242046DD
:10BE400002B070BD184D04460EF032FA95F840303D
:10BE500013B12B8BA3420FD095F86C302BB905246E
:10BE60000EF066FA204602B070BDB5F84430A34229
:10BE7000F5D10120064601E000200646FFF792FDBD
:10BE800001A92046FFF708FD48B92C2303FB0655FE
:10BE9000204601996B6B022298470024E0E7784620
:10BEA00004F038FAF1E700BFCC360020C0F30F40B1
:10BEB000A0F5805080B20F2816D810B40B4C012387
:10BEC0002268834012EA030C83B008D11A43084B5E
:10BED000098822609A1C23F8201022F820C0002034
:10BEE00003B05DF8044B704705207047D837002039
:10BEF0000C3C002010B5000C012882B00C4602D08A
:10BF0000784604F007FA044A044B22600821218194
:10BF1000636002B010BD00BF040008000100100003
:10BF200010B5000C012882B00C4602D0784604F00F
:10BF3000F1F92388042B13D1A388012B10D1638836
:10BF4000082B0DD12389082B0AD1E388102B07D1A8
:10BF5000054A1378002043F00103137002B010BDAE
:10BF60000B2002B010BD00BFC437002030B5C0F3B5
:10BF70000F44A4F58054A4B20F2C83B00D460FD803
:10BF80000B4B620904F01F0153F8222001238B4060
:10BF9000134209D0074B33F824302B8003B030BD57
:10BFA000784604F0B7F9EBE7784604F0B3F9F1E727
:10BFB000D83700200C3C002010B5000C022882B0BD
:10BFC0000C4602D0784604F0A5F9084B1B68DB0745
:10BFD00007D507490422204602B0BDE8104017F0FB
:10BFE000D1B9784604F096F9F3E700BFDC370020BA
:10BFF000083C002030B5C0F30F44A4F50054A4B2AF
:10C00000072C83B00D4615D80E4B620904F01F01B2
:10C0100053F8222001238B4013420FD00A4904EB2E
:10C020008404102201EB8401284603B0BDE83040AF
:10C0300017F0A8B9784604F06DF9E5E7784604F002
:10C0400069F9EBE7D4370020503C002070B5040CB0
:10C05000B4F5A04F82B00D4602D0784604F05AF9EC
:10C06000A4F5A044104BC4F34A1204F01F0153F886
:10C07000222001238B401342A4B210D0162303FBCD
:10C0800004F40A4EA11D31441022281D17F07AF93C
:10C09000335B2B80264473886B8002B070BD78467A
:10C0A00004F038F9EAE700BFC8370020F037002075
:10C0B00030B5000C022883B00C4602D0784604F05C
:10C0C00029F90C4D2B68DB0702D5002003B030BDE9
:10C0D00020880CF09DFC012809D107480422214644
:10C0E00017F050F92B6843F001032B60EDE70B20AC
:10C0F00003B030BDDC370020083C0020F0B5C0F3B1
:10C100000F44A4F54054A4B2032C83B00D4623D8A9
:10C1100024220021284617F0D9F86109174A012383
:10C1200052F8212004F01F018B40134222D0AC238F
:10C13000134E03FB04F43719335B2B8097F86430FC
:10C14000AB70A11C31441022E81C17F01BF997F8C2
:10C1500064302BB903B0F0BD784604F0DBF8D7E7C4
:10C1600012341022311905F1130003B0BDE8F0407C
:10C1700017F008B9784604F0CDF8D8E7D03700209A
:10C180005839002070B5C0F30F44A4F58044A4B220
:10C19000072C82B00D4622D826220021284617F00F
:10C1A00095F86109174A012352F8212004F01F0174
:10C1B0008B40134221D02A2303FB04F4124EA11D0D
:10C1C00010223144681D17F0DDF8325B2A803319E4
:10C1D0005A886A809B7D2B712BB902B070BD78465E
:10C1E00004F098F8D8E719341022311905F1150038
:10C1F00002B0BDE8704017F0C5B8784604F08AF880
:10C20000D9E700BFCC370020083800202DE9F041E5
:10C21000274EAC2402FB04F4154604F168033219DE
:10C2200033440F469367804610B9224B01221A709F
:10C2300004F12201314438460FF066F940BB04F1A5
:10C240007C01314438460FF071F960BBA01C3946BF
:10C2500010223044123417F095F8102200213019C2
:10C2600017F034F8AC2305FB03F3F2186809124900
:10C2700026F80380002382F8643005F01F0551F88A
:10C2800020300122AA40134341F82030BDE8F0815C
:10C29000784604F03FF804F17C01314438460FF051
:10C2A00045F90028D2D0784604F034F8CEE700BF34
:10C2B00058390020EC370020D037002070B5C0F38B
:10C2C0000F44A4F54054A4B2032C82B017D8174AE7
:10C2D00001231268A34013420ED10D46224631F8C5
:10C2E000030B134EFFF792FFAC2303FB04F4321948
:10C2F000AB7882F864302BB9002002B070BD052005
:10C3000002B070BD133504F11200294610223044EA
:10C31000433417F037F8311928460FF0F5F80028A4
:10C32000EAD0784603F0F6FFE6E700BFD0370020FA
:10C330005839002030B5C0F30F4404F54054A4B27E
:10C340000D4683B031F8030B2246FFF75FFF074924
:10C35000074BA878AC2202FB04320B7882F8640009
:10C3600043F0040300200B7003B030BDC43700203D
:10C3700058390020000CB0F5A04F1AD170B50E4C02
:10C380002368DB0782B002D5002002B070BD0B4DE0
:10C3900051F8046B1022284616F0F4FF236845F884
:10C3A000066C01221343002025F8022C236002B002
:10C3B00070BD0520704700BFC8370020F637002049
:10C3C000030CA3F5005292B2072A2DD82DE9F041B3
:10C3D000184D0124286804FA02F2024282B003D008
:10C3E000002002B0BDE8F081A3F5FF53103B9BB2E3
:10C3F000A3F1100404EB8407DFF83C80BF00381D74
:10C400000E464044102216F0BDFF08EB07013046EF
:10C410000FF0B8F850B92B680122A2401343002056
:10C420002B6002B0BDE8F08105207047784603F02C
:10C4300071FFF0E7D43700204C3C00202DE9F04F8D
:10C44000000C00F50054A4B2072C83B00F463DD970
:10C4500000F5805084B2072C56D84FF0010A2C4AC0
:10C460002C4E1378BB4643F0040313702A255BF867
:10C47000049B04FB05F5A81D05F119081022594677
:10C480003044B04416F07EFF0535002110224046AE
:10C4900016F01CFF711958460FF02AF860BB1E48B1
:10C4A00001220368A2402A25134304FB05F503601B
:10C4B000731900221A7146F8059083F816A0BAF194
:10C4C000000F06D1002003B0BDE8F08F4FF0000A46
:10C4D000C5E7143739464046102216F053FF05F1E0
:10C4E0001801314438460FF003F848B92A2303FBFA
:10C4F00004631A79DA75E5E7784603F00BFFCEE7B7
:10C50000784603F007FFF1E7052003B0BDE8F08FA0
:10C51000C437002008380020CC3700202DE9F04F28
:10C52000C0F30F44A4F58044A4B2072C83B03ED8D6
:10C53000DFF8BC900E460125D9F80010A54015EA99
:10C54000010A30D133464FF02A0853F805BB274F74
:10C55000009308FB04F808F106001946102238443D
:10C5600016F010FF514608F1190ABA44102250463D
:10C5700016F0ACFE009B08F10501184639440EF098
:10C58000B7FF58BB2A2304FB03F3FA180021917567
:10C59000117147F803B0D9F800302B43C9F80030C7
:10C5A000337993753BB9002003B0BDE8F08F0520C7
:10C5B00003B0BDE8F08F153631465046102216F014
:10C5C000E1FE08F11801394430460EF091FF48B9F8
:10C5D0002A2303FB04731A79DA75E4E7784603F03B
:10C5E00099FECFE7784603F095FEF1E70838002082
:10C5F000CC37002070B50F2882B013D8274C012308
:10C60000226803FA00F5154202D1052002B070BD80
:10C61000234901EB8002967816B9D278002A2FD0F0
:10C620000020F3E7A0F110039BB2072BEDD81D4CBF
:10C630000122216802FA03F50D42E6D01A4903EB04
:10C6400083034FEA830C01EB83039E78002EE7D12E
:10C65000DB78002BE4D100F5FF501030ADF804205A
:10C66000ADF80600019821F80C3012F029FC10B149
:10C67000784603F04FFE236823EA05032360CFE7E3
:10C6800021F8202000F58050ADF80430ADF8060008
:10C69000019812F015FC0028EDD0E9E7D83700200A
:10C6A0000C3C0020D43700204C3C00200388012B98
:10C6B00000D070474388A3F54052032A05D81429B7
:10C6C00004BFA3F5C04343807047A3F58042072A07
:10C6D000EFD82429F3D1A3F5A0434380704700BFCE
:10C6E00030B5074A137813F0020587B040F0448153
:10C6F000D90740F161815C0704D4002007B030BD48
:10C70000C43700209E4C21680120ADF8080065F375
:10C710008203C807137015D54FF44053ADF80A30A3
:10C72000029812F0CDFB2368ADF80450D90740F110
:10C7300063819448039001A912F0F4FA10B178468D
:10C7400003F0E8FD23689A0716D543F20103ADF81C
:10C750000A30029812F0B4FB236800229B07ADF860
:10C76000042040F13D818848039001A912F0DAFAD3
:10C7700010B1784603F0CEFD23685D0716D543F26D
:10C780000203ADF80A30029812F09AFB23680022E7
:10C790005807ADF8042040F127817C48039001A997
:10C7A00012F0C0FA10B1784603F0B4FD23681907FF
:10C7B00016D543F20303ADF80A30029812F080FB5D
:10C7C00023680022ADF804201A0740F11181704857
:10C7D000039001A912F0A6FA10B1784603F09AFD71
:10C7E0006C4C2368DB0715D54FF48043ADF80A3055
:10C7F000029812F065FB23680022DD07ADF80420E3
:10C8000040F11E816448039001A912F08BFA0028C0
:10C8100040F00E812368980715D544F20103ADF866
:10C820000A30029812F04CFB236800229907ADF8F9
:10C83000042040F119815948039001A912F072FABD
:10C84000002840F0DD8023685A0715D544F2020322
:10C85000ADF80A30029812F033FB236800225B0720
:10C86000ADF8042040F104814D48039001A912F075
:10C8700059FA002840F0C88023681D0715D544F2F6
:10C880000303ADF80A30029812F01AFB2368002265
:10C890001807ADF8042040F1DF804248039001A959
:10C8A00012F040FA002840F0B3802368D90615D56D
:10C8B00044F20403ADF80A30029812F001FB236839
:10C8C0000022ADF80420DA0640F1CA803648039011
:10C8D00001A912F027FA002840F09E8023689B06E9
:10C8E00015D544F20503ADF80A30029812F0E8FAC3
:10C8F000236800229D06ADF8042040F1A5802B4856
:10C90000039001A912F00EFA002840F089802368F4
:10C91000580614D544F20603ADF80A30029812F016
:10C92000CFFA236800225906ADF8042040F1908028
:10C930001F48039001A912F0F5F9002874D123686B
:10C940001A067FF5DAAE44F20703ADF80A30029812
:10C9500012F0B6FA236800221B06ADF804206BD54E
:10C960001448039001A912F0DDF900283FF4C5AE88
:10C97000784603F0CFFCC0E60B2007B030BD00BF07
:10C98000D0370020010000300100013001000230EA
:10C9900001000330CC3700200100004001000140BD
:10C9A0000100024001000340010004400100054075
:10C9B00001000640010007402F4A07CA03AB03C32A
:10C9C0004FF0011403A920461A80029412F0AAF92C
:10C9D00010B9052007B030BD784603F09BFCF8E79E
:10C9E000784603F097FCBEE6784603F093FCD4E665
:10C9F000784603F08FFCEAE6784603F08BFC98E675
:10CA0000784603F087FC1EE7784603F083FC33E7A3
:10CA1000784603F07FFC48E7784603F07BFC5DE74F
:10CA2000784603F077FC72E7784603F073FC86E7FC
:10CA3000784603F06FFCEDE6784603F06BFC8FE779
:10CA4000784603F067FCDDE6784603F063FC56E7C2
:10CA5000784603F05FFC6BE7784603F05BFC1CE76D
:10CA6000784603F057FC31E7784603F053FCE2E6E2
:10CA7000784603F04FFCF7E6B84704002548264BFC
:10CA800010B5002421464480C4824485C487A0F8A0
:10CA90005240A0F86640A0F87A40A0F88E400422E8
:10CAA0001E485C80DC805C81DC815C82DC825C8393
:10CAB000DC835C84DC845C85DC855C86DC865C876E
:10CAC000DC8716F003FC21460422154816F0FEFB15
:10CAD00021460422134816F0F9FB2146042212488D
