:020000022000DC
:1070000000FD0320453504006D3504006F35040094
:10701000713504007335040075350400000000006C
:1070200000000000000000000000000077350400B0
:1070300079350400000000007B3504007D35040034
:107040007F3504007F3504007F350400399002004D
:10705000319102007F350400458702007F3504002E
:107060007F3504007F350400551904007F35040086
:107070007F3504007F3504007F3504007F35040030
:107080007F3504007D2C040035B203007F350400F9
:10709000652D04007F350400B59602007F3504009D
:1070A0007F3504007F3504007F3504007F35040000
:1070B0007F3504007F350400000000000000000060
:1070C0007F3504007F3504007F35040035920200CF
:1070D0007F3504007F3504007F3504007F350400D0
:1070E0007F3504007F3504007F3504000000000078
:1070F000000000007F350400000000007F35040020
:10710000000000000000000000000000000000007F
:10711000000000000000000000000000000000006F
:10712000000000000000000000000000000000005F
:10713000000000000000000000000000000000004F
:10714000000000000000000000000000000000003F
:10715000000000000000000000000000000000002F
:10716000000000000000000000000000000000001F
:10717000000000000000000000000000000000000F
:1071800000000000000000000000000000000000FF
:1071900000000000000000000000000000000000EF
:1071A00000000000000000000000000000000000DF
:1071B00000000000000000000000000000000000CF
:1071C00000000000000000000000000000000000BF
:1071D00000000000000000000000000000000000AF
:1071E000000000000000000000000000000000009F
:1071F000000000000000000000000000000000008F
:1072000010B5054C237833B9044B13B10448AFF3E0
:1072100000800123237010BDC82E00200000000054
:10722000945D040008B5034B1BB103490348AFF359
:10723000008008BD00000000CC2E0020945D0400FA
:10724000A3F5803A704700BF174B002B08BF134BC4
:107250009D46FFF7F5FF00218B460F461348144A61
:10726000121A1CF0E5FF0E4B002B00D098470D4B77
:10727000002B00D098470020002104000D000D488D
:10728000002802D00C48AFF300801CF07FFF2000E4
:10729000290000F0E9F91CF065FF00BF00000800BC
:1072A000000000000000000000FD0320C82E0020A8
:1072B000145A0020000000000000000043685A78C3
:1072C000172A78D170B542781F2A8EB0044673D140
:1072D0000022CDE90622CDE90822CDE90A220C924E
:1072E000CDF833201A79187859788DF8180002F003
:1072F0000F02D8788DF8191099788DF81C201A791A
:107300008DF81A1012098DF81D2059798DF81B007F
:1073100001F007018DF81E105979C90808AA8DF8E7
:107320001F10D91D511A022940F2AB80D3F8062054
:107330000892D3F80A200992D3F80E200A92D3F8C3
:1073400012200B92D3F816200C929A7E8DF83420DE
:10735000DA7E8DF835201B7F8DF8363000F006FE82
:107360001F2106A800F066FEC0F30F237E2BC0F39A
:107370000726C5B207D9A6F17F03DBB27E2B86BFF5
:107380000236F6B21E467E2D07D9A5F17F03DBB289
:107390007E2B86BF0235EDB21D4663685A7FB2422E
:1073A00029D05E4B1B685A0403D55D4B1B68032B29
:1073B00071DC0EB070BD7047584B1B685904F8D58E
:1073C000574B1B68032BF4DD56482F211DF030F876
:1073D00000287BD02F2153481DF02AF8411C6078EB
:1073E000514A524BD3F80435CDE9002087220420BE
:1073F00014F0A0FFDDE79B7FAB42D2D121201CF02F
:10740000E9FE04460028D4D0069B0360079B436036
:10741000089B8360099BC3600A9B03610B9B4361CC
:107420000C9B83619DF8343003779DF835304377AA
:107430009DF836308377C67780F82050212100F000
:10744000BDFE364B1B685B04B3D5354B1B68032B65
:10745000AFDD34482F211CF0EBFF002850D031481D
:107460002F211CF0E5FF0130A178314A2F4BD3F8D2
:107470000435CDE900210146BE22042014F05AFF54
:1074800097E705330DF1370013F8011F02F8011BD0
:107490009042F9D162E723482F211CF0C9FF00B3C5
:1074A0002F2120481CF0C4FF411C62681F4B907FB5
:1074B000D3F804350490527F03921E4A0092CDE91E
:1074C0000165AC22042014F035FF72E715485C21F9
:1074D0001CF0AEFF80B15C2112481CF0A9FF411CDA
:1074E0007DE710485C211CF0A3FF38B15C210D48FA
:1074F0001CF09EFF411CD8E70A4970E70949D4E710
:1075000008485C211CF094FF28B106485C211CF05F
:107510008FFF0130A8E70348A6E700BF382E002000
:10752000342E0020C844040024450400001001400B
:10753000B4450400484504000378232B00D070476D
:1075400000B51A4B1B685B0483B003D5184B1B684E
:10755000032B09DC0322C8210F2000F02FFF03B00A
:107560005DF804EB00F0BCBE12482F211CF060FF58
:1075700070B12F210F481CF05BFF411C0E4B0F48D0
:10758000D3F804350090C822042014F0D3FEE1E7BC
:1075900008485C211CF04CFF28B15C2105481CF018
:1075A00047FF411CEAE70349E8E700BF382E002007
:1075B000342E0020C844040000100140E0450400BF
:1075C00030B5224B1B685B0483B003D5204B1B688E
:1075D000032B1ADC00F088FC1F2104461D481E4DB9
:1075E00019F0CAFE286050B121461F2211301CF04C
:1075F00011FE2968174801230B7119F0FDFE204682
:1076000003B0BDE830401CF0EDBD14482F211CF044
:107610000FFF70B12F2111481CF00AFF411C104BC5
:107620001048D3F8043500907422042014F082FE30
:10763000D0E70A485C211CF0FBFE28B15C2107481A
:107640001CF0F6FE411CEAE70449E8E7382E00206A
:10765000342E0020242F0020C02F0020C844040016
:1076600000100140FC45040030B58DB01BF014FD46
:1076700000287DD100F00EFF5E4A5F4C04214FF4DC
:10768000804014F047FE01F05DFE2422002103A893
:107690001CF0CEFD594B03940722002103A88DF85E
:1076A0001420079300F0B4FD002859D00B2853D1C3
:1076B000534C2368590431D5524D2B68032B2DDDD3
:1076C00051482F211CF0B4FE00286BD02F214E48CA
:1076D0001CF0AEFE411C4D4B4D4AD3F804350092D0
:1076E0000420E32214F026FE23685A0416D52B68E2
:1076F000032B13DD44482F211CF09AFE002869D08B
:107700002F2141481CF094FE411C404B4148D3F8C6
:1077100004350090E422042014F00CFE3E4811F0E1
:1077200081FF40233D4A3E48002119F03BFD23687C
:107730005B0403D5334B1B68032B1EDC172019F0A9
:10774000B5FB00F0BDFD68B9354819F0A3FD00F0A8
:107750003FFB00200DB030BD2B4AE9211BF020FF7C
:10776000274CDBE7284A40F207111BF019FFEBE733
:10777000254AF9211BF014FF7CE723482F211CF038
:1077800057FED0B12F2120481CF052FE411C1F4B48
:107790002448D3F8043500904FF48072042014F08C
:1077A000C9FDCBE718485C211CF042FEE8B15C2122
:1077B00015481CF03DFE411C8DE713485C211CF070
:1077C00037FE28B15C2110481CF032FE411CDEE778
:1077D0000D49DCE70C485C211CF02AFE38B15C2125
:1077E00009481CF025FE411C8FE7074973E706494D
:1077F0008BE700BFE5C203000100000739750200F6
:10780000382E0020342E0020C8440400001001400F
:107810003846040088460400BD720200E42E0020B1
:10782000242F0020C446040041DF70472DE9F04FAB
:107830008378172B8DB0804608D0A54B1B68590460
:1078400000F1268100200DB0BDE8F08FA04EDFF8DA
:107850008492DFF884A2DFF884B204AD0DF12F0723
:107860000446336814F8012F05F8012B13F4804304
:1078700044D0D9F80030032B00F38280BD42F0D110
:1078800000F074FB1F2104A800F0D4FBC0F30F2309
:107890007E2BC0F30725C4B240F2988033685A04A7
:1078A00040F18C808B4F3B68032B00F35581A5F191
:1078B0007F095FFA89F9B9F17E0F40F24981336897
:1078C0005B0440F181803B68032B7DDD82482F21E2
:1078D0001CF0AEFD002800F096812F217E481CF0A0
:1078E000A7FD411C7D4B7E4AD3F804350092CDF8AC
:1078F00004902622042014F01DFD65E001345FFA97
:1079000088F2E4B2A11ABD42C9B2B9D0121B02F189
:107910001F00C0B220320228D2B213D904AC481ED4
:107920002044950808EB010454F8237040F82370B4
:107930000133DFB2BD42F7D802F0FC0319449A428A
:10794000C9B29DD04A1C01F13003D2B26B4418F881
:10795000010003F8210C202A92D00231CBB202F1AF
:107960003001694418F8022001F8212C202B87D01F
:1079700003F130026A4418F8033002F8213C7FE733
:107980002F2150461CF054FD03462F2150466BB169
:107990001CF04EFD411C5348DBF804350090207864
:1079A00001901D22042014F0C5FC67E75C211CF047
:1079B0003FFD00286AD05C215046E9E7A5F17F032E
:1079C000DBB27E2B40F2C2800235EDB27E2C35D97F
:1079D000336858042AD53F4F3B68032B00F3D1800E
:1079E000A4F17F095FFA89F9B9F17E0F40F2B28004
:1079F0003368590420D53B68032B1DDD36482F2101
:107A00001CF016FD002800F009812F2132481CF0DF
:107A10000FFD411C314B344AD3F804350092CDF8A8
:107A200004902C22042014F085FC05E0A4F17F03CF
:107A3000DBB27E2B40F28880A01CC4B298F82030C4
:107A4000AB4255D033685A047FF5FCAE214B1B681E
:107A5000032B7FF7F7AE20482F211CF0E9FC00280C
:107A600000F0C6802F211C481CF0E2FC411C98F855
:107A700020001A4B1D4AD3F804350092CDE901507D
:107A80003222042014F056FC0020DCE6514682E746
:107A9000104B1B68032B7FF7D5AE0F482F211CF02E
:107AA000C7FC002800F099802F210B481CF0C0FC77
:107AB000411C98F801000B4A084BD3F80435CDE976
:107AC00000200420152214F035FC0020BBE600BF86
:107AD000382E0020342E0020E4460400001001401F
:107AE00058470400404704006447040070470400FE
:107AF00098F82130A34223D033685B047FF5A2AE0F
:107B0000584B1B68032B7FF79DAE57482F211CF065
:107B10008FFC002800F0938053482F211CF088FC34
:107B2000013098F82110514B514AD3F80435009296
:107B3000CDE9014139220146042014F0FBFB81E626
:107B400001200DB0BDE8F08F1C4677E71D463DE7EC
:107B50004D463BE74C4671E743482F211CF068FC3B
:107B600080B32F2140481CF063FC411C3F4B414A2D
:107B7000D3F80435009201952622042014F0DAFB94
:107B800095E639482F211CF053FC78B12F21364857
:107B90001CF04EFC411C354B374AD3F8043500929B
:107BA00001942C22042014F0C5FB19E72E485C2117
:107BB0001CF03EFC002840D05C212B481CF038FC17
:107BC000411CE8E728485C211CF032FC98B35C219A
:107BD00025481CF02DFC411CC8E723485C211CF003
:107BE00027FC30B35C2120481CF022FC411C60E7DC
:107BF0001D485C211CF01CFC60B35C211A481CF081
:107C000017FC411C33E718485C211CF011FC18B329
:107C10005C2115481CF00CFC411C63E612485C21F9
:107C20001CF006FCD0B15C210F481CF001FC411C8B
:107C3000F0E60D493DE70C4998E70B49ABE70A48E8
:107C40005C211CF0F5FB58B107485C211CF0F0FBEF
:107C5000013066E704490AE7034943E60249D9E6E9
:107C600001485EE7342E0020E44604000010014085
:107C7000A8470400584704006447040070B586B064
:107C800006AB03E907009DF80C30012B01D006B0CC
:107C900070BD464C464A20461370FFF7C7FD90B1B1
:107CA000444D24792B685A0403D5434E3368032B83
:107CB00026DC422CEBD03D4800F0D8F806B0BDE8F9
:107CC0007040FFF77DBC3B4B1B685904DFD53A4B36
:107CD0001B68032BDBDD39482F211CF0A9FB002892
:107CE00052D02F2135481CF0A3FB411C344B3548A2
:107CF000D3F8043500904D22042014F01BFBC6E796
:107D00002E482F211CF094FB40B32F212B481CF050
:107D10008FFB411C2A4B2C4AD3F8043500920420D7
:107D2000522214F007FB2B685B04C2D53368032B87
:107D3000BFDD22482F211CF07BFBD0B12F211F4833
:107D40001CF076FB411C21481D4B5322D3F804350F
:107D5000CDE90004042014F0EDFAAAE717485C21ED
:107D60001CF066FBD8B15C2114481CF061FB411C7F
:107D7000D0E712485C211CF05BFB90B15C210F48FE
:107D80001CF056FB411CDEE70C485C211CF050FB4C
:107D900048B15C2109481CF04BFB411CA6E7074990
:107DA000B8E70649CFE70549A0E700BFC42F002088
:107DB00009300020382E0020342E0020E446040034
:107DC00000100140E0470400EC470400F8470400BD
:107DD000F0B5204D0FCD89B002AC0FC495E803007B
:107DE0001E2684E803001D271A241F251A4A1B4853
:107DF00002A9CDE90267CDE9044500F04DFF28BB9B
:107E00004FF0A04340F20132154C164F164E134D61
:107E1000C3F878270BE000232370237823B9FFF7FA
:107E200003FD2378002BFAD0012000F013FF00F0AF
:107E300061F82223009321223B463146284601F077
:107E40003DF80028E7D01BF09BFBE4E71BF098FB14
:107E5000D6E700BF0C4804007D7C020024480400E3
:107E600009300020C42F0020E82F002038B5054637
:107E70001F201CF0AFF9A0B31F22002104461CF004
:107E8000D7F9EA792B7AA979D5F80100206002F0B8
:107E9000070242EAC302D5F80D30C4F80A306B7FFE
:107EA000A376104B62711C60AA7F6B79E276EA7F41
:107EB000227703F00F032A8CA4F81D2043EA011354
:107EC000D5F81520D5F811102371C4F81220D5F873
:107ED0001930D5F80920C4F80E10C4F80620C4F8EB
:107EE000163038BD0C300020014B1868704700BFB9
:107EF0000C3000202DE9F04182B0684600F064F9B2
:107F00000098194B421C9A1A022A1ED9D0F80080F8
:107F100047688668C5680469D0F814E0D0F818C0CE
:107F2000C16990F82020C3F800805F609E60DD602A
:107F30001C61C3F814E0C3F818C0D96183F820208D
:107F400002B0BDE8F0411CF04DB9421E03F121041E
:107F500012F8011F03F8011B9C42F9D102B0BDE8E1
:107F6000F0411CF03FB900BFE82F002030B4304D85
:107F7000002105F50074084648F2050C2AE05A0075
:107F800093B212B2002A34DB5A0093B212B2002A22
:107F900035DB5A0093B212B2002A36DB5A0093B294
:107FA00012B2002A37DB5A0093B212B2002A38DB31
:107FB0005B009AB21BB2002BACBF52008CEA4202AB
:107FC00025F8022F00F5807001F50071AC4280B2F7
:107FD00089B22BD003044BBF8CEA01030AB21AB258
:107FE0000B46002ACBDA8CEA43031AB2002A9BB272
:107FF000CADA8CEA43031AB2002A9BB2C9DA8CEAC5
:1080000043031AB2002A9BB2C8DA8CEA43031AB2BD
:10801000002A9BB2C7DA8CEA43031AB2002A9BB249
:10802000C6DA8CEA430213B292B2C4E730BC70479E
:108030000E300020002940F3828010B501385E4CDC
:1080400000EB010E002110F8012F02F00103002BBC
:108050000BBF4023C0234FF0000C4FF0800C12F0F8
:10806000020F08BF634612F0040F18BF43F020034D
:1080700012F0080F18BF43F0100312F0100F18BFD2
:1080800043F0080312F0200F18BF43F0040312F06E
:10809000400F18BF43F00203D20918BF43F0010399
:1080A00083EA1123DBB2704534F8133083EA0121EF
:1080B00089B2C8D111F0010F14BF4FF40040002065
:1080C0004B088C0748BF40F48040990748BF40F4F4
:1080D00000505A0748BF40F480501C0748BF40F486
:1080E0000060D90648BF40F480609A0648BF40F45B
:1080F00000705C0648BF40F48070190648BF40F02D
:108100008000DA0548BF40F040009C0548BF40F0C1
:108110002000590548BF40F010001A0548BF40F044
:108120000800DC0448BF40F00400990448BF40F058
:1081300002009B0B18BF40F0010080B210BD00236D
:108140009A07184648BF43F40050590748BF40F407
:1081500080501A0748BF40F40060D90648BF40F479
:1081600080609A0648BF40F40070590648BF40F44A
:1081700080701A0648BF40F08000D90548BF40F023
:1081800040009A0548BF40F02000590548BF40F024
:1081900010001A0548BF40F00800D90448BF40F05D
:1081A00004009A0448BF40F002009B0B18BF40F047
:1081B000010080B2704700BF10300020014BC3E9BE
:1081C0000001704710320020024AD2E90021C0E9C4
:1081D000002170471032002010B5044615F058FAFF
:1081E00010B123780E2B00D010BDBDE81040002048
:1081F00011F07ABA0378142B00D07047C3880F2B84
:10820000FBD8024B01221A70704700BF7032002069
:1082100070B582B0002849D00E46054611F01AF913
:10822000044610B1204602B070BD04F05FFF02F0BA
:108230008DFD28690BF08AFE04460028F2D12A7FC2
:10824000AB69CDE9003201466B691A484FF6FF72FF
:108250000CF068FA04460028E4D12B6A03B1984771
:10826000154811F0D5F917F029FE134811F0D2F98D
:1082700004F0F2FC054602F03BF90B2D0AD00B2866
:1082800008D00E4B1B782BB908F034FB002EC9D058
:108290003070C7E712F0B2F90B2402F01DFD04F0B4
:1082A000C3FE10F063FA16F049FAEDE70E242046FB
:1082B00002B070BD183200200C2E00207032002059
:1082C00011F03CB908B512F099F902F005FD04F07F
:1082D000ABFE10F04BFABDE8084016F02FBA00BF15
:1082E00008B515F0D5F920B1BDE80840002011F01F
:1082F000FBB9BDE80840014811F08AB9002E002002
:108300002DE9F047DFF8AC80D8F8000058B3254DD0
:10831000254FD5F800A0254E00244FF0010909FA99
:1083200004F313EA0A0F10D0E05D1F28324694BF11
:108330004FF0A04200F01F01D2F8043598BF01466B
:10834000CB40DA070CD500F0EDF90134042CE6D16E
:10835000D8F80040013CC8F800403CB1BDE8F087C7
:1083600000F0D0F9F1E71BF00BF9D0E710480E4F01
:10837000DFF844801AF06CFF01262B6806FA04F23D
:108380001A4207D0D8F80030E05DE340DB0706D59D
:1083900000F0C8F90134042CEFD1BDE8F08700F0FB
:1083A000B1F9F7E7783200203048040000030050AC
:1083B0007C320020743200209C320020002A5ED0E3
:1083C0001329F8B50C4600D8F8BD2D4B2D4D5200A1
:1083D000013A1A6010F00103286007D04FF0A04363
:1083E000D3F804356FEA533303F00103860709D548
:1083F0004FF0A042D2F804256FEA9232520002F008
:1084000002021343410709D54FF0A042D2F80425D8
:108410006FEAD232920002F004021343020709D538
:108420004FF0A042D2F804256FEA1242D20002F0C7
:1084300008021343144900260B604FF400424FF426
:10844000FA703146E4FB020100234FF47A721BF00C
:1084500007FD324601460D481AF09EFE04460028EC
:10846000B2D10B4F2E68012505FA04F3334202D036
:10847000385D00F057F90134042CF5D1F8BD704790
:1084800074320020783200209C3200207C320020A0
:108490003048040030B583B000F08AF8E0B1144CE5
:1084A00000230122ADF804308DF806308DF8052048
:1084B000251D14F8010B01A900F084F848B9AC425D
:1084C000F7D10C4A0C4801211AF054FE58B903B0F8
:1084D00030BD1BF055F8F2E700F010F80028DED0B0
:1084E0001BF04EF8DBE71BF04BF803B030BD00BFCC
:1084F00030480400018302002C48040030B5284CA9
:1085000094F86A3083B0002B46D14FF6FF704FF0DD
:10851000FF0C5A09012A18BF4FF0FF3103F01F0268
:1085200008BF014621FA02F2D20748BFE21803F160
:10853000010348BF82F830C0302BEAD14FF0FF3042
:108540004FF0FF314FF0FF33C4E900010622002154
:1085500014482366C4E90233C4E90433C4E906338A
:10856000C4E90833C4E90A331BF062FE0E4BC02293
:1085700083F8062340221A600C4B0020C3F87C01CC
:10858000D3F87C21019201214FF00042019D84F833
:108590006A10C3F8042300E0082003B030BD00BF18
:1085A000A03200200433002000E100E00060004021
:1085B000034B93F86A00003818BF0120704700BFD2
:1085C000A03200204C4B1A1892F930C0BCF1FF3F8A
:1085D00001D00820704710B48C78ECB11A680132D1
:1085E00047D05A6801327CD09A6801327BD0DA6871
:1085F000013274D01A69013277D05A69013276D0CB
:108600009A69013275D0DA69013208BF072231D088
:1086100004205DF8044B7047FE2382F830304B781D
:10862000012B4FD01F2887BF344A00F01F0101469D
:108630004FF0A04201238B40C2F80C351F288BBF9E
:1086400000F01F0303462D4A4FF0A04203F5E073EC
:10865000032142F82310C208294900F007008C5C6E
:10866000012303FA00F0204388545DF8044B0020F6
:10867000704700221C1884F83020002443F8224060
:1086800093004C780A782405120404F4801403F152
:10869000804302F4403203F5C0432243040204F451
:1086A0007C542243D3F8104524F4991424F4F8544C
:1086B000C3F81045D3F810452243C3F810254B7872
:1086C000012BAFD11F2887BF0C4A00F01F010146C4
:1086D0004FF0A04201238B40C2F80835AEE70322D9
:1086E000C8E70122C6E70222C4E70422C2E7052246
:1086F000C0E70622BEE700BFA03200200003005002
:10870000043300201F2886BF054A00F01F004FF0E9
:10871000A042012303FA00F0C2F80805704700BF29
:10872000000300501F2886BF054A00F01F004FF0CD
:10873000A042012303FA00F0C2F80C05704700BF05
:10874000000300502DE9F047002384B0CDE9023347
:108750001C4AD2F80011012900F030821E46194B44
:10876000D3F80421012A00F01A82164BD3F808210D
:10877000012A00F00582134BD3F80C21012A00F0E6
:10878000F081104BD3F81021012A00F0DB810D4B52
:10879000D3F81421012A00F0C1810A4BD3F8182123
:1087A000012A00F0AC81074BD3F81C21012A0BD021
:1087B000044BD3F87C21012A00F0218256BB04B07F
:1087C000BDE8F08700600040D3F804231206EFD51F
:1087D0000022C3F81C21D3F81C110091D3F87C119E
:1087E0000098012946F0800614D1C3F87C21D3F803
:1087F0007C3101934FF0A042019BD2F82015CF4B62
:108800000291C2F82015D3F820250392C3F8202541
:1088100046F00046CA4F01250024A30003F180431F
:10882000354203F5C0434FEA45050BD0D3F8100598
:1088300057F82420D3F81015C0F30520C1F30141E7
:1088400002B190470134082CE7D1002EB7DABC4CB6
:10885000BA4E01254FF0A04794F96000431C48D060
:10886000C0F3C20202F110030DEB030200F0070394
:1088700012F8082C05FA03F31A42C1B200F03F00C7
:1088800037D01F2800F22B8102464FF0A04909EB98
:10889000820305FA02F2D3F800C7D3F800E72EF4FA
:1088A000403EC3F800E704EB000ECCF3014C9EF908
:1088B00030E0D3F800A754F82E80BCF1020F0CBFB3
:1088C0004FF4403E4FF4003E4EEA0A0EC3F800E774
:1088D000C9F82025B8F1000F0BD08909032900F051
:1088E0008281BCF1020F00F07B81BCF1030F00F02C
:1088F000A68194F96100411C48D0C0F3C20202F184
:1089000010030DEB030200F0070312F8082C05FA20
:1089100003F31A42C1B200F03F0037D01F2800F223
:10892000E28002464FF0A04909EB820305FA02F209
:10893000D3F800C7D3F800E72EF4403EC3F800E7B1
:1089400004EB000ECCF3014C9EF930E0D3F800A705
:1089500054F82E80BCF1020F0CBF4FF4403E4FF490
:10896000003E4EEA0A0EC3F800E7C9F82025B8F128
:10897000000F0BD08909032900F03A81BCF1020FE6
:1089800000F03381BCF1030F00F05D8194F96200C7
:10899000421C48D0C0F3C20202F110030DEB0302E7
:1089A00000F0070312F8082C05FA03F31A42C1B2CB
:1089B00000F03F0037D01F2800F2998002464FF0A8
:1089C000A04909EB820305FA02F2D3F800C7D3F8F5
:1089D00000E72EF4403EC3F800E704EB000ECCF3B2
:1089E000014C9EF930E0D3F800A754F82E80BCF17A
:1089F000020F0CBF4FF4403E4FF4003E4EEA0A0E09
:108A0000C3F800E7C9F82025B8F1000F0BD0890999
:108A1000032900F0F280BCF1020F00F0EB80BCF102
:108A2000030F00F0088194F96300431C47D0C0F3A2
:108A3000C20202F110030DEB030200F0070312F86B
:108A4000082C05FA03F31A42C1B200F03F0036D0F9
:108A50001F2850D802464FF0A04909EB820305FABF
:108A600002F2D3F800C7D3F800E72EF4403EC3F873
:108A700000E704EB000ECCF3014C9EF930E0D3F894
:108A800000A754F82E80BCF1020F0CBF4FF4403EFB
:108A90004FF4003E4EEA0A0EC3F800E7C9F820255D
:108AA000B8F1000F0BD08909032900F09780BCF1C1
:108AB000020F00F09080BCF1030F00F0B880D7F8EF
:108AC00020250292C7F82025D6F820350393C6F852
:108AD000203513437FF4C0AE04B0BDE8F08701F049
:108AE0001F02B146D3E601F01F02B1461CE701F0B8
:108AF0001F02B14665E701F01F02B146ADE7D3F8AA
:108B0000042351067FF54FAE0022C3F81821D3F895
:108B100018310093009B46F0400644E6D3F8042346
:108B200090067FF53AAE0022C3F81421D3F8143131
:108B30000093009B46F020062FE600BF0003005084
:108B4000A0320020D3F80423D4067FF520AE002203
:108B5000C3F81021D3F810310093009B46F01006A3
:108B600015E6D3F8042315077FF50BAE0022C3F8F2
:108B70000C21D3F80C310093009B46F0080600E668
:108B8000D3F8042357077FF5F6AD0022C3F8082178
:108B9000D3F808310093009B46F00406EBE5D3F8C8
:108BA000042392077FF5E1AD0022C3F80421D3F836
:108BB00004310093009B46F00206D6E5D2F8046328
:108BC00016F001063FF4CBADC2F80031D2F8003107
:108BD0000093009BC3E501297FF471AFC0476EE7A6
:108BE00001297FF486AEC04783E601297FF4CEAE2B
:108BF000C047CBE601297FF416AFC04713E7002238
:108C0000C3F87C21D3F87C3101934FF0A042019B43
:108C1000D2F820150E4B0291C2F82015D3F820256A
:108C20000392C3F82025002E3FF411AEF0E502298F
:108C30007FF445AFD2E702297FF4F5AEDDE70229E4
:108C40007FF457AECFE702297FF4A0AED0E700BF94
:108C5000000300500A4B185C1F288ABF09494FF0D7
:108C6000A04100F01F00D1F804350122824022EA21
:108C700003001340C1F80805C1F80C35704700BF68
:108C800034480400000300508C46024B07C853F8D8
:108C90002C3018470C33002010B4044C037944F8EE
:108CA0002320034A5DF8044B00F004B80C33002085
:108CB000898C02002DE9F04F90F804C07B4DCCEB7D
:108CC000CC0405EB840483B0247D002C40F0DD80CF
:108CD0000C7C032C00F2DD800E680468FF2E9B469E
:108CE0004FEACC0700F0C1801F2E91F813E086BF39
:108CF000DFF8C48106F01F064FF0A04806F5E076C5
:108D00004FEA0E2E48F826E04E68D1F80080FF2E7C
:108D100000F0B1801F2E86BF06F01F06DFF898E135
:108D20004FF0A04E06F5E0764FF000094EF8269081
:108D3000D1F80490CE6891F812E01F2E86BF06F09D
:108D40001F06DFF874A14FF0A04A06F5E0764FEA5F
:108D50008E0E4AF826E08E681F2E88BF06F01F068A
:108D600006F5E07E8CBFDFF850A14FF0A04A002648
:108D70004AF82E60D1E9023EC4F80835C4F81095CF
:108D8000C4F80C85C4F814E5C4F83465C4F8386533
:108D9000C4F84465C4F848654E7C91F810E0003E84
:108DA00018BF0126BEF1020F77D0BEF1030F77D0B6
:108DB000BEF1010F77D0C4F854650E7DC4F85C6530
:108DC0004E7DC4F8C0650026C4F80461D4F804E1FF
:108DD000CDF804E0DDF804E0C4F82861D4F828E117
:108DE000CDF800E0DDF800E0D4F80032A7EB0C0E7F
:108DF00005EB8E0E43F00403C4F8003240F2024348
:108E00008EF81560CEF80820CEF818B0C4F80433F8
:108E100002688B7D42F30731B1424FEA12322DDBFB
:108E200001F160415B0101F56141DBB281F8003382
:108E3000036843F30732002A4FEA133308DB1C4868
:108E40005209012103F01F0301FA03F340F8223015
:108E5000A7EB0C0C05EB8C050122022300202A75E0
:108E6000C4F8003503B0BDE8F08F4E68FF2E4FF018
:108E7000FF387FF44FAF4FF0FF395BE70D4902F049
:108E80000F025B01DBB28B54D2E7082003B0BDE8D0
:108E9000F08F072003B0BDE8F08F46F004068AE7A4
:108EA00046F0060687E746F0020684E718330020FE
:108EB00000E100E014ED00E00003005090F804C071
:108EC000BCF1020F4ED870B58CB00C461099B1F5BC
:108ED000803F39D2B2F5803F36D224B104F06041F0
:108EE000B1F1005F33D123B103F06041B1F1005F14
:108EF0002DD14B49CCEBCC0E01EB8E0E4FEACC06BC
:108F00009EF81550012D5FFA85FE30D004D9AEF1E0
:108F1000020EBEF1010F27D8A6EB0C0C4FEA8C0510
:108F20004A5101EB8C01C1E90343109A4A600125C3
:108F300000684D754A7D022AD3B256D0032B47D024
:108F4000AB4243D0002000E009200CB070BD354A90
:108F50001268520403D5344A1268032A09DC10202F
:108F60000CB070BD0920704703200CB070BD082004
:108F7000EBE72E4807932F211BF05AFA079B002896
:108F80003DD02F2129481BF053FA079B411C28484C
:108F900003F06042D0F80405CDE9034304F06044D7
:108FA000A2F10052A4F10054224BB2FA82F2B4FAB8
:108FB00084F452096409CDE900340292034640F278
:108FC0009B12042013F0B6F91020BEE74362B9E704
:108FD000D0F83C45D0F84C258B688DF82450CDE96D
:108FE0000A42896909A89847ACE700238A688DF886
:108FF0002430CDE90A33896909A89047A2E70B48D4
:1090000007935C211BF014FA079B30B15C210748E1
:109010001BF00EFA079B411CB9E70449B7E700BFF4
:1090200018330020382E0020342E00203848040049
:10903000001001409448040030B53B4BD3F8282180
:1090400087B05AB10020C3F82801D3F82811374A55
:1090500001910199517D0129CCB21CD0324BD3F83A
:10906000042152B10020C3F80401D3F804112F4A9F
:1090700002910299517D022901D007B030BD032130
:109080005175547D022CE1B245D0032935D0012918
:10909000F3D15962F1E71168D568C3F84455C3F8B4
:1090A000481551681569C3F83455C3F838150221BD
:1090B0009C62517592F815C0BCF1020F5FFA8CF1F9
:1090C00012D0032903D00129C8D15962C6E78DF80F
:1090D0000C40D3F83C150491D3F84C0505909368E7
:1090E000916903A89847B9E7CDE904008DF80C0011
:1090F0009368916903A89847B0E701218DF80C1097
:10910000D3F83C150491D3F84C0505909368916908
:1091100003A89847B1E7CDE904008DF80C009368E7
:10912000916903A89847A8E7003000401833002051
:1091300030B54FF0402387B0D3F8282162B100202A
:10914000C3F82801D3F82811394A0191019992F8FE
:1091500031100129CCB220D04FF04023D3F80421A4
:109160005AB10020C3F80401D3F80411304A029127
:10917000029992F83110022901D007B030BD0321C5
:1091800082F8311092F83140022CE1B246D0032926
:1091900036D00129F1D15962EFE7D169956AC3F858
:1091A0004455C3F84815116AD56AC3F83455C3F855
:1091B000381502219C6282F8311092F831C0BCF15E
:1091C000020F5FFA8CF112D0032903D00129C3D119
:1091D0005962C1E78DF80C40D3F83C150491D3F8DF
:1091E0004C050590536A516B03A89847B4E7CDE945
:1091F00004008DF80C00536A516B03A89847ABE745
:1092000001218DF80C10D3F83C150491D3F84C05CE
:109210000590536A516B03A89847AEE7CDE9040067
:109220008DF80C00536A516B03A89847A5E700BF5F
:109230001833002030B53E4BD3F8282187B062B1F7
:109240000020C3F82801D3F828113A4A0191019966
:1092500092F84D100129CCB21FD0354BD3F8042120
:109260005AB10020C3F80401D3F80411314A029125
:10927000029992F84D10022901D007B030BD0321A8
:1092800082F84D1092F84D40022CE1B246D00329ED
:1092900036D00129F1D15962EFE7916B556CC3F8D3
:1092A0004455C3F84815D16B956CC3F83455C3F8D1
:1092B000381502219C6282F84D1092F84DC0BCF125
:1092C000020F5FFA8CF112D0032903D00129C4D117
:1092D0005962C2E78DF80C40D3F83C150491D3F8DD
:1092E0004C050590136C116D03A89847B5E7CDE9BF
:1092F00004008DF80C00136C116D03A89847ACE7BF
:1093000001218DF80C10D3F83C150491D3F84C05CD
:109310000590136C116D03A89847AEE7CDE90400E2
:109320008DF80C00136C116D03A89847A5E700BFDA
:10933000003002401833002060DF704769DF70475B
:1093400010F06AB910B588B000F026F9002854D1A1
:10935000324B0393039B04930C22002105A81AF0BF
:1093600067FF0023049A8DF8143005A90120FFF748
:10937000E5FF00283ED10C22002105A81AF058FF75
:10938000F823049A059305A9A120FFF7D7FF70BB26
:1093900004A8FFF7D1FF039B049A9A42044603D026
:1093A0001F4B1B685B0402D4E4B908B010BD1D4B11
:1093B0001B68012BF8DD1C482F211BF039F8F8B190
:1093C0002F2119481BF034F8411C0498174A184BF8
:1093D000D3F80435CDE90020AB22022012F0AAFF19
:1093E000002CE2D020461AF0CBF808B010BD1AF0DD
:1093F000C7F8CDE71AF0C4F8BDE71AF0C1F8A7E73F
:1094000009485C211BF014F828B15C2106481BF0C8
:109410000FF8411CD9E70449D7E700BF002E002010
:10942000382E0020342E0020D04804003849040093
:109430000010014070B4EFF3108472B60D4B9A68BF
:10944000AAB9012199600C490C4ED1F880503540E1
:109450001D60C1F88060D1F884505D604FF0FF332B
:10946000C1F88430027004B962B670BC7047012341
:109470000370F8E78833002000E100E0FC06FFBD40
:10948000094B9A687AB170B910B4EFF3108172B6D3
:10949000064A1C6814605C685460986001B962B642
:1094A0005DF8044B704770478833002000E100E00E
:1094B00001600B6843604A68934204BF0023436025
:1094C000704700BF436843B1026891680B44436032
:1094D0005268934204BF0023436070474BDF7047DC
:1094E00010B5124C84B001A8FFF7F8FFA8B92146C7
:1094F00002A8FFF7DDFF039B002BF4D0D3E9003176
:109500000198984702A8FFF7DDFF039B002BF5D1D8
:1095100001A8FFF7E3FF0028E9D0052801D104B036
:1095200010BD04B0BDE810401AF02AB87449040018
:1095300061DF7047154B1B7833B330B5144D91B0D4
:1095400034240DF1020103A8ADF80240FFF7F0FF4B
:1095500088B9294601A8FFF7ABFF029B002BF0D08A
:10956000D3E9003103A8984701A8FFF7ABFF029B9E
:10957000002BF5D1E5E7052801D111B030BD11B0C0
:10958000BDE8304019F0FCBF704700BF94330020A5
:109590008049040010DF704770B53D4D2B7884B0D2
:1095A000002B67D13B4E3C49012302A83370FFF7E3
:1095B0007FFF039B23B90FE0FFF784FF039B5BB1A1
:1095C000D3E9003100209847034602A8002BF3D1CD
:1095D0001C46204604B070BD304902A8FFF768FF62
:1095E000039B4BB1D3E900310020984702A8FFF755
:1095F00069FF039B002BF5D1294B00221B680193C7
:1096000002A88DF80820FFF715FF264901A8FFF7EB
:10961000C1FFB0FA80F304465B099DF808002B7087
:10962000FFF72EFF002CD4D11F4B20491C70347043
:1096300091F81623EC2352091341DB071ED51C4B6E
:109640009A6802B31A6842F480021A60134902A8A9
:10965000FFF72EFF039B002BBBD0D3E90031012085
:10966000984702A8FFF72EFF039B002BF5D1204659
:1096700004B070BD0824204604B070BD42F2020060
:1096800019F07EFFE2E74FF480030B60DEE700BFD6
:10969000963300209533002090490400A849040027
:1096A0008C4904001D0903009733002000E100E00D
:1096B0008833002000B583B008496846FFF7F8FEFC
:1096C000019B43B1D3E9002090476846FFF7FAFEBB
:1096D000019B002BF6D103B05DF804FB9C4904000C
:1096E000817801F00303032B34D8DFE803F029234A
:1096F0001E02890841F2707201FB02F230B4164B6F
:10970000164D19682B6811448160002423B91DE0AF
:10971000DA681C46B2B113469A688A1A002AF7DA48
:10972000A4B1E06030BCC36070478908642201FBCB
:1097300002F2E3E701F0FC0202EB91014A00DDE7EF
:109740008A08DBE7D86030BCC26070472860C3601D
:1097500030BC70477B4600BFB0330020B8330020D8
:109760002DE9F0416F4D2B78002B36D16E4C2268DD
:109770008AB36E4E3378977807F003019942C7F3A6
:10978000010740F393806A48032B006800F2C5800C
:109790009268684C121A6848022900FB02F254F8D9
:1097A0002300B2FBF0F266D0032942D0012953D046
:1097B00010F0E6FD3378032B804600F29E8054F8CB
:1097C000233098442B785D48002B67D04146BDE894
:1097D000F04110F073BCBDE8F081584B534E5F6808
:1097E00010F0CEFD3378032B04466ED8514A52F860
:1097F00023204F49E01B10443BB94CF250329042B9
:1098000003D90A6801320A6007E04D4A4009A2FB09
:1098100000200A6802EBD0100860434C2268002A3E
:10982000A9D12B78002BD6D0BDE8F041434810F0E9
:10983000F9BB002B59D0012B63D1424B03FB02F241
:10984000414BB3EBF20FB3D310F09AFDDFF8188160
:10985000032380443370B5E73C4B03FB02F23C4BDF
:10986000B3EB720FA4D310F08BFD00F5742808F54C
:1098700010783770A6E773B3012B99D103F1CC337D
:1098800003FB02F2324BB3EB720F91D310F078FD71
:10989000DFF8D88002238044337093E70123C0F8B7
:1098A00004802B70BDE8F04110F04EBB10F068FD55
:1098B00023689B78C3F30102327003F003031D4A4F
:1098C00052F8233000EB03087CE7784607F04CF9A8
:1098D000337800228DE71F4B03FB02F203F1804334
:1098E000013BB3EBB20FD1D262E71B4B03FB02F299
:1098F0001A4BB3EB321FA7D25AE7784607F034F978
:1099000060E7022B7FF454AF154B03FB02F2154BBB
:10991000B3EBB20FFFF44CAF96E7784607F024F9AB
:10992000FFDE00BFB4330020B8330020B533002081
:10993000B0330020B4490400A08601009833002011
:10994000C55A7C0A63C92F96063A6D00CDCCCCCCA3
:1099500099999919295C8FC24728A3B733EC0A005B
:10996000EFEEEEEE444444040046C3238096980094
:109970002DE9F0412D4B1B7882B0032B52D8DFE844
:1099800003F04C4742022A4E336803F5BB531033B1
:109990003360284F284B3C684FF0000883F8008064
:1099A000002C2BD0224E07E063680199984720468F
:1099B000FFF796FE3C680CB33268A368934201A996
:1099C00003D032689B1A002B18DA2588E3683B60C5
:1099D0002846CDF8048002F0CFF903462846002B34
:1099E000E2D0784607F0C0F86368019928469847A6
:1099F0002046FFF775FE3C68002CDDD102B0BDE8C3
:109A0000F041FFF7ADBE0A4E336864333360C0E700
:109A1000074E33680A333360BBE7054E33680133C2
:109A20003360B6E7784607F09FF8B2E7B533002019
:109A3000B0330020B8330020B433002038B5084CD0
:109A4000084D1822002120461AF0F2FB064807496B
:109A5000074AA560002303600B60137038BD00BF88
:109A60009833002071990200B0330020B8330020F1
:109A7000B433002038B50B4C237873B90A4D182243
:109A8000002128461AF0D4FB0849094A0948A86071
:109A900000230B601360237038BD034810F0C2FA36
:109AA000ECE700BFB433002098330020B03300202F
:109AB000B833002071990200F8B50D4617460446E8
:109AC00000283CD0234E11F0E7F9336843B19C42A3
:109AD00002D124E09C420DD01A46DB68002BF9D15C
:109AE00005F0030545EA8705A57067B9BDE8F840AC
:109AF00011F014BA05F00305E36845EA8705A5707F
:109B0000D360002FF2D02046FFF7EAFD33689C4275
:109B1000ECD1FFF725FEBDE8F84011F0FFB905F0E4
:109B20000305E368336045EA8705A570002FF0D090
:109B30002046FFF7D5FD33689C42D7D1E9E7784648
:109B4000044E07F011F811F0A7F93368002BC3D1C8
:109B5000C6E700BFB833002070B5884CB4F8603059
:109B60000546002B63D094F8393005F57A7623B199
:109B7000236B9B1B002BC0F2978094F85D30002B69
:109B800048D0636D9B1B002B5FDB94F83930002BB2
:109B900031D194F85D30002B32D1B4F860304FF6FB
:109BA000FF72A4F86220002B31D0784606F0DCFF6B
:109BB000B4F8623003EBC30304EB83031B6B5A1B43
:109BC00048BFEA1AE26070BD784606F0CDFF94F80F
:109BD0005C30013BDBB284F85C30002B00F0888005
:109BE000D4E915321344636594F83930002BD0D092
:109BF00094F85D3093B1236B626DD21A002A1ADAA1
:109C0000B4F860300122A4F86220002B5FD1002359
:109C1000E36070BD94F83930002BBAD0B4F86030EE
:109C20000022A4F86220002BF1D0236BC7E778460E
:109C300006F09AFF97E7B4F860200021A4F86210BC
:109C4000002ABCD10023E360E3E7B4F85030E26CB3
:109C50004B49012000F0EEFF1028B5D801A353F8BE
:109C600020F000BFCF9B0200C99B0200C99B0200ED
:109C7000C99B0200CF9B0200F19C0200C99B02001D
:109C8000F19C0200CF9B0200F19C0200C99B0200E4
:109C9000C99B0200C99B0200C99B0200C99B02002C
:109CA000CF9B0200F19C0200A38DA26A35490020DF
:109CB00000F0C0FF10280CD8DFE800F00E0B0B0BF3
:109CC0000E330B330E330B0B0B0B0B0E3300636D8C
:109CD00075E7784606F048FF94F83830013BDBB270
:109CE00084F83830EBB1D4E90C231344236344E700
:109CF00094F85D30002B3CD0B4F860309BB3013B4E
:109D000000229BB284F85D20A4F860301BB94FF6A6
:109D1000FF73A4F86230E06C17F01EF80023E364D0
:109D200062E794F83930D3B1B4F860308BB1013BBD
:109D300000229BB284F83920A4F860301BB94FF69A
:109D4000FF73A4F86230A06A17F006F80023A3623C
:109D500013E7784606F008FFB4F86030E7E7784686
:109D600006F002FFE0E7784606F0FEFEB4F8603049
:109D7000C5E7784606F0F8FEBEE700BFBC3300201A
:109D8000F8330020D433002010B5064C64220021A3
:109D900020461AF04DFA044AA2604FF6FF73A4F869
:109DA000623010BDBC330020599B02002DE9F04FFA
:109DB00083B00128BDF8309005460F4616469846F8
:109DC00077D8002F00F0AF80002E00F0B2803B78F3
:109DD0005B0774D0B8F1000F00F0A180B9F1000F5B
:109DE00000F094805C4C05EBC50304EB83034FEA61
:109DF000C50A93F83930002B68D110F0C1FA0AEB8C
:109E0000050C04EB8C0C0CF118030093B4F86030D3
:109E10004FF0010E03EB0E028346019296E80F000D
:109E2000009ECCF8288086E80F00ACF82C903B7898
:109E3000019AC3F302038CF838303B78A4F8602011
:109E40004CF2503ADB0803FB0AA30BEB03028CF83D
:109E500039E0CCE90C2394F83930DBB194F85D306B
:109E600023B1636D226B9B1A002B01DB4FF0000EB8
:109E7000B4F86220964573464CD0A4F862300EEBDD
:109E8000CE0E04EB8E043448216B03B0BDE8F04FD6
:109E900010F014B994F85D30002BE9D1B4F86230B9
:109EA0004FF6FF72934248D19D4248D003B0BDE8BF
:109EB000F08F784606F058FE002F85D133E07846C3
:109EC00006F052FEB8F1000F88D128E0B4F86030F7
:109ED000002B3AD00AEB0502013B04EB82029BB255
:109EE0000021A4F8603082F839101BB94FF6FF73D7
:109EF000A4F862300AEB050B04EB8B0BDBF82800AF
:109F000016F02AFF0023CBF8283076E7784606F0D3
:109F10002BFE67E79D42B2D003B0BDE8F08F7846D4
:109F200006F022FE5AE7784606F01EFE002E7FF469
:109F30004EAF784606F018FE49E7A4F8622078464E
:109F400006F012FEB4F862E099E7784606F00CFEDF
:109F5000B4F86030BEE700BFBC330020C0F30F434D
:109F6000A3F540539BB2012B82B016D80C4A10784F
:109F700010F0040002D0002002B07047094A0968BE
:109F800002EBC30CC943CCF8041012F8331021F0D3
:109F9000060102F8331002B07047052002B0704786
:109FA000F0340020F4340020000CB0F5804F82B073
:109FB00005D1044B0A781A70002002B070470520C2
:109FC00002B07047182E002010B5030C82B0012B90
:109FD00001900C4602D0784606F0C6FD024B236085
:109FE0000222A28002B010BD0200010010B5030CD5
:109FF00082B0012B01900C4602D0784606F0B4FDE9
:10A000006388012B0DD1A388022B0AD12388022B50
:10A0100007D1054A1378002043F00103137002B002
:10A0200010BD0B2002B010BDF034002030B5C0F3DD
:10A030000F44A4F5405483B0A4B2012C01900D4606
:10A0400002D9784606F090FD034B03EBC404636825
:10A05000DB432B6003B030BDF434002010B5030C9B
:10A0600082B0B3F5804F01900C4602D0784606F0DE
:10A070007BFD024B1B78237002B010BD182E002010
:10A0800030B5040C83B0B4F5805F01900D4602D06A
:10A09000784606F069FDA4F580540649A4B204EBA5
:10A0A0004404022201EB4401284603B0BDE83040DD
:10A0B0001AF0B0B86434002030B5C0F30F44A4F5F2
:10A0C000005483B0A4B2012C01900D4602D9784609
:10A0D00006F04AFD0549C4EBC404142201EBC40197
:10A0E000284603B0BDE830401AF094B87C34002014
:10A0F00030B5C0F30F43A3F5005383B09BB2012BDF
:10A10000019022D81848007810F004041AD117489A
:10A11000B1F80CE0C3EBC30300EBC305DB00B5F8FB
:10A120000CC0E6450BD1C35A0888984207D148882D
:10A130006B88984203D1CA89EB899A4208D00B20D8
:10A1400003B030BD002003B030BD052003B030BDEA
:10A15000142228461AF05EF895F8343023F00603EE
:10A16000204685F83430EEE7F03400207C340020BF
:10A170002DE9F04FD7B00446BDF880010590894F16
:10A1800009A80E461D46934602F0C2FFC4EBC40365
:10A1900007EBC303BDF82610B3F80C80414540F22D
:10A1A000DD80BDF824100691E200BBF1000F00F045
:10A1B000AB800BF10C0393E803009BF81C30BBF859
:10A1C0001EA0BBF824B00DF1280989E80300002B7C
:10A1D00040F0AA80002D00F0B280059A002A00F01D
:10A1E000B7800CAC24220021204607931AF020F8F7
:10A1F0005146584612AA05F079FA074618B1384672
:10A2000057B0BDE8F08F069B10959844079B8DF8DA
:10A210003A3099E80300059BADF84430B37AE37215
:10A22000F37A237384E80300F368ADF83880394685
:10A23000204623620FF0EAF907460028DFD15A4C86
:10A2400023689A04DBD5DFF88081D8F80030042B2E
:10A25000D5DD56482F211AF0EBF8002800F0908049
:10A260002F2152481AF0E4F8411C514B3288D3F8A0
:10A27000043501924F4A0092052040F2A91212F0D3
:10A2800059F823689B04BAD5D8F80030042BB6DD02
:10A29000059B802B1A4628BF80229446002B7CD039
:10A2A000454B15AC1E68681E2146034610F8012F69
:10A2B0004FEA121E023116F80EE001F802EC0233EA
:10A2C00002F00F025B1BB25C01F8012C9C45ECD83C
:10A2D0000023364804F81C302F211AF0A9F8002872
:10A2E00043D02F2131481AF0A3F8411C334A304B98
:10A2F000D3F80435CDE90124314A009205204FF40A
:10A30000D57212F017F87AE70DF12809D888B3F85A
:10A3100004A00792494603F087FD20BBB9F802303C
:10A32000E3B1079A4FF6FF7B121B07EBC2077B7C5A
:10A33000FF2B04BF234B1B78002D7FF44EAF0793F8
:10A34000784606F011FC059A079B002A7FF449AF76
:10A350000793784606F008FC079B42E7102738462B
:10A3600057B0BDE8F08F052749E710485C211AF087
:10A370005FF880B15C210D481AF05AF8411CB5E72E
:10A380000A485C211AF054F848B15C2107481AF0D9
:10A390004FF8411C69E70549A8E715AC98E7034960
:10A3A00063E700BF7C340020382E0020C44904003D
:10A3B00000100140184A04003C2E00202C4A0400E2
:10A3C000344A0400182E0020342E0020000CB0F572
:10A3D000805F82B012D10C4B187810F004000AD1C3
:10A3E0000A4B09881A8891420BD15A7922F0060249
:10A3F0005A7102B07047002002B07047052002B0C9
:10A4000070470B2002B07047F03400206434002005
:10A41000012870B5324D04460DD9C600784606F0C5
:10A42000A3FB00221146301B05EBC0001430BDE831
:10A430007040FFF741BBC0EBC00205EBC202C60093
:10A4400092F8341011F00101E8D09369002BE5D0A7
:10A45000937C928C03F0030002284FEA930330D0E0
:10A46000032816D141F2707003FB00F0B0FBF2F24A
:10A470003F2A1FD940F276239A4213D941F69C0312
:10A480009A4222D8174BA3FB0232C2F34712022191
:10A49000C9E701280CD103EB83004000B0FBF2F2C6
:10A4A0003F2A07D9104BA3FB0232C2F3C702BAE717
:10A4B000B3FBF2F283B1012A38BF0122D2B20021EC
:10A4C000B1E7642003FB00F0D0E7084BA3FB0232A6
:10A4D000C2F3C7120321A6E71A461946A3E700BF35
:10A4E0007C3400201F85EB51CDCCCCCCF119760506
:10A4F0002DE9F04FB04E327842F0040212F002051E
:10A5000085B0327040F09380D007AC4C13460FD525
:10A51000A3464FF6FF73BBF80C20DFF8A4929A42D3
:10A520004FF001083FD10BF1380B002D33D03378B9
:10A53000A34D2A7851077ED4970700F1A48022F01A
:10A5400006022A702A7A570700F18E80910700F1DF
:10A55000C38022F006022A729A4D6A7990076FD45E
:10A5600094F8341022F002026A718D074BD494F8EB
:10A570006C2021F00201970784F834102FD422F0C8
:10A58000020284F86C20DC0748BF002040F1DC8028
:10A5900005B0BDE8F08FBBF80C204FF6FF739A4270
:10A5A0004FF00105BFD0BBF80600984203D002F07F
:10A5B00009FF00283BD1BBF80E30022B08D0DB008E
:10A5C000043309EB030A59F80370002F40F09D8013
:10A5D000C5EBC50304EBC30300229A74A3E75D0730
:10A5E00077D5022242F20103ADF80820ADF80A3017
:10A5F0007549029815F092FA002840F0EB80337804
:10A6000094F86C20BBE758075AD502224FF4005348
:10A61000ADF80820ADF80A306849029815F07EFAC6
:10A62000002840F0DB80337894F834109FE70B204B
:10A6300005B0BDE8F08F590753D442F0040226E07C
:10A64000590735D561480290294615F067FA002868
:10A6500040F0C8806A7994F83410337822F002020E
:10A660006A718D0783D5CEE7580717D5022243F2CA
:10A670000103ADF80820ADF80A30029815F020FB70
:10A680002A7A337865E758076BD442F0020222F049
:10A6900006022A702A7A51077FF558AF42F0040269
:10A6A00022F006022A72474D6A7990077FF558AF6B
:10A6B00094F8341022F002028F076A717FF557AFC9
:10A6C00094F86C2021F0020184F8341091077FF592
:10A6D00056AF42F0020252E75F0756D442F0020240
:10A6E000DEE702224FF44053ADF80820ADF80A30FF
:10A6F000029815F0E5FA2A78337822F006022A70DB
:10A700002A7A57077FF522AFAEE797FAA7F7B7FA8D
:10A7100087F7182F3FF45CAF384603F00BFB013787
:10A7200008FA07F25242002881D1172F3FF650AFA6
:10A73000DAF8003013403FF44BAF93FAA3F7B7FABF
:10A7400087F7182FE8D143E72148022302A9CDE972
:10A750000100ADF80C3015F0E1F9002846D10520D4
:10A7600016E70222ADF808206B684FF44052ADF8AE
:10A770000A20DB430298019301A915F0CFF90028C4
:10A78000B9D0784606F0F0F9B5E70222ADF8082016
:10A79000EB6843F20102ADF80A20DB430298019313
:10A7A00001A915F0BBF910B92A7A3378D1E67846B9
:10A7B00006F0DAF9F8E700BFF03400207C3400201E
:10A7C000F434002064340020B4340020020000106F
:10A7D00002000100784606F0C7F910E7784606F057
:10A7E000C3F920E7784606F0BFF933E7784606F06C
:10A7F000BBF9B4E72DE9F04F00F1140491B0054620
:10A80000204605F0E5FF0023099300287CD04FF691
:10A81000FF73ADF83A302B7D012B074600F0A38083
:10A82000EA8A4FF6FB739A4200F2BD800DF13A01BD
:10A83000204603F033FB002840F08F80099B0A93E9
:10A84000002399460A9B644EDFF8A4A10B97A84603
:10A85000002B54D0B788099BFF1AB7FA87F77F09F6
:10A86000B8F81E4096F82C50B18CB8F800C0B8F873
:10A8700002E06309012256F8233004F01F0402FAB3
:10A8800004F405F001051C40002977D0306A00234C
:10A8900000F1020B02E0013399426FD030F833200F
:10A8A0006245F8D13BF833207245F4D1DDF82CB085
:10A8B0000D930122DAF800309B0403D5474B1B6847
:10A8C000062B24DC95B18FB184B1BBF1000F0DD004
:10A8D00098F81430012B1FFA89F066D00D9A336A6C
:10A8E00003EBC20341465B68B26A98473836B9F158
:10A8F000000F09D10A9B4FF00109002BAAD1F38860
:10A90000012B3ED90A9FABE711B0BDE8F08F344868
:10A910000C922F2119F08CFD0C9A00284CD02F217D
:10A920002F4819F085FD0C9A411C2E4BD3F80435A5
:10A93000069236F8062C029236F8082C01922A4A22
:10A940000092221E18BF01220592CDE903574FF451
:10A950008662072011F0EEFCB4E7784606F004F9B1
:10A96000099B0A936CE70FA802F0D2FBEB8ABDF8B3
:10A970003C200A979B1A9BB2099361E700229346F9
:10A9800098E7BDF83A20DB00510903EB8103174932
:10A990000B4402F01F025968012393400B4214BF7D
:10A9A000012700275CE70A904AE7B26A0C9041460B
:10A9B00001F018FC0C9891E709480C925C2119F001
:10A9C00037FD0C9A30B15C21054819F031FD0C9A25
:10A9D000411CAAE70249A8E784340020342E002055
:10A9E000C4490400001001403C4A0400F434002033
:10A9F000382E00202DE9F04301680B7803F0C002E7
:10AA0000802AD1B0044638D014D8180637D5774FED
:10AA10003B6813F4005640F0A280E06903F0E0FCCC
:10AA200005AD8146A06903F039FC2E60032622683B
:10AA3000314630E0C02AEAD16C4FB1F801809EB2B5
:10AA40003B68990404D56A4B1B68042B00F39C8077
:10AA5000E06903F0C5FC8146A06903F01FFC4FF6D6
:10AA6000FF73984505AD22682E80A5F8028010D1AD
:10AA7000FF2E71D9022631460DE00B885BBA9EB2DB
:10AA80007F2E66D0594F3B6899044FF6FF78DFD58B
:10AA9000D9E703263146A388A5F81E905B1A217AD0
:10AAA00029736189E981E1682961217C2975618ABD
:10AAB000E982164461693A68A96194F820102977FF
:10AAC0009BB2616AA88492046E602B8129623DD595
:10AAD000474A1268042A39DD802B9C4628BF4FF074
:10AAE000800C002B7DD0434B0FAC1F68701E21469D
:10AAF000034610F8012F4FEA121E023117F80EE03C
:10AB000001F802EC023302F00F029B1BBA5C01F861
:10AB1000012C9C45ECD80023374804F81C302F2129
:10AB200019F086FC002844D02F21334819F080FC0E
:10AB3000411C324A324BD3F80435CDE90124314A65
:10AB4000009205204FF48A7211F0F4FB2846FFF7BB
:10AB500051FE51B0BDE8F083012631469BE7244BFE
:10AB60001B68042B0DDCE06903F03AFC05AD81465F
:10AB7000A06903F093FB0326002322682B60314673
:10AB800089E74FF0000846461B482F2119F050FC7A
:10AB9000E0B12F21184819F04BFC411C184B1A4A00
:10ABA000D3F8043500920196FD22052011F0C2FB76
:10ABB0004EE711485C2119F03BFC28B15C210E489E
:10ABC00019F036FC411CB4E70B49B2E70A485C2196
:10ABD00019F02EFC38B15C21074819F029FC411C02
:10ABE000DCE70FAC97E70449D8E700BF382E002018
:10ABF000342E00203C2E0020C4490400A84A040042
:10AC000000100140344A0400944A0400037833B130
:10AC1000142B03D1C388022B04D070477047043033
:10AC2000FFF7E8BE024A137843F00203137070473F
:10AC3000F034002061B15AB153B1B1F808C0BCF58D
:10AC4000BE7F01D309207047012803D90520704732
:10AC50000E20704710B51F4CC0EBC00C04EBCC0CA1
:10AC600082B09CF83440E40729D5BCF80C4034BBD2
:10AC7000BCF804E04FF6FF74A6451DD0BCF806C032
:10AC8000A44519D0B1F802E0B1F800C0A6450ED134
:10AC90001CF47F4F16D00CF4404CBCF5004F0BD188
:10ACA000009313460022FFF763FA02B010BD2CF0A8
:10ACB0003F0CBCF1C00FF3D0072002B010BD05203F
:10ACC00002B010BD2CF07F04002CF5D1BCF17F0F39
:10ACD000E6D1F1E77C34002010B5164C01F0CEFA35
:10ACE000FEF7C8FE70220021204619F0A1FA0622C4
:10ACF0000021114819F09CFA102200210F4819F088
:10AD000097FA0F4A0F4BE360636413780E484FF0D5
:10AD1000FF316160E16323F00303042101701370CC
:10AD20000123A384A4F85C300220BDE8104015F094
:10AD300033B800BF7C34002064340020F434002099
:10AD4000F0340020FFFF0200182E002010B5174C31
:10AD500070220021204619F06BFA062200211448C7
:10AD600019F066FA10220021124819F061FA12480F
:10AD7000124B1349E3604FF0FF326364114B0360E1
:10AD800062600123E26304220A70A384A4F85C30A9
:10AD90000EF03EFC01F05EFAFEF750FEFEF7F4FF07
:10ADA000094A137823F00703137010BD7C34002088
:10ADB00064340020F434002070340020FFFF0200CF
:10ADC000182E00200DAC0200F0340020002800F006
:10ADD000B9802DE9F0470D4682B0002977D0C368CD
:10ADE000044613B18368002B71D04FF6FF732B809C
:10ADF000E36813B9A368002B40D1B4F80480B8F11C
:10AE0000000F37D105F076FD002840F09780A2882A
:10AE1000DFF848C202EB42030CEB43039978DB787E
:10AE2000D9422FD1D4E90267002F5AD0DFF830A2DF
:10AE3000002306F102094FF6FF7E0BE012F47F4F6C
:10AE400002EA0A0022F07F0145D0B0F5004F0DD193
:10AE50009F4246D939F8331036F83320714503F153
:10AE6000010322F03F00E9D0C028F1D0072002B052
:10AE7000BDE8F087052002B0BDE8F087092002B0E8
:10AE8000BDE8F087DFF8DC912088B9F80C306188E4
:10AE9000934200F0BF80B9F844309342C2D1B9F870
:10AEA0003A308B42BED1B9F83830834208BF012313
:10AEB000B8D1C3EBC30209EBC2022B8092F8342055
:10AEC000D1073BD4D4E90267002FAFD110E00E20A8
:10AED00002B0BDE8F0870029C8D17F2AC6D09F42C2
:10AEE000B8D82B88DFF87C914FF6FF7293422BD0B5
:10AEF000C3EBC30309EBC30322691A632B88A2685F
:10AF0000C3EBC30309EBC30300209A622B88E268FA
:10AF1000C3EBC30309EBC3039A852B886269C3EBB8
:10AF2000C30309EBC3039A612A88C2EBC20309EB8E
:10AF3000C309A9F8142002B0BDE8F0870F2002B0C1
:10AF4000BDE8F0870E20704799F8343013F0010304
:10AF500008D099F86C30DA0748BF04208BD44FF042
:10AF600001084346C3EBC30309EBC3034FF6FF726B
:10AF7000A5F80080DA802B88C3EBC30309EBC30379
:10AF80009A802B88A188C3EBC30309EBC303998183
:10AF90002B886188C3EBC30309EBC30359802B885B
:10AFA0002188C3EBC30329F833102B88C3EBC303F9
:10AFB00009EBC3035A742188A388914203EB43032E
:10AFC0000CEB430C20D09CF8033001338CF8033099
:10AFD0002B88C3EBC30309EBC30393F8342042F07F
:10AFE000010283F834201C4B29881B785B071DD491
:10AFF000C1EBC10109EBC10393F8342042F0020216
:10B0000083F834202B8873E79CF8023001338CF8E6
:10B010000230DDE7B9F802308B427FF43CAFB9F87B
:10B02000003083427FF437AF434642E70223ADF856
:10B03000043001F50053ADF80630C1EBC1010198B1
:10B0400009EBC10114F06AFD08B92B8850E7784676
:10B0500005F08AFDF9E700BFF034002064340020D9
:10B0600000C0FFFF7C3400202DE9F04782B089B199
:10B070000B89B3F5BE7F0C4607D2012805460ED9D1
:10B080000527384602B0BDE8F0870927384602B0E8
:10B09000BDE8F0870E27384602B0BDE8F087DFF83C
:10B0A000FC90C0EBC00209EBC2024FEAC00A92F862
:10B0B0003410C907E4D591890029E1D190884FF671
:10B0C000FF71884247D0D2888A4244D06088228863
:10B0D000884252D112F47F4F56D002F44042B2F56A
:10B0E000004F38D10227B84698441FFA88F84046E6
:10B0F00015F030FE064600283DD0638822884FF6C2
:10B10000FF718B4230D043701B0A0270837022891A
:10B110006168F01919F07EF8CDF8008033460022FE
:10B1200021462846FFF724F80746B0B9AAEB0501E7
:10B1300009EBC103C900DB7C5B070ED01331284645
:10B14000CDF80080494433462246FEF72FFE3846AC
:10B1500002B0BDE8F087072793E7304615F0FCFD05
:10B16000384602B0BDE8F08712F47F4F1CBF427032
:10B17000120A0270CBE7042783E722F03F02C02ABD
:10B18000E9D10327B846AFE722F07F010029E2D1D9
:10B190007F2AE0D00127B846A6E700BF7C34002014
:10B1A0002DE9F04383B091B1144682B11389B3F510
:10B1B000BE7F07D2012880460ED90524204603B061
:10B1C000BDE8F0830924204603B0BDE8F0830E24D7
:10B1D000204603B0BDE8F083304A0D46C0EBC00105
:10B1E00002EBC10292F83410C907E6D59289002A11
:10B1F000E3D1608822884FF6FF7188422CD022F07C
:10B200003F02C02A3DD14FF003094F461F44BFB251
:10B21000384615F09FFD064688B3638822884FF6AE
:10B22000FF718B4224D043701B0A02708370228905
:10B23000616806EB090018F0EDFF214633462A4607
:10B2400000974046FEF794FF0446304615F084FD13
:10B25000204603B0BDE8F08312F47F4F13D002F410
:10B260004042B2F5004F0CD14FF002094F46CDE7F6
:10B2700012F47F4F1CBF4270120A0270D7E70424F9
:10B280009CE707249AE722F07F010029F9D17F2A61
:10B29000F7D04FF001094F46B8E700BF7C340020DB
:10B2A000012801D9052070471A4AC0EBC00302EB00
:10B2B000C30292F834C01CF0010FF3D0172922D832
:10B2C000D3888B420BD0144BD1801B7813F004032E
:10B2D00007D14CF0020C82F834C0184670470020A9
:10B2E000704700B583B000F500500223ADF804307C
:10B2F000ADF806000198114614F010FC28B90020A2
:10B3000003B05DF804FB07207047784605F02CFC7D
:10B31000F5E700BF7C340020F034002081B1012823
:10B3200001D905207047074BC0EBC00003EBC000FC
:10B3300090F83430DB07F4D5C3880B8000207047C9
:10B340000E2070477C340020012839D830B5214ABE
:10B35000C0EBC00302EBC30383B093F834E01EF0EC
:10B36000010F4FEAC00C31D0DC7C01F0070304F080
:10B3700007059D4204D1C1F3C403B3EBD40F1CD025
:10B38000154BACEB000C1B7802EBCC0213F0040362
:10B39000D17406D14EF00201184682F8341003B081
:10B3A00030BD00F500500223ADF80430ADF80600C2
:10B3B0000198114614F0B2FB20B9002003B030BD53
:10B3C00005207047784605F0CFFBF6E7052003B06F
:10B3D00030BD00BF7C340020F034002081B1012852
:10B3E0000CD8084BC0EBC00003EBC00090F8343021
:10B3F000DB0703D5C37C0B70002070470520704726
:10B400000E2070477C340020012811D808B50C4A62
:10B41000C0EBC00302EBC30393F83420D2070DD571
:10B420009A693AB141B19984FEF7F2FF002008BD54
:10B4300005207047062008BD072008BD052008BD6F
:10B440007C340020012834D870B504462748C4EB6A
:10B45000C40300EBC30382B093F834C01CF0010FA7
:10B460004FEAC4053BD09E69A6B33F2A34D80329CE
:10B4700032D89B7CB2EB930F03D103F003038B42D2
:10B4800025D02D1B01F0030300EBC50543EA820222
:10B490002046AA74FEF7BCFF154B187810F0040084
:10B4A00009D195F8343043F0020385F8343002B006
:10B4B00070BD05207047022304F50054ADF8043038
:10B4C000ADF806400198294614F028FB50B9002039
:10B4D00002B070BD0620EAE7072002B070BD05206B
:10B4E00002B070BD784605F03FFBF0E77C340020E9
:10B4F000F0340020D9B1D2B1012801D9052070471C
:10B500000D4BC0EBC00003EBC00393F83400C00741
:10B51000F4D5986968B193F812C0CCF3010C81F8A6
:10B5200000C09B7CC3F385030020137070470E207E
:10B5300070470620704700BF7C340020F0B583B010
:10B54000044605F0D7F900283FD1012C02D9052087
:10B5500003B0F0BD364DC4EBC40305EBC303E600F6
:10B5600093F83420D207F2D5DB89022BF0D1314A8F
:10B57000137813F001012BD0137ADF0748BF0420A2
:10B58000E6D4012143F2010C08460F4623F00403E0
:10B5900043F0010302F83730331B05EBC303264F9A
:10B5A000D8813B78580718D412F8313043F00203A1
:10B5B00002F83130341B05EBC405002095F8343017
:10B5C00043F0020385F83430C2E70F2003B0F0BD2A
:10B5D0004FF4405C08460F46D8E702EBC102ADF8D5
:10B5E00006C05368DB4300930223ADF80430019892
:10B5F000694614F093FAB0B93B785B07DAD50222BA
:10B6000004F50053ADF80420ADF80630311B019865
:10B6100005EBC10114F082FA08B9002098E77846DA
:10B6200005F0A2FAF9E7784605F09EFAE4E700BFD4
:10B630007C340020F4340020F034002070B5012860
:10B6400082B003D90524204602B070BD214BC0EB67
:10B65000C00003EBC00090F83430DA07F2D5C0899F
:10B66000022822D017291CD8C3001B4E0433012204
:10B67000F55802FA01F115EA010403D0002420462E
:10B6800002B070BD0D43F550144B1B785B070ED410
:10B6900016F8303043F0020306F83030204602B08E
:10B6A00070BD0724204602B070BD0624CBE700F52C
:10B6B00040500223ADF80430ADF80600ED43019888
:10B6C0000095694614F02AFA0028BCD0784605F0A7
:10B6D0004BFAB8E77C340020F4340020F03400202A
:10B6E00030B585B00128019102D9052005B030BDE3
:10B6F000224AC0EBC00002EBC00090F83420D30710
:10B70000F3D5B0F80EC0BCF1020F20D017290B46BC
:10B710001AD84FEACC021A4D04320121AC5801FA72
:10B7200003F314EA0300E1D01649087824EA03037E
:10B7300010F00400AB500CD115F83C3043F002037C
:10B7400005F83C3005B030BD072005B030BD0620FF
:10B75000CCE70CF5405C0222ADF80C20ADF80EC031
:10B76000DB430398029302A914F0D8F908B900202A
:10B77000BCE7784605F0F8F9F9E700BF7C34002013
:10B78000F4340020F0340020F0B583B00192002999
:10B7900036D01446A2B3012802D9052003B0F0BD6B
:10B7A000194BC0EBC00003EBC00E9EF83430DB0732
:10B7B000F3D5BEF80E30022B24D00022134E27887A
:10B7C00022800125BEF80E30012B05FA02F006EBAF
:10B7D000C30C02D9002003B0F0BDDCF804301842DD
:10B7E00003D10132182AEDD1F4E723889F4205D90D
:10B7F00021F81320238801332380F2E70920CDE7C5
:10B800000E20CBE70620C9E77C340020F43400206A
:10B8100070B5012882B003D90524204602B070BD5E
:10B820001D4EC0EBC00306EBC30CDA009CF83430AD
:10B83000DC07F1D508292AD808320123B5588B40F6
:10B8400015EA030403D00024204602B070BD2B4348
:10B85000B350124B1B785B0708D49CF83430204659
:10B8600043F002038CF8343002B070BD00F5005094
:10B870000223ADF80430ADF806000198614614F0DB
:10B880004DF90028C9D0784605F06EF9C5E70724C0
:10B89000204602B070BD00BF7C340020F034002090
:10B8A000012802D905231846704730B5214DC0EB59
:10B8B000C00305EBC30E4FEAC30C9EF83430DB0720
:10B8C00083B003D40523184603B030BD082928D817
:10B8D0000CF1080C012255F80C408A4014EA0203CE
:10B8E000F1D0154B1B7824EA020213F0040345F84B
:10B8F0000C2008D19EF83420184642F002028EF83F
:10B90000342003B030BD00F500500223ADF8043000
:10B91000ADF806000198714614F000F928B900232B
:10B92000D1E70723184603B030BD784605F01CF96F
:10B93000F5E700BF7C340020F0340020002900F03F
:10B940009780002A00F09480012801D905207047D3
:10B9500030B54A4CC0EBC000C30004EBC00090F807
:10B960003400C00740F1868008334FF0000C108887
:10B97000A2F800C0E558ED0707D500287CD0A1F853
:10B9800000C04FF0010CA2F800C0E558AD070CD57F
:10B99000B2F800C060456FD94FF0010E21F81CE0ED
:10B9A000B2F800C0F444A2F800C0E5586D070DD508
:10B9B000B2F800C060455FD94FF0020E21F81CE0DC
:10B9C000B2F800C00CF1010CA2F800C0E5582D0738
:10B9D0000DD5B2F800C060454ED94FF0030E21F8E6
:10B9E0001CE0B2F800C00CF1010CA2F800C0E55850
:10B9F000ED060DD5B2F800C060453DD94FF0040EFC
:10BA000021F81CE0B2F800C00CF1010CA2F800C053
:10BA1000E558AD060DD5B2F800C060452CD94FF001
:10BA2000050E21F81CE0B2F800C00CF1010CA2F8E0
:10BA300000C0E5586D060DD5B2F800C060451BD9B1
:10BA40004FF0060E21F81CE0B2F800C00CF1010C1A
:10BA5000A2F800C0E3581B0608D5138898420BD9FA
:10BA6000072021F81300138801331380002030BD14
:10BA70000E207047052030BD092030BD7C340020E9
:10BA8000012801D9052070471A4AC0EBC00302EB18
:10BA9000C30292F834C01CF0010FF3D0082922D859
:10BAA00093888B420BD0144B91801B7813F00403C6
:10BAB00007D14CF0020C82F834C0184670470020C1
:10BAC000704700B583B000F500500223ADF8043094
:10BAD000ADF806000198114614F020F828B90020AE
:10BAE00003B05DF804FB07207047784605F03CF88A
:10BAF000F5E700BF7C340020F034002081B101283C
:10BB000001D905207047074BC0EBC00003EBC00014
:10BB100090F83430DB07F4D583880B800020704721
:10BB20000E2070477C34002000B585B003068DF8E8
:10BB3000070009D4012807D00DF10701044813F0CC
:10BB4000EDFF05B05DF804FB072005B05DF804FBD0
:10BB500002000040014B1878704700BF182E0020EB
:10BB600081B1012801D905207047074BC0EBC00007
:10BB700003EBC00090F83430DB07F4D5037C0B7086
:10BB8000002070470E2070477C340020012801D926
:10BB9000052070471B4AC0EBC00302EBC30292F8BA
:10BBA00034C01CF0010FF3D081F080037E2B22D92A
:10BBB000537C8B420BD0144B51741B7813F004034D
:10BBC00007D14CF0020C82F834C0184670470020B0
:10BBD000704700B583B000F500500223ADF8043083
:10BBE000ADF806000198114613F098FF28B900201F
:10BBF00003B05DF804FB07207047784604F0B4FFFB
:10BC0000F5E700BF7C340020F034002081B101282A
:10BC100001D905207047074BC0EBC00003EBC00003
:10BC200090F83430DB07F4D5437C0B70002070476C
:10BC30000E2070477C34002031B118B9034B1B88AB
:10BC40000B807047052070470E2070476434002039
:10BC500031B118B9034B9B780B70704705207047C2
:10BC60000E2070476434002031B118B9034BDB78E3
:10BC70000B707047052070470E2070476434002019
:10BC8000A1B1012801D905207047094BC0EBC000C4
:10BC900003EBC002C00092F834C01CF0010FF2D0D8
:10BCA00052884A801B5A0B80002070470E20704734
:10BCB0007C34002000B583B0019142B380B94FF6C7
:10BCC000FF71154B11809989BDF804C0BDF80600BD
:10BCD00019B9B3F802E0864510D0B3F8441019B191
:10BCE000052003B05DF804FB598F8142F8D11B8F0A
:10BCF0006345F5D1012111800020F2E7B3F800E09F
:10BD0000E645F8D0B3F844100029E9D1ECE70E205D
:10BD100003B05DF804FB00BF7C34002021B31AB3EC
:10BD200030BB30B41488108004B3124B93F834C085
:10BD30001CF0010F06D09D8925B90880012084429E
:10BD4000108013D093F86C40E40702D4002030BC7C
:10BD50007047B3F84430002BF8D1012321F810309C
:10BD6000138801331380F1E70E2070470920EEE7B6
:10BD7000052070477C34002081B1012801D90520BD
:10BD80007047074BC0EBC00003EBC00090F83430A5
:10BD9000DB07F4D5036B0B60002070470E20704763
:10BDA0007C340020012801D90520704730B50446B5
:10BDB0002048C4EBC40300EBC30583B095F83420DE
:10BDC000D2074FEAC30302D4052003B030BD0022DE
:10BDD000143318441146FDF76FFE204600F0A4FA14
:10BDE000E88801F08FFC144A107800234FF0FF32EE
:10BDF00010F004006A606B746B82AB7507D195F824
:10BE0000343043F0020385F8343003B030BD0223F0
:10BE100004F50054ADF80430ADF806400198294609
:10BE200013F07CFE10B9002003B030BD784604F05A
:10BE30009BFEF8E77C340020F0340020082813D85B
:10BE400038B50F4D95F83430DB07044602D5AB8882
:10BE5000834210D095F86C3013F0010302D0AB8F01
:10BE6000A34203D0002038BD072070470120FFF710
:10BE700099FF002038BD0020FFF794FFEAE700BFDC
:10BE80007C34002038B52F4C2C2303FB004305469F
:10BE900093F84030002B38D0B4F870307BB32C22AC
:10BEA00002FB0542013B00209BB282F84000A4F84F
:10BEB0007030FBB1B4F87230AB4200D038BD916B3A
:10BEC000214B94F840200B441ABB94F86C207ABBA9
:10BED0004FF6FF73A4F87230784604F045FEB4F8CC
:10BEE00072302C2202FB0344A16B1648BDE8384097
:10BEF0000EF0E4B8BDE8384012480EF093B878462A
:10BF000004F032FEB4F87030C9E7784604F02CFE35
:10BF1000C2E7A16BCA1A002AD7DA94F86C306BB169
:10BF2000636E5B1A002BA8BFA4F87200DDDA03E091
:10BF3000626ED31A002BCBDA616E0123A4F8723043
:10BF4000D3E700BF08350020008793032DE9F041B7
:10BF50009B4CB4F8703084B00546002B54D04FF69B
:10BF6000FF73984FA4F8723094F8403001223A7071
:10BF700005F57A765BB1236B9B1B002B48DBA36B2B
:10BF80009B1B002B4FF00003A4F872306CDB94F87D
:10BF90006C30ABB1E36D9B1B002B4EDB636E9E1BC5
:10BFA000002EC0F2A080B4F872204FF6FF718A42D2
:10BFB00026D02C2101FB0242926B9B1A002B1FDB27
:10BFC000B4F8703083B1B4F87230012B12D82C223F
:10BFD00002FB03439B6B5A1B48BFEA1A0023E26033
:10BFE0003B7004B0BDE8F081E36000233B7004B017
:10BFF000BDE8F081784604F0B7FDB4F87230E6E7AA
:10C000000123A4F87230DBE7784604F0ADFDA6E723
:10C01000002384F84030B4F87030208B013B03A932
:10C02000A4F87030FFF7A8FE002840F09B80636BF7
:10C030000399208B01229847A9E7B4F87030B4F82F
:10C040004400013B002203A984F86C20A4F870305E
:10C05000FFF792FE002840F08980236E0399B4F820
:10C06000440001229847ABE75749208BFEF7FCFFBD
:10C07000804650B3554B1B689A0419D5544B1B6826
:10C08000042B15DD53482F2118F0D2F9002871D068
:10C090002F21504818F0CCF9411C4F4B4F4AD3F890
:10C0A00004350092CDF804808322052010F042F977
:10C0B000B8F1080F09D0B8F1040F7BD0B8F10F0F19
:10C0C00078D0784604F050FD05E0D4E90E231A44F8
:10C0D0005B00A263E363226BA36BD31A002BBFF652
:10C0E00056AFA26353E701233D49B4F84400A4F8D6
:10C0F0007230FEF7B9FF064630B3344B1B689B0421
:10C1000018D5334B1B68042B14DD32482F2118F04F
:10C110008FF9002839D02F212E4818F089F9411CB9
:10C120002D4B2E4AD3F80435009201968322052028
:10C1300010F000F9082E07D0042E31D00F2E2FD08A
:10C14000784604F011FD05E0D4E919231A445B0098
:10C15000C4E91923E26D636ED31A002BBFF630AF2A
:10C1600062662DE7784604F0FFFC60E7784604F04D
:10C17000FBFC72E717485C2118F05AF9F0B15C211A
:10C18000144818F055F9411C87E712485C2118F053
:10C190004FF988B15C210F4818F04AF9411CBFE7FC
:10C1A00001232C2202FB03439A6B02F51C4240320E
:10C1B0009A6305E70023F4E70649B1E705496CE710
:10C1C000083500200635002024350020382E0020B8
:10C1D000342E0020C44A040000100140244B040007
:10C1E000503500200128F8B505460F46164602D9FD
:10C1F000784604F0B9FC0EF04FFE154B93F8400062
:10C2000010B11A8BAA420AD093F86C201AB1B3F875
:10C210004420AA4218D0BDE8F8400EF07FBE0020AE
:10C2200002462C2404FB02343B88A28D9A42F2D1B0
:10C230007B88E28D9A42EED1FFF724FE636B0022E9
:10C24000314628469847E6E701200246E9E700BF65
:10C250000835002010B5064C74220021204617F046
:10C26000E7FF044B0449A16000221A7010BD00BF13
:10C2700008350020063500204DBF020070B5274C60
:10C2800082B00EF009FEB4F8703053B994F8403023
:10C290008BB994F86C3013BB02B0BDE870400EF05F
:10C2A0003DBE00232046A4F870300DF0BBFE94F88C
:10C2B0004030002BEDD0258B1948666B00212C22D5
:10C2C00017F0B6FF01A92846FFF756FD08BB0199F4
:10C2D00002222846B04794F86C30002BDCD0B4F82A
:10C2E00044501048246E00212C2217F0A1FF01A910
:10C2F0002846FFF741FD40B9019902222846A04790
:10C3000002B0BDE870400EF009BE784604F02CFC87
:10C31000F2E7784604F028FCD9E700BF0835002092
:10C32000203500204C35002070B5012882B003D99B
:10C330000524204602B070BD184D04460EF0ACFD39
:10C3400095F8403013B12B8BA3420FD095F86C3089
:10C350002BB905240EF0E2FD204602B070BDB5F801
:10C360004430A342F5D10120064601E000200646F4
:10C37000FFF788FD01A92046FFF7FEFC48B92C23F2
:10C3800003FB0655204601996B6B02229847002457
:10C39000E0E7784604F0E8FBF1E700BF083500204D
:10C3A000C0F30F43A3F580539BB20F2B18D830B4C2
:10C3B0000C4D01222C689A4014EA020082B00BD185
:10C3C00022430C882A60084A02EB830122F82340AA
:10C3D000488002B030BC7047002002B030BC7047CB
:10C3E000052070477C3500208835002010B5030CEF
:10C3F00082B0012B01900C4602D0784604F0B4FBC9
:10C40000034A044B226008212181636002B010BD01
:10C41000040008000100100010B5030C82B0012BCD
:10C4200001900C4602D0784604F09EFB2388042B32
:10C4300013D1A388012B10D16388082B0DD1238938
:10C44000082B0AD1E388102B07D1054A1378002066
:10C4500043F00103137002B010BD0B2002B010BDF9
:10C46000CC37002030B5C0F30F44A4F5805483B01E
:10C47000A4B20F2C01900D460FD80C4B620904F0AA
:10C480001F0153F8222001238B40134209D0084B8F
:10C4900033F824302B8003B030BD784604F064FBC1
:10C4A000EBE7784604F060FBF1E700BF7C35002045
:10C4B0008835002010B5030C82B0022B01900C4689
:10C4C00002D0784604F050FB074B1B68DB0707D50A
:10C4D00006490422204602B0BDE8104017F09ABE7B
:10C4E000784604F041FBF3E780350020BC3700209C
:10C4F00030B5C0F30F44A4F5005483B0A4B2072CA8
:10C5000001900D4616D80F4B620904F01F0153F835
:10C51000222001238B40134210D00B4B04EB8404E8
:10C5200003EB84041022211D284603B0BDE83040EF
:10C5300017F070BE784604F017FBE4E7784604F085
:10C5400013FBEAE784350020843A002070B5040C20
:10C5500082B0B4F5A04F01900D4602D0784604F0A9
:10C5600003FBA4F5A044104BC4F34A1204F01F01CE
:10C5700053F8222001238B401342A4B210D016237B
:10C580000A4E03FB04F4A11D10223144281D17F0AC
:10C5900041FE335B2B80344463886B8002B070BDF6
:10C5A000784604F0E1FAEAE71C3700202037002043
:10C5B000F0B5C0F30F44A4F5405483B0A4B2032CEB
:10C5C00001900E4623D824220021304617F030FE79
:10C5D000184B620904F01F0153F8222001238B40FD
:10C5E000134222D0AC21144D01FB04F42F192B5B14
:10C5F000338097F86430B370A11C29441022F01CDA
:10C6000017F008FE97F864302BB903B0F0BD7846F8
:10C6100004F0AAFAD7E712341022291906F1130000
:10C6200003B0BDE8F04017F0F5BD784604F09CFA81
:10C63000D8E700BFD0370020D437002070B5C0F352
:10C640000F44A4F5804482B0A4B2072C01900E469A
:10C6500022D826220021304617F0EAFD174B620946
:10C6600004F01F0153F8222001238B40134221D0F4
:10C670002A21134D01FB04F4A11D10222944701D31
:10C6800017F0C8FD2A5B32802B195A8872809B7D77
:10C6900033712BB902B070BD784604F065FAD8E763
:10C6A00019341022291906F1150002B0BDE87040B6
:10C6B00017F0B0BD784604F057FAD9E7C835002026
:10C6C000CC3500202DE9F041274EAC2402FB04F4C8
:10C6D000154604F16803321933440F4693678046C8
:10C6E00010B9224B01221A7004F12201314438465C
:10C6F0000FF036FD48BB04F17C01314438460FF0A1
:10C7000041FD68BBA01C394610223044123417F09A
:10C7100081FD10220021301917F08AFDAC2305FBA2
:10C7200003F3F2186809124926F80380002382F8FF
:10C73000643005F01F0551F82030012202FA05F59A
:10C740002B4341F82030BDE8F081784604F00CFA24
:10C7500004F17C01314438460FF014FD0028D1D09B
:10C76000784604F001FACDE7D4370020B83700202E
:10C77000D037002030B5C0F30F4404F5405483B0E7
:10C78000A4B20D460346224631F8030B0193FFF78E
:10C7900099FF0749074BAC2202FB04340B78AA78B7
:10C7A00084F8642043F0040300200B7003B030BD14
:10C7B000CC370020D437002070B5030C82B0022B98
:10C7C00001900D4602D0784604F0CEF90E4E306846
:10C7D00010F0010403D00024204602B070BD288868
:10C7E0000CF064FD01280BD104222946074817F0FC
:10C7F00011FD3368204643F00103336002B070BD81
:10C800000B24204602B070BD80350020BC370020CC
:10C81000F0B5C0F30F44A4F5405483B0A4B2032C88
:10C8200001902CD8184B01251B68A5401D4003D052
:10C830000025284603B0F0BD0E46224631F8030B12
:10C84000124FFFF73FFFAC2101FB04F4B3783A1914
:10C8500082F86430002BEBD0133604F1120031461D
:10C8600038441022433417F0D5FC391930460FF004
:10C8700077FC0028DCD0784604F076F9D9E7052566
:10C88000284603B0F0BD00BFD0370020D4370020C9
:10C890002DE9F041030C82B0B3F5A04F01901FD1F8
:10C8A000124D2C6814F0010404D00024204602B07C
:10C8B000BDE8F0810E4E0F88B1F8028010220431DD
:10C8C000B01D17F0A7FC2B68A6F8028043F0010307
:10C8D0002B60204601233780B38002B0BDE8F08191
:10C8E0000524204602B0BDE8F08100BF1C370020BF
:10C8F000203700202DE9F043020CA2F5005383B04D
:10C900009BB2072B01902ED81B4F012404FA03F38E
:10C910003C681C4004D00024204603B0BDE8F083EE
:10C92000A2F5FF52103A92B2A2F1100505EB85086C
:10C93000DFF848904FEA880808F104000E464844A2
:10C94000102217F067FC09EB080130460FF046FC97
:10C9500070B93B68012202FA05F52B4320463B6083
:10C9600003B0BDE8F0830524204603B0BDE8F083A2
:10C97000784604F0F9F8ECE784350020843A00208A
:10C980002DE9F04F030C03F5005483B0A4B2072C3B
:10C9900001900E4643D903F580539CB2072C5FD813
:10C9A0004FF00108304A314F13782A2504FB05F572
:10C9B00043F00403137006F10409A81D7388009363
:10C9C000102249463844B6F800B017F023FC05F1B0
:10C9D000190307EB030A00211022504617F028FC28
:10C9E000691D394448460FF0AFFB88BB2048009BC7
:10C9F00002680121A1402A250A4304FB05F50260D3
:10CA00007A19002127F805B0538082F81680117139
:10CA1000B8F1000F06D1404603B0BDE8F08F4FF0EB
:10CA20000008BFE7143631465046102217F0F2FBDB
:10CA300005F11801394430460FF086FB60B92A230E
:10CA400003FB047400202379E37503B0BDE8F08F85
:10CA5000784604F089F8C9E7784604F085F8EEE7EF
:10CA6000052003B0BDE8F08FCC370020CC35002086
:10CA7000C83500202DE9F04FC0F30F44A4F58044E1
:10CA800085B0A4B2072C03905CD8DFF8D4A00127AE
:10CA9000DAF80050A7403D4004D00025284605B0F4
:10CAA000BDE8F08F0E464FF02A09DFF8B8803388D2
:10CAB000009309FB04F901F1050B09F106007388E5
:10CAC000019310225946404417F0A4FB09F11903C1
:10CAD0004344184610222946029317F0A9FB09F196
