:020000022000DC
:1070000000FD0320753B04009D3B04009F3B0400F2
:10701000A13B0400A33B0400A53B040000000000CA
:10702000000000000000000000000000A73B04007A
:10703000A93B040000000000AB3B0400AD3B040092
:10704000AF3B0400AF3B0400AF3B040011980200CB
:1070500009990200AF3B04001D8F0200AF3B040002
:10706000AF3B0400AF3B0400851F0400AF3B0400AE
:10707000AF3B0400AF3B0400AF3B0400AF3B040058
:10708000AF3B0400AD320400ADB90300AF3B0400D8
:1070900095330400AF3B04008D9E0200AF3B04001B
:1070A000AF3B0400AF3B0400AF3B0400AF3B040028
:1070B000AF3B0400AF3B04000000000000000000F4
:1070C000AF3B0400AF3B0400AF3B04000D9A02004D
:1070D000AF3B0400AF3B0400AF3B0400AF3B0400F8
:1070E000AF3B0400AF3B0400AF3B040000000000D6
:1070F00000000000AF3B040000000000AF3B0400B4
:10710000000000000000000000000000000000007F
:10711000000000000000000000000000000000006F
:10712000000000000000000000000000000000005F
:10713000000000000000000000000000000000004F
:10714000000000000000000000000000000000003F
:10715000000000000000000000000000000000002F
:10716000000000000000000000000000000000001F
:10717000000000000000000000000000000000000F
:1071800000000000000000000000000000000000FF
:1071900000000000000000000000000000000000EF
:1071A00000000000000000000000000000000000DF
:1071B00000000000000000000000000000000000CF
:1071C00000000000000000000000000000000000BF
:1071D00000000000000000000000000000000000AF
:1071E000000000000000000000000000000000009F
:1071F000000000000000000000000000000000008F
:1072000010B5054C237833B9044B13B10448AFF3E0
:1072100000800123237010BDC82E00200000000054
:107220007064040008B5034B1BB103490348AFF376
:10723000008008BD00000000CC2E00207064040017
:10724000A3F5803A704700BF174B002B08BF134BC4
:107250009D46FFF7F5FF00218B460F461348144A61
:10726000121A1DF0FDFA0E4B002B00D098470D4B63
:10727000002B00D098470020002104000D000D488D
:10728000002802D00C48AFF300801DF097FA2000D0
:10729000290000F0EDFC1DF07DFA00BF00000800A1
:1072A000000000000000000000FD0320C82E0020A8
:1072B00004580020000000000000000041DF70477B
:1072C0002DE9F04FDFF8E082D8F80030590483B0A0
:1072D000054604D5AD4B1B68032B00F391806B680A
:1072E0005A78172A02D16A781F2A02D003B0BDE863
:1072F000F08FDB78DFF8B4B203F0F702042A00F075
:107300009880082B00F095800C201DF07BFA00235C
:1073100007468BF80030002FE8D09BF8003003F0D0
:10732000FF01002B00F006812722002138461DF0C6
:1073300097FA41233B7042237B704323BB7045F691
:107340005813BB845A2387F82630D8F800206B687E
:1073500052041978F97040F1D7808C4C2268032AC6
:1073600000F38A815A783A712268032A00F3C681B1
:107370009A787A712268032A00F33C81DA78BA712C
:107380002268032A00F3DA811A791209FA71226855
:10739000032A00F34F811A7962F00F023A722268D1
:1073A000032A00F389815A7942F007027A7222682F
:1073B000032A00F3FD805B7963F00703BB72236847
:1073C000032B00F3CB809BF80030002B4CD0DFF870
:1073D000BC91DFF8BCA107F10A0607246968D8F858
:1073E0000030081910F8012C06F8012F5A0428D58E
:1073F000D9F80030032B60DC1F2C35D00134EDE7C9
:1074000063482F211DF02CFB002800F09A802F21CB
:107410005F481DF025FB411C6A685E4B5278D3F82B
:10742000043501925C4A00920420BC2215F03EFB18
:1074300055E727201DF0E6F9012307468BF80030B9
:1074400069E71F2CE2B20FD0531DDBB2013C013BB8
:10745000C2F11E0250FA82F20C443B4414F8011FA0
:1074600003F8011F9442F9D19BF80030002B46D05D
:107470002721384601F08EFAD8F800305B047FF5FA
:1074800035AF424B1B68032B7FF730AF40482F21AD
:107490001DF0E6FA002800F07E812F213C481DF007
:1074A000DFFA411C3B4B3D48D3F80435009040F2D5
:1074B0000B12042015F0FAFA18E750462F211DF0A0
:1074C000CFFA88B12F2150461DF0CAFA411C314B2A
:1074D0003278D3F804350192314A009204204FF4F7
:1074E000807215F0E3FA87E75C2150461DF0B8FA88
:1074F00028B35C2150461DF0B3FA411CE7E70C218C
:10750000384601F047FAB7E75A783A719A787A71B3
:10751000DA78BA711A791209FA711A7962F00F02DF
:107520003A725A7942F007027A725B7963F0070384
:10753000BB7248E70C2238461DF092F9F9E6514635
:10754000C5E713485C211DF08BFA002800F0158177
:107550005C210F481DF084FA411C5DE70C482F2187
:107560001DF07EFA002800F022812F2108481DF02E
:1075700077FA411C074BBA7AD3F804350192094ACD
:1075800000920420F82215F091FA1CE7382E002012
:10759000F84A040000100140504B0400444C040021
:1075A000304C0400184C04003C2E0020E52E002036
:1075B000AE482F211DF054FA002800F004812F213D
:1075C000AA481DF04DFA411CA94B7A7AD3F804352C
:1075D0000192A84A00920420F62215F067FA6B681F
:1075E0005B7963F00703BB72D8F8003059047FF56C
:1075F000EAAEE4E69D482F211DF032FA002800F0A3
:10760000EE802F2199481DF02BFA411C984B7A7976
:10761000D3F804350192984A00920420EE2215F026
:1076200045FA6B68D8F80020D978B97151047FF514
:1076300071AFA5E68D482F211DF012FA002800F049
:10764000DA802F2189481DF00BFA411C884BFA790A
:10765000D3F804350192894A00920420F22215F0F1
:1076600025FA6B68D8F800101A794E0462F00F0200
:107670003A727FF556AF92E67C482F211DF0F0F963
:10768000002800F0C3802F2178481DF0E9F9411C43
:10769000774BFA78D3F804350192794A00920420A6
:1076A000EA2215F003FA6B68D8F80020597839718E
:1076B00056047FF52BAF57E66C482F211DF0D0F90B
:1076C000002800F0AE802F2168481DF0C9F9411C48
:1076D000674B3A7AD3F8043501926A4A0092042043
:1076E000F42215F0E3F96B68D8F800105A794804D1
:1076F00042F007027A727FF518AF58E65B482F21F7
:107700001DF0AEF9002800F097802F2157481DF09A
:10771000A7F9411C564B3A79D3F8043501925A4ADD
:1077200000920420EC2215F0C1F96B68D8F8002013
:107730009978797150047FF5EBAE1BE64B482F2109
:107740001DF08EF9D8B12F2148481DF089F9411C50
:10775000474BBA79D3F8043501924C4A0092042081
:10776000F02215F0A3F96B68D8F800101A79120905
:10777000FA714A047FF5D1AE09E63C494CE63B4834
:107780005C211DF06DF9002861D05C2137481DF0A7
:1077900067F9411CDCE735485C211DF061F90028E0
:1077A00057D05C2131481DF05BF9411C7AE62F4827
:1077B0005C211DF055F9002853D05C212B481DF0A9
:1077C0004FF9411CD6E629485C211DF049F90028F3
:1077D00043D05C2125481DF043F9411CF4E62348C1
:1077E0005C211DF03DF9002852D05C211F481DF09E
:1077F00037F9411C0AE71D485C211DF031F950B3EF
:107800005C211A481DF02CF9411C1FE717485C2128
:107810001DF026F938B35C2114481DF021F9411CF4
:1078200036E712485C211DF01BF9C0B15C210F48FE
:107830001DF016F9411C4BE70C485C211DF010F9B6
:1078400040B35C2109481DF00BF9411C62E7074970
:107850007EE7064926E60549F8E60449B4E6034909
:1078600036E7024986E6014912E700BFF84A0400FC
:1078700000100140004C0400A04B0400D04B040059
:10788000704B0400E84B0400884B0400B84B040024
:107890000149BBE600493DE7F84A04000378232B81
:1078A00000D0704700B51A4B1B685B0483B003D54A
:1078B000184B1B68032B09DC0322C8210F2001F0A1
:1078C00069F903B05DF804EB01F0F6B812482F2116
:1078D0001DF0C6F878B12F210F481DF0C1F8411CEA
:1078E0000E4B0F48D3F80435009040F215120420D7
:1078F00015F0DCF8E0E708485C211DF0B1F828B18C
:107900005C2105481DF0ACF8411CE9E70249E7E7B6
:107910003C2E0020382E0020F84A040000100140C0
:10792000684C040070B5334B1B685B0482B003D510
:10793000314B1B68032B32DC3048314E1AF060F8B3
:10794000002019F0D9FF00F0BBFF012305461F21DD
:107950002A4833701AF090F8044690B129461F2245
:1079600011301CF06FFFFF232448237121461AF0C9
:10797000C3F800232846337002B0BDE870401CF005
:1079800049BF3378FBB91F4B1B780BBB1E4B1B78D1
:10799000002BEED019F094FF00F03EF8E9E71B4809
:1079A0002F211DF05DF8C0B12F2118481DF058F8A7
:1079B000411C174B1748D3F804350090AB22042024
:1079C00015F074F8B8E719F07BFFFFF7ABFFD0E7CD
:1079D00019F076FF00F09AF8CBE70C485C211DF017
:1079E0003FF828B15C2109481DF03AF8411CE0E756
:1079F0000649DEE73C2E0020382E00202C2F0020E8
:107A0000E62E0020E72E0020E82E0020F84A040091
:107A100000100140844C040070B5334B1B685B04BC
:107A200082B003D5314B1B68032B32DC3048314E1A
:107A300019F0E6FF002019F05FFF00F041FF01237D
:107A400005461F212A4833701AF016F8044690B1F3
:107A500029461F2211301CF0F5FEFF232448237114
:107A600021461AF049F800232846337002B0BDE8D9
:107A700070401CF0CFBE204B1B78F3B91F4B1B7816
:107A800003BB3378002BEED019F01AFFFFF7C4FFC9
:107A9000E9E71B482F211CF0E3FFC0B12F21184854
:107AA0001CF0DEFF411C174B1748D3F8043500903B
:107AB0009B22042014F0FAFFB8E719F001FFFFF74A
:107AC00031FFD0E719F0FCFE00F020F8CBE70C48BE
:107AD0005C211CF0C5FF28B15C2109481CF0C0FFE7
:107AE000411CE0E70649DEE73C2E0020382E00204E
:107AF0002C2F0020E82E0020E62E0020E72E00206C
:107B0000F84A0400001001409C4C040070B54D4C34
:107B100023685A0482B003D54B4B1B68032B58DCF7
:107B20004A4819F06DFF002019F0E6FE23685B0457
:107B300003D5454B1B68032B37DC00F0C1FE444DD9
:107B4000064645F0010514244FF47A40A847013C4D
:107B5000FAD1404D3D4801231F212B7019F08CFFB5
:107B6000044690B131461F2211301CF06BFEFF23FA
:107B700036482371214619F0BFFF002330462B7091
:107B800002B0BDE870401CF045BE334B1B78002BA3
:107B900033D12B78002B35D1304B1B78002BECD018
:107BA00019F08EFEFFF738FFE7E72D482F211CF074
:107BB00057FF60B32F212A481CF052FF411C294B6C
:107BC0002948D3F8043500908B22042014F06EFF6E
:107BD000B3E723482F211CF043FF18B32F2120487F
:107BE0001CF03EFF411C1F4B2048D3F80435009089
:107BF0008822042014F05AFF92E719F061FEFFF783
:107C000091FEBAE719F05CFEFFF780FFB5E7144874
:107C10005C211CF025FF80B15C2111481CF020FF85
:107C2000411CCCE70E485C211CF01AFF38B15C21E6
:107C30000B481CF015FF411CD5E70949BFE708496F
:107C4000D1E700BF3C2E0020382E00202C2F002032
:107C5000204E0400E72E0020E62E0020E82E002013
:107C6000F84A040000100140FC4C0400C04C040021
:107C700000B58DB01BF028FD002840F087808C4CAB
:107C80008C4D00F0F3FF8C4A04214FF4804014F037
:107C9000FDFE23685B0403D52B68032B00F3AA8049
:107CA00001F03CFF2422002103A81CF0D9FD06218D
:107CB000824A834B8DF8141003A800210392079386
:107CC00000F092FE00283CD00B2840F0A9802368E9
:107CD000580436D52B68032B33DD7A482F211CF04E
:107CE000BFFE002800F0A28076482F211CF0B8FECD
:107CF0000130754B754AD3F80435009201464FF4B4
:107D00009872042014F0D2FE2368590419D52B6808
:107D1000032B16DD6B482F211CF0A2FE002800F07B
:107D2000B28068482F211CF09BFE0130664B684AE8
:107D3000D3F804350092014640F23112042014F0C9
:107D4000B5FE644812F05EF8634A6448402300219F
:107D500019F0DEFD23685A0402D52B68032B1BDCC7
:107D600000F0B6FC00F098FE50B923685B0402D521
:107D70002B68032B27DCFFF7A1FAFFF79FFAFAE73E
:107D8000504A4FF4AC711BF023FFEEE74D4A4FF41D
:107D9000A3711BF01DFF72E74A482F211CF060FE03
:107DA00000285AD047482F211CF05AFE0130464B7C
:107DB0004B4AD3F80435009201464FF4A8720420D0
:107DC00014F074FECCE73F482F211CF049FE002838
:107DD0004ED03C482F211CF043FE01303A4B414924
:107DE000D3F80435009140F259120146042014F0F2
:107DF0005DFEC0E733482F211CF032FE10B331483E
:107E00002F211CF02DFE01302F4B374AD3F80435BB
:107E1000009201464FF4A572042014F047FE3FE79C
:107E2000284A4FF49B711BF0D3FE8AE725485C215A
:107E30001CF016FE002837D022485C211CF010FEF2
:107E4000013056E71F485C211CF00AFE40B31D4874
:107E50005C211CF005FE0130D6E71A485C211CF0BD
:107E6000FFFDD8B117485C211CF0FAFD01309EE7F8
:107E700014485C211CF0F4FDA0B112485C211CF0F8
:107E8000EFFD0130AAE70F485C211CF0E9FD68B165
:107E90000C485C211CF0E4FD013047E7094886E707
:107EA0000848B1E7074899E7064822E705483DE753
:107EB0003C2E0020382E00205DCA03000100000780
:107EC0009D780200F84A040000100140484D04006B
:107ED000984D0400C1720200EC2E00202C2F0020CF
:107EE000D44D0400F04D04001C4D040041DF7047E8
:107EF00030B54378412B85B000F1010540F08E800C
:107F00008378422B044600F1020240F09380C3784C
:107F1000432B40F09280C379042B12D0082B10D051
:107F20000C2B41D0037B582B40F0A880437B592B6E
:107F300040F0C980837B5A2B40F0C880012005B0F7
:107F400030BD94F82530582B40F0938094F82630BB
:107F5000592B40F0908094F827305A2BEED01446DD
:107F60000225784B186810F48040E8D0764B1B68E7
:107F7000032B5DDD75482F211CF072FD002800F0F9
:107F8000B8802F2171481CF06BFD411C2078704B8C
:107F9000704AD3F804350092CDE90150292204201B
:107FA00014F084FD0020CAE7C37A03F10C01C9B2C2
:107FB000415C582940F0908003F10D01C9B2415C49
:107FC000592940F086800E33DBB2C35C5A2BB5D002
:107FD000144602255B4B186810F48040AFD05A4B12
:107FE0001B68032B24DD59482F211CF039FD002884
:107FF00000F0998055482F211CF032FD0130217886
:10800000534B544AD3F804350092CDE9015136223E
:108010000146042014F04AFD002090E70124494B5A
:10802000186810F480408AD0474B1B68032B07DC8C
:10803000002084E715460224F1E7C51C0324EEE77F
:1080400042482F211CF00CFD002847D02F213F482B
:108050001CF006FD411C28783D4B3F4AD3F80435FF
:108060000092CDE901401D22042014F01FFD0020E4
:1080700065E7002575E72C46012572E70025314BA1
:10808000186810F480403FF45AAF2F4B1B68032B45
:10809000CEDD2E482F211CF0E3FC002838D02B48E1
:1080A0002F211CF0DDFC01302178294B294AD3F81F
:1080B00004350092CDE9015140220146042014F01C
:1080C000F5FC00203BE72C460125D8E714460225A5
:1080D000D5E72C4601257DE700257BE71B485C2181
:1080E0001CF0BEFC80B15C2118481CF0B9FC411C9E
:1080F000B1E716485C211CF0B3FC38B15C21134891
:108100001CF0AEFC411C41E71049A4E70F493DE7D4
:108110000E485C211CF0A4FC80B10C485C211CF0D2
:108120009FFC0130C0E709485C211CF099FC38B184
:1081300006485C211CF094FC013060E70348B3E77B
:1081400002485CE73C2E0020382E0020284E040018
:1081500000100140A44E0400804E04002DE9F04FB1
:10816000DFF814B39BF8003085B0002B58D0B64E22
:10817000B64FB74DDFF804A3336801225C048BF8D7
:10818000002002D53B68032B50DCB24B1B7893B127
:1081900003201CF037FB0446002841D000210322B5
:1081A0001CF05EFB40F2052208232280A37003210D
:1081B000204600F0EFFB00F089FB28201CF022FB9A
:1081C00070B328220021DFF8B892DFF8B882A24C01
:1081D0001CF046FB002389F800302820216898F81D
:1081E000002000909D4B9E4801F054FA10B11AE017
:1081F000FFF77CFE99F80030002BF9D0012001F048
:1082000015F93368580402D53B68032B26DC206837
:108210001CF000FB9BF8003000222260002BABD149
:1082200005B0BDE8F08F1BF0C3FCE3E72F21284623
:108230001CF016FC002800F027812F2128461CF096
:108240000FFC411C8348DAF80435864A0078CDE9F2
:1082500000205A22042014F029FC96E72F212846FA
:108260001CF0FEFB002800F06B812F2128461CF03B
:10827000F7FB411C7C4ADAF804350092042079228D
:1082800014F014FC33685904C1D53B68032BBEDDE0
:108290002F2128461CF0E4FB002800F025812F2127
:1082A00028461CF0DDFB411CDFF8B091DAF80435FC
:1082B00099F800200292002201926C4A0092042058
:1082C0007C2214F0F3FB33685A04A0D53B68032BDF
:1082D0009DDD2F2128461CF0C3FB002800F01A81E9
:1082E0002F2128461CF0BCFB411C2268DAF804351B
:1082F000127802925E4A00920022019204207D22AE
:1083000014F0D4FB33685B0481D53B68032B7FF703
:108310007EAF2F2128461CF0A3FB002800F0CC8064
:108320002F2128461CF09CFB411C504ADAF80435EA
:10833000009299F8012002920122019204207C22ED
:1083400014F0B4FB336858047FF561AF3B68032B2E
:108350007FF75DAF2F2128461CF082FB002800F03C
:10836000E4802F2128461CF07BFB411C2268DAF8B0
:108370000435527802923E4A009201220192042072
:108380007D2214F093FB336859047FF540AF3B68BE
:10839000032B7FF73CAF2F2128461CF061FB002800
:1083A00000F096802F2128461CF05AFB411C99F8BA
:1083B0000220DAF80435029202202C4A0092019041
:1083C0007C22042014F072FB33685A047FF51FAF3F
:1083D0003B68032B7FF71BAF2F2128461CF040FB87
:1083E000002800F08C802F2128461CF039FB411C0E
:1083F0002268DAF8043592780292022201921C4A2D
:10840000009204207D2214F051FB33685B047FF559
:10841000FEAE3B68032B7FF7FAAE2F2128461CF0F7
:108420001FFB00283CD02F2128461CF019FB411CC3
:10843000DAF804350F4A98F80000CDE900207F22D1
:10844000042014F033FBE2E63C2E0020382E0020FE
:10845000284E0400012E0020F02F0020C82F0020FD
:10846000744F0400F04E0400FC4E0400C84E04009B
:10847000044F0400184F0400002E0020001001409B
:10848000F52F0020F42F00205C2128461CF0E8FA8C
:10849000002860D05C2128461CF0E2FA411CD1E69D
:1084A0005C2128461CF0DCFA002856D05C212846C6
:1084B0001CF0D6FA411CBBE75C2128461CF0D0FA20
:1084C000002852D05C2128461CF0CAFA411C2CE737
:1084D0005C2128461CF0C4FA002842D05C212846C2
:1084E0001CF0BEFA411C62E75C2128461CF0B8FA79
:1084F000F8B35C2128461CF0B3FA411CD4E65C2199
:1085000028461CF0ADFA50B35C2128461CF0A8FAAE
:10851000411C6DE75C2128461CF0A2FA38B35C21AF
:1085200028461CF09DFA411CDFE65C2128461CF021
:1085300097FAC0B15C2128461CF092FA411C15E75D
:108540005C2128461CF08CFAA8B15C2128461CF05E
:1085500087FA411C8EE6294674E6294668E72946D3
:1085600046E7294623E7294600E72946DDE629466E
:10857000BBE6294698E629467CE600BF10B586B0E2
:1085800006AB03E907009DF80C30012B01D006B0C3
:1085900010BD464A46481370FFF7AAFC454BF8B198
:1085A0001B68454A00215B04117003D5434B1B68CF
:1085B000032B40DC3E4CE379402B50D02CD8082BC9
:1085C00056D0102B2FD1012019F096F9204600F03B
:1085D000E7F8FFF7A7F906B0BDE81040FFF7BEBD0A
:1085E0001B685A04D3D5354B1B68032BCFDD3448A9
:1085F0002F211CF035FA002849D02F2130481CF0DB
:108600002FFA411C2F4B3048D3F8043500909822A4
:10861000042014F04BFABAE7802B20D0D02BDAD10B
:1086200019F04EF9D7E7042BD5D1204600F0D8F841
:10863000FFF76CFACFE722482F211CF011FAD8B1CE
:108640002F211F481CF00CFA411C1E4B1F48D3F869
:1086500004350090A022042014F028FAAAE7012093
:1086600019F04AF9124800F09BF8FFF7D5F9B2E784
:10867000012019F041F9D8E711485C211CF0F0F90C
:1086800080B15C210E481CF0EBF9411CDDE70C4881
:108690005C211CF0E5F938B15C2109481CF0E0F9D7
:1086A000411CAFE70649D0E70549ABE7F52F0020AD
:1086B000C82F00203C2E0020012E0020382E002044
:1086C000284E0400001001402C4F04003C4F0400D1
:1086D00010B52B4B1B685B0488B003D5294B1B6876
:1086E000032B24DC284C0FCC0DF1080CACE80F0058
:1086F0009FED1F7B94E803008DED027B9FED1E7BB9
:108700008CE80300214A224802A98DED047B00F089
:10871000AFFE48B94FF0A04340F20132C3F87827CA
:10872000FFF71CFD08B010BD1BF042FAF2E7194834
:108730002F211CF095F970B12F2116481CF090F9EB
:10874000411C154B1548D3F804350090D322042062
:1087500014F0ACF9C6E70F485C211CF081F928B190
:108760005C210C481CF07CF9411CEAE70949E8E768
:108770001E0000001D0000001A0000001F00000085
:108780003C2E0020382E00205C4F04007D85020026
:10879000744F0400284E040000100140504F0400A4
:1087A00038B505461F201CF02DF8B0B11F2200215E
:1087B00004461CF055F8AA7AEB7A697A074802F069
:1087C000070242EAC3026B6823602B7A627103F0EE
:1087D0000F0343EA01130460237138BDF82F002012
:1087E00038B50446012019F087F81F201CF00AF85C
:1087F000002860D005461F2200211CF031F8636874
:10880000A17A2B60237AE27A607A01F0070103F003
:108810000F0341EAC20143EA001369712B71002A78
:1088200047D0531E022B47D99308E168C5F80610BC
:10883000012B25D02169C5F80A10022B20D06169CF
:10884000C5F80E10032B1BD0A169C5F81210042B1C
:1088500016D0E169C5F81610052B11D0216AC5F8AC
:108860001A10062B0CD004F1240C05F11E00062171
:108870000131C9B25CF804EB40F804EB8B42F7D14C
:1088800032F0FC0102F0FC0313D0E018E918007B81
:108890008871591CC9B28A420BD960180233DBB205
:1088A0002944007B88719A4203D91C442B44227BC3
:1088B0009A71024B1D6038BD0023E6E7F82F0020B7
:1088C000014B1868704700BFF82F002070B584B0C6
:1088D00002A800F065F8284B284C1B689DF80C2076
:1088E000029E22705B0403D5254B1B68032B1DDC05
:1088F0002078244D1BF086FF2860002839D023788B
:1089000073B1337803702378012B09D932460123E0
:10891000296812F8010FC854217801339942F7D819
:10892000304604B0BDE870401BF074BF16482F21DC
:108930001CF096F880B12F2113481CF091F8411CCF
:10894000124BD3F8043522780192114A0092042088
:108950000F2214F0ABF8CBE70B485C211CF080F839
:1089600028B15C2108481CF07BF8411CE8E7064967
:10897000E6E704B070BD00BF3C2E0020F42F0020BD
:10898000382E0020F02F00207C4F04000010014002
:10899000184F0400014BC3E900017047FC2F002071
:1089A000024AD2E90021C0E900217047FC2F0020D3
:1089B00010B5044615F028FA10B123780E2B00D01C
:1089C00010BDBDE81040002011F07EBA0378142BD2
:1089D00000D07047C3880F2BFBD8024B01221A70BE
:1089E000704700BF5C30002070B582B0002849D0CD
:1089F0000E46054611F01EF9044610B1204602B09D
:108A000070BD04F061FF02F08DFD28690BF08CFE53
:108A100004460028F2D12A7FAB69CDE90032014635
:108A20006B691A484FF6FF720CF06AFA0446002888
:108A3000E4D12B6A03B19847154811F0D9F917F022
:108A4000F9FD134811F0D6F904F0F4FC054602F0E4
:108A50003BF90B2D0AD00B2808D00E4B1B782BB9F5
:108A600008F036FB002EC9D03070C7E712F082F94B
:108A70000B2402F01DFD04F0C5FE10F067FA16F09D
:108A800019FAEDE70E24204602B070BD0430002034
:108A9000102E00205C30002011F040B908B512F013
:108AA00069F902F005FD04F0ADFE10F04FFABDE8E3
:108AB000084016F0FFB900BF08B515F0A5F920B1C0
:108AC000BDE80840002011F0FFB9BDE808400148AA
:108AD00011F08EB9042E00202DE9F047DFF8AC80AC
:108AE000D8F8000058B3254D254FD5F800A0254EE5
:108AF00000244FF0010909FA04F313EA0A0F10D019
:108B0000E05D1F28324694BF4FF0A04200F01F01E5
:108B1000D2F8043598BF0146CB40DA070CD500F0F7
:108B2000EDF90134042CE6D1D8F80040013CC8F836
:108B300000403CB1BDE8F08700F0D0F9F1E71BF050
:108B400037F8D0E710480E4FDFF844801AF098FE4F
:108B500001262B6806FA04F21A4207D0D8F8003032
:108B6000E05DE340DB0706D500F0C8F90134042CD2
:108B7000EFD1BDE8F08700F0B1F9F7E764300020ED
:108B8000D84F0400000300506830002060300020FF
:108B900088300020002A5ED01329F8B50C4600D892
:108BA000F8BD2D4B2D4D5200013A1A6010F0010313
:108BB000286007D04FF0A043D3F804356FEA533351
:108BC00003F00103860709D54FF0A042D2F804252F
:108BD0006FEA9232520002F002021343410709D5B4
:108BE0004FF0A042D2F804256FEAD232920002F090
:108BF00004021343020709D54FF0A042D2F804251E
:108C00006FEA1242D20002F0080213431449002610
:108C10000B604FF400424FF4FA703146E4FB02015E
:108C200000234FF47A721BF033FC324601460D48A4
:108C30001AF0CAFD04460028B2D10B4F2E68012558
:108C400005FA04F3334202D0385D00F057F90134DD
:108C5000042CF5D1F8BD704760300020643000204E
:108C60008830002068300020D84F040030B583B031
:108C700000F08AF8E0B1144C00230122ADF8043072
:108C80008DF806308DF80520251D14F8010B01A97B
:108C900000F084F848B9AC42F7D10C4A0C480121E5
:108CA0001AF080FD58B903B030BD1AF081FFF2E729
:108CB00000F010F80028DED01AF07AFFDBE71AF097
:108CC00077FF03B030BD00BFD84F0400D98A02003F
:108CD000D44F040030B5284C94F86A3083B0002B90
:108CE00046D14FF6FF704FF0FF0C5A09012A18BF0A
:108CF0004FF0FF3103F01F0208BF014621FA02F2D4
:108D0000D20748BFE21803F1010348BF82F830C020
:108D1000302BEAD14FF0FF304FF0FF314FF0FF33EF
:108D2000C4E900010622002114482366C4E9023385
:108D3000C4E90433C4E90633C4E90833C4E90A3397
:108D40001BF08EFD0E4BC02283F8062340221A60D2
:108D50000C4B0020C3F87C01D3F87C210192012147
:108D60004FF00042019D84F86A10C3F8042300E02C
:108D7000082003B030BD00BF90300020F430002048
:108D800000E100E000600040034B93F86A00003807
:108D900018BF0120704700BF903000204C4B1A18BC
:108DA00092F930C0BCF1FF3F01D00820704710B4E9
:108DB0008C78ECB11A68013247D05A6801327CD005
:108DC0009A6801327BD0DA68013274D01A690132B4
:108DD00077D05A69013276D09A69013275D0DA6952
:108DE000013208BF072231D004205DF8044B7047E0
:108DF000FE2382F830304B78012B4FD01F2887BFDD
:108E0000344A00F01F0101464FF0A04201238B407D
:108E1000C2F80C351F288BBF00F01F0303462D4AF4
:108E20004FF0A04203F5E073032142F82310C2087B
:108E3000294900F007008C5C012303FA00F020436D
:108E400088545DF8044B0020704700221C1884F8F9
:108E50003020002443F8224093004C780A782405FF
:108E6000120404F4801403F1804302F4403203F549
:108E7000C0432243040204F47C542243D3F8104537
:108E800024F4991424F4F854C3F81045D3F8104589
:108E90002243C3F810254B78012BAFD11F2887BF81
:108EA0000C4A00F01F0101464FF0A04201238B4005
:108EB000C2F80835AEE70322C8E70122C6E702225E
:108EC000C4E70422C2E70522C0E70622BEE700BFCE
:108ED0009030002000030050F43000201F2886BF8F
:108EE000054A00F01F004FF0A042012303FA00F0F2
:108EF000C2F80805704700BF000300501F2886BF56
:108F0000054A00F01F004FF0A042012303FA00F0D1
:108F1000C2F80C05704700BF000300502DE9F04770
:108F2000002384B0CDE902331C4AD2F80011012994
:108F300000F030821E46194BD3F80421012A00F0BC
:108F40001A82164BD3F80821012A00F00582134B30
:108F5000D3F80C21012A00F0F081104BD3F8102136
:108F6000012A00F0DB810D4BD3F81421012A00F017
:108F7000C1810A4BD3F81821012A00F0AC81074BBC
:108F8000D3F81C21012A0BD0044BD3F87C21012AF1
:108F900000F0218256BB04B0BDE8F08700600040BD
:108FA000D3F804231206EFD50022C3F81C21D3F80E
:108FB0001C110091D3F87C110098012946F080061D
:108FC00014D1C3F87C21D3F87C3101934FF0A04237
:108FD000019BD2F82015CF4B0291C2F82015D3F88F
:108FE00020250392C3F8202546F00046CA4F0125EC
:108FF0000024A30003F18043354203F5C0434FEA48
:1090000045050BD0D3F8100557F82420D3F81015D8
:10901000C0F30520C1F3014102B190470134082C8F
:10902000E7D1002EB7DABC4CBA4E01254FF0A0476D
:1090300094F96000431C48D0C0F3C20202F110034F
:109040000DEB030200F0070312F8082C05FA03F3F6
:109050001A42C1B200F03F0037D01F2800F22B8126
:1090600002464FF0A04909EB820305FA02F2D3F859
:1090700000C7D3F800E72EF4403EC3F800E704EB46
:10908000000ECCF3014C9EF930E0D3F800A754F861
:109090002E80BCF1020F0CBF4FF4403E4FF4003E57
:1090A0004EEA0A0EC3F800E7C9F82025B8F1000F10
:1090B0000BD08909032900F08281BCF1020F00F076
:1090C0007B81BCF1030F00F0A68194F96100411C83
:1090D00048D0C0F3C20202F110030DEB030200F00E
:1090E000070312F8082C05FA03F31A42C1B200F084
:1090F0003F0037D01F2800F2E28002464FF0A0491F
:1091000009EB820305FA02F2D3F800C7D3F800E7AF
:109110002EF4403EC3F800E704EB000ECCF3014C04
:109120009EF930E0D3F800A754F82E80BCF1020F6E
:109130000CBF4FF4403E4FF4003E4EEA0A0EC3F817
:1091400000E7C9F82025B8F1000F0BD089090329E1
:1091500000F03A81BCF1020F00F03381BCF1030F43
:1091600000F05D8194F96200421C48D0C0F3C20255
:1091700002F110030DEB030200F0070312F8082CB4
:1091800005FA03F31A42C1B200F03F0037D01F289E
:1091900000F2998002464FF0A04909EB820305FADC
:1091A00002F2D3F800C7D3F800E72EF4403EC3F82C
:1091B00000E704EB000ECCF3014C9EF930E0D3F84D
:1091C00000A754F82E80BCF1020F0CBF4FF4403EB4
:1091D0004FF4003E4EEA0A0EC3F800E7C9F8202516
:1091E000B8F1000F0BD08909032900F0F280BCF11F
:1091F000020F00F0EB80BCF1030F00F0088194F93E
:109200006300431C47D0C0F3C20202F110030DEB10
:10921000030200F0070312F8082C05FA03F31A42C0
:10922000C1B200F03F0036D01F2850D802464FF0A0
:10923000A04909EB820305FA02F2D3F800C7D3F87C
:1092400000E72EF4403EC3F800E704EB000ECCF339
:10925000014C9EF930E0D3F800A754F82E80BCF101
:10926000020F0CBF4FF4403E4FF4003E4EEA0A0E90
:10927000C3F800E7C9F82025B8F1000F0BD0890921
:10928000032900F09780BCF1020F00F09080BCF140
:10929000030F00F0B880D7F820250292C7F82025E8
:1092A000D6F820350393C6F8203513437FF4C0AEBB
:1092B00004B0BDE8F08701F01F02B146D3E601F02B
:1092C0001F02B1461CE701F01F02B14665E701F03D
:1092D0001F02B146ADE7D3F8042351067FF54FAE28
:1092E0000022C3F81821D3F818310093009B46F0F0
:1092F000400644E6D3F8042390067FF53AAE0022F8
:10930000C3F81421D3F814310093009B46F02006D3
:109310002FE600BF0003005090300020D3F8042354
:10932000D4067FF520AE0022C3F81021D3F8103107
:109330000093009B46F0100615E6D3F804231507AA
:109340007FF50BAE0022C3F80C21D3F80C3100934B
:10935000009B46F0080600E6D3F8042357077FF584
:10936000F6AD0022C3F80821D3F808310093009B22
:1093700046F00406EBE5D3F8042392077FF5E1AD50
:109380000022C3F80421D3F804310093009B46F077
:109390000206D6E5D2F8046316F001063FF4CBAD21
:1093A000C2F80031D2F800310093009BC3E50129D7
:1093B0007FF471AFC0476EE701297FF486AEC047E6
:1093C00083E601297FF4CEAEC047CBE601297FF4C6
:1093D00016AFC04713E70022C3F87C21D3F87C31D5
:1093E00001934FF0A042019BD2F820150E4B029141
:1093F000C2F82015D3F820250392C3F82025002EAB
:109400003FF411AEF0E502297FF445AFD2E702291F
:109410007FF4F5AEDDE702297FF457AECFE70229EE
:109420007FF4A0AED0E700BF000300500A4B185CE9
:109430001F288ABF09494FF0A04100F01F00D1F852
:1094400004350122824022EA03001340C1F80805D6
:10945000C1F80C35704700BFDC4F0400000300501A
:109460008C46024B07C853F82C301847FC300020BC
:1094700010B4044C037944F82320034A5DF8044BEC
:1094800000F004B8FC300020619402002DE9F04F98
:1094900090F804C07B4DCCEBCC0405EB840483B086
:1094A000247D002C40F0DD800C7C032C00F2DD805C
:1094B0000E680468FF2E9B464FEACC0700F0C1807F
:1094C0001F2E91F813E086BFDFF8C48106F01F0657
:1094D0004FF0A04806F5E0764FEA0E2E48F826E059
:1094E0004E68D1F80080FF2E00F0B1801F2E86BF9D
:1094F00006F01F06DFF898E14FF0A04E06F5E07683
:109500004FF000094EF82690D1F80490CE6891F8FB
:1095100012E01F2E86BF06F01F06DFF874A14FF081
:10952000A04A06F5E0764FEA8E0E4AF826E08E68ED
:109530001F2E88BF06F01F0606F5E07E8CBFDFF801
:1095400050A14FF0A04A00264AF82E60D1E9023E11
:10955000C4F80835C4F81095C4F80C85C4F814E5AF
:10956000C4F83465C4F83865C4F84465C4F848657F
:109570004E7C91F810E0003E18BF0126BEF1020FAC
:1095800077D0BEF1030F77D0BEF1010F77D0C4F8CA
:1095900054650E7DC4F85C654E7DC4F8C065002638
:1095A000C4F80461D4F804E1CDF804E0DDF804E087
:1095B000C4F82861D4F828E1CDF800E0DDF800E037
:1095C000D4F80032A7EB0C0E05EB8E0E43F004032B
:1095D000C4F8003240F202438EF81560CEF808203D
:1095E000CEF818B0C4F8043302688B7D42F307311B
:1095F000B1424FEA12322DDB01F160415B0101F50E
:109600006141DBB281F80033036843F30732002A7B
:109610004FEA133308DB1C485209012103F01F03F2
:1096200001FA03F340F82230A7EB0C0C05EB8C0594
:109630000122022300202A75C4F8003503B0BDE8DA
:10964000F08F4E68FF2E4FF0FF387FF44FAF4FF092
:10965000FF395BE70D4902F00F025B01DBB28B546F
:10966000D2E7082003B0BDE8F08F072003B0BDE8C3
:10967000F08F46F004068AE746F0060687E746F0D4
:10968000020684E70831002000E100E014ED00E06C
:109690000003005090F804C0BCF1020F4ED870B522
:1096A0008CB00C461099B1F5803F39D2B2F5803FAD
:1096B00036D224B104F06041B1F1005F33D123B15F
:1096C00003F06041B1F1005F2DD14B49CCEBCC0EE2
:1096D00001EB8E0E4FEACC069EF81550012D5FFA75
:1096E00085FE30D004D9AEF1020EBEF1010F27D8AD
:1096F000A6EB0C0C4FEA8C054A5101EB8C01C1E939
:109700000343109A4A60012500684D754A7D022A7C
:10971000D3B256D0032B47D0AB4243D0002000E059
:1097200009200CB070BD354A1268520403D5344A82
:109730001268032A09DC10200CB070BD09207047A4
:1097400003200CB070BD0820EBE72E4807932F21B3
:109750001BF086F9079B00283DD02F2129481BF0DC
:109760007FF9079B411C284803F06042D0F80405AC
:10977000CDE9034304F06044A2F10052A4F1005487
:10978000224BB2FA82F2B4FA84F452096409CDE9A8
:1097900000340292034640F29B12042013F086F933
:1097A0001020BEE74362B9E7D0F83C45D0F84C251D
:1097B0008B688DF82450CDE90A42896909A8984739
:1097C000ACE700238A688DF82430CDE90A33896933
:1097D00009A89047A2E70B4807935C211BF040F9CA
:1097E000079B30B15C2107481BF03AF9079B411CED
:1097F000B9E70449B7E700BF083100203C2E00203C
:10980000382E0020E04F0400001001403C500400BE
:1098100030B53B4BD3F8282187B05AB10020C3F8AC
:109820002801D3F82811374A01910199517D012966
:10983000CCB21CD0324BD3F8042152B10020C3F873
:109840000401D3F804112F4A02910299517D022993
:1098500001D007B030BD03215175547D022CE1B217
:1098600045D0032935D00129F3D15962F1E71168B8
:10987000D568C3F84455C3F8481551681569C3F84D
:109880003455C3F8381502219C62517592F815C001
:10989000BCF1020F5FFA8CF112D0032903D0012929
:1098A000C8D15962C6E78DF80C40D3F83C15049135
:1098B000D3F84C0505909368916903A89847B9E7D8
:1098C000CDE904008DF80C009368916903A89847CE
:1098D000B0E701218DF80C10D3F83C150491D3F8B2
:1098E0004C0505909368916903A89847B1E7CDE9C5
:1098F00004008DF80C009368916903A89847A8E7C5
:10990000003000400831002030B54FF0402387B0D0
:10991000D3F8282162B10020C3F82801D3F8281118
:10992000394A0191019992F831100129CCB220D025
:109930004FF04023D3F804215AB10020C3F80401AA
:10994000D3F80411304A0291029992F83110022999
:1099500001D007B030BD032182F8311092F83140B8
:10996000022CE1B246D0032936D00129F1D1596247
:10997000EFE7D169956AC3F84455C3F84815116AF1
:10998000D56AC3F83455C3F8381502219C6282F8B1
:10999000311092F831C0BCF1020F5FFA8CF112D095
:1099A000032903D00129C3D15962C1E78DF80C40C6
:1099B000D3F83C150491D3F84C050590536A516BCC
:1099C00003A89847B4E7CDE904008DF80C00536A6A
:1099D000516B03A89847ABE701218DF80C10D3F821
:1099E0003C150491D3F84C050590536A516B03A8BC
:1099F0009847AEE7CDE904008DF80C00536A516B2F
:109A000003A89847A5E700BF0831002030B53E4BBA
:109A1000D3F8282187B062B10020C3F82801D3F819
:109A200028113A4A0191019992F84D100129CCB2BE
:109A30001FD0354BD3F804215AB10020C3F80401DC
:109A4000D3F80411314A0291029992F84D1002297B
:109A500001D007B030BD032182F84D1092F84D407F
:109A6000022CE1B246D0032936D00129F1D1596246
:109A7000EFE7916B556CC3F84455C3F84815D16BAB
:109A8000956CC3F83455C3F8381502219C6282F8EE
:109A90004D1092F84DC0BCF1020F5FFA8CF112D05C
:109AA000032903D00129C4D15962C2E78DF80C40C3
:109AB000D3F83C150491D3F84C050590136C116D47
:109AC00003A89847B5E7CDE904008DF80C00136CA6
:109AD000116D03A89847ACE701218DF80C10D3F85D
:109AE0003C150491D3F84C050590136C116D03A837
:109AF0009847AEE7CDE904008DF80C00136C116DAA
:109B000003A89847A5E700BF0030024008310020B5
:109B100060DF704769DF704710F06EB910B588B02C
:109B200000F026F9002854D1324B0393039B049391
:109B30000C22002105A81AF093FE0023049A8DF848
:109B4000143005A90120FFF7E5FF00283ED10C22C3
:109B5000002105A81AF084FEF823049A059305A9AC
:109B6000A120FFF7D7FF70BB04A8FFF7D1FF039B2D
:109B7000049A9A42044603D01F4B1B685B0402D42C
:109B8000E4B908B010BD1D4B1B68012BF8DD1C4863
:109B90002F211AF065FFF8B12F2119481AF060FF44
:109BA000411C0498174A184BD3F80435CDE900201E
:109BB000AB22022012F07AFF002CE2D0204619F0EE
:109BC000F7FF08B010BD19F0F3FFCDE719F0F0FF73
:109BD000BDE719F0EDFFA7E709485C211AF040FF47
:109BE00028B15C2106481AF03BFF411CD9E7044923
:109BF000D7E700BF002E00203C2E0020382E00208A
:109C000078500400E05004000010014070B4EFF3FD
:109C1000108472B60D4B9A68AAB9012199600C495B
:109C20000C4ED1F8805035401D60C1F88060D1F8ED
:109C300084505D604FF0FF33C1F88430027004B986
:109C400062B670BC704701230370F8E778310020DA
:109C500000E100E0FC06FFBD094B9A687AB170B9DB
:109C600010B4EFF3108172B6064A1C6814605C6889
:109C70005460986001B962B65DF8044B7047704754
:109C80007831002000E100E001600B6843604A6821
:109C9000934204BF00234360704700BF436843B151
:109CA000026891680B4443605268934204BF0023EA
:109CB000436070474BDF704710B5124C84B001A869
:109CC000FFF7F8FFA8B9214602A8FFF7DDFF039BC5
:109CD000002BF4D0D3E900310198984702A8FFF790
:109CE000DDFF039B002BF5D101A8FFF7E3FF002860
:109CF000E9D0052801D104B010BD04B0BDE8104082
:109D000019F056BF1C51040061DF7047154B1B78DA
:109D100033B330B5144D91B034240DF1020103A8D2
:109D2000ADF80240FFF7F0FF88B9294601A8FFF718
:109D3000ABFF029B002BF0D0D3E9003103A898477A
:109D400001A8FFF7ABFF029B002BF5D1E5E7052843
:109D500001D111B030BD11B0BDE8304019F028BFBD
:109D6000704700BF843100202851040010DF704785
:109D700070B53D4D2B7884B0002B67D13B4E3C49EC
:109D8000012302A83370FFF77FFF039B23B90FE085
:109D9000FFF784FF039B5BB1D3E9003100209847B4
:109DA000034602A8002BF3D11C46204604B070BD28
:109DB000304902A8FFF768FF039B4BB1D3E900319C
:109DC0000020984702A8FFF769FF039B002BF5D1FD
:109DD000294B00221B68019302A88DF80820FFF789
:109DE00015FF264901A8FFF7C1FFB0FA80F304462A
:109DF0005B099DF808002B70FFF72EFF002CD4D1D3
:109E00001F4B20491C70347091F81623EC23520923
:109E10001341DB071ED51C4B9A6802B31A6842F443
:109E200080021A60134902A8FFF72EFF039B002B44
:109E3000BBD0D3E900310120984702A8FFF72EFFDD
:109E4000039B002BF5D1204604B070BD08242046AA
:109E500004B070BD42F2020019F0AAFEE2E74FF42E
:109E600080030B60DEE700BF8631002085310020D3
:109E7000385104005051040034510400F91003001B
:109E80008731002000E100E07831002000B583B088
:109E900008496846FFF7F8FE019B43B1D3E900206B
:109EA00090476846FFF7FAFE019B002BF6D103B0FE
:109EB0005DF804FB44510400817801F00303032B97
:109EC00034D8DFE803F029231E02890841F27072BA
:109ED00001FB02F230B4164B164D19682B68114481
:109EE0008160002423B91DE0DA681C46B2B1134634
:109EF0009A688A1A002AF7DAA4B1E06030BCC3601D
:109F000070478908642201FB02F2E3E701F0FC02DA
:109F100002EB91014A00DDE78A08DBE7D86030BC3C
:109F2000C26070472860C36030BC70477B4600BF8A
:109F3000A0310020A83100202DE9F0416F4D2B7891
:109F4000002B36D16E4C22688AB36E4E33789778E8
:109F500007F003019942C7F3010740F393806A4871
:109F6000032B006800F2C5809268684C121A68489A
:109F7000022900FB02F254F82300B2FBF0F266D093
:109F8000032942D0012953D010F0B6FD3378032BBA
:109F9000804600F29E8054F8233098442B785D4828
:109FA000002B67D04146BDE8F04110F077BCBDE81A
:109FB000F081584B534E5F6810F09EFD3378032BB1
:109FC00004466ED8514A52F823204F49E01B1044F2
:109FD0003BB94CF25032904203D90A6801320A6010
:109FE00007E04D4A4009A2FB00200A6802EBD010AE
:109FF0000860434C2268002AA9D12B78002BD6D0C8
:10A00000BDE8F041434810F0FDBB002B59D0012BB7
:10A0100063D1424B03FB02F2414BB3EBF20FB3D3DC
:10A0200010F06AFDDFF81881032380443370B5E730
:10A030003C4B03FB02F23C4BB3EB720FA4D310F08A
:10A040005BFD00F5742808F510783770A6E773B348
:10A05000012B99D103F1CC3303FB02F2324BB3EB6A
:10A06000720F91D310F048FDDFF8D88002238044AE
:10A07000337093E70123C0F804802B70BDE8F041F2
:10A0800010F052BB10F038FD23689B78C3F3010237
:10A09000327003F003031D4A52F8233000EB03082B
:10A0A0007CE7784607F04EF9337800228DE71F4BA6
:10A0B00003FB02F203F18043013BB3EBB20FD1D2B9
:10A0C00062E71B4B03FB02F21A4BB3EB321FA7D222
:10A0D0005AE7784607F036F960E7022B7FF454AF71
:10A0E000154B03FB02F2154BB3EBB20FFFF44CAF71
:10A0F00096E7784607F026F9FFDE00BFA43100207E
:10A10000A8310020A5310020A03100205C510400BE
:10A11000A086010088310020C55A7C0A63C92F96A9
:10A12000063A6D00CDCCCCCC99999919295C8FC297
:10A130004728A3B733EC0A00EFEEEEEE44444404A4
:10A140000046C323809698002DE9F0412D4B1B78E3
:10A1500082B0032B52D8DFE803F04C4742022A4E6C
:10A16000336803F5BB5310333360284F284B3C68EA
:10A170004FF0000883F80080002C2BD0224E07E01F
:10A180006368019998472046FFF796FE3C680CB338
:10A190003268A368934201A903D032689B1A002B4E
:10A1A00018DA2588E3683B602846CDF8048002F081
:10A1B000CFF903462846002BE2D0784607F0C2F8D4
:10A1C00063680199284698472046FFF775FE3C686A
:10A1D000002CDDD102B0BDE8F041FFF7ADBE0A4E64
:10A1E000336864333360C0E7074E33680A33336043
:10A1F000BBE7054E336801333360B6E7784607F0B6
:10A20000A1F8B2E7A5310020A0310020A83100203C
:10A21000A431002038B5084C084D182200212046F2
:10A220001AF01EFB06480749074AA5600023036091
:10A230000B60137038BD00BF8831002049A10200B7
:10A24000A0310020A8310020A431002038B50B4CEB
:10A25000237873B90A4D1822002128461AF000FB12
:10A260000849094A0948A86000230B60136023705D
:10A2700038BD034810F0C6FAECE700BFA431002057
:10A2800088310020A0310020A831002049A102001F
:10A29000F8B50D461746044600283CD0234E11F071
:10A2A000B7F9336843B19C4202D124E09C420DD0FF
:10A2B0001A46DB68002BF9D105F0030545EA87054E
:10A2C000A57067B9BDE8F84011F0E4B905F00305E1
:10A2D000E36845EA8705A570D360002FF2D02046D9
:10A2E000FFF7EAFD33689C42ECD1FFF725FEBDE89D
:10A2F000F84011F0CFB905F00305E368336045EA93
:10A300008705A570002FF0D02046FFF7D5FD3368F4
:10A310009C42D7D1E9E77846044E07F013F811F0D4
:10A3200077F93368002BC3D1C6E700BFA8310020FE
:10A3300070B5884CB4F860300546002B63D094F8B3
:10A34000393005F57A7623B1236B9B1B002BC0F2C5
:10A35000978094F85D30002B48D0636D9B1B002BD9
:10A360005FDB94F83930002B31D194F85D30002B4D
:10A3700032D1B4F860304FF6FF72A4F86220002B9F
:10A3800031D0784606F0DEFFB4F8623003EBC30349
:10A3900004EB83031B6B5A1B48BFEA1AE26070BDD3
:10A3A000784606F0CFFF94F85C30013BDBB284F8CE
:10A3B0005C30002B00F08880D4E9153213446365CB
:10A3C00094F83930002BD0D094F85D3093B1236BE2
:10A3D000626DD21A002A1ADAB4F860300122A4F8A9
:10A3E0006220002B5FD10023E36070BD94F8393008
:10A3F000002BBAD0B4F860300022A4F86220002B01
:10A40000F1D0236BC7E7784606F09CFF97E7B4F8D6
:10A4100060200021A4F86210002ABCD10023E36070
:10A42000E3E7B4F85030E26C4B49012000F0EEFF56
:10A430001028B5D801A353F820F000BFA7A302004D
:10A44000A1A30200A1A30200A1A30200A7A30200EE
:10A45000C9A40200A1A30200C9A40200A7A302008C
:10A46000C9A40200A1A30200A1A30200A1A30200AB
:10A47000A1A30200A1A30200A7A30200C9A4020095
:10A48000A38DA26A3549002000F0C0FF10280CD827
:10A49000DFE800F00E0B0B0B0E330B330E330B0B00
:10A4A0000B0B0B0E3300636D75E7784606F04AFF21
:10A4B00094F83830013BDBB284F83830EBB1D4E9A2
:10A4C0000C231344236344E794F85D30002B3CD005
:10A4D000B4F860309BB3013B00229BB284F85D204E
:10A4E000A4F860301BB94FF6FF73A4F86230E06C3B
:10A4F00016F0F0FF0023E36462E794F83930D3B13B
:10A50000B4F860308BB1013B00229BB284F8392053
:10A51000A4F860301BB94FF6FF73A4F86230A06A4C
:10A5200016F0D8FF0023A36213E7784606F00AFF6F
:10A53000B4F86030E7E7784606F004FFE0E77846D5
:10A5400006F000FFB4F86030C5E7784606F0FAFE82
:10A55000BEE700BFAC310020E8310020C43100204C
:10A5600010B5064C6422002120461AF079F9044AFD
:10A57000A2604FF6FF73A4F8623010BDAC3100202A
:10A5800031A302002DE9F04F83B00128BDF83090CF
:10A5900005460F461646984677D8002F00F0AF8044
:10A5A000002E00F0B2803B785B0774D0B8F1000F4A
:10A5B00000F0A180B9F1000F00F094805C4C05EB35
:10A5C000C50304EB83034FEAC50A93F83930002B27
:10A5D00068D110F091FA0AEB050C04EB8C0C0CF12D
:10A5E00018030093B4F860304FF0010E03EB0E0235
:10A5F0008346019296E80F00009ECCF8288086E8FA
:10A600000F00ACF82C903B78019AC3F302038CF84E
:10A6100038303B78A4F860204CF2503ADB0803FB5A
:10A620000AA30BEB03028CF839E0CCE90C2394F875
:10A630003930DBB194F85D3023B1636D226B9B1A26
:10A64000002B01DB4FF0000EB4F8622096457346F4
:10A650004CD0A4F862300EEBCE0E04EB8E043448DE
:10A66000216B03B0BDE8F04F10F018B994F85D30DD
:10A67000002BE9D1B4F862304FF6FF72934248D113
:10A680009D4248D003B0BDE8F08F784606F05AFEF0
:10A69000002F85D133E0784606F054FEB8F1000F64
:10A6A00088D128E0B4F86030002B3AD00AEB0502DC
:10A6B000013B04EB82029BB20021A4F8603082F8D7
:10A6C00039101BB94FF6FF73A4F862300AEB050B83
:10A6D00004EB8B0BDBF8280016F0FCFE0023CBF814
:10A6E000283076E7784606F02DFE67E79D42B2D027
:10A6F00003B0BDE8F08F784606F024FE5AE77846AE
:10A7000006F020FE002E7FF44EAF784606F01AFECB
:10A7100049E7A4F86220784606F014FEB4F862E037
:10A7200099E7784606F00EFEB4F86030BEE700BF49
:10A73000AC310020C0F30F43A3F540539BB2012B73
:10A7400082B016D80C4A107810F0040002D0002015
:10A7500002B07047094A096802EBC30CC943CCF840
:10A76000041012F8331021F0060102F8331002B081
:10A770007047052002B07047E0320020E43200202C
:10A78000000CB0F5804F82B005D1044B0A781A70E6
:10A79000002002B07047052002B070471C2E002038
:10A7A00010B5030C82B0012B01900C4602D0784604
:10A7B00006F0C8FD024B23600222A28002B010BD49
:10A7C0000200010010B5030C82B0012B01900C4671
:10A7D00002D0784606F0B6FD6388012B0DD1A38820
:10A7E000022B0AD12388022B07D1054A13780020B7
:10A7F00043F00103137002B010BD0B2002B010BD76
:10A80000E032002030B5C0F30F44A4F5405483B0CB
:10A81000A4B2012C01900D4602D9784606F092FDB3
:10A82000034B03EBC4046368DB432B6003B030BD10
:10A83000E432002010B5030C82B0B3F5804F0190D4
:10A840000C4602D0784606F07DFD024B1B78237043
:10A8500002B010BD1C2E002030B5040C83B0B4F53E
:10A86000805F01900D4602D0784606F06BFDA4F59E
:10A8700080540649A4B204EB4404022201EB4401D3
:10A88000284603B0BDE8304019F0DCBF5432002048
:10A8900030B5C0F30F44A4F5005483B0A4B2012C2A
:10A8A00001900D4602D9784606F04CFD0549C4EBEF
:10A8B000C404142201EBC401284603B0BDE83040B3
:10A8C00019F0C0BF6C32002030B5C0F30F43A3F5C0
:10A8D000005383B09BB2012B019022D81848007816
:10A8E00010F004041AD11748B1F80CE0C3EBC3030D
:10A8F00000EBC305DB00B5F80CC0E6450BD1C35A2D
:10A900000888984207D148886B88984203D1CA8941
:10A91000EB899A4208D00B2003B030BD002003B071
:10A9200030BD052003B030BD1422284619F08AFF3F
:10A9300095F8343023F00603204685F83430EEE7EE
:10A94000E03200206C3200202DE9F04FD7B00446F1
:10A95000BDF880010590894F09A80E461D46934613
:10A9600002F0C4FFC4EBC40307EBC303BDF8261019
:10A97000B3F80C80414540F2DD80BDF8241006910B
:10A98000E200BBF1000F00F0AB800BF10C0393E889
:10A9900003009BF81C30BBF81EA0BBF824B00DF1DF
:10A9A000280989E80300002B40F0AA80002D00F060
:10A9B000B280059A002A00F0B7800CAC2422002156
:10A9C0002046079319F04CFF5146584612AA05F04D
:10A9D0007BFA074618B1384657B0BDE8F08F069BA2
:10A9E00010959844079B8DF83A3099E80300059B31
:10A9F000ADF84430B37AE372F37A237384E803004A
:10AA0000F368ADF838803946204623620FF0EEF93E
:10AA100007460028DFD15A4C23689A04DBD5DFF8BB
:10AA20008081D8F80030042BD5DD56482F211AF04C
:10AA300017F8002800F090802F2152481AF010F8E3
:10AA4000411C514B3288D3F8043501924F4A009291
:10AA5000052040F2A91212F029F823689B04BAD508
:10AA6000D8F80030042BB6DD059B802B1A4628BF92
:10AA700080229446002B7CD0454B15AC1E68681E86
:10AA80002146034610F8012F4FEA121E023116F834
:10AA90000EE001F802EC023302F00F025B1BB25C25
:10AAA00001F8012C9C45ECD80023364804F81C30F2
:10AAB0002F2119F0D5FF002843D02F21314819F05C
:10AAC000CFFF411C334A304BD3F80435CDE9012484
:10AAD000314A009205204FF4D57211F0E7FF7AE772
:10AAE0000DF12809D888B3F804A00792494603F06D
:10AAF00089FD20BBB9F80230E3B1079A4FF6FF7B1E
:10AB0000121B07EBC2077B7CFF2B04BF234B1B7878
:10AB1000002D7FF44EAF0793784606F013FC059A9C
:10AB2000079B002A7FF449AF0793784606F00AFC9A
:10AB3000079B42E71027384657B0BDE8F08F05273E
:10AB400049E710485C2119F08BFF80B15C210D486A
:10AB500019F086FF411CB5E70A485C2119F080FF17
:10AB600048B15C21074819F07BFF411C69E70549A2
:10AB7000A8E715AC98E7034963E700BF6C320020F3
:10AB80003C2E00206C51040000100140C051040014
:10AB9000402E0020D4510400DC5104001C2E002063
:10ABA000382E0020000CB0F5805F82B012D10C4B23
:10ABB000187810F004000AD10A4B09881A889142CB
:10ABC0000BD15A7922F006025A7102B07047002068
:10ABD00002B07047052002B070470B2002B07047EA
:10ABE000E032002054320020012870B5324D044676
:10ABF0000DD9C600784606F0A5FB00221146301B91
:10AC000005EBC0001430BDE87040FFF741BBC0EB5E
:10AC1000C00205EBC202C60092F8341011F0010127
:10AC2000E8D09369002BE5D0937C928C03F003006D
:10AC300002284FEA930330D0032816D141F27070F6
:10AC400003FB00F0B0FBF2F23F2A1FD940F276235B
:10AC50009A4213D941F69C039A4222D8174BA3FB80
:10AC60000232C2F347120221C9E701280CD103EBDB
:10AC700083004000B0FBF2F23F2A07D9104BA3FB40
:10AC80000232C2F3C702BAE7B3FBF2F283B1012A80
:10AC900038BF0122D2B20021B1E7642003FB00F0EB
:10ACA000D0E7084BA3FB0232C2F3C7120321A6E789
:10ACB0001A461946A3E700BF6C3200201F85EB51EE
:10ACC000CDCCCCCCF11976052DE9F04FB04E3278D1
:10ACD00042F0040212F0020585B0327040F0938019
:10ACE000D007AC4C13460FD5A3464FF6FF73BBF805
:10ACF0000C20DFF8A4929A424FF001083FD10BF1EB
:10AD0000380B002D33D03378A34D2A7851077ED4E9
:10AD1000970700F1A48022F006022A702A7A5707CA
:10AD200000F18E80910700F1C38022F006022A72A2
:10AD30009A4D6A7990076FD494F8341022F0020289
:10AD40006A718D074BD494F86C2021F002019707AB
:10AD500084F834102FD422F0020284F86C20DC072F
:10AD600048BF002040F1DC8005B0BDE8F08FBBF8A3
:10AD70000C204FF6FF739A424FF00105BFD0BBF88D
:10AD80000600984203D002F00BFF00283BD1BBF82D
:10AD90000E30022B08D0DB00043309EB030A59F80C
:10ADA0000370002F40F09D80C5EBC50304EBC30387
:10ADB00000229A74A3E75D0777D5022242F20103CD
:10ADC000ADF80820ADF80A307549029815F062FA1E
:10ADD000002840F0EB80337894F86C20BBE75807EC
:10ADE0005AD502224FF40053ADF80820ADF80A30CE
:10ADF0006849029815F04EFA002840F0DB8033785D
:10AE000094F834109FE70B2005B0BDE8F08F590788
:10AE100053D442F0040226E0590735D56148029028
:10AE2000294615F037FA002840F0C8806A7994F86E
:10AE30003410337822F002026A718D0783D5CEE791
:10AE4000580717D5022243F20103ADF80820ADF8E8
:10AE50000A30029815F0F0FA2A7A337865E7580735
:10AE60006BD442F0020222F006022A702A7A5107BD
:10AE70007FF558AF42F0040222F006022A72474DD5
:10AE80006A7990077FF558AF94F8341022F00202E7
:10AE90008F076A717FF557AF94F86C2021F002019B
:10AEA00084F8341091077FF556AF42F0020252E762
:10AEB0005F0756D442F00202DEE702224FF440530D
:10AEC000ADF80820ADF80A30029815F0B5FA2A78E6
:10AED000337822F006022A702A7A57077FF522AFCC
:10AEE000AEE797FAA7F7B7FA87F7182F3FF45CAFEA
:10AEF000384603F00DFB013708FA07F252420028EA
:10AF000081D1172F3FF650AFDAF8003013403FF4ED
:10AF10004BAF93FAA3F7B7FA87F7182FE8D143E7B7
:10AF20002148022302A9CDE90100ADF80C3015F04B
:10AF3000B1F9002846D1052016E70222ADF8082015
:10AF40006B684FF44052ADF80A20DB43029801933E
:10AF500001A915F09FF90028B9D0784606F0F2F95A
:10AF6000B5E70222ADF80820EB6843F20102ADF824
:10AF70000A20DB430298019301A915F08BF910B95F
:10AF80002A7A3378D1E6784606F0DCF9F8E700BF94
:10AF9000E03200206C320020E432002054320020E5
:10AFA000A43200200200001002000100784606F0E2
:10AFB000C9F910E7784606F0C5F920E7784606F0AB
:10AFC000C1F933E7784606F0BDF9B4E72DE9F04F53
:10AFD00000F1140491B00546204605F0E7FF002378
:10AFE000099300287CD04FF6FF73ADF83A302B7DE3
:10AFF000012B074600F0A380EA8A4FF6FB739A42C2
:10B0000000F2BD800DF13A01204603F035FB002827
:10B0100040F08F80099B0A93002399460A9B644E57
:10B02000DFF8A4A10B97A846002B54D0B788099B42
:10B03000FF1AB7FA87F77F09B8F81E4096F82C5028
:10B04000B18CB8F800C0B8F802E06309012256F8E4
:10B05000233004F01F0402FA04F405F001051C403B
:10B06000002977D0306A002300F1020B02E001339F
:10B0700099426FD030F833206245F8D13BF8332045
:10B080007245F4D1DDF82CB00D930122DAF80030CE
:10B090009B0403D5474B1B68062B24DC95B18FB16D
:10B0A00084B1BBF1000F0DD098F81430012B1FFABA
:10B0B00089F066D00D9A336A03EBC20341465B68A0
:10B0C000B26A98473836B9F1000F09D10A9B4FF0A0
:10B0D0000109002BAAD1F388012B3ED90A9FABE7C7
:10B0E00011B0BDE8F08F34480C922F2119F0B8FC54
:10B0F0000C9A00284CD02F212F4819F0B1FC0C9A43
:10B10000411C2E4BD3F80435069236F8062C0292D9
:10B1100036F8082C01922A4A0092221E18BF0122FA
:10B120000592CDE903574FF48662072011F0BEFC6B
:10B13000B4E7784606F006F9099B0A936CE70FA876
:10B1400002F0D4FBEB8ABDF83C200A979B1A9BB215
:10B15000099361E70022934698E7BDF83A20DB00A7
:10B16000510903EB810317490B4402F01F02596890
:10B17000012393400B4214BF012700275CE70A908C
:10B180004AE7B26A0C90414601F01AFC0C9891E72C
:10B1900009480C925C2119F063FC0C9A30B15C21D7
:10B1A000054819F05DFC0C9A411CAAE70249A8E782
:10B1B00074320020382E00206C5104000010014031
:10B1C000E4510400E43200203C2E00202DE9F0433D
:10B1D00001680B7803F0C002802AD1B0044638D051
:10B1E00014D8180637D5774F3B6813F4005640F053
:10B1F000A280E06903F0E2FC05AD8146A06903F09E
:10B200003BFC2E6003262268314630E0C02AEAD19A
:10B210006C4FB1F801809EB23B68990404D56A4B2B
:10B220001B68042B00F39C80E06903F0C7FC814697
:10B23000A06903F021FC4FF6FF73984505AD226825
:10B240002E80A5F8028010D1FF2E71D9022631463A
:10B250000DE00B885BBA9EB27F2E66D0594F3B68DB
:10B2600099044FF6FF78DFD5D9E703263146A38846
:10B27000A5F81E905B1A217A29736189E981E1683A
:10B280002961217C2975618AE982164461693A68DD
:10B29000A96194F8201029779BB2616AA88492046E
:10B2A0006E602B8129623DD5474A1268042A39DD38
:10B2B000802B9C4628BF4FF0800C002B7DD0434B49
:10B2C0000FAC1F68701E2146034610F8012F4FEA8D
:10B2D000121E023117F80EE001F802EC023302F000
:10B2E0000F029B1BBA5C01F8012C9C45ECD8002393
:10B2F000374804F81C302F2119F0B2FB002844D045
:10B300002F21334819F0ACFB411C324A324BD3F8A1
:10B310000435CDE90124314A009205204FF48A72A8
:10B3200011F0C4FB2846FFF751FE51B0BDE8F08391
:10B33000012631469BE7244B1B68042B0DDCE0699A
:10B3400003F03CFC05AD8146A06903F095FB0326A4
:10B35000002322682B60314689E74FF000084646FB
:10B360001B482F2119F07CFBE0B12F21184819F060
:10B3700077FB411C184B1A4AD3F80435009201960A
:10B38000FD22052011F092FB4EE711485C2119F0D7
:10B3900067FB28B15C210E4819F062FB411CB4E741
:10B3A0000B49B2E70A485C2119F05AFB38B15C211D
:10B3B000074819F055FB411CDCE70FAC97E704493F
:10B3C000D8E700BF3C2E0020382E0020402E002061
:10B3D0006C5104005052040000100140DC51040084
:10B3E0003C520400037833B1142B03D1C388022BE1
:10B3F00004D0704770470430FFF7E8BE024A137864
:10B4000043F0020313707047E032002061B15AB17B
:10B4100053B1B1F808C0BCF5BE7F01D30920704715
:10B42000012803D9052070470E20704710B51F4C26
:10B43000C0EBC00C04EBCC0C82B09CF83440E407A9
:10B4400029D5BCF80C4034BBBCF804E04FF6FF74BF
:10B45000A6451DD0BCF806C0A44519D0B1F802E03D
:10B46000B1F800C0A6450ED11CF47F4F16D00CF4E5
:10B47000404CBCF5004F0BD1009313460022FFF760
:10B4800063FA02B010BD2CF03F0CBCF1C00FF3D03A
:10B49000072002B010BD052002B010BD2CF07F04C3
:10B4A000002CF5D1BCF17F0FE6D1F1E76C32002022
:10B4B00010B5164C01F0D0FAFEF7C8FE702200213C
:10B4C000204619F0CDF906220021114819F0C8F9DB
:10B4D000102200210F4819F0C3F90F4A0F4BE36007
:10B4E000636413780E484FF0FF316160E16323F02D
:10B4F00003030421017013700123A384A4F85C30BA
:10B500000220BDE8104015F003B800BF6C320020E7
:10B5100054320020E4320020E0320020FFFF02001D
:10B520001C2E002010B5174C70220021204619F067
:10B5300097F906220021144819F092F910220021EF
:10B54000124819F08DF91248124B1349E3604FF07D
:10B55000FF326364114B036062600123E2630422E3
:10B560000A70A384A4F85C300EF042FC01F060FA8B
:10B57000FEF750FEFEF7F4FF094A137823F00703A5
:10B58000137010BD6C32002054320020E4320020D1
:10B5900060320020FFFF02001C2E0020E5B30200F5
:10B5A000E0320020002800F0B9802DE9F0470D4678
:10B5B00082B0002977D0C368044613B18368002B9A
:10B5C00071D04FF6FF732B80E36813B9A368002B8B
:10B5D00040D1B4F80480B8F1000F37D105F078FD00
:10B5E000002840F09780A288DFF848C202EB4203AF
:10B5F0000CEB43039978DB78D9422FD1D4E9026769
:10B60000002F5AD0DFF830A2002306F102094FF6CE
:10B61000FF7E0BE012F47F4F02EA0A0022F07F0166
:10B6200045D0B0F5004F0DD19F4246D939F83310BF
:10B6300036F83320714503F1010322F03F00E9D0D1
:10B64000C028F1D0072002B0BDE8F087052002B085
:10B65000BDE8F087092002B0BDE8F087DFF8DC9193
:10B660002088B9F80C306188934200F0BF80B9F8A7
:10B6700044309342C2D1B9F83A308B42BED1B9F8C6
:10B680003830834208BF0123B8D1C3EBC30209EBB2
:10B69000C2022B8092F83420D1073BD4D4E9026750
:10B6A000002FAFD110E00E2002B0BDE8F0870029D6
:10B6B000C8D17F2AC6D09F42B8D82B88DFF87C91AA
:10B6C0004FF6FF7293422BD0C3EBC30309EBC303C6
:10B6D00022691A632B88A268C3EBC30309EBC30377
:10B6E00000209A622B88E268C3EBC30309EBC30313
:10B6F0009A852B886269C3EBC30309EBC3039A6184
:10B700002A88C2EBC20309EBC309A9F8142002B0CE
:10B71000BDE8F0870F2002B0BDE8F0870E2070472B
:10B7200099F8343013F0010308D099F86C30DA0737
:10B7300048BF04208BD44FF001084346C3EBC3033A
:10B7400009EBC3034FF6FF72A5F80080DA802B885F
:10B75000C3EBC30309EBC3039A802B88A188C3EB17
:10B76000C30309EBC30399812B886188C3EBC3032F
:10B7700009EBC30359802B882188C3EBC30329F845
:10B7800033102B88C3EBC30309EBC3035A7421881E
:10B79000A388914203EB43030CEB430C20D09CF8AD
:10B7A000033001338CF803302B88C3EBC30309EB60
:10B7B000C30393F8342042F0010283F834201C4B79
:10B7C00029881B785B071DD4C1EBC10109EBC103BC
:10B7D00093F8342042F0020283F834202B8873E778
:10B7E0009CF8023001338CF80230DDE7B9F8023002
:10B7F0008B427FF43CAFB9F8003083427FF437AF1F
:10B80000434642E70223ADF8043001F50053ADF89A
:10B810000630C1EBC101019809EBC10114F03AFDFA
:10B8200008B92B8850E7784605F08CFDF9E700BF92
:10B83000E03200205432002000C0FFFF6C320020B4
:10B840002DE9F04782B089B10B89B3F5BE7F0C4674
:10B8500007D2012805460ED90527384602B0BDE8B3
:10B86000F0870927384602B0BDE8F0870E27384632
:10B8700002B0BDE8F087DFF8FC90C0EBC00209EB36
:10B88000C2024FEAC00A92F83410C907E4D5918980
:10B890000029E1D190884FF6FF71884247D0D288C5
:10B8A0008A4244D060882288884252D112F47F4F65
:10B8B00056D002F44042B2F5004F38D10227B846C4
:10B8C00098441FFA88F8404615F002FE0646002804
:10B8D0003DD0638822884FF6FF718B4230D0437091
:10B8E0001B0A0270837022896168F01918F0AAFFA0
:10B8F000CDF800803346002221462846FFF724F881
:10B900000746B0B9AAEB050109EBC103C900DB7C0E
:10B910005B070ED013312846CDF8008049443346EA
:10B920002246FEF72FFE384602B0BDE8F087072713
:10B9300093E7304615F0CEFD384602B0BDE8F087FB
:10B9400012F47F4F1CBF4270120A0270CBE704272B
:10B9500083E722F03F02C02AE9D10327B846AFE7C8
:10B9600022F07F010029E2D17F2AE0D00127B846EA
:10B97000A6E700BF6C3200202DE9F04383B091B1FF
:10B98000144682B11389B3F5BE7F07D201288046E1
:10B990000ED90524204603B0BDE8F08309242046D3
:10B9A00003B0BDE8F0830E24204603B0BDE8F08369
:10B9B000304A0D46C0EBC00102EBC10292F83410D0
:10B9C000C907E6D59289002AE3D1608822884FF61C
:10B9D000FF7188422CD022F03F02C02A3DD14FF0A7
:10B9E00003094F461F44BFB2384615F071FD0646A5
:10B9F00088B3638822884FF6FF718B4224D043704E
:10BA00001B0A027083702289616806EB090018F036
:10BA100019FF214633462A4600974046FEF794FF19
:10BA20000446304615F056FD204603B0BDE8F083CD
:10BA300012F47F4F13D002F44042B2F5004F0CD104
:10BA40004FF002094F46CDE712F47F4F1CBF427002
:10BA5000120A0270D7E704249CE707249AE722F031
:10BA60007F010029F9D17F2AF7D04FF001094F4615
:10BA7000B8E700BF6C320020012801D905207047CB
:10BA80001A4AC0EBC00302EBC30292F834C01CF0A8
:10BA9000010FF3D0172922D8D3888B420BD0144B37
:10BAA000D1801B7813F0040307D14CF0020C82F80C
:10BAB00034C0184670470020704700B583B000F5C9
:10BAC00000500223ADF80430ADF80600019811468D
:10BAD00014F0E0FB28B9002003B05DF804FB072058
:10BAE0007047784605F02EFCF5E700BF6C32002069
:10BAF000E032002081B1012801D905207047074BB1
:10BB0000C0EBC00003EBC00090F83430DB07F4D585
:10BB1000C3880B80002070470E2070476C320020D5
:10BB2000012839D830B5214AC0EBC00302EBC3036A
:10BB300083B093F834E01EF0010F4FEAC00C31D00F
:10BB4000DC7C01F0070304F007059D4204D1C1F33A
:10BB5000C403B3EBD40F1CD0154BACEB000C1B781B
:10BB600002EBCC0213F00403D17406D14EF00201B3
:10BB7000184682F8341003B030BD00F5005002239F
:10BB8000ADF80430ADF806000198114614F082FBC0
:10BB900020B9002003B030BD05207047784605F07D
:10BBA000D1FBF6E7052003B030BD00BF6C320020AA
:10BBB000E032002081B101280CD8084BC0EBC00056
:10BBC00003EBC00090F83430DB0703D5C37C0B7067
:10BBD00000207047052070470E2070476C3200200F
:10BBE000012811D808B50C4AC0EBC00302EBC3030F
:10BBF00093F83420D2070DD59A693AB141B19984AE
:10BC0000FEF7F2FF002008BD05207047062008BDA2
:10BC1000072008BD052008BD6C320020012834D85B
:10BC200070B504462748C4EBC40300EBC30382B0DD
:10BC300093F834C01CF0010F4FEAC4053BD09E6955
:10BC4000A6B33F2A34D8032932D89B7CB2EB930F9A
:10BC500003D103F003038B4225D02D1B01F0030316
:10BC600000EBC50543EA82022046AA74FEF7BCFF3A
:10BC7000154B187810F0040009D195F8343043F0D2
:10BC8000020385F8343002B070BD052070470223EE
:10BC900004F50054ADF80430ADF80640019829468B
:10BCA00014F0F8FA50B9002002B070BD0620EAE79F
:10BCB000072002B070BD052002B070BD784605F0C7
:10BCC00041FBF0E76C320020E0320020D9B1D2B164
:10BCD000012801D9052070470D4BC0EBC00003EBD4
:10BCE000C00393F83400C007F4D5986968B193F89D
:10BCF00012C0CCF3010C81F800C09B7CC3F3850318
:10BD00000020137070470E2070470620704700BF58
:10BD10006C320020F0B583B0044605F0D9F9002854
:10BD20003FD1012C02D9052003B0F0BD364DC4EB44
:10BD3000C40305EBC303E60093F83420D207F2D521
:10BD4000DB89022BF0D1314A137813F001012BD09B
:10BD5000137ADF0748BF0420E6D4012143F2010C27
:10BD600008460F4623F0040343F0010302F837307E
:10BD7000331B05EBC303264FD8813B78580718D4F3
:10BD800012F8313043F0020302F83130341B05EB76
:10BD9000C405002095F8343043F0020385F83430B0
:10BDA000C2E70F2003B0F0BD4FF4405C08460F46D9
:10BDB000D8E702EBC102ADF806C05368DB4300933D
:10BDC0000223ADF804300198694614F063FAB0B963
:10BDD0003B785B07DAD5022204F50053ADF8042066
:10BDE000ADF80630311B019805EBC10114F052FA91
:10BDF00008B9002098E7784605F0A4FAF9E77846F4
:10BE000005F0A0FAE4E700BF6C320020E432002025
:10BE1000E032002070B5012882B003D90524204605
:10BE200002B070BD214BC0EBC00003EBC00090F826
:10BE30003430DA07F2D5C089022822D017291CD85D
:10BE4000C3001B4E04330122F55802FA01F115EA32
:10BE5000010403D00024204602B070BD0D43F5500C
:10BE6000144B1B785B070ED416F8303043F00203F6
:10BE700006F83030204602B070BD0724204602B0DC
:10BE800070BD0624CBE700F540500223ADF8043026
:10BE9000ADF80600ED4301980095694614F0FAF9F3
:10BEA0000028BCD0784605F04DFAB8E76C32002087
:10BEB000E4320020E032002030B585B00128019145
:10BEC00002D9052005B030BD224AC0EBC00002EB0C
:10BED000C00090F83420D307F3D5B0F80EC0BCF101
:10BEE000020F20D017290B461AD84FEACC021A4D60
:10BEF00004320121AC5801FA03F314EA0300E1D043
:10BF00001649087824EA030310F00400AB500CD162
:10BF100015F83C3043F0020305F83C3005B030BD65
:10BF2000072005B030BD0620CCE70CF5405C0222AE
:10BF3000ADF80C20ADF80EC0DB430398029302A9C4
:10BF400014F0A8F908B90020BCE7784605F0FAF922
:10BF5000F9E700BF6C320020E4320020E03200201C
:10BF6000F0B583B00192002936D01446A2B301285F
:10BF700002D9052003B0F0BD194BC0EBC00003EBA4
:10BF8000C00E9EF83430DB07F3D5BEF80E30022B1E
:10BF900024D00022134E278822800125BEF80E30BF
:10BFA000012B05FA02F006EBC30C02D9002003B006
:10BFB000F0BDDCF80430184203D10132182AEDD16B
:10BFC000F4E723889F4205D921F813202388013301
:10BFD0002380F2E70920CDE70E20CBE70620C9E752
:10BFE0006C320020E432002070B5012882B003D901
:10BFF0000524204602B070BD1D4EC0EBC00306EB09
:10C00000C30CDA009CF83430DC07F1D508292AD8B3
:10C0100008320123B5588B4015EA030403D00024ED
:10C02000204602B070BD2B43B350124B1B785B0708
:10C0300008D49CF83430204643F002038CF83430A6
:10C0400002B070BD00F500500223ADF80430ADF829
:10C0500006000198614614F01DF90028C9D0784601
:10C0600005F070F9C5E70724204602B070BD00BF97
:10C070006C320020E0320020012802D90523184646
:10C08000704730B5214DC0EBC00305EBC30E4FEA3E
:10C09000C30C9EF83430DB0783B003D40523184665
:10C0A00003B030BD082928D80CF1080C012255F83E
:10C0B0000C408A4014EA0203F1D0154B1B7824EAA5
:10C0C000020213F0040345F80C2008D19EF8342036
:10C0D000184642F002028EF8342003B030BD00F55D
:10C0E00000500223ADF80430ADF806000198714607
:10C0F00014F0D0F828B90023D1E70723184603B07D
:10C1000030BD784605F01EF9F5E700BF6C3200201F
:10C11000E0320020002900F09780002A00F094808F
:10C12000012801D90520704730B54A4CC0EBC0004A
:10C13000C30004EBC00090F83400C00740F18680D3
:10C1400008334FF0000C1088A2F800C0E558ED0746
:10C1500007D500287CD0A1F800C04FF0010CA2F850
:10C1600000C0E558AD070CD5B2F800C060456FD9E6
:10C170004FF0010E21F81CE0B2F800C0F444A2F820
:10C1800000C0E5586D070DD5B2F800C060455FD915
:10C190004FF0020E21F81CE0B2F800C00CF1010CC7
:10C1A000A2F800C0E5582D070DD5B2F800C06045D3
:10C1B0004ED94FF0030E21F81CE0B2F800C00CF18C
:10C1C000010CA2F800C0E558ED060DD5B2F800C08C
:10C1D00060453DD94FF0040E21F81CE0B2F800C0D4
:10C1E0000CF1010CA2F800C0E558AD060DD5B2F86F
:10C1F00000C060452CD94FF0050E21F81CE0B2F8C4
:10C2000000C00CF1010CA2F800C0E5586D060DD578
:10C21000B2F800C060451BD94FF0060E21F81CE0B3
:10C22000B2F800C00CF1010CA2F800C0E3581B06E4
:10C2300008D5138898420BD9072021F813001388DA
:10C2400001331380002030BD0E207047052030BD23
:10C25000092030BD6C320020012801D9052070472B
:10C260001A4AC0EBC00302EBC30292F834C01CF0C0
:10C27000010FF3D0082922D893888B420BD0144B9E
:10C2800091801B7813F0040307D14CF0020C82F864
:10C2900034C0184670470020704700B583B000F5E1
:10C2A00000500223ADF80430ADF8060001981146A5
:10C2B00013F0F0FF28B9002003B05DF804FB07205D
:10C2C0007047784605F03EF8F5E700BF6C32002075
:10C2D000E032002081B1012801D905207047074BC9
:10C2E000C0EBC00003EBC00090F83430DB07F4D59E
:10C2F00083880B80002070470E2070476C3200202E
:10C3000000B585B003068DF8070009D4012807D0D1
:10C310000DF10701044813F0BDFF05B05DF804FB03
:10C32000072005B05DF804FB02000040014B1878BF
:10C33000704700BF1C2E002081B1012801D90520C3
:10C340007047074BC0EBC00003EBC00090F83430DF
:10C35000DB07F4D5037C0B70002070470E2070477C
:10C360006C320020012801D9052070471B4AC0EB20
:10C37000C00302EBC30292F834C01CF0010FF3D0EB
:10C3800081F080037E2B22D9537C8B420BD0144B3F
:10C3900051741B7813F0040307D14CF0020C82F89F
:10C3A00034C0184670470020704700B583B000F5D0
:10C3B00000500223ADF80430ADF806000198114694
:10C3C00013F068FF28B9002003B05DF804FB0720D4
:10C3D0007047784604F0B6FFF5E700BF6C320020E6
:10C3E000E032002081B1012801D905207047074BB8
:10C3F000C0EBC00003EBC00090F83430DB07F4D58D
:10C40000437C0B70002070470E2070476C32002078
:10C4100031B118B9034B1B880B807047052070475A
:10C420000E2070475432002031B118B9034B9B786D
:10C430000B707047052070470E2070475432002063
:10C4400031B118B9034BDB780B707047052070478A
:10C450000E20704754320020A1B1012801D90520D7
:10C460007047094BC0EBC00003EBC002C00092F85C
:10C4700034C01CF0010FF2D052884A801B5A0B8046
:10C48000002070470E2070476C32002000B583B04A
:10C49000019142B380B94FF6FF71154B1180998914
:10C4A000BDF804C0BDF8060019B9B3F802E086452E
:10C4B00010D0B3F8441019B1052003B05DF804FBA7
:10C4C000598F8142F8D11B8F6345F5D1012111802D
:10C4D0000020F2E7B3F800E0E645F8D0B3F84410E6
:10C4E0000029E9D1ECE70E2003B05DF804FB00BFA2
:10C4F0006C32002021B31AB330BB30B414881080E2
:10C5000004B3124B93F834C01CF0010F06D09D8980
:10C5100025B9088001208442108013D093F86C4024
:10C52000E40702D4002030BC7047B3F84430002B3D
:10C53000F8D1012321F81030138801331380F1E77B
:10C540000E2070470920EEE7052070476C3200206E
:10C5500081B1012801D905207047074BC0EBC0000D
:10C5600003EBC00090F83430DB07F4D5036B0B60AD
:10C57000002070470E2070476C320020012801D93E
:10C580000520704730B504462048C4EBC40300EBD7
:10C59000C30583B095F83420D2074FEAC30302D411
:10C5A000052003B030BD0022143318441146FDF7B6
:10C5B0006FFE204600F0A6FAE88801F091FC144ACC
:10C5C000107800234FF0FF3210F004006A606B74A3
:10C5D0006B82AB7507D195F8343043F0020385F8D0
:10C5E000343003B030BD022304F50054ADF80430FC
:10C5F000ADF806400198294613F04CFE10B9002012
:10C6000003B030BD784604F09DFEF8E76C320020A0
:10C61000E0320020082813D838B50F4D95F8343093
:10C62000DB07044602D5AB88834210D095F86C3006
:10C6300013F0010302D0AB8FA34203D0002038BD1A
:10C64000072070470120FFF799FF002038BD002028
:10C65000FFF794FFEAE700BF6C32002038B52F4C9B
:10C660002C2303FB0043054693F84030002B38D0C1
:10C67000B4F870307BB32C2202FB0542013B002052
:10C680009BB282F84000A4F87030FBB1B4F872306D
:10C69000AB4200D038BD916B214B94F840200B4445
:10C6A0001ABB94F86C207ABB4FF6FF73A4F8723073
:10C6B000784604F047FEB4F872302C2202FB0344A3
:10C6C000A16B1648BDE838400EF0E8B8BDE8384028
:10C6D00012480EF097B8784604F034FEB4F8703083
:10C6E000C9E7784604F02EFEC2E7A16BCA1A002AF9
:10C6F000D7DA94F86C306BB1636E5B1A002BA8BF6D
:10C70000A4F87200DDDA03E0626ED31A002BCBDAF4
:10C71000616E0123A4F87230D3E700BFF832002025
:10C72000008793032DE9F0419C4CB4F8703084B03D
:10C730000546002B54D04FF6FF73994FA4F8723082
:10C7400094F8403001223A7005F57A765BB1236B9C
:10C750009B1B002B48DBA36B9B1B002B4FF00003A4
:10C76000A4F872306CDB94F86C30ABB1E36D9B1BBA
:10C77000002B4EDB636E9E1B002EC0F2A080B4F82F
:10C7800072204FF6FF718A4226D02C2101FB024213
:10C79000926B9B1A002B1FDBB4F8703083B1B4F896
:10C7A0007230012B12D82C2202FB03439B6B5A1BC5
:10C7B00048BFEA1A0023E2603B7004B0BDE8F08194
:10C7C000E36000233B7004B0BDE8F081784604F0DC
:10C7D000B9FDB4F87230E6E70123A4F87230DBE764
:10C7E000784604F0AFFDA6E7002384F84030B4F8A3
:10C7F0007030208B013B03A9A4F87030FFF7A8FE2E
:10C80000002840F09B80636B0399208B012298479E
:10C81000A9E7B4F87030B4F84400013B002203A942
:10C8200084F86C20A4F87030FFF792FE002840F0E6
:10C830008980236E0399B4F8440001229847ABE73E
:10C840005849208BFEF7FCFF804650B3564B1B68BF
:10C850009A0419D5554B1B68042B15DD54482F211C
:10C8600018F0FEF8002871D02F21514818F0F8F880
:10C87000411C504B504AD3F804350092CDF8048047
:10C880008322052010F012F9B8F1080F09D0B8F191
:10C89000040F7CD0B8F10F0F79D0784604F052FD28
:10C8A00005E0D4E90E231A445B00A263E363226B24
:10C8B000A36BD31A002BBFF656AFA26353E7012335
:10C8C0003E49B4F84400A4F87230FEF7B9FF0646BA
:10C8D00030B3354B1B689B0418D5344B1B68042BB5
:10C8E00014DD33482F2118F0BBF8002839D02F2150
:10C8F0002F4818F0B5F8411C2E4B2F4AD3F80435B9
:10C90000009201968322052010F0D0F8082E07D05F
:10C91000042E31D00F2E2FD0784604F013FD05E001
:10C92000D4E919231A445B00C4E91923E26D636E4C
:10C93000D31A002BBFF630AF62662DE7784604F0BD
:10C9400001FD60E7784604F0FDFC72E718485C21C1
:10C9500018F086F8F8B15C21154818F081F8411CF0
:10C9600087E713485C2118F07BF890B15C211048F0
:10C9700018F076F8411CBFE701232C2202FB034389
:10C980009A6B02F5122202F5F8629A6304E700231B
:10C99000F3E70749B0E706496BE700BFF83200202C
:10C9A000F6320020143300203C2E0020382E0020C8
:10C9B0006C52040000100140C852040040330020B3
:10C9C0000128F8B505460F46164602D9784604F008
:10C9D000B9FC0EF01DFE154B93F8400010B11A8BF8
:10C9E000AA420AD093F86C201AB1B3F84420AA42A4
:10C9F00018D0BDE8F8400EF04DBE002002462C24B1
:10CA000004FB02343B88A28D9A42F2D17B88E28DEE
:10CA10009A42EED1FFF722FE636B00223146284690
:10CA20009847E6E701200246E9E700BFF832002018
:10CA300010B5064C74220021204617F011FF044B5C
:10CA40000449A16000221A7010BD00BFF832002016
:10CA5000F632002025C7020070B5274C82B00EF0D8
:10CA6000D7FDB4F8703053B994F840308BB994F8CE
:10CA70006C3013BB02B0BDE870400EF00BBE00235B
:10CA80002046A4F870300DF0BDFE94F84030002B25
:10CA9000EDD0258B1948666B00212C2217F0E0FEA3
:10CAA00001A92846FFF754FD08BB01990222284638
:10CAB000B04794F86C30002BDCD0B4F844501048E8
:10CAC000246E00212C2217F0CBFE01A92846FFF787
:10CAD0003FFD40B9019902222846A04702B0BDE8B7
