:020000022000DC
:1070000000FD0320C93D0400F13D0400F33D0400F0
:10701000F53D0400F73D0400F93D040000000000C8
:10702000000000000000000000000000FB3D040024
:10703000FD3D040000000000FF3D0400013E04008F
:10704000033E0400033E0400033E04008594020056
:107050007D950200033E0400918B0200033E040074
:10706000033E0400033E0400D9210400033E040053
:10707000033E0400033E0400033E0400033E0400FC
:10708000033E04000135040085B60300033E0400FE
:10709000E9350400033E0400019B0200033E0400A6
:1070A000033E0400033E0400033E0400033E0400CC
:1070B000033E0400033E0400000000000000000046
:1070C000033E0400033E0400033E040081960200D8
:1070D000033E0400033E0400033E0400033E04009C
:1070E000033E0400033E0400033E040000000000D1
:1070F00000000000033E040000000000033E040006
:10710000000000000000000000000000000000007F
:10711000000000000000000000000000000000006F
:10712000000000000000000000000000000000005F
:10713000000000000000000000000000000000004F
:10714000000000000000000000000000000000003F
:10715000000000000000000000000000000000002F
:10716000000000000000000000000000000000001F
:10717000000000000000000000000000000000000F
:1071800000000000000000000000000000000000FF
:1071900000000000000000000000000000000000EF
:1071A00000000000000000000000000000000000DF
:1071B00000000000000000000000000000000000CF
:1071C00000000000000000000000000000000000BF
:1071D00000000000000000000000000000000000AF
:1071E000000000000000000000000000000000009F
:1071F000000000000000000000000000000000008F
:1072000010B5054C237833B9044B13B10448AFF3E0
:1072100000800123237010BDD02E0020000000004C
:107220005467040008B5034B1BB103490348AFF38F
:10723000008008BD00000000D42E00205467040028
:10724000A3F5803A704700BF174B002B08BF134BC4
:107250009D46FFF7F5FF00218B460F461348144A61
:10726000121A1DF027FC0E4B002B00D098470D4B37
:10727000002B00D098470020002104000D000D488D
:10728000002802D00C48AFF300801DF0C1FB2000A5
:10729000290000F0A1FA1DF0A7FB00BF00000800C4
:1072A000000000000000000000FD0320D02E0020A0
:1072B000105A0020000000000000000043685A78C7
:1072C000172A7AD12DE9F04142781F2A8EB0044660
:1072D00074D10022CDE90622CDE90822CDE90A22A7
:1072E0000C92CDF833201A79187859788DF8180057
:1072F00002F00F02D8788DF8191099788DF81C20BB
:107300001A798DF81A1012098DF81D2059798DF807
:107310001B0001F007018DF81E105979C90808AA51
:107320008DF81F10D91D511A022940F2AE80D3F8F2
:1073300006200892D3F80A200992D3F80E200A9268
:10734000D3F812200B92D3F816200C929A7E8DF867
:107350003420DA7E8DF835201B7F8DF8363001F031
:107360002BF81F2106A801F08BF8C0F30F237E2B0A
:10737000C0F30726C5B207D9A6F17F03DBB27E2B87
:1073800086BF0236F6B21E467E2D07D9A5F17F03D1
:10739000DBB27E2B86BF0235EDB21D4663685A7F95
:1073A000B2422BD0894B1B685A0403D5884B1B680B
:1073B000032B74DC0EB0BDE8F0817047834B1B6873
:1073C0005904F7D5824B1B68032BF3DD81482F212D
:1073D0001DF070FC002800F0A8802F217D481DF0D2
:1073E00069FC411C60787C4A7C4BD3F80435CDE9BC
:1073F0000020B122042015F0C5F9DBE79A7FAA42EC
:10740000D0D1774FD9783A788A42764A63D0002033
:10741000DFF8E881107074486C4AD2F800C0027836
:107420001CF4804F02F10102027004D0684A126815
:10743000032A00F385809B783970212088F800307A
:107440001DF00AFB0028B5D0069A0260079A426038
:10745000089A8260099AC2600A9A02610B9A426194
:107460000C9A82619DF8342002779DF8352042778E
:107470009DF8362082775D4AC677012380F8205038
:107480002121137001F0C0F894E705330DF13700A6
:1074900013F8011F02F8011B9042F9D15FE74D4834
:1074A0002F211DF007FC002867D02F2149481DF02F
:1074B00001FC411C6268494B907FD3F8043504906D
:1074C000527F03924A4A0092CDE90165D6220420F8
:1074D00015F058F96EE71078002898D1DFF81C8174
:1074E000987898F80020904295D1384B1B685B043F
:1074F0007FF560AF364B1B68032B7FF75BAF3548DA
:107500002F211DF0D7FB002853D032482F211DF02A
:10751000D1FB0130314B3749D3F804350091E622D5
:107520000146042015F02EF944E72A485C211DF09D
:10753000C1FB68B35C2127481DF0BCFB411C51E72F
:1075400024482F211DF0B6FB30B322482F211DF017
:10755000B1FB01306268214B9278D3F80435029276
:1075600098F800200192244A00920146EE2204205D
:1075700015F008F96368D9785DE716485C211DF0BD
:1075800099FB38B15C2113481DF094FB411C91E735
:10759000104927E70F498DE70E485C211DF08AFB53
:1075A00028B10C485C211DF085FB0130D2E7094869
:1075B000D0E708485C211DF07DFB28B105485C211F
:1075C0001DF078FB0130A5E70248A3E7402E00201C
:1075D0003C2E00204C4D0400A84D0400001001403A
:1075E000022E0020002E0020EF2E0020EC2E002086
:1075F000CC4D0400384E0400584E0400012E0020EB
:107600000378232B00D0704700B51A4B1B685B042E
:1076100083B003D5184B1B68032B09DC0322C82158
:107620000F2001F0F1F803B05DF804EB01F07EB833
:1076300012482F211DF03EFB78B12F210F481DF07D
:1076400039FB411C0E4B0F48D3F8043500904FF422
:107650008772042015F096F8E0E708485C211DF0D9
:1076600029FB28B15C2105481DF024FB411CE9E7FA
:107670000249E7E7402E00203C2E00204C4D04003C
:1076800000100140904E0400014B1878704700BF75
:10769000ED2E0020014B1870704700BFED2E00202A
:1076A000F0B5424F3B685A0483B003D5404B1B688A
:1076B000032B31DC3F4B4048404D414E00221A70B5
:1076C0001AF026FA00F044FE012304461F213A482E
:1076D0002B701AF093FA306090B121461F221130BE
:1076E0001DF0DAF931683448FF230B711AF0C6FA3D
:1076F000002320462B7003B0BDE8F0401DF0B4B964
:10770000304A13780A2B1BD02978013313700029D3
:10771000EED0FFF7C5FFEBE72B482F211DF0CAFA8B
:1077200048B32F2128481DF0C5FA411C274B284893
:10773000D3F8043500909922042015F023F8B9E716
:107740003B685B04D4D51A4B1B68032BD0DD1E4865
:107750002F211DF0AFFAD8B12F211B481DF0AAFA36
:10776000411C1A4B1B4AD3F80435009204207E2298
:1077700015F008F8BCE714485C211DF09BFA28B10D
:107780005C2111481DF096FA411CCFE70E49CDE768
:107790000D485C211DF08EFA28B15C210A481DF0CD
:1077A00089FA411CDDE70849DBE700BF402E0020D5
:1077B0003C2E0020ED2E0020342F0020EE2E002045
:1077C000D02F0020F02E00204C4D0400001001406E
:1077D000AC4E0400E84E040030B58DB01CF09EF8AD
:1077E00000287DD101F07CF85E4A5F4C04214FF403
:1077F000804014F0B7FF01F0CBFF2422002103A842
:107800001DF058F9594B03940722002103A88DF865
:107810001420079300F022FF002859D00B2852D1E2
:10782000534C2368590433D5524D2B68032B2FDD5D
:1078300051482F211DF03EFA00286CD02F214E48D0
:107840001DF038FA411C4D4B4D4AD3F804350092D7
:10785000042040F2291214F095FF23685A0417D52A
:107860002B68032B14DD44482F211DF023FA002838
:1078700069D02F2140481DF01DFA411C3F4B414863
:10788000D3F8043500904FF49572042014F07AFF79
:107890003D4812F0EFF840233C4A3D4800211AF0E1
:1078A000BFF823685B0403D5324B1B68032B1DDC38
:1078B000172019F023FD00F029FF58B900F096FBBE
:1078C00000200DB030BD2C4A40F22F111CF0AAFA56
:1078D000274CDDE7284A40F24D111CF0A3FAEDE7F2
:1078E000254A40F23F111CF09DFA7BE722482F21E8
:1078F0001DF0E0F9D0B12F211F481DF0DBF9411C2C
:107900001E4B2448D3F8043500904FF4A372042092
:1079100014F038FFCCE718485C211DF0CBF9E8B132
:107920005C2115481DF0C6F9411C8CE712485C210A
:107930001DF0C0F928B15C210F481DF0BBF9411CB6
:10794000DEE70D49DCE70C485C211DF0B3F938B1E6
:107950005C2109481DF0AEF9411C8FE7064972E72A
:1079600005498BE735C703000100000701760200D7
:10797000402E00203C2E00204C4D04000010014001
:10798000004F0400504F0400BD720200F42E00208E
:10799000342F00208C4F040041DF70472DE9F04365
:1079A0000446D0F80120D0F80530D4F80D10D0F8F6
:1079B00009008DB0CDE90423D4F81120D4F8153096
:1079C000CDE90601CDE90823D4F81900E37F617FF2
:1079D000A27F8DF82E300A908DF82C108DF82D2076
:1079E00000F0EAFC1F2104A800F04AFDC0F30F23B9
:1079F0007E2BC0F30726C5B239D9A64F3B68580481
:107A00002DD5DFF8A482D8F80030032B00F3DE80F8
:107A1000A6F17F095FFA89F9B9F17E0F40F2BF80C4
:107A20003B68590421D5D8F80030032B1DDD9A4856
:107A30002F211DF03FF9002800F009812F219648E1
:107A40001DF038F9411C954B954AD3F80435009246
:107A5000CDF804902E22042014F094FE05E0A6F147
:107A60007F03DBB27E2B40F298800236F6B27E2D89
:107A700037D9884F3B685A042CD5DFF82C82D8F8C8
:107A80000030032B00F38D80A5F17F095FFA89F99F
:107A9000B9F17E0F7DD93B685B0420D5D8F8003062
:107AA000032B1CDD7C482F211DF004F9002800F079
:107AB000C3802F2178481DF0FDF8411C774B794A8F
:107AC000D3F804350092CDF804903422042014F049
:107AD00059FE04E0A5F17F03DBB27E2B5BD9A81C25
:107AE000C5B294F82030B3420CD06A4B186810F439
:107AF000804004D06C4B1B68032B30DC00200DB0A1
:107B0000BDE8F08394F82130AB4224D0614B186873
:107B100010F48040F3D0644B1B68032BEEDD5E480D
:107B20002F211DF0C7F8002800F0A0805A482F210F
:107B30001DF0C0F8013094F82110584B5B4AD3F87F
:107B400004350092CDE9015141220146042014F090
:107B500019FE0020D3E701200DB0BDE8F0834E48A8
:107B60002F211DF0A7F800285BD02F214A481DF0D7
:107B7000A1F8411C94F82000484B4D4AD3F8043535
:107B80000092CDE901603A22042014F0FBFD0020B0
:107B9000B5E74D46A5E71D46A3E71E4667E74E46F7
:107BA00065E73D482F211DF085F878B32F213A482D
:107BB0001DF080F8411C394B3A4AD3F80435009245
:107BC00001953422042014F0DDFD5DE732482F21B9
:107BD0001DF070F878B12F212F481DF06BF8411C73
:107BE0002E4B2F4AD3F80435009201962E22042002
:107BF00014F0C8FD0CE728485C211DF05BF888B341
:107C00005C2125481DF056F8411CE9E722485C211B
:107C10001DF050F840B35C211F481DF04BF8411C8B
:107C2000C9E71D485C211DF045F850B35C211A4896
:107C30001DF040F8411C9DE717485C211DF03AF803
:107C400008B35C2114481DF035F8411C36E7124892
:107C50005C211DF02FF8C0B15C210F481DF02AF8FF
:107C6000411CF0E60C49BBE70B49A4E70A485C213C
:107C70001DF020F858B108485C211DF01BF80130B8
:107C800059E7054976E7044918E70349DBE6024866
:107C900051E700BF402E0020AC4F0400001001400F
:107CA00008500400145004003C2E002058500400DA
:107CB00020500400F0B587B006AB03E907009DF83B
:107CC0000C30012B01D007B0F0BDA84C236859043B
:107CD00038D5A74E3368032B34DDA6482F211CF07E
:107CE000E9FF002800F0C7802F21A2481CF0E2FF26
:107CF000411CA14DA14B2A78A14FD3F80435019224
:107D000000975222042014F03DFD23685A041AD52E
:107D10003368032B17DD97482F211CF0CBFF002879
:107D200000F0F1802F2193481CF0C4FF411C934BBD
:107D30006878D3F80435019000975322042014F09A
:107D400021FD00E08C4DAB788E4A0121172B11707C
:107D500050D18948FFF722FE00284BD0236813F446
:107D6000804303D0824A1268032A6CDC864F2C7948
:107D70003A78864EA2421CBF0122327032782AB96C
:107D8000834AE9781278914200F08180814A127822
:107D9000002A40F09B80CBB1754B1B68032B15DD8F
:107DA00074482F211CF086FF002800F0D3802F217B
:107DB00070481CF07FFF411C704B774AD3F80435A4
:107DC000009201947722042014F0DCFC412C36D080
:107DD000422C2ED00120FFF75DFC674800F07AFAB4
:107DE000FFF75EFC6A4BE9782A79197000233A7034
:107DF000337068E723685B047FF565AF5C4B1B68F5
:107E0000032B7FF760AF5B482F211CF053FF002846
:107E100000F084802F2157481CF04CFF411C574B29
:107E20005E48D3F8043500905822042014F0AAFCD0
:107E300049E75B4B00221A7019F0CCFDD2E7584B92
:107E400000221A70C6E74B482F211CF033FF002890
:107E500073D02F2147481CF02DFF411C474B514A3E
:107E6000D3F80435009204205C2214F08BFC2368C4
:107E700003F480437AE73F485C211CF01BFF002895
:107E800059D05C213B481CF015FF411C31E7002B09
:107E90003FF419AF364B1B68032B7FF714AF3548FF
:107EA0002F211CF007FF002800F0918031482F217E
:107EB0001CF000FF0130314B3B49D3F804350091F1
:107EC00069220146042014F05DFCFCE6002B3FF41F
:107ED000FAAE274B1B68032B7FF7F5AE25482F2101
:107EE0001CF0E8FE002863D02F2122481CF0E2FE9F
:107EF000411C224B2C48D3F80435009073220420F7
:107F000014F040FCDFE61B485C211CF0D3FE80B17E
:107F10005C2118481CF0CEFE411C08E715485C2186
:107F20001CF0C8FEA0B15C2112481CF0C3FE411C2D
:107F300075E71049FBE60F49DBE60E485C211CF0B3
:107F4000B9FE98B35C210B481CF0B4FE411C85E7D8
:107F5000084964E707485C211CF0ACFE98B35C213B
:107F600004481CF0A7FE411C26E700BF402E00205D
:107F70003C2E0020AC4F0400D82F00200010014000
:107F80009050040001300020052E0020D42F002046
:107F9000042E00200C4D0020CC500400A4500400FE
:107FA000062E0020B0500400BC5004000E4955E7D6
:107FB0000D485C211CF07EFE38B15C210A481CF0A3
:107FC00079FE411C95E70849F6E6074991E706481E
:107FD0005C211CF06FFE28B103485C211CF06AFE96
:107FE000013068E7004866E7AC4F04002DE9F04F28
:107FF000A54D0FCD89B002AC0FC495E803001E2635
:1080000084E803001D271A241F25A04AA04802A9BE
:10801000CDE90267CDE9044501F064F8002840F09D
:10802000EE804FF0A043DFF89CA240F20132C3F88B
:1080300078279AF800303BB3DFF88C92954EDFF842
:108040008C82954F954CDFF888B2002599F8003066
:1080500003BB3B7831687BBB2220009098F800205E
:108060008F4B8B4801F050F988B92570237823B9DC
:10807000FFF792FC2378002BFAD0012001F010F8D2
:108080009AF80030002BE1D109B0BDE8F08F1BF069
:10809000B9FEEAE703201CF0DFFC40F20523038071
:1080A00008238370032388F800303B783060014652
:1080B00089F80050002BCFD008461CF0D5FC356065
:1080C0003D7000F04BF9DBF800305B0403D5754BD5
:1080D0001B68032B01DC3168BEE773482F211CF0BD
:1080E000E9FD002800F08E802F216F481CF0E2FD92
:1080F000411C6E4B6E4AD3F8043500920420A8222E
:1081000014F040FBDBF800305804E4D5654B1B68E5
:10811000032BE0DD64482F211CF0CCFD002800F08B
:108120009D802F2160481CF0C5FD411C33685A79A1
:108130005E4BD3F8043501925E4A00920420A922D6
:1081400014F020FBDBF800305904C4D5554B1B68F4
:10815000032BC0DD54482F211CF0ACFD002867D054
:108160002F2151481CF0A6FD411C33681A794F4B52
:10817000D3F804350192504A00920420AA2214F048
:1081800001FBDBF800305A04A5D5464B1B68032BD6
:10819000A1DD45482F211CF08DFD002853D02F2153
:1081A00041481CF087FD411C3368DA783F4BD3F817
:1081B00004350192414A00920420AB2214F0E2FA05
:1081C000DBF800305B0486D5364B1B68032B82DD61
:1081D00035482F211CF06EFDF8B12F2132481CF0DC
:1081E00069FD411C33689A78304BD3F8043501920D
:1081F000334A00920420AC2214F0C4FA6BE71BF05F
:1082000001FE0EE728485C211CF054FD88B35C2178
:1082100025481CF04FFD411C6BE723485C211CF0F6
:1082200049FD40B35C2120481CF044FD411CD9E7C6
:108230001D485C211CF03EFD08B35C211A481CF06F
:1082400039FD411C91E718485C211CF033FDA0B1B9
:108250005C2115481CF02EFD411CA5E712485C214D
:108260001CF028FD68B15C210F481CF023FD411C67
:108270005CE70D493DE70C49B4E70B4994E70A492F
:1082800073E7094952E700BF64510400B57C02005E
:108290007C510400FC2F0020EC2E00200130002037
:1082A000D82F00203C2E0020AC4F040000100140CD
:1082B000E050040000510400185104003051040043
:1082C0004C510400062E0020032E00200030002018
:1082D000402E002038B505461F201CF0BDFBA0B382
:1082E0001F22002104461CF0E5FBEA792B7AA979CC
:1082F000D5F80100206002F0070242EAC302D5F877
:108300000D30C4F80A306B7FA376104B62711C608D
:10831000AA7F6B79E276EA7F227703F00F032A8C3B
:10832000A4F81D2043EA0113D5F81520D5F8111043
:108330002371C4F81220D5F81930D5F80920C4F8F3
:108340000E10C4F80620C4F8163038BD04300020E2
:10835000014B1868704700BF0430002070B582B030
:10836000134C144D684600F055F99DF80430237005
:108370002078009E1CF070FB2860B0B1237873B1A8
:10838000337803702378012B09D9324601232968F9
:1083900012F8010FC854217801339942F7D83046BA
:1083A00002B0BDE870401CF05FBB02B070BD00BF02
:1083B00000300020FC2F002030B4304D002105F5A6
:1083C0000074084648F2050C2AE05A0093B212B233
:1083D000002A34DB5A0093B212B2002A35DB5A006D
:1083E00093B212B2002A36DB5A0093B212B2002ABC
:1083F00037DB5A0093B212B2002A38DB5B009AB224
:108400001BB2002BACBF52008CEA420225F8022FAF
:1084100000F5807001F50071AC4280B289B22BD0BA
:1084200003044BBF8CEA01030AB21AB20B46002ABE
:10843000CBDA8CEA43031AB2002A9BB2CADA8CEA7E
:1084400043031AB2002A9BB2C9DA8CEA43031AB278
:10845000002A9BB2C8DA8CEA43031AB2002A9BB204
:10846000C7DA8CEA43031AB2002A9BB2C6DA8CEA56
:10847000430213B292B2C4E730BC7047063000200A
:10848000002940F3828010B501385E4C00EB010EEC
:10849000002110F8012F02F00103002B0BBF402335
:1084A000C0234FF0000C4FF0800C12F0020F08BFF9
:1084B000634612F0040F18BF43F0200312F0080FB8
:1084C00018BF43F0100312F0100F18BF43F0080359
:1084D00012F0200F18BF43F0040312F0400F18BF32
:1084E00043F00203D20918BF43F0010383EA1123CA
:1084F000DBB2704534F8133083EA012189B2C8D168
:1085000011F0010F14BF4FF4004000204B088C07FE
:1085100048BF40F48040990748BF40F400505A07D4
:1085200048BF40F480501C0748BF40F40060D906A3
:1085300048BF40F480609A0648BF40F400705C0673
:1085400048BF40F48070190648BF40F08000DA054B
:1085500048BF40F040009C0548BF40F0200059054E
:1085600048BF40F010001A0548BF40F00800DC0486
:1085700048BF40F00400990448BF40F002009B0B44
:1085800018BF40F0010080B210BD00239A071846C2
:1085900048BF43F40050590748BF40F480501A07C1
:1085A00048BF40F40060D90648BF40F480609A0696
:1085B00048BF40F40070590648BF40F480701A0666
:1085C00048BF40F08000D90548BF40F040009A0500
:1085D00048BF40F02000590548BF40F010001A0580
:1085E00048BF40F00800D90448BF40F004009A0496
:1085F00048BF40F002009B0B18BF40F0010080B262
:10860000704700BF08300020014BC3E900017047EC
:1086100008320020024AD2E90021C0E90021704757
:108620000832002010B5044615F05AFA10B123782C
:108630000E2B00D010BDBDE81040002011F07CBA18
:108640000378142B00D07047C3880F2BFBD8024B44
:1086500001221A70704700BF6832002070B582B0E6
:10866000002849D00E46054611F01CF9044610B109
:10867000204602B070BD04F05FFF02F08DFD286956
:108680000BF08AFE04460028F2D12A7FAB69CDE9BF
:10869000003201466B691A484FF6FF720CF068FA17
:1086A00004460028E4D12B6A03B19847154811F01D
:1086B000D7F917F02BFE134811F0D4F904F0F2FCAF
:1086C000054602F03BF90B2D0AD00B2808D00E4BC3
:1086D0001B782BB908F034FB002EC9D03070C7E7E7
:1086E00012F0B4F90B2402F01DFD04F0C3FE10F0EB
:1086F00065FA16F04BFAEDE70E24204602B070BD85
:1087000010320020142E00206832002011F03EB9F3
:1087100008B512F09BF902F005FD04F0ABFE10F075
:108720004DFABDE8084016F031BA00BF08B515F0A3
:10873000D7F920B1BDE80840002011F0FDB9BDE82F
:108740000840014811F08CB9082E00202DE9F047AF
:10875000DFF8AC80D8F8000058B3254D254FD5F888
:1087600000A0254E00244FF0010909FA04F313EA92
:108770000A0F10D0E05D1F28324694BF4FF0A04290
:1087800000F01F01D2F8043598BF0146CB40DA074C
:108790000CD500F0EDF90134042CE6D1D8F80040F6
:1087A000013CC8F800403CB1BDE8F08700F0D0F9CA
:1087B000F1E71BF027FBD0E710480E4FDFF84480AD
:1087C0001BF088F901262B6806FA04F21A4207D03A
:1087D000D8F80030E05DE340DB0706D500F0C8F9CB
:1087E0000134042CEFD1BDE8F08700F0B1F9F7E7D0
:1087F00070320020885104000003005074320020C1
:108800006C32002094320020002A5ED01329F8B583
:108810000C4600D8F8BD2D4B2D4D5200013A1A6080
:1088200010F00103286007D04FF0A043D3F80435BF
:108830006FEA533303F00103860709D54FF0A042D6
:10884000D2F804256FEA9232520002F0020213437A
:10885000410709D54FF0A042D2F804256FEAD23281
:10886000920002F004021343020709D54FF0A04220
:10887000D2F804256FEA1242D20002F00802134334
:10888000144900260B604FF400424FF4FA70314651
:10889000E4FB020100234FF47A721BF023FF3246FF
:1088A00001460D481BF0BAF804460028B2D10B4F20
:1088B0002E68012505FA04F3334202D0385D00F03A
:1088C00057F90134042CF5D1F8BD70476C32002003
:1088D000703200209432002074320020885104004D
:1088E00030B583B000F08AF8E0B1144C00230122C7
:1088F000ADF804308DF806308DF80520251D14F8EC
:10890000010B01A900F084F848B9AC42F7D10C4A38
:108910000C4801211BF070F858B903B030BD1BF0B2
:1089200071FAF2E700F010F80028DED01BF06AFAC6
:10893000DBE71BF067FA03B030BD00BF88510400CD
:108940004D8702008451040030B5284C94F86A30F9
:1089500083B0002B46D14FF6FF704FF0FF0C5A0941
:10896000012A18BF4FF0FF3103F01F0208BF014674
:1089700021FA02F2D20748BFE21803F1010348BF0F
:1089800082F830C0302BEAD14FF0FF304FF0FF318A
:108990004FF0FF33C4E9000106220021144823668A
:1089A000C4E90233C4E90433C4E90633C4E9083333
:1089B000C4E90A331CF07EF80E4BC02283F806236C
:1089C00040221A600C4B0020C3F87C01D3F87C21B4
:1089D000019201214FF00042019D84F86A10C3F812
:1089E000042300E0082003B030BD00BF983200200F
:1089F000FC32002000E100E000600040034B93F8EF
:108A00006A00003818BF0120704700BF983200206C
:108A10004C4B1A1892F930C0BCF1FF3F01D008202E
:108A2000704710B48C78ECB11A68013247D05A689C
:108A300001327CD09A6801327BD0DA68013274D07E
:108A40001A69013277D05A69013276D09A690132B7
:108A500075D0DA69013208BF072231D004205DF8F1
:108A6000044B7047FE2382F830304B78012B4FD0F7
:108A70001F2887BF344A00F01F0101464FF0A04273
:108A800001238B40C2F80C351F288BBF00F01F0359
:108A900003462D4A4FF0A04203F5E073032142F84C
:108AA0002310C208294900F007008C5C012303FA57
:108AB00000F0204388545DF8044B002070470022EA
:108AC0001C1884F83020002443F8224093004C788E
:108AD0000A782405120404F4801403F1804302F49C
:108AE000403203F5C0432243040204F47C54224381
:108AF000D3F8104524F4991424F4F854C3F810451D
:108B0000D3F810452243C3F810254B78012BAFD181
:108B10001F2887BF0C4A00F01F0101464FF0A042FA
:108B200001238B40C2F80835AEE70322C8E70122D3
:108B3000C6E70222C4E70422C2E70522C0E70622F4
:108B4000BEE700BF9832002000030050FC32002036
:108B50001F2886BF054A00F01F004FF0A0420123E6
:108B600003FA00F0C2F80805704700BF0003005088
:108B70001F2886BF054A00F01F004FF0A0420123C6
:108B800003FA00F0C2F80C05704700BF0003005064
:108B90002DE9F047002384B0CDE902331C4AD2F816
:108BA0000011012900F030821E46194BD3F8042130
:108BB000012A00F01A82164BD3F80821012A00F08E
:108BC0000582134BD3F80C21012A00F0F081104BE1
:108BD000D3F81021012A00F0DB810D4BD3F81421CA
:108BE000012A00F0C1810A4BD3F81821012A00F0B4
:108BF000AC81074BD3F81C21012A0BD0044BD3F8CE
:108C00007C21012A00F0218256BB04B0BDE8F08728
:108C100000600040D3F804231206EFD50022C3F809
:108C20001C21D3F81C110091D3F87C110098012964
:108C300046F0800614D1C3F87C21D3F87C3101932F
:108C40004FF0A042019BD2F82015CF4B0291C2F801
:108C50002015D3F820250392C3F8202546F00046BE
:108C6000CA4F01250024A30003F18043354203F5D8
:108C7000C0434FEA45050BD0D3F8100557F8242020
:108C8000D3F81015C0F30520C1F3014102B190479C
:108C90000134082CE7D1002EB7DABC4CBA4E0125BE
:108CA0004FF0A04794F96000431C48D0C0F3C202C3
:108CB00002F110030DEB030200F0070312F8082C79
:108CC00005FA03F31A42C1B200F03F0037D01F2863
:108CD00000F22B8102464FF0A04909EB820305FA0E
:108CE00002F2D3F800C7D3F800E72EF4403EC3F8F1
:108CF00000E704EB000ECCF3014C9EF930E0D3F812
:108D000000A754F82E80BCF1020F0CBF4FF4403E78
:108D10004FF4003E4EEA0A0EC3F800E7C9F82025DA
:108D2000B8F1000F0BD08909032900F08281BCF152
:108D3000020F00F07B81BCF1030F00F0A68194F9D3
:108D40006100411C48D0C0F3C20202F110030DEBD8
:108D5000030200F0070312F8082C05FA03F31A4285
:108D6000C1B200F03F0037D01F2800F2E280024677
:108D70004FF0A04909EB820305FA02F2D3F800C7CD
:108D8000D3F800E72EF4403EC3F800E704EB000EF2
:108D9000CCF3014C9EF930E0D3F800A754F82E80B4
:108DA000BCF1020F0CBF4FF4403E4FF4003E4EEAC0
:108DB0000A0EC3F800E7C9F82025B8F1000F0BD060
:108DC0008909032900F03A81BCF1020F00F03381D8
:108DD000BCF1030F00F05D8194F96200421C48D0A1
:108DE000C0F3C20202F110030DEB030200F007030F
:108DF00012F8082C05FA03F31A42C1B200F03F0042
:108E000037D01F2800F2998002464FF0A04909EBA5
:108E1000820305FA02F2D3F800C7D3F800E72EF474
:108E2000403EC3F800E704EB000ECCF3014C9EF982
:108E300030E0D3F800A754F82E80BCF1020F0CBF2D
:108E40004FF4403E4FF4003E4EEA0A0EC3F800E7EE
:108E5000C9F82025B8F1000F0BD08909032900F0CB
:108E6000F280BCF1020F00F0EB80BCF1030F00F0C8
:108E7000088194F96300431C47D0C0F3C20202F199
:108E800010030DEB030200F0070312F8082C05FA9B
:108E900003F31A42C1B200F03F0036D01F2850D869
:108EA00002464FF0A04909EB820305FA02F2D3F81B
:108EB00000C7D3F800E72EF4403EC3F800E704EB08
:108EC000000ECCF3014C9EF930E0D3F800A754F823
:108ED0002E80BCF1020F0CBF4FF4403E4FF4003E19
:108EE0004EEA0A0EC3F800E7C9F82025B8F1000FD2
:108EF0000BD08909032900F09780BCF1020F00F024
:108F00009080BCF1030F00F0B880D7F820250292C2
:108F1000C7F82025D6F820350393C6F8203513432B
:108F20007FF4C0AE04B0BDE8F08701F01F02B14687
:108F3000D3E601F01F02B1461CE701F01F02B14663
:108F400065E701F01F02B146ADE7D3F804235106EF
:108F50007FF54FAE0022C3F81821D3F818310093E3
:108F6000009B46F0400644E6D3F8042390067FF5C4
:108F70003AAE0022C3F81421D3F814310093009BB9
:108F800046F020062FE600BF000300509832002074
:108F9000D3F80423D4067FF520AE0022C3F81021B5
:108FA000D3F810310093009B46F0100615E6D3F875
:108FB000042315077FF50BAE0022C3F80C21D3F86C
:108FC0000C310093009B46F0080600E6D3F804231A
:108FD00057077FF5F6AD0022C3F80821D3F8083112
:108FE0000093009B46F00406EBE5D3F804239207B8
:108FF0007FF5E1AD0022C3F80421D3F804310093DA
:10900000009B46F00206D6E5D2F8046316F001068E
:109010003FF4CBADC2F80031D2F800310093009B91
:10902000C3E501297FF471AFC0476EE701297FF4E2
:1090300086AEC04783E601297FF4CEAEC047CBE6BB
:1090400001297FF416AFC04713E70022C3F87C2143
:10905000D3F87C3101934FF0A042019BD2F8201548
:109060000E4B0291C2F82015D3F820250392C3F8C5
:109070002025002E3FF411AEF0E502297FF445AF24
:10908000D2E702297FF4F5AEDDE702297FF457AE7F
:10909000CFE702297FF4A0AED0E700BF0003005065
:1090A0000A4B185C1F288ABF09494FF0A04100F005
:1090B0001F00D1F804350122824022EA0300134048
:1090C000C1F80805C1F80C35704700BF8C51040089
:1090D000000300508C46024B07C853F82C30184749
:1090E0000433002010B4044C037944F82320034ACD
:1090F0005DF8044B00F004B804330020D590020062
:109100002DE9F04F90F804C07B4DCCEBCC0405EB7F
:10911000840483B0247D002C40F0DD800C7C032C83
:1091200000F2DD800E680468FF2E9B464FEACC07F4
:1091300000F0C1801F2E91F813E086BFDFF8C481D4
:1091400006F01F064FF0A04806F5E0764FEA0E2E17
:1091500048F826E04E68D1F80080FF2E00F0B1807C
:109160001F2E86BF06F01F06DFF898E14FF0A04ED5
:1091700006F5E0764FF000094EF82690D1F80490FD
:10918000CE6891F812E01F2E86BF06F01F06DFF8AA
:1091900074A14FF0A04A06F5E0764FEA8E0E4AF829
:1091A00026E08E681F2E88BF06F01F0606F5E07EBB
:1091B0008CBFDFF850A14FF0A04A00264AF82E607D
:1091C000D1E9023EC4F80835C4F81095C4F80C85FE
:1091D000C4F814E5C4F83465C4F83865C4F84465C7
:1091E000C4F848654E7C91F810E0003E18BF012697
:1091F000BEF1020F77D0BEF1030F77D0BEF1010FA1
:1092000077D0C4F854650E7DC4F85C654E7DC4F813
:10921000C0650026C4F80461D4F804E1CDF804E088
:10922000DDF804E0C4F82861D4F828E1CDF800E0C6
:10923000DDF800E0D4F80032A7EB0C0E05EB8E0E43
:1092400043F00403C4F8003240F202438EF8156084
:10925000CEF80820CEF818B0C4F8043302688B7D2D
:1092600042F30731B1424FEA12322DDB01F1604186
:109270005B0101F56141DBB281F80033036843F320
:109280000732002A4FEA133308DB1C485209012138
:1092900003F01F0301FA03F340F82230A7EB0C0C94
:1092A00005EB8C050122022300202A75C4F8003545
:1092B00003B0BDE8F08F4E68FF2E4FF0FF387FF40B
:1092C0004FAF4FF0FF395BE70D4902F00F025B0132
:1092D000DBB28B54D2E7082003B0BDE8F08F072043
:1092E00003B0BDE8F08F46F004068AE746F00606B4
:1092F00087E746F0020684E71033002000E100E033
:1093000014ED00E00003005090F804C0BCF1020F1F
:109310004ED870B58CB00C461099B1F5803F39D25B
:10932000B2F5803F36D224B104F06041B1F1005F64
:1093300033D123B103F06041B1F1005F2DD14B492E
:10934000CCEBCC0E01EB8E0E4FEACC069EF81550FE
:10935000012D5FFA85FE30D004D9AEF1020EBEF1C8
:10936000010F27D8A6EB0C0C4FEA8C054A5101EBF4
:109370008C01C1E90343109A4A60012500684D75CC
:109380004A7D022AD3B256D0032B47D0AB4243D0FA
:10939000002000E009200CB070BD354A126852046C
:1093A00003D5344A1268032A09DC10200CB070BDC2
:1093B0000920704703200CB070BD0820EBE72E4851
:1093C00007932F211BF076FC079B00283DD02F210F
:1093D00029481BF06FFC079B411C284803F06042A2
:1093E000D0F80405CDE9034304F06044A2F1005233
:1093F000A4F10054224BB2FA82F2B4FA84F4520976
:109400006409CDE900340292034640F29B12042025
:1094100013F0B8F91020BEE74362B9E7D0F83C4535
:10942000D0F84C258B688DF82450CDE90A42896923
:1094300009A89847ACE700238A688DF82430CDE965
:109440000A33896909A89047A2E70B4807935C2172
:109450001BF030FC079B30B15C2107481BF02AFC55
:10946000079B411CB9E70449B7E700BF1033002050
:10947000402E00203C2E002090510400001001409E
:10948000EC51040030B53B4BD3F8282187B05AB1DA
:109490000020C3F82801D3F82811374A0191019917
:1094A000517D0129CCB21CD0324BD3F8042152B1EA
:1094B0000020C3F80401D3F804112F4A0291029945
:1094C000517D022901D007B030BD03215175547D73
:1094D000022CE1B245D0032935D00129F3D15962DC
:1094E000F1E71168D568C3F84455C3F848155168C9
:1094F0001569C3F83455C3F8381502219C625175BB
:1095000092F815C0BCF1020F5FFA8CF112D003295A
:1095100003D00129C8D15962C6E78DF80C40D3F8B1
:109520003C150491D3F84C0505909368916903A804
:109530009847B9E7CDE904008DF80C00936891696C
:1095400003A89847B0E701218DF80C10D3F83C151B
:109550000491D3F84C0505909368916903A8984746
:10956000B1E7CDE904008DF80C009368916903A878
:109570009847A8E7003000401033002030B54FF086
:10958000402387B0D3F8282162B10020C3F8280116
:10959000D3F82811394A0191019992F83110012923
:1095A000CCB220D04FF04023D3F804215AB1002090
:1095B000C3F80401D3F80411304A0291029992F8D9
:1095C0003110022901D007B030BD032182F83110DB
:1095D00092F83140022CE1B246D0032936D001295D
:1095E000F1D15962EFE7D169956AC3F84455C3F8E0
:1095F0004815116AD56AC3F83455C3F838150221E5
:109600009C6282F8311092F831C0BCF1020F5FFA0F
:109610008CF112D0032903D00129C3D15962C1E7CB
:109620008DF80C40D3F83C150491D3F84C05059007
:10963000536A516B03A89847B4E7CDE904008DF84D
:109640000C00536A516B03A89847ABE701218DF8D2
:109650000C10D3F83C150491D3F84C050590536ACF
:10966000516B03A89847AEE7CDE904008DF80C00D4
:10967000536A516B03A89847A5E700BF1033002039
:1096800030B53E4BD3F8282187B062B10020C3F833
:109690002801D3F828113A4A0191019992F84D1006
:1096A0000129CCB21FD0354BD3F804215AB1002088
:1096B000C3F80401D3F80411314A0291029992F8D7
:1096C0004D10022901D007B030BD032182F84D10A2
:1096D00092F84D40022CE1B246D0032936D0012940
:1096E000F1D15962EFE7916B556CC3F84455C3F85B
:1096F0004815D16B956CC3F83455C3F83815022161
:109700009C6282F84D1092F84DC0BCF1020F5FFAD6
:109710008CF112D0032903D00129C4D15962C2E7C8
:109720008DF80C40D3F83C150491D3F84C05059006
:10973000136C116D03A89847B5E7CDE904008DF8C7
:109740000C00136C116D03A89847ACE701218DF84C
:109750000C10D3F83C150491D3F84C050590136C0C
:10976000116D03A89847AEE7CDE904008DF80C0011
:10977000136C116D03A89847A5E700BF00300240A5
:109780001033002060DF704769DF704710F06CB95C
:1097900010B588B000F026F9002854D1324B03935D
:1097A000039B04930C22002105A81BF083F90023DE
:1097B000049A8DF8143005A90120FFF7E5FF002871
:1097C0003ED10C22002105A81BF074F9F823049A5D
:1097D000059305A9A120FFF7D7FF70BB04A8FFF7E9
:1097E000D1FF039B049A9A42044603D01F4B1B6887
:1097F0005B0402D4E4B908B010BD1D4B1B68012BFB
:10980000F8DD1C482F211BF055FAF8B12F2119481B
:109810001BF050FA411C0498174A184BD3F8043532
:10982000CDE90020AB22022012F0ACFF002CE2D0E8
:1098300020461AF0E7FA08B010BD1AF0E3FACDE7B7
:109840001AF0E0FABDE71AF0DDFAA7E709485C2153
:109850001BF030FA28B15C2106481BF02BFA411CA2
:10986000D9E70449D7E700BF002E0020402E002092
:109870003C2E0020285204009052040000100140A9
:1098800070B4EFF3108472B60D4B9A68AAB9012137
:1098900099600C490C4ED1F8805035401D60C1F8DC
:1098A0008060D1F884505D604FF0FF33C1F88430A0
:1098B000027004B962B670BC704701230370F8E708
:1098C0008033002000E100E0FC06FFBD094B9A68F0
:1098D0007AB170B910B4EFF3108172B6064A1C6801
:1098E00014605C685460986001B962B65DF8044B1E
:1098F000704770478033002000E100E001600B6892
:1099000043604A68934204BF00234360704700BF2E
:10991000436843B1026891680B44436052689342C4
:1099200004BF0023436070474BDF704710B5124CF3
:1099300084B001A8FFF7F8FFA8B9214602A8FFF7F5
:10994000DDFF039B002BF4D0D3E900310198984749
:1099500002A8FFF7DDFF039B002BF5D101A8FFF75D
:10996000E3FF0028E9D0052801D104B010BD04B000
:10997000BDE810401AF046BACC52040061DF7047CF
:10998000154B1B7833B330B5144D91B034240DF121
:10999000020103A8ADF80240FFF7F0FF88B929469D
:1099A00001A8FFF7ABFF029B002BF0D0D3E90031F9
:1099B00003A8984701A8FFF7ABFF029B002BF5D146
:1099C000E5E7052801D111B030BD11B0BDE8304048
:1099D0001AF018BA704700BF8C330020D852040028
:1099E00010DF704770B53D4D2B7884B0002B67D1E8
:1099F0003B4E3C49012302A83370FFF77FFF039BD6
:109A000023B90FE0FFF784FF039B5BB1D3E900317B
:109A100000209847034602A8002BF3D11C4620469D
:109A200004B070BD304902A8FFF768FF039B4BB13B
:109A3000D3E900310020984702A8FFF769FF039B94
:109A4000002BF5D1294B00221B68019302A88DF849
:109A50000820FFF715FF264901A8FFF7C1FFB0FA5C
:109A600080F304465B099DF808002B70FFF72EFF7A
:109A7000002CD4D11F4B20491C70347091F8162350
:109A8000EC2352091341DB071ED51C4B9A6802B325
:109A90001A6842F480021A60134902A8FFF72EFFE9
:109AA000039B002BBBD0D3E900310120984702A8CB
:109AB000FFF72EFF039B002BF5D1204604B070BDAD
:109AC0000824204604B070BD42F202001AF09AF950
:109AD000E2E74FF480030B60DEE700BF8E33002027
:109AE0008D330020E852040000530400E4520400C7
:109AF000690D03008F33002000E100E08033002077
:109B000000B583B008496846FFF7F8FE019B43B1F2
:109B1000D3E9002090476846FFF7FAFE019B002B2F
:109B2000F6D103B05DF804FBF4520400817801F033
:109B30000303032B34D8DFE803F029231E0289082E
:109B400041F2707201FB02F230B4164B164D1968E7
:109B50002B6811448160002423B91DE0DA681C469B
:109B6000B2B113469A688A1A002AF7DAA4B1E06003
:109B700030BCC36070478908642201FB02F2E3E74E
:109B800001F0FC0202EB91014A00DDE78A08DBE705
:109B9000D86030BCC26070472860C36030BC70477A
:109BA0007B4600BFA8330020B03300202DE9F041F0
:109BB0006F4D2B78002B36D16E4C22688AB36E4ED7
:109BC0003378977807F003019942C7F3010740F310
:109BD00093806A48032B006800F2C5809268684C45
:109BE000121A6848022900FB02F254F82300B2FB63
:109BF000F0F266D0032942D0012953D010F0E8FDDD
:109C00003378032B804600F29E8054F8233098442A
:109C10002B785D48002B67D04146BDE8F04110F03D
:109C200075BCBDE8F081584B534E5F6810F0D0FD15
:109C30003378032B04466ED8514A52F823204F49FB
:109C4000E01B10443BB94CF25032904203D90A68F1
:109C500001320A6007E04D4A4009A2FB00200A6871
:109C600002EBD0100860434C2268002AA9D12B785F
:109C7000002BD6D0BDE8F041434810F0FBBB002BD1
:109C800059D0012B63D1424B03FB02F2414BB3EBA2
:109C9000F20FB3D310F09CFDDFF81881032380444A
:109CA0003370B5E73C4B03FB02F23C4BB3EB720F56
:109CB000A4D310F08DFD00F5742808F510783770E6
:109CC000A6E773B3012B99D103F1CC3303FB02F266
:109CD000324BB3EB720F91D310F07AFDDFF8D880DE
:109CE00002238044337093E70123C0F804802B7073
:109CF000BDE8F04110F050BB10F06AFD23689B787E
:109D0000C3F30102327003F003031D4A52F82330FB
:109D100000EB03087CE7784607F04CF93378002223
:109D20008DE71F4B03FB02F203F18043013BB3EBD2
:109D3000B20FD1D262E71B4B03FB02F21A4BB3EB1B
:109D4000321FA7D25AE7784607F034F960E7022BB2
:109D50007FF454AF154B03FB02F2154BB3EBB20F7C
:109D6000FFF44CAF96E7784607F024F9FFDE00BF1A
:109D7000AC330020B0330020AD330020A8330020E6
:109D80000C530400A086010090330020C55A7C0AC1
:109D900063C92F96063A6D00CDCCCCCC9999991910
:109DA000295C8FC24728A3B733EC0A00EFEEEEEE32
:109DB000444444040046C323809698002DE9F041B2
:109DC0002D4B1B7882B0032B52D8DFE803F04C47B1
:109DD00042022A4E336803F5BB5310333360284FD9
:109DE000284B3C684FF0000883F80080002C2BD0F3
:109DF000224E07E06368019998472046FFF796FED8
:109E00003C680CB33268A368934201A903D032685E
:109E10009B1A002B18DA2588E3683B602846CDF8AA
:109E2000048002F0CFF903462846002BE2D07846A2
:109E300007F0C0F863680199284698472046FFF765
:109E400075FE3C68002CDDD102B0BDE8F041FFF7A3
:109E5000ADBE0A4E336864333360C0E7074E3368E3
:109E60000A333360BBE7054E336801333360B6E72E
:109E7000784607F09FF8B2E7AD330020A833002002
:109E8000B0330020AC33002038B5084C084D182200
:109E9000002120461AF00EFE06480749074AA56031
:109EA000002303600B60137038BD00BF90330020A7
:109EB000BD9D0200A8330020B0330020AC33002049
:109EC00038B50B4C237873B90A4D18220021284667
:109ED0001AF0F0FD0849094A0948A86000230B6000
:109EE0001360237038BD034810F0C4FAECE700BFDC
:109EF000AC33002090330020A8330020B033002082
:109F0000BD9D0200F8B50D461746044600283CD01A
:109F1000234E11F0E9F9336843B19C4202D124E0A9
:109F20009C420DD01A46DB68002BF9D105F00305E1
:109F300045EA8705A57067B9BDE8F84011F016BA83
:109F400005F00305E36845EA8705A570D360002F97
:109F5000F2D02046FFF7EAFD33689C42ECD1FFF7D0
:109F600025FEBDE8F84011F001BA05F00305E368ED
:109F7000336045EA8705A570002FF0D02046FFF733
:109F8000D5FD33689C42D7D1E9E77846044E07F007
:109F900011F811F0A9F93368002BC3D1C6E700BF4F
:109FA000B033002070B5884CB4F860300546002B03
:109FB00063D094F8393005F57A7623B1236B9B1B77
:109FC000002BC0F2978094F85D30002B48D0636D71
:109FD0009B1B002B5FDB94F83930002B31D194F8B8
:109FE0005D30002B32D1B4F860304FF6FF72A4F828
:109FF0006220002B31D0784606F0DCFFB4F86230E6
:10A0000003EBC30304EB83031B6B5A1B48BFEA1A21
:10A01000E26070BD784606F0CDFF94F85C30013BFD
:10A02000DBB284F85C30002B00F08880D4E9153274
:10A030001344636594F83930002BD0D094F85D3028
:10A0400093B1236B626DD21A002A1ADAB4F8603029
:10A050000122A4F86220002B5FD10023E36070BDD1
:10A0600094F83930002BBAD0B4F860300022A4F84C
:10A070006220002BF1D0236BC7E7784606F09AFFE9
:10A0800097E7B4F860200021A4F86210002ABCD140
:10A090000023E360E3E7B4F85030E26C4B49012061
:10A0A00000F0EEFF1028B5D801A353F820F000BF50
:10A0B0001BA0020015A0020015A0020015A00200BE
:10A0C0001BA002003DA1020015A002003DA102005C
:10A0D0001BA002003DA1020015A0020015A0020075
:10A0E00015A0020015A0020015A002001BA002008E
:10A0F0003DA10200A38DA26A3549002000F0C0FFF7
:10A1000010280CD8DFE800F00E0B0B0B0E330B33CE
:10A110000E330B0B0B0B0B0E3300636D75E778469C
:10A1200006F048FF94F83830013BDBB284F8383051
:10A13000EBB1D4E90C231344236344E794F85D3076
:10A14000002B3CD0B4F860309BB3013B00229BB2A3
:10A1500084F85D20A4F860301BB94FF6FF73A4F8B3
:10A160006230E06C17F020F80023E36462E794F8B3
:10A170003930D3B1B4F860308BB1013B00229BB2CF
:10A1800084F83920A4F860301BB94FF6FF73A4F8A7
:10A190006230A06A17F008F80023A36213E778463C
:10A1A00006F008FFB4F86030E7E7784606F002FFF3
:10A1B000E0E7784606F0FEFEB4F86030C5E7784682
:10A1C00006F0F8FEBEE700BFB4330020F0330020F5
:10A1D000CC33002010B5064C6422002120461AF032
:10A1E00069FC044AA2604FF6FF73A4F8623010BD08
:10A1F000B4330020A59F02002DE9F04F83B0012861
:10A20000BDF8309005460F461646984677D8002F81
:10A2100000F0AF80002E00F0B2803B785B0774D076
:10A22000B8F1000F00F0A180B9F1000F00F09480A8
:10A230005C4C05EBC50304EB83034FEAC50A93F8B6
:10A240003930002B68D110F0C3FA0AEB050C04EB8F
:10A250008C0C0CF118030093B4F860304FF0010E31
:10A2600003EB0E028346019296E80F00009ECCF8A5
:10A27000288086E80F00ACF82C903B78019AC3F355
:10A2800002038CF838303B78A4F860204CF2503A46
:10A29000DB0803FB0AA30BEB03028CF839E0CCE9E3
:10A2A0000C2394F83930DBB194F85D3023B1636D41
:10A2B000226B9B1A002B01DB4FF0000EB4F86220DA
:10A2C000964573464CD0A4F862300EEBCE0E04EBEC
:10A2D0008E043448216B03B0BDE8F04F10F016B97E
:10A2E00094F85D30002BE9D1B4F862304FF6FF727C
:10A2F000934248D19D4248D003B0BDE8F08F7846E4
:10A3000006F058FE002F85D133E0784606F052FE65
:10A31000B8F1000F88D128E0B4F86030002B3AD0B3
:10A320000AEB0502013B04EB82029BB20021A4F878
:10A33000603082F839101BB94FF6FF73A4F8623011
:10A340000AEB050B04EB8B0BDBF8280016F02CFF57
:10A350000023CBF8283076E7784606F02BFE67E737
:10A360009D42B2D003B0BDE8F08F784606F022FEE1
:10A370005AE7784606F01EFE002E7FF44EAF784670
:10A3800006F018FE49E7A4F86220784606F012FEAF
:10A39000B4F862E099E7784606F00CFEB4F8603055
:10A3A000BEE700BFB4330020C0F30F43A3F5405312
:10A3B0009BB2012B82B016D80C4A107810F0040022
:10A3C00002D0002002B07047094A096802EBC30CB2
:10A3D000C943CCF8041012F8331021F0060102F83A
:10A3E000331002B07047052002B07047E8340020F7
:10A3F000EC340020000CB0F5804F82B005D1044B46
:10A400000A781A70002002B07047052002B0704729
:10A41000202E002010B5030C82B0012B01900C46B9
:10A4200002D0784606F0C6FD024B23600222A280CD
:10A4300002B010BD0200010010B5030C82B0012B68
:10A4400001900C4602D0784606F0B4FD6388012BDB
:10A450000DD1A388022B0AD12388022B07D1054AEC
:10A460001378002043F00103137002B010BD0B20DD
:10A4700002B010BDE834002030B5C0F30F44A4F59D
:10A48000405483B0A4B2012C01900D4602D9784605
:10A4900006F090FD034B03EBC4046368DB432B60C1
:10A4A00003B030BDEC34002010B5030C82B0B3F51E
:10A4B000804F01900C4602D0784606F07BFD024B9F
:10A4C0001B78237002B010BD202E002030B5040C84
:10A4D00083B0B4F5805F01900D4602D0784606F057
:10A4E00069FDA4F580540649A4B204EB4404022299
:10A4F00001EB4401284603B0BDE830401AF0CCBA65
:10A500005C34002030B5C0F30F44A4F5005483B090
:10A51000A4B2012C01900D4602D9784606F04AFDFE
:10A520000549C4EBC404142201EBC401284603B05E
:10A53000BDE830401AF0B0BA7434002030B5C0F332
:10A540000F43A3F5005383B09BB2012B019022D897
:10A550001848007810F004041AD11748B1F80CE03C
:10A56000C3EBC30300EBC305DB00B5F80CC0E64545
:10A570000BD1C35A0888984207D148886B88984203
:10A5800003D1CA89EB899A4208D00B2003B030BDB1
:10A59000002003B030BD052003B030BD1422284692
:10A5A0001AF07AFA95F8343023F00603204685F83D
:10A5B0003430EEE7E8340020743400202DE9F04F09
:10A5C000D7B00446BDF880010590894F09A80E4612
:10A5D0001D46934602F0C2FFC4EBC40307EBC3035E
:10A5E000BDF82610B3F80C80414540F2DD80BDF87F
:10A5F00024100691E200BBF1000F00F0AB800BF1DC
:10A600000C0393E803009BF81C30BBF81EA0BBF8BA
:10A6100024B00DF1280989E80300002B40F0AA803E
:10A62000002D00F0B280059A002A00F0B7800CAC33
:10A6300024220021204607931AF03CFA514658463E
:10A6400012AA05F079FA074618B1384657B0BDE8A6
:10A65000F08F069B10959844079B8DF83A3099E847
:10A660000300059BADF84430B37AE372F37A2373A9
:10A6700084E80300F368ADF8388039462046236249
:10A680000FF0ECF907460028DFD15A4C23689A04F2
:10A69000DBD5DFF88081D8F80030042BD5DD5648B3
:10A6A0002F211AF007FB002800F090802F2152483C
:10A6B0001AF000FB411C514B3288D3F8043501924B
:10A6C0004F4A0092052040F2A91212F05BF823686D
:10A6D0009B04BAD5D8F80030042BB6DD059B802B3F
:10A6E0001A4628BF80229446002B7CD0454B15ACDF
:10A6F0001E68681E2146034610F8012F4FEA121EFD
:10A70000023116F80EE001F802EC023302F00F02FB
:10A710005B1BB25C01F8012C9C45ECD80023364849
:10A7200004F81C302F211AF0C5FA002843D02F213D
:10A7300031481AF0BFFA411C334A304BD3F8043584
:10A74000CDE90124314A009205204FF4D57212F070
:10A7500019F87AE70DF12809D888B3F804A0079210
:10A76000494603F087FD20BBB9F80230E3B1079AF0
:10A770004FF6FF7B121B07EBC2077B7CFF2B04BF4E
:10A78000234B1B78002D7FF44EAF0793784606F0DD
:10A7900011FC059A079B002A7FF449AF079378467E
:10A7A00006F008FC079B42E71027384657B0BDE883
:10A7B000F08F052749E710485C211AF07BFA80B139
:10A7C0005C210D481AF076FA411CB5E70A485C2175
:10A7D0001AF070FA48B15C2107481AF06BFA411C74
:10A7E00069E70549A8E715AC98E7034963E700BFA7
:10A7F00074340020402E00201C530400001001403F
:10A8000070530400442E0020845304008C53040031
:10A81000202E00203C2E0020000CB0F5805F82B07E
:10A8200012D10C4B187810F004000AD10A4B098899
:10A830001A8891420BD15A7922F006025A7102B05D
:10A840007047002002B07047052002B070470B200F
:10A8500002B07047E83400205C340020012870B555
:10A86000324D04460DD9C600784606F0A3FB0022FF
:10A870001146301B05EBC0001430BDE87040FFF7F7
:10A8800041BBC0EBC00205EBC202C60092F8341017
:10A8900011F00101E8D09369002BE5D0937C928CF4
:10A8A00003F0030002284FEA930330D0032816D1A7
:10A8B00041F2707003FB00F0B0FBF2F23F2A1FD9A7
:10A8C00040F276239A4213D941F69C039A4222D849
:10A8D000174BA3FB0232C2F347120221C9E701283A
:10A8E0000CD103EB83004000B0FBF2F23F2A07D902
:10A8F000104BA3FB0232C2F3C702BAE7B3FBF2F27A
:10A9000083B1012A38BF0122D2B20021B1E764200D
:10A9100003FB00F0D0E7084BA3FB0232C2F3C712DF
:10A920000321A6E71A461946A3E700BF74340020A6
:10A930001F85EB51CDCCCCCCF11976052DE9F04F2C
:10A94000B04E327842F0040212F0020585B0327047
:10A9500040F09380D007AC4C13460FD5A3464FF67A
:10A96000FF73BBF80C20DFF8A4929A424FF0010865
:10A970003FD10BF1380B002D33D03378A34D2A781B
:10A9800051077ED4970700F1A48022F006022A70B6
:10A990002A7A570700F18E80910700F1C38022F0D8
:10A9A00006022A729A4D6A7990076FD494F834108F
:10A9B00022F002026A718D074BD494F86C2021F0CA
:10A9C0000201970784F834102FD422F0020284F891
:10A9D0006C20DC0748BF002040F1DC8005B0BDE8FA
:10A9E000F08FBBF80C204FF6FF739A424FF0010531
:10A9F000BFD0BBF80600984203D002F009FF002840
:10AA00003BD1BBF80E30022B08D0DB00043309EB3E
:10AA1000030A59F80370002F40F09D80C5EBC50371
:10AA200004EBC30300229A74A3E75D0777D50222E3
:10AA300042F20103ADF80820ADF80A3075490298DA
:10AA400015F094FA002840F0EB80337894F86C20ED
:10AA5000BBE758075AD502224FF40053ADF808203F
:10AA6000ADF80A306849029815F080FA002840F0E5
:10AA7000DB80337894F834109FE70B2005B0BDE8F5
:10AA8000F08F590753D442F0040226E0590735D518
:10AA900061480290294615F069FA002840F0C88004
:10AAA0006A7994F83410337822F002026A718D07C3
:10AAB00083D5CEE7580717D5022243F20103ADF83C
:10AAC0000820ADF80A30029815F022FB2A7A337874
:10AAD00065E758076BD442F0020222F006022A70A2
:10AAE0002A7A51077FF558AF42F0040222F006029D
:10AAF0002A72474D6A7990077FF558AF94F8341061
:10AB000022F002028F076A717FF557AF94F86C202C
:10AB100021F0020184F8341091077FF556AF42F01E
:10AB2000020252E75F0756D442F00202DEE7022239
:10AB30004FF44053ADF80820ADF80A30029815F0F4
:10AB4000E7FA2A78337822F006022A702A7A570721
:10AB50007FF522AFAEE797FAA7F7B7FA87F7182F76
:10AB60003FF45CAF384603F00BFB013708FA07F2FD
:10AB70005242002881D1172F3FF650AFDAF800304B
:10AB800013403FF44BAF93FAA3F7B7FA87F7182FA8
:10AB9000E8D143E72148022302A9CDE90100ADF83D
:10ABA0000C3015F0E3F9002846D1052016E7022203
:10ABB000ADF808206B684FF44052ADF80A20DB4333
:10ABC0000298019301A915F0D1F90028B9D078466F
:10ABD00006F0F0F9B5E70222ADF80820EB6843F281
:10ABE0000102ADF80A20DB430298019301A915F098
:10ABF000BDF910B92A7A3378D1E6784606F0DAF949
:10AC0000F8E700BFE834002074340020EC34002062
:10AC10005C340020AC34002002000010020001006F
:10AC2000784606F0C7F910E7784606F0C3F920E742
:10AC3000784606F0BFF933E7784606F0BBF9B4E78B
:10AC40002DE9F04F00F1140491B00546204605F0BF
:10AC5000E5FF0023099300287CD04FF6FF73ADF881
:10AC60003A302B7D012B074600F0A380EA8A4FF68D
:10AC7000FB739A4200F2BD800DF13A01204603F0C9
:10AC800033FB002840F08F80099B0A9300239946EC
:10AC90000A9B644EDFF8A4A10B97A846002B54D062
:10ACA000B788099BFF1AB7FA87F77F09B8F81E40E3
:10ACB00096F82C50B18CB8F800C0B8F802E06309DF
:10ACC000012256F8233004F01F0402FA04F405F0C0
:10ACD00001051C40002977D0306A002300F1020BE7
:10ACE00002E0013399426FD030F833206245F8D149
:10ACF0003BF833207245F4D1DDF82CB00D930122DE
:10AD0000DAF800309B0403D5474B1B68062B24DC84
:10AD100095B18FB184B1BBF1000F0DD098F814300C
:10AD2000012B1FFA89F066D00D9A336A03EBC20338
:10AD300041465B68B26A98473836B9F1000F09D1CD
:10AD40000A9B4FF00109002BAAD1F388012B3ED9B1
:10AD50000A9FABE711B0BDE8F08F34480C922F2169
:10AD600019F0A8FF0C9A00284CD02F212F4819F079
:10AD7000A1FF0C9A411C2E4BD3F80435069236F8ED
:10AD8000062C029236F8082C01922A4A0092221EC2
:10AD900018BF01220592CDE903574FF486620720C0
:10ADA00011F0F0FCB4E7784606F004F9099B0A9329
:10ADB0006CE70FA802F0D2FBEB8ABDF83C200A97A3
:10ADC0009B1A9BB2099361E70022934698E7BDF86E
:10ADD0003A20DB00510903EB810317490B4402F0D1
:10ADE0001F025968012393400B4214BF012700271B
:10ADF0005CE70A904AE7B26A0C90414601F018FC01
:10AE00000C9891E709480C925C2119F053FF0C9AB9
:10AE100030B15C21054819F04DFF0C9A411CAAE79E
:10AE20000249A8E77C3400203C2E00201C5304007B
:10AE30000010014094530400EC340020402E002008
:10AE40002DE9F04301680B7803F0C002802AD1B0ED
:10AE5000044638D014D8180637D5774F3B6813F41A
:10AE6000005640F0A280E06903F0E0FC05AD8146A9
:10AE7000A06903F039FC2E6003262268314630E0D9
:10AE8000C02AEAD16C4FB1F801809EB23B689904A8
:10AE900004D56A4B1B68042B00F39C80E06903F027
:10AEA000C5FC8146A06903F01FFC4FF6FF7398456F
:10AEB00005AD22682E80A5F8028010D1FF2E71D931
:10AEC000022631460DE00B885BBA9EB27F2E66D01B
:10AED000594F3B6899044FF6FF78DFD5D9E7032631
:10AEE0003146A388A5F81E905B1A217A29736189DF
:10AEF000E981E1682961217C2975618AE98216442A
:10AF000061693A68A96194F8201029779BB2616A57
:10AF1000A88492046E602B8129623DD5474A12684D
:10AF2000042A39DD802B9C4628BF4FF0800C002B73
:10AF30007DD0434B0FAC1F68701E2146034610F8AE
:10AF4000012F4FEA121E023117F80EE001F802EC51
:10AF5000023302F00F029B1BBA5C01F8012C9C45E6
:10AF6000ECD80023374804F81C302F2119F0A2FE3A
:10AF7000002844D02F21334819F09CFE411C324A4E
:10AF8000324BD3F80435CDE90124314A0092052033
:10AF90004FF48A7211F0F6FB2846FFF751FE51B0CC
:10AFA000BDE8F083012631469BE7244B1B68042B48
:10AFB0000DDCE06903F03AFC05AD8146A06903F0C1
:10AFC00093FB0326002322682B60314689E74FF06C
:10AFD000000846461B482F2119F06CFEE0B12F21D6
:10AFE000184819F067FE411C184B1A4AD3F804356B
:10AFF00000920196FD22052011F0C4FB4EE7114896
:10B000005C2119F057FE28B15C210E4819F052FE60
:10B01000411CB4E70B49B2E70A485C2119F04AFE2B
:10B0200038B15C21074819F045FE411CDCE70FAC44
:10B0300097E70449D8E700BF402E00203C2E0020AF
:10B04000442E00201C530400005404000010014052
:10B050008C530400EC530400037833B1142B03D158
:10B06000C388022B04D0704770470430FFF7E8BE56
:10B07000024A137843F0020313707047E83400204B
:10B0800061B15AB153B1B1F808C0BCF5BE7F01D36C
:10B0900009207047012803D9052070470E2070470A
:10B0A00010B51F4CC0EBC00C04EBCC0C82B09CF86C
:10B0B0003440E40729D5BCF80C4034BBBCF804E0AC
:10B0C0004FF6FF74A6451DD0BCF806C0A44519D0A4
:10B0D000B1F802E0B1F800C0A6450ED11CF47F4FD4
:10B0E00016D00CF4404CBCF5004F0BD10093134626
:10B0F0000022FFF763FA02B010BD2CF03F0CBCF148
:10B10000C00FF3D0072002B010BD052002B010BD63
:10B110002CF07F04002CF5D1BCF17F0FE6D1F1E7D4
:10B120007434002010B5164C01F0CEFAFEF7C8FEBC
:10B1300070220021204619F0BDFC06220021114892
:10B1400019F0B8FC102200210F4819F0B3FC0F4A87
:10B150000F4BE360636413780E484FF0FF3161607A
:10B16000E16323F003030421017013700123A3841E
:10B17000A4F85C300220BDE8104015F035B800BFDF
:10B18000743400205C340020EC340020E8340020CB
:10B19000FFFF0200202E002010B5174C7022002166
:10B1A000204619F087FC06220021144819F082FC81
:10B1B00010220021124819F07DFC1248124B13494D
:10B1C000E3604FF0FF326364114B03606260012360
:10B1D000E26304220A70A384A4F85C300EF040FC01
:10B1E00001F05EFAFEF750FEFEF7F4FF094A13780D
:10B1F00023F00703137010BD743400205C3400206A
:10B20000EC34002068340020FFFF0200202E0020D4
:10B2100059B00200E8340020002800F0B9802DE980
:10B22000F0470D4682B0002977D0C368044613B1B9
:10B230008368002B71D04FF6FF732B80E36813B93E
:10B24000A368002B40D1B4F80480B8F1000F37D1C7
:10B2500005F076FD002840F09780A288DFF848C20C
:10B2600002EB42030CEB43039978DB78D9422FD1F0
:10B27000D4E90267002F5AD0DFF830A2002306F18C
:10B2800002094FF6FF7E0BE012F47F4F02EA0A003C
:10B2900022F07F0145D0B0F5004F0DD19F4246D935
:10B2A00039F8331036F83320714503F1010322F0E9
:10B2B0003F00E9D0C028F1D0072002B0BDE8F087F8
:10B2C000052002B0BDE8F087092002B0BDE8F08794
:10B2D000DFF8DC912088B9F80C306188934200F0E7
:10B2E000BF80B9F844309342C2D1B9F83A308B42AA
:10B2F000BED1B9F83830834208BF0123B8D1C3EBBF
:10B30000C30209EBC2022B8092F83420D1073BD450
:10B31000D4E90267002FAFD110E00E2002B0BDE8E3
:10B32000F0870029C8D17F2AC6D09F42B8D82B8881
:10B33000DFF87C914FF6FF7293422BD0C3EBC3032F
:10B3400009EBC30322691A632B88A268C3EBC3030A
:10B3500009EBC30300209A622B88E268C3EBC303A6
:10B3600009EBC3039A852B886269C3EBC30309EB1E
:10B37000C3039A612A88C2EBC20309EBC309A9F887
:10B38000142002B0BDE8F0870F2002B0BDE8F087BE
:10B390000E20704799F8343013F0010308D099F863
:10B3A0006C30DA0748BF04208BD44FF001084346C5
:10B3B000C3EBC30309EBC3034FF6FF72A5F800808C
:10B3C000DA802B88C3EBC30309EBC3039A802B8875
:10B3D000A188C3EBC30309EBC30399812B88618860
:10B3E000C3EBC30309EBC30359802B882188C3EB4C
:10B3F000C30329F833102B88C3EBC30309EBC30342
:10B400005A742188A388914203EB43030CEB430C4D
:10B4100020D09CF8033001338CF803302B88C3EB29
:10B42000C30309EBC30393F8342042F0010283F80D
:10B4300034201C4B29881B785B071DD4C1EBC1014C
:10B4400009EBC10393F8342042F0020283F8342060
:10B450002B8873E79CF8023001338CF80230DDE76B
:10B46000B9F802308B427FF43CAFB9F80030834228
:10B470007FF437AF434642E70223ADF8043001F5CD
:10B480000053ADF80630C1EBC101019809EBC101D1
:10B4900014F06CFD08B92B8850E7784605F08AFD5A
:10B4A000F9E700BFE83400205C34002000C0FFFF53
:10B4B000743400202DE9F04782B089B10B89B3F5CF
:10B4C000BE7F0C4607D2012805460ED9052738460F
:10B4D00002B0BDE8F0870927384602B0BDE8F08722
:10B4E0000E27384602B0BDE8F087DFF8FC90C0EBCD
:10B4F000C00209EBC2024FEAC00A92F83410C90731
:10B50000E4D591890029E1D190884FF6FF718842F6
:10B5100047D0D2888A4244D060882288884252D15B
:10B5200012F47F4F56D002F44042B2F5004F38D1AA
:10B530000227B84698441FFA88F8404615F032FEB4
:10B54000064600283DD0638822884FF6FF718B4263
:10B5500030D043701B0A0270837022896168F01931
:10B5600019F09AFACDF80080334600222146284689
:10B57000FFF724F80746B0B9AAEB050109EBC103B0
:10B58000C900DB7C5B070ED013312846CDF8008064
:10B59000494433462246FEF72FFE384602B0BDE846
:10B5A000F087072793E7304615F0FEFD384602B0D6
:10B5B000BDE8F08712F47F4F1CBF4270120A027080
:10B5C000CBE7042783E722F03F02C02AE9D1032713
:10B5D000B846AFE722F07F010029E2D17F2AE0D010
:10B5E0000127B846A6E700BF743400202DE9F043D8
:10B5F00083B091B1144682B11389B3F5BE7F07D2EF
:10B60000012880460ED90524204603B0BDE8F0830A
:10B610000924204603B0BDE8F0830E24204603B081
:10B62000BDE8F083304A0D46C0EBC00102EBC10219
:10B6300092F83410C907E6D59289002AE3D16088D0
:10B6400022884FF6FF7188422CD022F03F02C02A98
:10B650003DD14FF003094F461F44BFB2384615F0A5
:10B66000A1FD064688B3638822884FF6FF718B429E
:10B6700024D043701B0A027083702289616806EB34
:10B68000090019F009FA214633462A460097404638
:10B69000FEF794FF0446304615F086FD204603B0C1
:10B6A000BDE8F08312F47F4F13D002F44042B2F5AC
:10B6B000004F0CD14FF002094F46CDE712F47F4FF7
:10B6C0001CBF4270120A0270D7E704249CE70724CB
:10B6D0009AE722F07F010029F9D17F2AF7D04FF0B5
:10B6E00001094F46B8E700BF74340020012801D992
:10B6F000052070471A4AC0EBC00302EBC30292F860
:10B7000034C01CF0010FF3D0172922D8D3888B4204
:10B710000BD0144BD1801B7813F0040307D14CF0ED
:10B72000020C82F834C0184670470020704700B5FC
:10B7300083B000F500500223ADF80430ADF80600E8
:10B740000198114614F012FC28B9002003B05DF8EE
:10B7500004FB07207047784605F02CFCF5E700BF96
:10B7600074340020E834002081B1012801D905207B
:10B770007047074BC0EBC00003EBC00090F83430BB
:10B78000DB07F4D5C3880B80002070470E2070477C
:10B7900074340020012839D830B5214AC0EBC003E9
:10B7A00002EBC30383B093F834E01EF0010F4FEABD
:10B7B000C00C31D0DC7C01F0070304F007059D428A
:10B7C00004D1C1F3C403B3EBD40F1CD0154BACEBC5
:10B7D000000C1B7802EBCC0213F00403D17406D1E9
:10B7E0004EF00201184682F8341003B030BD00F567
:10B7F00000500223ADF80430ADF806000198114660
:10B8000014F0B4FB20B9002003B030BD0520704710
:10B81000784605F0CFFBF6E7052003B030BD00BF4A
:10B8200074340020E834002081B101280CD8084B82
:10B83000C0EBC00003EBC00090F83430DB0703D549
:10B84000C37C0B7000207047052070470E207047A6
:10B8500074340020012811D808B50C4AC0EBC0038D
:10B8600002EBC30393F83420D2070DD59A693AB19D
:10B8700041B19984FEF7F2FF002008BD0520704712
:10B88000062008BD072008BD052008BD743400202F
:10B89000012834D870B504462748C4EBC40300EB34
:10B8A000C30382B093F834C01CF0010F4FEAC40503
:10B8B0003BD09E69A6B33F2A34D8032932D89B7C5B
:10B8C000B2EB930F03D103F003038B4225D02D1B62
:10B8D00001F0030300EBC50543EA82022046AA7487
:10B8E000FEF7BCFF154B187810F0040009D195F84D
:10B8F000343043F0020385F8343002B070BD0520C7
:10B900007047022304F50054ADF80430ADF806404A
:10B910000198294614F02AFB50B9002002B070BDEE
:10B920000620EAE7072002B070BD052002B070BD16
:10B93000784605F03FFBF0E774340020E83400203F
:10B94000D9B1D2B1012801D9052070470D4BC0EB08
:10B95000C00003EBC00393F83400C007F4D5986926
:10B9600068B193F812C0CCF3010C81F800C09B7C45
:10B97000C3F385030020137070470E207047062024
:10B98000704700BF74340020F0B583B0044605F062
:10B99000D7F900283FD1012C02D9052003B0F0BD12
:10B9A000364DC4EBC40305EBC303E60093F8342023
:10B9B000D207F2D5DB89022BF0D1314A137813F08C
:10B9C00001012BD0137ADF0748BF0420E6D4012100
:10B9D00043F2010C08460F4623F0040343F0010331
:10B9E00002F83730331B05EBC303264FD8813B7871
:10B9F000580718D412F8313043F0020302F83130FE
:10BA0000341B05EBC405002095F8343043F00203E5
:10BA100085F83430C2E70F2003B0F0BD4FF4405C2E
:10BA200008460F46D8E702EBC102ADF806C05368DE
:10BA3000DB4300930223ADF804300198694614F00B
:10BA400095FAB0B93B785B07DAD5022204F50053CA
:10BA5000ADF80420ADF80630311B019805EBC101AB
:10BA600014F084FA08B9002098E7784605F0A2FAA5
:10BA7000F9E7784605F09EFAE4E700BF7434002049
:10BA8000EC340020E834002070B5012882B003D9DE
:10BA90000524204602B070BD214BC0EBC00003EB73
:10BAA000C00090F83430DA07F2D5C089022822D0DD
:10BAB00017291CD8C3001B4E04330122F55802FA83
:10BAC00001F115EA010403D00024204602B070BD44
:10BAD0000D43F550144B1B785B070ED416F830302D
:10BAE00043F0020306F83030204602B070BD072450
:10BAF000204602B070BD0624CBE700F5405002237B
:10BB0000ADF80430ADF80600ED43019800956946A4
:10BB100014F02CFA0028BCD0784605F04BFAB8E7B0
:10BB200074340020EC340020E834002030B585B0B7
:10BB30000128019102D9052005B030BD224AC0EB91
:10BB4000C00002EBC00090F83420D307F3D5B0F862
:10BB50000EC0BCF1020F20D017290B461AD84FEAAD
:10BB6000CC021A4D04320121AC5801FA03F314EA55
:10BB70000300E1D01649087824EA030310F004001A
:10BB8000AB500CD115F83C3043F0020305F83C30C3
:10BB900005B030BD072005B030BD0620CCE70CF560
:10BBA000405C0222ADF80C20ADF80EC0DB430398D8
:10BBB000029302A914F0DAF908B90020BCE778462C
:10BBC00005F0F8F9F9E700BF74340020EC340020E8
:10BBD000E8340020F0B583B00192002936D0144635
:10BBE000A2B3012802D9052003B0F0BD194BC0EB68
:10BBF000C00003EBC00E9EF83430DB07F3D5BEF86F
:10BC00000E30022B24D00022134E278822800125DB
:10BC1000BEF80E30012B05FA02F006EBC30C02D978
:10BC2000002003B0F0BDDCF80430184203D101322B
:10BC3000182AEDD1F4E723889F4205D921F8132073
:10BC4000238801332380F2E70920CDE70E20CBE7DC
:10BC50000620C9E774340020EC34002070B50128B8
:10BC600082B003D90524204602B070BD1D4EC0EB42
:10BC7000C00306EBC30CDA009CF83430DC07F1D5C6
:10BC800008292AD808320123B5588B4015EA030445
:10BC900003D00024204602B070BD2B43B350124B9A
:10BCA0001B785B0708D49CF83430204643F002032D
:10BCB0008CF8343002B070BD00F500500223ADF8AE
:10BCC0000430ADF806000198614614F04FF90028E1
:10BCD000C9D0784605F06EF9C5E70724204602B0C2
:10BCE00070BD00BF74340020E8340020012802D960
:10BCF00005231846704730B5214DC0EBC00305EB56
:10BD0000C30E4FEAC30C9EF83430DB0783B003D474
:10BD10000523184603B030BD082928D80CF1080CBB
:10BD2000012255F80C408A4014EA0203F1D0154B69
:10BD30001B7824EA020213F0040345F80C2008D112
:10BD40009EF83420184642F002028EF8342003B0E8
:10BD500030BD00F500500223ADF80430ADF8060008
:10BD60000198714614F002F928B90023D1E707239E
:10BD7000184603B030BD784605F01CF9F5E700BF62
:10BD800074340020E8340020002900F09780002A55
:10BD900000F09480012801D90520704730B54A4C45
:10BDA000C0EBC000C30004EBC00090F83400C00733
:10BDB00040F1868008334FF0000C1088A2F800C0D4
:10BDC000E558ED0707D500287CD0A1F800C04FF05A
:10BDD000010CA2F800C0E558AD070CD5B2F800C0C0
:10BDE00060456FD94FF0010E21F81CE0B2F800C099
:10BDF000F444A2F800C0E5586D070DD5B2F800C0B4
:10BE000060455FD94FF0020E21F81CE0B2F800C087
:10BE10000CF1010CA2F800C0E5582D070DD5B2F8C1
:10BE200000C060454ED94FF0030E21F81CE0B2F877
:10BE300000C00CF1010CA2F800C0E558ED060DD5CC
:10BE4000B2F800C060453DD94FF0040E21F81CE067
:10BE5000B2F800C00CF1010CA2F800C0E558AD0624
:10BE60000DD5B2F800C060452CD94FF0050E21F871
:10BE70001CE0B2F800C00CF1010CA2F800C0E558BB
:10BE80006D060DD5B2F800C060451BD94FF0060E07
:10BE900021F81CE0B2F800C00CF1010CA2F800C0BF
:10BEA000E3581B0608D5138898420BD9072021F8C0
:10BEB0001300138801331380002030BD0E2070471B
:10BEC000052030BD092030BD74340020012801D97F
:10BED000052070471A4AC0EBC00302EBC30292F878
:10BEE00034C01CF0010FF3D0082922D893888B426C
:10BEF0000BD0144B91801B7813F0040307D14CF046
:10BF0000020C82F834C0184670470020704700B514
:10BF100083B000F500500223ADF80430ADF8060000
:10BF20000198114614F022F828B9002003B05DF8FA
:10BF300004FB07207047784605F03CF8F5E700BFA2
:10BF400074340020E834002081B1012801D9052093
:10BF50007047074BC0EBC00003EBC00090F83430D3
:10BF6000DB07F4D583880B80002070470E207047D4
:10BF70007434002000B585B003068DF8070009D49D
:10BF8000012807D00DF10701044813F0EFFF05B0B9
:10BF90005DF804FB072005B05DF804FB02000040DB
:10BFA000014B1878704700BF202E002081B1012876
:10BFB00001D905207047074BC0EBC00003EBC00060
:10BFC00090F83430DB07F4D5037C0B700020704709
:10BFD0000E20704774340020012801D905207047D5
:10BFE0001B4AC0EBC00302EBC30292F834C01CF042
:10BFF000010FF3D081F080037E2B22D9537C8B423A
:10C000000BD0144B51741B7813F0040307D14CF080
:10C01000020C82F834C0184670470020704700B503
:10C0200083B000F500500223ADF80430ADF80600EF
:10C030000198114613F09AFF28B9002003B05DF86B
:10C0400004FB07207047784604F0B4FFF5E700BF13
:10C0500074340020E834002081B1012801D9052082
:10C060007047074BC0EBC00003EBC00090F83430C2
:10C07000DB07F4D5437C0B70002070470E2070471F
:10C080007434002031B118B9034B1B880B80704702
:10C09000052070470E2070475C34002031B118B97C
:10C0A000034B9B780B707047052070470E2070473C
:10C0B0005C34002031B118B9034BDB780B7070474A
:10C0C000052070470E2070475C340020A1B1012884
:10C0D00001D905207047094BC0EBC00003EBC0023B
:10C0E000C00092F834C01CF0010FF2D052884A8090
:10C0F0001B5A0B80002070470E20704774340020BC
:10C1000000B583B0019142B380B94FF6FF71154B72
:10C1100011809989BDF804C0BDF8060019B9B3F8BB
:10C1200002E0864510D0B3F8441019B1052003B0E1
:10C130005DF804FB598F8142F8D11B8F6345F5D11F
:10C14000012111800020F2E7B3F800E0E645F8D0C5
:10C15000B3F844100029E9D1ECE70E2003B05DF8F4
:10C1600004FB00BF7434002021B31AB330BB30B4D9
:10C170001488108004B3124B93F834C01CF0010FE4
:10C1800006D09D8925B9088001208442108013D0F3
:10C1900093F86C40E40702D4002030BC7047B3F839
:10C1A0004430002BF8D1012321F8103013880133DB
:10C1B0001380F1E70E2070470920EEE70520704755
:10C1C0007434002081B1012801D905207047074B44
:10C1D000C0EBC00003EBC00090F83430DB07F4D5AF
:10C1E000036B0B60002070470E20704774340020F2
:10C1F000012801D90520704730B504462048C4EB1A
:10C20000C40300EBC30583B095F83420D2074FEA8E
:10C21000C30302D4052003B030BD002214331844F8
:10C220001146FDF76FFE204600F0A4FAE88801F001
:10C230008FFC144A107800234FF0FF3210F00400F6
:10C240006A606B746B82AB7507D195F8343043F03C
:10C25000020385F8343003B030BD022304F50054E6
:10C26000ADF80430ADF806400198294613F07EFE83
:10C2700010B9002003B030BD784604F09BFEF8E70B
:10C2800074340020E8340020082813D838B50F4D46
:10C2900095F83430DB07044602D5AB88834210D0D2
:10C2A00095F86C3013F0010302D0AB8FA34203D09A
:10C2B000002038BD072070470120FFF799FF0020BC
:10C2C00038BD0020FFF794FFEAE700BF7434002078
:10C2D00038B52F4C2C2303FB0043054693F8403020
:10C2E000002B38D0B4F870307BB32C2202FB05420F
:10C2F000013B00209BB282F84000A4F87030FBB1F3
:10C30000B4F87230AB4200D038BD916B214B94F839
:10C3100040200B441ABB94F86C207ABB4FF6FF7395
:10C32000A4F87230784604F045FEB4F872302C223E
:10C3300002FB0344A16B1648BDE838400EF0E6B896
:10C34000BDE8384012480EF095B8784604F032FE49
:10C35000B4F87030C9E7784604F02CFEC2E7A16B50
:10C36000CA1A002AD7DA94F86C306BB1636E5B1A84
:10C37000002BA8BFA4F87200DDDA03E0626ED31AC6
:10C38000002BCBDA616E0123A4F87230D3E700BF33
:10C3900000350020008793032DE9F0419B4CB4F851
:10C3A000703084B00546002B54D04FF6FF73984F81
:10C3B000A4F8723094F8403001223A7005F57A768C
:10C3C0005BB1236B9B1B002B48DBA36B9B1B002BE0
:10C3D0004FF00003A4F872306CDB94F86C30ABB112
:10C3E000E36D9B1B002B4EDB636E9E1B002EC0F289
:10C3F000A080B4F872204FF6FF718A4226D02C211B
:10C4000001FB0242926B9B1A002B1FDBB4F87030C9
:10C4100083B1B4F87230012B12D82C2202FB0343F3
:10C420009B6B5A1B48BFEA1A0023E2603B7004B0C2
:10C43000BDE8F081E36000233B7004B0BDE8F0810B
:10C44000784604F0B7FDB4F87230E6E70123A4F8AB
:10C450007230DBE7784604F0ADFDA6E7002384F8F0
:10C460004030B4F87030208B013B03A9A4F8703041
:10C47000FFF7A8FE002840F09B80636B0399208B98
:10C4800001229847A9E7B4F87030B4F84400013BA2
:10C49000002203A984F86C20A4F87030FFF792FE04
:10C4A000002840F08980236E0399B4F844000122EB
:10C4B0009847ABE75749208BFEF7FCFF804650B307
:10C4C000554B1B689A0419D5544B1B68042B15DD7A
:10C4D00053482F2118F0EEFB002871D02F2150482F
:10C4E00018F0E8FB411C4F4B4F4AD3F8043500923B
:10C4F000CDF804808322052010F044F9B8F1080F2C
:10C5000009D0B8F1040F7BD0B8F10F0F78D078467E
:10C5100004F050FD05E0D4E90E231A445B00A26349
:10C52000E363226BA36BD31A002BBFF656AFA26353
:10C5300053E701233D49B4F84400A4F87230FEF7F4
:10C54000B9FF064630B3344B1B689B0418D5334BF8
:10C550001B68042B14DD32482F2118F0ABFB002898
:10C5600039D02F212E4818F0A5FB411C2D4B2E4A07
:10C57000D3F80435009201968322052010F002F9C9
:10C58000082E07D0042E31D00F2E2FD0784604F07D
:10C5900011FD05E0D4E919231A445B00C4E919230D
:10C5A000E26D636ED31A002BBFF630AF62662DE7E3
:10C5B000784604F0FFFC60E7784604F0FBFC72E785
:10C5C00017485C2118F076FBF0B15C21144818F094
:10C5D00071FB411C87E712485C2118F06BFB88B1A6
:10C5E0005C210F4818F066FB411CBFE701232C2299
:10C5F00002FB03439A6B02F51C4240329A6305E743
:10C600000023F4E70649B1E705496CE7003500204F
:10C61000FE3400201C350020402E00203C2E00203F
:10C620001C540400001001407C54040048350020D4
:10C630000128F8B505460F46164602D9784604F09B
:10C64000B9FC0EF051FE154B93F8400010B11A8B57
:10C65000AA420AD093F86C201AB1B3F84420AA4237
:10C6600018D0BDE8F8400EF081BE002002462C2410
:10C6700004FB02343B88A28D9A42F2D17B88E28D82
:10C680009A42EED1FFF724FE636B00223146284622
:10C690009847E6E701200246E9E700BF00350020A1
:10C6A00010B5064C74220021204618F003FA044B02
:10C6B0000449A16000221A7010BD00BF003500209F
:10C6C000FE34002099C3020070B5274C82B00EF0F2
:10C6D0000BFEB4F8703053B994F840308BB994F82D
:10C6E0006C3013BB02B0BDE870400EF03FBE0023BB
:10C6F0002046A4F870300DF0BDFE94F84030002BB9
:10C70000EDD0258B1948666B00212C2218F0D2F948
:10C7100001A92846FFF756FD08BB019902222846C9
:10C72000B04794F86C30002BDCD0B4F8445010487B
:10C73000246E00212C2218F0BDF901A92846FFF72C
:10C7400041FD40B9019902222846A04702B0BDE848
:10C7500070400EF00BBE784604F02CFCF2E77846F1
:10C7600004F028FCD9E700BF003500201835002070
:10C770004435002070B5012882B003D90524204635
:10C7800002B070BD184D04460EF0AEFD95F8403075
:10C7900013B12B8BA3420FD095F86C302BB9052425
:10C7A0000EF0E4FD204602B070BDB5F84430A3425F
:10C7B000F5D10120064601E000200646FFF788FD7E
:10C7C00001A92046FFF7FEFC48B92C2303FB0655C0
:10C7D000204601996B6B022298470024E0E77846D7
:10C7E00004F0E8FBF1E700BF00350020C0F30F4381
:10C7F000A3F580539BB20F2B18D830B40C4D0122F7
:10C800002C689A4014EA020082B00BD122430C88B3
:10C810002A60084A02EB830122F82340488002B0D4
:10C8200030BC7047002002B030BC70470520704714
:10C83000743500208035002010B5030C82B0012B28
:10C8400001900C4602D0784604F0B4FB034A044B36
:10C85000226008212181636002B010BD040008003D
:10C860000100100010B5030C82B0012B01900C46A2
:10C8700002D0784604F09EFB2388042B13D1A388B2
:10C88000012B10D16388082B0DD12389082B0AD1E5
:10C89000E388102B07D1054A1378002043F00103E9
:10C8A000137002B010BD0B2002B010BDC4370020C1
:10C8B00030B5C0F30F44A4F5805483B0A4B20F2C5C
:10C8C00001900D460FD80C4B620904F01F0153F87C
:10C8D000222001238B40134209D0084B33F8243027
:10C8E0002B8003B030BD784604F064FBEBE778465C
:10C8F00004F060FBF1E700BF7435002080350020B4
:10C9000010B5030C82B0022B01900C4602D0784681
:10C9100004F050FB074B1B68DB0707D506490422D0
:10C92000204602B0BDE8104018F0B6B8784604F0D2
:10C9300041FBF3E778350020B437002030B5C0F371
:10C940000F44A4F5005483B0A4B2072C01900D4607
:10C9500016D80F4B620904F01F0153F8222001235F
:10C960008B40134210D00B4B04EB840403EB840484
:10C970001022211D284603B0BDE8304018F08CB8C5
:10C98000784604F017FBE4E7784604F013FBEAE787
:10C990007C3500207C3A002070B5040C82B0B4F5E0
:10C9A000A04F01900D4602D0784604F003FBA4F599
:10C9B000A044104BC4F34A1204F01F0153F8222084
:10C9C00001238B401342A4B210D016230A4E03FB5E
:10C9D00004F4A11D10223144281D18F05DF8335BCA
:10C9E0002B80344463886B8002B070BD784604F0BD
:10C9F000E1FAEAE71437002018370020F0B5C0F359
:10CA00000F44A4F5405483B0A4B2032C01900E4609
:10CA100023D824220021304618F04CF8184B620924
:10CA200004F01F0153F8222001238B40134222D02F
:10CA3000AC21144D01FB04F42F192B5B338097F8C4
:10CA40006430B370A11C29441022F01C18F024F8A3
:10CA500097F864302BB903B0F0BD784604F0AAFA19
:10CA6000D7E712341022291906F1130003B0BDE8EC
:10CA7000F04018F011B8784604F09CFAD8E700BFEF
:10CA8000C8370020CC37002070B5C0F30F44A4F5A0
:10CA9000804482B0A4B2072C01900E4622D82622F0
:10CAA0000021304618F006F8174B620904F01F0108
:10CAB00053F8222001238B40134221D02A21134D09
:10CAC00001FB04F4A11D10222944701D17F0E4FF9E
:10CAD0002A5B32802B195A8872809B7D33712BB967
